{
  "address": "0x790E5EE47ff3AEF2B906155e39CE5C16390e1E0B",
  "abi": [
    {
      "inputs": [
        {
          "internalType": "address",
          "name": "_weth",
          "type": "address"
        },
        {
          "internalType": "address",
          "name": "_usdc",
          "type": "address"
        },
        {
          "internalType": "address",
          "name": "_reward",
          "type": "address"
        },
        {
          "internalType": "address",
          "name": "_master",
          "type": "address"
        },
        {
          "internalType": "address",
          "name": "_factory",
          "type": "address"
        }
      ],
      "stateMutability": "nonpayable",
      "type": "constructor"
    },
    {
      "inputs": [
        {
          "internalType": "uint256",
          "name": "pid",
          "type": "uint256"
        }
      ],
      "name": "apyOfPool",
      "outputs": [
        {
          "internalType": "uint256",
          "name": "apyPool",
          "type": "uint256"
        }
      ],
      "stateMutability": "view",
      "type": "function"
    },
    {
      "inputs": [
        {
          "internalType": "uint256[]",
          "name": "pids",
          "type": "uint256[]"
        }
      ],
      "name": "apyOfPools",
      "outputs": [
        {
          "internalType": "uint256[]",
          "name": "apyPool",
          "type": "uint256[]"
        }
      ],
      "stateMutability": "view",
      "type": "function"
    },
    {
      "inputs": [
        {
          "internalType": "uint256",
          "name": "pid",
          "type": "uint256"
        },
        {
          "internalType": "address",
          "name": "user",
          "type": "address"
        }
      ],
      "name": "boostApyOfPool",
      "outputs": [
        {
          "internalType": "uint256",
          "name": "apyPool",
          "type": "uint256"
        }
      ],
      "stateMutability": "view",
      "type": "function"
    },
    {
      "inputs": [
        {
          "internalType": "uint256[]",
          "name": "pids",
          "type": "uint256[]"
        }
      ],
      "name": "boostApyOfPools",
      "outputs": [
        {
          "internalType": "uint256[]",
          "name": "apyPool",
          "type": "uint256[]"
        }
      ],
      "stateMutability": "view",
      "type": "function"
    },
    {
      "inputs": [
        {
          "internalType": "uint256[]",
          "name": "pids",
          "type": "uint256[]"
        },
        {
          "internalType": "address",
          "name": "user",
          "type": "address"
        }
      ],
      "name": "boostInfoOfPools",
      "outputs": [
        {
          "internalType": "uint256",
          "name": "tokenPrice",
          "type": "uint256"
        },
        {
          "internalType": "uint256",
          "name": "totalTvl",
          "type": "uint256"
        },
        {
          "internalType": "uint256",
          "name": "totalTvlInUSD",
          "type": "uint256"
        },
        {
          "internalType": "uint256[]",
          "name": "allocPoint",
          "type": "uint256[]"
        },
        {
          "internalType": "uint256[]",
          "name": "apy",
          "type": "uint256[]"
        },
        {
          "internalType": "uint256[]",
          "name": "boostApy",
          "type": "uint256[]"
        },
        {
          "internalType": "uint256[]",
          "name": "tvl",
          "type": "uint256[]"
        },
        {
          "internalType": "uint256[]",
          "name": "tvlInUSD",
          "type": "uint256[]"
        }
      ],
      "stateMutability": "view",
      "type": "function"
    },
    {
      "inputs": [],
      "name": "ethPriceInUSD",
      "outputs": [
        {
          "internalType": "uint256",
          "name": "",
          "type": "uint256"
        }
      ],
      "stateMutability": "view",
      "type": "function"
    },
    {
      "inputs": [],
      "name": "factory",
      "outputs": [
        {
          "internalType": "contract IEvmoSwapFactory",
          "name": "",
          "type": "address"
        }
      ],
      "stateMutability": "view",
      "type": "function"
    },
    {
      "inputs": [
        {
          "internalType": "uint256[]",
          "name": "pids",
          "type": "uint256[]"
        }
      ],
      "name": "infoOfPools",
      "outputs": [
        {
          "internalType": "uint256",
          "name": "tokenPrice",
          "type": "uint256"
        },
        {
          "internalType": "uint256",
          "name": "totalTvl",
          "type": "uint256"
        },
        {
          "internalType": "uint256",
          "name": "totalTvlInUSD",
          "type": "uint256"
        },
        {
          "internalType": "uint256[]",
          "name": "allocPoint",
          "type": "uint256[]"
        },
        {
          "internalType": "uint256[]",
          "name": "apy",
          "type": "uint256[]"
        },
        {
          "internalType": "uint256[]",
          "name": "tvl",
          "type": "uint256[]"
        },
        {
          "internalType": "uint256[]",
          "name": "tvlInUSD",
          "type": "uint256[]"
        }
      ],
      "stateMutability": "view",
      "type": "function"
    },
    {
      "inputs": [],
      "name": "master",
      "outputs": [
        {
          "internalType": "contract IMasterChef",
          "name": "",
          "type": "address"
        }
      ],
      "stateMutability": "view",
      "type": "function"
    },
    {
      "inputs": [
        {
          "internalType": "address",
          "name": "",
          "type": "address"
        }
      ],
      "name": "pairAddresses",
      "outputs": [
        {
          "internalType": "address",
          "name": "",
          "type": "address"
        }
      ],
      "stateMutability": "view",
      "type": "function"
    },
    {
      "inputs": [],
      "name": "reward",
      "outputs": [
        {
          "internalType": "contract IERC20",
          "name": "",
          "type": "address"
        }
      ],
      "stateMutability": "view",
      "type": "function"
    },
    {
      "inputs": [
        {
          "internalType": "uint256",
          "name": "pid",
          "type": "uint256"
        }
      ],
      "name": "rewardPerYearOfPool",
      "outputs": [
        {
          "internalType": "uint256",
          "name": "",
          "type": "uint256"
        }
      ],
      "stateMutability": "view",
      "type": "function"
    },
    {
      "inputs": [],
      "name": "rewardPriceInUSD",
      "outputs": [
        {
          "internalType": "uint256",
          "name": "",
          "type": "uint256"
        }
      ],
      "stateMutability": "view",
      "type": "function"
    },
    {
      "inputs": [
        {
          "internalType": "address",
          "name": "asset",
          "type": "address"
        },
        {
          "internalType": "address",
          "name": "pair",
          "type": "address"
        }
      ],
      "name": "setPairAddress",
      "outputs": [],
      "stateMutability": "nonpayable",
      "type": "function"
    },
    {
      "inputs": [
        {
          "internalType": "uint256",
          "name": "pid",
          "type": "uint256"
        }
      ],
      "name": "tvlOfPool",
      "outputs": [
        {
          "internalType": "uint256",
          "name": "allocPoint",
          "type": "uint256"
        },
        {
          "internalType": "uint256",
          "name": "tvl",
          "type": "uint256"
        },
        {
          "internalType": "uint256",
          "name": "tvlInUSD",
          "type": "uint256"
        }
      ],
      "stateMutability": "view",
      "type": "function"
    },
    {
      "inputs": [
        {
          "internalType": "uint256[]",
          "name": "pids",
          "type": "uint256[]"
        }
      ],
      "name": "tvlOfPools",
      "outputs": [
        {
          "internalType": "uint256",
          "name": "totalTvl",
          "type": "uint256"
        },
        {
          "internalType": "uint256",
          "name": "totalTvlInUSD",
          "type": "uint256"
        },
        {
          "internalType": "uint256[]",
          "name": "allocPoint",
          "type": "uint256[]"
        },
        {
          "internalType": "uint256[]",
          "name": "tvl",
          "type": "uint256[]"
        },
        {
          "internalType": "uint256[]",
          "name": "tvlInUSD",
          "type": "uint256[]"
        }
      ],
      "stateMutability": "view",
      "type": "function"
    },
    {
      "inputs": [],
      "name": "usdc",
      "outputs": [
        {
          "internalType": "contract IERC20",
          "name": "",
          "type": "address"
        }
      ],
      "stateMutability": "view",
      "type": "function"
    },
    {
      "inputs": [
        {
          "internalType": "address",
          "name": "asset",
          "type": "address"
        },
        {
          "internalType": "uint256",
          "name": "amount",
          "type": "uint256"
        }
      ],
      "name": "valueOfAsset",
      "outputs": [
        {
          "internalType": "uint256",
          "name": "valueInETH",
          "type": "uint256"
        },
        {
          "internalType": "uint256",
          "name": "valueInUSD",
          "type": "uint256"
        }
      ],
      "stateMutability": "view",
      "type": "function"
    },
    {
      "inputs": [],
      "name": "weth",
      "outputs": [
        {
          "internalType": "contract IERC20",
          "name": "",
          "type": "address"
        }
      ],
      "stateMutability": "view",
      "type": "function"
    }
  ],
  "transactionHash": "0xcd578ab02aa3dcf2163679a84279224d577ffdd4848ea38a439987a2bf405884",
  "args": [
    "0xab0D0540b724D7A1BCF64A651fc245BEDb11C091",
    "0x9b5bb7F5BE680843Bcd3B54D4E5C6eE889c124Df",
    "0xd41223b4Ed7e68275D3C567c237217Fbb2575568",
    "0xD3930575cf356f5cba89DD7Cdb06668e6C00F4a9",
    "0x2A36911C94d702e9Ea3dbc1a836ae49E3EdAe748"
  ],
  "solcInputHash": "17d3ba2d960f961a8b40c627c7da50c7",
  "bytecode": "0x60806040523480156200001157600080fd5b5060405162002498380380620024988339810160408190526200003491620000a3565b600180546001600160a01b03199081166001600160a01b039788161790915560028054821695871695909517909455600580548516938616939093179092556003805484169185169190911790556004805483169190931617909155600080543392169190911790556200013b565b600080600080600060a08688031215620000bb578081fd5b8551620000c88162000122565b6020870151909550620000db8162000122565b6040870151909450620000ee8162000122565b6060870151909350620001018162000122565b6080870151909250620001148162000122565b809150509295509295909350565b6001600160a01b03811681146200013857600080fd5b50565b61234d806200014b6000396000f3fe608060405234801561001057600080fd5b50600436106101215760003560e01c80636f5d545f116100ad578063b615058f11610071578063b615058f1461025d578063c45a01551461027f578063cc97280d14610287578063dffab67a146102ae578063ee97f7f3146102c157610121565b80636f5d545f14610206578063775c60071461020e578063891a8b85146102215780638b16cf98146102295780639268af6a1461023c57610121565b80633e413bee116100f45780633e413bee1461019f5780633fc8cef3146101a7578063420e8dbb146101af5780634fd0a74f146101cf57806359c0b3f1146101e257610121565b8063019294cd146101265780631355749d1461013b5780631d7d674a14610164578063228cb7331461018a575b600080fd5b610139610134366004611d29565b6102c9565b005b61014e610149366004611e04565b61032a565b60405161015b919061202b565b60405180910390f35b610177610172366004611e04565b6103bd565b60405161015b97969594939291906121b7565b6101926105e5565b60405161015b9190611ffd565b6101926105f4565b610192610603565b6101c26101bd366004611f05565b610612565b60405161015b9190612122565b61014e6101dd366004611e04565b6107c0565b6101f56101f0366004611e04565b610840565b60405161015b959493929190612150565b6101c26109c6565b6101c261021c366004611f05565b6109f0565b6101c2610c0c565b610192610237366004611cf1565b610e26565b61024f61024a366004611d61565b610e41565b60405161015b929190612142565b61027061026b366004611f05565b61163c565b60405161015b939291906121a1565b61019261176a565b61029a610295366004611e36565b611779565b60405161015b989796959493929190612224565b6101c26102bc366004611f35565b6119fa565b610192611bcb565b6000546001600160a01b031633146102fc5760405162461bcd60e51b81526004016102f3906120ed565b60405180910390fd5b6001600160a01b03918216600090815260066020526040902080546001600160a01b03191691909216179055565b606081516001600160401b038111801561034357600080fd5b5060405190808252806020026020018201604052801561036d578160200160208202803683370190505b50905060005b82518110156103b75761039883828151811061038b57fe5b6020026020010151610612565b8282815181106103a457fe5b6020908102919091010152600101610373565b50919050565b6000806000606080606080600095506000945087516001600160401b03811180156103e757600080fd5b50604051908082528060200260200182016040528015610411578160200160208202803683370190505b50935087516001600160401b038111801561042b57600080fd5b50604051908082528060200260200182016040528015610455578160200160208202803683370190505b50925087516001600160401b038111801561046f57600080fd5b50604051908082528060200260200182016040528015610499578160200160208202803683370190505b50915087516001600160401b03811180156104b357600080fd5b506040519080825280602002602001820160405280156104dd578160200160208202803683370190505b5090506104e86109c6565b965060005b88518110156105d95761050589828151811061038b57fe5b84828151811061051157fe5b60200260200101818152505061053989828151811061052c57fe5b602002602001015161163c565b87848151811061054557fe5b6020026020010186858151811061055857fe5b6020026020010186868151811061056b57fe5b602002602001018381525083815250838152505050506105a783828151811061059057fe5b602002602001015188611bda90919063ffffffff16565b96506105cf8282815181106105b857fe5b602002602001015187611bda90919063ffffffff16565b95506001016104ed565b50919395979092949650565b6005546001600160a01b031681565b6002546001600160a01b031681565b6001546001600160a01b031681565b600354604051631526fe2760e01b8152600091829182916001600160a01b031690631526fe2790610647908790600401612122565b60e06040518083038186803b15801561065f57600080fd5b505afa158015610673573d6000803e3d6000fd5b505050506040513d601f19601f820116820180604052508101906106979190611d8c565b50505050509150915060006106ac8383610e41565b506005549091506000906106d1906001600160a01b0316670de0b6b3a7640000610e41565b50905060006106df876109f0565b9050806106f4576000955050505050506107bb565b826107105769021e19e0c9bab2400000955050505050506107bb565b6107b360646107ad856107ad856107a788600360009054906101000a90046001600160a01b03166001600160a01b031663bd4aa7476040518163ffffffff1660e01b815260040160206040518083038186803b15801561076f57600080fd5b505afa158015610783573d6000803e3d6000fd5b505050506040513d601f19601f820116820180604052508101906107a79190611f1d565b90611c06565b90611c40565b955050505050505b919050565b606081516001600160401b03811180156107d957600080fd5b50604051908082528060200260200182016040528015610803578160200160208202803683370190505b50905060005b82518110156103b75761082183828151811061038b57fe5b82828151811061082d57fe5b6020908102919091010152600101610809565b80516000908190606090819081906001600160401b038111801561086357600080fd5b5060405190808252806020026020018201604052801561088d578160200160208202803683370190505b50925085516001600160401b03811180156108a757600080fd5b506040519080825280602002602001820160405280156108d1578160200160208202803683370190505b50915085516001600160401b03811180156108eb57600080fd5b50604051908082528060200260200182016040528015610915578160200160208202803683370190505b50905060005b86518110156109bc5761093387828151811061052c57fe5b86848151811061093f57fe5b6020026020010186858151811061095257fe5b6020026020010186868151811061096557fe5b6020026020010183815250838152508381525050505061098a8382815181106105b857fe5b95506109b282828151811061099b57fe5b602002602001015186611bda90919063ffffffff16565b945060010161091b565b5091939590929450565b60055460009081906109e9906001600160a01b0316670de0b6b3a7640000610e41565b9250505090565b60008042600360009054906101000a90046001600160a01b03166001600160a01b03166378e979256040518163ffffffff1660e01b815260040160206040518083038186803b158015610a4257600080fd5b505afa158015610a56573d6000803e3d6000fd5b505050506040513d601f19601f82011682018060405250810190610a7a9190611f1d565b1115610a87576000610a8a565b60015b600354604051631526fe2760e01b815260ff9290921692506000916001600160a01b0390911690631526fe2790610ac5908790600401612122565b60e06040518083038186803b158015610add57600080fd5b505afa158015610af1573d6000803e3d6000fd5b505050506040513d601f19601f82011682018060405250810190610b159190611d8c565b5050509350505050610c04600360009054906101000a90046001600160a01b03166001600160a01b03166317caf6f16040518163ffffffff1660e01b815260040160206040518083038186803b158015610b6e57600080fd5b505afa158015610b82573d6000803e3d6000fd5b505050506040513d601f19601f82011682018060405250810190610ba69190611f1d565b6107ad836107a76301e133806107a788600360009054906101000a90046001600160a01b03166001600160a01b031663ddc6b8126040518163ffffffff1660e01b815260040160206040518083038186803b15801561076f57600080fd5b949350505050565b6004805460025460015460405163e6a4390560e01b815260009485946001600160a01b039081169463e6a4390594610c4b949183169392169101612011565b60206040518083038186803b158015610c6357600080fd5b505afa158015610c77573d6000803e3d6000fd5b505050506040513d601f19601f82011682018060405250810190610c9b9190611d0d565b90506000600260009054906101000a90046001600160a01b03166001600160a01b031663313ce5676040518163ffffffff1660e01b815260040160206040518083038186803b158015610ced57600080fd5b505afa158015610d01573d6000803e3d6000fd5b505050506040513d601f19601f82011682018060405250810190610d259190611f86565b6002546040516370a0823160e01b815260ff929092169250600091610d85916012859003600a0a916001600160a01b03909116906370a0823190610d6d908890600401611ffd565b60206040518083038186803b15801561076f57600080fd5b6001546040516370a0823160e01b8152919250610e1e916001600160a01b03909116906370a0823190610dbc908790600401611ffd565b60206040518083038186803b158015610dd457600080fd5b505afa158015610de8573d6000803e3d6000fd5b505050506040513d601f19601f82011682018060405250810190610e0c9190611f1d565b6107ad83670de0b6b3a7640000611c06565b935050505090565b6006602052600090815260409020546001600160a01b031681565b6000806001600160a01b0384161580610e6757506001546001600160a01b038581169116145b15610e9457829150610e8d670de0b6b3a76400006107ad610e86610c0c565b8690611c06565b9050611635565b7f6bf8def7dc85b1ca7bde669e1e93e970f8480e27a1ae3435a3d8cd9b752061fe846001600160a01b03166395d89b416040518163ffffffff1660e01b815260040160006040518083038186803b158015610eee57600080fd5b505afa158015610f02573d6000803e3d6000fd5b505050506040513d6000823e601f3d908101601f19168201604052610f2a9190810190611e7a565b604051602001610f3a9190611fe1565b6040516020818303038152906040528051906020012014156113cf5760015460408051630dfe168160e01b815290516001600160a01b0392831692871691630dfe1681916004808301926020929190829003018186803b158015610f9d57600080fd5b505afa158015610fb1573d6000803e3d6000fd5b505050506040513d601f19601f82011682018060405250810190610fd59190611d0d565b6001600160a01b0316148061106f57506001546040805163d21220a760e01b815290516001600160a01b039283169287169163d21220a7916004808301926020929190829003018186803b15801561102c57600080fd5b505afa158015611040573d6000803e3d6000fd5b505050506040513d601f19601f820116820180604052508101906110649190611d0d565b6001600160a01b0316145b1561119f57611178846001600160a01b03166318160ddd6040518163ffffffff1660e01b815260040160206040518083038186803b1580156110b057600080fd5b505afa1580156110c4573d6000803e3d6000fd5b505050506040513d601f19601f820116820180604052508101906110e89190611f1d565b6001546040516370a0823160e01b81526107ad916002916107a7916001600160a01b0316906370a0823190611121908c90600401611ffd565b60206040518083038186803b15801561113957600080fd5b505afa15801561114d573d6000803e3d6000fd5b505050506040513d601f19601f820116820180604052508101906111719190611f1d565b8890611c06565b9150611198670de0b6b3a76400006107ad611191610c0c565b8590611c06565b90506113ca565b6000846001600160a01b0316630dfe16816040518163ffffffff1660e01b815260040160206040518083038186803b1580156111da57600080fd5b505afa1580156111ee573d6000803e3d6000fd5b505050506040513d601f19601f820116820180604052508101906112129190611d0d565b6001600160a01b03166370a08231866040518263ffffffff1660e01b815260040161123d9190611ffd565b60206040518083038186803b15801561125557600080fd5b505afa158015611269573d6000803e3d6000fd5b505050506040513d601f19601f8201168201806040525081019061128d9190611f1d565b90506000611313866001600160a01b0316630dfe16816040518163ffffffff1660e01b815260040160206040518083038186803b1580156112cd57600080fd5b505afa1580156112e1573d6000803e3d6000fd5b505050506040513d601f19601f820116820180604052508101906113059190611d0d565b670de0b6b3a7640000610e41565b5090506113a5866001600160a01b03166318160ddd6040518163ffffffff1660e01b815260040160206040518083038186803b15801561135257600080fd5b505afa158015611366573d6000803e3d6000fd5b505050506040513d601f19601f8201168201806040525081019061138a9190611f1d565b6107ad670de0b6b3a764000081856107a76002818d8b611c06565b93506113c5670de0b6b3a76400006107ad6113be610c0c565b8790611c06565b925050505b611635565b6001600160a01b0380851660009081526006602052604090205416806113fd57506001546001600160a01b03165b6004805460405163e6a4390560e01b81526000926001600160a01b039092169163e6a4390591611431918a91879101612011565b60206040518083038186803b15801561144957600080fd5b505afa15801561145d573d6000803e3d6000fd5b505050506040513d601f19601f820116820180604052508101906114819190611d0d565b90506001600160a01b038116158061151257506040516370a0823160e01b81526001600160a01b038716906370a08231906114c0908490600401611ffd565b60206040518083038186803b1580156114d857600080fd5b505afa1580156114ec573d6000803e3d6000fd5b505050506040513d601f19601f820116820180604052508101906115109190611f1d565b155b156115205760009350611619565b6040516370a0823160e01b81526115d0906001600160a01b038816906370a0823190611550908590600401611ffd565b60206040518083038186803b15801561156857600080fd5b505afa15801561157c573d6000803e3d6000fd5b505050506040513d601f19601f820116820180604052508101906115a09190611f1d565b6107ad87856001600160a01b03166370a08231866040518263ffffffff1660e01b8152600401610d6d9190611ffd565b6001549094506001600160a01b038381169116146116195760006115fc83670de0b6b3a7640000610e41565b509050611615670de0b6b3a76400006107ad8784611c06565b9450505b611630670de0b6b3a76400006107ad6113be610c0c565b925050505b9250929050565b600354604051631526fe2760e01b815260009182918291829182916001600160a01b031690631526fe2790611675908990600401612122565b60e06040518083038186803b15801561168d57600080fd5b505afa1580156116a1573d6000803e3d6000fd5b505050506040513d601f19601f820116820180604052508101906116c59190611d8c565b50506003546040516370a0823160e01b8152929a50949650899550506001600160a01b03808716946370a08231945061170393501690600401611ffd565b60206040518083038186803b15801561171b57600080fd5b505afa15801561172f573d6000803e3d6000fd5b505050506040513d601f19601f820116820180604052508101906117539190611f1d565b935061175f8285610e41565b959794965050505050565b6004546001600160a01b031681565b60008060006060806060806060600096506000955089516001600160401b03811180156117a557600080fd5b506040519080825280602002602001820160405280156117cf578160200160208202803683370190505b50945089516001600160401b03811180156117e957600080fd5b50604051908082528060200260200182016040528015611813578160200160208202803683370190505b50935089516001600160401b038111801561182d57600080fd5b50604051908082528060200260200182016040528015611857578160200160208202803683370190505b50925089516001600160401b038111801561187157600080fd5b5060405190808252806020026020018201604052801561189b578160200160208202803683370190505b50915089516001600160401b03811180156118b557600080fd5b506040519080825280602002602001820160405280156118df578160200160208202803683370190505b5090506118ea6109c6565b975060005b8a518110156119ec576119078b828151811061038b57fe5b85828151811061191357fe5b60200260200101818152505061193c8b828151811061192e57fe5b60200260200101518b6119fa565b84828151811061194857fe5b6020026020010181815250506119638b828151811061052c57fe5b88848151811061196f57fe5b6020026020010186858151811061198257fe5b6020026020010186868151811061199557fe5b602002602001018381525083815250838152505050506119d18382815181106119ba57fe5b602002602001015189611bda90919063ffffffff16565b97506119e282828151811061059057fe5b96506001016118ef565b509295985092959890939650565b600354604051631526fe2760e01b8152600091829182916001600160a01b031690631526fe2790611a2f908890600401612122565b60e06040518083038186803b158015611a4757600080fd5b505afa158015611a5b573d6000803e3d6000fd5b505050506040513d601f19601f82011682018060405250810190611a7f9190611d8c565b50506003546040516393f1a40b60e01b815295975093955060009485946001600160a01b031693506393f1a40b9250611abf91508a908a9060040161212b565b60606040518083038186803b158015611ad757600080fd5b505afa158015611aeb573d6000803e3d6000fd5b505050506040513d601f19601f82011682018060405250810190611b0f9190611f59565b50915091508060001415611b3157611b2687610612565b945050505050611bc5565b6000611b3d8584610e41565b50600554909150600090611b62906001600160a01b0316670de0b6b3a7640000610e41565b5090506000611b78866107ad866107a78e6109f0565b905080611b8f576000975050505050505050611bc5565b82611bad5769021e19e0c9bab2400000975050505050505050611bc5565b611bbb836107ad8484611c06565b9750505050505050505b92915050565b6003546001600160a01b031681565b600082820183811015611bff5760405162461bcd60e51b81526004016102f39061203e565b9392505050565b600082611c1557506000611bc5565b82820282848281611c2257fe5b0414611bff5760405162461bcd60e51b81526004016102f3906120ac565b6000808211611c615760405162461bcd60e51b81526004016102f390612075565b818381611c6a57fe5b049392505050565b600082601f830112611c82578081fd5b81356001600160401b03811115611c97578182fd5b6020808202611ca78282016122a9565b83815293508184018583018287018401881015611cc357600080fd5b600092505b84831015611ce6578035825260019290920191908301908301611cc8565b505050505092915050565b600060208284031215611d02578081fd5b8135611bff816122ff565b600060208284031215611d1e578081fd5b8151611bff816122ff565b60008060408385031215611d3b578081fd5b8235611d46816122ff565b91506020830135611d56816122ff565b809150509250929050565b60008060408385031215611d73578182fd5b8235611d7e816122ff565b946020939093013593505050565b600080600080600080600060e0888a031215611da6578283fd5b8751611db1816122ff565b602089015160408a015191985096508015158114611dcd578384fd5b80955050606088015193506080880151925060a0880151915060c0880151611df4816122ff565b8091505092959891949750929550565b600060208284031215611e15578081fd5b81356001600160401b03811115611e2a578182fd5b610c0484828501611c72565b60008060408385031215611e48578182fd5b82356001600160401b03811115611e5d578283fd5b611e6985828601611c72565b9250506020830135611d56816122ff565b600060208284031215611e8b578081fd5b81516001600160401b0380821115611ea1578283fd5b818401915084601f830112611eb4578283fd5b815181811115611ec2578384fd5b611ed5601f8201601f19166020016122a9565b9150808252856020828501011115611eeb578384fd5b611efc8160208401602086016122cf565b50949350505050565b600060208284031215611f16578081fd5b5035919050565b600060208284031215611f2e578081fd5b5051919050565b60008060408385031215611f47578182fd5b823591506020830135611d56816122ff565b600080600060608486031215611f6d578283fd5b8351925060208401519150604084015190509250925092565b600060208284031215611f97578081fd5b815160ff81168114611bff578182fd5b6000815180845260208085019450808401835b83811015611fd657815187529582019590820190600101611fba565b509495945050505050565b60008251611ff38184602087016122cf565b9190910192915050565b6001600160a01b0391909116815260200190565b6001600160a01b0392831681529116602082015260400190565b600060208252611bff6020830184611fa7565b6020808252601b908201527f536166654d6174683a206164646974696f6e206f766572666c6f770000000000604082015260600190565b6020808252601a908201527f536166654d6174683a206469766973696f6e206279207a65726f000000000000604082015260600190565b60208082526021908201527f536166654d6174683a206d756c7469706c69636174696f6e206f766572666c6f6040820152607760f81b606082015260800190565b6020808252818101527f4f776e61626c653a2063616c6c6572206973206e6f7420746865206f776e6572604082015260600190565b90815260200190565b9182526001600160a01b0316602082015260400190565b918252602082015260400190565b600086825285602083015260a0604083015261216f60a0830186611fa7565b82810360608401526121818186611fa7565b905082810360808401526121958185611fa7565b98975050505050505050565b9283526020830191909152604082015260600190565b600088825287602083015286604083015260e060608301526121dc60e0830187611fa7565b82810360808401526121ee8187611fa7565b905082810360a08401526122028186611fa7565b905082810360c08401526122168185611fa7565b9a9950505050505050505050565b60006101008a835289602084015288604084015280606084015261224a81840189611fa7565b9050828103608084015261225e8188611fa7565b905082810360a08401526122728187611fa7565b905082810360c08401526122868186611fa7565b905082810360e084015261229a8185611fa7565b9b9a5050505050505050505050565b6040518181016001600160401b03811182821017156122c757600080fd5b604052919050565b60005b838110156122ea5781810151838201526020016122d2565b838111156122f9576000848401525b50505050565b6001600160a01b038116811461231457600080fd5b5056fea2646970667358221220978e084ff7f0dfcc7615ba1842aea83c4d05798266d4f8db06a6bfd8c699ee3864736f6c634300060c0033",
  "devdoc": {
    "kind": "dev",
    "methods": {},
    "version": 1
  },
  "userdoc": {
    "kind": "user",
    "methods": {},
    "version": 1
  },
  "storageLayout": {
    "storage": [
      {
        "astId": 33737,
        "contract": "contracts/tools/Dashboard.sol:Dashboard",
        "label": "_owner",
        "offset": 0,
        "slot": "0",
        "type": "t_address"
      },
      {
        "astId": 33739,
        "contract": "contracts/tools/Dashboard.sol:Dashboard",
        "label": "weth",
        "offset": 0,
        "slot": "1",
        "type": "t_contract(IERC20)1178"
      },
      {
        "astId": 33741,
        "contract": "contracts/tools/Dashboard.sol:Dashboard",
        "label": "usdc",
        "offset": 0,
        "slot": "2",
        "type": "t_contract(IERC20)1178"
      },
      {
        "astId": 33743,
        "contract": "contracts/tools/Dashboard.sol:Dashboard",
        "label": "master",
        "offset": 0,
        "slot": "3",
        "type": "t_contract(IMasterChef)9303"
      },
      {
        "astId": 33745,
        "contract": "contracts/tools/Dashboard.sol:Dashboard",
        "label": "factory",
        "offset": 0,
        "slot": "4",
        "type": "t_contract(IEvmoSwapFactory)8318"
      },
      {
        "astId": 33747,
        "contract": "contracts/tools/Dashboard.sol:Dashboard",
        "label": "reward",
        "offset": 0,
        "slot": "5",
        "type": "t_contract(IERC20)1178"
      },
      {
        "astId": 33751,
        "contract": "contracts/tools/Dashboard.sol:Dashboard",
        "label": "pairAddresses",
        "offset": 0,
        "slot": "6",
        "type": "t_mapping(t_address,t_address)"
      }
    ],
    "types": {
      "t_address": {
        "encoding": "inplace",
        "label": "address",
        "numberOfBytes": "20"
      },
      "t_contract(IERC20)1178": {
        "encoding": "inplace",
        "label": "contract IERC20",
        "numberOfBytes": "20"
      },
      "t_contract(IEvmoSwapFactory)8318": {
        "encoding": "inplace",
        "label": "contract IEvmoSwapFactory",
        "numberOfBytes": "20"
      },
      "t_contract(IMasterChef)9303": {
        "encoding": "inplace",
        "label": "contract IMasterChef",
        "numberOfBytes": "20"
      },
      "t_mapping(t_address,t_address)": {
        "encoding": "mapping",
        "key": "t_address",
        "label": "mapping(address => address)",
        "numberOfBytes": "32",
        "value": "t_address"
      }
    }
  }
}