{
  "address": "0xaD00abb2bE74815F54FCc31fe94895148d48Fc24",
  "abi": [
    {
      "anonymous": false,
      "inputs": [
        {
          "indexed": true,
          "internalType": "address",
          "name": "provider",
          "type": "address"
        },
        {
          "indexed": false,
          "internalType": "uint256[]",
          "name": "tokenAmounts",
          "type": "uint256[]"
        },
        {
          "indexed": false,
          "internalType": "uint256[]",
          "name": "fees",
          "type": "uint256[]"
        },
        {
          "indexed": false,
          "internalType": "uint256",
          "name": "invariant",
          "type": "uint256"
        },
        {
          "indexed": false,
          "internalType": "uint256",
          "name": "lpTokenSupply",
          "type": "uint256"
        }
      ],
      "name": "AddLiquidity",
      "type": "event"
    },
    {
      "anonymous": false,
      "inputs": [
        {
          "indexed": false,
          "internalType": "uint256",
          "name": "newAdminFee",
          "type": "uint256"
        }
      ],
      "name": "NewAdminFee",
      "type": "event"
    },
    {
      "anonymous": false,
      "inputs": [
        {
          "indexed": false,
          "internalType": "uint256",
          "name": "newDepositFee",
          "type": "uint256"
        }
      ],
      "name": "NewDepositFee",
      "type": "event"
    },
    {
      "anonymous": false,
      "inputs": [
        {
          "indexed": false,
          "internalType": "uint256",
          "name": "newSwapFee",
          "type": "uint256"
        }
      ],
      "name": "NewSwapFee",
      "type": "event"
    },
    {
      "anonymous": false,
      "inputs": [
        {
          "indexed": false,
          "internalType": "uint256",
          "name": "newWithdrawFee",
          "type": "uint256"
        }
      ],
      "name": "NewWithdrawFee",
      "type": "event"
    },
    {
      "anonymous": false,
      "inputs": [
        {
          "indexed": false,
          "internalType": "uint256",
          "name": "oldA",
          "type": "uint256"
        },
        {
          "indexed": false,
          "internalType": "uint256",
          "name": "newA",
          "type": "uint256"
        },
        {
          "indexed": false,
          "internalType": "uint256",
          "name": "initialTime",
          "type": "uint256"
        },
        {
          "indexed": false,
          "internalType": "uint256",
          "name": "futureTime",
          "type": "uint256"
        }
      ],
      "name": "RampA",
      "type": "event"
    },
    {
      "anonymous": false,
      "inputs": [
        {
          "indexed": true,
          "internalType": "address",
          "name": "provider",
          "type": "address"
        },
        {
          "indexed": false,
          "internalType": "uint256[]",
          "name": "tokenAmounts",
          "type": "uint256[]"
        },
        {
          "indexed": false,
          "internalType": "uint256",
          "name": "lpTokenSupply",
          "type": "uint256"
        }
      ],
      "name": "RemoveLiquidity",
      "type": "event"
    },
    {
      "anonymous": false,
      "inputs": [
        {
          "indexed": true,
          "internalType": "address",
          "name": "provider",
          "type": "address"
        },
        {
          "indexed": false,
          "internalType": "uint256[]",
          "name": "tokenAmounts",
          "type": "uint256[]"
        },
        {
          "indexed": false,
          "internalType": "uint256[]",
          "name": "fees",
          "type": "uint256[]"
        },
        {
          "indexed": false,
          "internalType": "uint256",
          "name": "invariant",
          "type": "uint256"
        },
        {
          "indexed": false,
          "internalType": "uint256",
          "name": "lpTokenSupply",
          "type": "uint256"
        }
      ],
      "name": "RemoveLiquidityImbalance",
      "type": "event"
    },
    {
      "anonymous": false,
      "inputs": [
        {
          "indexed": true,
          "internalType": "address",
          "name": "provider",
          "type": "address"
        },
        {
          "indexed": false,
          "internalType": "uint256",
          "name": "lpTokenAmount",
          "type": "uint256"
        },
        {
          "indexed": false,
          "internalType": "uint256",
          "name": "lpTokenSupply",
          "type": "uint256"
        },
        {
          "indexed": false,
          "internalType": "uint256",
          "name": "boughtId",
          "type": "uint256"
        },
        {
          "indexed": false,
          "internalType": "uint256",
          "name": "tokensBought",
          "type": "uint256"
        }
      ],
      "name": "RemoveLiquidityOne",
      "type": "event"
    },
    {
      "anonymous": false,
      "inputs": [
        {
          "indexed": false,
          "internalType": "uint256",
          "name": "currentA",
          "type": "uint256"
        },
        {
          "indexed": false,
          "internalType": "uint256",
          "name": "time",
          "type": "uint256"
        }
      ],
      "name": "StopRampA",
      "type": "event"
    },
    {
      "anonymous": false,
      "inputs": [
        {
          "indexed": true,
          "internalType": "address",
          "name": "buyer",
          "type": "address"
        },
        {
          "indexed": false,
          "internalType": "uint256",
          "name": "tokensSold",
          "type": "uint256"
        },
        {
          "indexed": false,
          "internalType": "uint256",
          "name": "tokensBought",
          "type": "uint256"
        },
        {
          "indexed": false,
          "internalType": "uint128",
          "name": "soldId",
          "type": "uint128"
        },
        {
          "indexed": false,
          "internalType": "uint128",
          "name": "boughtId",
          "type": "uint128"
        }
      ],
      "name": "TokenSwap",
      "type": "event"
    },
    {
      "inputs": [],
      "name": "A_PRECISION",
      "outputs": [
        {
          "internalType": "uint256",
          "name": "",
          "type": "uint256"
        }
      ],
      "stateMutability": "view",
      "type": "function"
    },
    {
      "inputs": [],
      "name": "MAX_A",
      "outputs": [
        {
          "internalType": "uint256",
          "name": "",
          "type": "uint256"
        }
      ],
      "stateMutability": "view",
      "type": "function"
    },
    {
      "inputs": [],
      "name": "MAX_ADMIN_FEE",
      "outputs": [
        {
          "internalType": "uint256",
          "name": "",
          "type": "uint256"
        }
      ],
      "stateMutability": "view",
      "type": "function"
    },
    {
      "inputs": [],
      "name": "MAX_DEPOSIT_FEE",
      "outputs": [
        {
          "internalType": "uint256",
          "name": "",
          "type": "uint256"
        }
      ],
      "stateMutability": "view",
      "type": "function"
    },
    {
      "inputs": [],
      "name": "MAX_SWAP_FEE",
      "outputs": [
        {
          "internalType": "uint256",
          "name": "",
          "type": "uint256"
        }
      ],
      "stateMutability": "view",
      "type": "function"
    },
    {
      "inputs": [],
      "name": "MAX_WITHDRAW_FEE",
      "outputs": [
        {
          "internalType": "uint256",
          "name": "",
          "type": "uint256"
        }
      ],
      "stateMutability": "view",
      "type": "function"
    },
    {
      "inputs": [],
      "name": "POOL_PRECISION_DECIMALS",
      "outputs": [
        {
          "internalType": "uint8",
          "name": "",
          "type": "uint8"
        }
      ],
      "stateMutability": "view",
      "type": "function"
    }
  ],
  "transactionHash": "0x4a43dcef6336a41e5567cd3f98f7b88005a3762d4ef3d06c565c7a0ce0f27f21",
  "args": [],
  "solcInputHash": "b0191412d6db60d2913615e97999bbd0",
  "bytecode": "0x614acf610026600b82828239805160001a60731461001957fe5b30600052607381538281f3fe73000000000000000000000000000000000000000030146080604052600436106101ef5760003560e01c80636cbe604a11610119578063d011f918116100ac578063d4fa8b561161007b578063d4fa8b56146107f5578063e93f32e514610821578063eb6b44aa146108a6578063f3de0362146108ef576101ef565b8063d011f91814610784578063d0128ce61461078c578063d431ccdf146107c5578063d4b0de2f1461072d576101ef565b8063ab3d8544116100e8578063ab3d85441461072d578063bbca125c14610735578063c6d87dd51461072d578063cbf1d3f414610761576101ef565b80636cbe604a146105a257806371a621cc146105d25780638266389614610659578063a7df2f8914610710576101ef565b80632de30c081161019157806360d136c21161016057806360d136c2146104ff578063611d4dfa1461051c5780636b10c3f7146105555780636bcf322514610585576101ef565b80632de30c08146104005780633522c4a01461048257806339698415146104b85780634b91cf82146104c0576101ef565b8063125690b3116101cd578063125690b314610299578063140f5418146103505780631c1a9b9e1461037c578063226ebc21146103d0576101ef565b80630296ab50146101f4578063038e19181461021257806304adf68c1461025a575b600080fd5b6101fc6108f7565b6040805160ff9092168252519081900360200190f35b6102486004803603608081101561022857600080fd5b5080359060ff6020820135811691604081013590911690606001356108fc565b60408051918252519081900360200190f35b81801561026657600080fd5b506102486004803603608081101561027d57600080fd5b5080359060208101359060ff6040820135169060600135610914565b8180156102a557600080fd5b50610248600480360360608110156102bc57600080fd5b81359190810190604081016020820135600160201b8111156102dd57600080fd5b8201836020820111156102ef57600080fd5b803590602001918460208302840111600160201b8311171561031057600080fd5b9190808060200260200160405190810160405280939291908181526020018383602002808284376000920191909152509295505091359250610c6d915050565b81801561035c57600080fd5b5061037a6004803603602081101561037357600080fd5b5035611897565b005b6103b76004803603608081101561039257600080fd5b5080359060208101356001600160a01b0316906040810135906060013560ff16611954565b6040805192835260208301919091528051918290030190f35b8180156103dc57600080fd5b5061037a600480360360408110156103f357600080fd5b50803590602001356119f0565b6104326004803603606081101561041657600080fd5b508035906001600160a01b036020820135169060400135611a79565b60408051602080825283518183015283519192839290830191858101910280838360005b8381101561046e578181015183820152602001610456565b505050509050019250505060405180910390f35b81801561048e57600080fd5b5061037a600480360360608110156104a557600080fd5b5080359060208101359060400135611a86565b610248611ce7565b8180156104cc57600080fd5b5061037a600480360360608110156104e357600080fd5b508035906001600160a01b036020820135169060400135611cee565b6102486004803603602081101561051557600080fd5b5035611cfe565b81801561052857600080fd5b5061037a6004803603604081101561053f57600080fd5b50803590602001356001600160a01b0316611e48565b81801561056157600080fd5b5061037a6004803603604081101561057857600080fd5b5080359060200135611eba565b6102486004803603602081101561059b57600080fd5b5035611f44565b8180156105ae57600080fd5b5061037a600480360360408110156105c557600080fd5b5080359060200135611f55565b8180156105de57600080fd5b50610432600480360360608110156105f557600080fd5b813591602081013591810190606081016040820135600160201b81111561061b57600080fd5b82018360208201111561062d57600080fd5b803590602001918460208302840111600160201b8311171561064e57600080fd5b509092509050611fde565b81801561066557600080fd5b506102486004803603606081101561067c57600080fd5b81359190810190604081016020820135600160201b81111561069d57600080fd5b8201836020820111156106af57600080fd5b803590602001918460208302840111600160201b831117156106d057600080fd5b9190808060200260200160405190810160405280939291908181526020018383602002808284376000920191909152509295505091359250612373915050565b6102486004803603602081101561072657600080fd5b5035612aed565b610248612af8565b6102486004803603604081101561074b57600080fd5b50803590602001356001600160a01b0316612b00565b6102486004803603604081101561077757600080fd5b5080359060200135612ba7565b610248612c29565b81801561079857600080fd5b5061037a600480360360408110156107af57600080fd5b50803590602001356001600160a01b0316612c2e565b8180156107d157600080fd5b5061037a600480360360408110156107e857600080fd5b5080359060200135612cf8565b6102486004803603604081101561080b57600080fd5b50803590602001356001600160a01b0316612d81565b6102486004803603608081101561083757600080fd5b8135916001600160a01b0360208201351691810190606081016040820135600160201b81111561086657600080fd5b82018360208201111561087857600080fd5b803590602001918460208302840111600160201b8311171561089957600080fd5b9193509150351515612da0565b8180156108b257600080fd5b50610248600480360360a08110156108c957600080fd5b5080359060ff602082013581169160408101359091169060608101359060800135613023565b61024861335f565b601281565b600061090a85858585613368565b5095945050505050565b6000808560090160009054906101000a90046001600160a01b03166001600160a01b03166318160ddd6040518163ffffffff1660e01b815260040160206040518083038186803b15801561096757600080fd5b505afa15801561097b573d6000803e3d6000fd5b505050506040513d602081101561099157600080fd5b5051600a8701546009880154604080516370a0823160e01b8152336004820152905193945091926001600160a01b03909116916370a08231916024808301926020929190829003018186803b1580156109e957600080fd5b505afa1580156109fd573d6000803e3d6000fd5b505050506040513d6020811015610a1357600080fd5b5051861115610a59576040805162461bcd60e51b815260206004820152600d60248201526c1f2628173130b630b731b2a7b360991b604482015290519081900360640190fd5b808560ff1610610aa2576040805162461bcd60e51b815260206004820152600f60248201526e151bdad95b881b9bdd08199bdd5b99608a1b604482015290519081900360640190fd5b600080610ab189338a8a611954565b9250905085811015610afb576040805162461bcd60e51b815260206004820152600e60248201526d191e480f081b5a5b905b5bdd5b9d60921b604482015290519081900360640190fd5b610b59610b2e610b276402540be400610b218d60050154876134b390919063ffffffff16565b9061350c565b8390613573565b8a600c018960ff1681548110610b4057fe5b90600052602060002001546135cd90919063ffffffff16565b89600c018860ff1681548110610b6b57fe5b600091825260208220019190915560098a01546040805163079cc67960e41b8152336004820152602481018c905290516001600160a01b03909216926379cc67909260448084019382900301818387803b158015610bc857600080fd5b505af1158015610bdc573d6000803e3d6000fd5b50505050610c1333828b600a018a60ff1681548110610bf757fe5b6000918252602090912001546001600160a01b0316919061362a565b604080518981526020810186905260ff89168183015260608101839052905133917f43fb02998f4e03da2e0e6fff53fdbf0c40a9f45f145dc377fc30615d7d7a8a64919081900360800190a293505050505b949350505050565b600a830154825160009114610cc9576040805162461bcd60e51b815260206004820181905260248201527f416d6f756e7473206d757374206d6174636820706f6f6c656420746f6b656e73604482015290519081900360640190fd5b600a84015460609067ffffffffffffffff81118015610ce757600080fd5b50604051908082528060200260200182016040528015610d11578160200160208202803683370190505b509050610d1c614974565b6040518060800160405280600081526020016000815260200160008152602001600081525090508560090160009054906101000a90046001600160a01b03166001600160a01b03166318160ddd6040518163ffffffff1660e01b815260040160206040518083038186803b158015610d9357600080fd5b505afa158015610da7573d6000803e3d6000fd5b505050506040513d6020811015610dbd57600080fd5b505115610dd057610dcd8661367c565b81525b606086600c01805480602002602001604051908101604052809291908181526020018280548015610e2057602002820191906000526020600020905b815481526020019060010190808311610e0c575b5050505050905060005b600a880154811015611123578760090160009054906101000a90046001600160a01b03166001600160a01b03166318160ddd6040518163ffffffff1660e01b815260040160206040518083038186803b158015610e8657600080fd5b505afa158015610e9a573d6000803e3d6000fd5b505050506040513d6020811015610eb057600080fd5b5051151580610ed257506000878281518110610ec857fe5b6020026020010151115b610f23576040805162461bcd60e51b815260206004820152601e60248201527f4d75737420737570706c7920616c6c20746f6b656e7320696e20706f6f6c0000604482015290519081900360640190fd5b868181518110610f2f57fe5b60200260200101516000146110c557600088600a018281548110610f4f57fe5b60009182526020918290200154604080516370a0823160e01b815230600482015290516001600160a01b03909216926370a0823192602480840193829003018186803b158015610f9e57600080fd5b505afa158015610fb2573d6000803e3d6000fd5b505050506040513d6020811015610fc857600080fd5b5051885190915061101790339030908b9086908110610fe357fe5b60200260200101518c600a018681548110610ffa57fe5b6000918252602090912001546001600160a01b0316929190613693565b6110ab818a600a01848154811061102a57fe5b60009182526020918290200154604080516370a0823160e01b815230600482015290516001600160a01b03909216926370a0823192602480840193829003018186803b15801561107957600080fd5b505afa15801561108d573d6000803e3d6000fd5b505050506040513d60208110156110a357600080fd5b5051906135cd565b8883815181106110b757fe5b602002602001018181525050505b6111048782815181106110d457fe5b602002602001015189600c0183815481106110eb57fe5b906000526020600020015461357390919063ffffffff16565b82828151811061111057fe5b6020908102919091010152600101610e2a565b5061112d876136f3565b606083015261114961113f8883613788565b83606001516137e6565b60208301819052825110611198576040805162461bcd60e51b8152602060048201526011602482015270442073686f756c6420696e63726561736560781b604482015290519081900360640190fd5b602080830151604080850191909152600989015481516318160ddd60e01b815291516001600160a01b03909116926318160ddd9260048082019391829003018186803b1580156111e757600080fd5b505afa1580156111fb573d6000803e3d6000fd5b505050506040513d602081101561121157600080fd5b50511561140e576000611223886139bd565b905060005b600a8901548110156113eb57600061126e8560000151610b218c600c01858154811061125057fe5b906000526020600020015488602001516134b390919063ffffffff16565b905061131b6402540be400610b2183733382D6140c6f3F29190f642FC19DBD1c8550D53063a95cb7f790918988815181106112a557fe5b60200260200101516040518363ffffffff1660e01b8152600401808381526020018281526020019250505060206040518083038186803b1580156112e857600080fd5b505af41580156112fc573d6000803e3d6000fd5b505050506040513d602081101561131257600080fd5b505186906134b3565b86838151811061132757fe5b60200260200101818152505061138b6113696402540be400610b218d600501548a878151811061135357fe5b60200260200101516134b390919063ffffffff16565b85848151811061137557fe5b60200260200101516135cd90919063ffffffff16565b8a600c01838154811061139a57fe5b90600052602060002001819055506113cb8683815181106113b757fe5b602002602001015185848151811061137557fe5b8483815181106113d757fe5b602090810291909101015250600101611228565b506114036113f98984613788565b84606001516137e6565b604084015250611425565b805161142390600c890190602084019061499c565b505b60008060008960090160009054906101000a90046001600160a01b03166001600160a01b03166318160ddd6040518163ffffffff1660e01b815260040160206040518083038186803b15801561147a57600080fd5b505afa15801561148e573d6000803e3d6000fd5b505050506040513d60208110156114a457600080fd5b50516114b65784602001519250611556565b6115538560000151610b218c60090160009054906101000a90046001600160a01b03166001600160a01b03166318160ddd6040518163ffffffff1660e01b815260040160206040518083038186803b15801561151157600080fd5b505afa158015611525573d6000803e3d6000fd5b505050506040513d602081101561153b57600080fd5b5051885160408a015161154d916135cd565b906134b3565b92505b878310156115ab576040805162461bcd60e51b815260206004820152601b60248201527f436f756c646e2774206d696e74206d696e207265717565737465640000000000604482015290519081900360640190fd5b60068a01546116265760098a0154604080516340c10f1960e01b81523360048201526024810186905290516001600160a01b03909216916340c10f199160448082019260009290919082900301818387803b15801561160957600080fd5b505af115801561161d573d6000803e3d6000fd5b50505050611735565b6116466402540be400610b218c60060154866134b390919063ffffffff16565b915061165283836135cd565b60098b015460088c0154604080516340c10f1960e01b81526001600160a01b0392831660048201526024810187905290519394509116916340c10f199160448082019260009290919082900301818387803b1580156116b057600080fd5b505af11580156116c4573d6000803e3d6000fd5b50505060098b0154604080516340c10f1960e01b81523360048201526024810185905290516001600160a01b0390921692506340c10f1991604480830192600092919082900301818387803b15801561171c57600080fd5b505af1158015611730573d6000803e3d6000fd5b505050505b336001600160a01b03167f189c623b666b1b45b83d7178f39b8c087cb09774317ca2f53c2d3c3726f222a28a8888602001518e60090160009054906101000a90046001600160a01b03166001600160a01b03166318160ddd6040518163ffffffff1660e01b815260040160206040518083038186803b1580156117b757600080fd5b505afa1580156117cb573d6000803e3d6000fd5b505050506040513d60208110156117e157600080fd5b5051604080519081018390526060810182905260808082528551908201528451819060208281019160a0840191898101910280838360005b83811015611831578181015183820152602001611819565b50505050905001838103825286818151815260200191508051906020019060200280838360005b83811015611870578181015183820152602001611858565b50505050905001965050505050505060405180910390a250909450505050505b9392505050565b428160030154116118ef576040805162461bcd60e51b815260206004820152601760248201527f52616d7020697320616c72656164792073746f70706564000000000000000000604482015290519081900360640190fd5b60006118fa826136f3565b8083556001830181905542600284018190556003840181905560408051838152602081019290925280519293507f46e22fb3709ad289f62ce63d469248536dbc78d82b84a3d7e74ad606dc20193892918290030190a15050565b6000806000806119658886886139ee565b809250819350505060006119b4836119ae8b600b018960ff168154811061198857fe5b9060005260206000200154610b21866119a08f613d3a565b8c60ff168151811061137557fe5b906135cd565b90506119e26402540be400610b216119db6119cf8d8d612b00565b6402540be400906135cd565b86906134b3565b999098509650505050505050565b6305f5e100811115611a3b576040805162461bcd60e51b815260206004820152600f60248201526e08ccaca40d2e640e8dede40d0d2ced608b1b604482015290519081900360640190fd5b600782018190556040805182815290517fd5fe46099fa396290a7f57e36c3c3c8774e2562c18ed5d1dcc0fa75071e03f1d9181900360200190a15050565b6060610c65848484613de8565b6002830154611a989062015180613573565b421015611aec576040805162461bcd60e51b815260206004820152601f60248201527f57616974203120646179206265666f7265207374617274696e672072616d7000604482015290519081900360640190fd5b611af94262127500613573565b811015611b46576040805162461bcd60e51b8152602060048201526016602482015275496e73756666696369656e742072616d702074696d6560501b604482015290519081900360640190fd5b600082118015611b585750620f424082105b611ba9576040805162461bcd60e51b815260206004820181905260248201527f667574757265415f206d757374206265203e203020616e64203c204d41585f41604482015290519081900360640190fd5b6000611bb4846136f3565b90506000611bc38460646134b3565b905081811015611c295781611bd98260026134b3565b1015611c24576040805162461bcd60e51b8152602060048201526015602482015274199d5d1d5c995057c81a5cc81d1bdbc81cdb585b1b605a1b604482015290519081900360640190fd5b611c80565b611c348260026134b3565b811115611c80576040805162461bcd60e51b8152602060048201526015602482015274667574757265415f20697320746f6f206c6172676560581b604482015290519081900360640190fd5b8185556001850181905542600286018190556003860184905560408051848152602081018490528082019290925260608201859052517fa2b71ec6df949300b59aab36b55e189697b750119dd349fcfa8c0f779e83c2549181900360800190a15050505050565b620f424081565b611cf9838383613f98565b505050565b600080611d1b611d0d84613d3a565b611d16856136f3565b6137e6565b905060008360090160009054906101000a90046001600160a01b03166001600160a01b03166318160ddd6040518163ffffffff1660e01b815260040160206040518083038186803b158015611d6f57600080fd5b505afa158015611d83573d6000803e3d6000fd5b505050506040513d6020811015611d9957600080fd5b505190508015611e3c57611e3381610b218660090160009054906101000a90046001600160a01b03166001600160a01b031663313ce5676040518163ffffffff1660e01b815260040160206040518083038186803b158015611dfa57600080fd5b505afa158015611e0e573d6000803e3d6000fd5b505050506040513d6020811015611e2457600080fd5b5051859060ff16600a0a6134b3565b92505050611e43565b6000925050505b919050565b60088201546001600160a01b03163314611e95576040805162461bcd60e51b81526020600482015260096024820152686465763a207775743f60b81b604482015290519081900360640190fd5b60089190910180546001600160a01b0319166001600160a01b03909216919091179055565b6402540be400811115611f06576040805162461bcd60e51b815260206004820152600f60248201526e08ccaca40d2e640e8dede40d0d2ced608b1b604482015290519081900360640190fd5b600582018190556040805182815290517fab599d640ca80cde2b09b128a4154a8dfe608cb80f4c9399c8b954b01fd35f389181900360200190a15050565b6000611f4f826140ee565b92915050565b6305f5e100811115611fa0576040805162461bcd60e51b815260206004820152600f60248201526e08ccaca40d2e640e8dede40d0d2ced608b1b604482015290519081900360640190fd5b600682018190556040805182815290517f5237b692334926d9ab50f9d1ac513fe7e153f0cd81dd7c55a09d281d2985d8089181900360200190a15050565b6009840154604080516370a0823160e01b815233600482015290516060926001600160a01b0316916370a08231916024808301926020929190829003018186803b15801561202b57600080fd5b505afa15801561203f573d6000803e3d6000fd5b505050506040513d602081101561205557600080fd5b505184111561209b576040805162461bcd60e51b815260206004820152600d60248201526c1f2628173130b630b731b2a7b360991b604482015290519081900360640190fd5b600a85015482146120f3576040805162461bcd60e51b815260206004820181905260248201527f6d696e416d6f756e7473206d757374206d6174636820706f6f6c546f6b656e73604482015290519081900360640190fd5b6060612100863387613de8565b905060005b81518110156121fa5784848281811061211a57fe5b9050602002013582828151811061212d57fe5b60200260200101511015612188576040805162461bcd60e51b815260206004820152601a60248201527f616d6f756e74735b695d203c206d696e416d6f756e74735b695d000000000000604482015290519081900360640190fd5b6121ae82828151811061219757fe5b602002602001015188600c018381548110610b4057fe5b87600c0182815481106121bd57fe5b90600052602060002001819055506121f2338383815181106121db57fe5b602002602001015189600a018481548110610bf757fe5b600101612105565b5060098601546040805163079cc67960e41b81523360048201526024810188905290516001600160a01b03909216916379cc67909160448082019260009290919082900301818387803b15801561225057600080fd5b505af1158015612264573d6000803e3d6000fd5b50505050336001600160a01b03167f88d38ed598fdd809c2bf01ee49cd24b7fdabf379a83d29567952b60324d58cef828860090160009054906101000a90046001600160a01b03166001600160a01b03166318160ddd6040518163ffffffff1660e01b815260040160206040518083038186803b1580156122e457600080fd5b505afa1580156122f8573d6000803e3d6000fd5b505050506040513d602081101561230e57600080fd5b50516040805160208181018490528282528451928201929092528351909182916060830191868101910280838360005b8381101561235657818101518382015260200161233e565b50505050905001935050505060405180910390a295945050505050565b600a8301548251600091146123cf576040805162461bcd60e51b815260206004820181905260248201527f416d6f756e74732073686f756c64206d6174636820706f6f6c20746f6b656e73604482015290519081900360640190fd5b6009840154604080516370a0823160e01b815233600482015290516001600160a01b03909216916370a0823191602480820192602092909190829003018186803b15801561241c57600080fd5b505afa158015612430573d6000803e3d6000fd5b505050506040513d602081101561244657600080fd5b5051821180159061245657508115155b612497576040805162461bcd60e51b815260206004820152600d60248201526c1f2628173130b630b731b2a7b360991b604482015290519081900360640190fd5b61249f614974565b60405180608001604052806000815260200160008152602001600081526020016000815250905060008560090160009054906101000a90046001600160a01b03166001600160a01b03166318160ddd6040518163ffffffff1660e01b815260040160206040518083038186803b15801561251857600080fd5b505afa15801561252c573d6000803e3d6000fd5b505050506040513d602081101561254257600080fd5b505190506000612551876139bd565b9050606087600c018054806020026020016040519081016040528092919081815260200182805480156125a357602002820191906000526020600020905b81548152602001906001019080831161258f575b505050505090506125b3886136f3565b60608501526125ce6125c489613d3a565b85606001516137e6565b845260005b600a890154811015612651576126328882815181106125ee57fe5b6020026020010151604051806060016040528060238152602001614a776023913984848151811061261b57fe5b60200260200101516140fe9092919063ffffffff16565b82828151811061263e57fe5b60209081029190910101526001016125d3565b5061265f6125c48983613788565b6020850152600a88015460609067ffffffffffffffff8111801561268257600080fd5b506040519080825280602002602001820160405280156126ac578160200160208202803683370190505b50905060005b600a8a015481101561284e5760006126f88760000151610b218d600c0185815481106126da57fe5b90600052602060002001548a602001516134b390919063ffffffff16565b9050600081733382D6140c6f3F29190f642FC19DBD1c8550D53063a95cb7f7909187868151811061272557fe5b60200260200101516040518363ffffffff1660e01b8152600401808381526020018281526020019250505060206040518083038186803b15801561276857600080fd5b505af415801561277c573d6000803e3d6000fd5b505050506040513d602081101561279257600080fd5b505190506127a96402540be400610b2188846134b3565b8484815181106127b557fe5b6020026020010181815250506127ed6127e16402540be400610b218f6005015488888151811061135357fe5b86858151811061137557fe5b8c600c0184815481106127fc57fe5b906000526020600020018190555061282d84848151811061281957fe5b602002602001015186858151811061137557fe5b85848151811061283957fe5b602090810291909101015250506001016126b2565b5061286661285c8a84613788565b86606001516137e6565b6040860181905285516000916128889190610b2190889061154d9084906135cd565b9050806128dc576040805162461bcd60e51b815260206004820152601b60248201527f4275726e7420616d6f756e742063616e6e6f74206265207a65726f0000000000604482015290519081900360640190fd5b6129006128ec6119cf8c33612b00565b610b216402540be40061154d856001613573565b905087811115612957576040805162461bcd60e51b815260206004820152601b60248201527f746f6b656e416d6f756e74203e206d61784275726e416d6f756e740000000000604482015290519081900360640190fd5b60098a01546040805163079cc67960e41b81523360048201526024810184905290516001600160a01b03909216916379cc67909160448082019260009290919082900301818387803b1580156129ac57600080fd5b505af11580156129c0573d6000803e3d6000fd5b5050505060005b600a8b0154811015612a02576129fa338b83815181106129e357fe5b60200260200101518d600a018481548110610bf757fe5b6001016129c7565b50602086015133907f3631c28b1f9dd213e0319fb167b554d76b6c283a41143eb400a0d1adb1af1755908b908590612a3a8a876135cd565b604051808060200180602001858152602001848152602001838103835287818151815260200191508051906020019060200280838360005b83811015612a8a578181015183820152602001612a72565b50505050905001838103825286818151815260200191508051906020019060200280838360005b83811015612ac9578181015183820152602001612ab1565b50505050905001965050505050505060405180910390a29998505050505050505050565b6000611f4f826136f3565b6305f5e10081565b6001600160a01b0381166000908152600d830160205260408120548190612b2a906224ea00613573565b905042811115612b9d576000612b4082426135cd565b9050612b946402540be400610b216224ea00610b218561154d8b600e0160008c6001600160a01b03166001600160a01b03168152602001908152602001600020548c600701546134b390919063ffffffff16565b92505050611f4f565b5060009392505050565b600a8201546000908210612bfd576040805162461bcd60e51b8152602060048201526018602482015277546f6b656e20696e646578206f7574206f662072616e676560401b604482015290519081900360640190fd5b61189083600c018381548110612c0f57fe5b906000526020600020015484600a01848154811061102a57fe5b606481565b60005b600a830154811015611cf957600083600a018281548110612c4e57fe5b6000918252602082200154600c860180546001600160a01b039092169350612cd29185908110612c7a57fe5b9060005260206000200154836001600160a01b03166370a08231306040518263ffffffff1660e01b815260040180826001600160a01b0316815260200191505060206040518083038186803b15801561107957600080fd5b90508015612cee57612cee6001600160a01b038316858361362a565b5050600101612c31565b6305f5e100811115612d43576040805162461bcd60e51b815260206004820152600f60248201526e08ccaca40d2e640e8dede40d0d2ced608b1b604482015290519081900360640190fd5b600482018190556040805182815290517fd88ea5155021c6f8dafa1a741e173f595cdf77ce7c17d43342131d7f06afdfe59181900360200190a15050565b6001600160a01b03166000908152600d91909101602052604090205490565b600a85015460009081612db2886136f3565b90506000612e1b612e158a8b600c01805480602002602001604051908101604052809291908181526020018280548015612e0b57602002820191906000526020600020905b815481526020019060010190808311612df7575b5050505050613788565b836137e6565b9050606089600c01805480602002602001604051908101604052809291908181526020018280548015612e6d57602002820191906000526020600020905b815481526020019060010190808311612e59575b5050505050905060005b84811015612f36578615612eda57612ebd898983818110612e9457fe5b90506020020135838381518110612ea757fe5b602002602001015161357390919063ffffffff16565b828281518110612ec957fe5b602002602001018181525050612f2e565b612f15898983818110612ee957fe5b90506020020135604051806060016040528060238152602001614a776023913984848151811061261b57fe5b828281518110612f2157fe5b6020026020010181815250505b600101612e77565b506000612f4c612f468c84613788565b856137e6565b905060008b60090160009054906101000a90046001600160a01b03166001600160a01b03166318160ddd6040518163ffffffff1660e01b815260040160206040518083038186803b158015612fa057600080fd5b505afa158015612fb4573d6000803e3d6000fd5b505050506040513d6020811015612fca57600080fd5b505190508715612ff357612fe684610b218361154d86846135cd565b965050505050505061301a565b612fe66130036119cf8e8e612b00565b610b216402540be40061154d88838783838b6135cd565b95945050505050565b600085600a018560ff168154811061303757fe5b60009182526020918290200154604080516370a0823160e01b815233600482015290516001600160a01b03909216926370a0823192602480840193829003018186803b15801561308657600080fd5b505afa15801561309a573d6000803e3d6000fd5b505050506040513d60208110156130b057600080fd5b5051831115613106576040805162461bcd60e51b815260206004820152601d60248201527f43616e6e6f742073776170206d6f7265207468616e20796f75206f776e000000604482015290519081900360640190fd5b600086600a018660ff168154811061311a57fe5b60009182526020918290200154604080516370a0823160e01b815230600482015290516001600160a01b03909216926370a0823192602480840193829003018186803b15801561316957600080fd5b505afa15801561317d573d6000803e3d6000fd5b505050506040513d602081101561319357600080fd5b5051600a880180549192506131b6913391309188919060ff8c16908110610ffa57fe5b60006131ce8289600a018960ff168154811061102a57fe5b90506000806131df8a8a8a86613368565b9150915085821015613238576040805162461bcd60e51b815260206004820181905260248201527f53776170206469646e277420726573756c7420696e206d696e20746f6b656e73604482015290519081900360640190fd5b600061327a8b600b018a60ff168154811061324f57fe5b9060005260206000200154610b216402540be400610b218f60050154876134b390919063ffffffff16565b9050613292848c600c018c60ff16815481106110eb57fe5b8b600c018b60ff16815481106132a457fe5b90600052602060002001819055506132cc816119ae858e600c018d60ff1681548110610b4057fe5b8b600c018a60ff16815481106132de57fe5b906000526020600020018190555061330333848d600a018c60ff1681548110610bf757fe5b604080518581526020810185905260ff808d16828401528b166060820152905133917fc6c1e0630dbe9130cc068028486c0d118ddcea348550819defd5cb8c257f8a38919081900360800190a250909998505050505050505050565b6402540be40081565b600080606061337687613d3a565b905080518660ff1610801561338e575080518560ff16105b6133da576040805162461bcd60e51b8152602060048201526018602482015277546f6b656e20696e646578206f7574206f662072616e676560401b604482015290519081900360640190fd5b600061342b828860ff16815181106133ee57fe5b60200260200101516134258a600b018a60ff168154811061340b57fe5b9060005260206000200154886134b390919063ffffffff16565b90613573565b9050600061343c8989898587614195565b905061345660016119ae83868b60ff168151811061137557fe5b94506134786402540be400610b218b60040154886134b390919063ffffffff16565b93506134a589600b018860ff168154811061348f57fe5b600091825260209091200154610b2187876135cd565b945050505094509492505050565b6000826134c257506000611f4f565b828202828482816134cf57fe5b04146118905760405162461bcd60e51b8152600401808060200182810382526021815260200180614a2c6021913960400191505060405180910390fd5b6000808211613562576040805162461bcd60e51b815260206004820152601a60248201527f536166654d6174683a206469766973696f6e206279207a65726f000000000000604482015290519081900360640190fd5b81838161356b57fe5b049392505050565b600082820183811015611890576040805162461bcd60e51b815260206004820152601b60248201527f536166654d6174683a206164646974696f6e206f766572666c6f770000000000604482015290519081900360640190fd5b600082821115613624576040805162461bcd60e51b815260206004820152601e60248201527f536166654d6174683a207375627472616374696f6e206f766572666c6f770000604482015290519081900360640190fd5b50900390565b604080516001600160a01b038416602482015260448082018490528251808303909101815260649091019091526020810180516001600160e01b031663a9059cbb60e01b179052611cf9908490614460565b6000611f4f61368a83613d3a565b611d16846136f3565b604080516001600160a01b0380861660248301528416604482015260648082018490528251808303909101815260849091019091526020810180516001600160e01b03166323b872dd60e01b1790526136ed908590614460565b50505050565b60038101546001820154600091904282111561377f5760028401548454808311156137515761374661373f61372886856135cd565b610b2161373542876135cd565b61154d88876135cd565b8290613573565b945050505050611e43565b61374661377861376186856135cd565b610b2161376e42876135cd565b61154d86896135cd565b82906135cd565b9150611e439050565b60606118908284600b018054806020026020016040519081016040528092919081815260200182805480156137dc57602002820191906000526020600020905b8154815260200190600101908083116137c8575b5050505050614511565b815160009081805b828110156138265761381c86828151811061380557fe5b60200260200101518361357390919063ffffffff16565b91506001016137ee565b508061383757600092505050611f4f565b6000818161384587866134b3565b905060005b610100811015613979578260005b878110156138875761387d613873898d848151811061135357fe5b610b2184886134b3565b9150600101613858565b5092935083926138d56138b56138a28361154d8b6001613573565b6134256064610b218961154d8a846135cd565b610b218661154d6138c6868d6134b3565b6134256064610b218b8f6134b3565b935083733382D6140c6f3F29190f642FC19DBD1c8550D5306313a1ec759091876040518363ffffffff1660e01b8152600401808381526020018281526020019250505060206040518083038186803b15801561393057600080fd5b505af4158015613944573d6000803e3d6000fd5b505050506040513d602081101561395a57600080fd5b5051156139705783975050505050505050611f4f565b5060010161384a565b506040805162461bcd60e51b81526020600482015260136024820152724420646f6573206e6f7420636f6e766572676560681b604482015290519081900360640190fd5b600a810154600090611f4f906139db9060049061154d9060016135cd565b600a8401546004850154610b21916134b3565b600a830154600090819060ff851610613a49576040805162461bcd60e51b8152602060048201526018602482015277546f6b656e20696e646578206f7574206f662072616e676560401b604482015290519081900360640190fd5b6060613a5486613d3a565b9050613a5e6149e7565b6040518060a001604052806000815260200160008152602001600081526020016000815260200160008152509050613a95876136f3565b60808201819052613aa79083906137e6565b81526009870154604080516318160ddd60e01b81529051613b3992613b31926001600160a01b03909116916318160ddd91600480820192602092909190829003018186803b158015613af857600080fd5b505afa158015613b0c573d6000803e3d6000fd5b505050506040513d6020811015613b2257600080fd5b50518351610b219089906134b3565b8251906135cd565b60208201528151829060ff8816908110613b4f57fe5b6020026020010151851115613bab576040805162461bcd60e51b815260206004820152601a60248201527f5769746864726177206578636565647320617661696c61626c65000000000000604482015290519081900360640190fd5b613bbf816080015187848460200151614608565b6040820152815160609067ffffffffffffffff81118015613bdf57600080fd5b50604051908082528060200260200182016040528015613c09578160200160208202803683370190505b509050613c15886139bd565b606083015260005b600a890154811015613ccc576000848281518110613c3757fe5b60200260200101519050613cac6137786402540be400610b2187606001518d60ff168714613c8557885160208a0151613c8091613c7991610b21908a906134b3565b87906135cd565b61154d565b61154d89604001516119ae8b60000151610b218d602001518b6134b390919063ffffffff16565b838381518110613cb857fe5b602090810291909101015250600101613c1d565b506000613cf5613ce684608001518a858760200151614608565b838a60ff168151811061137557fe5b9050613d2389600b018960ff1681548110613d0c57fe5b600091825260209091200154610b218360016135cd565b604090930151929550919350505050935093915050565b6060611f4f82600c01805480602002602001604051908101604052809291908181526020018280548015613d8d57602002820191906000526020600020905b815481526020019060010190808311613d79575b505050505083600b018054806020026020016040519081016040528092919081815260200182805480156137dc57602002820191906000526020600020908154815260200190600101908083116137c8575050505050614511565b606060008460090160009054906101000a90046001600160a01b03166001600160a01b03166318160ddd6040518163ffffffff1660e01b815260040160206040518083038186803b158015613e3c57600080fd5b505afa158015613e50573d6000803e3d6000fd5b505050506040513d6020811015613e6657600080fd5b5051905080831115613ebf576040805162461bcd60e51b815260206004820152601a60248201527f43616e6e6f742065786365656420746f74616c20737570706c79000000000000604482015290519081900360640190fd5b6000613ee16402540be400610b21613eda6119cf8a8a612b00565b87906134b3565b600a87015490915060609067ffffffffffffffff81118015613f0257600080fd5b50604051908082528060200260200182016040528015613f2c578160200160208202803683370190505b50905060005b600a880154811015613f8d57613f6e84610b21858b600c018581548110613f5557fe5b90600052602060002001546134b390919063ffffffff16565b828281518110613f7a57fe5b6020908102919091010152600101613f32565b509695505050505050565b6001600160a01b038216613fab57611cf9565b6007830154613fdb576001600160a01b0382166000908152600e8401602052604090206402540be40090556140cd565b6000613fe78484612b00565b6009850154604080516370a0823160e01b81526001600160a01b038781166004830152915193945060009391909216916370a08231916024808301926020929190829003018186803b15801561403c57600080fd5b505afa158015614050573d6000803e3d6000fd5b505050506040513d602081101561406657600080fd5b505160078601549091506140af906140829061154d8685613573565b610b216402540be40061154d6140a58a60070154896134b390919063ffffffff16565b61342587896134b3565b6001600160a01b0385166000908152600e8701602052604090205550505b506001600160a01b03166000908152600d9190910160205260409020429055565b6000611f4f6064610b21846136f3565b6000818484111561418d5760405162461bcd60e51b81526004018080602001828103825283818151815260200191508051906020019080838360005b8381101561415257818101518382015260200161413a565b50505050905090810190601f16801561417f5780820380516001836020036101000a031916815260200191505b509250505060405180910390fd5b505050900390565b600a85015460009060ff86811690861614156141f8576040805162461bcd60e51b815260206004820152601d60248201527f43616e277420636f6d7061726520746f6b656e20746f20697473656c66000000604482015290519081900360640190fd5b808660ff1610801561420c5750808560ff16105b614256576040805162461bcd60e51b8152602060048201526016602482015275151bdad95b9cc81b5d5cdd081899481a5b881c1bdbdb60521b604482015290519081900360640190fd5b6000614261886136f3565b9050600061426f85836137e6565b90508060008061427f86866134b3565b90506000805b878110156142f8578c60ff168114156142a0578a91506142ca565b8b60ff1681146142c5578981815181106142b657fe5b602002602001015191506142ca565b6142f0565b6142d48483613573565b93506142ed6142e3838a6134b3565b610b2187896134b3565b94505b600101614285565b5061431561430683896134b3565b610b21606461154d888a6134b3565b9350600061433261432b84610b218960646134b3565b8590613573565b9050600086815b61010081101561441257909150819061436c61435e8a6119ae876134258760026134b3565b610b218a61342586806134b3565b915081733382D6140c6f3F29190f642FC19DBD1c8550D5306313a1ec759091856040518363ffffffff1660e01b8152600401808381526020018281526020019250505060206040518083038186803b1580156143c757600080fd5b505af41580156143db573d6000803e3d6000fd5b505050506040513d60208110156143f157600080fd5b50511561440a5750995061301a98505050505050505050565b600101614339565b506040805162461bcd60e51b815260206004820152601e60248201527f417070726f78696d6174696f6e20646964206e6f7420636f6e76657267650000604482015290519081900360640190fd5b60606144b5826040518060400160405280602081526020017f5361666545524332303a206c6f772d6c6576656c2063616c6c206661696c6564815250856001600160a01b03166147e29092919063ffffffff16565b805190915015611cf9578080602001905160208110156144d457600080fd5b5051611cf95760405162461bcd60e51b815260040180806020018281038252602a815260200180614a4d602a913960400191505060405180910390fd5b8151815160609190811461456c576040805162461bcd60e51b815260206004820152601f60248201527f42616c616e636573206d757374206d61746368206d756c7469706c6965727300604482015290519081900360640190fd5b60608167ffffffffffffffff8111801561458557600080fd5b506040519080825280602002602001820160405280156145af578160200160208202803683370190505b50905060005b828110156145ff576145e08582815181106145cc57fe5b602002602001015187838151811061135357fe5b8282815181106145ec57fe5b60209081029190910101526001016145b5565b50949350505050565b815160009060ff85168111614656576040805162461bcd60e51b815260206004820152600f60248201526e151bdad95b881b9bdd08199bdd5b99608a1b604482015290519081900360640190fd5b8260008061466489856134b3565b905060005b848110156146cb578860ff1681146146c3576146a188828151811061468a57fe5b60200260200101518461357390919063ffffffff16565b92506146c06146b6868a848151811061135357fe5b610b21868a6134b3565b93505b600101614669565b506146e86146d982866134b3565b610b21606461154d878b6134b3565b925060006147056146fe83610b218a60646134b3565b8490613573565b9050600087815b61010081101561441257909150819061473f6147318b6119ae876134258760026134b3565b610b218961342586806134b3565b915081733382D6140c6f3F29190f642FC19DBD1c8550D5306313a1ec759091856040518363ffffffff1660e01b8152600401808381526020018281526020019250505060206040518083038186803b15801561479a57600080fd5b505af41580156147ae573d6000803e3d6000fd5b505050506040513d60208110156147c457600080fd5b5051156147da57509650610c6595505050505050565b60010161470c565b6060610c658484600085856147f685614908565b614847576040805162461bcd60e51b815260206004820152601d60248201527f416464726573733a2063616c6c20746f206e6f6e2d636f6e7472616374000000604482015290519081900360640190fd5b60006060866001600160a01b031685876040518082805190602001908083835b602083106148865780518252601f199092019160209182019101614867565b6001836020036101000a03801982511681845116808217855250505050505090500191505060006040518083038185875af1925050503d80600081146148e8576040519150601f19603f3d011682016040523d82523d6000602084013e6148ed565b606091505b50915091506148fd82828661490e565b979650505050505050565b3b151590565b6060831561491d575081611890565b82511561492d5782518084602001fd5b60405162461bcd60e51b815260206004820181815284516024840152845185939192839260440191908501908083836000831561415257818101518382015260200161413a565b6040518060800160405280600081526020016000815260200160008152602001600081525090565b8280548282559060005260206000209081019282156149d7579160200282015b828111156149d75782518255916020019190600101906149bc565b506149e3929150614a16565b5090565b6040518060a0016040528060008152602001600081526020016000815260200160008152602001600081525090565b5b808211156149e35760008155600101614a1756fe536166654d6174683a206d756c7469706c69636174696f6e206f766572666c6f775361666545524332303a204552433230206f7065726174696f6e20646964206e6f74207375636365656443616e6e6f74207769746864726177206d6f7265207468616e20617661696c61626c65a264697066735822122091904be4f3bdff5b3aeb0f5dbd0ca7a131be95aa6c6690a102e323a68d20dfca64736f6c634300060c0033",
  "deployedBytecode": "0x73000000000000000000000000000000000000000030146080604052600436106101ef5760003560e01c80636cbe604a11610119578063d011f918116100ac578063d4fa8b561161007b578063d4fa8b56146107f5578063e93f32e514610821578063eb6b44aa146108a6578063f3de0362146108ef576101ef565b8063d011f91814610784578063d0128ce61461078c578063d431ccdf146107c5578063d4b0de2f1461072d576101ef565b8063ab3d8544116100e8578063ab3d85441461072d578063bbca125c14610735578063c6d87dd51461072d578063cbf1d3f414610761576101ef565b80636cbe604a146105a257806371a621cc146105d25780638266389614610659578063a7df2f8914610710576101ef565b80632de30c081161019157806360d136c21161016057806360d136c2146104ff578063611d4dfa1461051c5780636b10c3f7146105555780636bcf322514610585576101ef565b80632de30c08146104005780633522c4a01461048257806339698415146104b85780634b91cf82146104c0576101ef565b8063125690b3116101cd578063125690b314610299578063140f5418146103505780631c1a9b9e1461037c578063226ebc21146103d0576101ef565b80630296ab50146101f4578063038e19181461021257806304adf68c1461025a575b600080fd5b6101fc6108f7565b6040805160ff9092168252519081900360200190f35b6102486004803603608081101561022857600080fd5b5080359060ff6020820135811691604081013590911690606001356108fc565b60408051918252519081900360200190f35b81801561026657600080fd5b506102486004803603608081101561027d57600080fd5b5080359060208101359060ff6040820135169060600135610914565b8180156102a557600080fd5b50610248600480360360608110156102bc57600080fd5b81359190810190604081016020820135600160201b8111156102dd57600080fd5b8201836020820111156102ef57600080fd5b803590602001918460208302840111600160201b8311171561031057600080fd5b9190808060200260200160405190810160405280939291908181526020018383602002808284376000920191909152509295505091359250610c6d915050565b81801561035c57600080fd5b5061037a6004803603602081101561037357600080fd5b5035611897565b005b6103b76004803603608081101561039257600080fd5b5080359060208101356001600160a01b0316906040810135906060013560ff16611954565b6040805192835260208301919091528051918290030190f35b8180156103dc57600080fd5b5061037a600480360360408110156103f357600080fd5b50803590602001356119f0565b6104326004803603606081101561041657600080fd5b508035906001600160a01b036020820135169060400135611a79565b60408051602080825283518183015283519192839290830191858101910280838360005b8381101561046e578181015183820152602001610456565b505050509050019250505060405180910390f35b81801561048e57600080fd5b5061037a600480360360608110156104a557600080fd5b5080359060208101359060400135611a86565b610248611ce7565b8180156104cc57600080fd5b5061037a600480360360608110156104e357600080fd5b508035906001600160a01b036020820135169060400135611cee565b6102486004803603602081101561051557600080fd5b5035611cfe565b81801561052857600080fd5b5061037a6004803603604081101561053f57600080fd5b50803590602001356001600160a01b0316611e48565b81801561056157600080fd5b5061037a6004803603604081101561057857600080fd5b5080359060200135611eba565b6102486004803603602081101561059b57600080fd5b5035611f44565b8180156105ae57600080fd5b5061037a600480360360408110156105c557600080fd5b5080359060200135611f55565b8180156105de57600080fd5b50610432600480360360608110156105f557600080fd5b813591602081013591810190606081016040820135600160201b81111561061b57600080fd5b82018360208201111561062d57600080fd5b803590602001918460208302840111600160201b8311171561064e57600080fd5b509092509050611fde565b81801561066557600080fd5b506102486004803603606081101561067c57600080fd5b81359190810190604081016020820135600160201b81111561069d57600080fd5b8201836020820111156106af57600080fd5b803590602001918460208302840111600160201b831117156106d057600080fd5b9190808060200260200160405190810160405280939291908181526020018383602002808284376000920191909152509295505091359250612373915050565b6102486004803603602081101561072657600080fd5b5035612aed565b610248612af8565b6102486004803603604081101561074b57600080fd5b50803590602001356001600160a01b0316612b00565b6102486004803603604081101561077757600080fd5b5080359060200135612ba7565b610248612c29565b81801561079857600080fd5b5061037a600480360360408110156107af57600080fd5b50803590602001356001600160a01b0316612c2e565b8180156107d157600080fd5b5061037a600480360360408110156107e857600080fd5b5080359060200135612cf8565b6102486004803603604081101561080b57600080fd5b50803590602001356001600160a01b0316612d81565b6102486004803603608081101561083757600080fd5b8135916001600160a01b0360208201351691810190606081016040820135600160201b81111561086657600080fd5b82018360208201111561087857600080fd5b803590602001918460208302840111600160201b8311171561089957600080fd5b9193509150351515612da0565b8180156108b257600080fd5b50610248600480360360a08110156108c957600080fd5b5080359060ff602082013581169160408101359091169060608101359060800135613023565b61024861335f565b601281565b600061090a85858585613368565b5095945050505050565b6000808560090160009054906101000a90046001600160a01b03166001600160a01b03166318160ddd6040518163ffffffff1660e01b815260040160206040518083038186803b15801561096757600080fd5b505afa15801561097b573d6000803e3d6000fd5b505050506040513d602081101561099157600080fd5b5051600a8701546009880154604080516370a0823160e01b8152336004820152905193945091926001600160a01b03909116916370a08231916024808301926020929190829003018186803b1580156109e957600080fd5b505afa1580156109fd573d6000803e3d6000fd5b505050506040513d6020811015610a1357600080fd5b5051861115610a59576040805162461bcd60e51b815260206004820152600d60248201526c1f2628173130b630b731b2a7b360991b604482015290519081900360640190fd5b808560ff1610610aa2576040805162461bcd60e51b815260206004820152600f60248201526e151bdad95b881b9bdd08199bdd5b99608a1b604482015290519081900360640190fd5b600080610ab189338a8a611954565b9250905085811015610afb576040805162461bcd60e51b815260206004820152600e60248201526d191e480f081b5a5b905b5bdd5b9d60921b604482015290519081900360640190fd5b610b59610b2e610b276402540be400610b218d60050154876134b390919063ffffffff16565b9061350c565b8390613573565b8a600c018960ff1681548110610b4057fe5b90600052602060002001546135cd90919063ffffffff16565b89600c018860ff1681548110610b6b57fe5b600091825260208220019190915560098a01546040805163079cc67960e41b8152336004820152602481018c905290516001600160a01b03909216926379cc67909260448084019382900301818387803b158015610bc857600080fd5b505af1158015610bdc573d6000803e3d6000fd5b50505050610c1333828b600a018a60ff1681548110610bf757fe5b6000918252602090912001546001600160a01b0316919061362a565b604080518981526020810186905260ff89168183015260608101839052905133917f43fb02998f4e03da2e0e6fff53fdbf0c40a9f45f145dc377fc30615d7d7a8a64919081900360800190a293505050505b949350505050565b600a830154825160009114610cc9576040805162461bcd60e51b815260206004820181905260248201527f416d6f756e7473206d757374206d6174636820706f6f6c656420746f6b656e73604482015290519081900360640190fd5b600a84015460609067ffffffffffffffff81118015610ce757600080fd5b50604051908082528060200260200182016040528015610d11578160200160208202803683370190505b509050610d1c614974565b6040518060800160405280600081526020016000815260200160008152602001600081525090508560090160009054906101000a90046001600160a01b03166001600160a01b03166318160ddd6040518163ffffffff1660e01b815260040160206040518083038186803b158015610d9357600080fd5b505afa158015610da7573d6000803e3d6000fd5b505050506040513d6020811015610dbd57600080fd5b505115610dd057610dcd8661367c565b81525b606086600c01805480602002602001604051908101604052809291908181526020018280548015610e2057602002820191906000526020600020905b815481526020019060010190808311610e0c575b5050505050905060005b600a880154811015611123578760090160009054906101000a90046001600160a01b03166001600160a01b03166318160ddd6040518163ffffffff1660e01b815260040160206040518083038186803b158015610e8657600080fd5b505afa158015610e9a573d6000803e3d6000fd5b505050506040513d6020811015610eb057600080fd5b5051151580610ed257506000878281518110610ec857fe5b6020026020010151115b610f23576040805162461bcd60e51b815260206004820152601e60248201527f4d75737420737570706c7920616c6c20746f6b656e7320696e20706f6f6c0000604482015290519081900360640190fd5b868181518110610f2f57fe5b60200260200101516000146110c557600088600a018281548110610f4f57fe5b60009182526020918290200154604080516370a0823160e01b815230600482015290516001600160a01b03909216926370a0823192602480840193829003018186803b158015610f9e57600080fd5b505afa158015610fb2573d6000803e3d6000fd5b505050506040513d6020811015610fc857600080fd5b5051885190915061101790339030908b9086908110610fe357fe5b60200260200101518c600a018681548110610ffa57fe5b6000918252602090912001546001600160a01b0316929190613693565b6110ab818a600a01848154811061102a57fe5b60009182526020918290200154604080516370a0823160e01b815230600482015290516001600160a01b03909216926370a0823192602480840193829003018186803b15801561107957600080fd5b505afa15801561108d573d6000803e3d6000fd5b505050506040513d60208110156110a357600080fd5b5051906135cd565b8883815181106110b757fe5b602002602001018181525050505b6111048782815181106110d457fe5b602002602001015189600c0183815481106110eb57fe5b906000526020600020015461357390919063ffffffff16565b82828151811061111057fe5b6020908102919091010152600101610e2a565b5061112d876136f3565b606083015261114961113f8883613788565b83606001516137e6565b60208301819052825110611198576040805162461bcd60e51b8152602060048201526011602482015270442073686f756c6420696e63726561736560781b604482015290519081900360640190fd5b602080830151604080850191909152600989015481516318160ddd60e01b815291516001600160a01b03909116926318160ddd9260048082019391829003018186803b1580156111e757600080fd5b505afa1580156111fb573d6000803e3d6000fd5b505050506040513d602081101561121157600080fd5b50511561140e576000611223886139bd565b905060005b600a8901548110156113eb57600061126e8560000151610b218c600c01858154811061125057fe5b906000526020600020015488602001516134b390919063ffffffff16565b905061131b6402540be400610b218373__$7bcaacd56beb19a20ee5df8a4f1dc67de1$__63a95cb7f790918988815181106112a557fe5b60200260200101516040518363ffffffff1660e01b8152600401808381526020018281526020019250505060206040518083038186803b1580156112e857600080fd5b505af41580156112fc573d6000803e3d6000fd5b505050506040513d602081101561131257600080fd5b505186906134b3565b86838151811061132757fe5b60200260200101818152505061138b6113696402540be400610b218d600501548a878151811061135357fe5b60200260200101516134b390919063ffffffff16565b85848151811061137557fe5b60200260200101516135cd90919063ffffffff16565b8a600c01838154811061139a57fe5b90600052602060002001819055506113cb8683815181106113b757fe5b602002602001015185848151811061137557fe5b8483815181106113d757fe5b602090810291909101015250600101611228565b506114036113f98984613788565b84606001516137e6565b604084015250611425565b805161142390600c890190602084019061499c565b505b60008060008960090160009054906101000a90046001600160a01b03166001600160a01b03166318160ddd6040518163ffffffff1660e01b815260040160206040518083038186803b15801561147a57600080fd5b505afa15801561148e573d6000803e3d6000fd5b505050506040513d60208110156114a457600080fd5b50516114b65784602001519250611556565b6115538560000151610b218c60090160009054906101000a90046001600160a01b03166001600160a01b03166318160ddd6040518163ffffffff1660e01b815260040160206040518083038186803b15801561151157600080fd5b505afa158015611525573d6000803e3d6000fd5b505050506040513d602081101561153b57600080fd5b5051885160408a015161154d916135cd565b906134b3565b92505b878310156115ab576040805162461bcd60e51b815260206004820152601b60248201527f436f756c646e2774206d696e74206d696e207265717565737465640000000000604482015290519081900360640190fd5b60068a01546116265760098a0154604080516340c10f1960e01b81523360048201526024810186905290516001600160a01b03909216916340c10f199160448082019260009290919082900301818387803b15801561160957600080fd5b505af115801561161d573d6000803e3d6000fd5b50505050611735565b6116466402540be400610b218c60060154866134b390919063ffffffff16565b915061165283836135cd565b60098b015460088c0154604080516340c10f1960e01b81526001600160a01b0392831660048201526024810187905290519394509116916340c10f199160448082019260009290919082900301818387803b1580156116b057600080fd5b505af11580156116c4573d6000803e3d6000fd5b50505060098b0154604080516340c10f1960e01b81523360048201526024810185905290516001600160a01b0390921692506340c10f1991604480830192600092919082900301818387803b15801561171c57600080fd5b505af1158015611730573d6000803e3d6000fd5b505050505b336001600160a01b03167f189c623b666b1b45b83d7178f39b8c087cb09774317ca2f53c2d3c3726f222a28a8888602001518e60090160009054906101000a90046001600160a01b03166001600160a01b03166318160ddd6040518163ffffffff1660e01b815260040160206040518083038186803b1580156117b757600080fd5b505afa1580156117cb573d6000803e3d6000fd5b505050506040513d60208110156117e157600080fd5b5051604080519081018390526060810182905260808082528551908201528451819060208281019160a0840191898101910280838360005b83811015611831578181015183820152602001611819565b50505050905001838103825286818151815260200191508051906020019060200280838360005b83811015611870578181015183820152602001611858565b50505050905001965050505050505060405180910390a250909450505050505b9392505050565b428160030154116118ef576040805162461bcd60e51b815260206004820152601760248201527f52616d7020697320616c72656164792073746f70706564000000000000000000604482015290519081900360640190fd5b60006118fa826136f3565b8083556001830181905542600284018190556003840181905560408051838152602081019290925280519293507f46e22fb3709ad289f62ce63d469248536dbc78d82b84a3d7e74ad606dc20193892918290030190a15050565b6000806000806119658886886139ee565b809250819350505060006119b4836119ae8b600b018960ff168154811061198857fe5b9060005260206000200154610b21866119a08f613d3a565b8c60ff168151811061137557fe5b906135cd565b90506119e26402540be400610b216119db6119cf8d8d612b00565b6402540be400906135cd565b86906134b3565b999098509650505050505050565b6305f5e100811115611a3b576040805162461bcd60e51b815260206004820152600f60248201526e08ccaca40d2e640e8dede40d0d2ced608b1b604482015290519081900360640190fd5b600782018190556040805182815290517fd5fe46099fa396290a7f57e36c3c3c8774e2562c18ed5d1dcc0fa75071e03f1d9181900360200190a15050565b6060610c65848484613de8565b6002830154611a989062015180613573565b421015611aec576040805162461bcd60e51b815260206004820152601f60248201527f57616974203120646179206265666f7265207374617274696e672072616d7000604482015290519081900360640190fd5b611af94262127500613573565b811015611b46576040805162461bcd60e51b8152602060048201526016602482015275496e73756666696369656e742072616d702074696d6560501b604482015290519081900360640190fd5b600082118015611b585750620f424082105b611ba9576040805162461bcd60e51b815260206004820181905260248201527f667574757265415f206d757374206265203e203020616e64203c204d41585f41604482015290519081900360640190fd5b6000611bb4846136f3565b90506000611bc38460646134b3565b905081811015611c295781611bd98260026134b3565b1015611c24576040805162461bcd60e51b8152602060048201526015602482015274199d5d1d5c995057c81a5cc81d1bdbc81cdb585b1b605a1b604482015290519081900360640190fd5b611c80565b611c348260026134b3565b811115611c80576040805162461bcd60e51b8152602060048201526015602482015274667574757265415f20697320746f6f206c6172676560581b604482015290519081900360640190fd5b8185556001850181905542600286018190556003860184905560408051848152602081018490528082019290925260608201859052517fa2b71ec6df949300b59aab36b55e189697b750119dd349fcfa8c0f779e83c2549181900360800190a15050505050565b620f424081565b611cf9838383613f98565b505050565b600080611d1b611d0d84613d3a565b611d16856136f3565b6137e6565b905060008360090160009054906101000a90046001600160a01b03166001600160a01b03166318160ddd6040518163ffffffff1660e01b815260040160206040518083038186803b158015611d6f57600080fd5b505afa158015611d83573d6000803e3d6000fd5b505050506040513d6020811015611d9957600080fd5b505190508015611e3c57611e3381610b218660090160009054906101000a90046001600160a01b03166001600160a01b031663313ce5676040518163ffffffff1660e01b815260040160206040518083038186803b158015611dfa57600080fd5b505afa158015611e0e573d6000803e3d6000fd5b505050506040513d6020811015611e2457600080fd5b5051859060ff16600a0a6134b3565b92505050611e43565b6000925050505b919050565b60088201546001600160a01b03163314611e95576040805162461bcd60e51b81526020600482015260096024820152686465763a207775743f60b81b604482015290519081900360640190fd5b60089190910180546001600160a01b0319166001600160a01b03909216919091179055565b6402540be400811115611f06576040805162461bcd60e51b815260206004820152600f60248201526e08ccaca40d2e640e8dede40d0d2ced608b1b604482015290519081900360640190fd5b600582018190556040805182815290517fab599d640ca80cde2b09b128a4154a8dfe608cb80f4c9399c8b954b01fd35f389181900360200190a15050565b6000611f4f826140ee565b92915050565b6305f5e100811115611fa0576040805162461bcd60e51b815260206004820152600f60248201526e08ccaca40d2e640e8dede40d0d2ced608b1b604482015290519081900360640190fd5b600682018190556040805182815290517f5237b692334926d9ab50f9d1ac513fe7e153f0cd81dd7c55a09d281d2985d8089181900360200190a15050565b6009840154604080516370a0823160e01b815233600482015290516060926001600160a01b0316916370a08231916024808301926020929190829003018186803b15801561202b57600080fd5b505afa15801561203f573d6000803e3d6000fd5b505050506040513d602081101561205557600080fd5b505184111561209b576040805162461bcd60e51b815260206004820152600d60248201526c1f2628173130b630b731b2a7b360991b604482015290519081900360640190fd5b600a85015482146120f3576040805162461bcd60e51b815260206004820181905260248201527f6d696e416d6f756e7473206d757374206d6174636820706f6f6c546f6b656e73604482015290519081900360640190fd5b6060612100863387613de8565b905060005b81518110156121fa5784848281811061211a57fe5b9050602002013582828151811061212d57fe5b60200260200101511015612188576040805162461bcd60e51b815260206004820152601a60248201527f616d6f756e74735b695d203c206d696e416d6f756e74735b695d000000000000604482015290519081900360640190fd5b6121ae82828151811061219757fe5b602002602001015188600c018381548110610b4057fe5b87600c0182815481106121bd57fe5b90600052602060002001819055506121f2338383815181106121db57fe5b602002602001015189600a018481548110610bf757fe5b600101612105565b5060098601546040805163079cc67960e41b81523360048201526024810188905290516001600160a01b03909216916379cc67909160448082019260009290919082900301818387803b15801561225057600080fd5b505af1158015612264573d6000803e3d6000fd5b50505050336001600160a01b03167f88d38ed598fdd809c2bf01ee49cd24b7fdabf379a83d29567952b60324d58cef828860090160009054906101000a90046001600160a01b03166001600160a01b03166318160ddd6040518163ffffffff1660e01b815260040160206040518083038186803b1580156122e457600080fd5b505afa1580156122f8573d6000803e3d6000fd5b505050506040513d602081101561230e57600080fd5b50516040805160208181018490528282528451928201929092528351909182916060830191868101910280838360005b8381101561235657818101518382015260200161233e565b50505050905001935050505060405180910390a295945050505050565b600a8301548251600091146123cf576040805162461bcd60e51b815260206004820181905260248201527f416d6f756e74732073686f756c64206d6174636820706f6f6c20746f6b656e73604482015290519081900360640190fd5b6009840154604080516370a0823160e01b815233600482015290516001600160a01b03909216916370a0823191602480820192602092909190829003018186803b15801561241c57600080fd5b505afa158015612430573d6000803e3d6000fd5b505050506040513d602081101561244657600080fd5b5051821180159061245657508115155b612497576040805162461bcd60e51b815260206004820152600d60248201526c1f2628173130b630b731b2a7b360991b604482015290519081900360640190fd5b61249f614974565b60405180608001604052806000815260200160008152602001600081526020016000815250905060008560090160009054906101000a90046001600160a01b03166001600160a01b03166318160ddd6040518163ffffffff1660e01b815260040160206040518083038186803b15801561251857600080fd5b505afa15801561252c573d6000803e3d6000fd5b505050506040513d602081101561254257600080fd5b505190506000612551876139bd565b9050606087600c018054806020026020016040519081016040528092919081815260200182805480156125a357602002820191906000526020600020905b81548152602001906001019080831161258f575b505050505090506125b3886136f3565b60608501526125ce6125c489613d3a565b85606001516137e6565b845260005b600a890154811015612651576126328882815181106125ee57fe5b6020026020010151604051806060016040528060238152602001614a776023913984848151811061261b57fe5b60200260200101516140fe9092919063ffffffff16565b82828151811061263e57fe5b60209081029190910101526001016125d3565b5061265f6125c48983613788565b6020850152600a88015460609067ffffffffffffffff8111801561268257600080fd5b506040519080825280602002602001820160405280156126ac578160200160208202803683370190505b50905060005b600a8a015481101561284e5760006126f88760000151610b218d600c0185815481106126da57fe5b90600052602060002001548a602001516134b390919063ffffffff16565b905060008173__$7bcaacd56beb19a20ee5df8a4f1dc67de1$__63a95cb7f7909187868151811061272557fe5b60200260200101516040518363ffffffff1660e01b8152600401808381526020018281526020019250505060206040518083038186803b15801561276857600080fd5b505af415801561277c573d6000803e3d6000fd5b505050506040513d602081101561279257600080fd5b505190506127a96402540be400610b2188846134b3565b8484815181106127b557fe5b6020026020010181815250506127ed6127e16402540be400610b218f6005015488888151811061135357fe5b86858151811061137557fe5b8c600c0184815481106127fc57fe5b906000526020600020018190555061282d84848151811061281957fe5b602002602001015186858151811061137557fe5b85848151811061283957fe5b602090810291909101015250506001016126b2565b5061286661285c8a84613788565b86606001516137e6565b6040860181905285516000916128889190610b2190889061154d9084906135cd565b9050806128dc576040805162461bcd60e51b815260206004820152601b60248201527f4275726e7420616d6f756e742063616e6e6f74206265207a65726f0000000000604482015290519081900360640190fd5b6129006128ec6119cf8c33612b00565b610b216402540be40061154d856001613573565b905087811115612957576040805162461bcd60e51b815260206004820152601b60248201527f746f6b656e416d6f756e74203e206d61784275726e416d6f756e740000000000604482015290519081900360640190fd5b60098a01546040805163079cc67960e41b81523360048201526024810184905290516001600160a01b03909216916379cc67909160448082019260009290919082900301818387803b1580156129ac57600080fd5b505af11580156129c0573d6000803e3d6000fd5b5050505060005b600a8b0154811015612a02576129fa338b83815181106129e357fe5b60200260200101518d600a018481548110610bf757fe5b6001016129c7565b50602086015133907f3631c28b1f9dd213e0319fb167b554d76b6c283a41143eb400a0d1adb1af1755908b908590612a3a8a876135cd565b604051808060200180602001858152602001848152602001838103835287818151815260200191508051906020019060200280838360005b83811015612a8a578181015183820152602001612a72565b50505050905001838103825286818151815260200191508051906020019060200280838360005b83811015612ac9578181015183820152602001612ab1565b50505050905001965050505050505060405180910390a29998505050505050505050565b6000611f4f826136f3565b6305f5e10081565b6001600160a01b0381166000908152600d830160205260408120548190612b2a906224ea00613573565b905042811115612b9d576000612b4082426135cd565b9050612b946402540be400610b216224ea00610b218561154d8b600e0160008c6001600160a01b03166001600160a01b03168152602001908152602001600020548c600701546134b390919063ffffffff16565b92505050611f4f565b5060009392505050565b600a8201546000908210612bfd576040805162461bcd60e51b8152602060048201526018602482015277546f6b656e20696e646578206f7574206f662072616e676560401b604482015290519081900360640190fd5b61189083600c018381548110612c0f57fe5b906000526020600020015484600a01848154811061102a57fe5b606481565b60005b600a830154811015611cf957600083600a018281548110612c4e57fe5b6000918252602082200154600c860180546001600160a01b039092169350612cd29185908110612c7a57fe5b9060005260206000200154836001600160a01b03166370a08231306040518263ffffffff1660e01b815260040180826001600160a01b0316815260200191505060206040518083038186803b15801561107957600080fd5b90508015612cee57612cee6001600160a01b038316858361362a565b5050600101612c31565b6305f5e100811115612d43576040805162461bcd60e51b815260206004820152600f60248201526e08ccaca40d2e640e8dede40d0d2ced608b1b604482015290519081900360640190fd5b600482018190556040805182815290517fd88ea5155021c6f8dafa1a741e173f595cdf77ce7c17d43342131d7f06afdfe59181900360200190a15050565b6001600160a01b03166000908152600d91909101602052604090205490565b600a85015460009081612db2886136f3565b90506000612e1b612e158a8b600c01805480602002602001604051908101604052809291908181526020018280548015612e0b57602002820191906000526020600020905b815481526020019060010190808311612df7575b5050505050613788565b836137e6565b9050606089600c01805480602002602001604051908101604052809291908181526020018280548015612e6d57602002820191906000526020600020905b815481526020019060010190808311612e59575b5050505050905060005b84811015612f36578615612eda57612ebd898983818110612e9457fe5b90506020020135838381518110612ea757fe5b602002602001015161357390919063ffffffff16565b828281518110612ec957fe5b602002602001018181525050612f2e565b612f15898983818110612ee957fe5b90506020020135604051806060016040528060238152602001614a776023913984848151811061261b57fe5b828281518110612f2157fe5b6020026020010181815250505b600101612e77565b506000612f4c612f468c84613788565b856137e6565b905060008b60090160009054906101000a90046001600160a01b03166001600160a01b03166318160ddd6040518163ffffffff1660e01b815260040160206040518083038186803b158015612fa057600080fd5b505afa158015612fb4573d6000803e3d6000fd5b505050506040513d6020811015612fca57600080fd5b505190508715612ff357612fe684610b218361154d86846135cd565b965050505050505061301a565b612fe66130036119cf8e8e612b00565b610b216402540be40061154d88838783838b6135cd565b95945050505050565b600085600a018560ff168154811061303757fe5b60009182526020918290200154604080516370a0823160e01b815233600482015290516001600160a01b03909216926370a0823192602480840193829003018186803b15801561308657600080fd5b505afa15801561309a573d6000803e3d6000fd5b505050506040513d60208110156130b057600080fd5b5051831115613106576040805162461bcd60e51b815260206004820152601d60248201527f43616e6e6f742073776170206d6f7265207468616e20796f75206f776e000000604482015290519081900360640190fd5b600086600a018660ff168154811061311a57fe5b60009182526020918290200154604080516370a0823160e01b815230600482015290516001600160a01b03909216926370a0823192602480840193829003018186803b15801561316957600080fd5b505afa15801561317d573d6000803e3d6000fd5b505050506040513d602081101561319357600080fd5b5051600a880180549192506131b6913391309188919060ff8c16908110610ffa57fe5b60006131ce8289600a018960ff168154811061102a57fe5b90506000806131df8a8a8a86613368565b9150915085821015613238576040805162461bcd60e51b815260206004820181905260248201527f53776170206469646e277420726573756c7420696e206d696e20746f6b656e73604482015290519081900360640190fd5b600061327a8b600b018a60ff168154811061324f57fe5b9060005260206000200154610b216402540be400610b218f60050154876134b390919063ffffffff16565b9050613292848c600c018c60ff16815481106110eb57fe5b8b600c018b60ff16815481106132a457fe5b90600052602060002001819055506132cc816119ae858e600c018d60ff1681548110610b4057fe5b8b600c018a60ff16815481106132de57fe5b906000526020600020018190555061330333848d600a018c60ff1681548110610bf757fe5b604080518581526020810185905260ff808d16828401528b166060820152905133917fc6c1e0630dbe9130cc068028486c0d118ddcea348550819defd5cb8c257f8a38919081900360800190a250909998505050505050505050565b6402540be40081565b600080606061337687613d3a565b905080518660ff1610801561338e575080518560ff16105b6133da576040805162461bcd60e51b8152602060048201526018602482015277546f6b656e20696e646578206f7574206f662072616e676560401b604482015290519081900360640190fd5b600061342b828860ff16815181106133ee57fe5b60200260200101516134258a600b018a60ff168154811061340b57fe5b9060005260206000200154886134b390919063ffffffff16565b90613573565b9050600061343c8989898587614195565b905061345660016119ae83868b60ff168151811061137557fe5b94506134786402540be400610b218b60040154886134b390919063ffffffff16565b93506134a589600b018860ff168154811061348f57fe5b600091825260209091200154610b2187876135cd565b945050505094509492505050565b6000826134c257506000611f4f565b828202828482816134cf57fe5b04146118905760405162461bcd60e51b8152600401808060200182810382526021815260200180614a2c6021913960400191505060405180910390fd5b6000808211613562576040805162461bcd60e51b815260206004820152601a60248201527f536166654d6174683a206469766973696f6e206279207a65726f000000000000604482015290519081900360640190fd5b81838161356b57fe5b049392505050565b600082820183811015611890576040805162461bcd60e51b815260206004820152601b60248201527f536166654d6174683a206164646974696f6e206f766572666c6f770000000000604482015290519081900360640190fd5b600082821115613624576040805162461bcd60e51b815260206004820152601e60248201527f536166654d6174683a207375627472616374696f6e206f766572666c6f770000604482015290519081900360640190fd5b50900390565b604080516001600160a01b038416602482015260448082018490528251808303909101815260649091019091526020810180516001600160e01b031663a9059cbb60e01b179052611cf9908490614460565b6000611f4f61368a83613d3a565b611d16846136f3565b604080516001600160a01b0380861660248301528416604482015260648082018490528251808303909101815260849091019091526020810180516001600160e01b03166323b872dd60e01b1790526136ed908590614460565b50505050565b60038101546001820154600091904282111561377f5760028401548454808311156137515761374661373f61372886856135cd565b610b2161373542876135cd565b61154d88876135cd565b8290613573565b945050505050611e43565b61374661377861376186856135cd565b610b2161376e42876135cd565b61154d86896135cd565b82906135cd565b9150611e439050565b60606118908284600b018054806020026020016040519081016040528092919081815260200182805480156137dc57602002820191906000526020600020905b8154815260200190600101908083116137c8575b5050505050614511565b815160009081805b828110156138265761381c86828151811061380557fe5b60200260200101518361357390919063ffffffff16565b91506001016137ee565b508061383757600092505050611f4f565b6000818161384587866134b3565b905060005b610100811015613979578260005b878110156138875761387d613873898d848151811061135357fe5b610b2184886134b3565b9150600101613858565b5092935083926138d56138b56138a28361154d8b6001613573565b6134256064610b218961154d8a846135cd565b610b218661154d6138c6868d6134b3565b6134256064610b218b8f6134b3565b93508373__$7bcaacd56beb19a20ee5df8a4f1dc67de1$__6313a1ec759091876040518363ffffffff1660e01b8152600401808381526020018281526020019250505060206040518083038186803b15801561393057600080fd5b505af4158015613944573d6000803e3d6000fd5b505050506040513d602081101561395a57600080fd5b5051156139705783975050505050505050611f4f565b5060010161384a565b506040805162461bcd60e51b81526020600482015260136024820152724420646f6573206e6f7420636f6e766572676560681b604482015290519081900360640190fd5b600a810154600090611f4f906139db9060049061154d9060016135cd565b600a8401546004850154610b21916134b3565b600a830154600090819060ff851610613a49576040805162461bcd60e51b8152602060048201526018602482015277546f6b656e20696e646578206f7574206f662072616e676560401b604482015290519081900360640190fd5b6060613a5486613d3a565b9050613a5e6149e7565b6040518060a001604052806000815260200160008152602001600081526020016000815260200160008152509050613a95876136f3565b60808201819052613aa79083906137e6565b81526009870154604080516318160ddd60e01b81529051613b3992613b31926001600160a01b03909116916318160ddd91600480820192602092909190829003018186803b158015613af857600080fd5b505afa158015613b0c573d6000803e3d6000fd5b505050506040513d6020811015613b2257600080fd5b50518351610b219089906134b3565b8251906135cd565b60208201528151829060ff8816908110613b4f57fe5b6020026020010151851115613bab576040805162461bcd60e51b815260206004820152601a60248201527f5769746864726177206578636565647320617661696c61626c65000000000000604482015290519081900360640190fd5b613bbf816080015187848460200151614608565b6040820152815160609067ffffffffffffffff81118015613bdf57600080fd5b50604051908082528060200260200182016040528015613c09578160200160208202803683370190505b509050613c15886139bd565b606083015260005b600a890154811015613ccc576000848281518110613c3757fe5b60200260200101519050613cac6137786402540be400610b2187606001518d60ff168714613c8557885160208a0151613c8091613c7991610b21908a906134b3565b87906135cd565b61154d565b61154d89604001516119ae8b60000151610b218d602001518b6134b390919063ffffffff16565b838381518110613cb857fe5b602090810291909101015250600101613c1d565b506000613cf5613ce684608001518a858760200151614608565b838a60ff168151811061137557fe5b9050613d2389600b018960ff1681548110613d0c57fe5b600091825260209091200154610b218360016135cd565b604090930151929550919350505050935093915050565b6060611f4f82600c01805480602002602001604051908101604052809291908181526020018280548015613d8d57602002820191906000526020600020905b815481526020019060010190808311613d79575b505050505083600b018054806020026020016040519081016040528092919081815260200182805480156137dc57602002820191906000526020600020908154815260200190600101908083116137c8575050505050614511565b606060008460090160009054906101000a90046001600160a01b03166001600160a01b03166318160ddd6040518163ffffffff1660e01b815260040160206040518083038186803b158015613e3c57600080fd5b505afa158015613e50573d6000803e3d6000fd5b505050506040513d6020811015613e6657600080fd5b5051905080831115613ebf576040805162461bcd60e51b815260206004820152601a60248201527f43616e6e6f742065786365656420746f74616c20737570706c79000000000000604482015290519081900360640190fd5b6000613ee16402540be400610b21613eda6119cf8a8a612b00565b87906134b3565b600a87015490915060609067ffffffffffffffff81118015613f0257600080fd5b50604051908082528060200260200182016040528015613f2c578160200160208202803683370190505b50905060005b600a880154811015613f8d57613f6e84610b21858b600c018581548110613f5557fe5b90600052602060002001546134b390919063ffffffff16565b828281518110613f7a57fe5b6020908102919091010152600101613f32565b509695505050505050565b6001600160a01b038216613fab57611cf9565b6007830154613fdb576001600160a01b0382166000908152600e8401602052604090206402540be40090556140cd565b6000613fe78484612b00565b6009850154604080516370a0823160e01b81526001600160a01b038781166004830152915193945060009391909216916370a08231916024808301926020929190829003018186803b15801561403c57600080fd5b505afa158015614050573d6000803e3d6000fd5b505050506040513d602081101561406657600080fd5b505160078601549091506140af906140829061154d8685613573565b610b216402540be40061154d6140a58a60070154896134b390919063ffffffff16565b61342587896134b3565b6001600160a01b0385166000908152600e8701602052604090205550505b506001600160a01b03166000908152600d9190910160205260409020429055565b6000611f4f6064610b21846136f3565b6000818484111561418d5760405162461bcd60e51b81526004018080602001828103825283818151815260200191508051906020019080838360005b8381101561415257818101518382015260200161413a565b50505050905090810190601f16801561417f5780820380516001836020036101000a031916815260200191505b509250505060405180910390fd5b505050900390565b600a85015460009060ff86811690861614156141f8576040805162461bcd60e51b815260206004820152601d60248201527f43616e277420636f6d7061726520746f6b656e20746f20697473656c66000000604482015290519081900360640190fd5b808660ff1610801561420c5750808560ff16105b614256576040805162461bcd60e51b8152602060048201526016602482015275151bdad95b9cc81b5d5cdd081899481a5b881c1bdbdb60521b604482015290519081900360640190fd5b6000614261886136f3565b9050600061426f85836137e6565b90508060008061427f86866134b3565b90506000805b878110156142f8578c60ff168114156142a0578a91506142ca565b8b60ff1681146142c5578981815181106142b657fe5b602002602001015191506142ca565b6142f0565b6142d48483613573565b93506142ed6142e3838a6134b3565b610b2187896134b3565b94505b600101614285565b5061431561430683896134b3565b610b21606461154d888a6134b3565b9350600061433261432b84610b218960646134b3565b8590613573565b9050600086815b61010081101561441257909150819061436c61435e8a6119ae876134258760026134b3565b610b218a61342586806134b3565b91508173__$7bcaacd56beb19a20ee5df8a4f1dc67de1$__6313a1ec759091856040518363ffffffff1660e01b8152600401808381526020018281526020019250505060206040518083038186803b1580156143c757600080fd5b505af41580156143db573d6000803e3d6000fd5b505050506040513d60208110156143f157600080fd5b50511561440a5750995061301a98505050505050505050565b600101614339565b506040805162461bcd60e51b815260206004820152601e60248201527f417070726f78696d6174696f6e20646964206e6f7420636f6e76657267650000604482015290519081900360640190fd5b60606144b5826040518060400160405280602081526020017f5361666545524332303a206c6f772d6c6576656c2063616c6c206661696c6564815250856001600160a01b03166147e29092919063ffffffff16565b805190915015611cf9578080602001905160208110156144d457600080fd5b5051611cf95760405162461bcd60e51b815260040180806020018281038252602a815260200180614a4d602a913960400191505060405180910390fd5b8151815160609190811461456c576040805162461bcd60e51b815260206004820152601f60248201527f42616c616e636573206d757374206d61746368206d756c7469706c6965727300604482015290519081900360640190fd5b60608167ffffffffffffffff8111801561458557600080fd5b506040519080825280602002602001820160405280156145af578160200160208202803683370190505b50905060005b828110156145ff576145e08582815181106145cc57fe5b602002602001015187838151811061135357fe5b8282815181106145ec57fe5b60209081029190910101526001016145b5565b50949350505050565b815160009060ff85168111614656576040805162461bcd60e51b815260206004820152600f60248201526e151bdad95b881b9bdd08199bdd5b99608a1b604482015290519081900360640190fd5b8260008061466489856134b3565b905060005b848110156146cb578860ff1681146146c3576146a188828151811061468a57fe5b60200260200101518461357390919063ffffffff16565b92506146c06146b6868a848151811061135357fe5b610b21868a6134b3565b93505b600101614669565b506146e86146d982866134b3565b610b21606461154d878b6134b3565b925060006147056146fe83610b218a60646134b3565b8490613573565b9050600087815b61010081101561441257909150819061473f6147318b6119ae876134258760026134b3565b610b218961342586806134b3565b91508173__$7bcaacd56beb19a20ee5df8a4f1dc67de1$__6313a1ec759091856040518363ffffffff1660e01b8152600401808381526020018281526020019250505060206040518083038186803b15801561479a57600080fd5b505af41580156147ae573d6000803e3d6000fd5b505050506040513d60208110156147c457600080fd5b5051156147da57509650610c6595505050505050565b60010161470c565b6060610c658484600085856147f685614908565b614847576040805162461bcd60e51b815260206004820152601d60248201527f416464726573733a2063616c6c20746f206e6f6e2d636f6e7472616374000000604482015290519081900360640190fd5b60006060866001600160a01b031685876040518082805190602001908083835b602083106148865780518252601f199092019160209182019101614867565b6001836020036101000a03801982511681845116808217855250505050505090500191505060006040518083038185875af1925050503d80600081146148e8576040519150601f19603f3d011682016040523d82523d6000602084013e6148ed565b606091505b50915091506148fd82828661490e565b979650505050505050565b3b151590565b6060831561491d575081611890565b82511561492d5782518084602001fd5b60405162461bcd60e51b815260206004820181815284516024840152845185939192839260440191908501908083836000831561415257818101518382015260200161413a565b6040518060800160405280600081526020016000815260200160008152602001600081525090565b8280548282559060005260206000209081019282156149d7579160200282015b828111156149d75782518255916020019190600101906149bc565b506149e3929150614a16565b5090565b6040518060a0016040528060008152602001600081526020016000815260200160008152602001600081525090565b5b808211156149e35760008155600101614a1756fe536166654d6174683a206d756c7469706c69636174696f6e206f766572666c6f775361666545524332303a204552433230206f7065726174696f6e20646964206e6f74207375636365656443616e6e6f74207769746864726177206d6f7265207468616e20617661696c61626c65a264697066735822122091904be4f3bdff5b3aeb0f5dbd0ca7a131be95aa6c6690a102e323a68d20dfca64736f6c634300060c0033",
  "libraries": {
    "MathUtils": "0x3382D6140c6f3F29190f642FC19DBD1c8550D530"
  },
  "devdoc": {
    "details": "Contracts relying on this library must initialize SwapUtils.Swap struct then use this library for SwapUtils.Swap struct. Note that this library contains both functions called by users and admins. Admin functions should be protected within contracts using this library.",
    "kind": "dev",
    "methods": {
      "addLiquidity(EvmoSwapUtils.Swap storage,uint256[],uint256)": {
        "params": {
          "amounts": "the amounts of each token to add, in their native precision",
          "minToMint": "the minimum LP tokens adding this amount of liquidity should mint, otherwise revert. Handy for front-running mitigation",
          "self": "Swap struct to read from and write to"
        },
        "returns": {
          "_0": "amount of LP token user received"
        }
      },
      "calculateCurrentWithdrawFee(EvmoSwapUtils.Swap storage,address)": {
        "params": {
          "user": "address you want to calculate withdraw fee of"
        },
        "returns": {
          "_0": "current withdraw fee of the user"
        }
      },
      "calculateRemoveLiquidity(EvmoSwapUtils.Swap storage,address,uint256)": {
        "params": {
          "account": "the address that is removing liquidity. required for withdraw fee calculation",
          "amount": "the amount of LP tokens that would to be burned on withdrawal"
        },
        "returns": {
          "_0": "array of amounts of tokens user will receive"
        }
      },
      "calculateSwap(EvmoSwapUtils.Swap storage,uint8,uint8,uint256)": {
        "params": {
          "dx": "the number of tokens to sell. If the token charges a fee on transfers, use the amount that gets transferred after the fee.",
          "self": "Swap struct to read from",
          "tokenIndexFrom": "the token to sell",
          "tokenIndexTo": "the token to buy"
        },
        "returns": {
          "dy": "the number of tokens the user will get"
        }
      },
      "calculateTokenAmount(EvmoSwapUtils.Swap storage,address,uint256[],bool)": {
        "details": "This shouldn't be used outside frontends for user estimates.",
        "params": {
          "account": "address of the account depositing or withdrawing tokens",
          "amounts": "an array of token amounts to deposit or withdrawal, corresponding to pooledTokens. The amount should be in each pooled token's native precision. If a token charges a fee on transfers, use the amount that gets transferred after the fee.",
          "deposit": "whether this is a deposit or a withdrawal",
          "self": "Swap struct to read from"
        },
        "returns": {
          "_0": "if deposit was true, total amount of lp token that will be minted and if deposit was false, total amount of lp token that will be burned"
        }
      },
      "calculateWithdrawOneToken(EvmoSwapUtils.Swap storage,address,uint256,uint8)": {
        "params": {
          "account": "the address that is withdrawing",
          "self": "Swap struct to read from",
          "tokenAmount": "the amount to withdraw in the pool's precision",
          "tokenIndex": "which token will be withdrawn"
        },
        "returns": {
          "_0": "the amount of token user will receive and the associated swap fee"
        }
      },
      "getA(EvmoSwapUtils.Swap storage)": {
        "details": "See the StableSwap paper for details",
        "params": {
          "self": "Swap struct to read from"
        },
        "returns": {
          "_0": "A parameter"
        }
      },
      "getAPrecise(EvmoSwapUtils.Swap storage)": {
        "details": "See the StableSwap paper for details",
        "params": {
          "self": "Swap struct to read from"
        },
        "returns": {
          "_0": "A parameter in its raw precision form"
        }
      },
      "getAdminBalance(EvmoSwapUtils.Swap storage,uint256)": {
        "params": {
          "index": "Index of the pooled token",
          "self": "Swap struct to read from"
        },
        "returns": {
          "_0": "admin balance in the token's precision"
        }
      },
      "getDepositTimestamp(EvmoSwapUtils.Swap storage,address)": {
        "params": {
          "self": "Swap struct to read from"
        },
        "returns": {
          "_0": "timestamp of last deposit"
        }
      },
      "getVirtualPrice(EvmoSwapUtils.Swap storage)": {
        "params": {
          "self": "Swap struct to read from"
        },
        "returns": {
          "_0": "the virtual price, scaled to precision of POOL_PRECISION_DECIMALS"
        }
      },
      "rampA(EvmoSwapUtils.Swap storage,uint256,uint256)": {
        "params": {
          "futureA_": "the new A to ramp towards",
          "futureTime_": "timestamp when the new A should be reached",
          "self": "Swap struct to update"
        }
      },
      "removeLiquidity(EvmoSwapUtils.Swap storage,uint256,uint256[])": {
        "details": "Liquidity can always be removed, even when the pool is paused.",
        "params": {
          "amount": "the amount of LP tokens to burn",
          "minAmounts": "the minimum amounts of each token in the pool acceptable for this burn. Useful as a front-running mitigation",
          "self": "Swap struct to read from and write to"
        },
        "returns": {
          "_0": "amounts of tokens the user received"
        }
      },
      "removeLiquidityImbalance(EvmoSwapUtils.Swap storage,uint256[],uint256)": {
        "params": {
          "amounts": "how much of each token to withdraw",
          "maxBurnAmount": "the max LP token provider is willing to pay to remove liquidity. Useful as a front-running mitigation.",
          "self": "Swap struct to read from and write to"
        },
        "returns": {
          "_0": "actual amount of LP tokens burned in the withdrawal"
        }
      },
      "removeLiquidityOneToken(EvmoSwapUtils.Swap storage,uint256,uint8,uint256)": {
        "params": {
          "minAmount": "the minimum amount to withdraw, otherwise revert",
          "self": "Swap struct to read from and write to",
          "tokenAmount": "the amount of the lp tokens to burn",
          "tokenIndex": "the index of the token you want to receive"
        },
        "returns": {
          "_0": "amount chosen token that user received"
        }
      },
      "setAdminFee(EvmoSwapUtils.Swap storage,uint256)": {
        "details": "adminFee cannot be higher than 100% of the swap fee",
        "params": {
          "newAdminFee": "new admin fee to be applied on future transactions",
          "self": "Swap struct to update"
        }
      },
      "setDefaultDepositFee(EvmoSwapUtils.Swap storage,uint256)": {
        "params": {
          "newDepositFee": "new deposit fee to be applied",
          "self": "Swap struct to update"
        }
      },
      "setDefaultWithdrawFee(EvmoSwapUtils.Swap storage,uint256)": {
        "params": {
          "newWithdrawFee": "new withdraw fee to be applied",
          "self": "Swap struct to update"
        }
      },
      "setSwapFee(EvmoSwapUtils.Swap storage,uint256)": {
        "details": "fee cannot be higher than 1% of each swap",
        "params": {
          "newSwapFee": "new swap fee to be applied on future transactions",
          "self": "Swap struct to update"
        }
      },
      "stopRampA(EvmoSwapUtils.Swap storage)": {
        "params": {
          "self": "Swap struct to update"
        }
      },
      "swap(EvmoSwapUtils.Swap storage,uint8,uint8,uint256,uint256)": {
        "params": {
          "dx": "the amount of tokens the user wants to sell",
          "minDy": "the min amount the user would like to receive, or revert.",
          "self": "Swap struct to read from and write to",
          "tokenIndexFrom": "the token the user wants to sell",
          "tokenIndexTo": "the token the user wants to buy"
        },
        "returns": {
          "_0": "amount of token user received on swap"
        }
      },
      "updateUserWithdrawFee(EvmoSwapUtils.Swap storage,address,uint256)": {
        "params": {
          "self": "Swap struct to read from and write to",
          "toMint": "amount of pool tokens to be minted",
          "user": "address of the user depositing tokens"
        }
      },
      "withdrawAdminFees(EvmoSwapUtils.Swap storage,address)": {
        "params": {
          "self": "Swap struct to withdraw fees from",
          "to": "Address to send the fees to"
        }
      }
    },
    "title": "SwapUtils library",
    "version": 1
  },
  "userdoc": {
    "kind": "user",
    "methods": {
      "addLiquidity(EvmoSwapUtils.Swap storage,uint256[],uint256)": {
        "notice": "Add liquidity to the pool"
      },
      "calculateCurrentWithdrawFee(EvmoSwapUtils.Swap storage,address)": {
        "notice": "Calculate the fee that is applied when the given user withdraws. Withdraw fee decays linearly over 4 weeks."
      },
      "calculateRemoveLiquidity(EvmoSwapUtils.Swap storage,address,uint256)": {
        "notice": "A simple method to calculate amount of each underlying tokens that is returned upon burning given amount of LP tokens"
      },
      "calculateSwap(EvmoSwapUtils.Swap storage,uint8,uint8,uint256)": {
        "notice": "Externally calculates a swap between two tokens."
      },
      "calculateTokenAmount(EvmoSwapUtils.Swap storage,address,uint256[],bool)": {
        "notice": "A simple method to calculate prices from deposits or withdrawals, excluding fees but including slippage. This is helpful as an input into the various \"min\" parameters on calls to fight front-running"
      },
      "calculateWithdrawOneToken(EvmoSwapUtils.Swap storage,address,uint256,uint8)": {
        "notice": "Calculate the dy, the amount of selected token that user receives and the fee of withdrawing in one token"
      },
      "getA(EvmoSwapUtils.Swap storage)": {
        "notice": "Return A, the amplification coefficient * n * (n - 1)"
      },
      "getAPrecise(EvmoSwapUtils.Swap storage)": {
        "notice": "Return A in its raw precision"
      },
      "getAdminBalance(EvmoSwapUtils.Swap storage,uint256)": {
        "notice": "return accumulated amount of admin fees of the token with given index"
      },
      "getDepositTimestamp(EvmoSwapUtils.Swap storage,address)": {
        "notice": "Retrieves the timestamp of last deposit made by the given address"
      },
      "getVirtualPrice(EvmoSwapUtils.Swap storage)": {
        "notice": "Get the virtual price, to help calculate profit"
      },
      "rampA(EvmoSwapUtils.Swap storage,uint256,uint256)": {
        "notice": "Start ramping up or down A parameter towards given futureA_ and futureTime_ Checks if the change is too rapid, and commits the new A value only when it falls under the limit range."
      },
      "removeLiquidity(EvmoSwapUtils.Swap storage,uint256,uint256[])": {
        "notice": "Burn LP tokens to remove liquidity from the pool."
      },
      "removeLiquidityImbalance(EvmoSwapUtils.Swap storage,uint256[],uint256)": {
        "notice": "Remove liquidity from the pool, weighted differently than the pool's current balances."
      },
      "removeLiquidityOneToken(EvmoSwapUtils.Swap storage,uint256,uint8,uint256)": {
        "notice": "Remove liquidity from the pool all in one token."
      },
      "setAdminFee(EvmoSwapUtils.Swap storage,uint256)": {
        "notice": "Sets the admin fee"
      },
      "setDefaultDepositFee(EvmoSwapUtils.Swap storage,uint256)": {
        "notice": "update the default deposit fee. "
      },
      "setDefaultWithdrawFee(EvmoSwapUtils.Swap storage,uint256)": {
        "notice": "update the default withdraw fee. This also affects deposits made in the past as well."
      },
      "setSwapFee(EvmoSwapUtils.Swap storage,uint256)": {
        "notice": "update the swap fee"
      },
      "stopRampA(EvmoSwapUtils.Swap storage)": {
        "notice": "Stops ramping A immediately. Once this function is called, rampA() cannot be called for another 24 hours"
      },
      "swap(EvmoSwapUtils.Swap storage,uint8,uint8,uint256,uint256)": {
        "notice": "swap two tokens in the pool"
      },
      "updateUserWithdrawFee(EvmoSwapUtils.Swap storage,address,uint256)": {
        "notice": "Update the withdraw fee for `user`. If the user is currently not providing liquidity in the pool, sets to default value. If not, recalculate the starting withdraw fee based on the last deposit's time & amount relative to the new deposit."
      },
      "withdrawAdminFees(EvmoSwapUtils.Swap storage,address)": {
        "notice": "withdraw all admin fees to a given address"
      }
    },
    "notice": "A library to be used within Swap.sol. Contains functions responsible for custody and AMM functionalities.",
    "version": 1
  },
  "storageLayout": {
    "storage": [],
    "types": null
  }
}