{
  "address": "0xA75C39e6e439E489Cc583b9715193a47382C07Ad",
  "abi": [
    {
      "inputs": [],
      "stateMutability": "nonpayable",
      "type": "constructor"
    },
    {
      "anonymous": false,
      "inputs": [
        {
          "indexed": true,
          "internalType": "address",
          "name": "owner",
          "type": "address"
        },
        {
          "indexed": true,
          "internalType": "address",
          "name": "spender",
          "type": "address"
        },
        {
          "indexed": false,
          "internalType": "uint256",
          "name": "value",
          "type": "uint256"
        }
      ],
      "name": "Approval",
      "type": "event"
    },
    {
      "anonymous": false,
      "inputs": [
        {
          "indexed": true,
          "internalType": "address",
          "name": "previousOwner",
          "type": "address"
        },
        {
          "indexed": true,
          "internalType": "address",
          "name": "newOwner",
          "type": "address"
        }
      ],
      "name": "OwnershipTransferred",
      "type": "event"
    },
    {
      "anonymous": false,
      "inputs": [
        {
          "indexed": true,
          "internalType": "address",
          "name": "from",
          "type": "address"
        },
        {
          "indexed": true,
          "internalType": "address",
          "name": "to",
          "type": "address"
        },
        {
          "indexed": false,
          "internalType": "uint256",
          "name": "value",
          "type": "uint256"
        }
      ],
      "name": "Transfer",
      "type": "event"
    },
    {
      "anonymous": false,
      "inputs": [
        {
          "indexed": false,
          "internalType": "uint256",
          "name": "previousTaxFee",
          "type": "uint256"
        },
        {
          "indexed": false,
          "internalType": "uint256",
          "name": "newTaxFee",
          "type": "uint256"
        }
      ],
      "name": "UpdateTaxFee",
      "type": "event"
    },
    {
      "inputs": [
        {
          "internalType": "address",
          "name": "owner",
          "type": "address"
        },
        {
          "internalType": "address",
          "name": "spender",
          "type": "address"
        }
      ],
      "name": "allowance",
      "outputs": [
        {
          "internalType": "uint256",
          "name": "",
          "type": "uint256"
        }
      ],
      "stateMutability": "view",
      "type": "function"
    },
    {
      "inputs": [
        {
          "internalType": "address",
          "name": "spender",
          "type": "address"
        },
        {
          "internalType": "uint256",
          "name": "amount",
          "type": "uint256"
        }
      ],
      "name": "approve",
      "outputs": [
        {
          "internalType": "bool",
          "name": "",
          "type": "bool"
        }
      ],
      "stateMutability": "nonpayable",
      "type": "function"
    },
    {
      "inputs": [
        {
          "internalType": "address",
          "name": "account",
          "type": "address"
        }
      ],
      "name": "balanceOf",
      "outputs": [
        {
          "internalType": "uint256",
          "name": "",
          "type": "uint256"
        }
      ],
      "stateMutability": "view",
      "type": "function"
    },
    {
      "inputs": [],
      "name": "decimals",
      "outputs": [
        {
          "internalType": "uint8",
          "name": "",
          "type": "uint8"
        }
      ],
      "stateMutability": "view",
      "type": "function"
    },
    {
      "inputs": [
        {
          "internalType": "address",
          "name": "spender",
          "type": "address"
        },
        {
          "internalType": "uint256",
          "name": "subtractedValue",
          "type": "uint256"
        }
      ],
      "name": "decreaseAllowance",
      "outputs": [
        {
          "internalType": "bool",
          "name": "",
          "type": "bool"
        }
      ],
      "stateMutability": "nonpayable",
      "type": "function"
    },
    {
      "inputs": [
        {
          "internalType": "address",
          "name": "account",
          "type": "address"
        }
      ],
      "name": "excludeAccount",
      "outputs": [],
      "stateMutability": "nonpayable",
      "type": "function"
    },
    {
      "inputs": [
        {
          "internalType": "address",
          "name": "account",
          "type": "address"
        }
      ],
      "name": "includeAccount",
      "outputs": [],
      "stateMutability": "nonpayable",
      "type": "function"
    },
    {
      "inputs": [
        {
          "internalType": "address",
          "name": "spender",
          "type": "address"
        },
        {
          "internalType": "uint256",
          "name": "addedValue",
          "type": "uint256"
        }
      ],
      "name": "increaseAllowance",
      "outputs": [
        {
          "internalType": "bool",
          "name": "",
          "type": "bool"
        }
      ],
      "stateMutability": "nonpayable",
      "type": "function"
    },
    {
      "inputs": [
        {
          "internalType": "address",
          "name": "account",
          "type": "address"
        }
      ],
      "name": "isExcluded",
      "outputs": [
        {
          "internalType": "bool",
          "name": "",
          "type": "bool"
        }
      ],
      "stateMutability": "view",
      "type": "function"
    },
    {
      "inputs": [],
      "name": "maxTaxFee",
      "outputs": [
        {
          "internalType": "uint256",
          "name": "",
          "type": "uint256"
        }
      ],
      "stateMutability": "view",
      "type": "function"
    },
    {
      "inputs": [],
      "name": "name",
      "outputs": [
        {
          "internalType": "string",
          "name": "",
          "type": "string"
        }
      ],
      "stateMutability": "view",
      "type": "function"
    },
    {
      "inputs": [],
      "name": "owner",
      "outputs": [
        {
          "internalType": "address",
          "name": "",
          "type": "address"
        }
      ],
      "stateMutability": "view",
      "type": "function"
    },
    {
      "inputs": [
        {
          "internalType": "uint256",
          "name": "tAmount",
          "type": "uint256"
        }
      ],
      "name": "reflect",
      "outputs": [],
      "stateMutability": "nonpayable",
      "type": "function"
    },
    {
      "inputs": [
        {
          "internalType": "uint256",
          "name": "tAmount",
          "type": "uint256"
        },
        {
          "internalType": "bool",
          "name": "deductTransferFee",
          "type": "bool"
        }
      ],
      "name": "reflectionFromToken",
      "outputs": [
        {
          "internalType": "uint256",
          "name": "",
          "type": "uint256"
        }
      ],
      "stateMutability": "view",
      "type": "function"
    },
    {
      "inputs": [],
      "name": "renounceOwnership",
      "outputs": [],
      "stateMutability": "nonpayable",
      "type": "function"
    },
    {
      "inputs": [],
      "name": "symbol",
      "outputs": [
        {
          "internalType": "string",
          "name": "",
          "type": "string"
        }
      ],
      "stateMutability": "view",
      "type": "function"
    },
    {
      "inputs": [],
      "name": "taxFee",
      "outputs": [
        {
          "internalType": "uint256",
          "name": "",
          "type": "uint256"
        }
      ],
      "stateMutability": "view",
      "type": "function"
    },
    {
      "inputs": [
        {
          "internalType": "uint256",
          "name": "rAmount",
          "type": "uint256"
        }
      ],
      "name": "tokenFromReflection",
      "outputs": [
        {
          "internalType": "uint256",
          "name": "",
          "type": "uint256"
        }
      ],
      "stateMutability": "view",
      "type": "function"
    },
    {
      "inputs": [],
      "name": "totalFees",
      "outputs": [
        {
          "internalType": "uint256",
          "name": "",
          "type": "uint256"
        }
      ],
      "stateMutability": "view",
      "type": "function"
    },
    {
      "inputs": [],
      "name": "totalSupply",
      "outputs": [
        {
          "internalType": "uint256",
          "name": "",
          "type": "uint256"
        }
      ],
      "stateMutability": "view",
      "type": "function"
    },
    {
      "inputs": [
        {
          "internalType": "address",
          "name": "recipient",
          "type": "address"
        },
        {
          "internalType": "uint256",
          "name": "amount",
          "type": "uint256"
        }
      ],
      "name": "transfer",
      "outputs": [
        {
          "internalType": "bool",
          "name": "",
          "type": "bool"
        }
      ],
      "stateMutability": "nonpayable",
      "type": "function"
    },
    {
      "inputs": [
        {
          "internalType": "address",
          "name": "sender",
          "type": "address"
        },
        {
          "internalType": "address",
          "name": "recipient",
          "type": "address"
        },
        {
          "internalType": "uint256",
          "name": "amount",
          "type": "uint256"
        }
      ],
      "name": "transferFrom",
      "outputs": [
        {
          "internalType": "bool",
          "name": "",
          "type": "bool"
        }
      ],
      "stateMutability": "nonpayable",
      "type": "function"
    },
    {
      "inputs": [
        {
          "internalType": "address",
          "name": "newOwner",
          "type": "address"
        }
      ],
      "name": "transferOwnership",
      "outputs": [],
      "stateMutability": "nonpayable",
      "type": "function"
    },
    {
      "inputs": [
        {
          "internalType": "uint256",
          "name": "_fee",
          "type": "uint256"
        }
      ],
      "name": "updateTaxFee",
      "outputs": [],
      "stateMutability": "nonpayable",
      "type": "function"
    }
  ],
  "transactionHash": "0x09e3587997911488676b0f6b24585b5b352d81acdb3a8ee97bbaa43bc19ae779",
  "args": [],
  "numDeployments": 1,
  "solcInputHash": "c66a74bff588da8bec423900f4bec4f1",
  "bytecode": "0x608060405260c86009556103e8600a553480156200001c57600080fd5b506b019d971e4fe8401e740000006040518060400160405280600d81526020016c23b2b69022a6a7902a37b5b2b760991b8152506040518060400160405280600481526020016347454d4f60e01b815250601260c8600062000083620001af60201b60201c565b600080546001600160a01b0319166001600160a01b0383169081178255604051929350917f8be0079c531659141344cd1fd0a4f28419497f9722a3daafe3b4186f6b6457e0908290a3508351620000e2906006906020870190620001b3565b508251620000f8906007906020860190620001b3565b506008805460ff191660ff84161790556009819055600b85905584600019816200011e57fe5b0619600c8190556001600062000133620001af565b6001600160a01b0316815260208101919091526040016000205562000157620001af565b6001600160a01b031660006001600160a01b03167fddf252ad1be2c89b69c2b068fc378daa952ba7f163c4a11628f55a4df523b3ef600b546040518082815260200191505060405180910390a350505050506200024f565b3390565b828054600181600116156101000203166002900490600052602060002090601f016020900481019282601f10620001f657805160ff191683800117855562000226565b8280016001018555821562000226579182015b828111156200022657825182559160200191906001019062000209565b506200023492915062000238565b5090565b5b8082111562000234576000815560010162000239565b611b77806200025f6000396000f3fe608060405234801561001057600080fd5b50600436106101585760003560e01c80638da5cb5b116100c3578063c7992f9a1161007c578063c7992f9a146103f4578063cba0e996146103fc578063dd62ed3e14610422578063f2cc0c1814610450578063f2fde38b14610476578063f84354f11461049c57610158565b80638da5cb5b1461034b57806395d89b411461036f578063a071dcf414610377578063a457c2d71461037f578063a9059cbb146103ab578063b5505335146103d757610158565b80632d838119116101155780632d83811914610291578063313ce567146102ae57806339509351146102cc5780634549b039146102f857806370a082311461031d578063715018a61461034357610158565b8063053ab1821461015d57806306fdde031461017c578063095ea7b3146101f957806313114a9d1461023957806318160ddd1461025357806323b872dd1461025b575b600080fd5b61017a6004803603602081101561017357600080fd5b50356104c2565b005b61018461059a565b6040805160208082528351818301528351919283929083019185019080838360005b838110156101be5781810151838201526020016101a6565b50505050905090810190601f1680156101eb5780820380516001836020036101000a031916815260200191505b509250505060405180910390f35b6102256004803603604081101561020f57600080fd5b506001600160a01b038135169060200135610630565b604080519115158252519081900360200190f35b61024161064e565b60408051918252519081900360200190f35b610241610654565b6102256004803603606081101561027157600080fd5b506001600160a01b0381358116916020810135909116906040013561065a565b610241600480360360208110156102a757600080fd5b50356106e1565b6102b6610743565b6040805160ff9092168252519081900360200190f35b610225600480360360408110156102e257600080fd5b506001600160a01b03813516906020013561074c565b6102416004803603604081101561030e57600080fd5b5080359060200135151561079a565b6102416004803603602081101561033357600080fd5b50356001600160a01b031661081c565b61017a61087e565b61035361092a565b604080516001600160a01b039092168252519081900360200190f35b610184610939565b61024161099a565b6102256004803603604081101561039557600080fd5b506001600160a01b0381351690602001356109a0565b610225600480360360408110156103c157600080fd5b506001600160a01b038135169060200135610a08565b61017a600480360360208110156103ed57600080fd5b5035610a1c565b610241610b1c565b6102256004803603602081101561041257600080fd5b50356001600160a01b0316610b22565b6102416004803603604081101561043857600080fd5b506001600160a01b0381358116916020013516610b40565b61017a6004803603602081101561046657600080fd5b50356001600160a01b0316610b6b565b61017a6004803603602081101561048c57600080fd5b50356001600160a01b0316610cfb565b61017a600480360360208110156104b257600080fd5b50356001600160a01b0316610dfd565b60006104cc610fc8565b6001600160a01b03811660009081526004602052604090205490915060ff16156105275760405162461bcd60e51b815260040180806020018281038252602c815260200180611af1602c913960400191505060405180910390fd5b600061053283610fcc565b505050506001600160a01b03831660009081526001602052604090205490915061055c9082611018565b6001600160a01b038316600090815260016020526040902055600c546105829082611018565b600c55600d546105929084611075565b600d55505050565b60068054604080516020601f60026000196101006001881615020190951694909404938401819004810282018101909252828152606093909290918301828280156106265780601f106105fb57610100808354040283529160200191610626565b820191906000526020600020905b81548152906001019060200180831161060957829003601f168201915b5050505050905090565b600061064461063d610fc8565b84846110d6565b5060015b92915050565b600d5490565b600b5490565b60006106678484846111c2565b6106d784610673610fc8565b6106d285604051806060016040528060288152602001611a37602891396001600160a01b038a166000908152600360205260408120906106b1610fc8565b6001600160a01b031681526020810191909152604001600020549190611392565b6110d6565b5060019392505050565b6000600c548211156107245760405162461bcd60e51b815260040180806020018281038252602a8152602001806119a4602a913960400191505060405180910390fd5b600061072e611429565b905061073a838261144c565b9150505b919050565b60085460ff1690565b6000610644610759610fc8565b846106d2856003600061076a610fc8565b6001600160a01b03908116825260208083019390935260409182016000908120918c168152925290205490611075565b6000600b548311156107f3576040805162461bcd60e51b815260206004820152601f60248201527f416d6f756e74206d757374206265206c657373207468616e20737570706c7900604482015290519081900360640190fd5b6000806107ff85610fcc565b50505091509150836108115781610813565b805b95945050505050565b6001600160a01b03811660009081526004602052604081205460ff161561085c57506001600160a01b03811660009081526002602052604090205461073e565b6001600160a01b038216600090815260016020526040902054610648906106e1565b610886610fc8565b6001600160a01b031661089761092a565b6001600160a01b0316146108e0576040805162461bcd60e51b81526020600482018190526024820152600080516020611a5f833981519152604482015290519081900360640190fd5b600080546040516001600160a01b03909116907f8be0079c531659141344cd1fd0a4f28419497f9722a3daafe3b4186f6b6457e0908390a3600080546001600160a01b0319169055565b6000546001600160a01b031690565b60078054604080516020601f60026000196101006001881615020190951694909404938401819004810282018101909252828152606093909290918301828280156106265780601f106105fb57610100808354040283529160200191610626565b60095490565b60006106446109ad610fc8565b846106d285604051806060016040528060258152602001611b1d60259139600360006109d7610fc8565b6001600160a01b03908116825260208083019390935260409182016000908120918d16815292529020549190611392565b6000610644610a15610fc8565b84846111c2565b610a24610fc8565b6001600160a01b0316610a3561092a565b6001600160a01b031614610a7e576040805162461bcd60e51b81526020600482018190526024820152600080516020611a5f833981519152604482015290519081900360640190fd5b600a54811115610ad5576040805162461bcd60e51b815260206004820152601f60248201527f666565206d757374206265206d657373207468616e206d617854617846656500604482015290519081900360640190fd5b6009805490829055604080518281526020810184905281517f3bd44ad33925c1a81e6dea38583782e35a5124cee2473f5fe16d366f0ad0d6b6929181900390910190a15050565b600a5490565b6001600160a01b031660009081526004602052604090205460ff1690565b6001600160a01b03918216600090815260036020908152604080832093909416825291909152205490565b610b73610fc8565b6001600160a01b0316610b8461092a565b6001600160a01b031614610bcd576040805162461bcd60e51b81526020600482018190526024820152600080516020611a5f833981519152604482015290519081900360640190fd5b6001600160a01b03811660009081526004602052604090205460ff1615610c3b576040805162461bcd60e51b815260206004820152601b60248201527f4163636f756e7420697320616c7265616479206578636c756465640000000000604482015290519081900360640190fd5b6001600160a01b03811660009081526001602052604090205415610c95576001600160a01b038116600090815260016020526040902054610c7b906106e1565b6001600160a01b0382166000908152600260205260409020555b6001600160a01b03166000818152600460205260408120805460ff191660019081179091556005805491820181559091527f036b6384b5eca791c62761152d0c79bb0604c104a5fb6f4eb0703f3154bb3db00180546001600160a01b0319169091179055565b610d03610fc8565b6001600160a01b0316610d1461092a565b6001600160a01b031614610d5d576040805162461bcd60e51b81526020600482018190526024820152600080516020611a5f833981519152604482015290519081900360640190fd5b6001600160a01b038116610da25760405162461bcd60e51b81526004018080602001828103825260268152602001806119ce6026913960400191505060405180910390fd5b600080546040516001600160a01b03808516939216917f8be0079c531659141344cd1fd0a4f28419497f9722a3daafe3b4186f6b6457e091a3600080546001600160a01b0319166001600160a01b0392909216919091179055565b610e05610fc8565b6001600160a01b0316610e1661092a565b6001600160a01b031614610e5f576040805162461bcd60e51b81526020600482018190526024820152600080516020611a5f833981519152604482015290519081900360640190fd5b6001600160a01b03811660009081526004602052604090205460ff16610ecc576040805162461bcd60e51b815260206004820152601b60248201527f4163636f756e7420697320616c7265616479206578636c756465640000000000604482015290519081900360640190fd5b60005b600554811015610fc457816001600160a01b031660058281548110610ef057fe5b6000918252602090912001546001600160a01b03161415610fbc57600580546000198101908110610f1d57fe5b600091825260209091200154600580546001600160a01b039092169183908110610f4357fe5b600091825260208083209190910180546001600160a01b0319166001600160a01b039485161790559184168152600282526040808220829055600490925220805460ff191690556005805480610f9557fe5b600082815260209020810160001990810180546001600160a01b0319169055019055610fc4565b600101610ecf565b5050565b3390565b6000806000806000806000610fe0886114b3565b915091506000610fee611429565b905060008060006110008c86866114f6565b919e909d50909b509599509397509395505050505050565b60008282111561106f576040805162461bcd60e51b815260206004820152601e60248201527f536166654d6174683a207375627472616374696f6e206f766572666c6f770000604482015290519081900360640190fd5b50900390565b6000828201838110156110cf576040805162461bcd60e51b815260206004820152601b60248201527f536166654d6174683a206164646974696f6e206f766572666c6f770000000000604482015290519081900360640190fd5b9392505050565b6001600160a01b03831661111b5760405162461bcd60e51b8152600401808060200182810382526024815260200180611acd6024913960400191505060405180910390fd5b6001600160a01b0382166111605760405162461bcd60e51b81526004018080602001828103825260228152602001806119f46022913960400191505060405180910390fd5b6001600160a01b03808416600081815260036020908152604080832094871680845294825291829020859055815185815291517f8c5be1e5ebec7d5bd14f71427d1e84f3dd0314c0f7b2291e5b200ac8c7c3b9259281900390910190a3505050565b6001600160a01b0383166112075760405162461bcd60e51b8152600401808060200182810382526025815260200180611aa86025913960400191505060405180910390fd5b6001600160a01b03821661124c5760405162461bcd60e51b81526004018080602001828103825260238152602001806119816023913960400191505060405180910390fd5b6000811161128b5760405162461bcd60e51b8152600401808060200182810382526029815260200180611a7f6029913960400191505060405180910390fd5b6001600160a01b03831660009081526004602052604090205460ff1680156112cc57506001600160a01b03821660009081526004602052604090205460ff16155b156112e1576112dc838383611532565b61138d565b6001600160a01b03831660009081526004602052604090205460ff1615801561132257506001600160a01b03821660009081526004602052604090205460ff165b15611332576112dc838383611649565b6001600160a01b03831660009081526004602052604090205460ff16801561137257506001600160a01b03821660009081526004602052604090205460ff165b15611382576112dc8383836116ef565b61138d83838361175f565b505050565b600081848411156114215760405162461bcd60e51b81526004018080602001828103825283818151815260200191508051906020019080838360005b838110156113e65781810151838201526020016113ce565b50505050905090810190601f1680156114135780820380516001836020036101000a031916815260200191505b509250505060405180910390fd5b505050900390565b60008060006114366117a0565b9092509050611445828261144c565b9250505090565b60008082116114a2576040805162461bcd60e51b815260206004820152601a60248201527f536166654d6174683a206469766973696f6e206279207a65726f000000000000604482015290519081900360640190fd5b8183816114ab57fe5b049392505050565b60008060006114dd60646114d760646114d76009548961190390919063ffffffff16565b9061144c565b905060006114eb8583611018565b935090915050915091565b60008080806115058786611903565b905060006115138787611903565b905060006115218383611018565b929992985090965090945050505050565b600080600080600061154386610fcc565b6001600160a01b038d16600090815260026020526040902054949950929750909550935091506115739087611018565b6001600160a01b0389166000908152600260209081526040808320939093556001905220546115a29086611018565b6001600160a01b03808a1660009081526001602052604080822093909355908916815220546115d19085611075565b6001600160a01b0388166000908152600160205260409020556115f4838261195c565b866001600160a01b0316886001600160a01b03167fddf252ad1be2c89b69c2b068fc378daa952ba7f163c4a11628f55a4df523b3ef846040518082815260200191505060405180910390a35050505050505050565b600080600080600061165a86610fcc565b6001600160a01b038d166000908152600160205260409020549499509297509095509350915061168a9086611018565b6001600160a01b03808a16600090815260016020908152604080832094909455918a168152600290915220546116c09083611075565b6001600160a01b0388166000908152600260209081526040808320939093556001905220546115d19085611075565b600080600080600061170086610fcc565b6001600160a01b038d16600090815260026020526040902054949950929750909550935091506117309087611018565b6001600160a01b03891660009081526002602090815260408083209390935560019052205461168a9086611018565b600080600080600061177086610fcc565b6001600160a01b038d16600090815260016020526040902054949950929750909550935091506115a29086611018565b600c54600b546000918291825b6005548110156118d1578260016000600584815481106117c957fe5b60009182526020808320909101546001600160a01b03168352820192909252604001902054118061182e575081600260006005848154811061180757fe5b60009182526020808320909101546001600160a01b03168352820192909252604001902054115b1561184557600c54600b54945094505050506118ff565b611885600160006005848154811061185957fe5b60009182526020808320909101546001600160a01b031683528201929092526040019020548490611018565b92506118c7600260006005848154811061189b57fe5b60009182526020808320909101546001600160a01b031683528201929092526040019020548390611018565b91506001016117ad565b50600b54600c546118e19161144c565b8210156118f957600c54600b549350935050506118ff565b90925090505b9091565b60008261191257506000610648565b8282028284828161191f57fe5b04146110cf5760405162461bcd60e51b8152600401808060200182810382526021815260200180611a166021913960400191505060405180910390fd5b600c546119699083611018565b600c55600d546119799082611075565b600d55505056fe45524332303a207472616e7366657220746f20746865207a65726f2061646472657373416d6f756e74206d757374206265206c657373207468616e20746f74616c207265666c656374696f6e734f776e61626c653a206e6577206f776e657220697320746865207a65726f206164647265737345524332303a20617070726f766520746f20746865207a65726f2061646472657373536166654d6174683a206d756c7469706c69636174696f6e206f766572666c6f7745524332303a207472616e7366657220616d6f756e74206578636565647320616c6c6f77616e63654f776e61626c653a2063616c6c6572206973206e6f7420746865206f776e65725472616e7366657220616d6f756e74206d7573742062652067726561746572207468616e207a65726f45524332303a207472616e736665722066726f6d20746865207a65726f206164647265737345524332303a20617070726f76652066726f6d20746865207a65726f20616464726573734578636c75646564206164647265737365732063616e6e6f742063616c6c20746869732066756e6374696f6e45524332303a2064656372656173656420616c6c6f77616e63652062656c6f77207a65726fa26469706673582212201bc45f89da49d7edfbcd316993422a273120bcbc7858b89e293deeefe4a0b41b64736f6c634300060c0033",
  "devdoc": {
    "kind": "dev",
    "methods": {
      "allowance(address,address)": {
        "details": "Returns the remaining number of tokens that `spender` will be allowed to spend on behalf of `owner` through {transferFrom}. This is zero by default. This value changes when {approve} or {transferFrom} are called."
      },
      "approve(address,uint256)": {
        "details": "Sets `amount` as the allowance of `spender` over the caller's tokens. Returns a boolean value indicating whether the operation succeeded. IMPORTANT: Beware that changing an allowance with this method brings the risk that someone may use both the old and the new allowance by unfortunate transaction ordering. One possible solution to mitigate this race condition is to first reduce the spender's allowance to 0 and set the desired value afterwards: https://github.com/ethereum/EIPs/issues/20#issuecomment-263524729 Emits an {Approval} event."
      },
      "balanceOf(address)": {
        "details": "Returns the amount of tokens owned by `account`."
      },
      "owner()": {
        "details": "Returns the address of the current owner."
      },
      "renounceOwnership()": {
        "details": "Leaves the contract without owner. It will not be possible to call `onlyOwner` functions anymore. Can only be called by the current owner. NOTE: Renouncing ownership will leave the contract without an owner, thereby removing any functionality that is only available to the owner."
      },
      "totalSupply()": {
        "details": "Returns the amount of tokens in existence."
      },
      "transfer(address,uint256)": {
        "details": "Moves `amount` tokens from the caller's account to `recipient`. Returns a boolean value indicating whether the operation succeeded. Emits a {Transfer} event."
      },
      "transferFrom(address,address,uint256)": {
        "details": "Moves `amount` tokens from `sender` to `recipient` using the allowance mechanism. `amount` is then deducted from the caller's allowance. Returns a boolean value indicating whether the operation succeeded. Emits a {Transfer} event."
      },
      "transferOwnership(address)": {
        "details": "Transfers ownership of the contract to a new account (`newOwner`). Can only be called by the current owner."
      }
    },
    "version": 1
  },
  "userdoc": {
    "kind": "user",
    "methods": {},
    "version": 1
  },
  "storageLayout": {
    "storage": [
      {
        "astId": 10,
        "contract": "contracts/gemo/GemEMO.sol:GemEMO",
        "label": "_owner",
        "offset": 0,
        "slot": "0",
        "type": "t_address"
      },
      {
        "astId": 2376,
        "contract": "contracts/gemo/GemEMO.sol:GemEMO",
        "label": "_rOwned",
        "offset": 0,
        "slot": "1",
        "type": "t_mapping(t_address,t_uint256)"
      },
      {
        "astId": 2380,
        "contract": "contracts/gemo/GemEMO.sol:GemEMO",
        "label": "_tOwned",
        "offset": 0,
        "slot": "2",
        "type": "t_mapping(t_address,t_uint256)"
      },
      {
        "astId": 2386,
        "contract": "contracts/gemo/GemEMO.sol:GemEMO",
        "label": "_allowances",
        "offset": 0,
        "slot": "3",
        "type": "t_mapping(t_address,t_mapping(t_address,t_uint256))"
      },
      {
        "astId": 2390,
        "contract": "contracts/gemo/GemEMO.sol:GemEMO",
        "label": "_isExcluded",
        "offset": 0,
        "slot": "4",
        "type": "t_mapping(t_address,t_bool)"
      },
      {
        "astId": 2393,
        "contract": "contracts/gemo/GemEMO.sol:GemEMO",
        "label": "_excluded",
        "offset": 0,
        "slot": "5",
        "type": "t_array(t_address)dyn_storage"
      },
      {
        "astId": 2395,
        "contract": "contracts/gemo/GemEMO.sol:GemEMO",
        "label": "_name",
        "offset": 0,
        "slot": "6",
        "type": "t_string_storage"
      },
      {
        "astId": 2397,
        "contract": "contracts/gemo/GemEMO.sol:GemEMO",
        "label": "_symbol",
        "offset": 0,
        "slot": "7",
        "type": "t_string_storage"
      },
      {
        "astId": 2399,
        "contract": "contracts/gemo/GemEMO.sol:GemEMO",
        "label": "_decimals",
        "offset": 0,
        "slot": "8",
        "type": "t_uint8"
      },
      {
        "astId": 2402,
        "contract": "contracts/gemo/GemEMO.sol:GemEMO",
        "label": "_taxFee",
        "offset": 0,
        "slot": "9",
        "type": "t_uint256"
      },
      {
        "astId": 2405,
        "contract": "contracts/gemo/GemEMO.sol:GemEMO",
        "label": "_maxTaxFee",
        "offset": 0,
        "slot": "10",
        "type": "t_uint256"
      },
      {
        "astId": 2417,
        "contract": "contracts/gemo/GemEMO.sol:GemEMO",
        "label": "_tTotal",
        "offset": 0,
        "slot": "11",
        "type": "t_uint256"
      },
      {
        "astId": 2419,
        "contract": "contracts/gemo/GemEMO.sol:GemEMO",
        "label": "_rTotal",
        "offset": 0,
        "slot": "12",
        "type": "t_uint256"
      },
      {
        "astId": 2421,
        "contract": "contracts/gemo/GemEMO.sol:GemEMO",
        "label": "_tFeeTotal",
        "offset": 0,
        "slot": "13",
        "type": "t_uint256"
      }
    ],
    "types": {
      "t_address": {
        "encoding": "inplace",
        "label": "address",
        "numberOfBytes": "20"
      },
      "t_array(t_address)dyn_storage": {
        "base": "t_address",
        "encoding": "dynamic_array",
        "label": "address[]",
        "numberOfBytes": "32"
      },
      "t_bool": {
        "encoding": "inplace",
        "label": "bool",
        "numberOfBytes": "1"
      },
      "t_mapping(t_address,t_bool)": {
        "encoding": "mapping",
        "key": "t_address",
        "label": "mapping(address => bool)",
        "numberOfBytes": "32",
        "value": "t_bool"
      },
      "t_mapping(t_address,t_mapping(t_address,t_uint256))": {
        "encoding": "mapping",
        "key": "t_address",
        "label": "mapping(address => mapping(address => uint256))",
        "numberOfBytes": "32",
        "value": "t_mapping(t_address,t_uint256)"
      },
      "t_mapping(t_address,t_uint256)": {
        "encoding": "mapping",
        "key": "t_address",
        "label": "mapping(address => uint256)",
        "numberOfBytes": "32",
        "value": "t_uint256"
      },
      "t_string_storage": {
        "encoding": "bytes",
        "label": "string",
        "numberOfBytes": "32"
      },
      "t_uint256": {
        "encoding": "inplace",
        "label": "uint256",
        "numberOfBytes": "32"
      },
      "t_uint8": {
        "encoding": "inplace",
        "label": "uint8",
        "numberOfBytes": "1"
      }
    }
  }
}