{
  "address": "0xC2273621F3750dB0E6b4D8F66AF8B270E07Aa034",
  "abi": [
    {
      "inputs": [
        {
          "internalType": "contract ISwap",
          "name": "_baseSwap",
          "type": "address"
        },
        {
          "internalType": "contract IMetaSwap",
          "name": "_metaSwap",
          "type": "address"
        },
        {
          "internalType": "contract IERC20",
          "name": "_metaLPToken",
          "type": "address"
        }
      ],
      "stateMutability": "nonpayable",
      "type": "constructor"
    },
    {
      "inputs": [
        {
          "internalType": "uint256[]",
          "name": "amounts",
          "type": "uint256[]"
        },
        {
          "internalType": "uint256",
          "name": "minToMint",
          "type": "uint256"
        },
        {
          "internalType": "uint256",
          "name": "deadline",
          "type": "uint256"
        }
      ],
      "name": "addLiquidity",
      "outputs": [
        {
          "internalType": "uint256",
          "name": "",
          "type": "uint256"
        }
      ],
      "stateMutability": "nonpayable",
      "type": "function"
    },
    {
      "inputs": [],
      "name": "baseSwap",
      "outputs": [
        {
          "internalType": "contract ISwap",
          "name": "",
          "type": "address"
        }
      ],
      "stateMutability": "view",
      "type": "function"
    },
    {
      "inputs": [
        {
          "internalType": "uint256",
          "name": "",
          "type": "uint256"
        }
      ],
      "name": "baseTokens",
      "outputs": [
        {
          "internalType": "contract IERC20",
          "name": "",
          "type": "address"
        }
      ],
      "stateMutability": "view",
      "type": "function"
    },
    {
      "inputs": [
        {
          "internalType": "address",
          "name": "account",
          "type": "address"
        },
        {
          "internalType": "uint256",
          "name": "amount",
          "type": "uint256"
        }
      ],
      "name": "calculateRemoveLiquidity",
      "outputs": [
        {
          "internalType": "uint256[]",
          "name": "",
          "type": "uint256[]"
        }
      ],
      "stateMutability": "view",
      "type": "function"
    },
    {
      "inputs": [
        {
          "internalType": "address",
          "name": "account",
          "type": "address"
        },
        {
          "internalType": "uint256",
          "name": "tokenAmount",
          "type": "uint256"
        },
        {
          "internalType": "uint8",
          "name": "tokenIndex",
          "type": "uint8"
        }
      ],
      "name": "calculateRemoveLiquidityOneToken",
      "outputs": [
        {
          "internalType": "uint256",
          "name": "",
          "type": "uint256"
        }
      ],
      "stateMutability": "view",
      "type": "function"
    },
    {
      "inputs": [
        {
          "internalType": "uint8",
          "name": "tokenIndexFrom",
          "type": "uint8"
        },
        {
          "internalType": "uint8",
          "name": "tokenIndexTo",
          "type": "uint8"
        },
        {
          "internalType": "uint256",
          "name": "dx",
          "type": "uint256"
        }
      ],
      "name": "calculateSwap",
      "outputs": [
        {
          "internalType": "uint256",
          "name": "",
          "type": "uint256"
        }
      ],
      "stateMutability": "view",
      "type": "function"
    },
    {
      "inputs": [
        {
          "internalType": "address",
          "name": "account",
          "type": "address"
        },
        {
          "internalType": "uint256[]",
          "name": "amounts",
          "type": "uint256[]"
        },
        {
          "internalType": "bool",
          "name": "deposit",
          "type": "bool"
        }
      ],
      "name": "calculateTokenAmount",
      "outputs": [
        {
          "internalType": "uint256",
          "name": "",
          "type": "uint256"
        }
      ],
      "stateMutability": "view",
      "type": "function"
    },
    {
      "inputs": [
        {
          "internalType": "uint256",
          "name": "index",
          "type": "uint256"
        }
      ],
      "name": "getToken",
      "outputs": [
        {
          "internalType": "contract IERC20",
          "name": "",
          "type": "address"
        }
      ],
      "stateMutability": "view",
      "type": "function"
    },
    {
      "inputs": [],
      "name": "metaLPToken",
      "outputs": [
        {
          "internalType": "contract IERC20",
          "name": "",
          "type": "address"
        }
      ],
      "stateMutability": "view",
      "type": "function"
    },
    {
      "inputs": [],
      "name": "metaSwap",
      "outputs": [
        {
          "internalType": "contract IMetaSwap",
          "name": "",
          "type": "address"
        }
      ],
      "stateMutability": "view",
      "type": "function"
    },
    {
      "inputs": [
        {
          "internalType": "uint256",
          "name": "",
          "type": "uint256"
        }
      ],
      "name": "metaTokens",
      "outputs": [
        {
          "internalType": "contract IERC20",
          "name": "",
          "type": "address"
        }
      ],
      "stateMutability": "view",
      "type": "function"
    },
    {
      "inputs": [
        {
          "internalType": "uint256",
          "name": "amount",
          "type": "uint256"
        },
        {
          "internalType": "uint256[]",
          "name": "minAmounts",
          "type": "uint256[]"
        },
        {
          "internalType": "uint256",
          "name": "deadline",
          "type": "uint256"
        }
      ],
      "name": "removeLiquidity",
      "outputs": [
        {
          "internalType": "uint256[]",
          "name": "",
          "type": "uint256[]"
        }
      ],
      "stateMutability": "nonpayable",
      "type": "function"
    },
    {
      "inputs": [
        {
          "internalType": "uint256[]",
          "name": "amounts",
          "type": "uint256[]"
        },
        {
          "internalType": "uint256",
          "name": "maxBurnAmount",
          "type": "uint256"
        },
        {
          "internalType": "uint256",
          "name": "deadline",
          "type": "uint256"
        }
      ],
      "name": "removeLiquidityImbalance",
      "outputs": [
        {
          "internalType": "uint256",
          "name": "",
          "type": "uint256"
        }
      ],
      "stateMutability": "nonpayable",
      "type": "function"
    },
    {
      "inputs": [
        {
          "internalType": "uint256",
          "name": "tokenAmount",
          "type": "uint256"
        },
        {
          "internalType": "uint8",
          "name": "tokenIndex",
          "type": "uint8"
        },
        {
          "internalType": "uint256",
          "name": "minAmount",
          "type": "uint256"
        },
        {
          "internalType": "uint256",
          "name": "deadline",
          "type": "uint256"
        }
      ],
      "name": "removeLiquidityOneToken",
      "outputs": [
        {
          "internalType": "uint256",
          "name": "",
          "type": "uint256"
        }
      ],
      "stateMutability": "nonpayable",
      "type": "function"
    },
    {
      "inputs": [
        {
          "internalType": "uint8",
          "name": "tokenIndexFrom",
          "type": "uint8"
        },
        {
          "internalType": "uint8",
          "name": "tokenIndexTo",
          "type": "uint8"
        },
        {
          "internalType": "uint256",
          "name": "dx",
          "type": "uint256"
        },
        {
          "internalType": "uint256",
          "name": "minDy",
          "type": "uint256"
        },
        {
          "internalType": "uint256",
          "name": "deadline",
          "type": "uint256"
        }
      ],
      "name": "swap",
      "outputs": [
        {
          "internalType": "uint256",
          "name": "",
          "type": "uint256"
        }
      ],
      "stateMutability": "nonpayable",
      "type": "function"
    },
    {
      "inputs": [
        {
          "internalType": "uint256",
          "name": "",
          "type": "uint256"
        }
      ],
      "name": "tokens",
      "outputs": [
        {
          "internalType": "contract IERC20",
          "name": "",
          "type": "address"
        }
      ],
      "stateMutability": "view",
      "type": "function"
    }
  ],
  "transactionHash": "0xb7ca0b36cf50bb37b8d984e15d764fc5268358bc2f4dd0379de80c41304f8caa",
  "args": [
    "0x6493F1BfE563A09485A3888617EDAf62f8A43dF0",
    "0x7f7d0E9c89f81849929EB024757F28f0b30f8628",
    "0xA3747c559323E06418B176CF2e191766D6222029"
  ],
  "solcInputHash": "17d3ba2d960f961a8b40c627c7da50c7",
  "bytecode": "0x60806040523480156200001157600080fd5b506040516200330838038062003308833981810160405260608110156200003757600080fd5b508051602082015160409092015190919060005b60208160ff1610156200022657836001600160a01b03166382b86600826040518263ffffffff1660e01b8152600401808260ff16815260200191505060206040518083038186803b158015620000a057600080fd5b505afa925050508015620000c757506040513d6020811015620000c257600080fd5b505160015b620000d25762000226565b6002805460018101825560009182527f405787fa12a823e0f2b7631cc41b3ba8828b3321ca811111fa75cd3aa3bb5ace0180546001600160a01b0319166001600160a01b038481169182179092556040805163095ea7b360e01b81529289166004840152600019602484015251909263095ea7b392604480820193602093909283900390910190829087803b1580156200016b57600080fd5b505af115801562000180573d6000803e3d6000fd5b505050506040513d60208110156200019757600080fd5b50506040805163095ea7b360e01b81526001600160a01b038681166004830152600019602483015291519183169163095ea7b3916044808201926020929091908290030181600087803b158015620001ee57600080fd5b505af115801562000203573d6000803e3d6000fd5b505050506040513d60208110156200021a57600080fd5b5050506001016200004b565b506000805b60208160ff161015620003c457836001600160a01b03166382b86600826040518263ffffffff1660e01b8152600401808260ff16815260200191505060206040518083038186803b1580156200028057600080fd5b505afa925050508015620002a757506040513d6020811015620002a257600080fd5b505160015b620002b257620003c4565b6003805460018181019092557fc2575a0e9e593c00f959f8c92f12db2869c3395a3b0502d05e2516446f71f85b0180546001600160a01b038085166001600160a01b0319928316811790935560048054948501815560008181527f8a35acfbc15ff81a39ae7d344fd709f28e8600b4aa8c65c6b64bfe7fe36bd19b909501805490931684179092556040805163095ea7b360e01b8152918a1692820192909252600019602482015290519395508593919263095ea7b3926044808401936020939083900390910190829087803b1580156200038c57600080fd5b505af1158015620003a1573d6000803e3d6000fd5b505050506040513d6020811015620003b857600080fd5b5050506001016200022b565b506002600081548110620003d457fe5b600091825260209091200154600480546001600160a01b03909216916000198101908110620003ff57fe5b600091825260209091200180546001600160a01b0319166001600160a01b039290921691909117905560015b60025460ff821610156200048f57600460028260ff16815481106200044c57fe5b6000918252602080832090910154835460018181018655948452919092200180546001600160a01b0319166001600160a01b03909216919091179055016200042b565b50806001600160a01b031663095ea7b3856000196040518363ffffffff1660e01b815260040180836001600160a01b0316815260200182815260200192505050602060405180830381600087803b158015620004ea57600080fd5b505af1158015620004ff573d6000803e3d6000fd5b505050506040513d60208110156200051657600080fd5b50506040805163095ea7b360e01b81526001600160a01b038581166004830152600019602483015291519184169163095ea7b3916044808201926020929091908290030181600087803b1580156200056d57600080fd5b505af115801562000582573d6000803e3d6000fd5b505050506040513d60208110156200059957600080fd5b5050600080546001600160a01b039586166001600160a01b03199182161790915560018054948616948216949094179093555060058054919093169116179055612d1f80620005e96000396000f3fe608060405234801561001057600080fd5b50600436106101005760003560e01c80639750a8ee11610097578063d265047211610066578063d265047214610429578063e4b50cb814610431578063f9273ffb1461044e578063fd0bd099146104ce57610100565b80639750a8ee146103b457806398899f40146103bc578063a95b089f146103f1578063cb2ef5fe1461042157610100565b80634f64b2be116100d35780634f64b2be146102bb5780637c61e561146102d857806384cdd9bc14610304578063916955861461037857610100565b806331cd52b014610105578063328123a2146101ca5780633e3a1560146102035780634d49e87d14610247575b600080fd5b61017a6004803603606081101561011b57600080fd5b81359190810190604081016020820135600160201b81111561013c57600080fd5b82018360208201111561014e57600080fd5b803590602001918460208302840111600160201b8311171561016f57600080fd5b9193509150356104eb565b60408051602080825283518183015283519192839290830191858101910280838360005b838110156101b657818101518382015260200161019e565b505050509050019250505060405180910390f35b6101e7600480360360208110156101e057600080fd5b5035610b96565b604080516001600160a01b039092168252519081900360200190f35b6102356004803603608081101561021957600080fd5b5080359060ff6020820135169060408101359060600135610bbd565b60408051918252519081900360200190f35b6102356004803603606081101561025d57600080fd5b810190602081018135600160201b81111561027757600080fd5b82018360208201111561028957600080fd5b803590602001918460208302840111600160201b831117156102aa57600080fd5b919350915080359060200135610ef6565b6101e7600480360360208110156102d157600080fd5b5035611443565b61017a600480360360408110156102ee57600080fd5b506001600160a01b038135169060200135611450565b6102356004803603606081101561031a57600080fd5b810190602081018135600160201b81111561033457600080fd5b82018360208201111561034657600080fd5b803590602001918460208302840111600160201b8311171561036757600080fd5b9193509150803590602001356117a9565b610235600480360360a081101561038e57600080fd5b5060ff81358116916020810135909116906040810135906060810135906080013561202a565b6101e7612139565b610235600480360360608110156103d257600080fd5b5080356001600160a01b0316906020810135906040013560ff16612148565b6102356004803603606081101561040757600080fd5b5060ff813581169160208101359091169060400135612320565b6101e76123b1565b6101e76123c0565b6101e76004803603602081101561044757600080fd5b50356123cf565b6102356004803603606081101561046457600080fd5b6001600160a01b038235169190810190604081016020820135600160201b81111561048e57600080fd5b8201836020820111156104a057600080fd5b803590602001918460208302840111600160201b831117156104c157600080fd5b9193509150351515612445565b6101e7600480360360208110156104e457600080fd5b503561273a565b606080600280548060200260200160405190810160405280929190818152602001828054801561054457602002820191906000526020600020905b81546001600160a01b03168152600190910190602001808311610526575b50505050509050606060038054806020026020016040519081016040528092919081815260200182805480156105a357602002820191906000526020600020905b81546001600160a01b03168152600190910190602001808311610585575b5050835186519495506060940160001901925050508681146105fb576040805162461bcd60e51b815260206004820152600c60248201526b6f7574206f662072616e676560a01b604482015290519081900360640190fd5b8067ffffffffffffffff8111801561061257600080fd5b5060405190808252806020026020018201604052801561063c578160200160208202803683370190505b5060055490925061065991506001600160a01b031633308b612747565b600060606000600185510390506060855167ffffffffffffffff8111801561068057600080fd5b506040519080825280602002602001820160405280156106aa578160200160208202803683370190505b50905060005b828160ff1610156106f3578b8b8260ff168181106106ca57fe5b90506020020135828260ff16815181106106e057fe5b60209081029190910101526001016106b0565b50600160009054906101000a90046001600160a01b03166001600160a01b03166331cd52b08d838c6040518463ffffffff1660e01b81526004018084815260200180602001838152602001828103825284818151815260200191508051906020019060200280838360005b8381101561077657818101518382015260200161075e565b50505050905001945050505050600060405180830381600087803b15801561079d57600080fd5b505af11580156107b1573d6000803e3d6000fd5b505050506040513d6000823e601f3d908101601f1916820160405260208110156107da57600080fd5b8101908080516040519392919084600160201b8211156107f957600080fd5b90830190602082018581111561080e57600080fd5b82518660208202830111600160201b8211171561082a57600080fd5b82525081516020918201928201910280838360005b8381101561085757818101518382015260200161083f565b5050505090500160405250505092505060005b818160ff1610156108f957828160ff168151811061088457fe5b6020026020010151858260ff168151811061089b57fe5b6020026020010181815250506108f133848360ff16815181106108ba57fe5b6020026020010151888460ff16815181106108d157fe5b60200260200101516001600160a01b03166127a79092919063ffffffff16565b60010161086a565b5081818151811061090657fe5b602002602001015192506060865167ffffffffffffffff8111801561092a57600080fd5b50604051908082528060200260200182016040528015610954578160200160208202803683370190505b50905060005b828160ff16101561099f578b8b8260ff16850181811061097657fe5b90506020020135828260ff168151811061098c57fe5b602090810291909101015260010161095a565b5060008054906101000a90046001600160a01b03166001600160a01b03166331cd52b085838c6040518463ffffffff1660e01b81526004018084815260200180602001838152602001828103825284818151815260200191508051906020019060200280838360005b83811015610a20578181015183820152602001610a08565b50505050905001945050505050600060405180830381600087803b158015610a4757600080fd5b505af1158015610a5b573d6000803e3d6000fd5b505050506040513d6000823e601f3d908101601f191682016040526020811015610a8457600080fd5b8101908080516040519392919084600160201b821115610aa357600080fd5b908301906020820185811115610ab857600080fd5b82518660208202830111600160201b82111715610ad457600080fd5b82525081516020918201928201910280838360005b83811015610b01578181015183820152602001610ae9565b5050505090500160405250505092505060005b86518160ff161015610b8657828160ff1681518110610b2f57fe5b6020026020010151858260ff16840181518110610b4857fe5b602002602001018181525050610b7e33848360ff1681518110610b6757fe5b6020026020010151898460ff16815181106108d157fe5b600101610b14565b50929a9950505050505050505050565b60028181548110610ba357fe5b6000918252602090912001546001600160a01b0316905081565b600354600254600554600092600019019190610be4906001600160a01b031633308a612747565b60008260ff168760ff161015610cb257600154604080516301f1d0ab60e51b8152600481018b905260ff8a166024820152604481018990526064810188905290516001600160a01b0390921691633e3a1560916084808201926020929091908290030181600087803b158015610c5957600080fd5b505af1158015610c6d573d6000803e3d6000fd5b505050506040513d6020811015610c8357600080fd5b50506003805460ff8916908110610c9657fe5b6000918252602090912001546001600160a01b03169050610e59565b81830160ff168760ff161015610e1d57600154604080516301f1d0ab60e51b8152600481018b905260ff8616602482015260006044820181905260648201899052915191926001600160a01b031691633e3a15609160848082019260209290919082900301818787803b158015610d2857600080fd5b505af1158015610d3c573d6000803e3d6000fd5b505050506040513d6020811015610d5257600080fd5b505160008054604080516301f1d0ab60e51b81526004810185905260ff898e03166024820152604481018c9052606481018b905290519394506001600160a01b0390911692633e3a156092608480840193602093929083900390910190829087803b158015610dc057600080fd5b505af1158015610dd4573d6000803e3d6000fd5b505050506040513d6020811015610dea57600080fd5b50506002805460ff868b0316908110610dff57fe5b6000918252602090912001546001600160a01b03169150610e599050565b6040805162461bcd60e51b815260206004820152600c60248201526b6f7574206f662072616e676560a01b604482015290519081900360640190fd5b6000816001600160a01b03166370a08231306040518263ffffffff1660e01b815260040180826001600160a01b0316815260200191505060206040518083038186803b158015610ea857600080fd5b505afa158015610ebc573d6000803e3d6000fd5b505050506040513d6020811015610ed257600080fd5b50519050610eea6001600160a01b03831633836127a7565b98975050505050505050565b600060606002805480602002602001604051908101604052809291908181526020018280548015610f5057602002820191906000526020600020905b81546001600160a01b03168152600190910190602001808311610f32575b5050505050905060606003805480602002602001604051908101604052809291908181526020018280548015610faf57602002820191906000526020600020905b81546001600160a01b03168152600190910190602001808311610f91575b50505050509050600060018251039050808351018888905014610fd157600080fd5b60006060845167ffffffffffffffff81118015610fed57600080fd5b50604051908082528060200260200182016040528015611017578160200160208202803683370190505b5090506000805b86518160ff16101561111d576000878260ff168151811061103b57fe5b6020026020010151905060008d8d8460ff16890181811061105857fe5b90506020020135905060008111156111135761107f6001600160a01b038316333084612747565b604080516370a0823160e01b815230600482015290516001600160a01b038416916370a08231916024808301926020929190829003018186803b1580156110c557600080fd5b505afa1580156110d9573d6000803e3d6000fd5b505050506040513d60208110156110ef57600080fd5b50518551869060ff861690811061110257fe5b602002602001018181525050600193505b505060010161101e565b5080156111ef5760008054604051634d49e87d60e01b815260248101839052604481018b90526060600482019081528551606483015285516001600160a01b0390931693634d49e87d93879391928e92909182916084019060208088019102808383895b83811015611199578181015183820152602001611181565b50505050905001945050505050602060405180830381600087803b1580156111c057600080fd5b505af11580156111d4573d6000803e3d6000fd5b505050506040513d60208110156111ea57600080fd5b505192505b505060035460009060609067ffffffffffffffff8111801561121057600080fd5b5060405190808252806020026020018201604052801561123a578160200160208202803683370190505b50905060005b848160ff161015611338576000868260ff168151811061125c57fe5b6020026020010151905060008d8d8460ff1681811061127757fe5b905060200201359050600081111561132e5761129e6001600160a01b038316333084612747565b604080516370a0823160e01b815230600482015290516001600160a01b038416916370a08231916024808301926020929190829003018186803b1580156112e457600080fd5b505afa1580156112f8573d6000803e3d6000fd5b505050506040513d602081101561130e57600080fd5b50518451859060ff861690811061132157fe5b6020026020010181815250505b5050600101611240565b508281858151811061134657fe5b602090810291909101810191909152600154604051634d49e87d60e01b8152602481018c9052604481018b90526060600482019081528451606483015284516001600160a01b0390931693634d49e87d9386938f938f939092839260840191878101910280838360005b838110156113c85781810151838201526020016113b0565b50505050905001945050505050602060405180830381600087803b1580156113ef57600080fd5b505af1158015611403573d6000803e3d6000fd5b505050506040513d602081101561141957600080fd5b505160055490925061143691506001600160a01b031633836127a7565b9998505050505050505050565b60048181548110610ba357fe5b60015460408051637c61e56160e01b8152306004820181905260248201859052915191945060609283926001600160a01b0390911691637c61e561916044808301926000929190829003018186803b1580156114ab57600080fd5b505afa1580156114bf573d6000803e3d6000fd5b505050506040513d6000823e601f3d908101601f1916820160405260208110156114e857600080fd5b8101908080516040519392919084600160201b82111561150757600080fd5b90830190602082018581111561151c57600080fd5b82518660208202830111600160201b8211171561153857600080fd5b82525081516020918201928201910280838360005b8381101561156557818101518382015260200161154d565b505050509190910160405250508251600054939450600019810193606093506001600160a01b03169150637c61e561908890869060ff87169081106115a657fe5b60200260200101516040518363ffffffff1660e01b815260040180836001600160a01b031681526020018281526020019250505060006040518083038186803b1580156115f257600080fd5b505afa158015611606573d6000803e3d6000fd5b505050506040513d6000823e601f3d908101601f19168201604052602081101561162f57600080fd5b8101908080516040519392919084600160201b82111561164e57600080fd5b90830190602082018581111561166357600080fd5b82518660208202830111600160201b8211171561167f57600080fd5b82525081516020918201928201910280838360005b838110156116ac578181015183820152602001611694565b505050509050016040525050509050606081518360ff160167ffffffffffffffff811180156116da57600080fd5b50604051908082528060200260200182016040528015611704578160200160208202803683370190505b50905060005b8360ff168160ff16101561175157848160ff168151811061172757fe5b6020026020010151828260ff168151811061173e57fe5b602090810291909101015260010161170a565b5060005b82518160ff16101561179c57828160ff168151811061177057fe5b60200260200101518282860160ff168151811061178957fe5b6020908102919091010152600101611755565b5093505050505b92915050565b60006060600280548060200260200160405190810160405280929190818152602001828054801561180357602002820191906000526020600020905b81546001600160a01b031681526001909101906020018083116117e5575b505050505090506060600380548060200260200160405190810160405280929190818152602001828054801561186257602002820191906000526020600020905b81546001600160a01b03168152600190910190602001808311611844575b505050505090506060815167ffffffffffffffff8111801561188357600080fd5b506040519080825280602002602001820160405280156118ad578160200160208202803683370190505b5090506060835167ffffffffffffffff811180156118ca57600080fd5b506040519080825280602002602001820160405280156118f4578160200160208202803683370190505b508351855191925001600019018814611943576040805162461bcd60e51b815260206004820152600c60248201526b6f7574206f662072616e676560a01b604482015290519081900360640190fd5b61194b612c43565b506040805160c081018252600080546001600160a01b03908116835260015481166020840152600554169282019290925283516000190160ff1660608201526080810182905260a08101829052905b816060015160ff168160ff1610156119e4578a8a8260ff168181106119bb57fe5b90506020020135848260ff16815181106119d157fe5b602090810291909101015260010161199a565b5060005b82518160ff161015611a5a578a8a8284606001510160ff16818110611a0957fe5b90506020020135838260ff1681518110611a1f57fe5b6020026020010181815250506000838260ff1681518110611a3c57fe5b60200260200101511115611a5257600160808301525b6001016119e8565b50806080015115611b6b57611b4b612710611b4561271584600001516001600160a01b031663f9273ffb308860006040518463ffffffff1660e01b815260040180846001600160a01b03168152602001806020018315158152602001828103825284818151815260200191508051906020019060200280838360005b83811015611aee578181015183820152602001611ad6565b5050505090500194505050505060206040518083038186803b158015611b1357600080fd5b505afa158015611b27573d6000803e3d6000fd5b505050506040513d6020811015611b3d57600080fd5b5051906127fe565b90612857565b83826060015160ff1681518110611b5e57fe5b6020026020010181815250505b6040810151611b85906001600160a01b031633308b612747565b600081602001516001600160a01b03166384cdd9bc858b8b6040518463ffffffff1660e01b81526004018080602001848152602001838152602001828103825285818151815260200191508051906020019060200280838360005b83811015611bf8578181015183820152602001611be0565b50505050905001945050505050602060405180830381600087803b158015611c1f57600080fd5b505af1158015611c33573d6000803e3d6000fd5b505050506040513d6020811015611c4957600080fd5b50519050611c5789826128be565b60a0830152608082015115611f2b5781600001516001600160a01b03166384cdd9bc8486856060015160ff1681518110611c8d57fe5b60200260200101518b6040518463ffffffff1660e01b81526004018080602001848152602001838152602001828103825285818151815260200191508051906020019060200280838360005b83811015611cf1578181015183820152602001611cd9565b50505050905001945050505050602060405180830381600087803b158015611d1857600080fd5b505af1158015611d2c573d6000803e3d6000fd5b505050506040513d6020811015611d4257600080fd5b5050835160609067ffffffffffffffff81118015611d5f57600080fd5b50604051908082528060200260200182016040528015611d89578160200160208202803683370190505b509050600086846060015160ff1681518110611da157fe5b602002602001015190506000816001600160a01b03166370a08231306040518263ffffffff1660e01b815260040180826001600160a01b0316815260200191505060206040518083038186803b158015611dfa57600080fd5b505afa158015611e0e573d6000803e3d6000fd5b505050506040513d6020811015611e2457600080fd5b505190508015611f27578083866060015160ff1681518110611e4257fe5b602002602001018181525050611f2185602001516001600160a01b0316634d49e87d8560008f6040518463ffffffff1660e01b81526004018080602001848152602001838152602001828103825285818151815260200191508051906020019060200280838360005b83811015611ec3578181015183820152602001611eab565b50505050905001945050505050602060405180830381600087803b158015611eea57600080fd5b505af1158015611efe573d6000803e3d6000fd5b505050506040513d6020811015611f1457600080fd5b505160a08701519061291b565b60a08601525b5050505b60005b60ff81168b1115611fe5576000836060015160ff168260ff161015611f6b57868260ff1681518110611f5c57fe5b60200260200101519050611f8b565b878460600151830360ff1681518110611f8057fe5b602002602001015190505b60008d8d8460ff16818110611f9c57fe5b905060200201351115611fdc57611fdc338e8e8560ff16818110611fbc57fe5b90506020020135836001600160a01b03166127a79092919063ffffffff16565b50600101611f2e565b5060a08201511561201657612016338360a0015184604001516001600160a01b03166127a79092919063ffffffff16565b5060a0015190960398975050505050505050565b600061205f33308660048a60ff168154811061204257fe5b6000918252602090912001546001600160a01b0316929190612747565b60015460408051630f1c1f5d60e31b815260ff808a1660048301528816602482015260448101879052606481018690526084810185905290516000926001600160a01b0316916378e0fae89160a480830192602092919082900301818787803b1580156120cb57600080fd5b505af11580156120df573d6000803e3d6000fd5b505050506040513d60208110156120f557600080fd5b50516004805491925061212f913391849160ff8b1690811061211357fe5b6000918252602090912001546001600160a01b031691906127a7565b9695505050505050565b6000546001600160a01b031681565b6003543093506000906000190160ff80821690841610156121f55760015460408051630262267d60e61b81526001600160a01b0388811660048301526024820188905260ff87166044830152915191909216916398899f40916064808301926020929190829003018186803b1580156121c057600080fd5b505afa1580156121d4573d6000803e3d6000fd5b505050506040513d60208110156121ea57600080fd5b505191506123199050565b60015460408051630262267d60e61b81526001600160a01b0388811660048301526024820188905260ff85166044830152915160009392909216916398899f4091606480820192602092909190829003018186803b15801561225657600080fd5b505afa15801561226a573d6000803e3d6000fd5b505050506040513d602081101561228057600080fd5b505160005460408051630262267d60e61b81526001600160a01b038a811660048301526024820185905260ff878a0316604483015291519394509116916398899f4091606480820192602092909190829003018186803b1580156122e357600080fd5b505afa1580156122f7573d6000803e3d6000fd5b505050506040513d602081101561230d57600080fd5b50519250612319915050565b9392505050565b60015460408051631d7638f960e21b815260ff8087166004830152851660248201526044810184905290516000926001600160a01b0316916375d8e3e4916064808301926020929190829003018186803b15801561237d57600080fd5b505afa158015612391573d6000803e3d6000fd5b505050506040513d60208110156123a757600080fd5b5051949350505050565b6001546001600160a01b031681565b6005546001600160a01b031681565b600454600090821061241d576040805162461bcd60e51b8152602060048201526012602482015271696e646578206f7574206f662072616e676560701b604482015290519081900360640190fd5b6004828154811061242a57fe5b6000918252602090912001546001600160a01b031692915050565b60035430945060009060609067ffffffffffffffff8111801561246757600080fd5b50604051908082528060200260200182016040528015612491578160200160208202803683370190505b5060025490915060609067ffffffffffffffff811180156124b157600080fd5b506040519080825280602002602001820160405280156124db578160200160208202803683370190505b5082519091506000190160005b818160ff16101561252b5787878260ff1681811061250257fe5b90506020020135848260ff168151811061251857fe5b60209081029190910101526001016124e8565b5060005b82518160ff1610156125755787878260ff16840181811061254c57fe5b90506020020135838260ff168151811061256257fe5b602090810291909101015260010161252f565b506000805460405163f9273ffb60e01b81526001600160a01b038b8116600483019081528915156044840152606060248401908152875160648501528751929094169363f9273ffb938e9389938d9390929091608490910190602080870191028083838d5b838110156125f25781810151838201526020016125da565b5050505090500194505050505060206040518083038186803b15801561261757600080fd5b505afa15801561262b573d6000803e3d6000fd5b505050506040513d602081101561264157600080fd5b50518451909150819085908490811061265657fe5b60209081029190910181019190915260015460405163f9273ffb60e01b81526001600160a01b038c8116600483019081528a15156044840152606060248401908152895160648501528951929094169463f9273ffb948f948b948e9493608490920191868101910280838360005b838110156126dc5781810151838201526020016126c4565b5050505090500194505050505060206040518083038186803b15801561270157600080fd5b505afa158015612715573d6000803e3d6000fd5b505050506040513d602081101561272b57600080fd5b50519998505050505050505050565b60038181548110610ba357fe5b604080516001600160a01b0380861660248301528416604482015260648082018490528251808303909101815260849091019091526020810180516001600160e01b03166323b872dd60e01b1790526127a1908590612975565b50505050565b604080516001600160a01b038416602482015260448082018490528251808303909101815260649091019091526020810180516001600160e01b031663a9059cbb60e01b1790526127f9908490612975565b505050565b60008261280d575060006117a3565b8282028284828161281a57fe5b04146123195760405162461bcd60e51b8152600401808060200182810382526021815260200180612c9f6021913960400191505060405180910390fd5b60008082116128ad576040805162461bcd60e51b815260206004820152601a60248201527f536166654d6174683a206469766973696f6e206279207a65726f000000000000604482015290519081900360640190fd5b8183816128b657fe5b049392505050565b600082821115612915576040805162461bcd60e51b815260206004820152601e60248201527f536166654d6174683a207375627472616374696f6e206f766572666c6f770000604482015290519081900360640190fd5b50900390565b600082820183811015612319576040805162461bcd60e51b815260206004820152601b60248201527f536166654d6174683a206164646974696f6e206f766572666c6f770000000000604482015290519081900360640190fd5b60606129ca826040518060400160405280602081526020017f5361666545524332303a206c6f772d6c6576656c2063616c6c206661696c6564815250856001600160a01b0316612a269092919063ffffffff16565b8051909150156127f9578080602001905160208110156129e957600080fd5b50516127f95760405162461bcd60e51b815260040180806020018281038252602a815260200180612cc0602a913960400191505060405180910390fd5b6060612a358484600085612a3d565b949350505050565b606082471015612a7e5760405162461bcd60e51b8152600401808060200182810382526026815260200180612c796026913960400191505060405180910390fd5b612a8785612b99565b612ad8576040805162461bcd60e51b815260206004820152601d60248201527f416464726573733a2063616c6c20746f206e6f6e2d636f6e7472616374000000604482015290519081900360640190fd5b60006060866001600160a01b031685876040518082805190602001908083835b60208310612b175780518252601f199092019160209182019101612af8565b6001836020036101000a03801982511681845116808217855250505050505090500191505060006040518083038185875af1925050503d8060008114612b79576040519150601f19603f3d011682016040523d82523d6000602084013e612b7e565b606091505b5091509150612b8e828286612b9f565b979650505050505050565b3b151590565b60608315612bae575081612319565b825115612bbe5782518084602001fd5b8160405162461bcd60e51b81526004018080602001828103825283818151815260200191508051906020019080838360005b83811015612c08578181015183820152602001612bf0565b50505050905090810190601f168015612c355780820380516001836020036101000a031916815260200191505b509250505060405180910390fd5b6040805160c081018252600080825260208201819052918101829052606081018290526080810182905260a08101919091529056fe416464726573733a20696e73756666696369656e742062616c616e636520666f722063616c6c536166654d6174683a206d756c7469706c69636174696f6e206f766572666c6f775361666545524332303a204552433230206f7065726174696f6e20646964206e6f742073756363656564a2646970667358221220233f24a23c5b7f4eb239d280f1e16da3ad7a2ff0167d09cc74cd3a178baa62d064736f6c634300060c0033",
  "devdoc": {
    "kind": "dev",
    "methods": {
      "addLiquidity(uint256[],uint256,uint256)": {
        "params": {
          "amounts": "the amounts of each token to add, in their native precision",
          "deadline": "latest timestamp to accept this transaction",
          "minToMint": "the minimum LP tokens adding this amount of liquidity should mint, otherwise revert. Handy for front-running mitigation"
        },
        "returns": {
          "_0": "amount of LP token user minted and received"
        }
      },
      "calculateRemoveLiquidity(address,uint256)": {
        "params": {
          "account": "the address that is withdrawing tokens",
          "amount": "the amount of LP tokens that would be burned on withdrawal"
        },
        "returns": {
          "_0": "array of token balances that the user will receive"
        }
      },
      "calculateRemoveLiquidityOneToken(address,uint256,uint8)": {
        "params": {
          "account": "the address that is withdrawing tokens",
          "tokenAmount": "the amount of LP token to burn",
          "tokenIndex": "index of which token will be withdrawn"
        },
        "returns": {
          "_0": "availableTokenAmount calculated amount of underlying token available to withdraw"
        }
      },
      "calculateSwap(uint8,uint8,uint256)": {
        "params": {
          "dx": "the amount of tokens the user wants to sell. If the token charges a fee on transfers, use the amount that gets transferred after the fee.",
          "tokenIndexFrom": "the token the user wants to sell",
          "tokenIndexTo": "the token the user wants to buy"
        },
        "returns": {
          "_0": "amount of tokens the user will receive"
        }
      },
      "calculateTokenAmount(address,uint256[],bool)": {
        "details": "This shouldn't be used outside frontends for user estimates.",
        "params": {
          "account": "address that is depositing or withdrawing tokens",
          "amounts": "an array of token amounts to deposit or withdrawal, corresponding to pooledTokens. The amount should be in each pooled token's native precision. If a token charges a fee on transfers, use the amount that gets transferred after the fee.",
          "deposit": "whether this is a deposit or a withdrawal"
        },
        "returns": {
          "_0": "token amount the user will receive"
        }
      },
      "constructor": {
        "params": {
          "_baseSwap": "the address of the base swap contract",
          "_metaLPToken": "the address of the meta swap LP token contract",
          "_metaSwap": "the address of the meta swap contract"
        }
      },
      "getToken(uint256)": {
        "params": {
          "index": "the index of the token"
        },
        "returns": {
          "_0": "address of the token at given index"
        }
      },
      "removeLiquidity(uint256,uint256[],uint256)": {
        "details": "Liquidity can always be removed, even when the pool is paused.",
        "params": {
          "amount": "the amount of LP tokens to burn",
          "deadline": "latest timestamp to accept this transaction",
          "minAmounts": "the minimum amounts of each token in the pool        acceptable for this burn. Useful as a front-running mitigation"
        },
        "returns": {
          "_0": "amounts of tokens user received"
        }
      },
      "removeLiquidityImbalance(uint256[],uint256,uint256)": {
        "params": {
          "amounts": "how much of each token to withdraw",
          "deadline": "latest timestamp to accept this transaction",
          "maxBurnAmount": "the max LP token provider is willing to pay to remove liquidity. Useful as a front-running mitigation."
        },
        "returns": {
          "_0": "amount of LP tokens burned"
        }
      },
      "removeLiquidityOneToken(uint256,uint8,uint256,uint256)": {
        "params": {
          "deadline": "latest timestamp to accept this transaction",
          "minAmount": "the minimum amount to withdraw, otherwise revert",
          "tokenAmount": "the amount of the token you want to receive",
          "tokenIndex": "the index of the token you want to receive"
        },
        "returns": {
          "_0": "amount of chosen token user received"
        }
      },
      "swap(uint8,uint8,uint256,uint256,uint256)": {
        "params": {
          "deadline": "latest timestamp to accept this transaction",
          "dx": "the amount of tokens the user wants to swap from",
          "minDy": "the min amount the user would like to receive, or revert.",
          "tokenIndexFrom": "the token the user wants to swap from",
          "tokenIndexTo": "the token the user wants to swap to"
        }
      }
    },
    "title": "MetaSwapDeposit",
    "version": 1
  },
  "userdoc": {
    "kind": "user",
    "methods": {
      "addLiquidity(uint256[],uint256,uint256)": {
        "notice": "Add liquidity to the pool with the given amounts of tokens"
      },
      "calculateRemoveLiquidity(address,uint256)": {
        "notice": "A simple method to calculate amount of each underlying tokens that is returned upon burning given amount of LP tokens"
      },
      "calculateRemoveLiquidityOneToken(address,uint256,uint8)": {
        "notice": "Calculate the amount of underlying token available to withdraw when withdrawing via only single token"
      },
      "calculateSwap(uint8,uint8,uint256)": {
        "notice": "Calculate amount of tokens you receive on swap"
      },
      "calculateTokenAmount(address,uint256[],bool)": {
        "notice": "A simple method to calculate prices from deposits or withdrawals, excluding fees but including slippage. This is helpful as an input into the various \"min\" parameters on calls to fight front-running. When withdrawing from the base pool in imbalanced fashion, the recommended slippage setting is 0.2% or higher."
      },
      "constructor": "Sets the address for the base swap contract, meta swap contract, and the meta swap LP token contract.",
      "getToken(uint256)": {
        "notice": "Return address of the pooled token at given index. Reverts if tokenIndex is out of range. This is a flattened representation of the pooled tokens."
      },
      "removeLiquidity(uint256,uint256[],uint256)": {
        "notice": "Burn LP tokens to remove liquidity from the pool. Withdraw fee that decays linearly over period of 4 weeks since last deposit will apply."
      },
      "removeLiquidityImbalance(uint256[],uint256,uint256)": {
        "notice": "Remove liquidity from the pool, weighted differently than the pool's current balances. Withdraw fee that decays linearly over period of 4 weeks since last deposit will apply."
      },
      "removeLiquidityOneToken(uint256,uint8,uint256,uint256)": {
        "notice": "Remove liquidity from the pool all in one token. Withdraw fee that decays linearly over period of 4 weeks since last deposit will apply."
      },
      "swap(uint8,uint8,uint256,uint256,uint256)": {
        "notice": "Swap two underlying tokens using the meta pool and the base pool"
      }
    },
    "notice": "This contract flattens the LP token in a MetaSwap pool for easier user access. For example, suppose there exists a base Swap pool consisting of [DAI, USDC, USDT]. Then a MetaSwap pool can be created with [BUSD, BaseSwapLPToken] to allow trades between either the LP token or the underlying tokens and BUSD. MetaSwapDeposit flattens the LP token and remaps them to [BUSD, DAI, USDC, USDT], allowing users to ignore the dependency on BaseSwapLPToken.",
    "version": 1
  },
  "storageLayout": {
    "storage": [
      {
        "astId": 16135,
        "contract": "contracts/stable/MetaSwapDeposit.sol:MetaSwapDeposit",
        "label": "baseSwap",
        "offset": 0,
        "slot": "0",
        "type": "t_contract(ISwap)15550"
      },
      {
        "astId": 16137,
        "contract": "contracts/stable/MetaSwapDeposit.sol:MetaSwapDeposit",
        "label": "metaSwap",
        "offset": 0,
        "slot": "1",
        "type": "t_contract(IMetaSwap)15399"
      },
      {
        "astId": 16140,
        "contract": "contracts/stable/MetaSwapDeposit.sol:MetaSwapDeposit",
        "label": "baseTokens",
        "offset": 0,
        "slot": "2",
        "type": "t_array(t_contract(IERC20)1178)dyn_storage"
      },
      {
        "astId": 16143,
        "contract": "contracts/stable/MetaSwapDeposit.sol:MetaSwapDeposit",
        "label": "metaTokens",
        "offset": 0,
        "slot": "3",
        "type": "t_array(t_contract(IERC20)1178)dyn_storage"
      },
      {
        "astId": 16146,
        "contract": "contracts/stable/MetaSwapDeposit.sol:MetaSwapDeposit",
        "label": "tokens",
        "offset": 0,
        "slot": "4",
        "type": "t_array(t_contract(IERC20)1178)dyn_storage"
      },
      {
        "astId": 16148,
        "contract": "contracts/stable/MetaSwapDeposit.sol:MetaSwapDeposit",
        "label": "metaLPToken",
        "offset": 0,
        "slot": "5",
        "type": "t_contract(IERC20)1178"
      }
    ],
    "types": {
      "t_array(t_contract(IERC20)1178)dyn_storage": {
        "base": "t_contract(IERC20)1178",
        "encoding": "dynamic_array",
        "label": "contract IERC20[]",
        "numberOfBytes": "32"
      },
      "t_contract(IERC20)1178": {
        "encoding": "inplace",
        "label": "contract IERC20",
        "numberOfBytes": "20"
      },
      "t_contract(IMetaSwap)15399": {
        "encoding": "inplace",
        "label": "contract IMetaSwap",
        "numberOfBytes": "20"
      },
      "t_contract(ISwap)15550": {
        "encoding": "inplace",
        "label": "contract ISwap",
        "numberOfBytes": "20"
      }
    }
  }
}