{
  "address": "0x089734388312e5DB16787eC934a4F37089f043Ba",
  "abi": [
    {
      "anonymous": false,
      "inputs": [
        {
          "indexed": true,
          "internalType": "address",
          "name": "provider",
          "type": "address"
        },
        {
          "indexed": false,
          "internalType": "uint256[]",
          "name": "tokenAmounts",
          "type": "uint256[]"
        },
        {
          "indexed": false,
          "internalType": "uint256[]",
          "name": "fees",
          "type": "uint256[]"
        },
        {
          "indexed": false,
          "internalType": "uint256",
          "name": "invariant",
          "type": "uint256"
        },
        {
          "indexed": false,
          "internalType": "uint256",
          "name": "lpTokenSupply",
          "type": "uint256"
        }
      ],
      "name": "AddLiquidity",
      "type": "event"
    },
    {
      "anonymous": false,
      "inputs": [
        {
          "indexed": false,
          "internalType": "uint256",
          "name": "newAdminFee",
          "type": "uint256"
        }
      ],
      "name": "NewAdminFee",
      "type": "event"
    },
    {
      "anonymous": false,
      "inputs": [
        {
          "indexed": false,
          "internalType": "uint256",
          "name": "newSwapFee",
          "type": "uint256"
        }
      ],
      "name": "NewSwapFee",
      "type": "event"
    },
    {
      "anonymous": false,
      "inputs": [
        {
          "indexed": false,
          "internalType": "uint256",
          "name": "newWithdrawFee",
          "type": "uint256"
        }
      ],
      "name": "NewWithdrawFee",
      "type": "event"
    },
    {
      "anonymous": false,
      "inputs": [
        {
          "indexed": true,
          "internalType": "address",
          "name": "provider",
          "type": "address"
        },
        {
          "indexed": false,
          "internalType": "uint256[]",
          "name": "tokenAmounts",
          "type": "uint256[]"
        },
        {
          "indexed": false,
          "internalType": "uint256[]",
          "name": "fees",
          "type": "uint256[]"
        },
        {
          "indexed": false,
          "internalType": "uint256",
          "name": "invariant",
          "type": "uint256"
        },
        {
          "indexed": false,
          "internalType": "uint256",
          "name": "lpTokenSupply",
          "type": "uint256"
        }
      ],
      "name": "RemoveLiquidityImbalance",
      "type": "event"
    },
    {
      "anonymous": false,
      "inputs": [
        {
          "indexed": true,
          "internalType": "address",
          "name": "provider",
          "type": "address"
        },
        {
          "indexed": false,
          "internalType": "uint256",
          "name": "lpTokenAmount",
          "type": "uint256"
        },
        {
          "indexed": false,
          "internalType": "uint256",
          "name": "lpTokenSupply",
          "type": "uint256"
        },
        {
          "indexed": false,
          "internalType": "uint256",
          "name": "boughtId",
          "type": "uint256"
        },
        {
          "indexed": false,
          "internalType": "uint256",
          "name": "tokensBought",
          "type": "uint256"
        }
      ],
      "name": "RemoveLiquidityOne",
      "type": "event"
    },
    {
      "anonymous": false,
      "inputs": [
        {
          "indexed": true,
          "internalType": "address",
          "name": "buyer",
          "type": "address"
        },
        {
          "indexed": false,
          "internalType": "uint256",
          "name": "tokensSold",
          "type": "uint256"
        },
        {
          "indexed": false,
          "internalType": "uint256",
          "name": "tokensBought",
          "type": "uint256"
        },
        {
          "indexed": false,
          "internalType": "uint128",
          "name": "soldId",
          "type": "uint128"
        },
        {
          "indexed": false,
          "internalType": "uint128",
          "name": "boughtId",
          "type": "uint128"
        }
      ],
      "name": "TokenSwap",
      "type": "event"
    },
    {
      "anonymous": false,
      "inputs": [
        {
          "indexed": true,
          "internalType": "address",
          "name": "buyer",
          "type": "address"
        },
        {
          "indexed": false,
          "internalType": "uint256",
          "name": "tokensSold",
          "type": "uint256"
        },
        {
          "indexed": false,
          "internalType": "uint256",
          "name": "tokensBought",
          "type": "uint256"
        },
        {
          "indexed": false,
          "internalType": "uint128",
          "name": "soldId",
          "type": "uint128"
        },
        {
          "indexed": false,
          "internalType": "uint128",
          "name": "boughtId",
          "type": "uint128"
        }
      ],
      "name": "TokenSwapUnderlying",
      "type": "event"
    },
    {
      "inputs": [],
      "name": "A_PRECISION",
      "outputs": [
        {
          "internalType": "uint256",
          "name": "",
          "type": "uint256"
        }
      ],
      "stateMutability": "view",
      "type": "function"
    },
    {
      "inputs": [],
      "name": "BASE_CACHE_EXPIRE_TIME",
      "outputs": [
        {
          "internalType": "uint256",
          "name": "",
          "type": "uint256"
        }
      ],
      "stateMutability": "view",
      "type": "function"
    },
    {
      "inputs": [],
      "name": "BASE_VIRTUAL_PRICE_PRECISION",
      "outputs": [
        {
          "internalType": "uint256",
          "name": "",
          "type": "uint256"
        }
      ],
      "stateMutability": "view",
      "type": "function"
    },
    {
      "inputs": [],
      "name": "POOL_PRECISION_DECIMALS",
      "outputs": [
        {
          "internalType": "uint8",
          "name": "",
          "type": "uint8"
        }
      ],
      "stateMutability": "view",
      "type": "function"
    }
  ],
  "transactionHash": "0x6c19afc93f7f3533e80d7b8fcdc308b4092352a17fefb2af5088cee619bad015",
  "args": [],
  "solcInputHash": "b0191412d6db60d2913615e97999bbd0",
  "bytecode": "0x614cb5610026600b82828239805160001a60731461001957fe5b30600052607381538281f3fe730000000000000000000000000000000000000000301460806040526004361061010a5760003560e01c8063a892cd87116100a1578063becf967c11610070578063becf967c1461048a578063d011f91814610492578063d8b3a90d1461049a578063e04f37cd146104db5761010a565b8063a892cd8714610315578063a8a50ed7146103d3578063b2a491641461040f578063bbca125c1461045e5761010a565b80635dbcca1e116100dd5780635dbcca1e146101ed5780638995f39514610232578063a28c2341146102f0578063a7df2f89146102f85761010a565b80630296ab501461010f5780631160c0241461012d5780632b27b26d146101625780633edc82d81461019e575b600080fd5b610117610569565b6040805160ff9092168252519081900360200190f35b6101506004803603604081101561014357600080fd5b508035906020013561056e565b60408051918252519081900360200190f35b610150600480360360a081101561017857600080fd5b5080359060208101359060ff6040820135811691606081013590911690608001356106b8565b8180156101aa57600080fd5b50610150600480360360c08110156101c157600080fd5b5080359060208101359060ff604082013581169160608101359091169060808101359060a001356106da565b8180156101f957600080fd5b50610150600480360360a081101561021057600080fd5b5080359060208101359060408101359060ff60608201351690608001356113ac565b81801561023e57600080fd5b506101506004803603608081101561025557600080fd5b81359160208101359181019060608101604082013564010000000081111561027c57600080fd5b82018360208201111561028e57600080fd5b803590602001918460208302840111640100000000831117156102b057600080fd5b91908080602002602001604051908101604052809392919081815260200183836020028082843760009201919091525092955050913592506116f8915050565b610150612076565b6101506004803603602081101561030e57600080fd5b5035612082565b81801561032157600080fd5b506101506004803603608081101561033857600080fd5b81359160208101359181019060608101604082013564010000000081111561035f57600080fd5b82018360208201111561037157600080fd5b8035906020019184602083028401116401000000008311171561039357600080fd5b919080806020026020016040519081016040528093929190818152602001838360200280828437600092019190915250929550509135925061211c915050565b610150600480360360a08110156103e957600080fd5b5080359060208101359060ff6040820135811691606081013590911690608001356128e8565b81801561041b57600080fd5b50610150600480360360c081101561043257600080fd5b5080359060208101359060ff604082013581169160608101359091169060808101359060a00135612e2e565b6101506004803603604081101561047457600080fd5b50803590602001356001600160a01b03166131aa565b610150613251565b610150613257565b610150600480360360a08110156104b057600080fd5b5080359060208101359060408101356001600160a01b0316906060810135906080013560ff1661325c565b610150600480360360a08110156104f157600080fd5b8135916020810135916001600160a01b03604083013516919081019060808101606082013564010000000081111561052857600080fd5b82018360208201111561053a57600080fd5b8035906020019184602083028401116401000000008311171561055c57600080fd5b91935091503515156132ef565b601281565b600080610594610586856105818661350a565b613523565b61058f86612082565b6135db565b905060008460090160009054906101000a90046001600160a01b031690506000816001600160a01b03166318160ddd6040518163ffffffff1660e01b815260040160206040518083038186803b1580156105ed57600080fd5b505afa158015610601573d6000803e3d6000fd5b505050506040513d602081101561061757600080fd5b5051905080156106aa576106a08161069a846001600160a01b031663313ce5676040518163ffffffff1660e01b815260040160206040518083038186803b15801561066157600080fd5b505afa158015610675573d6000803e3d6000fd5b505050506040513d602081101561068b57600080fd5b5051869060ff16600a0a6137b2565b9061380b565b93505050506106b2565b600093505050505b92915050565b60006106cf868585856106ca8a61350a565b613872565b509695505050505050565b60006106e4614a59565b604051806101400160405280600081526020016000815260200160008152602001600060ff168152602001600060ff16815260200189600c0180548060200260200160405190810160405280929190818152602001828054801561076757602002820191906000526020600020905b815481526020019060010190808311610753575b50505050508152602001886003018054806020026020016040519081016040528092919081815260200182805480156107c957602002820191906000526020600020905b81546001600160a01b031681526001909101906020018083116107ab575b505050918352505060006020820181905260408201526060016107eb89613a23565b8152509050600060018260a001515103905060008260c0015151820190508060ff168860ff1610801561082357508060ff168760ff16105b61086f576040805162461bcd60e51b8152602060048201526018602482015277546f6b656e20696e646578206f7574206f662072616e676560401b604482015290519081900360640190fd5b5087546001600160a01b031660ff80831690891610156108c35789600a018860ff168154811061089b57fe5b6000918252602090912001546001600160a01b031660e084015260ff881660608401526108fb565b8260c0015182890360ff16815181106108d857fe5b60209081029190910101516001600160a01b031660e084015260ff821660608401525b8160ff168760ff1610156109445789600a018760ff168154811061091b57fe5b6000918252602090912001546001600160a01b031661010084015260ff8716608084015261097d565b8260c0015182880360ff168151811061095957fe5b60209081029190910101516001600160a01b031661010084015260ff821660808401525b8260e001516001600160a01b03166370a08231306040518263ffffffff1660e01b815260040180826001600160a01b0316815260200191505060206040518083038186803b1580156109ce57600080fd5b505afa1580156109e2573d6000803e3d6000fd5b505050506040513d60208110156109f857600080fd5b5051602084015260e0830151610a19906001600160a01b0316333089613ac6565b610aa483602001518460e001516001600160a01b03166370a08231306040518263ffffffff1660e01b815260040180826001600160a01b0316815260200191505060206040518083038186803b158015610a7257600080fd5b505afa158015610a86573d6000803e3d6000fd5b505050506040513d6020811015610a9c57600080fd5b505190613b26565b602084015260ff8083169089161080610ac257508160ff168760ff16105b156111a5576060610add8b8560a00151866101200151613b83565b90508260ff168960ff161015610b3e57610b1c8b600b018a60ff1681548110610b0257fe5b9060005260206000200154886137b290919063ffffffff16565b818a60ff1681518110610b2b57fe5b6020908102919091010151018452610daa565b60608460c001515167ffffffffffffffff81118015610b5c57600080fd5b50604051908082528060200260200182016040528015610b86578160200160208202803683370190505b509050846020015181858c0360ff1681518110610b9f57fe5b60200260200101818152505060008c600a018560ff1681548110610bbf57fe5b60009182526020918290200154604080516370a0823160e01b815230600482015290516001600160a01b03909216935083926370a0823192602480840193829003018186803b158015610c1157600080fd5b505afa158015610c25573d6000803e3d6000fd5b505050506040513d6020811015610c3b57600080fd5b50518652604051634d49e87d60e01b815260006024820181905242604483018190526060600484019081528551606485015285516001600160a01b03891694634d49e87d948894909390929091829160849091019060208781019102808383895b83811015610cb4578181015183820152602001610c9c565b50505050905001945050505050602060405180830381600087803b158015610cdb57600080fd5b505af1158015610cef573d6000803e3d6000fd5b505050506040513d6020811015610d0557600080fd5b50508551604080516370a0823160e01b81523060048201529051610d5592916001600160a01b038516916370a0823191602480820192602092909190829003018186803b158015610a7257600080fd5b60208701528251610da590849060ff8816908110610d6f57fe5b6020026020010151610d9f670de0b6b3a764000061069a8a61012001518b602001516137b290919063ffffffff16565b90613be0565b865250505b600080610dcb610db98e612082565b60608801516080890151895187613c3a565b9050610e056001610dff83868a6080015160ff1681518110610de957fe5b6020026020010151613b2690919063ffffffff16565b90613b26565b6040870181905260048e0154610e26916402540be4009161069a91906137b2565b9150610e638d600b01876080015160ff1681548110610e4157fe5b906000526020600020015461069a848960400151613b2690919063ffffffff16565b60408701525060ff808516908a1610610ea457610e9e85610120015161069a670de0b6b3a764000088604001516137b290919063ffffffff16565b60408601525b6000610ec66402540be40061069a8f60050154856137b290919063ffffffff16565b9050610efb8d600b01876080015160ff1681548110610ee157fe5b90600052602060002001548261380b90919063ffffffff16565b9050610f3286602001518760a00151886060015160ff1681518110610f1c57fe5b6020026020010151613be090919063ffffffff16565b8d600c01876060015160ff1681548110610f4857fe5b9060005260206000200181905550610f7981610dff88604001518960a001518a6080015160ff1681518110610de957fe5b8d600c01876080015160ff1681548110610f8f57fe5b9060005260206000200181905550508360ff168960ff16106111455760008561010001516001600160a01b03166370a08231306040518263ffffffff1660e01b815260040180826001600160a01b0316815260200191505060206040518083038186803b158015610fff57600080fd5b505afa158015611013573d6000803e3d6000fd5b505050506040513d602081101561102957600080fd5b505160408088015181516301f1d0ab60e51b8152600481019190915260ff888e0316602482015260006044820181905242606483015291519293506001600160a01b03871692633e3a156092608480840193602093929083900390910190829087803b15801561109857600080fd5b505af11580156110ac573d6000803e3d6000fd5b505050506040513d60208110156110c257600080fd5b5050610100860151604080516370a0823160e01b8152306004820152905183926001600160a01b0316916370a08231916024808301926020929190829003018186803b15801561111157600080fd5b505afa158015611125573d6000803e3d6000fd5b505050506040513d602081101561113b57600080fd5b5051036040870152505b868560400151101561119e576040805162461bcd60e51b815260206004820181905260248201527f53776170206469646e277420726573756c7420696e206d696e20746f6b656e73604482015290519081900360640190fd5b5050611320565b8261010001516001600160a01b03166370a08231306040518263ffffffff1660e01b815260040180826001600160a01b0316815260200191505060206040518083038186803b1580156111f757600080fd5b505afa15801561120b573d6000803e3d6000fd5b505050506040513d602081101561122157600080fd5b505160408085019190915260208481015182516348b4aac360e11b815260ff868d0381166004830152868c0316602482015260448101919091526064810188905242608482015291516001600160a01b0384169263916955869260a48083019391928290030181600087803b15801561129957600080fd5b505af11580156112ad573d6000803e3d6000fd5b505050506040513d60208110156112c357600080fd5b505060408084015161010085015182516370a0823160e01b8152306004820152925161131a936001600160a01b03909216916370a08231916024808301926020929190829003018186803b158015610a7257600080fd5b60408401525b6113473384604001518561010001516001600160a01b0316613ef49092919063ffffffff16565b6040808401518151888152602081019190915260ff808b168284015289166060820152905133917f6617207207e397b41fc98016d8c9febb7223f44c355db66ad429730f2b950a60919081900360800190a250506040015190505b9695505050505050565b6009850154604080516318160ddd60e01b815290516000926001600160a01b031691839183916318160ddd916004808301926020929190829003018186803b1580156113f757600080fd5b505afa15801561140b573d6000803e3d6000fd5b505050506040513d602081101561142157600080fd5b5051600a890154604080516370a0823160e01b8152336004820152905192935090916001600160a01b038516916370a08231916024808301926020929190829003018186803b15801561147357600080fd5b505afa158015611487573d6000803e3d6000fd5b505050506040513d602081101561149d57600080fd5b50518711156114e3576040805162461bcd60e51b815260206004820152600d60248201526c1f2628173130b630b731b2a7b360991b604482015290519081900360640190fd5b808660ff161061152c576040805162461bcd60e51b815260206004820152600f60248201526e151bdad95b881b9bdd08199bdd5b99608a1b604482015290519081900360640190fd5b6000806115458b338b8b61153f8f613a23565b89613f4b565b925090508681101561158f576040805162461bcd60e51b815260206004820152600e60248201526d191e480f081b5a5b905b5bdd5b9d60921b604482015290519081900360640190fd5b6115e76115bc6115b56402540be40061069a8f60050154876137b290919063ffffffff16565b8390613be0565b8c600c018a60ff16815481106115ce57fe5b9060005260206000200154613b2690919063ffffffff16565b8b600c018960ff16815481106115f957fe5b60009182526020822001919091556040805163079cc67960e41b8152336004820152602481018c905290516001600160a01b038816926379cc6790926044808201939182900301818387803b15801561165157600080fd5b505af1158015611665573d6000803e3d6000fd5b5050505061169c33828d600a018b60ff168154811061168057fe5b6000918252602090912001546001600160a01b03169190613ef4565b604080518a81526020810186905260ff8a168183015260608101839052905133917f43fb02998f4e03da2e0e6fff53fdbf0c40a9f45f145dc377fc30615d7d7a8a64919081900360800190a29450505050505b95945050505050565b6000606085600a0180548060200260200160405190810160405280929190818152602001828054801561175457602002820191906000526020600020905b81546001600160a01b03168152600190910190602001808311611736575b5050505050905085600a01805490508451146117b7576040805162461bcd60e51b815260206004820181905260248201527f416d6f756e7473206d757374206d6174636820706f6f6c656420746f6b656e73604482015290519081900360640190fd5b6060815167ffffffffffffffff811180156117d157600080fd5b506040519080825280602002602001820160405280156117fb578160200160208202803683370190505b509050611806614ac4565b604080516101208101825260008082526020820181905291810182905260098a01546001600160a01b03166060820152608081019190915260a0810161184b8a612082565b815260200161185989613a23565b815260200189600b018054806020026020016040519081016040528092919081815260200182805480156118ac57602002820191906000526020600020905b815481526020019060010190808311611898575b5050505050815260200189600c0180548060200260200160405190810160405280929190818152602001828054801561190457602002820191906000526020600020905b8154815260200190600101908083116118f0575b5050505050815250905080606001516001600160a01b03166318160ddd6040518163ffffffff1660e01b815260040160206040518083038186803b15801561194b57600080fd5b505afa15801561195f573d6000803e3d6000fd5b505050506040513d602081101561197557600080fd5b505160808201819052156119ab576119a861199e8261010001518360e001518460c00151613fcf565b8260a001516135db565b81525b60005b8351811015611bee5760808201511515806119dc575060008782815181106119d257fe5b6020026020010151115b611a2d576040805162461bcd60e51b815260206004820152601e60248201527f4d75737420737570706c7920616c6c20746f6b656e7320696e20706f6f6c0000604482015290519081900360640190fd5b868181518110611a3957fe5b6020026020010151600014611ba2576000848281518110611a5657fe5b60200260200101516001600160a01b03166370a08231306040518263ffffffff1660e01b815260040180826001600160a01b0316815260200191505060206040518083038186803b158015611aaa57600080fd5b505afa158015611abe573d6000803e3d6000fd5b505050506040513d6020811015611ad457600080fd5b50518851909150611b2490339030908b9086908110611aef57fe5b6020026020010151888681518110611b0357fe5b60200260200101516001600160a01b0316613ac6909392919063ffffffff16565b611b8881868481518110611b3457fe5b60200260200101516001600160a01b03166370a08231306040518263ffffffff1660e01b815260040180826001600160a01b0316815260200191505060206040518083038186803b158015610a7257600080fd5b888381518110611b9457fe5b602002602001018181525050505b611bca878281518110611bb157fe5b60200260200101518361010001518381518110610f1c57fe5b8261010001518281518110611bdb57fe5b60209081029190910101526001016119ae565b50611c0a61199e8261010001518360e001518460c00151613fcf565b60208201819052815110611c59576040805162461bcd60e51b8152602060048201526011602482015270442073686f756c6420696e63726561736560781b604482015290519081900360640190fd5b60208101516040820152608081015160009015611e93576000611c7b8a614103565b905060005b8551811015611e3e576000611cc3856000015161069a8e600c018581548110611ca557fe5b906000526020600020015488602001516137b290919063ffffffff16565b9050611d756402540be40061069a83733382D6140c6f3F29190f642FC19DBD1c8550D53063a95cb7f790918a61010001518881518110611cff57fe5b60200260200101516040518363ffffffff1660e01b8152600401808381526020018281526020019250505060206040518083038186803b158015611d4257600080fd5b505af4158015611d56573d6000803e3d6000fd5b505050506040513d6020811015611d6c57600080fd5b505186906137b2565b868381518110611d8157fe5b602002602001018181525050611dd4611dc36402540be40061069a8f600501548a8781518110611dad57fe5b60200260200101516137b290919063ffffffff16565b8661010001518481518110610de957fe5b8c600c018381548110611de357fe5b9060005260206000200181905550611e19868381518110611e0057fe5b60200260200101518661010001518481518110610de957fe5b8561010001518381518110611e2a57fe5b602090810291909101015250600101611c80565b50611e64611e5a8461010001518560e001518660c00151613fcf565b8460a001516135db565b6040840181905283516080850151611e8b9261069a9190611e859084613b26565b906137b2565b915050611eb7565b6101008201518051611eaf91600c8c0191602090910190614b19565b505060208101515b85811015611f0c576040805162461bcd60e51b815260206004820152601b60248201527f436f756c646e2774206d696e74206d696e207265717565737465640000000000604482015290519081900360640190fd5b6009890154604080516340c10f1960e01b81523360048201526024810184905290516001600160a01b03909216916340c10f199160448082019260009290919082900301818387803b158015611f6157600080fd5b505af1158015611f75573d6000803e3d6000fd5b50505050336001600160a01b03167f189c623b666b1b45b83d7178f39b8c087cb09774317ca2f53c2d3c3726f222a288858560200151611fc2868860800151613be090919063ffffffff16565b604051808060200180602001858152602001848152602001838103835287818151815260200191508051906020019060200280838360005b83811015612012578181015183820152602001611ffa565b50505050905001838103825286818151815260200191508051906020019060200280838360005b83811015612051578181015183820152602001612039565b50505050905001965050505050505060405180910390a293505050505b949350505050565b670de0b6b3a764000081565b60038101546001820154600091904282111561210e5760028401548454808311156120e0576120d56120ce6120b78685613b26565b61069a6120c44287613b26565b611e858887613b26565b8290613be0565b945050505050612117565b6120d56121076120f08685613b26565b61069a6120fd4287613b26565b611e858689613b26565b8290613b26565b91506121179050565b919050565b6000612126614ac4565b604080516101208101825260008082526020820181905291810182905260098801546001600160a01b03166060820152608081019190915260a0810161216b88612082565b815260200161217987613a23565b815260200187600b018054806020026020016040519081016040528092919081815260200182805480156121cc57602002820191906000526020600020905b8154815260200190600101908083116121b8575b5050505050815260200187600c0180548060200260200160405190810160405280929190818152602001828054801561222457602002820191906000526020600020905b815481526020019060010190808311612210575b5050505050815250905080606001516001600160a01b03166318160ddd6040518163ffffffff1660e01b815260040160206040518083038186803b15801561226b57600080fd5b505afa15801561227f573d6000803e3d6000fd5b505050506040513d602081101561229557600080fd5b50516080820152610100810151518451146122f7576040805162461bcd60e51b815260206004820181905260248201527f416d6f756e74732073686f756c64206d6174636820706f6f6c20746f6b656e73604482015290519081900360640190fd5b80606001516001600160a01b03166370a08231336040518263ffffffff1660e01b815260040180826001600160a01b0316815260200191505060206040518083038186803b15801561234857600080fd5b505afa15801561235c573d6000803e3d6000fd5b505050506040513d602081101561237257600080fd5b5051831180159061238257508215155b6123c3576040805162461bcd60e51b815260206004820152600d60248201526c1f2628173130b630b731b2a7b360991b604482015290519081900360640190fd5b60006123ce87614103565b905060608261010001515167ffffffffffffffff811180156123ef57600080fd5b50604051908082528060200260200182016040528015612419578160200160208202803683370190505b50905060608361010001515167ffffffffffffffff8111801561243b57600080fd5b50604051908082528060200260200182016040528015612465578160200160208202803683370190505b50905061248d6124838561010001518660e001518760c00151613fcf565b8560a001516135db565b845260005b84610100015151811015612517576124f88882815181106124af57fe5b6020026020010151604051806060016040528060238152602001614c5d6023913987610100015184815181106124e157fe5b60200260200101516141939092919063ffffffff16565b82828151811061250457fe5b6020908102919091010152600101612492565b5061252e612483828660e001518760c00151613fcf565b602085015260005b846101000151518110156126d357600061257d866000015161069a886101000151858151811061256257fe5b602002602001015189602001516137b290919063ffffffff16565b9050600081733382D6140c6f3F29190f642FC19DBD1c8550D53063a95cb7f790918686815181106125aa57fe5b60200260200101516040518363ffffffff1660e01b8152600401808381526020018281526020019250505060206040518083038186803b1580156125ed57600080fd5b505af4158015612601573d6000803e3d6000fd5b505050506040513d602081101561261757600080fd5b5051905061262e6402540be40061069a88846137b2565b85848151811061263a57fe5b6020026020010181815250506126726126666402540be40061069a8f60050154898881518110611dad57fe5b858581518110610de957fe5b8c600c01848154811061268157fe5b90600052602060002001819055506126b285848151811061269e57fe5b6020026020010151858581518110610de957fe5b8484815181106126be57fe5b60209081029190910101525050600101612536565b506126ea612483828660e001518760c00151613fcf565b6040850181905284516080860151600093506127109261069a9190611e85908490613b26565b905080612764576040805162461bcd60e51b815260206004820152601b60248201527f4275726e7420616d6f756e742063616e6e6f74206265207a65726f0000000000604482015290519081900360640190fd5b6127946127806127748b336131aa565b6402540be40090613b26565b61069a6402540be400611e85856001613be0565b9050858111156127eb576040805162461bcd60e51b815260206004820152601b60248201527f746f6b656e416d6f756e74203e206d61784275726e416d6f756e740000000000604482015290519081900360640190fd5b83606001516001600160a01b03166379cc679033836040518363ffffffff1660e01b815260040180836001600160a01b0316815260200182815260200192505050600060405180830381600087803b15801561284657600080fd5b505af115801561285a573d6000803e3d6000fd5b5050505060005b8461010001515181101561289e576128963389838151811061287f57fe5b60200260200101518c600a01848154811061168057fe5b600101612861565b50336001600160a01b03167f3631c28b1f9dd213e0319fb167b554d76b6c283a41143eb400a0d1adb1af175588848760200151611fc2868a60800151613b2690919063ffffffff16565b60006128f2614b64565b6040518060e001604052806129068861350a565b815287546001600160a01b03166020820152600060408201819052600389015460ff166060808401919091526080830182905260a0830182905260c090920152815191925090612957908990613523565b80516000190160ff908116604085018190526060850151929350919091019081811690881610801561298e57508060ff168660ff16105b6129da576040805162461bcd60e51b8152602060048201526018602482015277546f6b656e20696e646578206f7574206f662072616e676560401b604482015290519081900360640190fd5b50816040015160ff168660ff161015612a3857612a2e612a1f89600b018860ff1681548110612a0557fe5b9060005260206000200154866137b290919063ffffffff16565b828860ff1681518110610f1c57fe5b60a0830152612c6c565b6040820151958690039560ff9081169086161015612bca576060826060015160ff1667ffffffffffffffff81118015612a7057600080fd5b50604051908082528060200260200182016040528015612a9a578160200160208202803683370190505b50905084818860ff1681518110612aad57fe5b602002602001018181525050612bbf82846040015160ff1681518110612acf57fe5b6020026020010151610d9f670de0b6b3a764000061069a876000015188602001516001600160a01b031663f9273ffb308960016040518463ffffffff1660e01b815260040180846001600160a01b03168152602001806020018315158152602001828103825284818151815260200191508051906020019060200280838360005b83811015612b68578181015183820152602001612b50565b5050505090500194505050505060206040518083038186803b158015612b8d57600080fd5b505afa158015612ba1573d6000803e3d6000fd5b505050506040513d6020811015612bb757600080fd5b5051906137b2565b60a084015250612c64565b81602001516001600160a01b031663a95b089f8784604001518803876040518463ffffffff1660e01b8152600401808460ff1681526020018360ff168152602001828152602001935050505060206040518083038186803b158015612c2e57600080fd5b505afa158015612c42573d6000803e3d6000fd5b505050506040513d6020811015612c5857600080fd5b505192506116ef915050565b816040015195505b604082015160ff908116608084018190529086161015612c905760ff851660808301525b6000612caf612c9e8a612082565b8885608001518660a0015186613c3a565b9050612ccd6001610dff8385876080015160ff1681518110610de957fe5b60c0840181905260048a0154600091612cf0916402540be4009161069a916137b2565b60c0850151909150612d029082613b26565b60c08501525050604082015160ff9081169086161015612d5d57612d5388600b01836080015160ff1681548110612d3557fe5b90600052602060002001548360c0015161380b90919063ffffffff16565b60c0830152612e1f565b81602001516001600160a01b03166398899f4030612d98856000015161069a670de0b6b3a76400008860c001516137b290919063ffffffff16565b856040015189036040518463ffffffff1660e01b815260040180846001600160a01b031681526020018381526020018260ff168152602001935050505060206040518083038186803b158015612ded57600080fd5b505afa158015612e01573d6000803e3d6000fd5b505050506040513d6020811015612e1757600080fd5b505160c08301525b5060c001519695505050505050565b600080600088600a018760ff1681548110612e4557fe5b60009182526020918290200154604080516370a0823160e01b815233600482015290516001600160a01b03909216935083926370a0823192602480840193829003018186803b158015612e9757600080fd5b505afa158015612eab573d6000803e3d6000fd5b505050506040513d6020811015612ec157600080fd5b5051851115612f17576040805162461bcd60e51b815260206004820152601d60248201527f43616e6e6f742073776170206d6f7265207468616e20796f75206f776e000000604482015290519081900360640190fd5b6000816001600160a01b03166370a08231306040518263ffffffff1660e01b815260040180826001600160a01b0316815260200191505060206040518083038186803b158015612f6657600080fd5b505afa158015612f7a573d6000803e3d6000fd5b505050506040513d6020811015612f9057600080fd5b50519050612fa96001600160a01b038316333089613ac6565b612ffa81836001600160a01b03166370a08231306040518263ffffffff1660e01b815260040180826001600160a01b0316815260200191505060206040518083038186803b158015610a7257600080fd5b925050506000806130118a8989866106ca8e613a23565b915091508482101561306a576040805162461bcd60e51b815260206004820181905260248201527f53776170206469646e277420726573756c7420696e206d696e20746f6b656e73604482015290519081900360640190fd5b60006130ac8b600b018960ff168154811061308157fe5b906000526020600020015461069a6402540be40061069a8f60050154876137b290919063ffffffff16565b90506130dd848c600c018b60ff16815481106130c457fe5b9060005260206000200154613be090919063ffffffff16565b8b600c018a60ff16815481106130ef57fe5b906000526020600020018190555061311781610dff858e600c018c60ff16815481106115ce57fe5b8b600c018960ff168154811061312957fe5b906000526020600020018190555061314e33848d600a018b60ff168154811061168057fe5b604080518581526020810185905260ff808c16828401528a166060820152905133917fc6c1e0630dbe9130cc068028486c0d118ddcea348550819defd5cb8c257f8a38919081900360800190a250909998505050505050505050565b6001600160a01b0381166000908152600d8301602052604081205481906131d4906224ea00613be0565b9050428111156132475760006131ea8242613b26565b905061323e6402540be40061069a6224ea0061069a85611e858b600e0160008c6001600160a01b03166001600160a01b03168152602001908152602001600020548c600701546137b290919063ffffffff16565b925050506106b2565b5060009392505050565b61025881565b606481565b60006106cf8685858561326e8a61350a565b8b60090160009054906101000a90046001600160a01b03166001600160a01b03166318160ddd6040518163ffffffff1660e01b815260040160206040518083038186803b1580156132be57600080fd5b505afa1580156132d2573d6000803e3d6000fd5b505050506040513d60208110156132e857600080fd5b5051613f4b565b6000806132fb88612082565b9050600080600061330b8a61350a565b905060608b600c0180548060200260200160405190810160405280929190818152602001828054801561335d57602002820191906000526020600020905b815481526020019060010190808311613349575b5050505050905060008151905061337e6133788e8486613b83565b876135db565b945060005b8181101561342c5788156133d0576133b38b8b838181106133a057fe5b90506020020135848381518110610f1c57fe5b8382815181106133bf57fe5b602002602001018181525050613424565b61340b8b8b838181106133df57fe5b90506020020135604051806060016040528060238152602001614c5d602391398584815181106124e157fe5b83828151811061341757fe5b6020026020010181815250505b600101613383565b5061343b6133788e8486613b83565b935050505060008a60090160009054906101000a90046001600160a01b03166001600160a01b03166318160ddd6040518163ffffffff1660e01b815260040160206040518083038186803b15801561349257600080fd5b505afa1580156134a6573d6000803e3d6000fd5b505050506040513d60208110156134bc57600080fd5b5051905085156134e3576134d88361069a83611e858684613b26565b9450505050506113a2565b6134d86134f36127748d8c6131aa565b61069a6402540be400611e8587838783838b613b26565b80546000906106b29083906001600160a01b031661422a565b60606135d483600c0180548060200260200160405190810160405280929190818152602001828054801561357657602002820191906000526020600020905b815481526020019060010190808311613562575b505050505084600b018054806020026020016040519081016040528092919081815260200182805480156135c957602002820191906000526020600020905b8154815260200190600101908083116135b5575b505050505084613fcf565b9392505050565b815160009081805b8281101561361b576136118682815181106135fa57fe5b602002602001015183613be090919063ffffffff16565b91506001016135e3565b508061362c576000925050506106b2565b6000818161363a87866137b2565b905060005b61010081101561376e578260005b8781101561367c57613672613668898d8481518110611dad57fe5b61069a84886137b2565b915060010161364d565b5092935083926136ca6136aa61369783611e858b6001613be0565b610d9f606461069a89611e858a84613b26565b61069a86611e856136bb868d6137b2565b610d9f606461069a8b8f6137b2565b935083733382D6140c6f3F29190f642FC19DBD1c8550D5306313a1ec759091876040518363ffffffff1660e01b8152600401808381526020018281526020019250505060206040518083038186803b15801561372557600080fd5b505af4158015613739573d6000803e3d6000fd5b505050506040513d602081101561374f57600080fd5b50511561376557839750505050505050506106b2565b5060010161363f565b506040805162461bcd60e51b81526020600482015260136024820152724420646f6573206e6f7420636f6e766572676560681b604482015290519081900360640190fd5b6000826137c1575060006106b2565b828202828482816137ce57fe5b04146135d45760405162461bcd60e51b8152600401808060200182810382526021815260200180614c126021913960400191505060405180910390fd5b6000808211613861576040805162461bcd60e51b815260206004820152601a60248201527f536166654d6174683a206469766973696f6e206279207a65726f000000000000604482015290519081900360640190fd5b81838161386a57fe5b049392505050565b60008060606138818885613523565b905080518760ff16108015613899575080518660ff16105b6138e5576040805162461bcd60e51b8152602060048201526018602482015277546f6b656e20696e646578206f7574206f662072616e676560401b604482015290519081900360640190fd5b80516000906138f5906001613b26565b9050600061390e8a600b018a60ff1681548110610b0257fe5b9050818960ff16141561393457613931670de0b6b3a764000061069a83896137b2565b90505b61395d838a60ff168151811061394657fe5b602002602001015182613be090919063ffffffff16565b9050600061397661396d8c612082565b8b8b8588613c3a565b90506139906001610dff83878d60ff1681518110610de957fe5b9550828960ff1614156139b6576139b38761069a88670de0b6b3a76400006137b2565b95505b6139d66402540be40061069a8d60040154896137b290919063ffffffff16565b94506139e28686613b26565b9550613a138b600b018a60ff16815481106139f957fe5b90600052602060002001548761380b90919063ffffffff16565b9550505050509550959350505050565b6000610258826002015401421115613abb5781546040805163712d52fd60e11b815290516000926001600160a01b03169163e25aa5fa916004808301926020929190829003018186803b158015613a7957600080fd5b505afa158015613a8d573d6000803e3d6000fd5b505050506040513d6020811015613aa357600080fd5b50516001840181905542600285015591506121179050565b506001810154612117565b604080516001600160a01b0380861660248301528416604482015260648082018490528251808303909101815260849091019091526020810180516001600160e01b03166323b872dd60e01b179052613b209085906142b3565b50505050565b600082821115613b7d576040805162461bcd60e51b815260206004820152601e60248201527f536166654d6174683a207375627472616374696f6e206f766572666c6f770000604482015290519081900360640190fd5b50900390565b606061206e8385600b018054806020026020016040519081016040528092919081815260200182805480156135c957602002820191906000526020600020908154815260200190600101908083116135b557505050505084613fcf565b6000828201838110156135d4576040805162461bcd60e51b815260206004820152601b60248201527f536166654d6174683a206164646974696f6e206f766572666c6f770000000000604482015290519081900360640190fd5b805160009060ff8681169086161415613c9a576040805162461bcd60e51b815260206004820152601d60248201527f43616e277420636f6d7061726520746f6b656e20746f20697473656c66000000604482015290519081900360640190fd5b808660ff16108015613cae5750808560ff16105b613cf8576040805162461bcd60e51b8152602060048201526016602482015275151bdad95b9cc81b5d5cdd081899481a5b881c1bdbdb60521b604482015290519081900360640190fd5b6000613d0484896135db565b905080600080613d14858c6137b2565b90506000805b86811015613d8d578b60ff16811415613d3557899150613d5f565b8a60ff168114613d5a57888181518110613d4b57fe5b60200260200101519150613d5f565b613d85565b613d698483613be0565b9350613d82613d7883896137b2565b61069a87896137b2565b94505b600101613d1a565b50613daa613d9b83886137b2565b61069a6064611e85888a6137b2565b93506000613dc7613dc08461069a8960646137b2565b8590613be0565b9050600086815b610100811015613ea6579091508190613e01613df38a610dff87610d9f8760026137b2565b61069a8a610d9f86806137b2565b915081733382D6140c6f3F29190f642FC19DBD1c8550D5306313a1ec759091856040518363ffffffff1660e01b8152600401808381526020018281526020019250505060206040518083038186803b158015613e5c57600080fd5b505af4158015613e70573d6000803e3d6000fd5b505050506040513d6020811015613e8657600080fd5b505115613e9e575098506116ef975050505050505050565b600101613dce565b506040805162461bcd60e51b815260206004820152601e60248201527f417070726f78696d6174696f6e20646964206e6f7420636f6e76657267650000604482015290519081900360640190fd5b604080516001600160a01b038416602482015260448082018490528251808303909101815260649091019091526020810180516001600160e01b031663a9059cbb60e01b179052613f469084906142b3565b505050565b600080600080600080613f618c8a8c8b8b614364565b809450819350829650505050613f9c84610dff8e600b018c60ff1681548110613f8657fe5b60009182526020909120015461069a8686613b26565b92505050613fc06402540be40061069a613fb96127748e8e6131aa565b85906137b2565b9a909950975050505050505050565b8251825160609190811461402a576040805162461bcd60e51b815260206004820152601f60248201527f42616c616e636573206d757374206d61746368206d756c7469706c6965727300604482015290519081900360640190fd5b60608167ffffffffffffffff8111801561404357600080fd5b5060405190808252806020026020018201604052801561406d578160200160208202803683370190505b50905060005b828110156140bd5761409e86828151811061408a57fe5b6020026020010151888381518110611dad57fe5b8282815181106140aa57fe5b6020908102919091010152600101614073565b5060006001830390506140e2670de0b6b3a764000061069a87858581518110611dad57fe5b8282815181106140ee57fe5b60209081029190910101525095945050505050565b6000606082600a0180548060200260200160405190810160405280929190818152602001828054801561415f57602002820191906000526020600020905b81546001600160a01b03168152600190910190602001808311614141575b505050505090506135d46141836004611e8560018551613b2690919063ffffffff16565b8251600486015461069a916137b2565b600081848411156142225760405162461bcd60e51b81526004018080602001828103825283818151815260200191508051906020019080838360005b838110156141e75781810151838201526020016141cf565b50505050905090810190601f1680156142145780820380516001836020036101000a031916815260200191505b509250505060405180910390fd5b505050900390565b60006102588360020154014211156142a857816001600160a01b031663e25aa5fa6040518163ffffffff1660e01b815260040160206040518083038186803b15801561427557600080fd5b505afa158015614289573d6000803e3d6000fd5b505050506040513d602081101561429f57600080fd5b505190506106b2565b5060018201546106b2565b6060614308826040518060400160405280602081526020017f5361666545524332303a206c6f772d6c6576656c2063616c6c206661696c6564815250856001600160a01b03166146a89092919063ffffffff16565b805190915015613f465780806020019051602081101561432757600080fd5b5051613f465760405162461bcd60e51b815260040180806020018281038252602a815260200180614c33602a913960400191505060405180910390fd5b600080600060606143758987613523565b905080518860ff16106143ca576040805162461bcd60e51b8152602060048201526018602482015277546f6b656e20696e646578206f7574206f662072616e676560401b604482015290519081900360640190fd5b6143d2614ba0565b6040518060c001604052806000815260200160008152602001600081526020016000815260200160008152602001600081525090506144108a612082565b608082018190526144229083906135db565b8082526144429061443a90889061069a908c906137b2565b825190613b26565b60208201528151829060ff8b1690811061445857fe5b60200260200101518811156144b4576040805162461bcd60e51b815260206004820152601a60248201527f5769746864726177206578636565647320617661696c61626c65000000000000604482015290519081900360640190fd5b6144c881608001518a8484602001516146b7565b6040820152815160609067ffffffffffffffff811180156144e857600080fd5b50604051908082528060200260200182016040528015614512578160200160208202803683370190505b50905061451e8b614103565b606083015260005b83518110156145f55783818151811061453b57fe5b60200260200101518360a00181815250506145d66145cb6402540be40061069a86606001518f60ff1686146145a05761459b614590896000015161069a8b602001518c60a001516137b290919063ffffffff16565b60a08a015190613b26565b611e85565b611e858860400151610dff8a6000015161069a8c602001518d60a001516137b290919063ffffffff16565b60a085015190613b26565b8282815181106145e257fe5b6020908102919091010152600101614526565b50600061461e61460f84608001518d8587602001516146b7565b838d60ff1681518110610de957fe5b905061464c8c600b018c60ff168154811061463557fe5b60009182526020909120015461069a836001613b26565b905060018451038b60ff161415614676576146738961069a83670de0b6b3a76400006137b2565b90505b808360400151858d60ff168151811061468b57fe5b602002602001015196509650965050505050955095509592505050565b606061206e8484600085614891565b815160009060ff85168111614705576040805162461bcd60e51b815260206004820152600f60248201526e151bdad95b881b9bdd08199bdd5b99608a1b604482015290519081900360640190fd5b8260008061471389856137b2565b905060005b8481101561477a578860ff1681146147725761475088828151811061473957fe5b602002602001015184613be090919063ffffffff16565b925061476f614765868a8481518110611dad57fe5b61069a868a6137b2565b93505b600101614718565b5061479761478882866137b2565b61069a6064611e85878b6137b2565b925060006147b46147ad8361069a8a60646137b2565b8490613be0565b9050600087815b610100811015613ea65790915081906147ee6147e08b610dff87610d9f8760026137b2565b61069a89610d9f86806137b2565b915081733382D6140c6f3F29190f642FC19DBD1c8550D5306313a1ec759091856040518363ffffffff1660e01b8152600401808381526020018281526020019250505060206040518083038186803b15801561484957600080fd5b505af415801561485d573d6000803e3d6000fd5b505050506040513d602081101561487357600080fd5b5051156148895750965061206e95505050505050565b6001016147bb565b6060824710156148d25760405162461bcd60e51b8152600401808060200182810382526026815260200180614bec6026913960400191505060405180910390fd5b6148db856149ed565b61492c576040805162461bcd60e51b815260206004820152601d60248201527f416464726573733a2063616c6c20746f206e6f6e2d636f6e7472616374000000604482015290519081900360640190fd5b60006060866001600160a01b031685876040518082805190602001908083835b6020831061496b5780518252601f19909201916020918201910161494c565b6001836020036101000a03801982511681845116808217855250505050505090500191505060006040518083038185875af1925050503d80600081146149cd576040519150601f19603f3d011682016040523d82523d6000602084013e6149d2565b606091505b50915091506149e28282866149f3565b979650505050505050565b3b151590565b60608315614a025750816135d4565b825115614a125782518084602001fd5b60405162461bcd60e51b81526020600482018181528451602484015284518593919283926044019190850190808383600083156141e75781810151838201526020016141cf565b604051806101400160405280600081526020016000815260200160008152602001600060ff168152602001600060ff168152602001606081526020016060815260200160006001600160a01b0316815260200160006001600160a01b03168152602001600081525090565b60405180610120016040528060008152602001600081526020016000815260200160006001600160a01b0316815260200160008152602001600081526020016000815260200160608152602001606081525090565b828054828255906000526020600020908101928215614b54579160200282015b82811115614b54578251825591602001919060010190614b39565b50614b60929150614bd6565b5090565b6040805160e081018252600080825260208201819052918101829052606081018290526080810182905260a0810182905260c081019190915290565b6040518060c001604052806000815260200160008152602001600081526020016000815260200160008152602001600081525090565b5b80821115614b605760008155600101614bd756fe416464726573733a20696e73756666696369656e742062616c616e636520666f722063616c6c536166654d6174683a206d756c7469706c69636174696f6e206f766572666c6f775361666545524332303a204552433230206f7065726174696f6e20646964206e6f74207375636365656443616e6e6f74207769746864726177206d6f7265207468616e20617661696c61626c65a2646970667358221220b9e860cad3900cb4bcffcfb4901d9137ceb3b0180ec0d7f0bb8cb71523c7687c64736f6c634300060c0033",
  "deployedBytecode": "0x730000000000000000000000000000000000000000301460806040526004361061010a5760003560e01c8063a892cd87116100a1578063becf967c11610070578063becf967c1461048a578063d011f91814610492578063d8b3a90d1461049a578063e04f37cd146104db5761010a565b8063a892cd8714610315578063a8a50ed7146103d3578063b2a491641461040f578063bbca125c1461045e5761010a565b80635dbcca1e116100dd5780635dbcca1e146101ed5780638995f39514610232578063a28c2341146102f0578063a7df2f89146102f85761010a565b80630296ab501461010f5780631160c0241461012d5780632b27b26d146101625780633edc82d81461019e575b600080fd5b610117610569565b6040805160ff9092168252519081900360200190f35b6101506004803603604081101561014357600080fd5b508035906020013561056e565b60408051918252519081900360200190f35b610150600480360360a081101561017857600080fd5b5080359060208101359060ff6040820135811691606081013590911690608001356106b8565b8180156101aa57600080fd5b50610150600480360360c08110156101c157600080fd5b5080359060208101359060ff604082013581169160608101359091169060808101359060a001356106da565b8180156101f957600080fd5b50610150600480360360a081101561021057600080fd5b5080359060208101359060408101359060ff60608201351690608001356113ac565b81801561023e57600080fd5b506101506004803603608081101561025557600080fd5b81359160208101359181019060608101604082013564010000000081111561027c57600080fd5b82018360208201111561028e57600080fd5b803590602001918460208302840111640100000000831117156102b057600080fd5b91908080602002602001604051908101604052809392919081815260200183836020028082843760009201919091525092955050913592506116f8915050565b610150612076565b6101506004803603602081101561030e57600080fd5b5035612082565b81801561032157600080fd5b506101506004803603608081101561033857600080fd5b81359160208101359181019060608101604082013564010000000081111561035f57600080fd5b82018360208201111561037157600080fd5b8035906020019184602083028401116401000000008311171561039357600080fd5b919080806020026020016040519081016040528093929190818152602001838360200280828437600092019190915250929550509135925061211c915050565b610150600480360360a08110156103e957600080fd5b5080359060208101359060ff6040820135811691606081013590911690608001356128e8565b81801561041b57600080fd5b50610150600480360360c081101561043257600080fd5b5080359060208101359060ff604082013581169160608101359091169060808101359060a00135612e2e565b6101506004803603604081101561047457600080fd5b50803590602001356001600160a01b03166131aa565b610150613251565b610150613257565b610150600480360360a08110156104b057600080fd5b5080359060208101359060408101356001600160a01b0316906060810135906080013560ff1661325c565b610150600480360360a08110156104f157600080fd5b8135916020810135916001600160a01b03604083013516919081019060808101606082013564010000000081111561052857600080fd5b82018360208201111561053a57600080fd5b8035906020019184602083028401116401000000008311171561055c57600080fd5b91935091503515156132ef565b601281565b600080610594610586856105818661350a565b613523565b61058f86612082565b6135db565b905060008460090160009054906101000a90046001600160a01b031690506000816001600160a01b03166318160ddd6040518163ffffffff1660e01b815260040160206040518083038186803b1580156105ed57600080fd5b505afa158015610601573d6000803e3d6000fd5b505050506040513d602081101561061757600080fd5b5051905080156106aa576106a08161069a846001600160a01b031663313ce5676040518163ffffffff1660e01b815260040160206040518083038186803b15801561066157600080fd5b505afa158015610675573d6000803e3d6000fd5b505050506040513d602081101561068b57600080fd5b5051869060ff16600a0a6137b2565b9061380b565b93505050506106b2565b600093505050505b92915050565b60006106cf868585856106ca8a61350a565b613872565b509695505050505050565b60006106e4614a59565b604051806101400160405280600081526020016000815260200160008152602001600060ff168152602001600060ff16815260200189600c0180548060200260200160405190810160405280929190818152602001828054801561076757602002820191906000526020600020905b815481526020019060010190808311610753575b50505050508152602001886003018054806020026020016040519081016040528092919081815260200182805480156107c957602002820191906000526020600020905b81546001600160a01b031681526001909101906020018083116107ab575b505050918352505060006020820181905260408201526060016107eb89613a23565b8152509050600060018260a001515103905060008260c0015151820190508060ff168860ff1610801561082357508060ff168760ff16105b61086f576040805162461bcd60e51b8152602060048201526018602482015277546f6b656e20696e646578206f7574206f662072616e676560401b604482015290519081900360640190fd5b5087546001600160a01b031660ff80831690891610156108c35789600a018860ff168154811061089b57fe5b6000918252602090912001546001600160a01b031660e084015260ff881660608401526108fb565b8260c0015182890360ff16815181106108d857fe5b60209081029190910101516001600160a01b031660e084015260ff821660608401525b8160ff168760ff1610156109445789600a018760ff168154811061091b57fe5b6000918252602090912001546001600160a01b031661010084015260ff8716608084015261097d565b8260c0015182880360ff168151811061095957fe5b60209081029190910101516001600160a01b031661010084015260ff821660808401525b8260e001516001600160a01b03166370a08231306040518263ffffffff1660e01b815260040180826001600160a01b0316815260200191505060206040518083038186803b1580156109ce57600080fd5b505afa1580156109e2573d6000803e3d6000fd5b505050506040513d60208110156109f857600080fd5b5051602084015260e0830151610a19906001600160a01b0316333089613ac6565b610aa483602001518460e001516001600160a01b03166370a08231306040518263ffffffff1660e01b815260040180826001600160a01b0316815260200191505060206040518083038186803b158015610a7257600080fd5b505afa158015610a86573d6000803e3d6000fd5b505050506040513d6020811015610a9c57600080fd5b505190613b26565b602084015260ff8083169089161080610ac257508160ff168760ff16105b156111a5576060610add8b8560a00151866101200151613b83565b90508260ff168960ff161015610b3e57610b1c8b600b018a60ff1681548110610b0257fe5b9060005260206000200154886137b290919063ffffffff16565b818a60ff1681518110610b2b57fe5b6020908102919091010151018452610daa565b60608460c001515167ffffffffffffffff81118015610b5c57600080fd5b50604051908082528060200260200182016040528015610b86578160200160208202803683370190505b509050846020015181858c0360ff1681518110610b9f57fe5b60200260200101818152505060008c600a018560ff1681548110610bbf57fe5b60009182526020918290200154604080516370a0823160e01b815230600482015290516001600160a01b03909216935083926370a0823192602480840193829003018186803b158015610c1157600080fd5b505afa158015610c25573d6000803e3d6000fd5b505050506040513d6020811015610c3b57600080fd5b50518652604051634d49e87d60e01b815260006024820181905242604483018190526060600484019081528551606485015285516001600160a01b03891694634d49e87d948894909390929091829160849091019060208781019102808383895b83811015610cb4578181015183820152602001610c9c565b50505050905001945050505050602060405180830381600087803b158015610cdb57600080fd5b505af1158015610cef573d6000803e3d6000fd5b505050506040513d6020811015610d0557600080fd5b50508551604080516370a0823160e01b81523060048201529051610d5592916001600160a01b038516916370a0823191602480820192602092909190829003018186803b158015610a7257600080fd5b60208701528251610da590849060ff8816908110610d6f57fe5b6020026020010151610d9f670de0b6b3a764000061069a8a61012001518b602001516137b290919063ffffffff16565b90613be0565b865250505b600080610dcb610db98e612082565b60608801516080890151895187613c3a565b9050610e056001610dff83868a6080015160ff1681518110610de957fe5b6020026020010151613b2690919063ffffffff16565b90613b26565b6040870181905260048e0154610e26916402540be4009161069a91906137b2565b9150610e638d600b01876080015160ff1681548110610e4157fe5b906000526020600020015461069a848960400151613b2690919063ffffffff16565b60408701525060ff808516908a1610610ea457610e9e85610120015161069a670de0b6b3a764000088604001516137b290919063ffffffff16565b60408601525b6000610ec66402540be40061069a8f60050154856137b290919063ffffffff16565b9050610efb8d600b01876080015160ff1681548110610ee157fe5b90600052602060002001548261380b90919063ffffffff16565b9050610f3286602001518760a00151886060015160ff1681518110610f1c57fe5b6020026020010151613be090919063ffffffff16565b8d600c01876060015160ff1681548110610f4857fe5b9060005260206000200181905550610f7981610dff88604001518960a001518a6080015160ff1681518110610de957fe5b8d600c01876080015160ff1681548110610f8f57fe5b9060005260206000200181905550508360ff168960ff16106111455760008561010001516001600160a01b03166370a08231306040518263ffffffff1660e01b815260040180826001600160a01b0316815260200191505060206040518083038186803b158015610fff57600080fd5b505afa158015611013573d6000803e3d6000fd5b505050506040513d602081101561102957600080fd5b505160408088015181516301f1d0ab60e51b8152600481019190915260ff888e0316602482015260006044820181905242606483015291519293506001600160a01b03871692633e3a156092608480840193602093929083900390910190829087803b15801561109857600080fd5b505af11580156110ac573d6000803e3d6000fd5b505050506040513d60208110156110c257600080fd5b5050610100860151604080516370a0823160e01b8152306004820152905183926001600160a01b0316916370a08231916024808301926020929190829003018186803b15801561111157600080fd5b505afa158015611125573d6000803e3d6000fd5b505050506040513d602081101561113b57600080fd5b5051036040870152505b868560400151101561119e576040805162461bcd60e51b815260206004820181905260248201527f53776170206469646e277420726573756c7420696e206d696e20746f6b656e73604482015290519081900360640190fd5b5050611320565b8261010001516001600160a01b03166370a08231306040518263ffffffff1660e01b815260040180826001600160a01b0316815260200191505060206040518083038186803b1580156111f757600080fd5b505afa15801561120b573d6000803e3d6000fd5b505050506040513d602081101561122157600080fd5b505160408085019190915260208481015182516348b4aac360e11b815260ff868d0381166004830152868c0316602482015260448101919091526064810188905242608482015291516001600160a01b0384169263916955869260a48083019391928290030181600087803b15801561129957600080fd5b505af11580156112ad573d6000803e3d6000fd5b505050506040513d60208110156112c357600080fd5b505060408084015161010085015182516370a0823160e01b8152306004820152925161131a936001600160a01b03909216916370a08231916024808301926020929190829003018186803b158015610a7257600080fd5b60408401525b6113473384604001518561010001516001600160a01b0316613ef49092919063ffffffff16565b6040808401518151888152602081019190915260ff808b168284015289166060820152905133917f6617207207e397b41fc98016d8c9febb7223f44c355db66ad429730f2b950a60919081900360800190a250506040015190505b9695505050505050565b6009850154604080516318160ddd60e01b815290516000926001600160a01b031691839183916318160ddd916004808301926020929190829003018186803b1580156113f757600080fd5b505afa15801561140b573d6000803e3d6000fd5b505050506040513d602081101561142157600080fd5b5051600a890154604080516370a0823160e01b8152336004820152905192935090916001600160a01b038516916370a08231916024808301926020929190829003018186803b15801561147357600080fd5b505afa158015611487573d6000803e3d6000fd5b505050506040513d602081101561149d57600080fd5b50518711156114e3576040805162461bcd60e51b815260206004820152600d60248201526c1f2628173130b630b731b2a7b360991b604482015290519081900360640190fd5b808660ff161061152c576040805162461bcd60e51b815260206004820152600f60248201526e151bdad95b881b9bdd08199bdd5b99608a1b604482015290519081900360640190fd5b6000806115458b338b8b61153f8f613a23565b89613f4b565b925090508681101561158f576040805162461bcd60e51b815260206004820152600e60248201526d191e480f081b5a5b905b5bdd5b9d60921b604482015290519081900360640190fd5b6115e76115bc6115b56402540be40061069a8f60050154876137b290919063ffffffff16565b8390613be0565b8c600c018a60ff16815481106115ce57fe5b9060005260206000200154613b2690919063ffffffff16565b8b600c018960ff16815481106115f957fe5b60009182526020822001919091556040805163079cc67960e41b8152336004820152602481018c905290516001600160a01b038816926379cc6790926044808201939182900301818387803b15801561165157600080fd5b505af1158015611665573d6000803e3d6000fd5b5050505061169c33828d600a018b60ff168154811061168057fe5b6000918252602090912001546001600160a01b03169190613ef4565b604080518a81526020810186905260ff8a168183015260608101839052905133917f43fb02998f4e03da2e0e6fff53fdbf0c40a9f45f145dc377fc30615d7d7a8a64919081900360800190a29450505050505b95945050505050565b6000606085600a0180548060200260200160405190810160405280929190818152602001828054801561175457602002820191906000526020600020905b81546001600160a01b03168152600190910190602001808311611736575b5050505050905085600a01805490508451146117b7576040805162461bcd60e51b815260206004820181905260248201527f416d6f756e7473206d757374206d6174636820706f6f6c656420746f6b656e73604482015290519081900360640190fd5b6060815167ffffffffffffffff811180156117d157600080fd5b506040519080825280602002602001820160405280156117fb578160200160208202803683370190505b509050611806614ac4565b604080516101208101825260008082526020820181905291810182905260098a01546001600160a01b03166060820152608081019190915260a0810161184b8a612082565b815260200161185989613a23565b815260200189600b018054806020026020016040519081016040528092919081815260200182805480156118ac57602002820191906000526020600020905b815481526020019060010190808311611898575b5050505050815260200189600c0180548060200260200160405190810160405280929190818152602001828054801561190457602002820191906000526020600020905b8154815260200190600101908083116118f0575b5050505050815250905080606001516001600160a01b03166318160ddd6040518163ffffffff1660e01b815260040160206040518083038186803b15801561194b57600080fd5b505afa15801561195f573d6000803e3d6000fd5b505050506040513d602081101561197557600080fd5b505160808201819052156119ab576119a861199e8261010001518360e001518460c00151613fcf565b8260a001516135db565b81525b60005b8351811015611bee5760808201511515806119dc575060008782815181106119d257fe5b6020026020010151115b611a2d576040805162461bcd60e51b815260206004820152601e60248201527f4d75737420737570706c7920616c6c20746f6b656e7320696e20706f6f6c0000604482015290519081900360640190fd5b868181518110611a3957fe5b6020026020010151600014611ba2576000848281518110611a5657fe5b60200260200101516001600160a01b03166370a08231306040518263ffffffff1660e01b815260040180826001600160a01b0316815260200191505060206040518083038186803b158015611aaa57600080fd5b505afa158015611abe573d6000803e3d6000fd5b505050506040513d6020811015611ad457600080fd5b50518851909150611b2490339030908b9086908110611aef57fe5b6020026020010151888681518110611b0357fe5b60200260200101516001600160a01b0316613ac6909392919063ffffffff16565b611b8881868481518110611b3457fe5b60200260200101516001600160a01b03166370a08231306040518263ffffffff1660e01b815260040180826001600160a01b0316815260200191505060206040518083038186803b158015610a7257600080fd5b888381518110611b9457fe5b602002602001018181525050505b611bca878281518110611bb157fe5b60200260200101518361010001518381518110610f1c57fe5b8261010001518281518110611bdb57fe5b60209081029190910101526001016119ae565b50611c0a61199e8261010001518360e001518460c00151613fcf565b60208201819052815110611c59576040805162461bcd60e51b8152602060048201526011602482015270442073686f756c6420696e63726561736560781b604482015290519081900360640190fd5b60208101516040820152608081015160009015611e93576000611c7b8a614103565b905060005b8551811015611e3e576000611cc3856000015161069a8e600c018581548110611ca557fe5b906000526020600020015488602001516137b290919063ffffffff16565b9050611d756402540be40061069a8373__$7bcaacd56beb19a20ee5df8a4f1dc67de1$__63a95cb7f790918a61010001518881518110611cff57fe5b60200260200101516040518363ffffffff1660e01b8152600401808381526020018281526020019250505060206040518083038186803b158015611d4257600080fd5b505af4158015611d56573d6000803e3d6000fd5b505050506040513d6020811015611d6c57600080fd5b505186906137b2565b868381518110611d8157fe5b602002602001018181525050611dd4611dc36402540be40061069a8f600501548a8781518110611dad57fe5b60200260200101516137b290919063ffffffff16565b8661010001518481518110610de957fe5b8c600c018381548110611de357fe5b9060005260206000200181905550611e19868381518110611e0057fe5b60200260200101518661010001518481518110610de957fe5b8561010001518381518110611e2a57fe5b602090810291909101015250600101611c80565b50611e64611e5a8461010001518560e001518660c00151613fcf565b8460a001516135db565b6040840181905283516080850151611e8b9261069a9190611e859084613b26565b906137b2565b915050611eb7565b6101008201518051611eaf91600c8c0191602090910190614b19565b505060208101515b85811015611f0c576040805162461bcd60e51b815260206004820152601b60248201527f436f756c646e2774206d696e74206d696e207265717565737465640000000000604482015290519081900360640190fd5b6009890154604080516340c10f1960e01b81523360048201526024810184905290516001600160a01b03909216916340c10f199160448082019260009290919082900301818387803b158015611f6157600080fd5b505af1158015611f75573d6000803e3d6000fd5b50505050336001600160a01b03167f189c623b666b1b45b83d7178f39b8c087cb09774317ca2f53c2d3c3726f222a288858560200151611fc2868860800151613be090919063ffffffff16565b604051808060200180602001858152602001848152602001838103835287818151815260200191508051906020019060200280838360005b83811015612012578181015183820152602001611ffa565b50505050905001838103825286818151815260200191508051906020019060200280838360005b83811015612051578181015183820152602001612039565b50505050905001965050505050505060405180910390a293505050505b949350505050565b670de0b6b3a764000081565b60038101546001820154600091904282111561210e5760028401548454808311156120e0576120d56120ce6120b78685613b26565b61069a6120c44287613b26565b611e858887613b26565b8290613be0565b945050505050612117565b6120d56121076120f08685613b26565b61069a6120fd4287613b26565b611e858689613b26565b8290613b26565b91506121179050565b919050565b6000612126614ac4565b604080516101208101825260008082526020820181905291810182905260098801546001600160a01b03166060820152608081019190915260a0810161216b88612082565b815260200161217987613a23565b815260200187600b018054806020026020016040519081016040528092919081815260200182805480156121cc57602002820191906000526020600020905b8154815260200190600101908083116121b8575b5050505050815260200187600c0180548060200260200160405190810160405280929190818152602001828054801561222457602002820191906000526020600020905b815481526020019060010190808311612210575b5050505050815250905080606001516001600160a01b03166318160ddd6040518163ffffffff1660e01b815260040160206040518083038186803b15801561226b57600080fd5b505afa15801561227f573d6000803e3d6000fd5b505050506040513d602081101561229557600080fd5b50516080820152610100810151518451146122f7576040805162461bcd60e51b815260206004820181905260248201527f416d6f756e74732073686f756c64206d6174636820706f6f6c20746f6b656e73604482015290519081900360640190fd5b80606001516001600160a01b03166370a08231336040518263ffffffff1660e01b815260040180826001600160a01b0316815260200191505060206040518083038186803b15801561234857600080fd5b505afa15801561235c573d6000803e3d6000fd5b505050506040513d602081101561237257600080fd5b5051831180159061238257508215155b6123c3576040805162461bcd60e51b815260206004820152600d60248201526c1f2628173130b630b731b2a7b360991b604482015290519081900360640190fd5b60006123ce87614103565b905060608261010001515167ffffffffffffffff811180156123ef57600080fd5b50604051908082528060200260200182016040528015612419578160200160208202803683370190505b50905060608361010001515167ffffffffffffffff8111801561243b57600080fd5b50604051908082528060200260200182016040528015612465578160200160208202803683370190505b50905061248d6124838561010001518660e001518760c00151613fcf565b8560a001516135db565b845260005b84610100015151811015612517576124f88882815181106124af57fe5b6020026020010151604051806060016040528060238152602001614c5d6023913987610100015184815181106124e157fe5b60200260200101516141939092919063ffffffff16565b82828151811061250457fe5b6020908102919091010152600101612492565b5061252e612483828660e001518760c00151613fcf565b602085015260005b846101000151518110156126d357600061257d866000015161069a886101000151858151811061256257fe5b602002602001015189602001516137b290919063ffffffff16565b905060008173__$7bcaacd56beb19a20ee5df8a4f1dc67de1$__63a95cb7f790918686815181106125aa57fe5b60200260200101516040518363ffffffff1660e01b8152600401808381526020018281526020019250505060206040518083038186803b1580156125ed57600080fd5b505af4158015612601573d6000803e3d6000fd5b505050506040513d602081101561261757600080fd5b5051905061262e6402540be40061069a88846137b2565b85848151811061263a57fe5b6020026020010181815250506126726126666402540be40061069a8f60050154898881518110611dad57fe5b858581518110610de957fe5b8c600c01848154811061268157fe5b90600052602060002001819055506126b285848151811061269e57fe5b6020026020010151858581518110610de957fe5b8484815181106126be57fe5b60209081029190910101525050600101612536565b506126ea612483828660e001518760c00151613fcf565b6040850181905284516080860151600093506127109261069a9190611e85908490613b26565b905080612764576040805162461bcd60e51b815260206004820152601b60248201527f4275726e7420616d6f756e742063616e6e6f74206265207a65726f0000000000604482015290519081900360640190fd5b6127946127806127748b336131aa565b6402540be40090613b26565b61069a6402540be400611e85856001613be0565b9050858111156127eb576040805162461bcd60e51b815260206004820152601b60248201527f746f6b656e416d6f756e74203e206d61784275726e416d6f756e740000000000604482015290519081900360640190fd5b83606001516001600160a01b03166379cc679033836040518363ffffffff1660e01b815260040180836001600160a01b0316815260200182815260200192505050600060405180830381600087803b15801561284657600080fd5b505af115801561285a573d6000803e3d6000fd5b5050505060005b8461010001515181101561289e576128963389838151811061287f57fe5b60200260200101518c600a01848154811061168057fe5b600101612861565b50336001600160a01b03167f3631c28b1f9dd213e0319fb167b554d76b6c283a41143eb400a0d1adb1af175588848760200151611fc2868a60800151613b2690919063ffffffff16565b60006128f2614b64565b6040518060e001604052806129068861350a565b815287546001600160a01b03166020820152600060408201819052600389015460ff166060808401919091526080830182905260a0830182905260c090920152815191925090612957908990613523565b80516000190160ff908116604085018190526060850151929350919091019081811690881610801561298e57508060ff168660ff16105b6129da576040805162461bcd60e51b8152602060048201526018602482015277546f6b656e20696e646578206f7574206f662072616e676560401b604482015290519081900360640190fd5b50816040015160ff168660ff161015612a3857612a2e612a1f89600b018860ff1681548110612a0557fe5b9060005260206000200154866137b290919063ffffffff16565b828860ff1681518110610f1c57fe5b60a0830152612c6c565b6040820151958690039560ff9081169086161015612bca576060826060015160ff1667ffffffffffffffff81118015612a7057600080fd5b50604051908082528060200260200182016040528015612a9a578160200160208202803683370190505b50905084818860ff1681518110612aad57fe5b602002602001018181525050612bbf82846040015160ff1681518110612acf57fe5b6020026020010151610d9f670de0b6b3a764000061069a876000015188602001516001600160a01b031663f9273ffb308960016040518463ffffffff1660e01b815260040180846001600160a01b03168152602001806020018315158152602001828103825284818151815260200191508051906020019060200280838360005b83811015612b68578181015183820152602001612b50565b5050505090500194505050505060206040518083038186803b158015612b8d57600080fd5b505afa158015612ba1573d6000803e3d6000fd5b505050506040513d6020811015612bb757600080fd5b5051906137b2565b60a084015250612c64565b81602001516001600160a01b031663a95b089f8784604001518803876040518463ffffffff1660e01b8152600401808460ff1681526020018360ff168152602001828152602001935050505060206040518083038186803b158015612c2e57600080fd5b505afa158015612c42573d6000803e3d6000fd5b505050506040513d6020811015612c5857600080fd5b505192506116ef915050565b816040015195505b604082015160ff908116608084018190529086161015612c905760ff851660808301525b6000612caf612c9e8a612082565b8885608001518660a0015186613c3a565b9050612ccd6001610dff8385876080015160ff1681518110610de957fe5b60c0840181905260048a0154600091612cf0916402540be4009161069a916137b2565b60c0850151909150612d029082613b26565b60c08501525050604082015160ff9081169086161015612d5d57612d5388600b01836080015160ff1681548110612d3557fe5b90600052602060002001548360c0015161380b90919063ffffffff16565b60c0830152612e1f565b81602001516001600160a01b03166398899f4030612d98856000015161069a670de0b6b3a76400008860c001516137b290919063ffffffff16565b856040015189036040518463ffffffff1660e01b815260040180846001600160a01b031681526020018381526020018260ff168152602001935050505060206040518083038186803b158015612ded57600080fd5b505afa158015612e01573d6000803e3d6000fd5b505050506040513d6020811015612e1757600080fd5b505160c08301525b5060c001519695505050505050565b600080600088600a018760ff1681548110612e4557fe5b60009182526020918290200154604080516370a0823160e01b815233600482015290516001600160a01b03909216935083926370a0823192602480840193829003018186803b158015612e9757600080fd5b505afa158015612eab573d6000803e3d6000fd5b505050506040513d6020811015612ec157600080fd5b5051851115612f17576040805162461bcd60e51b815260206004820152601d60248201527f43616e6e6f742073776170206d6f7265207468616e20796f75206f776e000000604482015290519081900360640190fd5b6000816001600160a01b03166370a08231306040518263ffffffff1660e01b815260040180826001600160a01b0316815260200191505060206040518083038186803b158015612f6657600080fd5b505afa158015612f7a573d6000803e3d6000fd5b505050506040513d6020811015612f9057600080fd5b50519050612fa96001600160a01b038316333089613ac6565b612ffa81836001600160a01b03166370a08231306040518263ffffffff1660e01b815260040180826001600160a01b0316815260200191505060206040518083038186803b158015610a7257600080fd5b925050506000806130118a8989866106ca8e613a23565b915091508482101561306a576040805162461bcd60e51b815260206004820181905260248201527f53776170206469646e277420726573756c7420696e206d696e20746f6b656e73604482015290519081900360640190fd5b60006130ac8b600b018960ff168154811061308157fe5b906000526020600020015461069a6402540be40061069a8f60050154876137b290919063ffffffff16565b90506130dd848c600c018b60ff16815481106130c457fe5b9060005260206000200154613be090919063ffffffff16565b8b600c018a60ff16815481106130ef57fe5b906000526020600020018190555061311781610dff858e600c018c60ff16815481106115ce57fe5b8b600c018960ff168154811061312957fe5b906000526020600020018190555061314e33848d600a018b60ff168154811061168057fe5b604080518581526020810185905260ff808c16828401528a166060820152905133917fc6c1e0630dbe9130cc068028486c0d118ddcea348550819defd5cb8c257f8a38919081900360800190a250909998505050505050505050565b6001600160a01b0381166000908152600d8301602052604081205481906131d4906224ea00613be0565b9050428111156132475760006131ea8242613b26565b905061323e6402540be40061069a6224ea0061069a85611e858b600e0160008c6001600160a01b03166001600160a01b03168152602001908152602001600020548c600701546137b290919063ffffffff16565b925050506106b2565b5060009392505050565b61025881565b606481565b60006106cf8685858561326e8a61350a565b8b60090160009054906101000a90046001600160a01b03166001600160a01b03166318160ddd6040518163ffffffff1660e01b815260040160206040518083038186803b1580156132be57600080fd5b505afa1580156132d2573d6000803e3d6000fd5b505050506040513d60208110156132e857600080fd5b5051613f4b565b6000806132fb88612082565b9050600080600061330b8a61350a565b905060608b600c0180548060200260200160405190810160405280929190818152602001828054801561335d57602002820191906000526020600020905b815481526020019060010190808311613349575b5050505050905060008151905061337e6133788e8486613b83565b876135db565b945060005b8181101561342c5788156133d0576133b38b8b838181106133a057fe5b90506020020135848381518110610f1c57fe5b8382815181106133bf57fe5b602002602001018181525050613424565b61340b8b8b838181106133df57fe5b90506020020135604051806060016040528060238152602001614c5d602391398584815181106124e157fe5b83828151811061341757fe5b6020026020010181815250505b600101613383565b5061343b6133788e8486613b83565b935050505060008a60090160009054906101000a90046001600160a01b03166001600160a01b03166318160ddd6040518163ffffffff1660e01b815260040160206040518083038186803b15801561349257600080fd5b505afa1580156134a6573d6000803e3d6000fd5b505050506040513d60208110156134bc57600080fd5b5051905085156134e3576134d88361069a83611e858684613b26565b9450505050506113a2565b6134d86134f36127748d8c6131aa565b61069a6402540be400611e8587838783838b613b26565b80546000906106b29083906001600160a01b031661422a565b60606135d483600c0180548060200260200160405190810160405280929190818152602001828054801561357657602002820191906000526020600020905b815481526020019060010190808311613562575b505050505084600b018054806020026020016040519081016040528092919081815260200182805480156135c957602002820191906000526020600020905b8154815260200190600101908083116135b5575b505050505084613fcf565b9392505050565b815160009081805b8281101561361b576136118682815181106135fa57fe5b602002602001015183613be090919063ffffffff16565b91506001016135e3565b508061362c576000925050506106b2565b6000818161363a87866137b2565b905060005b61010081101561376e578260005b8781101561367c57613672613668898d8481518110611dad57fe5b61069a84886137b2565b915060010161364d565b5092935083926136ca6136aa61369783611e858b6001613be0565b610d9f606461069a89611e858a84613b26565b61069a86611e856136bb868d6137b2565b610d9f606461069a8b8f6137b2565b93508373__$7bcaacd56beb19a20ee5df8a4f1dc67de1$__6313a1ec759091876040518363ffffffff1660e01b8152600401808381526020018281526020019250505060206040518083038186803b15801561372557600080fd5b505af4158015613739573d6000803e3d6000fd5b505050506040513d602081101561374f57600080fd5b50511561376557839750505050505050506106b2565b5060010161363f565b506040805162461bcd60e51b81526020600482015260136024820152724420646f6573206e6f7420636f6e766572676560681b604482015290519081900360640190fd5b6000826137c1575060006106b2565b828202828482816137ce57fe5b04146135d45760405162461bcd60e51b8152600401808060200182810382526021815260200180614c126021913960400191505060405180910390fd5b6000808211613861576040805162461bcd60e51b815260206004820152601a60248201527f536166654d6174683a206469766973696f6e206279207a65726f000000000000604482015290519081900360640190fd5b81838161386a57fe5b049392505050565b60008060606138818885613523565b905080518760ff16108015613899575080518660ff16105b6138e5576040805162461bcd60e51b8152602060048201526018602482015277546f6b656e20696e646578206f7574206f662072616e676560401b604482015290519081900360640190fd5b80516000906138f5906001613b26565b9050600061390e8a600b018a60ff1681548110610b0257fe5b9050818960ff16141561393457613931670de0b6b3a764000061069a83896137b2565b90505b61395d838a60ff168151811061394657fe5b602002602001015182613be090919063ffffffff16565b9050600061397661396d8c612082565b8b8b8588613c3a565b90506139906001610dff83878d60ff1681518110610de957fe5b9550828960ff1614156139b6576139b38761069a88670de0b6b3a76400006137b2565b95505b6139d66402540be40061069a8d60040154896137b290919063ffffffff16565b94506139e28686613b26565b9550613a138b600b018a60ff16815481106139f957fe5b90600052602060002001548761380b90919063ffffffff16565b9550505050509550959350505050565b6000610258826002015401421115613abb5781546040805163712d52fd60e11b815290516000926001600160a01b03169163e25aa5fa916004808301926020929190829003018186803b158015613a7957600080fd5b505afa158015613a8d573d6000803e3d6000fd5b505050506040513d6020811015613aa357600080fd5b50516001840181905542600285015591506121179050565b506001810154612117565b604080516001600160a01b0380861660248301528416604482015260648082018490528251808303909101815260849091019091526020810180516001600160e01b03166323b872dd60e01b179052613b209085906142b3565b50505050565b600082821115613b7d576040805162461bcd60e51b815260206004820152601e60248201527f536166654d6174683a207375627472616374696f6e206f766572666c6f770000604482015290519081900360640190fd5b50900390565b606061206e8385600b018054806020026020016040519081016040528092919081815260200182805480156135c957602002820191906000526020600020908154815260200190600101908083116135b557505050505084613fcf565b6000828201838110156135d4576040805162461bcd60e51b815260206004820152601b60248201527f536166654d6174683a206164646974696f6e206f766572666c6f770000000000604482015290519081900360640190fd5b805160009060ff8681169086161415613c9a576040805162461bcd60e51b815260206004820152601d60248201527f43616e277420636f6d7061726520746f6b656e20746f20697473656c66000000604482015290519081900360640190fd5b808660ff16108015613cae5750808560ff16105b613cf8576040805162461bcd60e51b8152602060048201526016602482015275151bdad95b9cc81b5d5cdd081899481a5b881c1bdbdb60521b604482015290519081900360640190fd5b6000613d0484896135db565b905080600080613d14858c6137b2565b90506000805b86811015613d8d578b60ff16811415613d3557899150613d5f565b8a60ff168114613d5a57888181518110613d4b57fe5b60200260200101519150613d5f565b613d85565b613d698483613be0565b9350613d82613d7883896137b2565b61069a87896137b2565b94505b600101613d1a565b50613daa613d9b83886137b2565b61069a6064611e85888a6137b2565b93506000613dc7613dc08461069a8960646137b2565b8590613be0565b9050600086815b610100811015613ea6579091508190613e01613df38a610dff87610d9f8760026137b2565b61069a8a610d9f86806137b2565b91508173__$7bcaacd56beb19a20ee5df8a4f1dc67de1$__6313a1ec759091856040518363ffffffff1660e01b8152600401808381526020018281526020019250505060206040518083038186803b158015613e5c57600080fd5b505af4158015613e70573d6000803e3d6000fd5b505050506040513d6020811015613e8657600080fd5b505115613e9e575098506116ef975050505050505050565b600101613dce565b506040805162461bcd60e51b815260206004820152601e60248201527f417070726f78696d6174696f6e20646964206e6f7420636f6e76657267650000604482015290519081900360640190fd5b604080516001600160a01b038416602482015260448082018490528251808303909101815260649091019091526020810180516001600160e01b031663a9059cbb60e01b179052613f469084906142b3565b505050565b600080600080600080613f618c8a8c8b8b614364565b809450819350829650505050613f9c84610dff8e600b018c60ff1681548110613f8657fe5b60009182526020909120015461069a8686613b26565b92505050613fc06402540be40061069a613fb96127748e8e6131aa565b85906137b2565b9a909950975050505050505050565b8251825160609190811461402a576040805162461bcd60e51b815260206004820152601f60248201527f42616c616e636573206d757374206d61746368206d756c7469706c6965727300604482015290519081900360640190fd5b60608167ffffffffffffffff8111801561404357600080fd5b5060405190808252806020026020018201604052801561406d578160200160208202803683370190505b50905060005b828110156140bd5761409e86828151811061408a57fe5b6020026020010151888381518110611dad57fe5b8282815181106140aa57fe5b6020908102919091010152600101614073565b5060006001830390506140e2670de0b6b3a764000061069a87858581518110611dad57fe5b8282815181106140ee57fe5b60209081029190910101525095945050505050565b6000606082600a0180548060200260200160405190810160405280929190818152602001828054801561415f57602002820191906000526020600020905b81546001600160a01b03168152600190910190602001808311614141575b505050505090506135d46141836004611e8560018551613b2690919063ffffffff16565b8251600486015461069a916137b2565b600081848411156142225760405162461bcd60e51b81526004018080602001828103825283818151815260200191508051906020019080838360005b838110156141e75781810151838201526020016141cf565b50505050905090810190601f1680156142145780820380516001836020036101000a031916815260200191505b509250505060405180910390fd5b505050900390565b60006102588360020154014211156142a857816001600160a01b031663e25aa5fa6040518163ffffffff1660e01b815260040160206040518083038186803b15801561427557600080fd5b505afa158015614289573d6000803e3d6000fd5b505050506040513d602081101561429f57600080fd5b505190506106b2565b5060018201546106b2565b6060614308826040518060400160405280602081526020017f5361666545524332303a206c6f772d6c6576656c2063616c6c206661696c6564815250856001600160a01b03166146a89092919063ffffffff16565b805190915015613f465780806020019051602081101561432757600080fd5b5051613f465760405162461bcd60e51b815260040180806020018281038252602a815260200180614c33602a913960400191505060405180910390fd5b600080600060606143758987613523565b905080518860ff16106143ca576040805162461bcd60e51b8152602060048201526018602482015277546f6b656e20696e646578206f7574206f662072616e676560401b604482015290519081900360640190fd5b6143d2614ba0565b6040518060c001604052806000815260200160008152602001600081526020016000815260200160008152602001600081525090506144108a612082565b608082018190526144229083906135db565b8082526144429061443a90889061069a908c906137b2565b825190613b26565b60208201528151829060ff8b1690811061445857fe5b60200260200101518811156144b4576040805162461bcd60e51b815260206004820152601a60248201527f5769746864726177206578636565647320617661696c61626c65000000000000604482015290519081900360640190fd5b6144c881608001518a8484602001516146b7565b6040820152815160609067ffffffffffffffff811180156144e857600080fd5b50604051908082528060200260200182016040528015614512578160200160208202803683370190505b50905061451e8b614103565b606083015260005b83518110156145f55783818151811061453b57fe5b60200260200101518360a00181815250506145d66145cb6402540be40061069a86606001518f60ff1686146145a05761459b614590896000015161069a8b602001518c60a001516137b290919063ffffffff16565b60a08a015190613b26565b611e85565b611e858860400151610dff8a6000015161069a8c602001518d60a001516137b290919063ffffffff16565b60a085015190613b26565b8282815181106145e257fe5b6020908102919091010152600101614526565b50600061461e61460f84608001518d8587602001516146b7565b838d60ff1681518110610de957fe5b905061464c8c600b018c60ff168154811061463557fe5b60009182526020909120015461069a836001613b26565b905060018451038b60ff161415614676576146738961069a83670de0b6b3a76400006137b2565b90505b808360400151858d60ff168151811061468b57fe5b602002602001015196509650965050505050955095509592505050565b606061206e8484600085614891565b815160009060ff85168111614705576040805162461bcd60e51b815260206004820152600f60248201526e151bdad95b881b9bdd08199bdd5b99608a1b604482015290519081900360640190fd5b8260008061471389856137b2565b905060005b8481101561477a578860ff1681146147725761475088828151811061473957fe5b602002602001015184613be090919063ffffffff16565b925061476f614765868a8481518110611dad57fe5b61069a868a6137b2565b93505b600101614718565b5061479761478882866137b2565b61069a6064611e85878b6137b2565b925060006147b46147ad8361069a8a60646137b2565b8490613be0565b9050600087815b610100811015613ea65790915081906147ee6147e08b610dff87610d9f8760026137b2565b61069a89610d9f86806137b2565b91508173__$7bcaacd56beb19a20ee5df8a4f1dc67de1$__6313a1ec759091856040518363ffffffff1660e01b8152600401808381526020018281526020019250505060206040518083038186803b15801561484957600080fd5b505af415801561485d573d6000803e3d6000fd5b505050506040513d602081101561487357600080fd5b5051156148895750965061206e95505050505050565b6001016147bb565b6060824710156148d25760405162461bcd60e51b8152600401808060200182810382526026815260200180614bec6026913960400191505060405180910390fd5b6148db856149ed565b61492c576040805162461bcd60e51b815260206004820152601d60248201527f416464726573733a2063616c6c20746f206e6f6e2d636f6e7472616374000000604482015290519081900360640190fd5b60006060866001600160a01b031685876040518082805190602001908083835b6020831061496b5780518252601f19909201916020918201910161494c565b6001836020036101000a03801982511681845116808217855250505050505090500191505060006040518083038185875af1925050503d80600081146149cd576040519150601f19603f3d011682016040523d82523d6000602084013e6149d2565b606091505b50915091506149e28282866149f3565b979650505050505050565b3b151590565b60608315614a025750816135d4565b825115614a125782518084602001fd5b60405162461bcd60e51b81526020600482018181528451602484015284518593919283926044019190850190808383600083156141e75781810151838201526020016141cf565b604051806101400160405280600081526020016000815260200160008152602001600060ff168152602001600060ff168152602001606081526020016060815260200160006001600160a01b0316815260200160006001600160a01b03168152602001600081525090565b60405180610120016040528060008152602001600081526020016000815260200160006001600160a01b0316815260200160008152602001600081526020016000815260200160608152602001606081525090565b828054828255906000526020600020908101928215614b54579160200282015b82811115614b54578251825591602001919060010190614b39565b50614b60929150614bd6565b5090565b6040805160e081018252600080825260208201819052918101829052606081018290526080810182905260a0810182905260c081019190915290565b6040518060c001604052806000815260200160008152602001600081526020016000815260200160008152602001600081525090565b5b80821115614b605760008155600101614bd756fe416464726573733a20696e73756666696369656e742062616c616e636520666f722063616c6c536166654d6174683a206d756c7469706c69636174696f6e206f766572666c6f775361666545524332303a204552433230206f7065726174696f6e20646964206e6f74207375636365656443616e6e6f74207769746864726177206d6f7265207468616e20617661696c61626c65a2646970667358221220b9e860cad3900cb4bcffcfb4901d9137ceb3b0180ec0d7f0bb8cb71523c7687c64736f6c634300060c0033",
  "libraries": {
    "MathUtils": "0x3382D6140c6f3F29190f642FC19DBD1c8550D530",
    "EvmoSwapUtils": "0xaD00abb2bE74815F54FCc31fe94895148d48Fc24"
  },
  "devdoc": {
    "details": "Contracts relying on this library must initialize EvmoSwapUtils.Swap struct then use this library for EvmoSwapUtils.Swap struct. Note that this library contains both functions called by users and admins. Admin functions should be protected within contracts using this library.",
    "kind": "dev",
    "methods": {
      "addLiquidity(EvmoSwapUtils.Swap storage,MetaSwapUtils.MetaSwap storage,uint256[],uint256)": {
        "params": {
          "amounts": "the amounts of each token to add, in their native precision",
          "minToMint": "the minimum LP tokens adding this amount of liquidity should mint, otherwise revert. Handy for front-running mitigation allowed addresses. If the pool is not in the guarded launch phase, this parameter will be ignored.",
          "self": "Swap struct to read from and write to"
        },
        "returns": {
          "_0": "amount of LP token user received"
        }
      },
      "calculateCurrentWithdrawFee(EvmoSwapUtils.Swap storage,address)": {
        "params": {
          "user": "address you want to calculate withdraw fee of"
        },
        "returns": {
          "_0": "current withdraw fee of the user"
        }
      },
      "calculateSwap(EvmoSwapUtils.Swap storage,MetaSwapUtils.MetaSwap storage,uint8,uint8,uint256)": {
        "params": {
          "dx": "the number of tokens to sell. If the token charges a fee on transfers, use the amount that gets transferred after the fee.",
          "self": "Swap struct to read from",
          "tokenIndexFrom": "the token to sell",
          "tokenIndexTo": "the token to buy"
        },
        "returns": {
          "dy": "the number of tokens the user will get"
        }
      },
      "calculateTokenAmount(EvmoSwapUtils.Swap storage,MetaSwapUtils.MetaSwap storage,address,uint256[],bool)": {
        "details": "This shouldn't be used outside frontends for user estimates.",
        "params": {
          "account": "address of the account depositing or withdrawing tokens",
          "amounts": "an array of token amounts to deposit or withdrawal, corresponding to pooledTokens. The amount should be in each pooled token's native precision. If a token charges a fee on transfers, use the amount that gets transferred after the fee.",
          "deposit": "whether this is a deposit or a withdrawal",
          "self": "Swap struct to read from"
        },
        "returns": {
          "_0": "if deposit was true, total amount of lp token that will be minted and if deposit was false, total amount of lp token that will be burned"
        }
      },
      "calculateWithdrawOneToken(EvmoSwapUtils.Swap storage,MetaSwapUtils.MetaSwap storage,address,uint256,uint8)": {
        "params": {
          "account": "the address that is withdrawing",
          "self": "Swap struct to read from",
          "tokenAmount": "the amount to withdraw in the pool's precision",
          "tokenIndex": "which token will be withdrawn"
        },
        "returns": {
          "dy": "the amount of token user will receive"
        }
      },
      "getAPrecise(EvmoSwapUtils.Swap storage)": {
        "details": "See the StableSwap paper for details",
        "params": {
          "self": "Swap struct to read from"
        },
        "returns": {
          "_0": "A parameter in its raw precision form"
        }
      },
      "getVirtualPrice(EvmoSwapUtils.Swap storage,MetaSwapUtils.MetaSwap storage)": {
        "params": {
          "self": "Swap struct to read from"
        },
        "returns": {
          "_0": "the virtual price, scaled to precision of POOL_PRECISION_DECIMALS"
        }
      },
      "removeLiquidityImbalance(EvmoSwapUtils.Swap storage,MetaSwapUtils.MetaSwap storage,uint256[],uint256)": {
        "params": {
          "amounts": "how much of each token to withdraw",
          "maxBurnAmount": "the max LP token provider is willing to pay to remove liquidity. Useful as a front-running mitigation.",
          "self": "Swap struct to read from and write to"
        },
        "returns": {
          "_0": "actual amount of LP tokens burned in the withdrawal"
        }
      },
      "removeLiquidityOneToken(EvmoSwapUtils.Swap storage,MetaSwapUtils.MetaSwap storage,uint256,uint8,uint256)": {
        "params": {
          "minAmount": "the minimum amount to withdraw, otherwise revert",
          "self": "Swap struct to read from and write to",
          "tokenAmount": "the amount of the lp tokens to burn",
          "tokenIndex": "the index of the token you want to receive"
        },
        "returns": {
          "_0": "amount chosen token that user received"
        }
      },
      "swap(EvmoSwapUtils.Swap storage,MetaSwapUtils.MetaSwap storage,uint8,uint8,uint256,uint256)": {
        "params": {
          "dx": "the amount of tokens the user wants to sell",
          "minDy": "the min amount the user would like to receive, or revert.",
          "self": "Swap struct to read from and write to",
          "tokenIndexFrom": "the token the user wants to sell",
          "tokenIndexTo": "the token the user wants to buy"
        },
        "returns": {
          "_0": "amount of token user received on swap"
        }
      }
    },
    "title": "MetaSwapUtils library",
    "version": 1
  },
  "userdoc": {
    "kind": "user",
    "methods": {
      "addLiquidity(EvmoSwapUtils.Swap storage,MetaSwapUtils.MetaSwap storage,uint256[],uint256)": {
        "notice": "Add liquidity to the pool"
      },
      "calculateCurrentWithdrawFee(EvmoSwapUtils.Swap storage,address)": {
        "notice": "Calculate the fee that is applied when the given user withdraws. Withdraw fee decays linearly over 4 weeks."
      },
      "calculateSwap(EvmoSwapUtils.Swap storage,MetaSwapUtils.MetaSwap storage,uint8,uint8,uint256)": {
        "notice": "Externally calculates a swap between two tokens."
      },
      "calculateTokenAmount(EvmoSwapUtils.Swap storage,MetaSwapUtils.MetaSwap storage,address,uint256[],bool)": {
        "notice": "A simple method to calculate prices from deposits or withdrawals, excluding fees but including slippage. This is helpful as an input into the various \"min\" parameters on calls to fight front-running"
      },
      "calculateWithdrawOneToken(EvmoSwapUtils.Swap storage,MetaSwapUtils.MetaSwap storage,address,uint256,uint8)": {
        "notice": "Calculate the dy, the amount of selected token that user receives."
      },
      "getAPrecise(EvmoSwapUtils.Swap storage)": {
        "notice": "Return A in its raw precision"
      },
      "getVirtualPrice(EvmoSwapUtils.Swap storage,MetaSwapUtils.MetaSwap storage)": {
        "notice": "Get the virtual price, to help calculate profit"
      },
      "removeLiquidityImbalance(EvmoSwapUtils.Swap storage,MetaSwapUtils.MetaSwap storage,uint256[],uint256)": {
        "notice": "Remove liquidity from the pool, weighted differently than the pool's current balances."
      },
      "removeLiquidityOneToken(EvmoSwapUtils.Swap storage,MetaSwapUtils.MetaSwap storage,uint256,uint8,uint256)": {
        "notice": "Remove liquidity from the pool all in one token."
      },
      "swap(EvmoSwapUtils.Swap storage,MetaSwapUtils.MetaSwap storage,uint8,uint8,uint256,uint256)": {
        "notice": "swap two tokens in the pool"
      }
    },
    "notice": "A library to be used within MetaSwap.sol. Contains functions responsible for custody and AMM functionalities.",
    "version": 1
  },
  "storageLayout": {
    "storage": [],
    "types": null
  }
}