{
  "address": "0xD2539Fd39205e4F1e4BaAc3899B0Bd06db8965Dc",
  "abi": [
    {
      "inputs": [
        {
          "internalType": "address",
          "name": "_stakingToken",
          "type": "address"
        },
        {
          "internalType": "address",
          "name": "_penaltyReceiver",
          "type": "address"
        }
      ],
      "stateMutability": "nonpayable",
      "type": "constructor"
    },
    {
      "anonymous": false,
      "inputs": [
        {
          "indexed": true,
          "internalType": "address",
          "name": "user",
          "type": "address"
        },
        {
          "indexed": false,
          "internalType": "uint256",
          "name": "amount",
          "type": "uint256"
        },
        {
          "indexed": false,
          "internalType": "bool",
          "name": "withPenalty",
          "type": "bool"
        }
      ],
      "name": "Mint",
      "type": "event"
    },
    {
      "anonymous": false,
      "inputs": [
        {
          "indexed": true,
          "internalType": "address",
          "name": "previousOwner",
          "type": "address"
        },
        {
          "indexed": true,
          "internalType": "address",
          "name": "newOwner",
          "type": "address"
        }
      ],
      "name": "OwnershipTransferred",
      "type": "event"
    },
    {
      "anonymous": false,
      "inputs": [
        {
          "indexed": false,
          "internalType": "address",
          "name": "token",
          "type": "address"
        },
        {
          "indexed": false,
          "internalType": "uint256",
          "name": "amount",
          "type": "uint256"
        }
      ],
      "name": "Recovered",
      "type": "event"
    },
    {
      "anonymous": false,
      "inputs": [
        {
          "indexed": true,
          "internalType": "address",
          "name": "user",
          "type": "address"
        },
        {
          "indexed": false,
          "internalType": "uint256",
          "name": "receivedAmount",
          "type": "uint256"
        },
        {
          "indexed": false,
          "internalType": "uint256",
          "name": "penaltyPaid",
          "type": "uint256"
        }
      ],
      "name": "Withdrawn",
      "type": "event"
    },
    {
      "inputs": [],
      "name": "WEEK",
      "outputs": [
        {
          "internalType": "uint256",
          "name": "",
          "type": "uint256"
        }
      ],
      "stateMutability": "view",
      "type": "function"
    },
    {
      "inputs": [
        {
          "internalType": "address",
          "name": "user",
          "type": "address"
        }
      ],
      "name": "earnedBalances",
      "outputs": [
        {
          "internalType": "uint256",
          "name": "total",
          "type": "uint256"
        },
        {
          "components": [
            {
              "internalType": "uint256",
              "name": "amount",
              "type": "uint256"
            },
            {
              "internalType": "uint256",
              "name": "unlockTime",
              "type": "uint256"
            }
          ],
          "internalType": "struct MultiFeeDistribution.LockedBalance[]",
          "name": "earningsData",
          "type": "tuple[]"
        }
      ],
      "stateMutability": "view",
      "type": "function"
    },
    {
      "inputs": [],
      "name": "lockDuration",
      "outputs": [
        {
          "internalType": "uint256",
          "name": "",
          "type": "uint256"
        }
      ],
      "stateMutability": "view",
      "type": "function"
    },
    {
      "inputs": [
        {
          "internalType": "address",
          "name": "user",
          "type": "address"
        },
        {
          "internalType": "uint256",
          "name": "amount",
          "type": "uint256"
        },
        {
          "internalType": "bool",
          "name": "withPenalty",
          "type": "bool"
        }
      ],
      "name": "mint",
      "outputs": [],
      "stateMutability": "nonpayable",
      "type": "function"
    },
    {
      "inputs": [
        {
          "internalType": "address",
          "name": "",
          "type": "address"
        }
      ],
      "name": "minters",
      "outputs": [
        {
          "internalType": "bool",
          "name": "",
          "type": "bool"
        }
      ],
      "stateMutability": "view",
      "type": "function"
    },
    {
      "inputs": [],
      "name": "mintersAreSet",
      "outputs": [
        {
          "internalType": "bool",
          "name": "",
          "type": "bool"
        }
      ],
      "stateMutability": "view",
      "type": "function"
    },
    {
      "inputs": [],
      "name": "owner",
      "outputs": [
        {
          "internalType": "address",
          "name": "",
          "type": "address"
        }
      ],
      "stateMutability": "view",
      "type": "function"
    },
    {
      "inputs": [],
      "name": "penaltyReceiver",
      "outputs": [
        {
          "internalType": "address",
          "name": "",
          "type": "address"
        }
      ],
      "stateMutability": "view",
      "type": "function"
    },
    {
      "inputs": [
        {
          "internalType": "address",
          "name": "tokenAddress",
          "type": "address"
        },
        {
          "internalType": "uint256",
          "name": "tokenAmount",
          "type": "uint256"
        }
      ],
      "name": "recoverERC20",
      "outputs": [],
      "stateMutability": "nonpayable",
      "type": "function"
    },
    {
      "inputs": [],
      "name": "renounceOwnership",
      "outputs": [],
      "stateMutability": "nonpayable",
      "type": "function"
    },
    {
      "inputs": [
        {
          "internalType": "address[]",
          "name": "_minters",
          "type": "address[]"
        }
      ],
      "name": "setMinters",
      "outputs": [],
      "stateMutability": "nonpayable",
      "type": "function"
    },
    {
      "inputs": [],
      "name": "stakingToken",
      "outputs": [
        {
          "internalType": "contract IMintableToken",
          "name": "",
          "type": "address"
        }
      ],
      "stateMutability": "view",
      "type": "function"
    },
    {
      "inputs": [
        {
          "internalType": "address",
          "name": "user",
          "type": "address"
        }
      ],
      "name": "totalBalance",
      "outputs": [
        {
          "internalType": "uint256",
          "name": "amount",
          "type": "uint256"
        }
      ],
      "stateMutability": "view",
      "type": "function"
    },
    {
      "inputs": [],
      "name": "totalSupply",
      "outputs": [
        {
          "internalType": "uint256",
          "name": "",
          "type": "uint256"
        }
      ],
      "stateMutability": "view",
      "type": "function"
    },
    {
      "inputs": [
        {
          "internalType": "address",
          "name": "newOwner",
          "type": "address"
        }
      ],
      "name": "transferOwnership",
      "outputs": [],
      "stateMutability": "nonpayable",
      "type": "function"
    },
    {
      "inputs": [
        {
          "internalType": "uint256",
          "name": "amount",
          "type": "uint256"
        }
      ],
      "name": "withdraw",
      "outputs": [],
      "stateMutability": "nonpayable",
      "type": "function"
    },
    {
      "inputs": [
        {
          "internalType": "address",
          "name": "user",
          "type": "address"
        }
      ],
      "name": "withdrawableBalance",
      "outputs": [
        {
          "internalType": "uint256",
          "name": "amount",
          "type": "uint256"
        },
        {
          "internalType": "uint256",
          "name": "amountWithoutPenalty",
          "type": "uint256"
        },
        {
          "internalType": "uint256",
          "name": "penaltyAmount",
          "type": "uint256"
        }
      ],
      "stateMutability": "view",
      "type": "function"
    }
  ],
  "transactionHash": "0x83cd37a6d6742dce8d28884c8a2d47a5fca3ce301323db43869bc8b29ab91afd",
  "args": [
    "0xd41223b4Ed7e68275D3C567c237217Fbb2575568",
    "0x14B08eD3124D9de98aFDFFAED43852360713cAdE"
  ],
  "solcInputHash": "3bc41652a2b989a3f25335a753feae44",
  "bytecode": "0x60a06040523480156200001157600080fd5b50604051620018df380380620018df8339810160408190526200003491620000c6565b600062000040620000c2565b600080546001600160a01b0319166001600160a01b0383169081178255604051929350917f8be0079c531659141344cd1fd0a4f28419497f9722a3daafe3b4186f6b6457e0908290a35060609190911b6001600160601b031916608052600180546001600160a01b0319166001600160a01b039092169190911790556200011d565b3390565b60008060408385031215620000d9578182fd5b8251620000e68162000104565b6020840151909250620000f98162000104565b809150509250929050565b6001600160a01b03811681146200011a57600080fd5b50565b60805160601c6117906200014f600039806105f852806106365280610806528061086952806109a352506117906000f3fe608060405234801561001057600080fd5b506004361061010b5760003560e01c80638980f11f116100a2578063df37987611610071578063df379876146101f3578063e1b7fd4214610214578063f2fde38b1461021c578063f4359ce51461022f578063f46eccc4146102375761010b565b80638980f11f146101b05780638da5cb5b146101c35780638fd9f2ca146101cb578063d1a1beb4146101e05761010b565b8063547d0096116100de578063547d00961461016d5780636eacd39814610180578063715018a61461019357806372f702f31461019b5761010b565b806302b6293814610110578063045544431461013b57806318160ddd146101505780632e1a7d4d14610158575b600080fd5b61012361011e366004611116565b61024a565b604051610132939291906116bf565b60405180910390f35b61014361037d565b6040516101329190611641565b610143610384565b61016b610166366004611260565b61038a565b005b61016b61017b3660046111a7565b6106a8565b61014361018e366004611116565b610760565b61016b61077b565b6101a3610804565b6040516101329190611294565b61016b6101be366004611131565b610828565b6101a3610912565b6101d3610921565b60405161013291906112c1565b61016b6101ee36600461115b565b61092a565b610206610201366004611116565b610bb7565b60405161013292919061164a565b6101a3610cf3565b61016b61022a366004611116565b610d02565b610143610dc2565b6101d3610245366004611116565b610dc9565b6001600160a01b03811660009081526005602052604081206002810154829182918015610351576001600160a01b038616600090815260066020526040812054815b81811015610336576001600160a01b03891660009081526006602052604081208054839081106102b857fe5b906000526020600020906002020160000154905080600014156102db575061032e565b6001600160a01b038a16600090815260066020526040902080544291908490811061030257fe5b90600052602060002090600202016001015411156103205750610336565b61032a8482610dde565b9350505b60010161028c565b5061034c60026103468585610e0c565b90610e34565b945050505b6103728361036c838560010154610dde90919063ffffffff16565b90610e0c565b945050509193909250565b6277f88081565b60045481565b600081116103b35760405162461bcd60e51b81526004016103aa90611493565b60405180910390fd5b336000908152600560205260408120600181015490919083116103e95760018201546103df9084610e0c565b60018301556105be565b6000610402836001015485610e0c90919063ffffffff16565b905080836002015410156104285760405162461bcd60e51b81526004016103aa90611589565b60006001840155600283015461043e9082610e0c565b600284015560005b33600090815260066020526040812080548390811061046157fe5b9060005260206000209060020201600001549050806000141561048457506105b3565b831580156104bf57503360009081526006602052604090208054429190849081106104ab57fe5b906000526020600020906002020160010154115b156105315782935082856002015410156104eb5760405162461bcd60e51b81526004016103aa9061139d565b60028501546104fa9084610e0c565b600286018190556105235733600090815260066020526040812061051d916110a2565b506105bb565b61052e836002610e66565b92505b808311610574576105428184610e0c565b33600090815260066020526040902080548490811061055d57fe5b6000918252602090912060029091020155506105bb565b33600090815260066020526040902080548390811061058f57fe5b600091825260208220600290910201818155600101556105af8382610e0c565b9250505b600101610446565b50505b60006105ca8483610dde565b83549091506105d99082610e0c565b83556004546105e89082610e0c565b60045561061f6001600160a01b037f0000000000000000000000000000000000000000000000000000000000000000163386610ea0565b811561065f5760015461065f906001600160a01b037f00000000000000000000000000000000000000000000000000000000000000008116911684610ea0565b336001600160a01b03167f92ccf450a286a957af52509bc1c9939d1a6a481783e142e41e2499f0bb66ebc6858460405161069a9291906116b1565b60405180910390a250505050565b6106b0610ef6565b6001600160a01b03166106c1610912565b6001600160a01b0316146106e75760405162461bcd60e51b81526004016103aa906114ff565b60035460ff16156106f757600080fd5b60005b815181101561074f5760016002600084848151811061071557fe5b6020908102919091018101516001600160a01b03168252810191909152604001600020805460ff19169115159190911790556001016106fa565b50506003805460ff19166001179055565b6001600160a01b031660009081526005602052604090205490565b610783610ef6565b6001600160a01b0316610794610912565b6001600160a01b0316146107ba5760405162461bcd60e51b81526004016103aa906114ff565b600080546040516001600160a01b03909116907f8be0079c531659141344cd1fd0a4f28419497f9722a3daafe3b4186f6b6457e0908390a3600080546001600160a01b0319169055565b7f000000000000000000000000000000000000000000000000000000000000000081565b610830610ef6565b6001600160a01b0316610841610912565b6001600160a01b0316146108675760405162461bcd60e51b81526004016103aa906114ff565b7f00000000000000000000000000000000000000000000000000000000000000006001600160a01b0316826001600160a01b031614156108b95760405162461bcd60e51b81526004016103aa90611552565b6108d56108c4610912565b6001600160a01b0384169083610ea0565b7f8c1256b8896378cd5044f80c202f9772b9d77dc85c8a6eb51967210b09bfaa2882826040516109069291906112a8565b60405180910390a15050565b6000546001600160a01b031690565b60035460ff1681565b3360009081526002602052604090205460ff166109595760405162461bcd60e51b81526004016103aa906112ff565b6001600160a01b0383163014156109825760405162461bcd60e51b81526004016103aa90611534565b8161098c57610bb2565b6040516340c10f1960e01b81526001600160a01b037f000000000000000000000000000000000000000000000000000000000000000016906340c10f19906109da90309086906004016112a8565b600060405180830381600087803b1580156109f457600080fd5b505af1158015610a08573d6000803e3d6000fd5b5050600454610a1a9250905083610dde565b6004556001600160a01b03831660009081526005602052604090208054610a419084610dde565b81558115610b62576002810154610a589084610dde565b60028201556000610a836277f880610a7d62093a80610a774282610e34565b90610e66565b90610dde565b6001600160a01b0386166000908152600660205260409020805491925090801580610acd575082826001830381548110610ab957fe5b906000526020600020906002020160010154105b15610b0f576040805180820190915286815260208082018581528454600181810187556000878152939093209351600290910290930192835551910155610b5a565b610b3986836001840381548110610b2257fe5b600091825260209091206002909102015490610dde565b826001830381548110610b4857fe5b60009182526020909120600290910201555b505050610b77565b6001810154610b719084610dde565b60018201555b836001600160a01b03167ff9288aa3c16d157f87dbf24b824f702d4c76887d38e8fd6ef8212ad19a712aee848460405161069a9291906116a1565b505050565b6001600160a01b038116600090815260066020526040812060609082805b8254811015610ceb5742838281548110610beb57fe5b9060005260206000209060020201600101541115610ce35781610c6157825481900367ffffffffffffffff81118015610c2357600080fd5b50604051908082528060200260200182016040528015610c5d57816020015b610c4a6110c6565b815260200190600190039081610c425790505b5093505b828181548110610c6d57fe5b906000526020600020906002020160405180604001604052908160008201548152602001600182015481525050848381518110610ca657fe5b60200260200101819052508180600101925050610ce0838281548110610cc857fe5b60009182526020909120600290910201548690610dde565b94505b600101610bd5565b505050915091565b6001546001600160a01b031681565b610d0a610ef6565b6001600160a01b0316610d1b610912565b6001600160a01b031614610d415760405162461bcd60e51b81526004016103aa906114ff565b6001600160a01b038116610d675760405162461bcd60e51b81526004016103aa90611320565b600080546040516001600160a01b03808516939216917f8be0079c531659141344cd1fd0a4f28419497f9722a3daafe3b4186f6b6457e091a3600080546001600160a01b0319166001600160a01b0392909216919091179055565b62093a8081565b60026020526000908152604090205460ff1681565b600082820183811015610e035760405162461bcd60e51b81526004016103aa90611366565b90505b92915050565b600082821115610e2e5760405162461bcd60e51b81526004016103aa906113df565b50900390565b6000808211610e555760405162461bcd60e51b81526004016103aa9061145c565b818381610e5e57fe5b049392505050565b600082610e7557506000610e06565b82820282848281610e8257fe5b0414610e035760405162461bcd60e51b81526004016103aa906114be565b610bb28363a9059cbb60e01b8484604051602401610ebf9291906112a8565b60408051601f198184030181529190526020810180516001600160e01b03166001600160e01b031990931692909217909152610efa565b3390565b6060610f4f826040518060400160405280602081526020017f5361666545524332303a206c6f772d6c6576656c2063616c6c206661696c6564815250856001600160a01b0316610f899092919063ffffffff16565b805190915015610bb25780806020019051810190610f6d9190611244565b610bb25760405162461bcd60e51b81526004016103aa906115f7565b6060610f988484600085610fa2565b90505b9392505050565b606082471015610fc45760405162461bcd60e51b81526004016103aa90611416565b610fcd85611063565b610fe95760405162461bcd60e51b81526004016103aa906115c0565b60006060866001600160a01b031685876040516110069190611278565b60006040518083038185875af1925050503d8060008114611043576040519150601f19603f3d011682016040523d82523d6000602084013e611048565b606091505b5091509150611058828286611069565b979650505050505050565b3b151590565b60608315611078575081610f9b565b8251156110885782518084602001fd5b8160405162461bcd60e51b81526004016103aa91906112cc565b50805460008255600202906000526020600020908101906110c391906110e0565b50565b604051806040016040528060008152602001600081525090565b5b808211156110fb57600080825560018201556002016110e1565b5090565b80356001600160a01b0381168114610e0657600080fd5b600060208284031215611127578081fd5b610f9b83836110ff565b60008060408385031215611143578081fd5b61114d84846110ff565b946020939093013593505050565b60008060006060848603121561116f578081fd5b83356001600160a01b0381168114611185578182fd5b925060208401359150604084013561119c8161174c565b809150509250925092565b600060208083850312156111b9578182fd5b823567ffffffffffffffff8111156111cf578283fd5b8301601f810185136111df578283fd5b80356111f26111ed826116fc565b6116d5565b818152838101908385018584028501860189101561120e578687fd5b8694505b838510156112385761122489826110ff565b835260019490940193918501918501611212565b50979650505050505050565b600060208284031215611255578081fd5b8151610e038161174c565b600060208284031215611271578081fd5b5035919050565b6000825161128a81846020870161171c565b9190910192915050565b6001600160a01b0391909116815260200190565b6001600160a01b03929092168252602082015260400190565b901515815260200190565b60006020825282518060208401526112eb81604085016020870161171c565b601f01601f19169190910160400192915050565b60208082526007908201526610b6b4b73a32b960c91b604082015260600190565b60208082526026908201527f4f776e61626c653a206e6577206f776e657220697320746865207a65726f206160408201526564647265737360d01b606082015260800190565b6020808252601b908201527f536166654d6174683a206164646974696f6e206f766572666c6f770000000000604082015260600190565b60208082526022908201527f496e73756666696369656e742062616c616e63652061667465722070656e616c604082015261747960f01b606082015260800190565b6020808252601e908201527f536166654d6174683a207375627472616374696f6e206f766572666c6f770000604082015260600190565b60208082526026908201527f416464726573733a20696e73756666696369656e742062616c616e636520666f6040820152651c8818d85b1b60d21b606082015260800190565b6020808252601a908201527f536166654d6174683a206469766973696f6e206279207a65726f000000000000604082015260600190565b602080825260119082015270043616e6e6f74207769746864726177203607c1b604082015260600190565b60208082526021908201527f536166654d6174683a206d756c7469706c69636174696f6e206f766572666c6f6040820152607760f81b606082015260800190565b6020808252818101527f4f776e61626c653a2063616c6c6572206973206e6f7420746865206f776e6572604082015260600190565b60208082526004908201526339b2b63360e11b604082015260600190565b6020808252601d908201527f43616e6e6f74207769746864726177207374616b696e6720746f6b656e000000604082015260600190565b6020808252601d908201527f496e73756666696369656e7420756e6c6f636b65642062616c616e6365000000604082015260600190565b6020808252601d908201527f416464726573733a2063616c6c20746f206e6f6e2d636f6e7472616374000000604082015260600190565b6020808252602a908201527f5361666545524332303a204552433230206f7065726174696f6e20646964206e6040820152691bdd081cdd58d8d9595960b21b606082015260800190565b90815260200190565b60006040808301858452602082818601528186518084526060870191508288019350855b818110156116935784518051845284015184840152938301939185019160010161166e565b509098975050505050505050565b9182521515602082015260400190565b918252602082015260400190565b9283526020830191909152604082015260600190565b60405181810167ffffffffffffffff811182821017156116f457600080fd5b604052919050565b600067ffffffffffffffff821115611712578081fd5b5060209081020190565b60005b8381101561173757818101518382015260200161171f565b83811115611746576000848401525b50505050565b80151581146110c357600080fdfea264697066735822122075420b5da1966cad60a4372088e923a1e35b0fd9d93f7b73d1621a1d9dd2474164736f6c634300060c0033",
  "devdoc": {
    "kind": "dev",
    "methods": {
      "owner()": {
        "details": "Returns the address of the current owner."
      },
      "renounceOwnership()": {
        "details": "Leaves the contract without owner. It will not be possible to call `onlyOwner` functions anymore. Can only be called by the current owner. NOTE: Renouncing ownership will leave the contract without an owner, thereby removing any functionality that is only available to the owner."
      },
      "transferOwnership(address)": {
        "details": "Transfers ownership of the contract to a new account (`newOwner`). Can only be called by the current owner."
      }
    },
    "version": 1
  },
  "userdoc": {
    "kind": "user",
    "methods": {},
    "version": 1
  },
  "storageLayout": {
    "storage": [
      {
        "astId": 7,
        "contract": "contracts/staking/MultiFeeDistribution.sol:MultiFeeDistribution",
        "label": "_owner",
        "offset": 0,
        "slot": "0",
        "type": "t_address"
      },
      {
        "astId": 10208,
        "contract": "contracts/staking/MultiFeeDistribution.sol:MultiFeeDistribution",
        "label": "penaltyReceiver",
        "offset": 0,
        "slot": "1",
        "type": "t_address"
      },
      {
        "astId": 10222,
        "contract": "contracts/staking/MultiFeeDistribution.sol:MultiFeeDistribution",
        "label": "minters",
        "offset": 0,
        "slot": "2",
        "type": "t_mapping(t_address,t_bool)"
      },
      {
        "astId": 10224,
        "contract": "contracts/staking/MultiFeeDistribution.sol:MultiFeeDistribution",
        "label": "mintersAreSet",
        "offset": 0,
        "slot": "3",
        "type": "t_bool"
      },
      {
        "astId": 10226,
        "contract": "contracts/staking/MultiFeeDistribution.sol:MultiFeeDistribution",
        "label": "totalSupply",
        "offset": 0,
        "slot": "4",
        "type": "t_uint256"
      },
      {
        "astId": 10230,
        "contract": "contracts/staking/MultiFeeDistribution.sol:MultiFeeDistribution",
        "label": "balances",
        "offset": 0,
        "slot": "5",
        "type": "t_mapping(t_address,t_struct(Balances)10199_storage)"
      },
      {
        "astId": 10235,
        "contract": "contracts/staking/MultiFeeDistribution.sol:MultiFeeDistribution",
        "label": "userEarnings",
        "offset": 0,
        "slot": "6",
        "type": "t_mapping(t_address,t_array(t_struct(LockedBalance)10204_storage)dyn_storage)"
      }
    ],
    "types": {
      "t_address": {
        "encoding": "inplace",
        "label": "address",
        "numberOfBytes": "20"
      },
      "t_array(t_struct(LockedBalance)10204_storage)dyn_storage": {
        "base": "t_struct(LockedBalance)10204_storage",
        "encoding": "dynamic_array",
        "label": "struct MultiFeeDistribution.LockedBalance[]",
        "numberOfBytes": "32"
      },
      "t_bool": {
        "encoding": "inplace",
        "label": "bool",
        "numberOfBytes": "1"
      },
      "t_mapping(t_address,t_array(t_struct(LockedBalance)10204_storage)dyn_storage)": {
        "encoding": "mapping",
        "key": "t_address",
        "label": "mapping(address => struct MultiFeeDistribution.LockedBalance[])",
        "numberOfBytes": "32",
        "value": "t_array(t_struct(LockedBalance)10204_storage)dyn_storage"
      },
      "t_mapping(t_address,t_bool)": {
        "encoding": "mapping",
        "key": "t_address",
        "label": "mapping(address => bool)",
        "numberOfBytes": "32",
        "value": "t_bool"
      },
      "t_mapping(t_address,t_struct(Balances)10199_storage)": {
        "encoding": "mapping",
        "key": "t_address",
        "label": "mapping(address => struct MultiFeeDistribution.Balances)",
        "numberOfBytes": "32",
        "value": "t_struct(Balances)10199_storage"
      },
      "t_struct(Balances)10199_storage": {
        "encoding": "inplace",
        "label": "struct MultiFeeDistribution.Balances",
        "members": [
          {
            "astId": 10194,
            "contract": "contracts/staking/MultiFeeDistribution.sol:MultiFeeDistribution",
            "label": "total",
            "offset": 0,
            "slot": "0",
            "type": "t_uint256"
          },
          {
            "astId": 10196,
            "contract": "contracts/staking/MultiFeeDistribution.sol:MultiFeeDistribution",
            "label": "unlocked",
            "offset": 0,
            "slot": "1",
            "type": "t_uint256"
          },
          {
            "astId": 10198,
            "contract": "contracts/staking/MultiFeeDistribution.sol:MultiFeeDistribution",
            "label": "earned",
            "offset": 0,
            "slot": "2",
            "type": "t_uint256"
          }
        ],
        "numberOfBytes": "96"
      },
      "t_struct(LockedBalance)10204_storage": {
        "encoding": "inplace",
        "label": "struct MultiFeeDistribution.LockedBalance",
        "members": [
          {
            "astId": 10201,
            "contract": "contracts/staking/MultiFeeDistribution.sol:MultiFeeDistribution",
            "label": "amount",
            "offset": 0,
            "slot": "0",
            "type": "t_uint256"
          },
          {
            "astId": 10203,
            "contract": "contracts/staking/MultiFeeDistribution.sol:MultiFeeDistribution",
            "label": "unlockTime",
            "offset": 0,
            "slot": "1",
            "type": "t_uint256"
          }
        ],
        "numberOfBytes": "64"
      },
      "t_uint256": {
        "encoding": "inplace",
        "label": "uint256",
        "numberOfBytes": "32"
      }
    }
  }
}