{
  "address": "0xC5fC6cC99f0Ca15c2E4778BF2b070baBe3327868",
  "abi": [
    {
      "inputs": [
        {
          "internalType": "contract IERC20",
          "name": "_stakingToken",
          "type": "address"
        },
        {
          "internalType": "contract IERC20",
          "name": "_rewardToken",
          "type": "address"
        },
        {
          "internalType": "contract IMasterChef",
          "name": "_masterchef",
          "type": "address"
        },
        {
          "internalType": "address",
          "name": "_operator",
          "type": "address"
        }
      ],
      "stateMutability": "nonpayable",
      "type": "constructor"
    },
    {
      "anonymous": false,
      "inputs": [
        {
          "indexed": true,
          "internalType": "address",
          "name": "user",
          "type": "address"
        },
        {
          "indexed": false,
          "internalType": "uint256",
          "name": "amount",
          "type": "uint256"
        }
      ],
      "name": "Deposit",
      "type": "event"
    },
    {
      "anonymous": false,
      "inputs": [
        {
          "indexed": true,
          "internalType": "address",
          "name": "user",
          "type": "address"
        },
        {
          "indexed": false,
          "internalType": "uint256",
          "name": "amount",
          "type": "uint256"
        }
      ],
      "name": "EmergencyWithdraw",
      "type": "event"
    },
    {
      "anonymous": false,
      "inputs": [
        {
          "indexed": true,
          "internalType": "address",
          "name": "from",
          "type": "address"
        },
        {
          "indexed": true,
          "internalType": "address",
          "name": "to",
          "type": "address"
        },
        {
          "indexed": false,
          "internalType": "uint256",
          "name": "t",
          "type": "uint256"
        }
      ],
      "name": "Harvest",
      "type": "event"
    },
    {
      "anonymous": false,
      "inputs": [
        {
          "indexed": true,
          "internalType": "address",
          "name": "previousOwner",
          "type": "address"
        },
        {
          "indexed": true,
          "internalType": "address",
          "name": "newOwner",
          "type": "address"
        }
      ],
      "name": "OwnershipTransferred",
      "type": "event"
    },
    {
      "anonymous": false,
      "inputs": [
        {
          "indexed": true,
          "internalType": "address",
          "name": "user",
          "type": "address"
        },
        {
          "indexed": false,
          "internalType": "uint256",
          "name": "amount",
          "type": "uint256"
        }
      ],
      "name": "Withdraw",
      "type": "event"
    },
    {
      "inputs": [
        {
          "internalType": "address",
          "name": "_user",
          "type": "address"
        },
        {
          "internalType": "uint256",
          "name": "_amount",
          "type": "uint256"
        }
      ],
      "name": "depositFor",
      "outputs": [
        {
          "internalType": "bool",
          "name": "",
          "type": "bool"
        }
      ],
      "stateMutability": "nonpayable",
      "type": "function"
    },
    {
      "inputs": [
        {
          "internalType": "address",
          "name": "_user",
          "type": "address"
        }
      ],
      "name": "emergencyWithdraw",
      "outputs": [],
      "stateMutability": "nonpayable",
      "type": "function"
    },
    {
      "inputs": [
        {
          "internalType": "address",
          "name": "_user",
          "type": "address"
        }
      ],
      "name": "harvest",
      "outputs": [],
      "stateMutability": "nonpayable",
      "type": "function"
    },
    {
      "inputs": [],
      "name": "masterchef",
      "outputs": [
        {
          "internalType": "contract IMasterChef",
          "name": "",
          "type": "address"
        }
      ],
      "stateMutability": "view",
      "type": "function"
    },
    {
      "inputs": [],
      "name": "operator",
      "outputs": [
        {
          "internalType": "address",
          "name": "",
          "type": "address"
        }
      ],
      "stateMutability": "view",
      "type": "function"
    },
    {
      "inputs": [],
      "name": "owner",
      "outputs": [
        {
          "internalType": "address",
          "name": "",
          "type": "address"
        }
      ],
      "stateMutability": "view",
      "type": "function"
    },
    {
      "inputs": [
        {
          "internalType": "address",
          "name": "_user",
          "type": "address"
        }
      ],
      "name": "pendingTokens",
      "outputs": [
        {
          "internalType": "address[]",
          "name": "tokens",
          "type": "address[]"
        },
        {
          "internalType": "uint256[]",
          "name": "amounts",
          "type": "uint256[]"
        }
      ],
      "stateMutability": "view",
      "type": "function"
    },
    {
      "inputs": [],
      "name": "renounceOwnership",
      "outputs": [],
      "stateMutability": "nonpayable",
      "type": "function"
    },
    {
      "inputs": [],
      "name": "rewardPerTokenStored",
      "outputs": [
        {
          "internalType": "uint256",
          "name": "",
          "type": "uint256"
        }
      ],
      "stateMutability": "view",
      "type": "function"
    },
    {
      "inputs": [],
      "name": "rewardToken",
      "outputs": [
        {
          "internalType": "contract IERC20",
          "name": "",
          "type": "address"
        }
      ],
      "stateMutability": "view",
      "type": "function"
    },
    {
      "inputs": [
        {
          "internalType": "contract IOnwardIncentivesController",
          "name": "_incentivesController",
          "type": "address"
        }
      ],
      "name": "setIncentivesController",
      "outputs": [],
      "stateMutability": "nonpayable",
      "type": "function"
    },
    {
      "inputs": [],
      "name": "stakingToken",
      "outputs": [
        {
          "internalType": "contract IERC20",
          "name": "",
          "type": "address"
        }
      ],
      "stateMutability": "view",
      "type": "function"
    },
    {
      "inputs": [
        {
          "internalType": "address",
          "name": "newOwner",
          "type": "address"
        }
      ],
      "name": "transferOwnership",
      "outputs": [],
      "stateMutability": "nonpayable",
      "type": "function"
    },
    {
      "inputs": [
        {
          "internalType": "address",
          "name": "",
          "type": "address"
        }
      ],
      "name": "userInfo",
      "outputs": [
        {
          "internalType": "uint256",
          "name": "amount",
          "type": "uint256"
        },
        {
          "internalType": "uint256",
          "name": "rewardDebt",
          "type": "uint256"
        }
      ],
      "stateMutability": "view",
      "type": "function"
    },
    {
      "inputs": [
        {
          "internalType": "address",
          "name": "_user",
          "type": "address"
        },
        {
          "internalType": "uint256",
          "name": "_amount",
          "type": "uint256"
        }
      ],
      "name": "withdrawFor",
      "outputs": [
        {
          "internalType": "bool",
          "name": "",
          "type": "bool"
        }
      ],
      "stateMutability": "nonpayable",
      "type": "function"
    }
  ],
  "transactionHash": "0x08cad235049b234d7cded10206bf29be7c7d2dd4b2c942e7620e18cd4db3d3c8",
  "args": [
    "0xd41223b4Ed7e68275D3C567c237217Fbb2575568",
    "0xd41223b4Ed7e68275D3C567c237217Fbb2575568",
    "0xD3930575cf356f5cba89DD7Cdb06668e6C00F4a9",
    "0x371F03EfC2c8EcC94e4B230425719e330879A7BD"
  ],
  "solcInputHash": "b0191412d6db60d2913615e97999bbd0",
  "bytecode": "0x6101006040523480156200001257600080fd5b506040516200257238038062002572833981810160405260808110156200003857600080fd5b508051602082015160408301516060909301519192909160006200005b620000ff565b600080546001600160a01b0319166001600160a01b0383169081178255604051929350917f8be0079c531659141344cd1fd0a4f28419497f9722a3daafe3b4186f6b6457e0908290a350606084811b6001600160601b031990811660a05284821b811660c05283821b81166080529082901b1660e052620000f56001600160a01b0385168360001962000103602090811b620013d217901c565b5050505062000516565b3390565b8015806200018d575060408051636eb1769f60e11b81523060048201526001600160a01b03848116602483015291519185169163dd62ed3e91604480820192602092909190829003018186803b1580156200015d57600080fd5b505afa15801562000172573d6000803e3d6000fd5b505050506040513d60208110156200018957600080fd5b5051155b620001ca5760405162461bcd60e51b81526004018080602001828103825260368152602001806200253c6036913960400191505060405180910390fd5b604080516001600160a01b038416602482015260448082018490528251808303909101815260649091019091526020810180516001600160e01b0390811663095ea7b360e01b17909152620002229185916200022716565b505050565b606062000283826040518060400160405280602081526020017f5361666545524332303a206c6f772d6c6576656c2063616c6c206661696c6564815250856001600160a01b0316620002e360201b620014ea179092919060201c565b8051909150156200022257808060200190516020811015620002a457600080fd5b5051620002225760405162461bcd60e51b815260040180806020018281038252602a81526020018062002512602a913960400191505060405180910390fd5b6060620002f48484600085620002fe565b90505b9392505050565b606082471015620003415760405162461bcd60e51b8152600401808060200182810382526026815260200180620024ec6026913960400191505060405180910390fd5b6200034c8562000466565b6200039e576040805162461bcd60e51b815260206004820152601d60248201527f416464726573733a2063616c6c20746f206e6f6e2d636f6e7472616374000000604482015290519081900360640190fd5b60006060866001600160a01b031685876040518082805190602001908083835b60208310620003df5780518252601f199092019160209182019101620003be565b6001836020036101000a03801982511681845116808217855250505050505090500191505060006040518083038185875af1925050503d806000811462000443576040519150601f19603f3d011682016040523d82523d6000602084013e62000448565b606091505b5090925090506200045b8282866200046c565b979650505050505050565b3b151590565b606083156200047d575081620002f7565b8251156200048e5782518084602001fd5b8160405162461bcd60e51b81526004018080602001828103825283818151815260200191508051906020019080838360005b83811015620004da578181015183820152602001620004c0565b50505050905090810190601f168015620005085780820380516001836020036101000a031916815260200191505b509250505060405180910390fd5b60805160601c60a05160601c60c05160601c60e05160601c611f2b620005c16000398061036a52806103fa528061088b52806108b8528061116a52508061048c528061066d52806107775280610f19528061138c528061157b528061176852806118335250806105b252806109b85280610aee528061173352508061052852806105e952806109185280610c495280610d1b52806113b0528061161752806116a15250611f2b6000f3fe608060405234801561001057600080fd5b50600436106100f55760003560e01c80638da5cb5b11610097578063e655dbd811610066578063e655dbd814610308578063f2fde38b1461032e578063f7c618c114610354578063fb1db2781461035c576100f5565b80638da5cb5b146101fb578063c031a66f14610203578063db518db2146102c2578063df136d65146102ee576100f5565b8063570ca735116100d3578063570ca735146101a15780636ff1c9bc146101c5578063715018a6146101eb57806372f702f3146101f3576100f5565b80630e5c011e146100fa5780631959a002146101225780632f4f21e214610161575b600080fd5b6101206004803603602081101561011057600080fd5b50356001600160a01b0316610364565b005b6101486004803603602081101561013857600080fd5b50356001600160a01b03166103d4565b6040805192835260208301919091528051918290030190f35b61018d6004803603604081101561017757600080fd5b506001600160a01b0381351690602001356103ed565b604080519115158252519081900360200190f35b6101a9610889565b604080516001600160a01b039092168252519081900360200190f35b610120600480360360208110156101db57600080fd5b50356001600160a01b03166108ad565b610120610a2e565b6101a9610aec565b6101a9610b10565b6102296004803603602081101561021957600080fd5b50356001600160a01b0316610b1f565b604051808060200180602001838103835285818151815260200191508051906020019060200280838360005b8381101561026d578181015183820152602001610255565b50505050905001838103825284818151815260200191508051906020019060200280838360005b838110156102ac578181015183820152602001610294565b5050505090500194505050505060405180910390f35b61018d600480360360408110156102d857600080fd5b506001600160a01b03813516906020013561115d565b6102f66111da565b60408051918252519081900360200190f35b6101206004803603602081101561031e57600080fd5b50356001600160a01b03166111e0565b6101206004803603602081101561034457600080fd5b50356001600160a01b0316611276565b6101a961138a565b6101a96113ae565b610390817f00000000000000000000000000000000000000000000000000000000000000006000611501565b506040805142815290516001600160a01b0383169133917fa0306f61d3fafe13787b78e276cb6b644382854a66cb46daae14227d3ec267979181900360200190a350565b6002602052600090815260409020805460019091015482565b6000336001600160a01b037f00000000000000000000000000000000000000000000000000000000000000001614610458576040805162461bcd60e51b815260206004820152600960248201526810b7b832b930ba37b960b91b604482015290519081900360640190fd5b6001600160a01b03808416600090815260026020908152604080832081516370a0823160e01b8152306004820152915190947f000000000000000000000000000000000000000000000000000000000000000016926370a082319260248082019391829003018186803b1580156104ce57600080fd5b505afa1580156104e2573d6000803e3d6000fd5b505050506040513d60208110156104f857600080fd5b5051604080516393f1a40b60e01b8152600060048201819052306024830152915192935090916001600160a01b037f000000000000000000000000000000000000000000000000000000000000000016916393f1a40b916044808301926060929190829003018186803b15801561056e57600080fd5b505afa158015610582573d6000803e3d6000fd5b505050506040513d606081101561059857600080fd5b5051835490915085156105e7576105da6001600160a01b037f000000000000000000000000000000000000000000000000000000000000000016333089611944565b6105e481876119a4565b84555b7f00000000000000000000000000000000000000000000000000000000000000006001600160a01b03166341441d3b876040518263ffffffff1660e01b815260040180828152602001915050600060405180830381600087803b15801561064d57600080fd5b505af1158015610661573d6000803e3d6000fd5b50505050600061070a847f00000000000000000000000000000000000000000000000000000000000000006001600160a01b03166370a08231306040518263ffffffff1660e01b815260040180826001600160a01b0316815260200191505060206040518083038186803b1580156106d857600080fd5b505afa1580156106ec573d6000803e3d6000fd5b505050506040513d602081101561070257600080fd5b5051906119fe565b600154909150811580159061071e57508315155b156107495761074661073f856107398564e8d4a51000611a5b565b90611ab4565b82906119a4565b90505b6000866001015464e8d4a510008584028161076057fe5b04039050801561079e5761079e6001600160a01b037f0000000000000000000000000000000000000000000000000000000000000000168b83611b1b565b64e8d4a51000848a018302046001808901919091558290556003546001600160a01b0316156108385760035487546040805163186e465160e31b81526001600160a01b038e8116600483015260248201939093529051919092169163c372328891604480830192600092919082900301818387803b15801561081f57600080fd5b505af1158015610833573d6000803e3d6000fd5b505050505b604080518a815290516001600160a01b038c16917fe1fffcc4923d04b559f4d29a8bfc6cda04eb5b0d3c460751c2402c5c5cc9109c919081900360200190a260019750505050505050505b92915050565b7f000000000000000000000000000000000000000000000000000000000000000081565b336001600160a01b037f00000000000000000000000000000000000000000000000000000000000000001614610916576040805162461bcd60e51b815260206004820152600960248201526810b7b832b930ba37b960b91b604482015290519081900360640190fd5b7f00000000000000000000000000000000000000000000000000000000000000006001600160a01b0316635312ea8e60006040518263ffffffff1660e01b815260040180828152602001915050600060405180830381600087803b15801561097d57600080fd5b505af1158015610991573d6000803e3d6000fd5b5050506001600160a01b03808316600090815260026020526040902080549092506109e0917f000000000000000000000000000000000000000000000000000000000000000016903390611b1b565b805460408051918252516001600160a01b038416917f5fafa99d0643513820be26656b45130b01e1c03062e1266bf36f88cbd3bd9695919081900360200190a2600080825560019091015550565b610a36611b6d565b6001600160a01b0316610a47610b10565b6001600160a01b031614610aa2576040805162461bcd60e51b815260206004820181905260248201527f4f776e61626c653a2063616c6c6572206973206e6f7420746865206f776e6572604482015290519081900360640190fd5b600080546040516001600160a01b03909116907f8be0079c531659141344cd1fd0a4f28419497f9722a3daafe3b4186f6b6457e0908390a3600080546001600160a01b0319169055565b7f000000000000000000000000000000000000000000000000000000000000000081565b6000546001600160a01b031690565b60035460609081906000906001600160a01b03165b6001600160a01b03811615610bb7578180600101925050806001600160a01b0316633fdb343e6040518163ffffffff1660e01b815260040160206040518083038186803b158015610b8457600080fd5b505afa158015610b98573d6000803e3d6000fd5b505050506040513d6020811015610bae57600080fd5b50519050610b34565b8160010167ffffffffffffffff81118015610bd157600080fd5b50604051908082528060200260200182016040528015610bfb578160200160208202803683370190505b5093508160010167ffffffffffffffff81118015610c1857600080fd5b50604051908082528060200260200182016040528015610c42578160200160208202803683370190505b50925060007f00000000000000000000000000000000000000000000000000000000000000006001600160a01b03166393f1a40b6000306040518363ffffffff1660e01b815260040180838152602001826001600160a01b031681526020019250505060606040518083038186803b158015610cbd57600080fd5b505afa158015610cd1573d6000803e3d6000fd5b505050506040513d6060811015610ce757600080fd5b50516040805160016232bd9d60e01b0319815260006004820181905230602483015291519293506060926001600160a01b037f0000000000000000000000000000000000000000000000000000000000000000169263ffcd42639260448082019391829003018186803b158015610d5d57600080fd5b505afa158015610d71573d6000803e3d6000fd5b505050506040513d6000823e601f3d908101601f191682016040908152811015610d9a57600080fd5b8101908080516040519392919084640100000000821115610dba57600080fd5b908301906020820185811115610dcf57600080fd5b8251866020820283011164010000000082111715610dec57600080fd5b82525081516020918201928201910280838360005b83811015610e19578181015183820152602001610e01565b5050505090500160405260200180516040519392919084640100000000821115610e4257600080fd5b908301906020820185811115610e5757600080fd5b8251866020820283011164010000000082111715610e7457600080fd5b82525081516020918201928201910280838360005b83811015610ea1578181015183820152602001610e89565b505050509050016040525050509150506000600154905081600081518110610ec557fe5b6020026020010151600014158015610edc57508215155b15610f1757610f1461073f8461073964e8d4a5100086600081518110610efe57fe5b6020026020010151611a5b90919063ffffffff16565b90505b7f000000000000000000000000000000000000000000000000000000000000000087600081518110610f4557fe5b6001600160a01b0392831660209182029290920181019190915290891660009081526002909152604090206001810154905464e8d4a51000908302040386600081518110610f8f57fe5b60209081029190910101526003546001906001600160a01b03165b6001600160a01b0381161561115157806001600160a01b031663f7c618c16040518163ffffffff1660e01b815260040160206040518083038186803b158015610ff257600080fd5b505afa158015611006573d6000803e3d6000fd5b505050506040513d602081101561101c57600080fd5b505189518a908490811061102c57fe5b60200260200101906001600160a01b031690816001600160a01b031681525050806001600160a01b031663c031a66f8b6040518263ffffffff1660e01b815260040180826001600160a01b0316815260200191505060206040518083038186803b15801561109957600080fd5b505afa1580156110ad573d6000803e3d6000fd5b505050506040513d60208110156110c357600080fd5b505188518990849081106110d357fe5b602002602001018181525050806001600160a01b0316633fdb343e6040518163ffffffff1660e01b815260040160206040518083038186803b15801561111857600080fd5b505afa15801561112c573d6000803e3d6000fd5b505050506040513d602081101561114257600080fd5b50516001909201919050610faa565b50505050505050915091565b6000336001600160a01b037f000000000000000000000000000000000000000000000000000000000000000016146111c8576040805162461bcd60e51b815260206004820152600960248201526810b7b832b930ba37b960b91b604482015290519081900360640190fd5b6111d3833384611501565b9392505050565b60015481565b6111e8611b6d565b6001600160a01b03166111f9610b10565b6001600160a01b031614611254576040805162461bcd60e51b815260206004820181905260248201527f4f776e61626c653a2063616c6c6572206973206e6f7420746865206f776e6572604482015290519081900360640190fd5b600380546001600160a01b0319166001600160a01b0392909216919091179055565b61127e611b6d565b6001600160a01b031661128f610b10565b6001600160a01b0316146112ea576040805162461bcd60e51b815260206004820181905260248201527f4f776e61626c653a2063616c6c6572206973206e6f7420746865206f776e6572604482015290519081900360640190fd5b6001600160a01b03811661132f5760405162461bcd60e51b8152600401808060200182810382526026815260200180611e296026913960400191505060405180910390fd5b600080546040516001600160a01b03808516939216917f8be0079c531659141344cd1fd0a4f28419497f9722a3daafe3b4186f6b6457e091a3600080546001600160a01b0319166001600160a01b0392909216919091179055565b7f000000000000000000000000000000000000000000000000000000000000000081565b7f000000000000000000000000000000000000000000000000000000000000000081565b801580611458575060408051636eb1769f60e11b81523060048201526001600160a01b03848116602483015291519185169163dd62ed3e91604480820192602092909190829003018186803b15801561142a57600080fd5b505afa15801561143e573d6000803e3d6000fd5b505050506040513d602081101561145457600080fd5b5051155b6114935760405162461bcd60e51b8152600401808060200182810382526036815260200180611ec06036913960400191505060405180910390fd5b604080516001600160a01b038416602482015260448082018490528251808303909101815260649091019091526020810180516001600160e01b031663095ea7b360e01b1790526114e5908490611b71565b505050565b60606114f98484600085611c22565b949350505050565b60006001600160a01b038316301415611547576040805162461bcd60e51b815260206004820152600360248201526221546f60e81b604482015290519081900360640190fd5b6001600160a01b03808516600090815260026020908152604080832081516370a0823160e01b8152306004820152915190947f000000000000000000000000000000000000000000000000000000000000000016926370a082319260248082019391829003018186803b1580156115bd57600080fd5b505afa1580156115d1573d6000803e3d6000fd5b505050506040513d60208110156115e757600080fd5b5051604080516393f1a40b60e01b8152600060048201819052306024830152915192935090916001600160a01b037f000000000000000000000000000000000000000000000000000000000000000016916393f1a40b916044808301926060929190829003018186803b15801561165d57600080fd5b505afa158015611671573d6000803e3d6000fd5b505050506040513d606081101561168757600080fd5b5051835490915080861161169b578561169d565b805b95507f00000000000000000000000000000000000000000000000000000000000000006001600160a01b03166341441d3b876040518263ffffffff1660e01b815260040180828152602001915050600060405180830381600087803b15801561170557600080fd5b505af1158015611719573d6000803e3d6000fd5b5050505060008611156117605761175a6001600160a01b037f0000000000000000000000000000000000000000000000000000000000000000168888611b1b565b85810384555b60006117d3847f00000000000000000000000000000000000000000000000000000000000000006001600160a01b03166370a08231306040518263ffffffff1660e01b815260040180826001600160a01b0316815260200191505060206040518083038186803b1580156106d857600080fd5b60015490915081158015906117e757508315155b156118055761180261073f856107398564e8d4a51000611a5b565b90505b6000866001015464e8d4a510008584028161181c57fe5b04039050801561185a5761185a6001600160a01b037f0000000000000000000000000000000000000000000000000000000000000000168c83611b1b565b64e8d4a510008985038302046001808901919091558290556003546001600160a01b0316156118f45760035487546040805163186e465160e31b81526001600160a01b038f8116600483015260248201939093529051919092169163c372328891604480830192600092919082900301818387803b1580156118db57600080fd5b505af11580156118ef573d6000803e3d6000fd5b505050505b604080518a815290516001600160a01b038d16917f884edad9ce6fa2440d8a54cc123490eb96d2768479d49ff9c7366125a9424364919081900360200190a25060019a9950505050505050505050565b604080516001600160a01b0380861660248301528416604482015260648082018490528251808303909101815260849091019091526020810180516001600160e01b03166323b872dd60e01b17905261199e908590611b71565b50505050565b6000828201838110156111d3576040805162461bcd60e51b815260206004820152601b60248201527f536166654d6174683a206164646974696f6e206f766572666c6f770000000000604482015290519081900360640190fd5b600082821115611a55576040805162461bcd60e51b815260206004820152601e60248201527f536166654d6174683a207375627472616374696f6e206f766572666c6f770000604482015290519081900360640190fd5b50900390565b600082611a6a57506000610883565b82820282848281611a7757fe5b04146111d35760405162461bcd60e51b8152600401808060200182810382526021815260200180611e756021913960400191505060405180910390fd5b6000808211611b0a576040805162461bcd60e51b815260206004820152601a60248201527f536166654d6174683a206469766973696f6e206279207a65726f000000000000604482015290519081900360640190fd5b818381611b1357fe5b049392505050565b604080516001600160a01b038416602482015260448082018490528251808303909101815260649091019091526020810180516001600160e01b031663a9059cbb60e01b1790526114e5908490611b71565b3390565b6060611bc6826040518060400160405280602081526020017f5361666545524332303a206c6f772d6c6576656c2063616c6c206661696c6564815250856001600160a01b03166114ea9092919063ffffffff16565b8051909150156114e557808060200190516020811015611be557600080fd5b50516114e55760405162461bcd60e51b815260040180806020018281038252602a815260200180611e96602a913960400191505060405180910390fd5b606082471015611c635760405162461bcd60e51b8152600401808060200182810382526026815260200180611e4f6026913960400191505060405180910390fd5b611c6c85611d7e565b611cbd576040805162461bcd60e51b815260206004820152601d60248201527f416464726573733a2063616c6c20746f206e6f6e2d636f6e7472616374000000604482015290519081900360640190fd5b60006060866001600160a01b031685876040518082805190602001908083835b60208310611cfc5780518252601f199092019160209182019101611cdd565b6001836020036101000a03801982511681845116808217855250505050505090500191505060006040518083038185875af1925050503d8060008114611d5e576040519150601f19603f3d011682016040523d82523d6000602084013e611d63565b606091505b5091509150611d73828286611d84565b979650505050505050565b3b151590565b60608315611d935750816111d3565b825115611da35782518084602001fd5b8160405162461bcd60e51b81526004018080602001828103825283818151815260200191508051906020019080838360005b83811015611ded578181015183820152602001611dd5565b50505050905090810190601f168015611e1a5780820380516001836020036101000a031916815260200191505b509250505060405180910390fdfe4f776e61626c653a206e6577206f776e657220697320746865207a65726f2061646472657373416464726573733a20696e73756666696369656e742062616c616e636520666f722063616c6c536166654d6174683a206d756c7469706c69636174696f6e206f766572666c6f775361666545524332303a204552433230206f7065726174696f6e20646964206e6f7420737563636565645361666545524332303a20617070726f76652066726f6d206e6f6e2d7a65726f20746f206e6f6e2d7a65726f20616c6c6f77616e6365a2646970667358221220873b051c14b6caf5dfb20e0f6af310ec8ed348c4a7a87796f83b97a68f881ba064736f6c634300060c0033416464726573733a20696e73756666696369656e742062616c616e636520666f722063616c6c5361666545524332303a204552433230206f7065726174696f6e20646964206e6f7420737563636565645361666545524332303a20617070726f76652066726f6d206e6f6e2d7a65726f20746f206e6f6e2d7a65726f20616c6c6f77616e6365",
  "devdoc": {
    "kind": "dev",
    "methods": {
      "constructor": {
        "params": {
          "_masterchef": ": MasterChef contract",
          "_operator": ": address of the operator",
          "_rewardToken": ": Rewarding token contract",
          "_stakingToken": ": Staking token contract"
        }
      },
      "owner()": {
        "details": "Returns the address of the current owner."
      },
      "renounceOwnership()": {
        "details": "Leaves the contract without owner. It will not be possible to call `onlyOwner` functions anymore. Can only be called by the current owner. NOTE: Renouncing ownership will leave the contract without an owner, thereby removing any functionality that is only available to the owner."
      },
      "transferOwnership(address)": {
        "details": "Transfers ownership of the contract to a new account (`newOwner`). Can only be called by the current owner."
      }
    },
    "version": 1
  },
  "userdoc": {
    "kind": "user",
    "methods": {
      "constructor": "Constructor"
    },
    "version": 1
  },
  "storageLayout": {
    "storage": [
      {
        "astId": 10,
        "contract": "contracts/staking/RewardPool.sol:RewardPool",
        "label": "_owner",
        "offset": 0,
        "slot": "0",
        "type": "t_address"
      },
      {
        "astId": 27685,
        "contract": "contracts/staking/RewardPool.sol:RewardPool",
        "label": "rewardPerTokenStored",
        "offset": 0,
        "slot": "1",
        "type": "t_uint256"
      },
      {
        "astId": 27689,
        "contract": "contracts/staking/RewardPool.sol:RewardPool",
        "label": "userInfo",
        "offset": 0,
        "slot": "2",
        "type": "t_mapping(t_address,t_struct(UserInfo)27677_storage)"
      },
      {
        "astId": 27693,
        "contract": "contracts/staking/RewardPool.sol:RewardPool",
        "label": "incentivesController",
        "offset": 0,
        "slot": "3",
        "type": "t_contract(IOnwardIncentivesController)9343"
      }
    ],
    "types": {
      "t_address": {
        "encoding": "inplace",
        "label": "address",
        "numberOfBytes": "20"
      },
      "t_contract(IOnwardIncentivesController)9343": {
        "encoding": "inplace",
        "label": "contract IOnwardIncentivesController",
        "numberOfBytes": "20"
      },
      "t_mapping(t_address,t_struct(UserInfo)27677_storage)": {
        "encoding": "mapping",
        "key": "t_address",
        "label": "mapping(address => struct RewardPool.UserInfo)",
        "numberOfBytes": "32",
        "value": "t_struct(UserInfo)27677_storage"
      },
      "t_struct(UserInfo)27677_storage": {
        "encoding": "inplace",
        "label": "struct RewardPool.UserInfo",
        "members": [
          {
            "astId": 27674,
            "contract": "contracts/staking/RewardPool.sol:RewardPool",
            "label": "amount",
            "offset": 0,
            "slot": "0",
            "type": "t_uint256"
          },
          {
            "astId": 27676,
            "contract": "contracts/staking/RewardPool.sol:RewardPool",
            "label": "rewardDebt",
            "offset": 0,
            "slot": "1",
            "type": "t_uint256"
          }
        ],
        "numberOfBytes": "64"
      },
      "t_uint256": {
        "encoding": "inplace",
        "label": "uint256",
        "numberOfBytes": "32"
      }
    }
  }
}