{
  "address": "0x3570A0800874a78607DD31Fac18495A2e50A68C1",
  "abi": [
    {
      "inputs": [
        {
          "internalType": "contract IERC20",
          "name": "_rewardToken",
          "type": "address"
        },
        {
          "internalType": "contract IERC20",
          "name": "_lpToken",
          "type": "address"
        },
        {
          "internalType": "uint256",
          "name": "_tokenPerSec",
          "type": "uint256"
        },
        {
          "internalType": "address",
          "name": "_operator",
          "type": "address"
        },
        {
          "internalType": "address",
          "name": "_originUser",
          "type": "address"
        },
        {
          "internalType": "bool",
          "name": "_isNative",
          "type": "bool"
        }
      ],
      "stateMutability": "nonpayable",
      "type": "constructor"
    },
    {
      "anonymous": false,
      "inputs": [
        {
          "indexed": true,
          "internalType": "address",
          "name": "user",
          "type": "address"
        },
        {
          "indexed": false,
          "internalType": "uint256",
          "name": "amount",
          "type": "uint256"
        }
      ],
      "name": "OnReward",
      "type": "event"
    },
    {
      "anonymous": false,
      "inputs": [
        {
          "indexed": true,
          "internalType": "address",
          "name": "previousOwner",
          "type": "address"
        },
        {
          "indexed": true,
          "internalType": "address",
          "name": "newOwner",
          "type": "address"
        }
      ],
      "name": "OwnershipTransferred",
      "type": "event"
    },
    {
      "anonymous": false,
      "inputs": [
        {
          "indexed": false,
          "internalType": "uint256",
          "name": "oldRate",
          "type": "uint256"
        },
        {
          "indexed": false,
          "internalType": "uint256",
          "name": "newRate",
          "type": "uint256"
        }
      ],
      "name": "RewardRateUpdated",
      "type": "event"
    },
    {
      "inputs": [],
      "name": "balance",
      "outputs": [
        {
          "internalType": "uint256",
          "name": "",
          "type": "uint256"
        }
      ],
      "stateMutability": "view",
      "type": "function"
    },
    {
      "inputs": [],
      "name": "emergencyWithdraw",
      "outputs": [],
      "stateMutability": "nonpayable",
      "type": "function"
    },
    {
      "inputs": [],
      "name": "getNextIncentivesController",
      "outputs": [
        {
          "internalType": "address",
          "name": "",
          "type": "address"
        }
      ],
      "stateMutability": "view",
      "type": "function"
    },
    {
      "inputs": [],
      "name": "isNative",
      "outputs": [
        {
          "internalType": "bool",
          "name": "",
          "type": "bool"
        }
      ],
      "stateMutability": "view",
      "type": "function"
    },
    {
      "inputs": [],
      "name": "lpToken",
      "outputs": [
        {
          "internalType": "contract IERC20",
          "name": "",
          "type": "address"
        }
      ],
      "stateMutability": "view",
      "type": "function"
    },
    {
      "inputs": [
        {
          "internalType": "address",
          "name": "_user",
          "type": "address"
        },
        {
          "internalType": "uint256",
          "name": "_lpAmount",
          "type": "uint256"
        }
      ],
      "name": "onReward",
      "outputs": [],
      "stateMutability": "nonpayable",
      "type": "function"
    },
    {
      "inputs": [],
      "name": "operator",
      "outputs": [
        {
          "internalType": "address",
          "name": "",
          "type": "address"
        }
      ],
      "stateMutability": "view",
      "type": "function"
    },
    {
      "inputs": [],
      "name": "originUser",
      "outputs": [
        {
          "internalType": "address",
          "name": "",
          "type": "address"
        }
      ],
      "stateMutability": "view",
      "type": "function"
    },
    {
      "inputs": [],
      "name": "owner",
      "outputs": [
        {
          "internalType": "address",
          "name": "",
          "type": "address"
        }
      ],
      "stateMutability": "view",
      "type": "function"
    },
    {
      "inputs": [
        {
          "internalType": "address",
          "name": "_user",
          "type": "address"
        }
      ],
      "name": "pendingTokens",
      "outputs": [
        {
          "internalType": "uint256",
          "name": "pending",
          "type": "uint256"
        }
      ],
      "stateMutability": "view",
      "type": "function"
    },
    {
      "inputs": [],
      "name": "poolInfo",
      "outputs": [
        {
          "internalType": "uint256",
          "name": "accTokenPerShare",
          "type": "uint256"
        },
        {
          "internalType": "uint256",
          "name": "lastRewardTimestamp",
          "type": "uint256"
        }
      ],
      "stateMutability": "view",
      "type": "function"
    },
    {
      "inputs": [],
      "name": "renounceOwnership",
      "outputs": [],
      "stateMutability": "nonpayable",
      "type": "function"
    },
    {
      "inputs": [],
      "name": "rewardToken",
      "outputs": [
        {
          "internalType": "contract IERC20",
          "name": "",
          "type": "address"
        }
      ],
      "stateMutability": "view",
      "type": "function"
    },
    {
      "inputs": [
        {
          "internalType": "address",
          "name": "nextIncentivesController",
          "type": "address"
        }
      ],
      "name": "setNextIncentivesController",
      "outputs": [],
      "stateMutability": "nonpayable",
      "type": "function"
    },
    {
      "inputs": [
        {
          "internalType": "uint256",
          "name": "_tokenPerSec",
          "type": "uint256"
        }
      ],
      "name": "setRewardRate",
      "outputs": [],
      "stateMutability": "nonpayable",
      "type": "function"
    },
    {
      "inputs": [],
      "name": "tokenPerSec",
      "outputs": [
        {
          "internalType": "uint256",
          "name": "",
          "type": "uint256"
        }
      ],
      "stateMutability": "view",
      "type": "function"
    },
    {
      "inputs": [
        {
          "internalType": "address",
          "name": "newOwner",
          "type": "address"
        }
      ],
      "name": "transferOwnership",
      "outputs": [],
      "stateMutability": "nonpayable",
      "type": "function"
    },
    {
      "inputs": [],
      "name": "updatePool",
      "outputs": [
        {
          "components": [
            {
              "internalType": "uint256",
              "name": "accTokenPerShare",
              "type": "uint256"
            },
            {
              "internalType": "uint256",
              "name": "lastRewardTimestamp",
              "type": "uint256"
            }
          ],
          "internalType": "struct SimpleIncentivesController.PoolInfo",
          "name": "pool",
          "type": "tuple"
        }
      ],
      "stateMutability": "nonpayable",
      "type": "function"
    },
    {
      "inputs": [
        {
          "internalType": "address",
          "name": "",
          "type": "address"
        }
      ],
      "name": "userInfo",
      "outputs": [
        {
          "internalType": "uint256",
          "name": "amount",
          "type": "uint256"
        },
        {
          "internalType": "uint256",
          "name": "rewardDebt",
          "type": "uint256"
        },
        {
          "internalType": "uint256",
          "name": "unpaidRewards",
          "type": "uint256"
        }
      ],
      "stateMutability": "view",
      "type": "function"
    },
    {
      "stateMutability": "payable",
      "type": "receive"
    }
  ],
  "transactionHash": "0x2a1572ffa9744bf685d8be5c2732c2291fceed121608f5ab4c300fd1577e8cd6",
  "args": [
    "0x3094A01FC000a38c1996fE6c17E92AADa0e585A5",
    "0xF6210A01E8F271862871a80Dbf3fdCD720F8Ef3C",
    "250000000000000000",
    "0xD3930575cf356f5cba89DD7Cdb06668e6C00F4a9",
    "0xD3930575cf356f5cba89DD7Cdb06668e6C00F4a9",
    false
  ],
  "solcInputHash": "a446a3ecf802cd554ad6cd17661d3447",
  "bytecode": "0x6101206040523480156200001257600080fd5b5060405162001d0e38038062001d0e83398101604081905262000035916200021a565b60006200004162000210565b600080546001600160a01b0319166001600160a01b0383169081178255604051929350917f8be0079c531659141344cd1fd0a4f28419497f9722a3daafe3b4186f6b6457e0908290a35060018081905550620000a8866200021460201b620010861760201c565b620000d05760405162461bcd60e51b8152600401620000c790620002f2565b60405180910390fd5b620000e6856200021460201b620010861760201c565b620001055760405162461bcd60e51b8152600401620000c790620003a1565b6200011b836200021460201b620010861760201c565b6200013a5760405162461bcd60e51b8152600401620000c790620002a4565b62000150826200021460201b620010861760201c565b6200016f5760405162461bcd60e51b8152600401620000c790620003ef565b6c0c9f2c9cd04674edea400000008411156200019f5760405162461bcd60e51b8152600401620000c79062000344565b6001600160601b0319606096871b811660805294861b851660a05260069390935590841b831660e05290921b1661010052151560f81b60c052604080518082019091526000808252426020929092018290526003556004556ec097ce7bc90715b34b9f100000000060075562000458565b3390565b3b151590565b60008060008060008060c0878903121562000233578182fd5b865162000240816200043f565b602088015190965062000253816200043f565b6040880151606089015191965094506200026d816200043f565b608088015190935062000280816200043f565b60a0880151909250801515811462000296578182fd5b809150509295509295509295565b6020808252602e908201527f636f6e7374727563746f723a206f70657261746f72206d75737420626520612060408201526d1d985b1a590818dbdb9d1c9858dd60921b606082015260800190565b60208082526032908201527f636f6e7374727563746f723a2072657761726420746f6b656e206d7573742062604082015271194818481d985b1a590818dbdb9d1c9858dd60721b606082015260800190565b60208082526039908201527f636f6e7374727563746f723a20746f6b656e20706572207365636f6e6473206360408201527f616e27742062652067726561746572207468616e203165333000000000000000606082015260800190565b6020808252602e908201527f636f6e7374727563746f723a204c5020746f6b656e206d75737420626520612060408201526d1d985b1a590818dbdb9d1c9858dd60921b606082015260800190565b60208082526030908201527f636f6e7374727563746f723a206f726967696e55736572206d7573742062652060408201526f18481d985b1a590818dbdb9d1c9858dd60821b606082015260800190565b6001600160a01b03811681146200045557600080fd5b50565b60805160601c60a05160601c60c05160f81c60e05160601c6101005160601c611821620004ed6000398061049152806107065280610eab52508061038a528061084a52508061046d52806105b5528061092f5280610cc25250806103b752806106d75280610e7e5250806105f75280610a8b5280610b275280610b685280610d6e5280610e12528061106452506118216000f3fe6080604052600436106101185760003560e01c80638da5cb5b116100a0578063c372328811610064578063c3723288146102c5578063db2e21bc146102e5578063e3161ddd146102fa578063f2fde38b1461031c578063f7c618c11461033c5761011f565b80638da5cb5b1461023b57806396335c17146102505780639e447fc614610270578063b69ef8a814610290578063c031a66f146102a55761011f565b80635a2f3d09116100e75780635a2f3d09146101b55780635fcbd285146101d8578063715018a6146101ed57806373cfc6b2146102045780637f575bce146102265761011f565b80631959a002146101245780633fdb343e1461015c57806350fd1f3e1461017e578063570ca735146101a05761011f565b3661011f57005b600080fd5b34801561013057600080fd5b5061014461013f366004611381565b610351565b604051610153939291906117a5565b60405180910390f35b34801561016857600080fd5b50610171610372565b6040516101539190611432565b34801561018a57600080fd5b50610193610382565b604051610153919061178e565b3480156101ac57600080fd5b50610171610388565b3480156101c157600080fd5b506101ca6103ac565b604051610153929190611797565b3480156101e457600080fd5b506101716103b5565b3480156101f957600080fd5b506102026103d9565b005b34801561021057600080fd5b5061021961046b565b604051610153919061145f565b34801561023257600080fd5b5061017161048f565b34801561024757600080fd5b506101716104b3565b34801561025c57600080fd5b5061020261026b366004611381565b6104c2565b34801561027c57600080fd5b5061020261028b3660046113e6565b610523565b34801561029c57600080fd5b506101936105b1565b3480156102b157600080fd5b506101936102c0366004611381565b610683565b3480156102d157600080fd5b506102026102e036600461139c565b61083f565b3480156102f157600080fd5b50610202610c81565b34801561030657600080fd5b5061030f610e3b565b6040516101539190611777565b34801561032857600080fd5b50610202610337366004611381565b610fa2565b34801561034857600080fd5b50610171611062565b60056020526000908152604090208054600182015460029092015490919083565b6002546001600160a01b03165b90565b60065481565b7f000000000000000000000000000000000000000000000000000000000000000081565b60035460045482565b7f000000000000000000000000000000000000000000000000000000000000000081565b6103e161108c565b6001600160a01b03166103f26104b3565b6001600160a01b0316146104215760405162461bcd60e51b815260040161041890611638565b60405180910390fd5b600080546040516001600160a01b03909116907f8be0079c531659141344cd1fd0a4f28419497f9722a3daafe3b4186f6b6457e0908390a3600080546001600160a01b0319169055565b7f000000000000000000000000000000000000000000000000000000000000000081565b7f000000000000000000000000000000000000000000000000000000000000000081565b6000546001600160a01b031690565b6104ca61108c565b6001600160a01b03166104db6104b3565b6001600160a01b0316146105015760405162461bcd60e51b815260040161041890611638565b600280546001600160a01b0319166001600160a01b0392909216919091179055565b61052b61108c565b6001600160a01b031661053c6104b3565b6001600160a01b0316146105625760405162461bcd60e51b815260040161041890611638565b61056a610e3b565b5060068054908290556040517fc390a98ace15a7bb6bab611eedfdbb2685043b241a869420043cdfb23ccfee50906105a59083908590611797565b60405180910390a15050565b60007f0000000000000000000000000000000000000000000000000000000000000000156105e057504761037f565b6040516370a0823160e01b81526001600160a01b037f000000000000000000000000000000000000000000000000000000000000000016906370a082319061062c903090600401611432565b60206040518083038186803b15801561064457600080fd5b505afa158015610658573d6000803e3d6000fd5b505050506040513d601f19601f8201168201806040525081019061067c91906113fe565b905061037f565b600061068d611350565b506040805180820182526003548152600480546020808401919091526001600160a01b0380871660009081526005909252848220845195516370a0823160e01b81529495909490937f0000000000000000000000000000000000000000000000000000000000000000909216916370a082319161072c917f00000000000000000000000000000000000000000000000000000000000000009101611432565b60206040518083038186803b15801561074457600080fd5b505afa158015610758573d6000803e3d6000fd5b505050506040513d601f19601f8201168201806040525081019061077c91906113fe565b905083602001514211801561079057508015155b156107f75760006107ae85602001514261109090919063ffffffff16565b905060006107c7600654836110bd90919063ffffffff16565b90506107f26107eb846107e5600754856110bd90919063ffffffff16565b906110fe565b8590611130565b935050505b610835836002015461082f85600101546007546108218789600001546110bd90919063ffffffff16565b8161082857fe5b0490611090565b90611130565b9695505050505050565b336001600160a01b037f000000000000000000000000000000000000000000000000000000000000000016146108875760405162461bcd60e51b8152600401610418906116ee565b600260015414156108aa5760405162461bcd60e51b815260040161041890611740565b60026001556108b7610e3b565b506108c0611350565b5060408051808201825260035481526004546020808301919091526001600160a01b0385166000908152600590915291822080549192909115610b995761092b826002015461082f8460010154600754610821886000015188600001546110bd90919063ffffffff16565b90507f000000000000000000000000000000000000000000000000000000000000000015610a715747808211156109e6576000866001600160a01b0316826040516109759061037f565b60006040518083038185875af1925050503d80600081146109b2576040519150601f19603f3d011682016040523d82523d6000602084013e6109b7565b606091505b50509050806109d85760405162461bcd60e51b8152600401610418906114e3565b508082036002840155610a6b565b6000866001600160a01b0316836040516109ff9061037f565b60006040518083038185875af1925050503d8060008114610a3c576040519150601f19603f3d011682016040523d82523d6000602084013e610a41565b606091505b5050905080610a625760405162461bcd60e51b8152600401610418906114e3565b50600060028401555b50610b99565b6040516370a0823160e01b81526000906001600160a01b037f000000000000000000000000000000000000000000000000000000000000000016906370a0823190610ac0903090600401611432565b60206040518083038186803b158015610ad857600080fd5b505afa158015610aec573d6000803e3d6000fd5b505050506040513d601f19601f82011682018060405250810190610b1091906113fe565b905080821115610b5b57610b4e6001600160a01b037f0000000000000000000000000000000000000000000000000000000000000000168783611155565b8082036002840155610b97565b610b8f6001600160a01b037f0000000000000000000000000000000000000000000000000000000000000000168784611155565b600060028401555b505b8382556007548351610bac9086906110bd565b81610bb357fe5b0460018301556002546001600160a01b031615610c2f5760025460405163186e465160e31b81526001600160a01b039091169063c372328890610bfc9088908890600401611446565b600060405180830381600087803b158015610c1657600080fd5b505af1158015610c2a573d6000803e3d6000fd5b505050505b846001600160a01b03167fd1072bb52c3131d0c96197b73fb8a45637e30f8b6664fc142310cc9b242859b483600201548303604051610c6e919061178e565b60405180910390a2505060018055505050565b610c8961108c565b6001600160a01b0316610c9a6104b3565b6001600160a01b031614610cc05760405162461bcd60e51b815260040161041890611638565b7f000000000000000000000000000000000000000000000000000000000000000015610d68576000336001600160a01b031647604051610cff9061037f565b60006040518083038185875af1925050503d8060008114610d3c576040519150601f19603f3d011682016040523d82523d6000602084013e610d41565b606091505b5050905080610d625760405162461bcd60e51b8152600401610418906114e3565b50610e39565b610e39337f00000000000000000000000000000000000000000000000000000000000000006001600160a01b03166370a08231306040518263ffffffff1660e01b8152600401610db89190611432565b60206040518083038186803b158015610dd057600080fd5b505afa158015610de4573d6000803e3d6000fd5b505050506040513d601f19601f82011682018060405250810190610e0891906113fe565b6001600160a01b037f0000000000000000000000000000000000000000000000000000000000000000169190611155565b565b610e43611350565b506040805180820190915260035481526004546020820181905242111561037f576040516370a0823160e01b81526000906001600160a01b037f000000000000000000000000000000000000000000000000000000000000000016906370a0823190610ed3907f000000000000000000000000000000000000000000000000000000000000000090600401611432565b60206040518083038186803b158015610eeb57600080fd5b505afa158015610eff573d6000803e3d6000fd5b505050506040513d601f19601f82011682018060405250810190610f2391906113fe565b90508015610f8e576000610f4483602001514261109090919063ffffffff16565b90506000610f5d600654836110bd90919063ffffffff16565b9050610f8983610f78600754846110bd90919063ffffffff16565b81610f7f57fe5b8651919004611130565b845250505b504260208201819052815160035560045590565b610faa61108c565b6001600160a01b0316610fbb6104b3565b6001600160a01b031614610fe15760405162461bcd60e51b815260040161041890611638565b6001600160a01b0381166110075760405162461bcd60e51b81526004016104189061149d565b600080546040516001600160a01b03808516939216917f8be0079c531659141344cd1fd0a4f28419497f9722a3daafe3b4186f6b6457e091a3600080546001600160a01b0319166001600160a01b0392909216919091179055565b7f000000000000000000000000000000000000000000000000000000000000000081565b3b151590565b3390565b6000828211156110b25760405162461bcd60e51b815260040161041890611543565b508082035b92915050565b6000826110cc575060006110b7565b828202828482816110d957fe5b04146110f75760405162461bcd60e51b8152600401610418906115f7565b9392505050565b600080821161111f5760405162461bcd60e51b8152600401610418906115c0565b81838161112857fe5b049392505050565b6000828201838110156110f75760405162461bcd60e51b81526004016104189061150c565b6111ab8363a9059cbb60e01b8484604051602401611174929190611446565b60408051601f198184030181529190526020810180516001600160e01b03166001600160e01b0319909316929092179091526111b0565b505050565b6060611205826040518060400160405280602081526020017f5361666545524332303a206c6f772d6c6576656c2063616c6c206661696c6564815250856001600160a01b031661123f9092919063ffffffff16565b8051909150156111ab578080602001905181019061122391906113c6565b6111ab5760405162461bcd60e51b8152600401610418906116a4565b606061124e8484600085611256565b949350505050565b6060824710156112785760405162461bcd60e51b81526004016104189061157a565b61128185611086565b61129d5760405162461bcd60e51b81526004016104189061166d565b60006060866001600160a01b031685876040516112ba9190611416565b60006040518083038185875af1925050503d80600081146112f7576040519150601f19603f3d011682016040523d82523d6000602084013e6112fc565b606091505b509150915061130c828286611317565b979650505050505050565b606083156113265750816110f7565b8251156113365782518084602001fd5b8160405162461bcd60e51b8152600401610418919061146a565b604051806040016040528060008152602001600081525090565b80356001600160a01b03811681146110b757600080fd5b600060208284031215611392578081fd5b6110f7838361136a565b600080604083850312156113ae578081fd5b6113b8848461136a565b946020939093013593505050565b6000602082840312156113d7578081fd5b815180151581146110f7578182fd5b6000602082840312156113f7578081fd5b5035919050565b60006020828403121561140f578081fd5b5051919050565b600082516114288184602087016117bb565b9190910192915050565b6001600160a01b0391909116815260200190565b6001600160a01b03929092168252602082015260400190565b901515815260200190565b60006020825282518060208401526114898160408501602087016117bb565b601f01601f19169190910160400192915050565b60208082526026908201527f4f776e61626c653a206e6577206f776e657220697320746865207a65726f206160408201526564647265737360d01b606082015260800190565b6020808252600f908201526e151c985b9cd9995c8819985a5b1959608a1b604082015260600190565b6020808252601b908201527f536166654d6174683a206164646974696f6e206f766572666c6f770000000000604082015260600190565b6020808252601e908201527f536166654d6174683a207375627472616374696f6e206f766572666c6f770000604082015260600190565b60208082526026908201527f416464726573733a20696e73756666696369656e742062616c616e636520666f6040820152651c8818d85b1b60d21b606082015260800190565b6020808252601a908201527f536166654d6174683a206469766973696f6e206279207a65726f000000000000604082015260600190565b60208082526021908201527f536166654d6174683a206d756c7469706c69636174696f6e206f766572666c6f6040820152607760f81b606082015260800190565b6020808252818101527f4f776e61626c653a2063616c6c6572206973206e6f7420746865206f776e6572604082015260600190565b6020808252601d908201527f416464726573733a2063616c6c20746f206e6f6e2d636f6e7472616374000000604082015260600190565b6020808252602a908201527f5361666545524332303a204552433230206f7065726174696f6e20646964206e6040820152691bdd081cdd58d8d9595960b21b606082015260800190565b60208082526032908201527f6f6e6c794f70657261746f723a206f6e6c79206f70657261746f722063616e2060408201527131b0b636103a3434b990333ab731ba34b7b760711b606082015260800190565b6020808252601f908201527f5265656e7472616e637947756172643a207265656e7472616e742063616c6c00604082015260600190565b815181526020918201519181019190915260400190565b90815260200190565b918252602082015260400190565b9283526020830191909152604082015260600190565b60005b838110156117d65781810151838201526020016117be565b838111156117e5576000848401525b5050505056fea264697066735822122026baec23b72f734f04777e9ae5415e419ec55f0eb44760b41e56967d7967e38f64736f6c634300060c0033",
  "devdoc": {
    "kind": "dev",
    "methods": {
      "onReward(address,uint256)": {
        "params": {
          "_lpAmount": "Number of LP tokens the user has",
          "_user": "Address of user"
        }
      },
      "owner()": {
        "details": "Returns the address of the current owner."
      },
      "pendingTokens(address)": {
        "params": {
          "_user": "Address of user."
        },
        "returns": {
          "pending": "reward for a given user."
        }
      },
      "renounceOwnership()": {
        "details": "Leaves the contract without owner. It will not be possible to call `onlyOwner` functions anymore. Can only be called by the current owner. NOTE: Renouncing ownership will leave the contract without an owner, thereby removing any functionality that is only available to the owner."
      },
      "setRewardRate(uint256)": {
        "params": {
          "_tokenPerSec": "The number of tokens to distribute per second"
        }
      },
      "transferOwnership(address)": {
        "details": "Transfers ownership of the contract to a new account (`newOwner`). Can only be called by the current owner."
      },
      "updatePool()": {
        "returns": {
          "pool": "Returns the pool that was updated."
        }
      }
    },
    "version": 1
  },
  "userdoc": {
    "kind": "user",
    "methods": {
      "balance()": {
        "notice": "View function to see balance of reward token."
      },
      "emergencyWithdraw()": {
        "notice": "In case rewarder is stopped before emissions finished, this function allows withdrawal of remaining tokens."
      },
      "onReward(address,uint256)": {
        "notice": "Function called by operator whenever staker claims harvest. Allows staker to also receive a 2nd reward token."
      },
      "pendingTokens(address)": {
        "notice": "View function to see pending tokens"
      },
      "setRewardRate(uint256)": {
        "notice": "Sets the distribution reward rate. This will also update the poolInfo."
      },
      "updatePool()": {
        "notice": "Update reward variables of the given poolInfo."
      },
      "userInfo(address)": {
        "notice": "Info of each user that stakes LP tokens."
      }
    },
    "version": 1
  },
  "storageLayout": {
    "storage": [
      {
        "astId": 10,
        "contract": "contracts/incentives/SimpleIncentivesController.sol:SimpleIncentivesController",
        "label": "_owner",
        "offset": 0,
        "slot": "0",
        "type": "t_address"
      },
      {
        "astId": 2305,
        "contract": "contracts/incentives/SimpleIncentivesController.sol:SimpleIncentivesController",
        "label": "_status",
        "offset": 0,
        "slot": "1",
        "type": "t_uint256"
      },
      {
        "astId": 7397,
        "contract": "contracts/incentives/SimpleIncentivesController.sol:SimpleIncentivesController",
        "label": "_nextIncentivesController",
        "offset": 0,
        "slot": "2",
        "type": "t_address"
      },
      {
        "astId": 7411,
        "contract": "contracts/incentives/SimpleIncentivesController.sol:SimpleIncentivesController",
        "label": "poolInfo",
        "offset": 0,
        "slot": "3",
        "type": "t_struct(PoolInfo)7409_storage"
      },
      {
        "astId": 7416,
        "contract": "contracts/incentives/SimpleIncentivesController.sol:SimpleIncentivesController",
        "label": "userInfo",
        "offset": 0,
        "slot": "5",
        "type": "t_mapping(t_address,t_struct(UserInfo)7404_storage)"
      },
      {
        "astId": 7418,
        "contract": "contracts/incentives/SimpleIncentivesController.sol:SimpleIncentivesController",
        "label": "tokenPerSec",
        "offset": 0,
        "slot": "6",
        "type": "t_uint256"
      },
      {
        "astId": 7420,
        "contract": "contracts/incentives/SimpleIncentivesController.sol:SimpleIncentivesController",
        "label": "ACC_TOKEN_PRECISION",
        "offset": 0,
        "slot": "7",
        "type": "t_uint256"
      }
    ],
    "types": {
      "t_address": {
        "encoding": "inplace",
        "label": "address",
        "numberOfBytes": "20"
      },
      "t_mapping(t_address,t_struct(UserInfo)7404_storage)": {
        "encoding": "mapping",
        "key": "t_address",
        "label": "mapping(address => struct SimpleIncentivesController.UserInfo)",
        "numberOfBytes": "32",
        "value": "t_struct(UserInfo)7404_storage"
      },
      "t_struct(PoolInfo)7409_storage": {
        "encoding": "inplace",
        "label": "struct SimpleIncentivesController.PoolInfo",
        "members": [
          {
            "astId": 7406,
            "contract": "contracts/incentives/SimpleIncentivesController.sol:SimpleIncentivesController",
            "label": "accTokenPerShare",
            "offset": 0,
            "slot": "0",
            "type": "t_uint256"
          },
          {
            "astId": 7408,
            "contract": "contracts/incentives/SimpleIncentivesController.sol:SimpleIncentivesController",
            "label": "lastRewardTimestamp",
            "offset": 0,
            "slot": "1",
            "type": "t_uint256"
          }
        ],
        "numberOfBytes": "64"
      },
      "t_struct(UserInfo)7404_storage": {
        "encoding": "inplace",
        "label": "struct SimpleIncentivesController.UserInfo",
        "members": [
          {
            "astId": 7399,
            "contract": "contracts/incentives/SimpleIncentivesController.sol:SimpleIncentivesController",
            "label": "amount",
            "offset": 0,
            "slot": "0",
            "type": "t_uint256"
          },
          {
            "astId": 7401,
            "contract": "contracts/incentives/SimpleIncentivesController.sol:SimpleIncentivesController",
            "label": "rewardDebt",
            "offset": 0,
            "slot": "1",
            "type": "t_uint256"
          },
          {
            "astId": 7403,
            "contract": "contracts/incentives/SimpleIncentivesController.sol:SimpleIncentivesController",
            "label": "unpaidRewards",
            "offset": 0,
            "slot": "2",
            "type": "t_uint256"
          }
        ],
        "numberOfBytes": "96"
      },
      "t_uint256": {
        "encoding": "inplace",
        "label": "uint256",
        "numberOfBytes": "32"
      }
    }
  }
}