{
  "address": "0x2be89b235825F9B1AB4B81d7a96875189A62b196",
  "abi": [
    {
      "inputs": [
        {
          "internalType": "address",
          "name": "_token",
          "type": "address"
        },
        {
          "internalType": "string",
          "name": "_name",
          "type": "string"
        },
        {
          "internalType": "string",
          "name": "_symbol",
          "type": "string"
        },
        {
          "internalType": "string",
          "name": "_version",
          "type": "string"
        }
      ],
      "stateMutability": "nonpayable",
      "type": "constructor"
    },
    {
      "anonymous": false,
      "inputs": [
        {
          "indexed": true,
          "internalType": "address",
          "name": "provider",
          "type": "address"
        },
        {
          "indexed": true,
          "internalType": "uint256",
          "name": "locktime",
          "type": "uint256"
        },
        {
          "indexed": false,
          "internalType": "uint256",
          "name": "value",
          "type": "uint256"
        },
        {
          "indexed": false,
          "internalType": "uint256",
          "name": "actionType",
          "type": "uint256"
        },
        {
          "indexed": false,
          "internalType": "uint256",
          "name": "ts",
          "type": "uint256"
        }
      ],
      "name": "Deposit",
      "type": "event"
    },
    {
      "anonymous": false,
      "inputs": [
        {
          "indexed": false,
          "internalType": "bytes",
          "name": "error",
          "type": "bytes"
        }
      ],
      "name": "Error",
      "type": "event"
    },
    {
      "anonymous": false,
      "inputs": [
        {
          "indexed": true,
          "internalType": "address",
          "name": "previousOwner",
          "type": "address"
        },
        {
          "indexed": true,
          "internalType": "address",
          "name": "newOwner",
          "type": "address"
        }
      ],
      "name": "OwnershipTransferred",
      "type": "event"
    },
    {
      "anonymous": false,
      "inputs": [
        {
          "indexed": false,
          "internalType": "uint256",
          "name": "prevSupply",
          "type": "uint256"
        },
        {
          "indexed": false,
          "internalType": "uint256",
          "name": "supply",
          "type": "uint256"
        }
      ],
      "name": "Supply",
      "type": "event"
    },
    {
      "anonymous": false,
      "inputs": [
        {
          "indexed": true,
          "internalType": "address",
          "name": "provider",
          "type": "address"
        },
        {
          "indexed": false,
          "internalType": "uint256",
          "name": "value",
          "type": "uint256"
        },
        {
          "indexed": false,
          "internalType": "uint256",
          "name": "ts",
          "type": "uint256"
        }
      ],
      "name": "Withdraw",
      "type": "event"
    },
    {
      "inputs": [],
      "name": "MAXTIME",
      "outputs": [
        {
          "internalType": "uint256",
          "name": "",
          "type": "uint256"
        }
      ],
      "stateMutability": "view",
      "type": "function"
    },
    {
      "inputs": [],
      "name": "MULTIPLIER",
      "outputs": [
        {
          "internalType": "uint256",
          "name": "",
          "type": "uint256"
        }
      ],
      "stateMutability": "view",
      "type": "function"
    },
    {
      "inputs": [],
      "name": "WEEK",
      "outputs": [
        {
          "internalType": "uint256",
          "name": "",
          "type": "uint256"
        }
      ],
      "stateMutability": "view",
      "type": "function"
    },
    {
      "inputs": [
        {
          "internalType": "address",
          "name": "addr",
          "type": "address"
        },
        {
          "internalType": "uint256",
          "name": "_t",
          "type": "uint256"
        }
      ],
      "name": "balanceOf",
      "outputs": [
        {
          "internalType": "uint256",
          "name": "",
          "type": "uint256"
        }
      ],
      "stateMutability": "view",
      "type": "function"
    },
    {
      "inputs": [
        {
          "internalType": "address",
          "name": "addr",
          "type": "address"
        }
      ],
      "name": "balanceOf",
      "outputs": [
        {
          "internalType": "uint256",
          "name": "",
          "type": "uint256"
        }
      ],
      "stateMutability": "view",
      "type": "function"
    },
    {
      "inputs": [
        {
          "internalType": "address",
          "name": "addr",
          "type": "address"
        },
        {
          "internalType": "uint256",
          "name": "_block",
          "type": "uint256"
        }
      ],
      "name": "balanceOfAt",
      "outputs": [
        {
          "internalType": "uint256",
          "name": "",
          "type": "uint256"
        }
      ],
      "stateMutability": "view",
      "type": "function"
    },
    {
      "inputs": [],
      "name": "checkpoint",
      "outputs": [],
      "stateMutability": "nonpayable",
      "type": "function"
    },
    {
      "inputs": [
        {
          "internalType": "uint256",
          "name": "_value",
          "type": "uint256"
        },
        {
          "internalType": "uint256",
          "name": "_unlockTime",
          "type": "uint256"
        }
      ],
      "name": "createLock",
      "outputs": [],
      "stateMutability": "nonpayable",
      "type": "function"
    },
    {
      "inputs": [
        {
          "internalType": "uint256",
          "name": "_value",
          "type": "uint256"
        },
        {
          "internalType": "uint256",
          "name": "_unlockTime",
          "type": "uint256"
        }
      ],
      "name": "createLockWithMc",
      "outputs": [],
      "stateMutability": "nonpayable",
      "type": "function"
    },
    {
      "inputs": [],
      "name": "decimals",
      "outputs": [
        {
          "internalType": "uint8",
          "name": "",
          "type": "uint8"
        }
      ],
      "stateMutability": "view",
      "type": "function"
    },
    {
      "inputs": [
        {
          "internalType": "address",
          "name": "_addr",
          "type": "address"
        },
        {
          "internalType": "uint256",
          "name": "_value",
          "type": "uint256"
        }
      ],
      "name": "depositFor",
      "outputs": [],
      "stateMutability": "nonpayable",
      "type": "function"
    },
    {
      "inputs": [
        {
          "internalType": "address",
          "name": "_addr",
          "type": "address"
        },
        {
          "internalType": "uint256",
          "name": "_value",
          "type": "uint256"
        }
      ],
      "name": "depositForWithMc",
      "outputs": [],
      "stateMutability": "nonpayable",
      "type": "function"
    },
    {
      "inputs": [],
      "name": "emergency",
      "outputs": [
        {
          "internalType": "bool",
          "name": "",
          "type": "bool"
        }
      ],
      "stateMutability": "view",
      "type": "function"
    },
    {
      "inputs": [],
      "name": "emergencyWithdraw",
      "outputs": [],
      "stateMutability": "nonpayable",
      "type": "function"
    },
    {
      "inputs": [],
      "name": "epoch",
      "outputs": [
        {
          "internalType": "uint256",
          "name": "",
          "type": "uint256"
        }
      ],
      "stateMutability": "view",
      "type": "function"
    },
    {
      "inputs": [
        {
          "internalType": "address",
          "name": "addr",
          "type": "address"
        }
      ],
      "name": "getLastUserSlope",
      "outputs": [
        {
          "internalType": "int128",
          "name": "",
          "type": "int128"
        }
      ],
      "stateMutability": "view",
      "type": "function"
    },
    {
      "inputs": [
        {
          "internalType": "uint256",
          "name": "_value",
          "type": "uint256"
        }
      ],
      "name": "increaseAmount",
      "outputs": [],
      "stateMutability": "nonpayable",
      "type": "function"
    },
    {
      "inputs": [
        {
          "internalType": "uint256",
          "name": "_value",
          "type": "uint256"
        }
      ],
      "name": "increaseAmountWithMc",
      "outputs": [],
      "stateMutability": "nonpayable",
      "type": "function"
    },
    {
      "inputs": [
        {
          "internalType": "uint256",
          "name": "_unlockTime",
          "type": "uint256"
        }
      ],
      "name": "increaseUnlockTime",
      "outputs": [],
      "stateMutability": "nonpayable",
      "type": "function"
    },
    {
      "inputs": [
        {
          "internalType": "uint256",
          "name": "_unlockTime",
          "type": "uint256"
        }
      ],
      "name": "increaseUnlockTimeWithMc",
      "outputs": [],
      "stateMutability": "nonpayable",
      "type": "function"
    },
    {
      "inputs": [
        {
          "internalType": "address",
          "name": "",
          "type": "address"
        }
      ],
      "name": "locked",
      "outputs": [
        {
          "internalType": "int128",
          "name": "amount",
          "type": "int128"
        },
        {
          "internalType": "uint256",
          "name": "end",
          "type": "uint256"
        }
      ],
      "stateMutability": "view",
      "type": "function"
    },
    {
      "inputs": [
        {
          "internalType": "address",
          "name": "_addr",
          "type": "address"
        }
      ],
      "name": "lockedEnd",
      "outputs": [
        {
          "internalType": "uint256",
          "name": "",
          "type": "uint256"
        }
      ],
      "stateMutability": "view",
      "type": "function"
    },
    {
      "inputs": [],
      "name": "masterchef",
      "outputs": [
        {
          "internalType": "contract IMasterChef",
          "name": "",
          "type": "address"
        }
      ],
      "stateMutability": "view",
      "type": "function"
    },
    {
      "inputs": [],
      "name": "name",
      "outputs": [
        {
          "internalType": "string",
          "name": "",
          "type": "string"
        }
      ],
      "stateMutability": "view",
      "type": "function"
    },
    {
      "inputs": [],
      "name": "owner",
      "outputs": [
        {
          "internalType": "address",
          "name": "",
          "type": "address"
        }
      ],
      "stateMutability": "view",
      "type": "function"
    },
    {
      "inputs": [
        {
          "internalType": "uint256",
          "name": "",
          "type": "uint256"
        }
      ],
      "name": "pointHistory",
      "outputs": [
        {
          "internalType": "int128",
          "name": "bias",
          "type": "int128"
        },
        {
          "internalType": "int128",
          "name": "slope",
          "type": "int128"
        },
        {
          "internalType": "uint256",
          "name": "ts",
          "type": "uint256"
        },
        {
          "internalType": "uint256",
          "name": "blk",
          "type": "uint256"
        }
      ],
      "stateMutability": "view",
      "type": "function"
    },
    {
      "inputs": [],
      "name": "renounceOwnership",
      "outputs": [],
      "stateMutability": "nonpayable",
      "type": "function"
    },
    {
      "inputs": [],
      "name": "rewardPool",
      "outputs": [
        {
          "internalType": "contract IRewardPool",
          "name": "",
          "type": "address"
        }
      ],
      "stateMutability": "view",
      "type": "function"
    },
    {
      "inputs": [],
      "name": "setEmergency",
      "outputs": [],
      "stateMutability": "nonpayable",
      "type": "function"
    },
    {
      "inputs": [
        {
          "internalType": "contract IMasterChef",
          "name": "_masterchef",
          "type": "address"
        }
      ],
      "name": "setMasterchef",
      "outputs": [],
      "stateMutability": "nonpayable",
      "type": "function"
    },
    {
      "inputs": [
        {
          "internalType": "contract IRewardPool",
          "name": "_rewardPool",
          "type": "address"
        }
      ],
      "name": "setRewardPool",
      "outputs": [],
      "stateMutability": "nonpayable",
      "type": "function"
    },
    {
      "inputs": [
        {
          "internalType": "address[]",
          "name": "_users",
          "type": "address[]"
        },
        {
          "internalType": "bool",
          "name": "_flag",
          "type": "bool"
        }
      ],
      "name": "setWhitelist",
      "outputs": [],
      "stateMutability": "nonpayable",
      "type": "function"
    },
    {
      "inputs": [
        {
          "internalType": "uint256",
          "name": "",
          "type": "uint256"
        }
      ],
      "name": "slopeChanges",
      "outputs": [
        {
          "internalType": "int128",
          "name": "",
          "type": "int128"
        }
      ],
      "stateMutability": "view",
      "type": "function"
    },
    {
      "inputs": [],
      "name": "supply",
      "outputs": [
        {
          "internalType": "uint256",
          "name": "",
          "type": "uint256"
        }
      ],
      "stateMutability": "view",
      "type": "function"
    },
    {
      "inputs": [],
      "name": "symbol",
      "outputs": [
        {
          "internalType": "string",
          "name": "",
          "type": "string"
        }
      ],
      "stateMutability": "view",
      "type": "function"
    },
    {
      "inputs": [],
      "name": "token",
      "outputs": [
        {
          "internalType": "address",
          "name": "",
          "type": "address"
        }
      ],
      "stateMutability": "view",
      "type": "function"
    },
    {
      "inputs": [],
      "name": "totalSupply",
      "outputs": [
        {
          "internalType": "uint256",
          "name": "",
          "type": "uint256"
        }
      ],
      "stateMutability": "view",
      "type": "function"
    },
    {
      "inputs": [
        {
          "internalType": "uint256",
          "name": "t",
          "type": "uint256"
        }
      ],
      "name": "totalSupply",
      "outputs": [
        {
          "internalType": "uint256",
          "name": "",
          "type": "uint256"
        }
      ],
      "stateMutability": "view",
      "type": "function"
    },
    {
      "inputs": [
        {
          "internalType": "uint256",
          "name": "_block",
          "type": "uint256"
        }
      ],
      "name": "totalSupplyAt",
      "outputs": [
        {
          "internalType": "uint256",
          "name": "",
          "type": "uint256"
        }
      ],
      "stateMutability": "view",
      "type": "function"
    },
    {
      "inputs": [
        {
          "internalType": "address",
          "name": "newOwner",
          "type": "address"
        }
      ],
      "name": "transferOwnership",
      "outputs": [],
      "stateMutability": "nonpayable",
      "type": "function"
    },
    {
      "inputs": [
        {
          "internalType": "address",
          "name": "",
          "type": "address"
        }
      ],
      "name": "userPointEpoch",
      "outputs": [
        {
          "internalType": "uint256",
          "name": "",
          "type": "uint256"
        }
      ],
      "stateMutability": "view",
      "type": "function"
    },
    {
      "inputs": [
        {
          "internalType": "address",
          "name": "",
          "type": "address"
        },
        {
          "internalType": "uint256",
          "name": "",
          "type": "uint256"
        }
      ],
      "name": "userPointHistory",
      "outputs": [
        {
          "internalType": "int128",
          "name": "bias",
          "type": "int128"
        },
        {
          "internalType": "int128",
          "name": "slope",
          "type": "int128"
        },
        {
          "internalType": "uint256",
          "name": "ts",
          "type": "uint256"
        },
        {
          "internalType": "uint256",
          "name": "blk",
          "type": "uint256"
        }
      ],
      "stateMutability": "view",
      "type": "function"
    },
    {
      "inputs": [
        {
          "internalType": "address",
          "name": "_addr",
          "type": "address"
        },
        {
          "internalType": "uint256",
          "name": "_idx",
          "type": "uint256"
        }
      ],
      "name": "userPointHistoryTs",
      "outputs": [
        {
          "internalType": "uint256",
          "name": "",
          "type": "uint256"
        }
      ],
      "stateMutability": "view",
      "type": "function"
    },
    {
      "inputs": [],
      "name": "version",
      "outputs": [
        {
          "internalType": "string",
          "name": "",
          "type": "string"
        }
      ],
      "stateMutability": "view",
      "type": "function"
    },
    {
      "inputs": [
        {
          "internalType": "address",
          "name": "",
          "type": "address"
        }
      ],
      "name": "whitelist",
      "outputs": [
        {
          "internalType": "bool",
          "name": "",
          "type": "bool"
        }
      ],
      "stateMutability": "view",
      "type": "function"
    },
    {
      "inputs": [],
      "name": "withdraw",
      "outputs": [],
      "stateMutability": "nonpayable",
      "type": "function"
    },
    {
      "inputs": [],
      "name": "withdrawWithMc",
      "outputs": [],
      "stateMutability": "nonpayable",
      "type": "function"
    }
  ],
  "transactionHash": "0x1daef44e8ed447cd2e47ba9b808e63ed691554e05259b5121199d8734b20c402",
  "args": [
    "0xd41223b4Ed7e68275D3C567c237217Fbb2575568",
    "Vote Escrowed EMO",
    "veEMO",
    "veEMO_1.0.0"
  ],
  "solcInputHash": "3bc41652a2b989a3f25335a753feae44",
  "bytecode": "0x60a06040523480156200001157600080fd5b5060405162003728380380620037288339810160408190526200003491620002e1565b6000620000406200019a565b600080546001600160a01b0319166001600160a01b0383169081178255604051929350917f8be0079c531659141344cd1fd0a4f28419497f9722a3daafe3b4186f6b6457e0908290a35060018055600580546001600160a01b0319166001600160a01b03861690811790915543600e5542600d556040805163313ce56760e01b8152905163313ce56791600480820192602092909190829003018186803b158015620000eb57600080fd5b505afa15801562000100573d6000803e3d6000fd5b505050506040513d601f19601f820116820180604052508101906200012691906200038e565b60f81b7fff00000000000000000000000000000000000000000000000000000000000000166080528251620001639060029060208601906200019e565b508151620001799060039060208501906200019e565b5080516200018f9060049060208401906200019e565b5050505050620003b8565b3390565b828054600181600116156101000203166002900490600052602060002090601f016020900481019282601f10620001e157805160ff191683800117855562000211565b8280016001018555821562000211579182015b8281111562000211578251825591602001919060010190620001f4565b506200021f92915062000223565b5090565b5b808211156200021f576000815560010162000224565b600082601f8301126200024b578081fd5b81516001600160401b038082111562000262578283fd5b6040516020601f8401601f191682018101838111838210171562000284578586fd5b80604052508194508382528681858801011115620002a157600080fd5b600092505b83831015620002c55785830181015182840182015291820191620002a6565b83831115620002d75760008185840101525b5050505092915050565b60008060008060808587031215620002f7578384fd5b84516001600160a01b03811681146200030e578485fd5b60208601519094506001600160401b03808211156200032b578485fd5b62000339888389016200023a565b945060408701519150808211156200034f578384fd5b6200035d888389016200023a565b9350606087015191508082111562000373578283fd5b5062000382878288016200023a565b91505092959194509250565b600060208284031215620003a0578081fd5b815160ff81168114620003b1578182fd5b9392505050565b60805160f81c613352620003d660003980610a1252506133526000f3fe608060405234801561001057600080fd5b50600436106102945760003560e01c80638ad4c44711610167578063caa6fea4116100ce578063f2fde38b11610087578063f2fde38b14610548578063f3a6d6081461055b578063f4359ce51461057b578063f52a36f714610583578063fb1db27814610596578063fc0c546a1461059e57610294565b8063caa6fea4146104e9578063cbf9fe5f146104f1578063db2e21bc14610512578063dd8683221461051a578063eac6a6671461052d578063ee00ef3a1461054057610294565b80639b19251a116101205780639b19251a14610475578063a7095e8114610495578063b52c05fe146104a8578063bd85b039146104bb578063bdc36ac9146104ce578063c2c4c5c1146104e157610294565b80638ad4c447146104245780638da5cb5b14610437578063900cf0cf1461043f578063933baa861461044757806395d89b411461045a578063981b24d01461046257610294565b80633ccfd60b1161020b57806370a08231116101c457806370a08231146103c8578063715018a6146103db5780637805e700146103e357806378238c37146103eb5780637c616fe6146103fe57806381fc83bb1461041157610294565b80633ccfd60b146103755780634deafcae1461037d5780634ee2cd7e1461039057806354fd4d50146103a357806358afefcc146103ab57806366666aa9146103b357610294565b806315456eba1161025d57806315456eba146102fc57806318160ddd1461030f5780632f4f21e214610317578063313ce5671461032a57806334d901a41461033f5780633c271a051461036257610294565b8062fdd58e14610299578063047fc9aa146102c2578063059f8b16146102ca57806306fdde03146102d257806309e1c897146102e7575b600080fd5b6102ac6102a7366004612aec565b6105a6565b6040516102b99190613294565b60405180910390f35b6102ac610691565b6102ac610697565b6102da6106a3565b6040516102b99190612cd2565b6102fa6102f5366004612aec565b61072e565b005b6102fa61030a366004612bf2565b61079e565b6102ac6108fb565b6102fa610325366004612aec565b61090b565b610332610a10565b6040516102b991906132c1565b61035261034d366004612aec565b610a34565b6040516102b99493929190612cf3565b6102fa610370366004612b17565b610a84565b6102fa610b2b565b6102ac61038b366004612ad0565b610e28565b6102ac61039e366004612aec565b610e46565b6102da611165565b6102fa6111c0565b6103bb61120e565b6040516102b99190612c76565b6102ac6103d6366004612ad0565b61121d565b6102fa611229565b6102fa6112b2565b6102fa6103f9366004612ad0565b61131e565b6102fa61040c366004612bf2565b611427565b6102ac61041f366004612ad0565b6115ac565b610352610432366004612bf2565b6115ca565b6103bb61160a565b6102ac611619565b6102fa610455366004612ad0565b61161f565b6102da611680565b6102ac610470366004612bf2565b6116db565b610488610483366004612ad0565b611876565b6040516102b99190612cc7565b6102fa6104a3366004612c0a565b611897565b6102fa6104b6366004612c0a565b6118d1565b6102ac6104c9366004612bf2565b611a4f565b6102fa6104dc366004612bf2565b611ad1565b6102fa611b3f565b610488611ba2565b6105046104ff366004612ad0565b611bab565b6040516102b9929190612d16565b6102fa611bcb565b6102fa610528366004612bf2565b611d84565b6102ac61053b366004612aec565b611d8d565b6102ac611dcf565b6102fa610556366004612ad0565b611dd7565b61056e610569366004612ad0565b611e97565b6040516102b99190612ce5565b6102ac611ef6565b61056e610591366004612bf2565b611efd565b6103bb611f1e565b6103bb611f2d565b6001600160a01b03821660009081526c03c95a2f0b4856475fe000000d6020526040812054806105da57600091505061068b565b6105e2612a75565b6001600160a01b03851660009081526c03c95a2f0b4856475fe000000c6020526040902082633b9aca00811061061457fe5b60408051608081018252600392909202929092018054600160801b8104600f90810b810b810b602085018190526001840154958501869052600290930154606085015293880390910290830b830b830b03820b820b8082529092506000910b121561067e57600081525b51600f0b915061068b9050565b92915050565b60075481565b670de0b6b3a764000081565b6002805460408051602060018416156101000260001901909316849004601f810184900484028201840190925281815292918301828280156107265780601f106106fb57610100808354040283529160200191610726565b820191906000526020600020905b81548152906001019060200180831161070957829003601f168201915b505050505081565b610738828261090b565b600854604051637df367b560e11b81526001600160a01b039091169063fbe6cf6a90610768908590600401612c76565b600060405180830381600087803b15801561078257600080fd5b505af1158015610796573d6000803e3d6000fd5b505050505050565b600260015414156107ca5760405162461bcd60e51b81526004016107c19061322d565b60405180910390fd5b6002600155600a5460ff16156107f25760405162461bcd60e51b81526004016107c190612f30565b333281148061082557506001600160a01b03811660009081526c03c95a2f0b4856475fe000000f602052604090205460ff165b6108415760405162461bcd60e51b81526004016107c190612d29565b600082116108615760405162461bcd60e51b81526004016107c190613164565b610869612aa3565b5033600090815260096020908152604080832081518083019092528054600f90810b810b810b808452600190920154938301939093529092910b136108c05760405162461bcd60e51b81526004016107c1906131fd565b428160200151116108e35760405162461bcd60e51b81526004016107c190612da4565b6108f233846000846002611f3c565b50506001805550565b600061090642611a4f565b905090565b6002600154141561092e5760405162461bcd60e51b81526004016107c19061322d565b6002600155600a5460ff16156109565760405162461bcd60e51b81526004016107c190612f30565b600081116109765760405162461bcd60e51b81526004016107c190613164565b61097e612aa3565b506001600160a01b038216600090815260096020908152604080832081518083019092528054600f90810b810b810b808452600190920154938301939093529092910b136109de5760405162461bcd60e51b81526004016107c1906131fd565b42816020015111610a015760405162461bcd60e51b81526004016107c190612da4565b6108f283836000846000611f3c565b7f000000000000000000000000000000000000000000000000000000000000000081565b6c03c95a2f0b4856475fe000000c60205281600052604060002081633b9aca008110610a5c57fe5b6003020180546001820154600290920154600f82810b9550600160801b90920490910b925084565b610a8c6121c9565b6001600160a01b0316610a9d61160a565b6001600160a01b031614610ac35760405162461bcd60e51b81526004016107c1906130b7565b60005b8251811015610b2657816c03c95a2f0b4856475fe000000f6000858481518110610aec57fe5b6020908102919091018101516001600160a01b03168252810191909152604001600020805460ff1916911515919091179055600101610ac6565b505050565b60026001541415610b4e5760405162461bcd60e51b81526004016107c19061322d565b6002600155600a5460ff1615610b765760405162461bcd60e51b81526004016107c190612f30565b610b7e612aa3565b503360009081526009602090815260409182902082518084019093528054600f90810b810b900b835260010154908201819052421015610bd05760405162461bcd60e51b81526004016107c190613264565b8051600f0b610bdd612aa3565b5033600081815260096020818152604080842081518083019092528054600f81810b810b810b8452600183018054858701528a8601888152888c529890975294909352875190930b6001600160801b03166001600160801b03199092169190911790915591519055600754610c5281846121cd565b600755610c603383866121f5565b600654604051636da8c6d960e11b81526001600160a01b039091169063db518db290610c929033908790600401612c8a565b602060405180830381600087803b158015610cac57600080fd5b505af1158015610cc0573d6000803e3d6000fd5b505050506040513d601f19601f82011682018060405250810190610ce49190612bd6565b610d005760405162461bcd60e51b81526004016107c1906130ec565b60055460405163a9059cbb60e01b81526001600160a01b039091169063a9059cbb90610d329033908790600401612c8a565b602060405180830381600087803b158015610d4c57600080fd5b505af1158015610d60573d6000803e3d6000fd5b505050506040513d601f19601f82011682018060405250810190610d849190612bd6565b610da05760405162461bcd60e51b81526004016107c190613015565b336001600160a01b03167ff279e6a1f5e320cca91135676d9cb6e44ca8a08c0b88342bcdb1144f6511b5688442604051610ddb92919061329d565b60405180910390a27f5e2aa66efd74cce82b21852e317e5490d9ecc9e6bb953ae24d90851258cc2f5c81848303604051610e1692919061329d565b60405180910390a15050600180555050565b6001600160a01b031660009081526009602052604090206001015490565b600043821115610e685760405162461bcd60e51b81526004016107c190612f9b565b6001600160a01b03831660009081526c03c95a2f0b4856475fe000000d6020526040812054815b6080811015610f0757818310610ea457610f07565b6001600160a01b03861660009081526c03c95a2f0b4856475fe000000c6020526040902060028385016001010490869082633b9aca008110610ee257fe5b600302016002015411610ef757809350610efe565b6001810392505b50600101610e8f565b50610f10612a75565b6001600160a01b03861660009081526c03c95a2f0b4856475fe000000c6020526040902083633b9aca008110610f4257fe5b60408051608081018252600392909202929092018054600f81810b810b810b8452600160801b909104810b810b900b60208301526001810154928201929092526002909101546060820152600b549091506000610f9f87836128a2565b9050610fa9612a75565b600c82680a18f07d736b90be55601d1b8110610fc157fe5b60408051608081018252600392909202929092018054600f81810b810b810b8452600160801b909104810b810b900b602083015260018101549282019290925260029091015460608201529050600080848410156110be57611021612a75565b600c85600101680a18f07d736b90be55601d1b811061103c57fe5b60408051608081018252600392909202929092018054600f81810b810b810b8452600160801b909104810b810b900b60208301526001810154928201929092526002909101546060808301829052860151919250611099916121cd565b92506110b6846040015182604001516121cd90919063ffffffff16565b9150506110ea565b60608301516110ce9043906121cd565b91506110e78360400151426121cd90919063ffffffff16565b90505b60408301518215611119578261110d85606001518d6121cd90919063ffffffff16565b83028161111657fe5b04015b604087015160208801518851918303029003600f90810b810b8089526000910b126111535750509351600f0b965061068b95505050505050565b6000995050505050505050505061068b565b6004805460408051602060026001851615610100026000190190941693909304601f810184900484028201840190925281815292918301828280156107265780601f106106fb57610100808354040283529160200191610726565b6111c86121c9565b6001600160a01b03166111d961160a565b6001600160a01b0316146111ff5760405162461bcd60e51b81526004016107c1906130b7565b600a805460ff19166001179055565b6006546001600160a01b031681565b600061068b82426105a6565b6112316121c9565b6001600160a01b031661124261160a565b6001600160a01b0316146112685760405162461bcd60e51b81526004016107c1906130b7565b600080546040516001600160a01b03909116907f8be0079c531659141344cd1fd0a4f28419497f9722a3daafe3b4186f6b6457e0908390a3600080546001600160a01b0319169055565b6112ba610b2b565b600854604051637df367b560e11b81526001600160a01b039091169063fbe6cf6a906112ea903390600401612c76565b600060405180830381600087803b15801561130457600080fd5b505af1158015611318573d6000803e3d6000fd5b50505050565b6113266121c9565b6001600160a01b031661133761160a565b6001600160a01b03161461135d5760405162461bcd60e51b81526004016107c1906130b7565b6006546001600160a01b0316156113865760405162461bcd60e51b81526004016107c190612de8565b600680546001600160a01b0319166001600160a01b038381169190911790915560055460405163095ea7b360e01b815291169063095ea7b3906113d190849060001990600401612c8a565b602060405180830381600087803b1580156113eb57600080fd5b505af11580156113ff573d6000803e3d6000fd5b505050506040513d601f19601f820116820180604052508101906114239190612bd6565b5050565b6002600154141561144a5760405162461bcd60e51b81526004016107c19061322d565b6002600155600a5460ff16156114725760405162461bcd60e51b81526004016107c190612f30565b33328114806114a557506001600160a01b03811660009081526c03c95a2f0b4856475fe000000f602052604090205460ff165b6114c15760405162461bcd60e51b81526004016107c190612d29565b6114c9612aa3565b503360009081526009602090815260409182902082518084019093528054600f90810b810b900b83526001015490820181905262093a80808504029042106115235760405162461bcd60e51b81526004016107c1906131d7565b60008260000151600f0b1361154a5760405162461bcd60e51b81526004016107c190612fea565b8160200151811161156d5760405162461bcd60e51b81526004016107c190612e56565b630784ce0042018111156115935760405162461bcd60e51b81526004016107c190613080565b6115a233600083856003611f3c565b5050600180555050565b6c03c95a2f0b4856475fe000000d6020526000908152604090205481565b600c81680a18f07d736b90be55601d1b81106115e257fe5b6003020180546001820154600290920154600f82810b9450600160801b90920490910b919084565b6000546001600160a01b031690565b600b5481565b6116276121c9565b6001600160a01b031661163861160a565b6001600160a01b03161461165e5760405162461bcd60e51b81526004016107c1906130b7565b600880546001600160a01b0319166001600160a01b0392909216919091179055565b6003805460408051602060026001851615610100026000190190941693909304601f810184900484028201840190925281815292918301828280156107265780601f106106fb57610100808354040283529160200191610726565b6000438211156116fd5760405162461bcd60e51b81526004016107c190612f9b565b600b54600061170c84836128a2565b9050611716612a75565b600c82680a18f07d736b90be55601d1b811061172e57fe5b60408051608081018252600392909202929092018054600f81810b810b810b8452600160801b909104810b810b900b6020830152600181015492820192909252600290910154606082015290506000838310156118305761178d612a75565b600c84600101680a18f07d736b90be55601d1b81106117a857fe5b60408051608081018252600392909202929092018054600f81810b810b810b8452600160801b909104810b810b900b602083015260018101549282019290925260029091015460608083018290528501519192501461182a578260600151816060015103836040015182604001510384606001518903028161182657fe5b0491505b5061185c565b4382606001511461185c57816060015143038260400151420383606001518803028161185857fe5b0490505b61186c828284604001510161290e565b9695505050505050565b6c03c95a2f0b4856475fe000000f6020526000908152604090205460ff1681565b6118a182826118d1565b600854604051637df367b560e11b81526001600160a01b039091169063fbe6cf6a90610768903390600401612c76565b600260015414156118f45760405162461bcd60e51b81526004016107c19061322d565b6002600155600a5460ff161561191c5760405162461bcd60e51b81526004016107c190612f30565b333281148061194f57506001600160a01b03811660009081526c03c95a2f0b4856475fe000000f602052604090205460ff165b61196b5760405162461bcd60e51b81526004016107c190612d29565b6000831161198b5760405162461bcd60e51b81526004016107c190613164565b62093a808083040261199b612aa3565b503360009081526009602090815260409182902082518084019093528054600f90810b810b810b80855260019092015492840192909252900b156119f15760405162461bcd60e51b81526004016107c19061312d565b428211611a105760405162461bcd60e51b81526004016107c190613191565b630784ce004201821115611a365760405162461bcd60e51b81526004016107c190613080565b611a44338684846001611f3c565b505060018055505050565b6000611a59612a75565b600c600b54680a18f07d736b90be55601d1b8110611a7357fe5b60408051608081018252600392909202929092018054600f81810b810b810b8452600160801b909104810b810b900b602083015260018101549282019290925260029091015460608201529050611aca818461290e565b9392505050565b611ada8161079e565b600854604051637df367b560e11b81526001600160a01b039091169063fbe6cf6a90611b0a903390600401612c76565b600060405180830381600087803b158015611b2457600080fd5b505af1158015611b38573d6000803e3d6000fd5b5050505050565b600a5460ff1615611b625760405162461bcd60e51b81526004016107c190612f30565b611ba0600060405180604001604052806000600f0b8152602001600081525060405180604001604052806000600f0b815260200160008152506121f5565b565b600a5460ff1681565b60096020526000908152604090208054600190910154600f9190910b9082565b600a5460ff16611bed5760405162461bcd60e51b81526004016107c190612f59565b336000818152600960205260409081902080546006549251631bfc726f60e21b81529193600f91820b90910b926001600160a01b031691636ff1c9bc91611c3691600401612c76565b600060405180830381600087803b158015611c5057600080fd5b505af1925050508015611c61575060015b611cce573d808015611c8f576040519150601f19603f3d011682016040523d82523d6000602084013e611c94565b606091505b507fc75fb740d515c4fc862cc5c8f95343266e804872e7206e24f75751db41c4bcdc81604051611cc49190612cd2565b60405180910390a1505b6000600183015581546001600160801b03191682556007548111611cfa57600780548290039055611d00565b60006007555b60055460405163a9059cbb60e01b81526001600160a01b039091169063a9059cbb90611d329033908590600401612c8a565b602060405180830381600087803b158015611d4c57600080fd5b505af1158015611d60573d6000803e3d6000fd5b505050506040513d601f19601f82011682018060405250810190610b269190612bd6565b611ada81611427565b6001600160a01b03821660009081526c03c95a2f0b4856475fe000000c6020526040812082633b9aca008110611dbf57fe5b6003020160010154905092915050565b630784ce0081565b611ddf6121c9565b6001600160a01b0316611df061160a565b6001600160a01b031614611e165760405162461bcd60e51b81526004016107c1906130b7565b6001600160a01b038116611e3c5760405162461bcd60e51b81526004016107c190612d5e565b600080546040516001600160a01b03808516939216917f8be0079c531659141344cd1fd0a4f28419497f9722a3daafe3b4186f6b6457e091a3600080546001600160a01b0319166001600160a01b0392909216919091179055565b6001600160a01b03811660009081526c03c95a2f0b4856475fe000000d60209081526040808320546c03c95a2f0b4856475fe000000c909252822081633b9aca008110611ee057fe5b6003020154600160801b9004600f0b9392505050565b62093a8081565b6c03c95a2f0b4856475fe000000e60205260009081526040902054600f0b81565b6008546001600160a01b031681565b6005546001600160a01b031681565b611f44612aa3565b506007548290611f5481876129e4565b600755611f5f612aa3565b50604080518082019091528251600f90810b82526020808501519083015283518801810b900b83528515611f9557602083018690525b6001600160a01b038816600090815260096020908152604090912084518154600f9190910b6001600160801b03166001600160801b031990911617815590840151600190910155611fe78882856121f5565b861561212f576005546040516323b872dd60e01b81526001600160a01b03909116906323b872dd90612021908b9030908c90600401612ca3565b602060405180830381600087803b15801561203b57600080fd5b505af115801561204f573d6000803e3d6000fd5b505050506040513d601f19601f820116820180604052508101906120739190612bd6565b61208f5760405162461bcd60e51b81526004016107c190613015565b6006546040516317a790f160e11b81526001600160a01b0390911690632f4f21e2906120c1908b908b90600401612c8a565b602060405180830381600087803b1580156120db57600080fd5b505af11580156120ef573d6000803e3d6000fd5b505050506040513d601f19601f820116820180604052508101906121139190612bd6565b61212f5760405162461bcd60e51b81526004016107c190612efb565b8260200151886001600160a01b03167f7162984403f6c73c8639375d45a9187dfd04602231bd8e587c415718b5f7e5f98987600381111561216c57fe5b4260405161217c939291906132ab565b60405180910390a37f5e2aa66efd74cce82b21852e317e5490d9ecc9e6bb953ae24d90851258cc2f5c828884016040516121b792919061329d565b60405180910390a15050505050505050565b3390565b6000828211156121ef5760405162461bcd60e51b81526004016107c190612e8d565b50900390565b6121fd612a75565b612205612a75565b600b5460009081906001600160a01b0388161561231857428760200151118015612236575060008760000151600f0b135b15612262578651630784ce00600f91820b05810b810b602087810182905289015142900302810b900b85525b42866020015111801561227c575060008660000151600f0b135b156122a8578551630784ce00600f91820b05810b810b602086810182905288015142900302810b900b84525b60208088015160009081526c03c95a2f0b4856475fe000000e8252604090205490870151600f9190910b935015612318578660200151866020015114156122f157829150612318565b60208087015160009081526c03c95a2f0b4856475fe000000e9091526040902054600f0b91505b612320612a75565b506040805160808101825260008082526020820152429181019190915243606082015281156123af57600c82680a18f07d736b90be55601d1b811061236157fe5b60408051608081018252600392909202929092018054600f81810b810b810b8452600160801b909104810b810b900b6020830152600181015492820192909252600290910154606082015290505b60408101516123bc612a75565b60405180608001604052808460000151600f0b81526020018460200151600f0b8152602001846040015181526020018460600151815250905060008360400151421115612426578360400151420384606001514303670de0b6b3a7640000028161242257fe5b0490505b62093a808084040260005b60ff8110156125aa5762093a808201915060004283111561245457429250612474565b5060008281526c03c95a2f0b4856475fe000000e6020526040902054600f0b5b602087018051885188860382029003600f90810b810b808b52918401810b810b9092526000910b12156124a657600087525b60008760200151600f0b12156124be57600060208801525b8295508287604001818152505061250c612501670de0b6b3a76400006124fb6124f48960400151886121cd90919063ffffffff16565b8890612a09565b90612a43565b6060870151906129e4565b6060880152600197909701964283141561252c57504360608701526125aa565b86600c89680a18f07d736b90be55601d1b811061254557fe5b82516003919091029190910180546020840151600f90810b6001600160801b03908116600160801b029490910b81166001600160801b031990921691909117169190911781556040820151600182015560609091015160029091015550600101612431565b50600b8690556001600160a01b038d1615612616576020808b01518a82015191870180519190920301600f90810b810b918290528b518b51885191900301810b810b8752600091900b121561260157600060208601525b60008560000151600f0b121561261657600085525b84600c87680a18f07d736b90be55601d1b811061262f57fe5b82516003919091029190910180546020840151600f90810b6001600160801b03908116600160801b029490910b81166001600160801b03199092169190911716919091178155604082015160018201556060909101516002909101558c6001600160a01b0381161561289257428d602001511115612708578a60200151890198508c602001518c6020015114156126ca578960200151890398505b60208d81015160009081526c03c95a2f0b4856475fe000000e9091526040902080546001600160801b0319166001600160801b03600f8c900b161790555b428c602001511115612771578c602001518c602001511115612771576020808b01518d82015160009081526c03c95a2f0b4856475fe000000e9092526040909120805491909903600f81900b6001600160801b03166001600160801b0319909216919091179098555b60006c03c95a2f0b4856475fe000000d6000836001600160a01b03166001600160a01b03168152602001908152602001600020546001019050806c03c95a2f0b4856475fe000000d6000846001600160a01b03166001600160a01b0316815260200190815260200160002081905550428b6040018181525050438b60600181815250508a6c03c95a2f0b4856475fe000000c6000846001600160a01b03166001600160a01b0316815260200190815260200160002082633b9aca00811061283457fe5b82516003919091029190910180546020840151600f90810b6001600160801b03908116600160801b029490910b81166001600160801b0319909216919091171691909117815560408201516001820155606090910151600290910155505b5050505050505050505050505050565b60008082815b6080811015612904578183106128bd57612904565b60028284016001010486600c82680a18f07d736b90be55601d1b81106128df57fe5b6003020160020154116128f4578093506128fb565b6001810392505b506001016128a8565b5090949350505050565b6000612918612a75565b839050600062093a808083604001518161292e57fe5b0402905060005b60ff8110156129c25762093a808201915060008583111561295857859250612978565b5060008281526c03c95a2f0b4856475fe000000e6020526040902054600f0b5b604084015160208501518551918503029003600f90810b900b8452858314156129a157506129c2565b602084018051909101600f90810b900b905260408301829052600101612935565b5060008260000151600f0b12156129d857600082525b5051600f0b9392505050565b600082820183811015611aca5760405162461bcd60e51b81526004016107c190612e1f565b600082612a185750600061068b565b82820282848281612a2557fe5b0414611aca5760405162461bcd60e51b81526004016107c19061303f565b6000808211612a645760405162461bcd60e51b81526004016107c190612ec4565b818381612a6d57fe5b049392505050565b60405180608001604052806000600f0b81526020016000600f0b815260200160008152602001600081525090565b604080518082019091526000808252602082015290565b803561068b816132f6565b803561068b8161330e565b600060208284031215612ae1578081fd5b8135611aca816132f6565b60008060408385031215612afe578081fd5b8235612b09816132f6565b946020939093013593505050565b60008060408385031215612b29578182fd5b823567ffffffffffffffff80821115612b40578384fd5b818501915085601f830112612b53578384fd5b813581811115612b61578485fd5b60209150818102612b738382016132cf565b8281528381019085850183870186018b1015612b8d578889fd5b8896505b84871015612bb757612ba38b82612aba565b835260019690960195918501918501612b91565b5080975050505050612bcb86828701612ac5565b925050509250929050565b600060208284031215612be7578081fd5b8151611aca8161330e565b600060208284031215612c03578081fd5b5035919050565b60008060408385031215612c1c578182fd5b50508035926020909101359150565b60008151808452815b81811015612c5057602081850181015186830182015201612c34565b81811115612c615782602083870101525b50601f01601f19169290920160200192915050565b6001600160a01b0391909116815260200190565b6001600160a01b03929092168252602082015260400190565b6001600160a01b039384168152919092166020820152604081019190915260600190565b901515815260200190565b600060208252611aca6020830184612c2b565b600f9190910b815260200190565b600f94850b81529290930b60208301526040820152606081019190915260800190565b600f9290920b8252602082015260400190565b6020808252818101527f436f6e7472616374206973206e6f7420696e207468652077686974656c697374604082015260600190565b60208082526026908201527f4f776e61626c653a206e6577206f776e657220697320746865207a65726f206160408201526564647265737360d01b606082015260800190565b60208082526024908201527f43616e6e6f742061646420746f2065787069726564206c6f636b2e20576974686040820152636472617760e01b606082015260800190565b60208082526017908201527f526577617264506f6f6c20686173206265656e20736574000000000000000000604082015260600190565b6020808252601b908201527f536166654d6174683a206164646974696f6e206f766572666c6f770000000000604082015260600190565b6020808252601f908201527f43616e206f6e6c7920696e637265617365206c6f636b206475726174696f6e00604082015260600190565b6020808252601e908201527f536166654d6174683a207375627472616374696f6e206f766572666c6f770000604082015260600190565b6020808252601a908201527f536166654d6174683a206469766973696f6e206279207a65726f000000000000604082015260600190565b6020808252818101527f4465706f73697420696e746f2072657761726420706f6f6c206661696c65642e604082015260600190565b6020808252600f908201526e496e20616e20656d657267656e637960881b604082015260600190565b60208082526022908201527f4f6e6c792063616e2062652063616c6c656420696e20616e20656d657267656e604082015261637960f01b606082015260800190565b6020808252602f908201527f426c6f636b2073686f756c64206e6f742062652067726561746572207468616e60408201526e2063757272656e7420626c6f636b2160881b606082015260800190565b602080825260119082015270139bdd1a1a5b99c81a5cc81b1bd8dad959607a1b604082015260600190565b60208082526010908201526f5472616e73666572206661696c65642160801b604082015260600190565b60208082526021908201527f536166654d6174683a206d756c7469706c69636174696f6e206f766572666c6f6040820152607760f81b606082015260800190565b6020808252601e908201527f566f74696e67206c6f636b2063616e2062652034207965617273206d61780000604082015260600190565b6020808252818101527f4f776e61626c653a2063616c6c6572206973206e6f7420746865206f776e6572604082015260600190565b60208082526021908201527f57697468647261772066726f6d2072657761726420706f6f6c206661696c65646040820152601760f91b606082015260800190565b60208082526019908201527f5769746864726177206f6c6420746f6b656e7320666972737400000000000000604082015260600190565b6020808252601390820152724e656564206e6f6e2d7a65726f2076616c756560681b604082015260600190565b60208082526026908201527f43616e206f6e6c79206c6f636b20756e74696c2074696d6520696e207468652060408201526566757475726560d01b606082015260800190565b6020808252600c908201526b131bd8dac8195e1c1a5c995960a21b604082015260600190565b602080825260169082015275139bc8195e1a5cdd1a5b99c81b1bd8dac8199bdd5b9960521b604082015260600190565b6020808252601f908201527f5265656e7472616e637947756172643a207265656e7472616e742063616c6c00604082015260600190565b602080825260169082015275546865206c6f636b206469646e27742065787069726560501b604082015260600190565b90815260200190565b918252602082015260400190565b9283526020830191909152604082015260600190565b60ff91909116815260200190565b60405181810167ffffffffffffffff811182821017156132ee57600080fd5b604052919050565b6001600160a01b038116811461330b57600080fd5b50565b801515811461330b57600080fdfea2646970667358221220bbebc53a3871ac40712bfe3fb34b0edb29f86ecb9f4b13cb6e59130e63b9042e64736f6c634300060c0033",
  "devdoc": {
    "kind": "dev",
    "methods": {
      "balanceOf(address)": {
        "params": {
          "addr": "User wallet address"
        },
        "returns": {
          "_0": "User voting power*"
        }
      },
      "balanceOf(address,uint256)": {
        "params": {
          "_t": "Epoch time to return voting power at",
          "addr": "User wallet address"
        },
        "returns": {
          "_0": "User voting power*"
        }
      },
      "balanceOfAt(address,uint256)": {
        "params": {
          "_block": "Block to calculate the voting power at",
          "addr": "User's wallet address"
        },
        "returns": {
          "_0": "Voting power*"
        }
      },
      "createLock(uint256,uint256)": {
        "params": {
          "_unlockTime": "Epoch time when tokens unlock, rounded down to whole weeks*",
          "_value": "Amount to deposit"
        }
      },
      "depositFor(address,uint256)": {
        "details": "Anyone (even a smart contract) can deposit for someone else, but cannot extend their locktime and deposit for a brand new user",
        "params": {
          "_addr": "User's wallet address",
          "_value": "Amount to add to user's lock*"
        }
      },
      "getLastUserSlope(address)": {
        "params": {
          "addr": "Address of the user wallet"
        },
        "returns": {
          "_0": "Value of the slope*"
        }
      },
      "increaseAmount(uint256)": {
        "params": {
          "_value": "Amount of tokens to deposit and add to the lock*"
        }
      },
      "increaseUnlockTime(uint256)": {
        "params": {
          "_unlockTime": "New epoch time for unlocking*"
        }
      },
      "lockedEnd(address)": {
        "params": {
          "_addr": "User wallet"
        },
        "returns": {
          "_0": "Epoch time of the lock end*"
        }
      },
      "owner()": {
        "details": "Returns the address of the current owner."
      },
      "renounceOwnership()": {
        "details": "Leaves the contract without owner. It will not be possible to call `onlyOwner` functions anymore. Can only be called by the current owner. NOTE: Renouncing ownership will leave the contract without an owner, thereby removing any functionality that is only available to the owner."
      },
      "setMasterchef(address)": {
        "params": {
          "_masterchef": "Address of masterchef"
        }
      },
      "setRewardPool(address)": {
        "params": {
          "_rewardPool": "Address of reward pool"
        }
      },
      "setWhitelist(address[],bool)": {
        "params": {
          "_flag": "True to allow or false to disallow",
          "_users": "A list of address"
        }
      },
      "totalSupply()": {
        "returns": {
          "_0": "Total voting power*"
        }
      },
      "totalSupply(uint256)": {
        "params": {
          "t": "Time to calculate the total voting power at"
        },
        "returns": {
          "_0": "Total voting power*"
        }
      },
      "totalSupplyAt(uint256)": {
        "params": {
          "_block": "Block to calculate the total voting power at"
        },
        "returns": {
          "_0": "Total voting power at `_block`*"
        }
      },
      "transferOwnership(address)": {
        "details": "Transfers ownership of the contract to a new account (`newOwner`). Can only be called by the current owner."
      },
      "userPointHistoryTs(address,uint256)": {
        "params": {
          "_addr": "User wallet address",
          "_idx": "User epoch number"
        },
        "returns": {
          "_0": "Epoch time of the checkpoint*"
        }
      },
      "withdraw()": {
        "details": "Only possible if the lock has expired*"
      }
    },
    "version": 1
  },
  "userdoc": {
    "kind": "user",
    "methods": {
      "balanceOf(address)": {
        "notice": "Get the current voting power for `msg.sender`"
      },
      "balanceOf(address,uint256)": {
        "notice": "Get the voting power for `msg.sender`"
      },
      "balanceOfAt(address,uint256)": {
        "notice": "Measure voting power of `addr` at block height `_block`"
      },
      "checkpoint()": {
        "notice": "Record global data to checkpoint*"
      },
      "createLock(uint256,uint256)": {
        "notice": "Deposit `_value` tokens for `msg.sender` and lock until `_unlock_time`"
      },
      "depositFor(address,uint256)": {
        "notice": "Deposit `_value` tokens for `_addr` and add to the lock"
      },
      "emergencyWithdraw()": {
        "notice": "Withdraw during emergency*"
      },
      "getLastUserSlope(address)": {
        "notice": "Get the most recently recorded rate of voting power decrease for `addr`"
      },
      "increaseAmount(uint256)": {
        "notice": "Deposit `_value` additional tokens for `msg.sender` without modifying the unlock time"
      },
      "increaseUnlockTime(uint256)": {
        "notice": "Extend the unlock time for `msg.sender` to `_unlock_time`"
      },
      "lockedEnd(address)": {
        "notice": "Get timestamp when `_addr`'s lock finishes"
      },
      "setEmergency()": {
        "notice": "Only set once"
      },
      "setMasterchef(address)": {
        "notice": "Only set once"
      },
      "setRewardPool(address)": {
        "notice": "Only set once"
      },
      "setWhitelist(address[],bool)": {
        "notice": "Sets a list of users who are allowed/denied to deposit"
      },
      "totalSupply()": {
        "notice": "Calculate current total voting power"
      },
      "totalSupply(uint256)": {
        "notice": "Calculate total voting power"
      },
      "totalSupplyAt(uint256)": {
        "notice": "Calculate total voting power at some point in the past"
      },
      "userPointHistoryTs(address,uint256)": {
        "notice": "Get the timestamp for checkpoint `_idx` for `_addr`"
      },
      "withdraw()": {
        "notice": "Withdraw all tokens for `msg.sender`"
      }
    },
    "version": 1
  },
  "storageLayout": {
    "storage": [
      {
        "astId": 7,
        "contract": "contracts/staking/VotingEscrow.sol:VotingEscrow",
        "label": "_owner",
        "offset": 0,
        "slot": "0",
        "type": "t_address"
      },
      {
        "astId": 2172,
        "contract": "contracts/staking/VotingEscrow.sol:VotingEscrow",
        "label": "_status",
        "offset": 0,
        "slot": "1",
        "type": "t_uint256"
      },
      {
        "astId": 12773,
        "contract": "contracts/staking/VotingEscrow.sol:VotingEscrow",
        "label": "name",
        "offset": 0,
        "slot": "2",
        "type": "t_string_storage"
      },
      {
        "astId": 12775,
        "contract": "contracts/staking/VotingEscrow.sol:VotingEscrow",
        "label": "symbol",
        "offset": 0,
        "slot": "3",
        "type": "t_string_storage"
      },
      {
        "astId": 12777,
        "contract": "contracts/staking/VotingEscrow.sol:VotingEscrow",
        "label": "version",
        "offset": 0,
        "slot": "4",
        "type": "t_string_storage"
      },
      {
        "astId": 12781,
        "contract": "contracts/staking/VotingEscrow.sol:VotingEscrow",
        "label": "token",
        "offset": 0,
        "slot": "5",
        "type": "t_address"
      },
      {
        "astId": 12783,
        "contract": "contracts/staking/VotingEscrow.sol:VotingEscrow",
        "label": "rewardPool",
        "offset": 0,
        "slot": "6",
        "type": "t_contract(IRewardPool)4057"
      },
      {
        "astId": 12785,
        "contract": "contracts/staking/VotingEscrow.sol:VotingEscrow",
        "label": "supply",
        "offset": 0,
        "slot": "7",
        "type": "t_uint256"
      },
      {
        "astId": 12787,
        "contract": "contracts/staking/VotingEscrow.sol:VotingEscrow",
        "label": "masterchef",
        "offset": 0,
        "slot": "8",
        "type": "t_contract(IMasterChef)3991"
      },
      {
        "astId": 12791,
        "contract": "contracts/staking/VotingEscrow.sol:VotingEscrow",
        "label": "locked",
        "offset": 0,
        "slot": "9",
        "type": "t_mapping(t_address,t_struct(LockedBalance)12771_storage)"
      },
      {
        "astId": 12793,
        "contract": "contracts/staking/VotingEscrow.sol:VotingEscrow",
        "label": "emergency",
        "offset": 0,
        "slot": "10",
        "type": "t_bool"
      },
      {
        "astId": 12795,
        "contract": "contracts/staking/VotingEscrow.sol:VotingEscrow",
        "label": "epoch",
        "offset": 0,
        "slot": "11",
        "type": "t_uint256"
      },
      {
        "astId": 12799,
        "contract": "contracts/staking/VotingEscrow.sol:VotingEscrow",
        "label": "pointHistory",
        "offset": 0,
        "slot": "12",
        "type": "t_array(t_struct(Point)12766_storage)100000000000000000000000000000_storage"
      },
      {
        "astId": 12805,
        "contract": "contracts/staking/VotingEscrow.sol:VotingEscrow",
        "label": "userPointHistory",
        "offset": 0,
        "slot": "300000000000000000000000000012",
        "type": "t_mapping(t_address,t_array(t_struct(Point)12766_storage)1000000000_storage)"
      },
      {
        "astId": 12809,
        "contract": "contracts/staking/VotingEscrow.sol:VotingEscrow",
        "label": "userPointEpoch",
        "offset": 0,
        "slot": "300000000000000000000000000013",
        "type": "t_mapping(t_address,t_uint256)"
      },
      {
        "astId": 12813,
        "contract": "contracts/staking/VotingEscrow.sol:VotingEscrow",
        "label": "slopeChanges",
        "offset": 0,
        "slot": "300000000000000000000000000014",
        "type": "t_mapping(t_uint256,t_int128)"
      },
      {
        "astId": 12817,
        "contract": "contracts/staking/VotingEscrow.sol:VotingEscrow",
        "label": "whitelist",
        "offset": 0,
        "slot": "300000000000000000000000000015",
        "type": "t_mapping(t_address,t_bool)"
      }
    ],
    "types": {
      "t_address": {
        "encoding": "inplace",
        "label": "address",
        "numberOfBytes": "20"
      },
      "t_array(t_struct(Point)12766_storage)100000000000000000000000000000_storage": {
        "base": "t_struct(Point)12766_storage",
        "encoding": "inplace",
        "label": "struct VotingEscrow.Point[100000000000000000000000000000]",
        "numberOfBytes": "9600000000000000000000000000000"
      },
      "t_array(t_struct(Point)12766_storage)1000000000_storage": {
        "base": "t_struct(Point)12766_storage",
        "encoding": "inplace",
        "label": "struct VotingEscrow.Point[1000000000]",
        "numberOfBytes": "96000000000"
      },
      "t_bool": {
        "encoding": "inplace",
        "label": "bool",
        "numberOfBytes": "1"
      },
      "t_contract(IMasterChef)3991": {
        "encoding": "inplace",
        "label": "contract IMasterChef",
        "numberOfBytes": "20"
      },
      "t_contract(IRewardPool)4057": {
        "encoding": "inplace",
        "label": "contract IRewardPool",
        "numberOfBytes": "20"
      },
      "t_int128": {
        "encoding": "inplace",
        "label": "int128",
        "numberOfBytes": "16"
      },
      "t_mapping(t_address,t_array(t_struct(Point)12766_storage)1000000000_storage)": {
        "encoding": "mapping",
        "key": "t_address",
        "label": "mapping(address => struct VotingEscrow.Point[1000000000])",
        "numberOfBytes": "32",
        "value": "t_array(t_struct(Point)12766_storage)1000000000_storage"
      },
      "t_mapping(t_address,t_bool)": {
        "encoding": "mapping",
        "key": "t_address",
        "label": "mapping(address => bool)",
        "numberOfBytes": "32",
        "value": "t_bool"
      },
      "t_mapping(t_address,t_struct(LockedBalance)12771_storage)": {
        "encoding": "mapping",
        "key": "t_address",
        "label": "mapping(address => struct VotingEscrow.LockedBalance)",
        "numberOfBytes": "32",
        "value": "t_struct(LockedBalance)12771_storage"
      },
      "t_mapping(t_address,t_uint256)": {
        "encoding": "mapping",
        "key": "t_address",
        "label": "mapping(address => uint256)",
        "numberOfBytes": "32",
        "value": "t_uint256"
      },
      "t_mapping(t_uint256,t_int128)": {
        "encoding": "mapping",
        "key": "t_uint256",
        "label": "mapping(uint256 => int128)",
        "numberOfBytes": "32",
        "value": "t_int128"
      },
      "t_string_storage": {
        "encoding": "bytes",
        "label": "string",
        "numberOfBytes": "32"
      },
      "t_struct(LockedBalance)12771_storage": {
        "encoding": "inplace",
        "label": "struct VotingEscrow.LockedBalance",
        "members": [
          {
            "astId": 12768,
            "contract": "contracts/staking/VotingEscrow.sol:VotingEscrow",
            "label": "amount",
            "offset": 0,
            "slot": "0",
            "type": "t_int128"
          },
          {
            "astId": 12770,
            "contract": "contracts/staking/VotingEscrow.sol:VotingEscrow",
            "label": "end",
            "offset": 0,
            "slot": "1",
            "type": "t_uint256"
          }
        ],
        "numberOfBytes": "64"
      },
      "t_struct(Point)12766_storage": {
        "encoding": "inplace",
        "label": "struct VotingEscrow.Point",
        "members": [
          {
            "astId": 12759,
            "contract": "contracts/staking/VotingEscrow.sol:VotingEscrow",
            "label": "bias",
            "offset": 0,
            "slot": "0",
            "type": "t_int128"
          },
          {
            "astId": 12761,
            "contract": "contracts/staking/VotingEscrow.sol:VotingEscrow",
            "label": "slope",
            "offset": 16,
            "slot": "0",
            "type": "t_int128"
          },
          {
            "astId": 12763,
            "contract": "contracts/staking/VotingEscrow.sol:VotingEscrow",
            "label": "ts",
            "offset": 0,
            "slot": "1",
            "type": "t_uint256"
          },
          {
            "astId": 12765,
            "contract": "contracts/staking/VotingEscrow.sol:VotingEscrow",
            "label": "blk",
            "offset": 0,
            "slot": "2",
            "type": "t_uint256"
          }
        ],
        "numberOfBytes": "96"
      },
      "t_uint256": {
        "encoding": "inplace",
        "label": "uint256",
        "numberOfBytes": "32"
      }
    }
  }
}