{
  "address": "0x181C262b973B22C307C646a67f64B76410D19b6B",
  "abi": [
    {
      "anonymous": false,
      "inputs": [
        {
          "indexed": true,
          "internalType": "address",
          "name": "owner",
          "type": "address"
        },
        {
          "indexed": true,
          "internalType": "address",
          "name": "spender",
          "type": "address"
        },
        {
          "indexed": false,
          "internalType": "uint256",
          "name": "value",
          "type": "uint256"
        }
      ],
      "name": "Approval",
      "type": "event"
    },
    {
      "anonymous": false,
      "inputs": [
        {
          "indexed": true,
          "internalType": "address",
          "name": "delegator",
          "type": "address"
        },
        {
          "indexed": true,
          "internalType": "address",
          "name": "fromDelegate",
          "type": "address"
        },
        {
          "indexed": true,
          "internalType": "address",
          "name": "toDelegate",
          "type": "address"
        }
      ],
      "name": "DelegateChanged",
      "type": "event"
    },
    {
      "anonymous": false,
      "inputs": [
        {
          "indexed": true,
          "internalType": "address",
          "name": "delegate",
          "type": "address"
        },
        {
          "indexed": false,
          "internalType": "uint256",
          "name": "previousBalance",
          "type": "uint256"
        },
        {
          "indexed": false,
          "internalType": "uint256",
          "name": "newBalance",
          "type": "uint256"
        }
      ],
      "name": "DelegateVotesChanged",
      "type": "event"
    },
    {
      "anonymous": false,
      "inputs": [
        {
          "indexed": true,
          "internalType": "address",
          "name": "previousOwner",
          "type": "address"
        },
        {
          "indexed": true,
          "internalType": "address",
          "name": "newOwner",
          "type": "address"
        }
      ],
      "name": "OwnershipTransferred",
      "type": "event"
    },
    {
      "anonymous": false,
      "inputs": [
        {
          "indexed": true,
          "internalType": "address",
          "name": "from",
          "type": "address"
        },
        {
          "indexed": true,
          "internalType": "address",
          "name": "to",
          "type": "address"
        },
        {
          "indexed": false,
          "internalType": "uint256",
          "name": "value",
          "type": "uint256"
        }
      ],
      "name": "Transfer",
      "type": "event"
    },
    {
      "inputs": [],
      "name": "DELEGATION_TYPEHASH",
      "outputs": [
        {
          "internalType": "bytes32",
          "name": "",
          "type": "bytes32"
        }
      ],
      "stateMutability": "view",
      "type": "function"
    },
    {
      "inputs": [],
      "name": "DOMAIN_TYPEHASH",
      "outputs": [
        {
          "internalType": "bytes32",
          "name": "",
          "type": "bytes32"
        }
      ],
      "stateMutability": "view",
      "type": "function"
    },
    {
      "inputs": [],
      "name": "MAX_TOTAL_SUPPLY",
      "outputs": [
        {
          "internalType": "uint256",
          "name": "",
          "type": "uint256"
        }
      ],
      "stateMutability": "view",
      "type": "function"
    },
    {
      "inputs": [
        {
          "internalType": "address",
          "name": "_addMinter",
          "type": "address"
        }
      ],
      "name": "addMinter",
      "outputs": [
        {
          "internalType": "bool",
          "name": "",
          "type": "bool"
        }
      ],
      "stateMutability": "nonpayable",
      "type": "function"
    },
    {
      "inputs": [
        {
          "internalType": "address",
          "name": "owner",
          "type": "address"
        },
        {
          "internalType": "address",
          "name": "spender",
          "type": "address"
        }
      ],
      "name": "allowance",
      "outputs": [
        {
          "internalType": "uint256",
          "name": "",
          "type": "uint256"
        }
      ],
      "stateMutability": "view",
      "type": "function"
    },
    {
      "inputs": [
        {
          "internalType": "address",
          "name": "spender",
          "type": "address"
        },
        {
          "internalType": "uint256",
          "name": "amount",
          "type": "uint256"
        }
      ],
      "name": "approve",
      "outputs": [
        {
          "internalType": "bool",
          "name": "",
          "type": "bool"
        }
      ],
      "stateMutability": "nonpayable",
      "type": "function"
    },
    {
      "inputs": [
        {
          "internalType": "address",
          "name": "account",
          "type": "address"
        }
      ],
      "name": "balanceOf",
      "outputs": [
        {
          "internalType": "uint256",
          "name": "",
          "type": "uint256"
        }
      ],
      "stateMutability": "view",
      "type": "function"
    },
    {
      "inputs": [
        {
          "internalType": "address",
          "name": "",
          "type": "address"
        },
        {
          "internalType": "uint32",
          "name": "",
          "type": "uint32"
        }
      ],
      "name": "checkpoints",
      "outputs": [
        {
          "internalType": "uint32",
          "name": "fromBlock",
          "type": "uint32"
        },
        {
          "internalType": "uint256",
          "name": "votes",
          "type": "uint256"
        }
      ],
      "stateMutability": "view",
      "type": "function"
    },
    {
      "inputs": [],
      "name": "decimals",
      "outputs": [
        {
          "internalType": "uint8",
          "name": "",
          "type": "uint8"
        }
      ],
      "stateMutability": "view",
      "type": "function"
    },
    {
      "inputs": [
        {
          "internalType": "address",
          "name": "spender",
          "type": "address"
        },
        {
          "internalType": "uint256",
          "name": "subtractedValue",
          "type": "uint256"
        }
      ],
      "name": "decreaseAllowance",
      "outputs": [
        {
          "internalType": "bool",
          "name": "",
          "type": "bool"
        }
      ],
      "stateMutability": "nonpayable",
      "type": "function"
    },
    {
      "inputs": [
        {
          "internalType": "address",
          "name": "_delMinter",
          "type": "address"
        }
      ],
      "name": "delMinter",
      "outputs": [
        {
          "internalType": "bool",
          "name": "",
          "type": "bool"
        }
      ],
      "stateMutability": "nonpayable",
      "type": "function"
    },
    {
      "inputs": [
        {
          "internalType": "address",
          "name": "delegatee",
          "type": "address"
        }
      ],
      "name": "delegate",
      "outputs": [],
      "stateMutability": "nonpayable",
      "type": "function"
    },
    {
      "inputs": [
        {
          "internalType": "address",
          "name": "delegatee",
          "type": "address"
        },
        {
          "internalType": "uint256",
          "name": "nonce",
          "type": "uint256"
        },
        {
          "internalType": "uint256",
          "name": "expiry",
          "type": "uint256"
        },
        {
          "internalType": "uint8",
          "name": "v",
          "type": "uint8"
        },
        {
          "internalType": "bytes32",
          "name": "r",
          "type": "bytes32"
        },
        {
          "internalType": "bytes32",
          "name": "s",
          "type": "bytes32"
        }
      ],
      "name": "delegateBySig",
      "outputs": [],
      "stateMutability": "nonpayable",
      "type": "function"
    },
    {
      "inputs": [
        {
          "internalType": "address",
          "name": "delegator",
          "type": "address"
        }
      ],
      "name": "delegates",
      "outputs": [
        {
          "internalType": "address",
          "name": "",
          "type": "address"
        }
      ],
      "stateMutability": "view",
      "type": "function"
    },
    {
      "inputs": [
        {
          "internalType": "address",
          "name": "account",
          "type": "address"
        }
      ],
      "name": "getCurrentVotes",
      "outputs": [
        {
          "internalType": "uint256",
          "name": "",
          "type": "uint256"
        }
      ],
      "stateMutability": "view",
      "type": "function"
    },
    {
      "inputs": [
        {
          "internalType": "uint256",
          "name": "_index",
          "type": "uint256"
        }
      ],
      "name": "getMinter",
      "outputs": [
        {
          "internalType": "address",
          "name": "",
          "type": "address"
        }
      ],
      "stateMutability": "view",
      "type": "function"
    },
    {
      "inputs": [],
      "name": "getMinterLength",
      "outputs": [
        {
          "internalType": "uint256",
          "name": "",
          "type": "uint256"
        }
      ],
      "stateMutability": "view",
      "type": "function"
    },
    {
      "inputs": [
        {
          "internalType": "address",
          "name": "account",
          "type": "address"
        },
        {
          "internalType": "uint256",
          "name": "blockNumber",
          "type": "uint256"
        }
      ],
      "name": "getPriorVotes",
      "outputs": [
        {
          "internalType": "uint256",
          "name": "",
          "type": "uint256"
        }
      ],
      "stateMutability": "view",
      "type": "function"
    },
    {
      "inputs": [
        {
          "internalType": "address",
          "name": "spender",
          "type": "address"
        },
        {
          "internalType": "uint256",
          "name": "addedValue",
          "type": "uint256"
        }
      ],
      "name": "increaseAllowance",
      "outputs": [
        {
          "internalType": "bool",
          "name": "",
          "type": "bool"
        }
      ],
      "stateMutability": "nonpayable",
      "type": "function"
    },
    {
      "inputs": [
        {
          "internalType": "address",
          "name": "account",
          "type": "address"
        }
      ],
      "name": "isMinter",
      "outputs": [
        {
          "internalType": "bool",
          "name": "",
          "type": "bool"
        }
      ],
      "stateMutability": "view",
      "type": "function"
    },
    {
      "inputs": [
        {
          "internalType": "address",
          "name": "_to",
          "type": "address"
        },
        {
          "internalType": "uint256",
          "name": "_amount",
          "type": "uint256"
        }
      ],
      "name": "mint",
      "outputs": [],
      "stateMutability": "nonpayable",
      "type": "function"
    },
    {
      "inputs": [],
      "name": "name",
      "outputs": [
        {
          "internalType": "string",
          "name": "",
          "type": "string"
        }
      ],
      "stateMutability": "view",
      "type": "function"
    },
    {
      "inputs": [
        {
          "internalType": "address",
          "name": "",
          "type": "address"
        }
      ],
      "name": "nonces",
      "outputs": [
        {
          "internalType": "uint256",
          "name": "",
          "type": "uint256"
        }
      ],
      "stateMutability": "view",
      "type": "function"
    },
    {
      "inputs": [
        {
          "internalType": "address",
          "name": "",
          "type": "address"
        }
      ],
      "name": "numCheckpoints",
      "outputs": [
        {
          "internalType": "uint32",
          "name": "",
          "type": "uint32"
        }
      ],
      "stateMutability": "view",
      "type": "function"
    },
    {
      "inputs": [],
      "name": "owner",
      "outputs": [
        {
          "internalType": "address",
          "name": "",
          "type": "address"
        }
      ],
      "stateMutability": "view",
      "type": "function"
    },
    {
      "inputs": [],
      "name": "renounceOwnership",
      "outputs": [],
      "stateMutability": "nonpayable",
      "type": "function"
    },
    {
      "inputs": [],
      "name": "symbol",
      "outputs": [
        {
          "internalType": "string",
          "name": "",
          "type": "string"
        }
      ],
      "stateMutability": "view",
      "type": "function"
    },
    {
      "inputs": [],
      "name": "totalSupply",
      "outputs": [
        {
          "internalType": "uint256",
          "name": "",
          "type": "uint256"
        }
      ],
      "stateMutability": "view",
      "type": "function"
    },
    {
      "inputs": [
        {
          "internalType": "address",
          "name": "recipient",
          "type": "address"
        },
        {
          "internalType": "uint256",
          "name": "amount",
          "type": "uint256"
        }
      ],
      "name": "transfer",
      "outputs": [
        {
          "internalType": "bool",
          "name": "",
          "type": "bool"
        }
      ],
      "stateMutability": "nonpayable",
      "type": "function"
    },
    {
      "inputs": [
        {
          "internalType": "address",
          "name": "sender",
          "type": "address"
        },
        {
          "internalType": "address",
          "name": "recipient",
          "type": "address"
        },
        {
          "internalType": "uint256",
          "name": "amount",
          "type": "uint256"
        }
      ],
      "name": "transferFrom",
      "outputs": [
        {
          "internalType": "bool",
          "name": "",
          "type": "bool"
        }
      ],
      "stateMutability": "nonpayable",
      "type": "function"
    },
    {
      "inputs": [
        {
          "internalType": "address",
          "name": "newOwner",
          "type": "address"
        }
      ],
      "name": "transferOwnership",
      "outputs": [],
      "stateMutability": "nonpayable",
      "type": "function"
    }
  ],
  "transactionHash": "0x735794154fbcc6aa9a233a5926087fce59ac43978c58081129025cc3d6465cc4",
  "args": [],
  "solcInputHash": "de08cb4bf8dbe8ac3fbc1ae3e14ec09e",
  "bytecode": "0x60806040523480156200001157600080fd5b506040518060400160405280600e81526020016d22bb36b7a9bbb0b8102a37b5b2b760911b81525060405180604001604052806003815260200162454d4f60e81b81525081600390805190602001906200006d929190620000ff565b50805162000083906004906020840190620000ff565b50506005805460ff191660121790555060006200009f620000fb565b60058054610100600160a81b0319166101006001600160a01b03841690810291909117909155604051919250906000907f8be0079c531659141344cd1fd0a4f28419497f9722a3daafe3b4186f6b6457e0908290a3506200019b565b3390565b828054600181600116156101000203166002900490600052602060002090601f016020900481019282601f106200014257805160ff191683800117855562000172565b8280016001018555821562000172579182015b828111156200017257825182559160200191906001019062000155565b506200018092915062000184565b5090565b5b8082111562000180576000815560010162000185565b61211c80620001ab6000396000f3fe608060405234801561001057600080fd5b50600436106101e55760003560e01c806370a082311161010f578063a9059cbb116100a2578063dd62ed3e11610071578063dd62ed3e14610612578063e7a324dc14610640578063f1127ed814610648578063f2fde38b1461069a576101e5565b8063a9059cbb14610553578063aa271e1a1461057f578063b4b5ea57146105a5578063c3cda520146105cb576101e5565b80638da5cb5b116100de5780638da5cb5b146104f157806395d89b41146104f9578063983b2d5614610501578063a457c2d714610527576101e5565b806370a0823114610471578063715018a614610497578063782d6fe11461049f5780637ecebe00146104cb576101e5565b8063313ce56711610187578063587cde1e11610156578063587cde1e146103ad5780635b7121f8146103ef5780635c19a95c1461040c5780636fcfff4514610432576101e5565b8063313ce5671461032d57806333039d3d1461034b578063395093511461035357806340c10f191461037f576101e5565b806318160ddd116101c357806318160ddd146102c157806320606b70146102c957806323338b88146102d157806323b872dd146102f7576101e5565b80630323aac7146101ea57806306fdde0314610204578063095ea7b314610281575b600080fd5b6101f26106c0565b60408051918252519081900360200190f35b61020c6106d1565b6040805160208082528351818301528351919283929083019185019080838360005b8381101561024657818101518382015260200161022e565b50505050905090810190601f1680156102735780820380516001836020036101000a031916815260200191505b509250505060405180910390f35b6102ad6004803603604081101561029757600080fd5b506001600160a01b038135169060200135610767565b604080519115158252519081900360200190f35b6101f2610785565b6101f261078b565b6102ad600480360360208110156102e757600080fd5b50356001600160a01b03166107af565b6102ad6004803603606081101561030d57600080fd5b506001600160a01b03813581169160208101359091169060400135610863565b6103356108ea565b6040805160ff9092168252519081900360200190f35b6101f26108f3565b6102ad6004803603604081101561036957600080fd5b506001600160a01b038135169060200135610903565b6103ab6004803603604081101561039557600080fd5b506001600160a01b038135169060200135610951565b005b6103d3600480360360208110156103c357600080fd5b50356001600160a01b0316610a44565b604080516001600160a01b039092168252519081900360200190f35b6103d36004803603602081101561040557600080fd5b5035610a62565b6103ab6004803603602081101561042257600080fd5b50356001600160a01b0316610b30565b6104586004803603602081101561044857600080fd5b50356001600160a01b0316610b3d565b6040805163ffffffff9092168252519081900360200190f35b6101f26004803603602081101561048757600080fd5b50356001600160a01b0316610b55565b6103ab610b70565b6101f2600480360360408110156104b557600080fd5b506001600160a01b038135169060200135610c22565b6101f2600480360360208110156104e157600080fd5b50356001600160a01b0316610e2a565b6103d3610e3c565b61020c610e50565b6102ad6004803603602081101561051757600080fd5b50356001600160a01b0316610eb1565b6102ad6004803603604081101561053d57600080fd5b506001600160a01b038135169060200135610f65565b6102ad6004803603604081101561056957600080fd5b506001600160a01b038135169060200135610fcd565b6102ad6004803603602081101561059557600080fd5b50356001600160a01b0316610fe1565b6101f2600480360360208110156105bb57600080fd5b50356001600160a01b0316610fee565b6103ab600480360360c08110156105e157600080fd5b506001600160a01b038135169060208101359060408101359060ff6060820135169060808101359060a00135611052565b6101f26004803603604081101561062857600080fd5b506001600160a01b03813581169160200135166112c5565b6101f26112f0565b61067a6004803603604081101561065e57600080fd5b5080356001600160a01b0316906020013563ffffffff16611314565b6040805163ffffffff909316835260208301919091528051918290030190f35b6103ab600480360360208110156106b057600080fd5b50356001600160a01b0316611341565b60006106cc600661144f565b905090565b60038054604080516020601f600260001961010060018816150201909516949094049384018190048102820181019092528281526060939092909183018282801561075d5780601f106107325761010080835404028352916020019161075d565b820191906000526020600020905b81548152906001019060200180831161074057829003601f168201915b5050505050905090565b600061077b61077461145a565b848461145e565b5060015b92915050565b60025490565b7f8cad95687ba82c2ce50e74f7b754645e5117c3a5bec8151c0726d5857980a86681565b60006107b961145a565b6001600160a01b03166107ca610e3c565b6001600160a01b031614610813576040805162461bcd60e51b81526020600482018190526024820152600080516020611fca833981519152604482015290519081900360640190fd5b6001600160a01b0382166108585760405162461bcd60e51b8152600401808060200182810382526023815260200180611f346023913960400191505060405180910390fd5b61077f60068361154a565b600061087084848461155f565b6108e08461087c61145a565b6108db85604051806060016040528060288152602001611fa2602891396001600160a01b038a166000908152600160205260408120906108ba61145a565b6001600160a01b0316815260208101919091526040016000205491906116ba565b61145e565b5060019392505050565b60055460ff1690565b6b019d971e4fe8401e7400000081565b600061077b61091061145a565b846108db856001600061092161145a565b6001600160a01b03908116825260208083019390935260409182016000908120918c168152925290205490611751565b61095a33610fe1565b6109ab576040805162461bcd60e51b815260206004820152601860248201527f63616c6c6572206973206e6f7420746865206d696e7465720000000000000000604482015290519081900360640190fd5b6b019d971e4fe8401e740000006109ca6109c3610785565b8390611751565b1115610a11576040805162461bcd60e51b8152602060048201526011602482015270115490cc8c0e881bdd995c881b1a5b5a5d607a1b604482015290519081900360640190fd5b610a1b82826117ab565b6001600160a01b03808316600090815260086020526040812054610a4092168361189b565b5050565b6001600160a01b039081166000908152600860205260409020541690565b6000610a6c61145a565b6001600160a01b0316610a7d610e3c565b6001600160a01b031614610ac6576040805162461bcd60e51b81526020600482018190526024820152600080516020611fca833981519152604482015290519081900360640190fd5b6001610ad06106c0565b03821115610b25576040805162461bcd60e51b815260206004820152601860248201527f454d4f3a20696e646578206f7574206f6620626f756e64730000000000000000604482015290519081900360640190fd5b61077f6006836119dd565b610b3a33826119e9565b50565b600a6020526000908152604090205463ffffffff1681565b6001600160a01b031660009081526020819052604090205490565b610b7861145a565b6001600160a01b0316610b89610e3c565b6001600160a01b031614610bd2576040805162461bcd60e51b81526020600482018190526024820152600080516020611fca833981519152604482015290519081900360640190fd5b60055460405160009161010090046001600160a01b0316907f8be0079c531659141344cd1fd0a4f28419497f9722a3daafe3b4186f6b6457e0908390a360058054610100600160a81b0319169055565b6000438210610c625760405162461bcd60e51b815260040180806020018281038252602681526020018061200f6026913960400191505060405180910390fd5b6001600160a01b0383166000908152600a602052604090205463ffffffff1680610c9057600091505061077f565b6001600160a01b038416600090815260096020908152604080832063ffffffff600019860181168552925290912054168310610cff576001600160a01b03841660009081526009602090815260408083206000199490940163ffffffff1683529290522060010154905061077f565b6001600160a01b038416600090815260096020908152604080832083805290915290205463ffffffff16831015610d3a57600091505061077f565b600060001982015b8163ffffffff168163ffffffff161115610df357600282820363ffffffff16048103610d6c611e5c565b506001600160a01b038716600090815260096020908152604080832063ffffffff808616855290835292819020815180830190925280549093168082526001909301549181019190915290871415610dce5760200151945061077f9350505050565b805163ffffffff16871115610de557819350610dec565b6001820392505b5050610d42565b506001600160a01b038516600090815260096020908152604080832063ffffffff9094168352929052206001015491505092915050565b600b6020526000908152604090205481565b60055461010090046001600160a01b031690565b60048054604080516020601f600260001961010060018816150201909516949094049384018190048102820181019092528281526060939092909183018282801561075d5780601f106107325761010080835404028352916020019161075d565b6000610ebb61145a565b6001600160a01b0316610ecc610e3c565b6001600160a01b031614610f15576040805162461bcd60e51b81526020600482018190526024820152600080516020611fca833981519152604482015290519081900360640190fd5b6001600160a01b038216610f5a5760405162461bcd60e51b81526004018080602001828103825260238152602001806120356023913960400191505060405180910390fd5b61077f600683611a7e565b600061077b610f7261145a565b846108db856040518060600160405280602581526020016120c26025913960016000610f9c61145a565b6001600160a01b03908116825260208083019390935260409182016000908120918d168152925290205491906116ba565b600061077b610fda61145a565b848461155f565b600061077f600683611a93565b6001600160a01b0381166000908152600a602052604081205463ffffffff168061101957600061104b565b6001600160a01b038316600090815260096020908152604080832063ffffffff60001986011684529091529020600101545b9392505050565b60007f8cad95687ba82c2ce50e74f7b754645e5117c3a5bec8151c0726d5857980a86661107d6106d1565b8051906020012061108c611aa8565b60408051602080820195909552808201939093526060830191909152306080808401919091528151808403909101815260a0830182528051908401207fe48329057bfd03d55e49b547132e39cffd9c1820ad7b9d4c5307691425d15adf60c08401526001600160a01b038b1660e084015261010083018a90526101208084018a9052825180850390910181526101408401835280519085012061190160f01b6101608501526101628401829052610182808501829052835180860390910181526101a285018085528151918701919091206000918290526101c2860180865281905260ff8b166101e287015261020286018a90526102228601899052935192965090949293909260019261024280840193601f198301929081900390910190855afa1580156111bf573d6000803e3d6000fd5b5050604051601f1901519150506001600160a01b0381166112115760405162461bcd60e51b8152600401808060200182810382526025815260200180611fea6025913960400191505060405180910390fd5b6001600160a01b0381166000908152600b60205260409020805460018101909155891461126f5760405162461bcd60e51b815260040180806020018281038252602181526020018061207d6021913960400191505060405180910390fd5b874211156112ae5760405162461bcd60e51b8152600401808060200182810382526025815260200180611f576025913960400191505060405180910390fd5b6112b8818b6119e9565b505050505b505050505050565b6001600160a01b03918216600090815260016020908152604080832093909416825291909152205490565b7fe48329057bfd03d55e49b547132e39cffd9c1820ad7b9d4c5307691425d15adf81565b60096020908152600092835260408084209091529082529020805460019091015463ffffffff9091169082565b61134961145a565b6001600160a01b031661135a610e3c565b6001600160a01b0316146113a3576040805162461bcd60e51b81526020600482018190526024820152600080516020611fca833981519152604482015290519081900360640190fd5b6001600160a01b0381166113e85760405162461bcd60e51b8152600401808060200182810382526026815260200180611eec6026913960400191505060405180910390fd5b6005546040516001600160a01b0380841692610100900416907f8be0079c531659141344cd1fd0a4f28419497f9722a3daafe3b4186f6b6457e090600090a3600580546001600160a01b0390921661010002610100600160a81b0319909216919091179055565b600061077f82611aac565b3390565b6001600160a01b0383166114a35760405162461bcd60e51b815260040180806020018281038252602481526020018061209e6024913960400191505060405180910390fd5b6001600160a01b0382166114e85760405162461bcd60e51b8152600401808060200182810382526022815260200180611f126022913960400191505060405180910390fd5b6001600160a01b03808416600081815260016020908152604080832094871680845294825291829020859055815185815291517f8c5be1e5ebec7d5bd14f71427d1e84f3dd0314c0f7b2291e5b200ac8c7c3b9259281900390910190a3505050565b600061104b836001600160a01b038416611ab0565b6001600160a01b0383166115a45760405162461bcd60e51b81526004018080602001828103825260258152602001806120586025913960400191505060405180910390fd5b6001600160a01b0382166115e95760405162461bcd60e51b8152600401808060200182810382526023815260200180611e966023913960400191505060405180910390fd5b6115f48383836119d8565b61163181604051806060016040528060268152602001611f7c602691396001600160a01b03861660009081526020819052604090205491906116ba565b6001600160a01b0380851660009081526020819052604080822093909355908416815220546116609082611751565b6001600160a01b038084166000818152602081815260409182902094909455805185815290519193928716927fddf252ad1be2c89b69c2b068fc378daa952ba7f163c4a11628f55a4df523b3ef92918290030190a3505050565b600081848411156117495760405162461bcd60e51b81526004018080602001828103825283818151815260200191508051906020019080838360005b8381101561170e5781810151838201526020016116f6565b50505050905090810190601f16801561173b5780820380516001836020036101000a031916815260200191505b509250505060405180910390fd5b505050900390565b60008282018381101561104b576040805162461bcd60e51b815260206004820152601b60248201527f536166654d6174683a206164646974696f6e206f766572666c6f770000000000604482015290519081900360640190fd5b6001600160a01b038216611806576040805162461bcd60e51b815260206004820152601f60248201527f45524332303a206d696e7420746f20746865207a65726f206164647265737300604482015290519081900360640190fd5b611812600083836119d8565b60025461181f9082611751565b6002556001600160a01b0382166000908152602081905260409020546118459082611751565b6001600160a01b0383166000818152602081815260408083209490945583518581529351929391927fddf252ad1be2c89b69c2b068fc378daa952ba7f163c4a11628f55a4df523b3ef9281900390910190a35050565b816001600160a01b0316836001600160a01b0316141580156118bd5750600081115b156119d8576001600160a01b0383161561194f576001600160a01b0383166000908152600a602052604081205463ffffffff1690816118fd57600061192f565b6001600160a01b038516600090815260096020908152604080832063ffffffff60001987011684529091529020600101545b9050600061193d8285611b76565b905061194b86848484611bd3565b5050505b6001600160a01b038216156119d8576001600160a01b0382166000908152600a602052604081205463ffffffff16908161198a5760006119bc565b6001600160a01b038416600090815260096020908152604080832063ffffffff60001987011684529091529020600101545b905060006119ca8285611751565b90506112bd85848484611bd3565b505050565b600061104b8383611d38565b6001600160a01b0380831660009081526008602052604081205490911690611a1084610b55565b6001600160a01b0385811660008181526008602052604080822080546001600160a01b031916898616908117909155905194955093928616927f3134e8a2e6d97e929a7e54011ea5485d7d196dd5f0ba4d4ef95803e8e3fc257f9190a4611a7882848361189b565b50505050565b600061104b836001600160a01b038416611d9c565b600061104b836001600160a01b038416611de6565b4690565b5490565b60008181526001830160205260408120548015611b6c5783546000198083019190810190600090879083908110611ae357fe5b9060005260206000200154905080876000018481548110611b0057fe5b600091825260208083209091019290925582815260018981019092526040902090840190558654879080611b3057fe5b6001900381819060005260206000200160009055905586600101600087815260200190815260200160002060009055600194505050505061077f565b600091505061077f565b600082821115611bcd576040805162461bcd60e51b815260206004820152601e60248201527f536166654d6174683a207375627472616374696f6e206f766572666c6f770000604482015290519081900360640190fd5b50900390565b6000611bf743604051806060016040528060338152602001611eb960339139611dfe565b905060008463ffffffff16118015611c4057506001600160a01b038516600090815260096020908152604080832063ffffffff6000198901811685529252909120548282169116145b15611c7d576001600160a01b038516600090815260096020908152604080832063ffffffff60001989011684529091529020600101829055611cee565b60408051808201825263ffffffff808416825260208083018681526001600160a01b038a166000818152600984528681208b8616825284528681209551865490861663ffffffff199182161787559251600196870155908152600a9092529390208054928801909116919092161790555b604080518481526020810184905281516001600160a01b038816927fdec2bacdd2f05b59de34da9b523dff8be42e5e38e818c82fdb0bae774387a724928290030190a25050505050565b81546000908210611d7a5760405162461bcd60e51b8152600401808060200182810382526022815260200180611e746022913960400191505060405180910390fd5b826000018281548110611d8957fe5b9060005260206000200154905092915050565b6000611da88383611de6565b611dde5750815460018181018455600084815260208082209093018490558454848252828601909352604090209190915561077f565b50600061077f565b60009081526001919091016020526040902054151590565b6000816401000000008410611e545760405162461bcd60e51b815260206004820181815283516024840152835190928392604490910191908501908083836000831561170e5781810151838201526020016116f6565b509192915050565b60408051808201909152600080825260208201529056fe456e756d657261626c655365743a20696e646578206f7574206f6620626f756e647345524332303a207472616e7366657220746f20746865207a65726f2061646472657373454d4f3a3a5f7772697465436865636b706f696e743a20626c6f636b206e756d626572206578636565647320333220626974734f776e61626c653a206e6577206f776e657220697320746865207a65726f206164647265737345524332303a20617070726f766520746f20746865207a65726f2061646472657373454d4f3a205f64656c4d696e74657220697320746865207a65726f2061646472657373454d4f3a3a64656c656761746542795369673a207369676e6174757265206578706972656445524332303a207472616e7366657220616d6f756e7420657863656564732062616c616e636545524332303a207472616e7366657220616d6f756e74206578636565647320616c6c6f77616e63654f776e61626c653a2063616c6c6572206973206e6f7420746865206f776e6572454d4f3a3a64656c656761746542795369673a20696e76616c6964207369676e6174757265454d4f3a3a6765745072696f72566f7465733a206e6f74207965742064657465726d696e6564454d4f3a205f6164644d696e74657220697320746865207a65726f206164647265737345524332303a207472616e736665722066726f6d20746865207a65726f2061646472657373454d4f3a3a64656c656761746542795369673a20696e76616c6964206e6f6e636545524332303a20617070726f76652066726f6d20746865207a65726f206164647265737345524332303a2064656372656173656420616c6c6f77616e63652062656c6f77207a65726fa2646970667358221220b61b41790d82b08cdce70d9eded6d671b6d86bdf0b1833823d8c1b57f4080bd664736f6c634300060c0033",
  "devdoc": {
    "kind": "dev",
    "methods": {
      "allowance(address,address)": {
        "details": "See {IERC20-allowance}."
      },
      "approve(address,uint256)": {
        "details": "See {IERC20-approve}. Requirements: - `spender` cannot be the zero address."
      },
      "balanceOf(address)": {
        "details": "See {IERC20-balanceOf}."
      },
      "decimals()": {
        "details": "Returns the number of decimals used to get its user representation. For example, if `decimals` equals `2`, a balance of `505` tokens should be displayed to a user as `5,05` (`505 / 10 ** 2`). Tokens usually opt for a value of 18, imitating the relationship between Ether and Wei. This is the value {ERC20} uses, unless {_setupDecimals} is called. NOTE: This information is only used for _display_ purposes: it in no way affects any of the arithmetic of the contract, including {IERC20-balanceOf} and {IERC20-transfer}."
      },
      "decreaseAllowance(address,uint256)": {
        "details": "Atomically decreases the allowance granted to `spender` by the caller. This is an alternative to {approve} that can be used as a mitigation for problems described in {IERC20-approve}. Emits an {Approval} event indicating the updated allowance. Requirements: - `spender` cannot be the zero address. - `spender` must have allowance for the caller of at least `subtractedValue`."
      },
      "delegate(address)": {
        "params": {
          "delegatee": "The address to delegate votes to"
        }
      },
      "delegateBySig(address,uint256,uint256,uint8,bytes32,bytes32)": {
        "params": {
          "delegatee": "The address to delegate votes to",
          "expiry": "The time at which to expire the signature",
          "nonce": "The contract state required to match the signature",
          "r": "Half of the ECDSA signature pair",
          "s": "Half of the ECDSA signature pair",
          "v": "The recovery byte of the signature"
        }
      },
      "delegates(address)": {
        "params": {
          "delegator": "The address to get delegatee for"
        }
      },
      "getCurrentVotes(address)": {
        "params": {
          "account": "The address to get votes balance"
        },
        "returns": {
          "_0": "The number of current votes for `account`"
        }
      },
      "getPriorVotes(address,uint256)": {
        "details": "Block number must be a finalized block or else this function will revert to prevent misinformation.",
        "params": {
          "account": "The address of the account to check",
          "blockNumber": "The block number to get the vote balance at"
        },
        "returns": {
          "_0": "The number of votes the account had as of the given block"
        }
      },
      "increaseAllowance(address,uint256)": {
        "details": "Atomically increases the allowance granted to `spender` by the caller. This is an alternative to {approve} that can be used as a mitigation for problems described in {IERC20-approve}. Emits an {Approval} event indicating the updated allowance. Requirements: - `spender` cannot be the zero address."
      },
      "name()": {
        "details": "Returns the name of the token."
      },
      "owner()": {
        "details": "Returns the address of the current owner."
      },
      "renounceOwnership()": {
        "details": "Leaves the contract without owner. It will not be possible to call `onlyOwner` functions anymore. Can only be called by the current owner. NOTE: Renouncing ownership will leave the contract without an owner, thereby removing any functionality that is only available to the owner."
      },
      "symbol()": {
        "details": "Returns the symbol of the token, usually a shorter version of the name."
      },
      "totalSupply()": {
        "details": "See {IERC20-totalSupply}."
      },
      "transfer(address,uint256)": {
        "details": "See {IERC20-transfer}. Requirements: - `recipient` cannot be the zero address. - the caller must have a balance of at least `amount`."
      },
      "transferFrom(address,address,uint256)": {
        "details": "See {IERC20-transferFrom}. Emits an {Approval} event indicating the updated allowance. This is not required by the EIP. See the note at the beginning of {ERC20}. Requirements: - `sender` and `recipient` cannot be the zero address. - `sender` must have a balance of at least `amount`. - the caller must have allowance for ``sender``'s tokens of at least `amount`."
      },
      "transferOwnership(address)": {
        "details": "Transfers ownership of the contract to a new account (`newOwner`). Can only be called by the current owner."
      }
    },
    "stateVariables": {
      "_delegates": {
        "details": "A record of each accounts delegate"
      }
    },
    "version": 1
  },
  "userdoc": {
    "events": {
      "DelegateChanged(address,address,address)": {
        "notice": "An event thats emitted when an account changes its delegate"
      },
      "DelegateVotesChanged(address,uint256,uint256)": {
        "notice": "An event thats emitted when a delegate account's vote balance changes"
      }
    },
    "kind": "user",
    "methods": {
      "DELEGATION_TYPEHASH()": {
        "notice": "The EIP-712 typehash for the delegation struct used by the contract"
      },
      "DOMAIN_TYPEHASH()": {
        "notice": "The EIP-712 typehash for the contract's domain"
      },
      "checkpoints(address,uint32)": {
        "notice": "A record of votes checkpoints for each account, by index"
      },
      "delegate(address)": {
        "notice": "Delegate votes from `msg.sender` to `delegatee`"
      },
      "delegateBySig(address,uint256,uint256,uint8,bytes32,bytes32)": {
        "notice": "Delegates votes from signatory to `delegatee`"
      },
      "delegates(address)": {
        "notice": "Delegate votes from `msg.sender` to `delegatee`"
      },
      "getCurrentVotes(address)": {
        "notice": "Gets the current votes balance for `account`"
      },
      "getPriorVotes(address,uint256)": {
        "notice": "Determine the prior number of votes for an account as of a block number"
      },
      "mint(address,uint256)": {
        "notice": "Creates `_amount` token to `_to`. Must only be called by the owner (MasterChef)."
      },
      "nonces(address)": {
        "notice": "A record of states for signing / validating signatures"
      },
      "numCheckpoints(address)": {
        "notice": "The number of checkpoints for each account"
      }
    },
    "version": 1
  },
  "storageLayout": {
    "storage": [
      {
        "astId": 552,
        "contract": "contracts/staking/EMOToken.sol:EMOToken",
        "label": "_balances",
        "offset": 0,
        "slot": "0",
        "type": "t_mapping(t_address,t_uint256)"
      },
      {
        "astId": 558,
        "contract": "contracts/staking/EMOToken.sol:EMOToken",
        "label": "_allowances",
        "offset": 0,
        "slot": "1",
        "type": "t_mapping(t_address,t_mapping(t_address,t_uint256))"
      },
      {
        "astId": 560,
        "contract": "contracts/staking/EMOToken.sol:EMOToken",
        "label": "_totalSupply",
        "offset": 0,
        "slot": "2",
        "type": "t_uint256"
      },
      {
        "astId": 562,
        "contract": "contracts/staking/EMOToken.sol:EMOToken",
        "label": "_name",
        "offset": 0,
        "slot": "3",
        "type": "t_string_storage"
      },
      {
        "astId": 564,
        "contract": "contracts/staking/EMOToken.sol:EMOToken",
        "label": "_symbol",
        "offset": 0,
        "slot": "4",
        "type": "t_string_storage"
      },
      {
        "astId": 566,
        "contract": "contracts/staking/EMOToken.sol:EMOToken",
        "label": "_decimals",
        "offset": 0,
        "slot": "5",
        "type": "t_uint8"
      },
      {
        "astId": 7,
        "contract": "contracts/staking/EMOToken.sol:EMOToken",
        "label": "_owner",
        "offset": 1,
        "slot": "5",
        "type": "t_address"
      },
      {
        "astId": 20062,
        "contract": "contracts/staking/EMOToken.sol:EMOToken",
        "label": "_minters",
        "offset": 0,
        "slot": "6",
        "type": "t_struct(AddressSet)1983_storage"
      },
      {
        "astId": 20110,
        "contract": "contracts/staking/EMOToken.sol:EMOToken",
        "label": "_delegates",
        "offset": 0,
        "slot": "8",
        "type": "t_mapping(t_address,t_address)"
      },
      {
        "astId": 20122,
        "contract": "contracts/staking/EMOToken.sol:EMOToken",
        "label": "checkpoints",
        "offset": 0,
        "slot": "9",
        "type": "t_mapping(t_address,t_mapping(t_uint32,t_struct(Checkpoint)20115_storage))"
      },
      {
        "astId": 20127,
        "contract": "contracts/staking/EMOToken.sol:EMOToken",
        "label": "numCheckpoints",
        "offset": 0,
        "slot": "10",
        "type": "t_mapping(t_address,t_uint32)"
      },
      {
        "astId": 20144,
        "contract": "contracts/staking/EMOToken.sol:EMOToken",
        "label": "nonces",
        "offset": 0,
        "slot": "11",
        "type": "t_mapping(t_address,t_uint256)"
      }
    ],
    "types": {
      "t_address": {
        "encoding": "inplace",
        "label": "address",
        "numberOfBytes": "20"
      },
      "t_array(t_bytes32)dyn_storage": {
        "base": "t_bytes32",
        "encoding": "dynamic_array",
        "label": "bytes32[]",
        "numberOfBytes": "32"
      },
      "t_bytes32": {
        "encoding": "inplace",
        "label": "bytes32",
        "numberOfBytes": "32"
      },
      "t_mapping(t_address,t_address)": {
        "encoding": "mapping",
        "key": "t_address",
        "label": "mapping(address => address)",
        "numberOfBytes": "32",
        "value": "t_address"
      },
      "t_mapping(t_address,t_mapping(t_address,t_uint256))": {
        "encoding": "mapping",
        "key": "t_address",
        "label": "mapping(address => mapping(address => uint256))",
        "numberOfBytes": "32",
        "value": "t_mapping(t_address,t_uint256)"
      },
      "t_mapping(t_address,t_mapping(t_uint32,t_struct(Checkpoint)20115_storage))": {
        "encoding": "mapping",
        "key": "t_address",
        "label": "mapping(address => mapping(uint32 => struct EMOToken.Checkpoint))",
        "numberOfBytes": "32",
        "value": "t_mapping(t_uint32,t_struct(Checkpoint)20115_storage)"
      },
      "t_mapping(t_address,t_uint256)": {
        "encoding": "mapping",
        "key": "t_address",
        "label": "mapping(address => uint256)",
        "numberOfBytes": "32",
        "value": "t_uint256"
      },
      "t_mapping(t_address,t_uint32)": {
        "encoding": "mapping",
        "key": "t_address",
        "label": "mapping(address => uint32)",
        "numberOfBytes": "32",
        "value": "t_uint32"
      },
      "t_mapping(t_bytes32,t_uint256)": {
        "encoding": "mapping",
        "key": "t_bytes32",
        "label": "mapping(bytes32 => uint256)",
        "numberOfBytes": "32",
        "value": "t_uint256"
      },
      "t_mapping(t_uint32,t_struct(Checkpoint)20115_storage)": {
        "encoding": "mapping",
        "key": "t_uint32",
        "label": "mapping(uint32 => struct EMOToken.Checkpoint)",
        "numberOfBytes": "32",
        "value": "t_struct(Checkpoint)20115_storage"
      },
      "t_string_storage": {
        "encoding": "bytes",
        "label": "string",
        "numberOfBytes": "32"
      },
      "t_struct(AddressSet)1983_storage": {
        "encoding": "inplace",
        "label": "struct EnumerableSet.AddressSet",
        "members": [
          {
            "astId": 1982,
            "contract": "contracts/staking/EMOToken.sol:EMOToken",
            "label": "_inner",
            "offset": 0,
            "slot": "0",
            "type": "t_struct(Set)1718_storage"
          }
        ],
        "numberOfBytes": "64"
      },
      "t_struct(Checkpoint)20115_storage": {
        "encoding": "inplace",
        "label": "struct EMOToken.Checkpoint",
        "members": [
          {
            "astId": 20112,
            "contract": "contracts/staking/EMOToken.sol:EMOToken",
            "label": "fromBlock",
            "offset": 0,
            "slot": "0",
            "type": "t_uint32"
          },
          {
            "astId": 20114,
            "contract": "contracts/staking/EMOToken.sol:EMOToken",
            "label": "votes",
            "offset": 0,
            "slot": "1",
            "type": "t_uint256"
          }
        ],
        "numberOfBytes": "64"
      },
      "t_struct(Set)1718_storage": {
        "encoding": "inplace",
        "label": "struct EnumerableSet.Set",
        "members": [
          {
            "astId": 1713,
            "contract": "contracts/staking/EMOToken.sol:EMOToken",
            "label": "_values",
            "offset": 0,
            "slot": "0",
            "type": "t_array(t_bytes32)dyn_storage"
          },
          {
            "astId": 1717,
            "contract": "contracts/staking/EMOToken.sol:EMOToken",
            "label": "_indexes",
            "offset": 0,
            "slot": "1",
            "type": "t_mapping(t_bytes32,t_uint256)"
          }
        ],
        "numberOfBytes": "64"
      },
      "t_uint256": {
        "encoding": "inplace",
        "label": "uint256",
        "numberOfBytes": "32"
      },
      "t_uint32": {
        "encoding": "inplace",
        "label": "uint32",
        "numberOfBytes": "4"
      },
      "t_uint8": {
        "encoding": "inplace",
        "label": "uint8",
        "numberOfBytes": "1"
      }
    }
  }
}