{
  "address": "0x64C3b10636baBb3Ef46a7E2E5248b0dE43198fCB",
  "abi": [
    {
      "inputs": [
        {
          "internalType": "address",
          "name": "_factory",
          "type": "address"
        },
        {
          "internalType": "address",
          "name": "_WETH",
          "type": "address"
        }
      ],
      "stateMutability": "nonpayable",
      "type": "constructor"
    },
    {
      "inputs": [],
      "name": "WETH",
      "outputs": [
        {
          "internalType": "address",
          "name": "",
          "type": "address"
        }
      ],
      "stateMutability": "view",
      "type": "function"
    },
    {
      "inputs": [
        {
          "internalType": "address",
          "name": "tokenA",
          "type": "address"
        },
        {
          "internalType": "address",
          "name": "tokenB",
          "type": "address"
        },
        {
          "internalType": "uint256",
          "name": "amountADesired",
          "type": "uint256"
        },
        {
          "internalType": "uint256",
          "name": "amountBDesired",
          "type": "uint256"
        },
        {
          "internalType": "uint256",
          "name": "amountAMin",
          "type": "uint256"
        },
        {
          "internalType": "uint256",
          "name": "amountBMin",
          "type": "uint256"
        },
        {
          "internalType": "address",
          "name": "to",
          "type": "address"
        },
        {
          "internalType": "uint256",
          "name": "deadline",
          "type": "uint256"
        }
      ],
      "name": "addLiquidity",
      "outputs": [
        {
          "internalType": "uint256",
          "name": "amountA",
          "type": "uint256"
        },
        {
          "internalType": "uint256",
          "name": "amountB",
          "type": "uint256"
        },
        {
          "internalType": "uint256",
          "name": "liquidity",
          "type": "uint256"
        }
      ],
      "stateMutability": "nonpayable",
      "type": "function"
    },
    {
      "inputs": [
        {
          "internalType": "address",
          "name": "token",
          "type": "address"
        },
        {
          "internalType": "uint256",
          "name": "amountTokenDesired",
          "type": "uint256"
        },
        {
          "internalType": "uint256",
          "name": "amountTokenMin",
          "type": "uint256"
        },
        {
          "internalType": "uint256",
          "name": "amountETHMin",
          "type": "uint256"
        },
        {
          "internalType": "address",
          "name": "to",
          "type": "address"
        },
        {
          "internalType": "uint256",
          "name": "deadline",
          "type": "uint256"
        }
      ],
      "name": "addLiquidityETH",
      "outputs": [
        {
          "internalType": "uint256",
          "name": "amountToken",
          "type": "uint256"
        },
        {
          "internalType": "uint256",
          "name": "amountETH",
          "type": "uint256"
        },
        {
          "internalType": "uint256",
          "name": "liquidity",
          "type": "uint256"
        }
      ],
      "stateMutability": "payable",
      "type": "function"
    },
    {
      "inputs": [],
      "name": "factory",
      "outputs": [
        {
          "internalType": "address",
          "name": "",
          "type": "address"
        }
      ],
      "stateMutability": "view",
      "type": "function"
    },
    {
      "inputs": [
        {
          "internalType": "uint256",
          "name": "amountOut",
          "type": "uint256"
        },
        {
          "internalType": "uint256",
          "name": "reserveIn",
          "type": "uint256"
        },
        {
          "internalType": "uint256",
          "name": "reserveOut",
          "type": "uint256"
        },
        {
          "internalType": "uint256",
          "name": "pairFee",
          "type": "uint256"
        }
      ],
      "name": "getAmountIn",
      "outputs": [
        {
          "internalType": "uint256",
          "name": "amountIn",
          "type": "uint256"
        }
      ],
      "stateMutability": "pure",
      "type": "function"
    },
    {
      "inputs": [
        {
          "internalType": "uint256",
          "name": "amountIn",
          "type": "uint256"
        },
        {
          "internalType": "uint256",
          "name": "reserveIn",
          "type": "uint256"
        },
        {
          "internalType": "uint256",
          "name": "reserveOut",
          "type": "uint256"
        },
        {
          "internalType": "uint256",
          "name": "pairFee",
          "type": "uint256"
        }
      ],
      "name": "getAmountOut",
      "outputs": [
        {
          "internalType": "uint256",
          "name": "amountOut",
          "type": "uint256"
        }
      ],
      "stateMutability": "pure",
      "type": "function"
    },
    {
      "inputs": [
        {
          "internalType": "uint256",
          "name": "amountOut",
          "type": "uint256"
        },
        {
          "internalType": "address[]",
          "name": "path",
          "type": "address[]"
        }
      ],
      "name": "getAmountsIn",
      "outputs": [
        {
          "internalType": "uint256[]",
          "name": "amounts",
          "type": "uint256[]"
        }
      ],
      "stateMutability": "view",
      "type": "function"
    },
    {
      "inputs": [
        {
          "internalType": "uint256",
          "name": "amountIn",
          "type": "uint256"
        },
        {
          "internalType": "address[]",
          "name": "path",
          "type": "address[]"
        }
      ],
      "name": "getAmountsOut",
      "outputs": [
        {
          "internalType": "uint256[]",
          "name": "amounts",
          "type": "uint256[]"
        }
      ],
      "stateMutability": "view",
      "type": "function"
    },
    {
      "inputs": [
        {
          "internalType": "uint256",
          "name": "amountA",
          "type": "uint256"
        },
        {
          "internalType": "uint256",
          "name": "reserveA",
          "type": "uint256"
        },
        {
          "internalType": "uint256",
          "name": "reserveB",
          "type": "uint256"
        }
      ],
      "name": "quote",
      "outputs": [
        {
          "internalType": "uint256",
          "name": "amountB",
          "type": "uint256"
        }
      ],
      "stateMutability": "pure",
      "type": "function"
    },
    {
      "inputs": [
        {
          "internalType": "address",
          "name": "tokenA",
          "type": "address"
        },
        {
          "internalType": "address",
          "name": "tokenB",
          "type": "address"
        },
        {
          "internalType": "uint256",
          "name": "liquidity",
          "type": "uint256"
        },
        {
          "internalType": "uint256",
          "name": "amountAMin",
          "type": "uint256"
        },
        {
          "internalType": "uint256",
          "name": "amountBMin",
          "type": "uint256"
        },
        {
          "internalType": "address",
          "name": "to",
          "type": "address"
        },
        {
          "internalType": "uint256",
          "name": "deadline",
          "type": "uint256"
        }
      ],
      "name": "removeLiquidity",
      "outputs": [
        {
          "internalType": "uint256",
          "name": "amountA",
          "type": "uint256"
        },
        {
          "internalType": "uint256",
          "name": "amountB",
          "type": "uint256"
        }
      ],
      "stateMutability": "nonpayable",
      "type": "function"
    },
    {
      "inputs": [
        {
          "internalType": "address",
          "name": "token",
          "type": "address"
        },
        {
          "internalType": "uint256",
          "name": "liquidity",
          "type": "uint256"
        },
        {
          "internalType": "uint256",
          "name": "amountTokenMin",
          "type": "uint256"
        },
        {
          "internalType": "uint256",
          "name": "amountETHMin",
          "type": "uint256"
        },
        {
          "internalType": "address",
          "name": "to",
          "type": "address"
        },
        {
          "internalType": "uint256",
          "name": "deadline",
          "type": "uint256"
        }
      ],
      "name": "removeLiquidityETH",
      "outputs": [
        {
          "internalType": "uint256",
          "name": "amountToken",
          "type": "uint256"
        },
        {
          "internalType": "uint256",
          "name": "amountETH",
          "type": "uint256"
        }
      ],
      "stateMutability": "nonpayable",
      "type": "function"
    },
    {
      "inputs": [
        {
          "internalType": "address",
          "name": "token",
          "type": "address"
        },
        {
          "internalType": "uint256",
          "name": "liquidity",
          "type": "uint256"
        },
        {
          "internalType": "uint256",
          "name": "amountTokenMin",
          "type": "uint256"
        },
        {
          "internalType": "uint256",
          "name": "amountETHMin",
          "type": "uint256"
        },
        {
          "internalType": "address",
          "name": "to",
          "type": "address"
        },
        {
          "internalType": "uint256",
          "name": "deadline",
          "type": "uint256"
        }
      ],
      "name": "removeLiquidityETHSupportingFeeOnTransferTokens",
      "outputs": [
        {
          "internalType": "uint256",
          "name": "amountETH",
          "type": "uint256"
        }
      ],
      "stateMutability": "nonpayable",
      "type": "function"
    },
    {
      "inputs": [
        {
          "internalType": "address",
          "name": "token",
          "type": "address"
        },
        {
          "internalType": "uint256",
          "name": "liquidity",
          "type": "uint256"
        },
        {
          "internalType": "uint256",
          "name": "amountTokenMin",
          "type": "uint256"
        },
        {
          "internalType": "uint256",
          "name": "amountETHMin",
          "type": "uint256"
        },
        {
          "internalType": "address",
          "name": "to",
          "type": "address"
        },
        {
          "internalType": "uint256",
          "name": "deadline",
          "type": "uint256"
        },
        {
          "internalType": "bool",
          "name": "approveMax",
          "type": "bool"
        },
        {
          "internalType": "uint8",
          "name": "v",
          "type": "uint8"
        },
        {
          "internalType": "bytes32",
          "name": "r",
          "type": "bytes32"
        },
        {
          "internalType": "bytes32",
          "name": "s",
          "type": "bytes32"
        }
      ],
      "name": "removeLiquidityETHWithPermit",
      "outputs": [
        {
          "internalType": "uint256",
          "name": "amountToken",
          "type": "uint256"
        },
        {
          "internalType": "uint256",
          "name": "amountETH",
          "type": "uint256"
        }
      ],
      "stateMutability": "nonpayable",
      "type": "function"
    },
    {
      "inputs": [
        {
          "internalType": "address",
          "name": "token",
          "type": "address"
        },
        {
          "internalType": "uint256",
          "name": "liquidity",
          "type": "uint256"
        },
        {
          "internalType": "uint256",
          "name": "amountTokenMin",
          "type": "uint256"
        },
        {
          "internalType": "uint256",
          "name": "amountETHMin",
          "type": "uint256"
        },
        {
          "internalType": "address",
          "name": "to",
          "type": "address"
        },
        {
          "internalType": "uint256",
          "name": "deadline",
          "type": "uint256"
        },
        {
          "internalType": "bool",
          "name": "approveMax",
          "type": "bool"
        },
        {
          "internalType": "uint8",
          "name": "v",
          "type": "uint8"
        },
        {
          "internalType": "bytes32",
          "name": "r",
          "type": "bytes32"
        },
        {
          "internalType": "bytes32",
          "name": "s",
          "type": "bytes32"
        }
      ],
      "name": "removeLiquidityETHWithPermitSupportingFeeOnTransferTokens",
      "outputs": [
        {
          "internalType": "uint256",
          "name": "amountETH",
          "type": "uint256"
        }
      ],
      "stateMutability": "nonpayable",
      "type": "function"
    },
    {
      "inputs": [
        {
          "internalType": "address",
          "name": "tokenA",
          "type": "address"
        },
        {
          "internalType": "address",
          "name": "tokenB",
          "type": "address"
        },
        {
          "internalType": "uint256",
          "name": "liquidity",
          "type": "uint256"
        },
        {
          "internalType": "uint256",
          "name": "amountAMin",
          "type": "uint256"
        },
        {
          "internalType": "uint256",
          "name": "amountBMin",
          "type": "uint256"
        },
        {
          "internalType": "address",
          "name": "to",
          "type": "address"
        },
        {
          "internalType": "uint256",
          "name": "deadline",
          "type": "uint256"
        },
        {
          "internalType": "bool",
          "name": "approveMax",
          "type": "bool"
        },
        {
          "internalType": "uint8",
          "name": "v",
          "type": "uint8"
        },
        {
          "internalType": "bytes32",
          "name": "r",
          "type": "bytes32"
        },
        {
          "internalType": "bytes32",
          "name": "s",
          "type": "bytes32"
        }
      ],
      "name": "removeLiquidityWithPermit",
      "outputs": [
        {
          "internalType": "uint256",
          "name": "amountA",
          "type": "uint256"
        },
        {
          "internalType": "uint256",
          "name": "amountB",
          "type": "uint256"
        }
      ],
      "stateMutability": "nonpayable",
      "type": "function"
    },
    {
      "inputs": [
        {
          "internalType": "uint256",
          "name": "amountOut",
          "type": "uint256"
        },
        {
          "internalType": "address[]",
          "name": "path",
          "type": "address[]"
        },
        {
          "internalType": "address",
          "name": "to",
          "type": "address"
        },
        {
          "internalType": "uint256",
          "name": "deadline",
          "type": "uint256"
        }
      ],
      "name": "swapETHForExactTokens",
      "outputs": [
        {
          "internalType": "uint256[]",
          "name": "amounts",
          "type": "uint256[]"
        }
      ],
      "stateMutability": "payable",
      "type": "function"
    },
    {
      "inputs": [
        {
          "internalType": "uint256",
          "name": "amountOutMin",
          "type": "uint256"
        },
        {
          "internalType": "address[]",
          "name": "path",
          "type": "address[]"
        },
        {
          "internalType": "address",
          "name": "to",
          "type": "address"
        },
        {
          "internalType": "uint256",
          "name": "deadline",
          "type": "uint256"
        }
      ],
      "name": "swapExactETHForTokens",
      "outputs": [
        {
          "internalType": "uint256[]",
          "name": "amounts",
          "type": "uint256[]"
        }
      ],
      "stateMutability": "payable",
      "type": "function"
    },
    {
      "inputs": [
        {
          "internalType": "uint256",
          "name": "amountOutMin",
          "type": "uint256"
        },
        {
          "internalType": "address[]",
          "name": "path",
          "type": "address[]"
        },
        {
          "internalType": "address",
          "name": "to",
          "type": "address"
        },
        {
          "internalType": "uint256",
          "name": "deadline",
          "type": "uint256"
        }
      ],
      "name": "swapExactETHForTokensSupportingFeeOnTransferTokens",
      "outputs": [],
      "stateMutability": "payable",
      "type": "function"
    },
    {
      "inputs": [
        {
          "internalType": "uint256",
          "name": "amountIn",
          "type": "uint256"
        },
        {
          "internalType": "uint256",
          "name": "amountOutMin",
          "type": "uint256"
        },
        {
          "internalType": "address[]",
          "name": "path",
          "type": "address[]"
        },
        {
          "internalType": "address",
          "name": "to",
          "type": "address"
        },
        {
          "internalType": "uint256",
          "name": "deadline",
          "type": "uint256"
        }
      ],
      "name": "swapExactTokensForETH",
      "outputs": [
        {
          "internalType": "uint256[]",
          "name": "amounts",
          "type": "uint256[]"
        }
      ],
      "stateMutability": "nonpayable",
      "type": "function"
    },
    {
      "inputs": [
        {
          "internalType": "uint256",
          "name": "amountIn",
          "type": "uint256"
        },
        {
          "internalType": "uint256",
          "name": "amountOutMin",
          "type": "uint256"
        },
        {
          "internalType": "address[]",
          "name": "path",
          "type": "address[]"
        },
        {
          "internalType": "address",
          "name": "to",
          "type": "address"
        },
        {
          "internalType": "uint256",
          "name": "deadline",
          "type": "uint256"
        }
      ],
      "name": "swapExactTokensForETHSupportingFeeOnTransferTokens",
      "outputs": [],
      "stateMutability": "nonpayable",
      "type": "function"
    },
    {
      "inputs": [
        {
          "internalType": "uint256",
          "name": "amountIn",
          "type": "uint256"
        },
        {
          "internalType": "uint256",
          "name": "amountOutMin",
          "type": "uint256"
        },
        {
          "internalType": "address[]",
          "name": "path",
          "type": "address[]"
        },
        {
          "internalType": "address",
          "name": "to",
          "type": "address"
        },
        {
          "internalType": "uint256",
          "name": "deadline",
          "type": "uint256"
        }
      ],
      "name": "swapExactTokensForTokens",
      "outputs": [
        {
          "internalType": "uint256[]",
          "name": "amounts",
          "type": "uint256[]"
        }
      ],
      "stateMutability": "nonpayable",
      "type": "function"
    },
    {
      "inputs": [
        {
          "internalType": "uint256",
          "name": "amountIn",
          "type": "uint256"
        },
        {
          "internalType": "uint256",
          "name": "amountOutMin",
          "type": "uint256"
        },
        {
          "internalType": "address[]",
          "name": "path",
          "type": "address[]"
        },
        {
          "internalType": "address",
          "name": "to",
          "type": "address"
        },
        {
          "internalType": "uint256",
          "name": "deadline",
          "type": "uint256"
        }
      ],
      "name": "swapExactTokensForTokensSupportingFeeOnTransferTokens",
      "outputs": [],
      "stateMutability": "nonpayable",
      "type": "function"
    },
    {
      "inputs": [
        {
          "internalType": "uint256",
          "name": "amountOut",
          "type": "uint256"
        },
        {
          "internalType": "uint256",
          "name": "amountInMax",
          "type": "uint256"
        },
        {
          "internalType": "address[]",
          "name": "path",
          "type": "address[]"
        },
        {
          "internalType": "address",
          "name": "to",
          "type": "address"
        },
        {
          "internalType": "uint256",
          "name": "deadline",
          "type": "uint256"
        }
      ],
      "name": "swapTokensForExactETH",
      "outputs": [
        {
          "internalType": "uint256[]",
          "name": "amounts",
          "type": "uint256[]"
        }
      ],
      "stateMutability": "nonpayable",
      "type": "function"
    },
    {
      "inputs": [
        {
          "internalType": "uint256",
          "name": "amountOut",
          "type": "uint256"
        },
        {
          "internalType": "uint256",
          "name": "amountInMax",
          "type": "uint256"
        },
        {
          "internalType": "address[]",
          "name": "path",
          "type": "address[]"
        },
        {
          "internalType": "address",
          "name": "to",
          "type": "address"
        },
        {
          "internalType": "uint256",
          "name": "deadline",
          "type": "uint256"
        }
      ],
      "name": "swapTokensForExactTokens",
      "outputs": [
        {
          "internalType": "uint256[]",
          "name": "amounts",
          "type": "uint256[]"
        }
      ],
      "stateMutability": "nonpayable",
      "type": "function"
    },
    {
      "stateMutability": "payable",
      "type": "receive"
    }
  ],
  "transactionHash": "0x646d917e36153717b26c1c34101bd15d68a9506039e4d12c4ac548637924b089",
  "args": [
    "0xF24E36e53628C3086493B9EfA785ab9DD85232EB",
    "0xD4949664cD82660AaE99bEdc034a0deA8A0bd517"
  ],
  "solcInputHash": "de08cb4bf8dbe8ac3fbc1ae3e14ec09e",
  "bytecode": "0x60c060405234801561001057600080fd5b5060405162004890380380620048908339818101604052604081101561003557600080fd5b5080516020909101516001600160601b0319606092831b8116608052911b1660a05260805160601c60a05160601c61470b620001856000398061015f5280610cf05280610d2b5280610e0d528061102b52806113b5528061154052806118ef52806119ca5280611aa45280611b725280611cb85280611d405280611f6f5280611ff252806120a652806121725280612207528061227b528061275e52806129c85280612a1e5280612a525280612ac65280612c545280612d975280612e1f525080610e9b5280610f7252806110f1528061112a52806112655280611443528061151e528061168e5280611c055280611d725280611ebf52806122ad52806124eb52806126e3528061270c528061273c52806128a952806129fc5280612ce75280612e51528061361d52806136605280613b265280613d07528061402052806140d9528061418c525061470b6000f3fe60806040526004361061014f5760003560e01c80638803dbee116100b6578063c45a01551161006f578063c45a015514610a1c578063d06ca61f14610a31578063ded9382a14610ae6578063e8e3370014610b59578063f305d71914610bd9578063fb3bdb4114610c1f57610188565b80638803dbee146107eb578063ad5c464814610881578063ad615dec146108b2578063af2979eb146108e8578063b6f9de951461093b578063baa2abde146109bf57610188565b806352707d8c1161010857806352707d8c1461053e578063571fd0121461058c5780635b0d5984146105c85780635c11d7951461063b578063791ac947146106d15780637ff36ab51461076757610188565b806302751cec1461018d57806318cbafe5146101f95780631f00ca74146102df5780632195995c1461039457806338ed1739146104125780634a25d94a146104a857610188565b3661018857336001600160a01b037f0000000000000000000000000000000000000000000000000000000000000000161461018657fe5b005b600080fd5b34801561019957600080fd5b506101e0600480360360c08110156101b057600080fd5b506001600160a01b0381358116916020810135916040820135916060810135916080820135169060a00135610ca3565b6040805192835260208301919091528051918290030190f35b34801561020557600080fd5b5061028f600480360360a081101561021c57600080fd5b813591602081013591810190606081016040820135600160201b81111561024257600080fd5b82018360208201111561025457600080fd5b803590602001918460208302840111600160201b8311171561027557600080fd5b91935091506001600160a01b038135169060200135610dbd565b60408051602080825283518183015283519192839290830191858101910280838360005b838110156102cb5781810151838201526020016102b3565b505050509050019250505060405180910390f35b3480156102eb57600080fd5b5061028f6004803603604081101561030257600080fd5b81359190810190604081016020820135600160201b81111561032357600080fd5b82018360208201111561033557600080fd5b803590602001918460208302840111600160201b8311171561035657600080fd5b9190808060200260200160405190810160405280939291908181526020018383602002808284376000920191909152509295506110ea945050505050565b3480156103a057600080fd5b506101e060048036036101608110156103b857600080fd5b506001600160a01b038135811691602081013582169160408201359160608101359160808201359160a08101359091169060c08101359060e081013515159060ff6101008201351690610120810135906101400135611120565b34801561041e57600080fd5b5061028f600480360360a081101561043557600080fd5b813591602081013591810190606081016040820135600160201b81111561045b57600080fd5b82018360208201111561046d57600080fd5b803590602001918460208302840111600160201b8311171561048e57600080fd5b91935091506001600160a01b03813516906020013561121a565b3480156104b457600080fd5b5061028f600480360360a08110156104cb57600080fd5b813591602081013591810190606081016040820135600160201b8111156104f157600080fd5b82018360208201111561050357600080fd5b803590602001918460208302840111600160201b8311171561052457600080fd5b91935091506001600160a01b038135169060200135611365565b34801561054a57600080fd5b5061057a6004803603608081101561056157600080fd5b50803590602081013590604081013590606001356114f1565b60408051918252519081900360200190f35b34801561059857600080fd5b5061057a600480360360808110156105af57600080fd5b5080359060208101359060408101359060600135611508565b3480156105d457600080fd5b5061057a60048036036101408110156105ec57600080fd5b506001600160a01b0381358116916020810135916040820135916060810135916080820135169060a08101359060c081013515159060ff60e08201351690610100810135906101200135611516565b34801561064757600080fd5b50610186600480360360a081101561065e57600080fd5b813591602081013591810190606081016040820135600160201b81111561068457600080fd5b82018360208201111561069657600080fd5b803590602001918460208302840111600160201b831117156106b757600080fd5b91935091506001600160a01b038135169060200135611624565b3480156106dd57600080fd5b50610186600480360360a08110156106f457600080fd5b813591602081013591810190606081016040820135600160201b81111561071a57600080fd5b82018360208201111561072c57600080fd5b803590602001918460208302840111600160201b8311171561074d57600080fd5b91935091506001600160a01b0381351690602001356118a1565b61028f6004803603608081101561077d57600080fd5b81359190810190604081016020820135600160201b81111561079e57600080fd5b8201836020820111156107b057600080fd5b803590602001918460208302840111600160201b831117156107d157600080fd5b91935091506001600160a01b038135169060200135611b2a565b3480156107f757600080fd5b5061028f600480360360a081101561080e57600080fd5b813591602081013591810190606081016040820135600160201b81111561083457600080fd5b82018360208201111561084657600080fd5b803590602001918460208302840111600160201b8311171561086757600080fd5b91935091506001600160a01b038135169060200135611e74565b34801561088d57600080fd5b50610896611f6d565b604080516001600160a01b039092168252519081900360200190f35b3480156108be57600080fd5b5061057a600480360360608110156108d557600080fd5b5080359060208101359060400135611f91565b3480156108f457600080fd5b5061057a600480360360c081101561090b57600080fd5b506001600160a01b0381358116916020810135916040820135916060810135916080820135169060a00135611fa6565b6101866004803603608081101561095157600080fd5b81359190810190604081016020820135600160201b81111561097257600080fd5b82018360208201111561098457600080fd5b803590602001918460208302840111600160201b831117156109a557600080fd5b91935091506001600160a01b03813516906020013561212c565b3480156109cb57600080fd5b506101e0600480360360e08110156109e257600080fd5b506001600160a01b038135811691602081013582169160408201359160608101359160808201359160a08101359091169060c0013561249d565b348015610a2857600080fd5b506108966126e1565b348015610a3d57600080fd5b5061028f60048036036040811015610a5457600080fd5b81359190810190604081016020820135600160201b811115610a7557600080fd5b820183602082011115610a8757600080fd5b803590602001918460208302840111600160201b83111715610aa857600080fd5b919080806020026020016040519081016040528093929190818152602001838360200280828437600092019190915250929550612705945050505050565b348015610af257600080fd5b506101e06004803603610140811015610b0a57600080fd5b506001600160a01b0381358116916020810135916040820135916060810135916080820135169060a08101359060c081013515159060ff60e08201351690610100810135906101200135612732565b348015610b6557600080fd5b50610bbb6004803603610100811015610b7d57600080fd5b506001600160a01b038135811691602081013582169160408201359160608101359160808201359160a08101359160c0820135169060e00135612846565b60408051938452602084019290925282820152519081900360600190f35b610bbb600480360360c0811015610bef57600080fd5b506001600160a01b0381358116916020810135916040820135916060810135916080820135169060a00135612979565b61028f60048036036080811015610c3557600080fd5b81359190810190604081016020820135600160201b811115610c5657600080fd5b820183602082011115610c6857600080fd5b803590602001918460208302840111600160201b83111715610c8957600080fd5b91935091506001600160a01b038135169060200135612c0c565b6000808242811015610cea576040805162461bcd60e51b815260206004820152601760248201526000805160206144c6833981519152604482015290519081900360640190fd5b610d19897f00000000000000000000000000000000000000000000000000000000000000008a8a8a308a61249d565b9093509150610d29898685612f85565b7f00000000000000000000000000000000000000000000000000000000000000006001600160a01b0316632e1a7d4d836040518263ffffffff1660e01b815260040180828152602001915050600060405180830381600087803b158015610d8f57600080fd5b505af1158015610da3573d6000803e3d6000fd5b50505050610db185836130d9565b50965096945050505050565b60608142811015610e03576040805162461bcd60e51b815260206004820152601760248201526000805160206144c6833981519152604482015290519081900360640190fd5b6001600160a01b037f00000000000000000000000000000000000000000000000000000000000000001686866000198101818110610e3d57fe5b905060200201356001600160a01b03166001600160a01b031614610e96576040805162461bcd60e51b815260206004820152601c60248201526000805160206144a6833981519152604482015290519081900360640190fd5b610ef47f0000000000000000000000000000000000000000000000000000000000000000898888808060200260200160405190810160405280939291908181526020018383602002808284376000920191909152506131d192505050565b91508682600184510381518110610f0757fe5b60200260200101511015610f4c5760405162461bcd60e51b815260040180806020018281038252602a8152602001806145eb602a913960400191505060405180910390fd5b610fea86866000818110610f5c57fe5b905060200201356001600160a01b031633610fd07f00000000000000000000000000000000000000000000000000000000000000008a8a6000818110610f9e57fe5b905060200201356001600160a01b03168b8b6001818110610fbb57fe5b905060200201356001600160a01b0316613351565b85600081518110610fdd57fe5b6020026020010151613411565b6110298287878080602002602001604051908101604052809392919081815260200183836020028082843760009201919091525030925061356e915050565b7f00000000000000000000000000000000000000000000000000000000000000006001600160a01b0316632e1a7d4d8360018551038151811061106857fe5b60200260200101516040518263ffffffff1660e01b815260040180828152602001915050600060405180830381600087803b1580156110a657600080fd5b505af11580156110ba573d6000803e3d6000fd5b505050506110df84836001855103815181106110d257fe5b60200260200101516130d9565b509695505050505050565b60606111177f000000000000000000000000000000000000000000000000000000000000000084846137ab565b90505b92915050565b60008060006111507f00000000000000000000000000000000000000000000000000000000000000008f8f613351565b905060008761115f578c611163565b6000195b6040805163d505accf60e01b815233600482015230602482015260448101839052606481018c905260ff8a16608482015260a4810189905260c4810188905290519192506001600160a01b0384169163d505accf9160e48082019260009290919082900301818387803b1580156111d957600080fd5b505af11580156111ed573d6000803e3d6000fd5b505050506112008f8f8f8f8f8f8f61249d565b809450819550505050509b509b9950505050505050505050565b60608142811015611260576040805162461bcd60e51b815260206004820152601760248201526000805160206144c6833981519152604482015290519081900360640190fd5b6112be7f0000000000000000000000000000000000000000000000000000000000000000898888808060200260200160405190810160405280939291908181526020018383602002808284376000920191909152506131d192505050565b915086826001845103815181106112d157fe5b602002602001015110156113165760405162461bcd60e51b815260040180806020018281038252602a8152602001806145eb602a913960400191505060405180910390fd5b61132686866000818110610f5c57fe5b6110df8287878080602002602001604051908101604052809392919081815260200183836020028082843760009201919091525089925061356e915050565b606081428110156113ab576040805162461bcd60e51b815260206004820152601760248201526000805160206144c6833981519152604482015290519081900360640190fd5b6001600160a01b037f000000000000000000000000000000000000000000000000000000000000000016868660001981018181106113e557fe5b905060200201356001600160a01b03166001600160a01b03161461143e576040805162461bcd60e51b815260206004820152601c60248201526000805160206144a6833981519152604482015290519081900360640190fd5b61149c7f0000000000000000000000000000000000000000000000000000000000000000898888808060200260200160405190810160405280939291908181526020018383602002808284376000920191909152506137ab92505050565b915086826000815181106114ac57fe5b60200260200101511115610f4c5760405162461bcd60e51b81526004018080602001828103825260268152602001806146836026913960400191505060405180910390fd5b60006114ff8585858561390a565b95945050505050565b60006114ff858585856139ed565b6000806115647f00000000000000000000000000000000000000000000000000000000000000008d7f0000000000000000000000000000000000000000000000000000000000000000613351565b9050600086611573578b611577565b6000195b6040805163d505accf60e01b815233600482015230602482015260448101839052606481018b905260ff8916608482015260a4810188905260c4810187905290519192506001600160a01b0384169163d505accf9160e48082019260009290919082900301818387803b1580156115ed57600080fd5b505af1158015611601573d6000803e3d6000fd5b505050506116138d8d8d8d8d8d611fa6565b9d9c50505050505050505050505050565b8042811015611668576040805162461bcd60e51b815260206004820152601760248201526000805160206144c6833981519152604482015290519081900360640190fd5b6116dd8585600081811061167857fe5b905060200201356001600160a01b0316336116d77f0000000000000000000000000000000000000000000000000000000000000000898960008181106116ba57fe5b905060200201356001600160a01b03168a8a6001818110610fbb57fe5b8a613411565b6000858560001981018181106116ef57fe5b905060200201356001600160a01b03166001600160a01b03166370a08231856040518263ffffffff1660e01b815260040180826001600160a01b0316815260200191505060206040518083038186803b15801561174b57600080fd5b505afa15801561175f573d6000803e3d6000fd5b505050506040513d602081101561177557600080fd5b505160408051602088810282810182019093528882529293506117b7929091899189918291850190849080828437600092019190915250889250613acf915050565b8661185a82888860001981018181106117cc57fe5b905060200201356001600160a01b03166001600160a01b03166370a08231886040518263ffffffff1660e01b815260040180826001600160a01b0316815260200191505060206040518083038186803b15801561182857600080fd5b505afa15801561183c573d6000803e3d6000fd5b505050506040513d602081101561185257600080fd5b505190613e3c565b10156118975760405162461bcd60e51b815260040180806020018281038252602a8152602001806145eb602a913960400191505060405180910390fd5b5050505050505050565b80428110156118e5576040805162461bcd60e51b815260206004820152601760248201526000805160206144c6833981519152604482015290519081900360640190fd5b6001600160a01b037f0000000000000000000000000000000000000000000000000000000000000000168585600019810181811061191f57fe5b905060200201356001600160a01b03166001600160a01b031614611978576040805162461bcd60e51b815260206004820152601c60248201526000805160206144a6833981519152604482015290519081900360640190fd5b6119888585600081811061167857fe5b6119c6858580806020026020016040519081016040528093929190818152602001838360200280828437600092019190915250309250613acf915050565b60007f00000000000000000000000000000000000000000000000000000000000000006001600160a01b03166370a08231306040518263ffffffff1660e01b815260040180826001600160a01b0316815260200191505060206040518083038186803b158015611a3557600080fd5b505afa158015611a49573d6000803e3d6000fd5b505050506040513d6020811015611a5f57600080fd5b5051905086811015611aa25760405162461bcd60e51b815260040180806020018281038252602a8152602001806145eb602a913960400191505060405180910390fd5b7f00000000000000000000000000000000000000000000000000000000000000006001600160a01b0316632e1a7d4d826040518263ffffffff1660e01b815260040180828152602001915050600060405180830381600087803b158015611b0857600080fd5b505af1158015611b1c573d6000803e3d6000fd5b5050505061189784826130d9565b60608142811015611b70576040805162461bcd60e51b815260206004820152601760248201526000805160206144c6833981519152604482015290519081900360640190fd5b7f00000000000000000000000000000000000000000000000000000000000000006001600160a01b031686866000818110611ba757fe5b905060200201356001600160a01b03166001600160a01b031614611c00576040805162461bcd60e51b815260206004820152601c60248201526000805160206144a6833981519152604482015290519081900360640190fd5b611c5e7f0000000000000000000000000000000000000000000000000000000000000000348888808060200260200160405190810160405280939291908181526020018383602002808284376000920191909152506131d192505050565b91508682600184510381518110611c7157fe5b60200260200101511015611cb65760405162461bcd60e51b815260040180806020018281038252602a8152602001806145eb602a913960400191505060405180910390fd5b7f00000000000000000000000000000000000000000000000000000000000000006001600160a01b031663d0e30db083600081518110611cf257fe5b60200260200101516040518263ffffffff1660e01b81526004016000604051808303818588803b158015611d2557600080fd5b505af1158015611d39573d6000803e3d6000fd5b50505050507f00000000000000000000000000000000000000000000000000000000000000006001600160a01b031663a9059cbb611d9e7f0000000000000000000000000000000000000000000000000000000000000000898960008181106116ba57fe5b84600081518110611dab57fe5b60200260200101516040518363ffffffff1660e01b815260040180836001600160a01b0316815260200182815260200192505050602060405180830381600087803b158015611df957600080fd5b505af1158015611e0d573d6000803e3d6000fd5b505050506040513d6020811015611e2357600080fd5b5051611e2b57fe5b611e6a8287878080602002602001604051908101604052809392919081815260200183836020028082843760009201919091525089925061356e915050565b5095945050505050565b60608142811015611eba576040805162461bcd60e51b815260206004820152601760248201526000805160206144c6833981519152604482015290519081900360640190fd5b611f187f0000000000000000000000000000000000000000000000000000000000000000898888808060200260200160405190810160405280939291908181526020018383602002808284376000920191909152506137ab92505050565b91508682600081518110611f2857fe5b602002602001015111156113165760405162461bcd60e51b81526004018080602001828103825260268152602001806146836026913960400191505060405180910390fd5b7f000000000000000000000000000000000000000000000000000000000000000081565b6000611f9e848484613e8c565b949350505050565b60008142811015611fec576040805162461bcd60e51b815260206004820152601760248201526000805160206144c6833981519152604482015290519081900360640190fd5b61201b887f0000000000000000000000000000000000000000000000000000000000000000898989308961249d565b9050809250506120a488858a6001600160a01b03166370a08231306040518263ffffffff1660e01b815260040180826001600160a01b0316815260200191505060206040518083038186803b15801561207357600080fd5b505afa158015612087573d6000803e3d6000fd5b505050506040513d602081101561209d57600080fd5b5051612f85565b7f00000000000000000000000000000000000000000000000000000000000000006001600160a01b0316632e1a7d4d836040518263ffffffff1660e01b815260040180828152602001915050600060405180830381600087803b15801561210a57600080fd5b505af115801561211e573d6000803e3d6000fd5b505050506110df84836130d9565b8042811015612170576040805162461bcd60e51b815260206004820152601760248201526000805160206144c6833981519152604482015290519081900360640190fd5b7f00000000000000000000000000000000000000000000000000000000000000006001600160a01b0316858560008181106121a757fe5b905060200201356001600160a01b03166001600160a01b031614612200576040805162461bcd60e51b815260206004820152601c60248201526000805160206144a6833981519152604482015290519081900360640190fd5b60003490507f00000000000000000000000000000000000000000000000000000000000000006001600160a01b031663d0e30db0826040518263ffffffff1660e01b81526004016000604051808303818588803b15801561226057600080fd5b505af1158015612274573d6000803e3d6000fd5b50505050507f00000000000000000000000000000000000000000000000000000000000000006001600160a01b031663a9059cbb6122d97f0000000000000000000000000000000000000000000000000000000000000000898960008181106116ba57fe5b836040518363ffffffff1660e01b815260040180836001600160a01b0316815260200182815260200192505050602060405180830381600087803b15801561232057600080fd5b505af1158015612334573d6000803e3d6000fd5b505050506040513d602081101561234a57600080fd5b505161235257fe5b60008686600019810181811061236457fe5b905060200201356001600160a01b03166001600160a01b03166370a08231866040518263ffffffff1660e01b815260040180826001600160a01b0316815260200191505060206040518083038186803b1580156123c057600080fd5b505afa1580156123d4573d6000803e3d6000fd5b505050506040513d60208110156123ea57600080fd5b5051604080516020898102828101820190935289825292935061242c9290918a918a918291850190849080828437600092019190915250899250613acf915050565b8761185a828989600019810181811061244157fe5b905060200201356001600160a01b03166001600160a01b03166370a08231896040518263ffffffff1660e01b815260040180826001600160a01b0316815260200191505060206040518083038186803b15801561182857600080fd5b60008082428110156124e4576040805162461bcd60e51b815260206004820152601760248201526000805160206144c6833981519152604482015290519081900360640190fd5b60006125117f00000000000000000000000000000000000000000000000000000000000000008c8c613351565b604080516323b872dd60e01b81523360048201526001600160a01b03831660248201819052604482018d9052915192935090916323b872dd916064808201926020929091908290030181600087803b15801561256c57600080fd5b505af1158015612580573d6000803e3d6000fd5b505050506040513d602081101561259657600080fd5b50506040805163226bf2d160e21b81526001600160a01b03888116600483015282516000938493928616926389afcb44926024808301939282900301818787803b1580156125e357600080fd5b505af11580156125f7573d6000803e3d6000fd5b505050506040513d604081101561260d57600080fd5b508051602090910151909250905060006126278e8e613f32565b509050806001600160a01b03168e6001600160a01b03161461264a57818361264d565b82825b90975095508a8710156126915760405162461bcd60e51b81526004018080602001828103825260258152602001806146156025913960400191505060405180910390fd5b898610156126d05760405162461bcd60e51b815260040180806020018281038252602581526020018061465e6025913960400191505060405180910390fd5b505050505097509795505050505050565b7f000000000000000000000000000000000000000000000000000000000000000081565b60606111177f000000000000000000000000000000000000000000000000000000000000000084846131d1565b60008060006127827f00000000000000000000000000000000000000000000000000000000000000008e7f0000000000000000000000000000000000000000000000000000000000000000613351565b9050600087612791578c612795565b6000195b6040805163d505accf60e01b815233600482015230602482015260448101839052606481018c905260ff8a16608482015260a4810189905260c4810188905290519192506001600160a01b0384169163d505accf9160e48082019260009290919082900301818387803b15801561280b57600080fd5b505af115801561281f573d6000803e3d6000fd5b505050506128318e8e8e8e8e8e610ca3565b909f909e509c50505050505050505050505050565b6000806000834281101561288f576040805162461bcd60e51b815260206004820152601760248201526000805160206144c6833981519152604482015290519081900360640190fd5b61289d8c8c8c8c8c8c614010565b909450925060006128cf7f00000000000000000000000000000000000000000000000000000000000000008e8e613351565b90506128dd8d338388613411565b6128e98c338387613411565b806001600160a01b0316636a627842886040518263ffffffff1660e01b815260040180826001600160a01b03168152602001915050602060405180830381600087803b15801561293857600080fd5b505af115801561294c573d6000803e3d6000fd5b505050506040513d602081101561296257600080fd5b5051949d939c50939a509198505050505050505050565b600080600083428110156129c2576040805162461bcd60e51b815260206004820152601760248201526000805160206144c6833981519152604482015290519081900360640190fd5b6129f08a7f00000000000000000000000000000000000000000000000000000000000000008b348c8c614010565b90945092506000612a427f00000000000000000000000000000000000000000000000000000000000000008c7f0000000000000000000000000000000000000000000000000000000000000000613351565b9050612a508b338388613411565b7f00000000000000000000000000000000000000000000000000000000000000006001600160a01b031663d0e30db0856040518263ffffffff1660e01b81526004016000604051808303818588803b158015612aab57600080fd5b505af1158015612abf573d6000803e3d6000fd5b50505050507f00000000000000000000000000000000000000000000000000000000000000006001600160a01b031663a9059cbb82866040518363ffffffff1660e01b815260040180836001600160a01b0316815260200182815260200192505050602060405180830381600087803b158015612b3b57600080fd5b505af1158015612b4f573d6000803e3d6000fd5b505050506040513d6020811015612b6557600080fd5b5051612b6d57fe5b806001600160a01b0316636a627842886040518263ffffffff1660e01b815260040180826001600160a01b03168152602001915050602060405180830381600087803b158015612bbc57600080fd5b505af1158015612bd0573d6000803e3d6000fd5b505050506040513d6020811015612be657600080fd5b5051925034841015612bfe57612bfe338534036130d9565b505096509650969350505050565b60608142811015612c52576040805162461bcd60e51b815260206004820152601760248201526000805160206144c6833981519152604482015290519081900360640190fd5b7f00000000000000000000000000000000000000000000000000000000000000006001600160a01b031686866000818110612c8957fe5b905060200201356001600160a01b03166001600160a01b031614612ce2576040805162461bcd60e51b815260206004820152601c60248201526000805160206144a6833981519152604482015290519081900360640190fd5b612d407f0000000000000000000000000000000000000000000000000000000000000000888888808060200260200160405190810160405280939291908181526020018383602002808284376000920191909152506137ab92505050565b91503482600081518110612d5057fe5b60200260200101511115612d955760405162461bcd60e51b81526004018080602001828103825260268152602001806146836026913960400191505060405180910390fd5b7f00000000000000000000000000000000000000000000000000000000000000006001600160a01b031663d0e30db083600081518110612dd157fe5b60200260200101516040518263ffffffff1660e01b81526004016000604051808303818588803b158015612e0457600080fd5b505af1158015612e18573d6000803e3d6000fd5b50505050507f00000000000000000000000000000000000000000000000000000000000000006001600160a01b031663a9059cbb612e7d7f0000000000000000000000000000000000000000000000000000000000000000898960008181106116ba57fe5b84600081518110612e8a57fe5b60200260200101516040518363ffffffff1660e01b815260040180836001600160a01b0316815260200182815260200192505050602060405180830381600087803b158015612ed857600080fd5b505af1158015612eec573d6000803e3d6000fd5b505050506040513d6020811015612f0257600080fd5b5051612f0a57fe5b612f498287878080602002602001604051908101604052809392919081815260200183836020028082843760009201919091525089925061356e915050565b81600081518110612f5657fe5b6020026020010151341115611e6a57611e6a3383600081518110612f7657fe5b602002602001015134036130d9565b604080516001600160a01b038481166024830152604480830185905283518084039091018152606490920183526020820180516001600160e01b031663a9059cbb60e01b178152925182516000946060949389169392918291908083835b602083106130025780518252601f199092019160209182019101612fe3565b6001836020036101000a0380198251168184511680821785525050505050509050019150506000604051808303816000865af19150503d8060008114613064576040519150601f19603f3d011682016040523d82523d6000602084013e613069565b606091505b5091509150818015613097575080511580613097575080806020019051602081101561309457600080fd5b50515b6130d25760405162461bcd60e51b815260040180806020018281038252602d8152602001806146a9602d913960400191505060405180910390fd5b5050505050565b604080516000808252602082019092526001600160a01b0384169083906040518082805190602001908083835b602083106131255780518252601f199092019160209182019101613106565b6001836020036101000a03801982511681845116808217855250505050505090500191505060006040518083038185875af1925050503d8060008114613187576040519150601f19603f3d011682016040523d82523d6000602084013e61318c565b606091505b50509050806131cc5760405162461bcd60e51b81526004018080602001828103825260348152602001806145656034913960400191505060405180910390fd5b505050565b606060028251101561322a576040805162461bcd60e51b815260206004820152601d60248201527f45766d6f537761704c6962726172793a20494e56414c49445f50415448000000604482015290519081900360640190fd5b815167ffffffffffffffff8111801561324257600080fd5b5060405190808252806020026020018201604052801561326c578160200160208202803683370190505b509050828160008151811061327d57fe5b60200260200101818152505060005b6001835103811015613349576000806132cf878685815181106132ab57fe5b60200260200101518786600101815181106132c257fe5b60200260200101516142a1565b915091506133258484815181106132e257fe5b602002602001015183836133208b8a89815181106132fc57fe5b60200260200101518b8a6001018151811061331357fe5b6020026020010151614374565b61390a565b84846001018151811061333457fe5b6020908102919091010152505060010161328c565b509392505050565b60008060006133608585613f32565b604080516bffffffffffffffffffffffff19606094851b811660208084019190915293851b81166034830152825160288184030181526048830184528051908501206001600160f81b031960688401529a90941b9093166069840152607d8301989098527f1a74734eea11bc0ee7528f77a3306d46a0e9015d2eca65dd5651259a4b2eefe1609d808401919091528851808403909101815260bd909201909752805196019590952095945050505050565b604080516001600160a01b0385811660248301528481166044830152606480830185905283518084039091018152608490920183526020820180516001600160e01b03166323b872dd60e01b17815292518251600094606094938a169392918291908083835b602083106134965780518252601f199092019160209182019101613477565b6001836020036101000a0380198251168184511680821785525050505050509050019150506000604051808303816000865af19150503d80600081146134f8576040519150601f19603f3d011682016040523d82523d6000602084013e6134fd565b606091505b509150915081801561352b57508051158061352b575080806020019051602081101561352857600080fd5b50515b6135665760405162461bcd60e51b81526004018080602001828103825260318152602001806145346031913960400191505060405180910390fd5b505050505050565b60005b60018351038110156137a55760008084838151811061358c57fe5b60200260200101518584600101815181106135a357fe5b60200260200101519150915060006135bb8383613f32565b50905060008785600101815181106135cf57fe5b60200260200101519050600080836001600160a01b0316866001600160a01b0316146135fd57826000613601565b6000835b91509150600060028a510388106136185788613659565b6136597f0000000000000000000000000000000000000000000000000000000000000000878c8b6002018151811061364c57fe5b6020026020010151613351565b90506136867f00000000000000000000000000000000000000000000000000000000000000008888613351565b6001600160a01b031663022c0d9f84848460006040519080825280601f01601f1916602001820160405280156136c3576020820181803683370190505b506040518563ffffffff1660e01b815260040180858152602001848152602001836001600160a01b0316815260200180602001828103825283818151815260200191508051906020019080838360005b8381101561372b578181015183820152602001613713565b50505050905090810190601f1680156137585780820380516001836020036101000a031916815260200191505b5095505050505050600060405180830381600087803b15801561377a57600080fd5b505af115801561378e573d6000803e3d6000fd5b505060019099019850613571975050505050505050565b50505050565b6060600282511015613804576040805162461bcd60e51b815260206004820152601d60248201527f45766d6f537761704c6962726172793a20494e56414c49445f50415448000000604482015290519081900360640190fd5b815167ffffffffffffffff8111801561381c57600080fd5b50604051908082528060200260200182016040528015613846578160200160208202803683370190505b509050828160018351038151811061385a57fe5b60209081029190910101528151600019015b80156133495760008061389c8786600186038151811061388857fe5b60200260200101518786815181106132c257fe5b915091506138e58484815181106138af57fe5b602002602001015183836138e08b8a60018a03815181106138cc57fe5b60200260200101518b8a8151811061331357fe5b6139ed565b8460018503815181106138f457fe5b602090810291909101015250506000190161386c565b600080851161394a5760405162461bcd60e51b815260040180806020018281038252602a81526020018061450a602a913960400191505060405180910390fd5b60008411801561395a5750600083115b6139955760405162461bcd60e51b81526004018080602001828103825260278152602001806145c46027913960400191505060405180910390fd5b60006139ad6139a661271085613e3c565b87906143f3565b905060006139bb82866143f3565b905060006139d5836139cf896127106143f3565b90614456565b90508082816139e057fe5b0498975050505050505050565b6000808511613a2d5760405162461bcd60e51b815260040180806020018281038252602b815260200180614599602b913960400191505060405180910390fd5b600084118015613a3d5750600083115b613a785760405162461bcd60e51b81526004018080602001828103825260278152602001806145c46027913960400191505060405180910390fd5b6000613a90612710613a8a87896143f3565b906143f3565b90506000613aad613aa361271086613e3c565b613a8a878a613e3c565b9050613ac46001828481613abd57fe5b0490614456565b979650505050505050565b60005b60018351038110156131cc57600080848381518110613aed57fe5b6020026020010151858460010181518110613b0457fe5b6020026020010151915091506000613b1c8383613f32565b5090506000613b4c7f00000000000000000000000000000000000000000000000000000000000000008585613351565b9050600080600080846001600160a01b0316630902f1ac6040518163ffffffff1660e01b815260040160606040518083038186803b158015613b8d57600080fd5b505afa158015613ba1573d6000803e3d6000fd5b505050506040513d6060811015613bb757600080fd5b5080516020909101516001600160701b0391821693501690506000806001600160a01b038a811690891614613bed578284613bf0565b83835b91509150613c45828b6001600160a01b03166370a082318a6040518263ffffffff1660e01b815260040180826001600160a01b0316815260200191505060206040518083038186803b15801561182857600080fd5b9550613cbd8683838a6001600160a01b031663218cf69a6040518163ffffffff1660e01b815260040160206040518083038186803b158015613c8657600080fd5b505afa158015613c9a573d6000803e3d6000fd5b505050506040513d6020811015613cb057600080fd5b505163ffffffff1661390a565b945050505050600080856001600160a01b0316886001600160a01b031614613ce757826000613ceb565b6000835b91509150600060028c51038a10613d02578a613d36565b613d367f0000000000000000000000000000000000000000000000000000000000000000898e8d6002018151811061364c57fe5b604080516000808252602082019283905263022c0d9f60e01b835260248201878152604483018790526001600160a01b038086166064850152608060848501908152845160a48601819052969750908c169563022c0d9f958a958a958a9591949193919260c486019290918190849084905b83811015613dc0578181015183820152602001613da8565b50505050905090810190601f168015613ded5780820380516001836020036101000a031916815260200191505b5095505050505050600060405180830381600087803b158015613e0f57600080fd5b505af1158015613e23573d6000803e3d6000fd5b50506001909b019a50613ad29950505050505050505050565b8082038281111561111a576040805162461bcd60e51b815260206004820152601560248201527464732d6d6174682d7375622d756e646572666c6f7760581b604482015290519081900360640190fd5b6000808411613ecc5760405162461bcd60e51b815260040180806020018281038252602481526020018061463a6024913960400191505060405180910390fd5b600083118015613edc5750600082115b613f175760405162461bcd60e51b81526004018080602001828103825260278152602001806145c46027913960400191505060405180910390fd5b82613f2285846143f3565b81613f2957fe5b04949350505050565b600080826001600160a01b0316846001600160a01b03161415613f865760405162461bcd60e51b81526004018080602001828103825260248152602001806144e66024913960400191505060405180910390fd5b826001600160a01b0316846001600160a01b031610613fa6578284613fa9565b83835b90925090506001600160a01b038216614009576040805162461bcd60e51b815260206004820152601d60248201527f45766d6f537761704c6962726172793a205a45524f5f41444452455353000000604482015290519081900360640190fd5b9250929050565b60008060006001600160a01b03167f00000000000000000000000000000000000000000000000000000000000000006001600160a01b031663e6a439058a8a6040518363ffffffff1660e01b815260040180836001600160a01b03168152602001826001600160a01b031681526020019250505060206040518083038186803b15801561409c57600080fd5b505afa1580156140b0573d6000803e3d6000fd5b505050506040513d60208110156140c657600080fd5b50516001600160a01b03161415614184577f00000000000000000000000000000000000000000000000000000000000000006001600160a01b031663c9c6539689896040518363ffffffff1660e01b815260040180836001600160a01b03168152602001826001600160a01b0316815260200192505050602060405180830381600087803b15801561415757600080fd5b505af115801561416b573d6000803e3d6000fd5b505050506040513d602081101561418157600080fd5b50505b6000806141b27f00000000000000000000000000000000000000000000000000000000000000008b8b6142a1565b915091508160001480156141c4575080155b156141d457879350869250614294565b60006141e1898484613e8c565b905087811161423457858110156142295760405162461bcd60e51b815260040180806020018281038252602581526020018061465e6025913960400191505060405180910390fd5b889450925082614292565b6000614241898486613e8c565b90508981111561424d57fe5b8781101561428c5760405162461bcd60e51b81526004018080602001828103825260258152602001806146156025913960400191505060405180910390fd5b94508793505b505b5050965096945050505050565b60008060006142b08585613f32565b5090506142be868686613351565b506000806142cd888888613351565b6001600160a01b0316630902f1ac6040518163ffffffff1660e01b815260040160606040518083038186803b15801561430557600080fd5b505afa158015614319573d6000803e3d6000fd5b505050506040513d606081101561432f57600080fd5b5080516020909101516001600160701b0391821693501690506001600160a01b0387811690841614614362578082614365565b81815b90999098509650505050505050565b6000614381848484613351565b6001600160a01b031663218cf69a6040518163ffffffff1660e01b815260040160206040518083038186803b1580156143b957600080fd5b505afa1580156143cd573d6000803e3d6000fd5b505050506040513d60208110156143e357600080fd5b505163ffffffff16949350505050565b600081158061440e5750508082028282828161440b57fe5b04145b61111a576040805162461bcd60e51b815260206004820152601460248201527364732d6d6174682d6d756c2d6f766572666c6f7760601b604482015290519081900360640190fd5b8082018281101561111a576040805162461bcd60e51b815260206004820152601460248201527364732d6d6174682d6164642d6f766572666c6f7760601b604482015290519081900360640190fdfe45766d6f53776170526f757465723a20494e56414c49445f504154480000000045766d6f53776170526f757465723a204558504952454400000000000000000045766d6f537761704c6962726172793a204944454e544943414c5f41444452455353455345766d6f537761704c6962726172793a20494e53554646494349454e545f494e5055545f414d4f554e545472616e7366657248656c7065723a3a7472616e7366657246726f6d3a207472616e7366657246726f6d206661696c65645472616e7366657248656c7065723a3a736166655472616e736665724554483a20455448207472616e73666572206661696c656445766d6f537761704c6962726172793a20494e53554646494349454e545f4f55545055545f414d4f554e5445766d6f537761704c6962726172793a20494e53554646494349454e545f4c495155494449545945766d6f53776170526f757465723a20494e53554646494349454e545f4f55545055545f414d4f554e5445766d6f53776170526f757465723a20494e53554646494349454e545f415f414d4f554e5445766d6f537761704c6962726172793a20494e53554646494349454e545f414d4f554e5445766d6f53776170526f757465723a20494e53554646494349454e545f425f414d4f554e5445766d6f53776170526f757465723a204558434553534956455f494e5055545f414d4f554e545472616e7366657248656c7065723a3a736166655472616e736665723a207472616e73666572206661696c6564a26469706673582212206f1b7097380c71eac4739a3378d2c0bf214134d4eb7468a0f86b7b9650bb20bb64736f6c634300060c0033",
  "devdoc": {
    "kind": "dev",
    "methods": {},
    "version": 1
  },
  "userdoc": {
    "kind": "user",
    "methods": {},
    "version": 1
  },
  "storageLayout": {
    "storage": [],
    "types": null
  }
}