{
  "address": "0x4F5631Cb03Ed66096346f273A9a2014A5A882162",
  "abi": [
    {
      "inputs": [
        {
          "internalType": "address",
          "name": "_votingEscrow",
          "type": "address"
        },
        {
          "internalType": "uint256",
          "name": "_startTime",
          "type": "uint256"
        },
        {
          "internalType": "address",
          "name": "_token",
          "type": "address"
        },
        {
          "internalType": "address",
          "name": "_emergencyReturn",
          "type": "address"
        }
      ],
      "stateMutability": "nonpayable",
      "type": "constructor"
    },
    {
      "anonymous": false,
      "inputs": [
        {
          "indexed": false,
          "internalType": "uint256",
          "name": "time",
          "type": "uint256"
        },
        {
          "indexed": false,
          "internalType": "uint256",
          "name": "tokens",
          "type": "uint256"
        }
      ],
      "name": "CheckpointToken",
      "type": "event"
    },
    {
      "anonymous": false,
      "inputs": [
        {
          "indexed": true,
          "internalType": "address",
          "name": "recipient",
          "type": "address"
        },
        {
          "indexed": false,
          "internalType": "uint256",
          "name": "amount",
          "type": "uint256"
        },
        {
          "indexed": false,
          "internalType": "uint256",
          "name": "claimEpoch",
          "type": "uint256"
        },
        {
          "indexed": false,
          "internalType": "uint256",
          "name": "maxEpoch",
          "type": "uint256"
        }
      ],
      "name": "Claimed",
      "type": "event"
    },
    {
      "anonymous": false,
      "inputs": [
        {
          "indexed": true,
          "internalType": "address",
          "name": "previousOwner",
          "type": "address"
        },
        {
          "indexed": true,
          "internalType": "address",
          "name": "newOwner",
          "type": "address"
        }
      ],
      "name": "OwnershipTransferred",
      "type": "event"
    },
    {
      "anonymous": false,
      "inputs": [
        {
          "indexed": false,
          "internalType": "bool",
          "name": "toggleFlag",
          "type": "bool"
        }
      ],
      "name": "ToggleAllowCheckpointToken",
      "type": "event"
    },
    {
      "inputs": [],
      "name": "TOKEN_CHECKPOINT_DEADLINE",
      "outputs": [
        {
          "internalType": "uint256",
          "name": "",
          "type": "uint256"
        }
      ],
      "stateMutability": "view",
      "type": "function"
    },
    {
      "inputs": [],
      "name": "WEEK",
      "outputs": [
        {
          "internalType": "uint256",
          "name": "",
          "type": "uint256"
        }
      ],
      "stateMutability": "view",
      "type": "function"
    },
    {
      "inputs": [],
      "name": "canCheckpointToken",
      "outputs": [
        {
          "internalType": "bool",
          "name": "",
          "type": "bool"
        }
      ],
      "stateMutability": "view",
      "type": "function"
    },
    {
      "inputs": [],
      "name": "checkpointToken",
      "outputs": [],
      "stateMutability": "nonpayable",
      "type": "function"
    },
    {
      "inputs": [],
      "name": "checkpointTotalSupply",
      "outputs": [],
      "stateMutability": "nonpayable",
      "type": "function"
    },
    {
      "inputs": [
        {
          "internalType": "address",
          "name": "_addr",
          "type": "address"
        }
      ],
      "name": "claim",
      "outputs": [
        {
          "internalType": "uint256",
          "name": "",
          "type": "uint256"
        }
      ],
      "stateMutability": "nonpayable",
      "type": "function"
    },
    {
      "inputs": [],
      "name": "claim",
      "outputs": [
        {
          "internalType": "uint256",
          "name": "",
          "type": "uint256"
        }
      ],
      "stateMutability": "nonpayable",
      "type": "function"
    },
    {
      "inputs": [
        {
          "internalType": "address[]",
          "name": "_receivers",
          "type": "address[]"
        }
      ],
      "name": "claimMany",
      "outputs": [
        {
          "internalType": "bool",
          "name": "",
          "type": "bool"
        }
      ],
      "stateMutability": "nonpayable",
      "type": "function"
    },
    {
      "inputs": [
        {
          "internalType": "address",
          "name": "_coin",
          "type": "address"
        }
      ],
      "name": "distribute",
      "outputs": [
        {
          "internalType": "bool",
          "name": "",
          "type": "bool"
        }
      ],
      "stateMutability": "nonpayable",
      "type": "function"
    },
    {
      "inputs": [],
      "name": "emergencyReturn",
      "outputs": [
        {
          "internalType": "address",
          "name": "",
          "type": "address"
        }
      ],
      "stateMutability": "view",
      "type": "function"
    },
    {
      "inputs": [],
      "name": "isKilled",
      "outputs": [
        {
          "internalType": "bool",
          "name": "",
          "type": "bool"
        }
      ],
      "stateMutability": "view",
      "type": "function"
    },
    {
      "inputs": [],
      "name": "killMe",
      "outputs": [],
      "stateMutability": "nonpayable",
      "type": "function"
    },
    {
      "inputs": [],
      "name": "lastTokenTime",
      "outputs": [
        {
          "internalType": "uint256",
          "name": "",
          "type": "uint256"
        }
      ],
      "stateMutability": "view",
      "type": "function"
    },
    {
      "inputs": [],
      "name": "owner",
      "outputs": [
        {
          "internalType": "address",
          "name": "",
          "type": "address"
        }
      ],
      "stateMutability": "view",
      "type": "function"
    },
    {
      "inputs": [
        {
          "internalType": "address",
          "name": "_coin",
          "type": "address"
        }
      ],
      "name": "recoverBalance",
      "outputs": [
        {
          "internalType": "bool",
          "name": "",
          "type": "bool"
        }
      ],
      "stateMutability": "nonpayable",
      "type": "function"
    },
    {
      "inputs": [],
      "name": "renounceOwnership",
      "outputs": [],
      "stateMutability": "nonpayable",
      "type": "function"
    },
    {
      "inputs": [],
      "name": "startTime",
      "outputs": [
        {
          "internalType": "uint256",
          "name": "",
          "type": "uint256"
        }
      ],
      "stateMutability": "view",
      "type": "function"
    },
    {
      "inputs": [],
      "name": "timeCursor",
      "outputs": [
        {
          "internalType": "uint256",
          "name": "",
          "type": "uint256"
        }
      ],
      "stateMutability": "view",
      "type": "function"
    },
    {
      "inputs": [
        {
          "internalType": "address",
          "name": "",
          "type": "address"
        }
      ],
      "name": "timeCursorOf",
      "outputs": [
        {
          "internalType": "uint256",
          "name": "",
          "type": "uint256"
        }
      ],
      "stateMutability": "view",
      "type": "function"
    },
    {
      "inputs": [],
      "name": "toggleAllowCheckpointToken",
      "outputs": [],
      "stateMutability": "nonpayable",
      "type": "function"
    },
    {
      "inputs": [],
      "name": "token",
      "outputs": [
        {
          "internalType": "address",
          "name": "",
          "type": "address"
        }
      ],
      "stateMutability": "view",
      "type": "function"
    },
    {
      "inputs": [],
      "name": "tokenLastBalance",
      "outputs": [
        {
          "internalType": "uint256",
          "name": "",
          "type": "uint256"
        }
      ],
      "stateMutability": "view",
      "type": "function"
    },
    {
      "inputs": [
        {
          "internalType": "uint256",
          "name": "",
          "type": "uint256"
        }
      ],
      "name": "tokensPerWeek",
      "outputs": [
        {
          "internalType": "uint256",
          "name": "",
          "type": "uint256"
        }
      ],
      "stateMutability": "view",
      "type": "function"
    },
    {
      "inputs": [
        {
          "internalType": "address",
          "name": "newOwner",
          "type": "address"
        }
      ],
      "name": "transferOwnership",
      "outputs": [],
      "stateMutability": "nonpayable",
      "type": "function"
    },
    {
      "inputs": [
        {
          "internalType": "address",
          "name": "",
          "type": "address"
        }
      ],
      "name": "userEpochOf",
      "outputs": [
        {
          "internalType": "uint256",
          "name": "",
          "type": "uint256"
        }
      ],
      "stateMutability": "view",
      "type": "function"
    },
    {
      "inputs": [
        {
          "internalType": "address",
          "name": "_user",
          "type": "address"
        },
        {
          "internalType": "uint256",
          "name": "_timestamp",
          "type": "uint256"
        }
      ],
      "name": "veForAt",
      "outputs": [
        {
          "internalType": "uint256",
          "name": "",
          "type": "uint256"
        }
      ],
      "stateMutability": "view",
      "type": "function"
    },
    {
      "inputs": [
        {
          "internalType": "uint256",
          "name": "",
          "type": "uint256"
        }
      ],
      "name": "veSupply",
      "outputs": [
        {
          "internalType": "uint256",
          "name": "",
          "type": "uint256"
        }
      ],
      "stateMutability": "view",
      "type": "function"
    },
    {
      "inputs": [],
      "name": "votingEscrow",
      "outputs": [
        {
          "internalType": "address",
          "name": "",
          "type": "address"
        }
      ],
      "stateMutability": "view",
      "type": "function"
    }
  ],
  "transactionHash": "0xf2498cee672e527b865b22d93682b160e34b7b34864c50f88ead27c487ae8b77",
  "args": [
    "0xf1EB231b036c17E7E04e8FECF67561e0e5f927c4",
    1651536000,
    "0x181C262b973B22C307C646a67f64B76410D19b6B",
    "0x7d5d7Df17739d531dBb2d795df6D3408E3bE1278"
  ],
  "solcInputHash": "b0191412d6db60d2913615e97999bbd0",
  "bytecode": "0x60806040523480156200001157600080fd5b50604051620024493803806200244983398101604081905262000034916200012d565b6000620000406200010b565b600080546001600160a01b0319166001600160a01b0383169081178255604051929350917f8be0079c531659141344cd1fd0a4f28419497f9722a3daafe3b4186f6b6457e0908290a3506001805562093a80928390049092026002819055600681905560035566038d7ea4c6800880546001600160a01b039283166001600160a01b03199182161790915566038d7ea4c680078054948316949091169390931790925566071afd498d000a80549190921661010002610100600160a81b031990911617905562000183565b3390565b80516001600160a01b03811681146200012757600080fd5b92915050565b6000806000806080858703121562000143578384fd5b6200014f86866200010f565b9350602085015192506200016786604087016200010f565b91506200017886606087016200010f565b905092959194509250565b6122b680620001936000396000f3fe608060405234801561001057600080fd5b50600436106101c45760003560e01c80638736659b116100f9578063b603cd8011610097578063f2fde38b11610071578063f2fde38b14610313578063f364824114610326578063f4359ce514610339578063fc0c546a14610341576101c4565b8063b603cd80146102f0578063bee5dc32146102f8578063c7f1ec5014610300576101c4565b80638ec8468a116100d35780638ec8468a146102d05780638fe8a101146102d8578063939ea66b146102e0578063a5420e98146102e8576101c4565b80638736659b146102ad578063899519be146102b55780638da5cb5b146102c8576101c4565b806363453ae111610166578063786479cd11610140578063786479cd1461027757806378e979251461028a5780637e686e01146102925780638721b785146102a5576101c4565b806363453ae11461024957806368662ea01461025c578063715018a61461026f576101c4565b8063326a9407116101a2578063326a94071461021a5780634e71d92d146102245780634f2bfe5b1461022c5780635a4b8c1d14610241576101c4565b80630cc672e4146101c95780630f6592ef146101e75780631e83409a14610207575b600080fd5b6101d1610349565b6040516101de9190611eab565b60405180910390f35b6101fa6101f5366004611e0e565b610358565b6040516101de91906121dc565b6101fa610215366004611cb5565b610378565b610222610495565b005b6101fa61049f565b6102346104af565b6040516101de9190611e5a565b6102346104c4565b6101d1610257366004611cb5565b6104de565b6101d161026a366004611cb5565b610682565b6102226107a3565b6101fa610285366004611cb5565b61082c565b6101fa61083e565b6101d16102a0366004611cfa565b610844565b610222610a4a565b6101fa610ade565b6101fa6102c3366004611e0e565b610ae4565b610234610af7565b6101fa610b06565b6101d1610b12565b6101fa610b28565b6101fa610b2e565b610222610b35565b610222610cb0565b6101fa61030e366004611cb5565b610d14565b610222610321366004611cb5565b610d26565b6101fa610334366004611cd0565b610de6565b6101fa610f38565b610234610f3f565b66071afd498d000a5460ff1681565b66038d7ea4c6800a8166038d7ea4c68000811061037157fe5b0154905081565b6000600260015414156103a65760405162461bcd60e51b815260040161039d906121a5565b60405180910390fd5b600260015566071afd498d000a54600160a81b900460ff16156103db5760405162461bcd60e51b815260040161039d90612064565b60035442106103ec576103ec610f54565b60065466071afd498d000a5460ff16801561040b575062015180810142115b1561041b576104186110e0565b50425b66038d7ea4c680075462093a8091829004909102906000906104489085906001600160a01b031684611327565b9050801561048a5766038d7ea4c680085461046d906001600160a01b03168583611744565b66038d7ea4c6800954610480908261179f565b66038d7ea4c68009555b600180559392505050565b61049d610f54565b565b60006104aa33610378565b905090565b66038d7ea4c68007546001600160a01b031681565b66071afd498d000a5461010090046001600160a01b031681565b66038d7ea4c68008546000906001600160a01b038381169116146105145760405162461bcd60e51b815260040161039d90611ee9565b66071afd498d000a54600160a81b900460ff16156105445760405162461bcd60e51b815260040161039d90612064565b6040516370a0823160e01b81526000906001600160a01b038416906370a0823190610573903390600401611e5a565b60206040518083038186803b15801561058b57600080fd5b505afa15801561059f573d6000803e3d6000fd5b505050506040513d601f19601f820116820180604052508101906105c39190611e26565b90508015610679576040516323b872dd60e01b81526001600160a01b038416906323b872dd906105fb90339030908690600401611e6e565b602060405180830381600087803b15801561061557600080fd5b505af1158015610629573d6000803e3d6000fd5b505050506040513d601f19601f8201168201806040525081019061064d9190611d97565b5066071afd498d000a5460ff16801561066c5750620151806006540142115b15610679576106796110e0565b50600192915050565b600061068c6117c7565b6001600160a01b031661069d610af7565b6001600160a01b0316146106c35760405162461bcd60e51b815260040161039d906120ef565b66038d7ea4c68008546001600160a01b03838116911614156106f75760405162461bcd60e51b815260040161039d90611ee9565b66071afd498d000a546040516370a0823160e01b815261079b916001600160a01b03610100909104811691908516906370a082319061073a903090600401611e5a565b60206040518083038186803b15801561075257600080fd5b505afa158015610766573d6000803e3d6000fd5b505050506040513d601f19601f8201168201806040525081019061078a9190611e26565b6001600160a01b0385169190611744565b506001919050565b6107ab6117c7565b6001600160a01b03166107bc610af7565b6001600160a01b0316146107e25760405162461bcd60e51b815260040161039d906120ef565b600080546040516001600160a01b03909116907f8be0079c531659141344cd1fd0a4f28419497f9722a3daafe3b4186f6b6457e0908390a3600080546001600160a01b0319169055565b60056020526000908152604090205481565b60025481565b6000600260015414156108695760405162461bcd60e51b815260040161039d906121a5565b600260015566071afd498d000a54600160a81b900460ff161561089e5760405162461bcd60e51b815260040161039d90612064565b60035442106108af576108af610f54565b60065466071afd498d000a5460ff1680156108ce575062015180810142115b156108de576108db6110e0565b50425b66038d7ea4c680075466038d7ea4c680085462093a8092839004909202916001600160a01b0391821691166000805b8651811015610a1757600087828151811061092457fe5b6020026020010151905060006001600160a01b0316816001600160a01b0316141561094f5750610a17565b600061095c828789611327565b90508015610a0d5760405163a9059cbb60e01b81526001600160a01b0386169063a9059cbb906109929085908590600401611e92565b602060405180830381600087803b1580156109ac57600080fd5b505af11580156109c0573d6000803e3d6000fd5b505050506040513d601f19601f820116820180604052508101906109e49190611d97565b610a005760405162461bcd60e51b815260040161039d90612084565b610a0a84826117cb565b93505b505060010161090d565b508015610a3b5766038d7ea4c6800954610a31908261179f565b66038d7ea4c68009555b50506001808055949350505050565b610a526117c7565b6001600160a01b0316610a63610af7565b6001600160a01b031614610a895760405162461bcd60e51b815260040161039d906120ef565b66071afd498d000a805460ff81161560ff1990911681179091556040517fdbe6ac1081ebd8e648718341126659456f4009fcadfe1c23f66f5e61522610b290610ad3908390611eab565b60405180910390a150565b60035481565b60078166038d7ea4c68000811061037157fe5b6000546001600160a01b031690565b66038d7ea4c680095481565b66071afd498d000a54600160a81b900460ff1681565b60065481565b6201518081565b610b3d6117c7565b6001600160a01b0316610b4e610af7565b6001600160a01b031614610b745760405162461bcd60e51b815260040161039d906120ef565b66071afd498d000a805460ff60a81b1916600160a81b179081905566038d7ea4c68008546040516370a0823160e01b81526001600160a01b039182169263a9059cbb92610100909104169083906370a0823190610bd5903090600401611e5a565b60206040518083038186803b158015610bed57600080fd5b505afa158015610c01573d6000803e3d6000fd5b505050506040513d601f19601f82011682018060405250810190610c259190611e26565b6040518363ffffffff1660e01b8152600401610c42929190611e92565b602060405180830381600087803b158015610c5c57600080fd5b505af1158015610c70573d6000803e3d6000fd5b505050506040513d601f19601f82011682018060405250810190610c949190611d97565b61049d5760405162461bcd60e51b815260040161039d90612084565b610cb8610af7565b6001600160a01b0316336001600160a01b03161480610cf0575066071afd498d000a5460ff168015610cf05750620151806006540142115b610d0c5760405162461bcd60e51b815260040161039d9061203f565b61049d6110e0565b60046020526000908152604090205481565b610d2e6117c7565b6001600160a01b0316610d3f610af7565b6001600160a01b031614610d655760405162461bcd60e51b815260040161039d906120ef565b6001600160a01b038116610d8b5760405162461bcd60e51b815260040161039d90611f0e565b600080546040516001600160a01b03808516939216917f8be0079c531659141344cd1fd0a4f28419497f9722a3daafe3b4186f6b6457e091a3600080546001600160a01b0319166001600160a01b0392909216919091179055565b66038d7ea4c68007546040516381fc83bb60e01b81526000916001600160a01b031690829082906381fc83bb90610e21908890600401611e5a565b60206040518083038186803b158015610e3957600080fd5b505afa158015610e4d573d6000803e3d6000fd5b505050506040513d601f19601f82011682018060405250810190610e719190611e26565b90506000610e81838787856117f0565b9050610e8b611c5e565b604051630d36406960e21b81526001600160a01b038516906334d901a490610eb9908a908690600401611e92565b60806040518083038186803b158015610ed157600080fd5b505afa158015610ee5573d6000803e3d6000fd5b505050506040513d601f19601f82011682018060405250810190610f099190611db7565b9050610f288160400151870382602001510282600001510360006118cb565b600f0b9450505050505b92915050565b62093a8081565b66038d7ea4c68008546001600160a01b031681565b66038d7ea4c68007546003546001600160a01b0390911690600062093a80804204029050826001600160a01b031663c2c4c5c16040518163ffffffff1660e01b8152600401600060405180830381600087803b158015610fb357600080fd5b505af1158015610fc7573d6000803e3d6000fd5b5050505060005b60148110156110d85781831115610fe4576110d8565b6000610ff085856118e6565b9050610ffa611c5e565b604051638ad4c44760e01b81526001600160a01b03871690638ad4c447906110269085906004016121dc565b60806040518083038186803b15801561103e57600080fd5b505afa158015611052573d6000803e3d6000fd5b505050506040513d601f19601f820116820180604052508101906110769190611db7565b90506000816040015186111561108f5750604081015185035b6110a68183602001510283600001510360006118cb565b600f0b66038d7ea4c6800a8766038d7ea4c6800081106110c257fe5b015550505062093a809290920191600101610fce565b505060035550565b66038d7ea4c68008546040516370a0823160e01b81526000916001600160a01b0316906370a0823190611117903090600401611e5a565b60206040518083038186803b15801561112f57600080fd5b505afa158015611143573d6000803e3d6000fd5b505050506040513d601f19601f820116820180604052508101906111679190611e26565b9050600061118666038d7ea4c68009548361179f90919063ffffffff16565b66038d7ea4c6800983905560065490915060006111a3428361179f565b42600655905062093a80808304026000805b60148110156112e55762093a80830191508142101561126857831580156111db57508442145b15611219576111ff8660078566038d7ea4c6800081106111f757fe5b0154906117cb565b60078466038d7ea4c68000811061121257fe5b0155611263565b61124d61123a8561123461122d428a61179f565b8a90611a36565b90611a70565b60078566038d7ea4c6800081106111f757fe5b60078466038d7ea4c68000811061126057fe5b01555b6112e5565b8315801561127557508482145b156112ab576112918660078566038d7ea4c6800081106111f757fe5b60078466038d7ea4c6800081106112a457fe5b01556112d5565b6112bf61123a8561123461122d868a61179f565b60078466038d7ea4c6800081106112d257fe5b01555b90935083915081906001016111b5565b507fce749457b74e10f393f2c6b1ce4261b78791376db5a3f501477a809f03f500d642866040516113179291906121e5565b60405180910390a1505050505050565b6040516381fc83bb60e01b81526000908190819081906001600160a01b038716906381fc83bb9061135c908a90600401611e5a565b60206040518083038186803b15801561137457600080fd5b505afa158015611388573d6000803e3d6000fd5b505050506040513d601f19601f820116820180604052508101906113ac9190611e26565b600254909150816113c457600094505050505061173d565b6001600160a01b038816600090815260046020526040902054806113f5576113ee888a84866117f0565b9450611411565b6001600160a01b03891660009081526005602052604090205494505b8461141b57600194505b611423611c5e565b604051630d36406960e21b81526001600160a01b038a16906334d901a490611451908d908a90600401611e92565b60806040518083038186803b15801561146957600080fd5b505afa15801561147d573d6000803e3d6000fd5b505050506040513d601f19601f820116820180604052508101906114a19190611db7565b9050816114be57604081015162093a8090819062093a7f01040291505b8782106114d4576000965050505050505061173d565b828210156114e0578291505b6114e8611c5e565b60005b60328110156116bd57898410611500576116bd565b826040015184101580156115145750858811155b156116185760018801975060405180608001604052808460000151600f0b81526020018460200151600f0b81526020018460400151815260200184606001518152509150858811156115925760405180608001604052806000600f0b81526020016000600f0b81526020016000815260200160008152509250611613565b604051630d36406960e21b81526001600160a01b038c16906334d901a4906115c0908f908c90600401611e92565b60806040518083038186803b1580156115d857600080fd5b505afa1580156115ec573d6000803e3d6000fd5b505050506040513d601f19601f820116820180604052508101906116109190611db7565b92505b6116b5565b6000826040015185039050600061163c8460200151830285600001510360006118cb565b600f0b90508015801561164e5750878a115b1561165a5750506116bd565b80156116aa576116a76116a066038d7ea4c6800a8866038d7ea4c68000811061167f57fe5b015461123460078a66038d7ea4c68000811061169757fe5b01548590611a36565b8a906117cb565b98505b62093a808601955050505b6001016114eb565b506116cb8560018903611aa2565b6001600160a01b038c16600081815260056020908152604080832085905560049091529081902086905551919850907f9cdcf2f7714cca3508c7f0110b04a90a80a3a8dd0e35de99689db74d28c5383e9061172b9089908b908a906121f3565b60405180910390a25093955050505050505b9392505050565b61179a8363a9059cbb60e01b8484604051602401611763929190611e92565b60408051601f198184030181529190526020810180516001600160e01b03166001600160e01b031990931692909217909152611ab8565b505050565b6000828211156117c15760405162461bcd60e51b815260040161039d90611f8b565b50900390565b3390565b60008282018381101561173d5760405162461bcd60e51b815260040161039d90611f54565b60008082815b60808110156118bf5781831061180b576118bf565b600282840181010461181b611c5e565b604051630d36406960e21b81526001600160a01b038b16906334d901a490611849908c908690600401611e92565b60806040518083038186803b15801561186157600080fd5b505afa158015611875573d6000803e3d6000fd5b505050506040513d601f19601f820116820180604052508101906118999190611db7565b9050878160400151116118ae578194506118b5565b6001820393505b50506001016117f6565b50909695505050505050565b600081600f0b83600f0b126118e0578261173d565b50919050565b600080600090506000846001600160a01b031663900cf0cf6040518163ffffffff1660e01b815260040160206040518083038186803b15801561192857600080fd5b505afa15801561193c573d6000803e3d6000fd5b505050506040513d601f19601f820116820180604052508101906119609190611e26565b905060005b6080811015611a2c5781831061197a57611a2c565b600282840181010461198a611c5e565b604051638ad4c44760e01b81526001600160a01b03891690638ad4c447906119b69085906004016121dc565b60806040518083038186803b1580156119ce57600080fd5b505afa1580156119e2573d6000803e3d6000fd5b505050506040513d601f19601f82011682018060405250810190611a069190611db7565b905086816040015111611a1b57819450611a22565b6001820393505b5050600101611965565b5090949350505050565b600082611a4557506000610f32565b82820282848281611a5257fe5b041461173d5760405162461bcd60e51b815260040161039d906120ae565b6000808211611a915760405162461bcd60e51b815260040161039d90612008565b818381611a9a57fe5b049392505050565b6000818310611ab1578161173d565b5090919050565b6060611b0d826040518060400160405280602081526020017f5361666545524332303a206c6f772d6c6576656c2063616c6c206661696c6564815250856001600160a01b0316611b479092919063ffffffff16565b80519091501561179a5780806020019051810190611b2b9190611d97565b61179a5760405162461bcd60e51b815260040161039d9061215b565b6060611b568484600085611b5e565b949350505050565b606082471015611b805760405162461bcd60e51b815260040161039d90611fc2565b611b8985611c1f565b611ba55760405162461bcd60e51b815260040161039d90612124565b60006060866001600160a01b03168587604051611bc29190611e3e565b60006040518083038185875af1925050503d8060008114611bff576040519150601f19603f3d011682016040523d82523d6000602084013e611c04565b606091505b5091509150611c14828286611c25565b979650505050505050565b3b151590565b60608315611c3457508161173d565b825115611c445782518084602001fd5b8160405162461bcd60e51b815260040161039d9190611eb6565b60405180608001604052806000600f0b81526020016000600f0b815260200160008152602001600081525090565b80356001600160a01b0381168114610f3257600080fd5b8051600f81900b8114610f3257600080fd5b600060208284031215611cc6578081fd5b61173d8383611c8c565b60008060408385031215611ce2578081fd5b611cec8484611c8c565b946020939093013593505050565b60006020808385031215611d0c578182fd5b823567ffffffffffffffff811115611d22578283fd5b8301601f81018513611d32578283fd5b8035611d45611d4082612230565b612209565b8181528381019083850185840285018601891015611d61578687fd5b8694505b83851015611d8b57611d778982611c8c565b835260019490940193918501918501611d65565b50979650505050505050565b600060208284031215611da8578081fd5b8151801515811461173d578182fd5b600060808284031215611dc8578081fd5b611dd26080612209565b611ddc8484611ca3565b8152611deb8460208501611ca3565b602082015260408301516040820152606083015160608201528091505092915050565b600060208284031215611e1f578081fd5b5035919050565b600060208284031215611e37578081fd5b5051919050565b60008251611e50818460208701612250565b9190910192915050565b6001600160a01b0391909116815260200190565b6001600160a01b039384168152919092166020820152604081019190915260600190565b6001600160a01b03929092168252602082015260400190565b901515815260200190565b6000602082528251806020840152611ed5816040850160208701612250565b601f01601f19169190910160400192915050565b6020808252600b908201526a57726f6e6720636f696e2160a81b604082015260600190565b60208082526026908201527f4f776e61626c653a206e6577206f776e657220697320746865207a65726f206160408201526564647265737360d01b606082015260800190565b6020808252601b908201527f536166654d6174683a206164646974696f6e206f766572666c6f770000000000604082015260600190565b6020808252601e908201527f536166654d6174683a207375627472616374696f6e206f766572666c6f770000604082015260600190565b60208082526026908201527f416464726573733a20696e73756666696369656e742062616c616e636520666f6040820152651c8818d85b1b60d21b606082015260800190565b6020808252601a908201527f536166654d6174683a206469766973696f6e206279207a65726f000000000000604082015260600190565b6020808252600b908201526a57726f6e6720757365722160a81b604082015260600190565b60208082526006908201526512da5b1b195960d21b604082015260600190565b60208082526010908201526f5472616e73666572206661696c65642160801b604082015260600190565b60208082526021908201527f536166654d6174683a206d756c7469706c69636174696f6e206f766572666c6f6040820152607760f81b606082015260800190565b6020808252818101527f4f776e61626c653a2063616c6c6572206973206e6f7420746865206f776e6572604082015260600190565b6020808252601d908201527f416464726573733a2063616c6c20746f206e6f6e2d636f6e7472616374000000604082015260600190565b6020808252602a908201527f5361666545524332303a204552433230206f7065726174696f6e20646964206e6040820152691bdd081cdd58d8d9595960b21b606082015260800190565b6020808252601f908201527f5265656e7472616e637947756172643a207265656e7472616e742063616c6c00604082015260600190565b90815260200190565b918252602082015260400190565b9283526020830191909152604082015260600190565b60405181810167ffffffffffffffff8111828210171561222857600080fd5b604052919050565b600067ffffffffffffffff821115612246578081fd5b5060209081020190565b60005b8381101561226b578181015183820152602001612253565b8381111561227a576000848401525b5050505056fea264697066735822122061811f16a531b7d13b16f2e27d8c648da0ca425f356724c73c8308447d11195a64736f6c634300060c0033",
  "devdoc": {
    "kind": "dev",
    "methods": {
      "owner()": {
        "details": "Returns the address of the current owner."
      },
      "renounceOwnership()": {
        "details": "Leaves the contract without owner. It will not be possible to call `onlyOwner` functions anymore. Can only be called by the current owner. NOTE: Renouncing ownership will leave the contract without an owner, thereby removing any functionality that is only available to the owner."
      },
      "transferOwnership(address)": {
        "details": "Transfers ownership of the contract to a new account (`newOwner`). Can only be called by the current owner."
      }
    },
    "version": 1
  },
  "userdoc": {
    "kind": "user",
    "methods": {},
    "notice": "Independent of votingescrow's reward contract As a tool for distributing rewards!",
    "version": 1
  },
  "storageLayout": {
    "storage": [
      {
        "astId": 10,
        "contract": "contracts/staking/FeeDistributor.sol:FeeDistributor",
        "label": "_owner",
        "offset": 0,
        "slot": "0",
        "type": "t_address"
      },
      {
        "astId": 2305,
        "contract": "contracts/staking/FeeDistributor.sol:FeeDistributor",
        "label": "_status",
        "offset": 0,
        "slot": "1",
        "type": "t_uint256"
      },
      {
        "astId": 23155,
        "contract": "contracts/staking/FeeDistributor.sol:FeeDistributor",
        "label": "startTime",
        "offset": 0,
        "slot": "2",
        "type": "t_uint256"
      },
      {
        "astId": 23157,
        "contract": "contracts/staking/FeeDistributor.sol:FeeDistributor",
        "label": "timeCursor",
        "offset": 0,
        "slot": "3",
        "type": "t_uint256"
      },
      {
        "astId": 23161,
        "contract": "contracts/staking/FeeDistributor.sol:FeeDistributor",
        "label": "timeCursorOf",
        "offset": 0,
        "slot": "4",
        "type": "t_mapping(t_address,t_uint256)"
      },
      {
        "astId": 23165,
        "contract": "contracts/staking/FeeDistributor.sol:FeeDistributor",
        "label": "userEpochOf",
        "offset": 0,
        "slot": "5",
        "type": "t_mapping(t_address,t_uint256)"
      },
      {
        "astId": 23167,
        "contract": "contracts/staking/FeeDistributor.sol:FeeDistributor",
        "label": "lastTokenTime",
        "offset": 0,
        "slot": "6",
        "type": "t_uint256"
      },
      {
        "astId": 23171,
        "contract": "contracts/staking/FeeDistributor.sol:FeeDistributor",
        "label": "tokensPerWeek",
        "offset": 0,
        "slot": "7",
        "type": "t_array(t_uint256)1000000000000000_storage"
      },
      {
        "astId": 23173,
        "contract": "contracts/staking/FeeDistributor.sol:FeeDistributor",
        "label": "votingEscrow",
        "offset": 0,
        "slot": "1000000000000007",
        "type": "t_address"
      },
      {
        "astId": 23175,
        "contract": "contracts/staking/FeeDistributor.sol:FeeDistributor",
        "label": "token",
        "offset": 0,
        "slot": "1000000000000008",
        "type": "t_address"
      },
      {
        "astId": 23177,
        "contract": "contracts/staking/FeeDistributor.sol:FeeDistributor",
        "label": "tokenLastBalance",
        "offset": 0,
        "slot": "1000000000000009",
        "type": "t_uint256"
      },
      {
        "astId": 23181,
        "contract": "contracts/staking/FeeDistributor.sol:FeeDistributor",
        "label": "veSupply",
        "offset": 0,
        "slot": "1000000000000010",
        "type": "t_array(t_uint256)1000000000000000_storage"
      },
      {
        "astId": 23183,
        "contract": "contracts/staking/FeeDistributor.sol:FeeDistributor",
        "label": "canCheckpointToken",
        "offset": 0,
        "slot": "2000000000000010",
        "type": "t_bool"
      },
      {
        "astId": 23185,
        "contract": "contracts/staking/FeeDistributor.sol:FeeDistributor",
        "label": "emergencyReturn",
        "offset": 1,
        "slot": "2000000000000010",
        "type": "t_address"
      },
      {
        "astId": 23187,
        "contract": "contracts/staking/FeeDistributor.sol:FeeDistributor",
        "label": "isKilled",
        "offset": 21,
        "slot": "2000000000000010",
        "type": "t_bool"
      }
    ],
    "types": {
      "t_address": {
        "encoding": "inplace",
        "label": "address",
        "numberOfBytes": "20"
      },
      "t_array(t_uint256)1000000000000000_storage": {
        "base": "t_uint256",
        "encoding": "inplace",
        "label": "uint256[1000000000000000]",
        "numberOfBytes": "32000000000000000"
      },
      "t_bool": {
        "encoding": "inplace",
        "label": "bool",
        "numberOfBytes": "1"
      },
      "t_mapping(t_address,t_uint256)": {
        "encoding": "mapping",
        "key": "t_address",
        "label": "mapping(address => uint256)",
        "numberOfBytes": "32",
        "value": "t_uint256"
      },
      "t_uint256": {
        "encoding": "inplace",
        "label": "uint256",
        "numberOfBytes": "32"
      }
    }
  }
}