{
  "address": "0x45A2A1F6B9bED8D84B24462319aa630531efF371",
  "abi": [
    {
      "inputs": [],
      "stateMutability": "nonpayable",
      "type": "constructor"
    },
    {
      "anonymous": false,
      "inputs": [
        {
          "indexed": true,
          "internalType": "address",
          "name": "tokenRecovered",
          "type": "address"
        },
        {
          "indexed": false,
          "internalType": "uint256",
          "name": "amount",
          "type": "uint256"
        }
      ],
      "name": "AdminTokenRecovery",
      "type": "event"
    },
    {
      "anonymous": false,
      "inputs": [
        {
          "indexed": true,
          "internalType": "address",
          "name": "ifoAddress",
          "type": "address"
        }
      ],
      "name": "NewIFOContract",
      "type": "event"
    },
    {
      "anonymous": false,
      "inputs": [
        {
          "indexed": true,
          "internalType": "address",
          "name": "previousOwner",
          "type": "address"
        },
        {
          "indexed": true,
          "internalType": "address",
          "name": "newOwner",
          "type": "address"
        }
      ],
      "name": "OwnershipTransferred",
      "type": "event"
    },
    {
      "inputs": [],
      "name": "MAX_BUFFER_TIME_INTERVAL",
      "outputs": [
        {
          "internalType": "uint256",
          "name": "",
          "type": "uint256"
        }
      ],
      "stateMutability": "view",
      "type": "function"
    },
    {
      "inputs": [
        {
          "internalType": "address",
          "name": "_offeringToken",
          "type": "address"
        },
        {
          "internalType": "uint256",
          "name": "_startTime",
          "type": "uint256"
        },
        {
          "internalType": "uint256",
          "name": "_endTime",
          "type": "uint256"
        },
        {
          "internalType": "address",
          "name": "_adminAddress",
          "type": "address"
        },
        {
          "internalType": "address",
          "name": "_votingEscrowAddress",
          "type": "address"
        },
        {
          "internalType": "address",
          "name": "_burnAddress",
          "type": "address"
        },
        {
          "internalType": "address",
          "name": "_receiverAddress",
          "type": "address"
        }
      ],
      "name": "deployIFO",
      "outputs": [],
      "stateMutability": "nonpayable",
      "type": "function"
    },
    {
      "inputs": [],
      "name": "owner",
      "outputs": [
        {
          "internalType": "address",
          "name": "",
          "type": "address"
        }
      ],
      "stateMutability": "view",
      "type": "function"
    },
    {
      "inputs": [
        {
          "internalType": "address",
          "name": "_tokenAddress",
          "type": "address"
        }
      ],
      "name": "recoverWrongTokens",
      "outputs": [],
      "stateMutability": "nonpayable",
      "type": "function"
    },
    {
      "inputs": [],
      "name": "renounceOwnership",
      "outputs": [],
      "stateMutability": "nonpayable",
      "type": "function"
    },
    {
      "inputs": [
        {
          "internalType": "address",
          "name": "newOwner",
          "type": "address"
        }
      ],
      "name": "transferOwnership",
      "outputs": [],
      "stateMutability": "nonpayable",
      "type": "function"
    }
  ],
  "transactionHash": "0x190a170ab18f52a00677d9703e7733aa3b7aab9ad994d9c8e9d441542b541d5c",
  "args": [],
  "solcInputHash": "1c6ff8b0627a77f44f9d21156d882052",
  "bytecode": "0x608060405234801561001057600080fd5b50600061001b61006a565b600080546001600160a01b0319166001600160a01b0383169081178255604051929350917f8be0079c531659141344cd1fd0a4f28419497f9722a3daafe3b4186f6b6457e0908290a35061006e565b3390565b614b648061007d6000396000f3fe608060405234801561001057600080fd5b50600436106100625760003560e01c8063510bb6e5146100675780636b7d8841146100bd578063715018a6146100d7578063746268cc146100df5780638da5cb5b14610105578063f2fde38b14610129575b600080fd5b6100bb600480360360e081101561007d57600080fd5b506001600160a01b0381358116916020810135916040820135916060810135821691608082013581169160a081013582169160c0909101351661014f565b005b6100c5610451565b60408051918252519081900360200190f35b6100bb610458565b6100bb600480360360208110156100f557600080fd5b50356001600160a01b0316610504565b61010d61068c565b604080516001600160a01b039092168252519081900360200190f35b6100bb6004803603602081101561013f57600080fd5b50356001600160a01b031661069b565b61015761079d565b6001600160a01b031661016861068c565b6001600160a01b0316146101b1576040805162461bcd60e51b81526020600482018190526024820152600080516020614a78833981519152604482015290519081900360640190fd5b6000876001600160a01b03166318160ddd6040518163ffffffff1660e01b815260040160206040518083038186803b1580156101ec57600080fd5b505afa158015610200573d6000803e3d6000fd5b505050506040513d602081101561021657600080fd5b5051101561022357600080fd5b62093a804201851061027c576040805162461bcd60e51b815260206004820152601b60248201527f4f7065726174696f6e733a20456e6454696d6520746f6f206661720000000000604482015290519081900360640190fd5b8486106102ba5760405162461bcd60e51b8152600401808060200182810382526031815260200180614a986031913960400191505060405180910390fd5b4286116102f85760405162461bcd60e51b815260040180806020018281038252603c815260200180614ac9603c913960400191505060405180910390fd5b60606040518060200161030a90610ac8565b6020820181038252601f19601f820116604052509050600088888860405160200180846001600160a01b031660601b815260140183815260200182815260200193505050506040516020818303038152906040528051906020012090506000818351602085016000f56040805163a526f31f60e01b81526001600160a01b038d81166004830152602482018d9052604482018c905262093a8060648301528a8116608483015289811660a483015288811660c483015287811660e483015291519293509083169163a526f31f916101048082019260009290919082900301818387803b1580156103f957600080fd5b505af115801561040d573d6000803e3d6000fd5b50506040516001600160a01b03841692507f3b823f91f23e8f12a60f36282813ffed043efcb2101731734672a4726c0864549150600090a250505050505050505050565b62093a8081565b61046061079d565b6001600160a01b031661047161068c565b6001600160a01b0316146104ba576040805162461bcd60e51b81526020600482018190526024820152600080516020614a78833981519152604482015290519081900360640190fd5b600080546040516001600160a01b03909116907f8be0079c531659141344cd1fd0a4f28419497f9722a3daafe3b4186f6b6457e0908390a3600080546001600160a01b0319169055565b61050c61079d565b6001600160a01b031661051d61068c565b6001600160a01b031614610566576040805162461bcd60e51b81526020600482018190526024820152600080516020614a78833981519152604482015290519081900360640190fd5b6000816001600160a01b03166370a08231306040518263ffffffff1660e01b815260040180826001600160a01b0316815260200191505060206040518083038186803b1580156105b557600080fd5b505afa1580156105c9573d6000803e3d6000fd5b505050506040513d60208110156105df57600080fd5b5051905080610635576040805162461bcd60e51b815260206004820152601f60248201527f4f7065726174696f6e733a2042616c616e6365206d757374206265203e203000604482015290519081900360640190fd5b6106496001600160a01b03831633836107a1565b6040805182815290516001600160a01b038416917f74545154aac348a3eac92596bd1971957ca94795f4e954ec5f613b55fab78129919081900360200190a25050565b6000546001600160a01b031690565b6106a361079d565b6001600160a01b03166106b461068c565b6001600160a01b0316146106fd576040805162461bcd60e51b81526020600482018190526024820152600080516020614a78833981519152604482015290519081900360640190fd5b6001600160a01b0381166107425760405162461bcd60e51b8152600401808060200182810382526026815260200180614a2c6026913960400191505060405180910390fd5b600080546040516001600160a01b03808516939216917f8be0079c531659141344cd1fd0a4f28419497f9722a3daafe3b4186f6b6457e091a3600080546001600160a01b0319166001600160a01b0392909216919091179055565b3390565b604080516001600160a01b038416602482015260448082018490528251808303909101815260649091019091526020810180516001600160e01b031663a9059cbb60e01b1790526107f39084906107f8565b505050565b606061084d826040518060400160405280602081526020017f5361666545524332303a206c6f772d6c6576656c2063616c6c206661696c6564815250856001600160a01b03166108a99092919063ffffffff16565b8051909150156107f35780806020019051602081101561086c57600080fd5b50516107f35760405162461bcd60e51b815260040180806020018281038252602a815260200180614b05602a913960400191505060405180910390fd5b60606108b884846000856108c2565b90505b9392505050565b6060824710156109035760405162461bcd60e51b8152600401808060200182810382526026815260200180614a526026913960400191505060405180910390fd5b61090c85610a1e565b61095d576040805162461bcd60e51b815260206004820152601d60248201527f416464726573733a2063616c6c20746f206e6f6e2d636f6e7472616374000000604482015290519081900360640190fd5b60006060866001600160a01b031685876040518082805190602001908083835b6020831061099c5780518252601f19909201916020918201910161097d565b6001836020036101000a03801982511681845116808217855250505050505090500191505060006040518083038185875af1925050503d80600081146109fe576040519150601f19603f3d011682016040523d82523d6000602084013e610a03565b606091505b5091509150610a13828286610a24565b979650505050505050565b3b151590565b60608315610a335750816108bb565b825115610a435782518084602001fd5b8160405162461bcd60e51b81526004018080602001828103825283818151815260200191508051906020019080838360005b83811015610a8d578181015183820152602001610a75565b50505050905090810190601f168015610aba5780820380516001836020036101000a031916815260200191505b509250505060405180910390fd5b613f5680610ad68339019056fe60a06040523480156200001157600080fd5b5060016000908155620000236200007e565b600180546001600160a01b0319166001600160a01b038316908117909155604051919250906000907f8be0079c531659141344cd1fd0a4f28419497f9722a3daafe3b4186f6b6457e0908290a3503360601b60805262000082565b3390565b60805160601c613eb1620000a5600039806117e65280612e115250613eb16000f3fe608060405234801561001057600080fd5b50600436106102325760003560e01c80636ea28d05116101305780638ed5b0fc116100b8578063e80343521161007c578063e80343521461093c578063ed2aaad014610959578063ee01e5e714610978578063f2fde38b14610980578063f9cd5c12146109a657610232565b80638ed5b0fc146107dc578063a526f31f146107e4578063b78136071461083d578063bea1dcf814610845578063ca463ca41461084d57610232565b806378e97925116100ff57806378e97925146106e6578063795f46ac146106ee5780637f1bdd761461070b5780638773d0c3146107315780638da5cb5b146107d457610232565b80636ea28d05146106c657806370d5ae05146106ce578063715018a6146106d6578063760b3180146106de57610232565b80633a07d494116101be578063497bf7d711610182578063497bf7d7146104a55780634af3c9b7146104ad57806355b3cc75146106935780636705872a146106b65780636b7d8841146106be57610232565b80633a07d494146103395780633becd525146103965780633f138d4b146103f857806345de0f771461042457806346ab91bf1461042c57610232565b806323f935741161020557806323f93574146102bf5780633197cbb6146102dd57806337f859b8146102f7578063392e53cd1461031457806339dbe2e61461031c57610232565b80630356783b1461023757806308695b411461025357806316fed3e21461027b5780632374876c1461029f575b600080fd5b61023f610a74565b604080519115158252519081900360200190f35b6102796004803603602081101561026957600080fd5b50356001600160a01b0316610a84565b005b610283610b08565b604080516001600160a01b039092168252519081900360200190f35b610279600480360360208110156102b557600080fd5b503560ff16610b17565b6102c7610ef0565b6040805160ff9092168252519081900360200190f35b6102e5610ef5565b60408051918252519081900360200190f35b6102e56004803603602081101561030d57600080fd5b5035610efb565b61023f610f5b565b6102e56004803603602081101561033257600080fd5b5035610f6b565b610279600480360361012081101561035057600080fd5b5080356001600160a01b03169060208101359060408101359060608101359060808101359060a08101359060c08101359060e0810135151590610100013560ff16610f7f565b6103c5600480360360408110156103ac57600080fd5b5080356001600160a01b0316906020013560ff1661140c565b604080519687526020870195909552858501939093526060850191909152608084015260a0830152519081900360c00190f35b6102796004803603604081101561040e57600080fd5b506001600160a01b038135169060200135611652565b6102836117e4565b6104496004803603602081101561044257600080fd5b5035611808565b604080516001600160a01b03909b168b5260208b0199909952898901979097526060890195909552608088019390935260a087019190915260c0860152151560e085015261010084015261012083015251908190036101400190f35b6102c761192e565b61052b600480360360408110156104c357600080fd5b6001600160a01b038235169190810190604081016020820135600160201b8111156104ed57600080fd5b8201836020820111156104ff57600080fd5b803590602001918460208302840111600160201b8311171561052057600080fd5b509092509050611933565b60405180806020018060200180602001806020018060200186810386528b818151815260200191508051906020019060200280838360005b8381101561057b578181015183820152602001610563565b5050505090500186810385528a818151815260200191508051906020019060200280838360005b838110156105ba5781810151838201526020016105a2565b50505050905001868103845289818151815260200191508051906020019060200280838360005b838110156105f95781810151838201526020016105e1565b50505050905001868103835288818151815260200191508051906020019060200280838360005b83811015610638578181015183820152602001610620565b50505050905001868103825287818151815260200191508051906020019060200280838360005b8381101561067757818101518382015260200161065f565b505050509050019a505050505050505050505060405180910390f35b610279600480360360408110156106a957600080fd5b5080359060200135611c29565b610283611dfe565b6102e5611e0d565b610279611e13565b610283611f69565b610279611f78565b6102e5612024565b6102e561202a565b6102796004803603602081101561070457600080fd5b5035612030565b6102796004803603604081101561072157600080fd5b508035906020013560ff16612123565b6102796004803603604081101561074757600080fd5b810190602081018135600160201b81111561076157600080fd5b82018360208201111561077357600080fd5b803590602001918460208302840111600160201b8311171561079457600080fd5b91908080602002602001604051908101604052809392919081815260200183836020028082843760009201919091525092955050913592506128c0915050565b610283612d92565b6102e5612da1565b61027960048036036101008110156107fb57600080fd5b506001600160a01b038135811691602081013591604082013591606081013591608082013581169160a081013582169160c082013581169160e0013516612da7565b610283612f66565b610283612f75565b6108cb6004803603604081101561086357600080fd5b6001600160a01b038235169190810190604081016020820135600160201b81111561088d57600080fd5b82018360208201111561089f57600080fd5b803590602001918460208302840111600160201b831117156108c057600080fd5b509092509050612f84565b60405180806020018281038252838181518152602001915080516000925b8184101561092b57602080850284010151606080838360005b8381101561091a578181015183820152602001610902565b5050505090500192600101926108e9565b925050509250505060405180910390f35b6102e56004803603602081101561095257600080fd5b503561309a565b6102796004803603602081101561096f57600080fd5b503515156130a7565b6102e5613127565b6102796004803603602081101561099657600080fd5b50356001600160a01b031661312d565b610a24600480360360408110156109bc57600080fd5b6001600160a01b038235169190810190604081016020820135600160201b8111156109e657600080fd5b8201836020820111156109f857600080fd5b803590602001918460208302840111600160201b83111715610a1957600080fd5b509092509050613230565b60408051602080825283518183015283519192839290830191858101910280838360005b83811015610a60578181015183820152602001610a48565b505050509050019250505060405180910390f35b600454600160a81b900460ff1681565b610a8c6132c9565b6001600160a01b0316610a9d612d92565b6001600160a01b031614610ae6576040805162461bcd60e51b81526020600482018190526024820152600080516020613d7a833981519152604482015290519081900360640190fd5b600f80546001600160a01b0319166001600160a01b0392909216919091179055565b600c546001600160a01b031681565b60026000541415610b6f576040805162461bcd60e51b815260206004820152601f60248201527f5265656e7472616e637947756172643a207265656e7472616e742063616c6c00604482015290519081900360640190fd5b6002600055610b7d336132cd565b15610bc6576040805162461bcd60e51b815260206004820152601460248201527318dbdb9d1c9858dd081b9bdd08185b1b1bddd95960621b604482015290519081900360640190fd5b333214610c1a576040805162461bcd60e51b815260206004820152601a60248201527f70726f787920636f6e7472616374206e6f7420616c6c6f776564000000000000604482015290519081900360640190fd5b600454600160a81b900460ff16610c78576040805162461bcd60e51b815260206004820152601860248201527f486172766573743a206e6f7420616c6c6f7720636c61696d0000000000000000604482015290519081900360640190fd5b600260ff821610610cd0576040805162461bcd60e51b815260206004820152601a60248201527f486172766573743a204e6f6e2076616c696420706f6f6c206964000000000000604482015290519081900360640190fd5b33600090815260246020908152604080832060ff8516845290915290208054610d40576040805162461bcd60e51b815260206004820152601c60248201527f486172766573743a20446964206e6f7420706172746963697061746500000000604482015290519081900360640190fd5b42816002015410610d825760405162461bcd60e51b815260040180806020018281038252602a815260200180613c83602a913960400191505060405180910390fd5b6000806000610d91338661140c565b50504260028901555060038701805460ff1916600117908190559295509093509150610100900460ff16610e4c5760038401805461ff0019166101001790558215610e0057610e00338460108860ff1660028110610deb57fe5b600a0201546001600160a01b031691906132d3565b8115610e4c57610e308260108760ff1660028110610e1a57fe5b600a02016009015461332a90919063ffffffff16565b60108660ff1660028110610e4057fe5b600a0201600901819055505b6000610e58338761338d565b505060018601549091508103600083821015610e745781610e76565b835b90508015610e9f5760018701805482019055600254610e9f906001600160a01b031633836132d3565b6040805182815260208101889052815160ff8b169233927f1839f39a4e3eeee0272f5304923e2c487330fadc80f6df38384c8fdaf396580a929081900390910190a350506001600055505050505050565b600281565b60065481565b600060108260028110610f0a57fe5b600a02016007015460ff16610f2157506000610f56565b610f5360108360028110610f3157fe5b600a02016008015460108460028110610f4657fe5b600a02016001015461356d565b90505b919050565b600454600160a01b900460ff1681565b60098160028110610f7857fe5b0154905081565b610f876132c9565b6001600160a01b0316610f98612d92565b6001600160a01b031614610fe1576040805162461bcd60e51b81526020600482018190526024820152600080516020613d7a833981519152604482015290519081900360640190fd5b6000896001600160a01b03166318160ddd6040518163ffffffff1660e01b815260040160206040518083038186803b15801561101c57600080fd5b505afa158015611030573d6000803e3d6000fd5b505050506040513d602081101561104657600080fd5b5051101561105357600080fd5b6002546001600160a01b038a8116911614156110a05760405162461bcd60e51b8152600401808060200182810382526027815260200180613e556027913960400191505060405180910390fd5b60055442106110f6576040805162461bcd60e51b815260206004820152601b60248201527f4f7065726174696f6e733a2049464f2068617320737461727465640000000000604482015290519081900360640190fd5b6127108511156111375760405162461bcd60e51b8152600401808060200182810382526024815260200180613bdc6024913960400191505060405180910390fd5b61271084111561118e576040805162461bcd60e51b815260206004820152601c60248201527f4f7065726174696f6e733a2057726f6e672070657263656e7461676500000000604482015290519081900360640190fd5b6006548310156111cf5760405162461bcd60e51b8152600401808060200182810382526022815260200180613cad6022913960400191505060405180910390fd5b600260ff821610611227576040805162461bcd60e51b815260206004820152601f60248201527f4f7065726174696f6e733a20506f6f6c20646f6573206e6f7420657869737400604482015290519081900360640190fd5b6006548314156112715761271085146112715760405162461bcd60e51b8152600401808060200182810382526042815260200180613b9a6042913960600191505060405180910390fd5b8860108260ff166002811061128257fe5b600a020180546001600160a01b0319166001600160a01b039290921691909117905587601060ff8316600281106112b557fe5b600a0201600201819055508660108260ff16600281106112d157fe5b600a0201600101819055508560108260ff16600281106112ed57fe5b600a0201600301819055508460108260ff166002811061130957fe5b600a0201600401819055508360108260ff166002811061132557fe5b600a0201600501819055508260108260ff166002811061134157fe5b600a0201600601819055508160108260ff166002811061135d57fe5b600a0201600701805460ff19169115159190911790556000805b600260ff821610156113b7576113ad60108260ff166002811061139657fe5b600a0201600201548361332a90919063ffffffff16565b9150600101611377565b5060088190556040805160ff84168152602081018b90528082018a905290517ff3756a14dff52095426da52b5ade920ec8d80372a89310d35eacbe023a4538e59181900360600190a150505050505050505050565b600080600080600080600042905060065481101561143f5760008060008060008096509650965096509650965050611648565b611447613aea565b506001600160a01b038916600090815260246020908152604080832060ff808d16855290835292819020815160a0810183528154815260018201549381019390935260028101549183019190915260030154808316151560608301526101009004909116151560808201526114ba613b1d565b60108a60ff16600281106114ca57fe5b6040805161014081018252600a929092029290920180546001600160a01b03168252600181015460208301526002810154928201929092526003820154606082015260048201546080820152600582015460a0820152600682015460c0820152600782015460ff16151560e082015260088201546101008201526009909101546101208201529050600080806115608e8e61338d565b9250925092506000612710856080015185028161157957fe5b0490506000818503905060009d5060009c50866080015161159b57839d50829c505b60009a5086606001516115ac57819a505b602087015160009a508a995089906115ce906115c8888f61360c565b9061360c565b90508660c0015189106115e357809a50611639565b60065460408901518a91600091106115ff578960400151611603565b6006545b90508082111561162a5760065460c08a015103818303818682028161162457fe5b049e5050505b611634838e61360c565b9b5050505b8a8c019c505050505050505050505b9295509295509295565b61165a6132c9565b6001600160a01b031661166b612d92565b6001600160a01b0316146116b4576040805162461bcd60e51b81526020600482018190526024820152600080516020613d7a833981519152604482015290519081900360640190fd5b6002546001600160a01b03838116911614156117015760405162461bcd60e51b8152600401808060200182810382526021815260200180613e0a6021913960400191505060405180910390fd5b60005b6002811015611787576010816002811061171a57fe5b600a0201546001600160a01b038481169116141561177f576040805162461bcd60e51b815260206004820181905260248201527f5265636f7665723a2043616e6e6f742062652072616973696e6720746f6b656e604482015290519081900360640190fd5b600101611704565b5061179c6001600160a01b03831633836132d3565b604080516001600160a01b03841681526020810183905281517f74545154aac348a3eac92596bd1971957ca94795f4e954ec5f613b55fab78129929181900390910190a15050565b7f000000000000000000000000000000000000000000000000000000000000000081565b60008060008060008060008060008061181f613b1d565b60108c6002811061182c57fe5b600a0201604051806101400160405290816000820160009054906101000a90046001600160a01b03166001600160a01b03166001600160a01b031681526020016001820154815260200160028201548152602001600382015481526020016004820154815260200160058201548152602001600682015481526020016007820160009054906101000a900460ff16151515158152602001600882015481526020016009820154815250509050806000015181602001518260400151836060015184608001518560a001518660c001518760e001518861010001518961012001519a509a509a509a509a509a509a509a509a509a50509193959799509193959799565b600a81565b606080808080808667ffffffffffffffff8111801561195157600080fd5b5060405190808252806020026020018201604052801561197b578160200160208202803683370190505b50905060608767ffffffffffffffff8111801561199757600080fd5b506040519080825280602002602001820160405280156119c1578160200160208202803683370190505b50905060608867ffffffffffffffff811180156119dd57600080fd5b50604051908082528060200260200182016040528015611a07578160200160208202803683370190505b50905060608967ffffffffffffffff81118015611a2357600080fd5b50604051908082528060200260200182016040528015611a4d578160200160208202803683370190505b50905060608a67ffffffffffffffff81118015611a6957600080fd5b50604051908082528060200260200182016040528015611a93578160200160208202803683370190505b50905060005b600260ff82161015611c14576001600160a01b038e16600090815260246020908152604080832060ff85168085529252909120548751909188918110611adb57fe5b6020908102919091018101919091526001600160a01b038f16600090815260248252604080822060ff851680845293529020600101548651909187918110611b1f57fe5b6020908102919091018101919091526001600160a01b038f16600090815260248252604080822060ff851680845293529020600201548551909186918110611b6357fe5b6020908102919091018101919091526001600160a01b038f16600090815260248252604080822060ff8086168085529190945291206003015485519216918591908110611bac57fe5b9115156020928302919091018201526001600160a01b038f16600090815260248252604080822060ff808616808552919094529120600301548451610100909104909216918491908110611bfc57fe5b91151560209283029190910190910152600101611a99565b50939c929b5090995097509095509350505050565b611c316132c9565b6001600160a01b0316611c42612d92565b6001600160a01b031614611c8b576040805162461bcd60e51b81526020600482018190526024820152600080516020613d7a833981519152604482015290519081900360640190fd5b60035442018110611ce3576040805162461bcd60e51b815260206004820152601b60248201527f4f7065726174696f6e733a20456e6454696d6520746f6f206661720000000000604482015290519081900360640190fd5b6005544210611d39576040805162461bcd60e51b815260206004820152601b60248201527f4f7065726174696f6e733a2049464f2068617320737461727465640000000000604482015290519081900360640190fd5b808210611d775760405162461bcd60e51b8152600401808060200182810382526037815260200180613c266037913960400191505060405180910390fd5b814210611db55760405162461bcd60e51b8152600401808060200182810382526040815260200180613cf56040913960400191505060405180910390fd5b60058290556006819055604080518381526020810183905281517fa536964ea59c734a26415fc574cf722afc526e94547abf6af36b26d3efcae1f9929181900390910190a15050565b6004546001600160a01b031681565b60035481565b600f546001600160a01b0316611e70576040805162461bcd60e51b815260206004820152601f60248201527f4f7065726174696f6e733a2057726f6e672074617820636f6c6c6563746f7200604482015290519081900360640190fd5b33611e79612d92565b6001600160a01b03161480611e985750600f546001600160a01b031633145b611ee9576040805162461bcd60e51b815260206004820152601d60248201527f4f7065726174696f6e733a205065726d697373696f6e2064656e696564000000604482015290519081900360640190fd5b60005b6002811015611f6657600060108260028110611f0457fe5b600a0201600901549050611f4d600f60009054906101000a90046001600160a01b0316611f40600d8560028110611f3757fe5b0154849061360c565b60108560028110610deb57fe5b80600d8360028110611f5b57fe5b015550600101611eec565b50565b600b546001600160a01b031681565b611f806132c9565b6001600160a01b0316611f91612d92565b6001600160a01b031614611fda576040805162461bcd60e51b81526020600482018190526024820152600080516020613d7a833981519152604482015290519081900360640190fd5b6001546040516000916001600160a01b0316907f8be0079c531659141344cd1fd0a4f28419497f9722a3daafe3b4186f6b6457e0908390a3600180546001600160a01b0319169055565b60085481565b60055481565b6120386132c9565b6001600160a01b0316612049612d92565b6001600160a01b031614612092576040805162461bcd60e51b81526020600482018190526024820152600080516020613d7a833981519152604482015290519081900360640190fd5b60065442106120e8576040805162461bcd60e51b815260206004820152601960248201527f4f7065726174696f6e733a2049464f2068617320656e64656400000000000000604482015290519081900360640190fd5b60078190556040805182815290517fb3858839cb95bac816de879b29203046e91b49859f71499c319ce06688891cb99181900360200190a150565b6002600054141561217b576040805162461bcd60e51b815260206004820152601f60248201527f5265656e7472616e637947756172643a207265656e7472616e742063616c6c00604482015290519081900360640190fd5b6002600055612189336132cd565b156121d2576040805162461bcd60e51b815260206004820152601460248201527318dbdb9d1c9858dd081b9bdd08185b1b1bddd95960621b604482015290519081900360640190fd5b333214612226576040805162461bcd60e51b815260206004820152601a60248201527f70726f787920636f6e7472616374206e6f7420616c6c6f776564000000000000604482015290519081900360640190fd5b600260ff82161061227e576040805162461bcd60e51b815260206004820152601a60248201527f4465706f7369743a204e6f6e2076616c696420706f6f6c206964000000000000604482015290519081900360640190fd5b600060108260ff166002811061229057fe5b600a0201600201541180156122bc5750600060108260ff16600281106122b257fe5b600a020160010154115b612305576040805162461bcd60e51b815260206004820152601560248201527411195c1bdcda5d0e88141bdbdb081b9bdd081cd95d605a1b604482015290519081900360640190fd5b6005544211612350576040805162461bcd60e51b81526020600482015260126024820152714465706f7369743a20546f6f206561726c7960701b604482015290519081900360640190fd5b600654421061239a576040805162461bcd60e51b81526020600482015260116024820152704465706f7369743a20546f6f206c61746560781b604482015290519081900360640190fd5b600082116123ef576040805162461bcd60e51b815260206004820152601b60248201527f4465706f7369743a20416d6f756e74206d757374206265203e20300000000000604482015290519081900360640190fd5b600854600254604080516370a0823160e01b815230600482015290516001600160a01b03909216916370a0823191602480820192602092909190829003018186803b15801561243d57600080fd5b505afa158015612451573d6000803e3d6000fd5b505050506040513d602081101561246757600080fd5b505110156124a65760405162461bcd60e51b8152600401808060200182810382526026815260200180613de46026913960400191505060405180910390fd5b6004546001600160a01b0316158015906124c1575060ff8116155b15612729576000600460009054906101000a90046001600160a01b03166001600160a01b031663313ce5676040518163ffffffff1660e01b815260040160206040518083038186803b15801561251657600080fd5b505afa15801561252a573d6000803e3d6000fd5b505050506040513d602081101561254057600080fd5b505160ff908116915060009060109084166002811061255b57fe5b600a0201546040805163313ce56760e01b815290516001600160a01b039092169163313ce56791600480820192602092909190829003018186803b1580156125a257600080fd5b505afa1580156125b6573d6000803e3d6000fd5b505050506040513d60208110156125cc57600080fd5b505160ff16905080821015612618576040805162461bcd60e51b815260206004820152600d60248201526c15dc9bdb99c8191958da5b585b609a1b604482015290519081900360640190fd5b600480546005546040805163c8abf39560e01b81523394810194909452602484019190915251600092600a926001600160a01b03169163c8abf39591604480820192602092909190829003018186803b15801561267457600080fd5b505afa158015612688573d6000803e3d6000fd5b505050506040513d602081101561269e57600080fd5b505133600090815260246020908152604080832060ff8a1684529091529020549102915081906126df90848603600a0a906126d9908961332a565b90613669565b1115612725576040805162461bcd60e51b815260206004820152601060248201526f4e6f7420656e6f756768207665456d6f60801b604482015290519081900360640190fd5b5050505b61275533308460108560ff166002811061273f57fe5b600a0201546001600160a01b03169291906136c2565b33600090815260246020908152604080832060ff8516845290915290205461277d908361332a565b33600090815260246020908152604080832060ff8616808552925282209290925590601090600281106127ac57fe5b600a020160030154111561282d5760108160ff16600281106127ca57fe5b600a02016003015433600090815260246020908152604080832060ff86168452909152902054111561282d5760405162461bcd60e51b8152600401808060200182810382526024815260200180613d356024913960400191505060405180910390fd5b6128578260108360ff166002811061284157fe5b600a02016008015461332a90919063ffffffff16565b60108260ff166002811061286757fe5b600a0201600801819055508060ff16336001600160a01b03167fe6ea2883ec66613be5cdd4954e8c4919bdb7982e6e2d907011bc051bfcde7fe4846040518082815260200191505060405180910390a350506001600055565b6128c86132c9565b6001600160a01b03166128d9612d92565b6001600160a01b031614612922576040805162461bcd60e51b81526020600482018190526024820152600080516020613d7a833981519152604482015290519081900360640190fd5b8151600214612978576040805162461bcd60e51b815260206004820152601860248201527f4f7065726174696f6e733a2057726f6e67206c656e6774680000000000000000604482015290519081900360640190fd5b60005b6002811015612c3e57600083828151811061299257fe5b60200260200101511115612c36576129a8613b1d565b601082600281106129b557fe5b6040805161014081018252600a929092029290920180546001600160a01b03168083526001820154602080850191909152600283015484860152600383015460608501526004808401546080860152600584015460a0860152600684015460c0860152600784015460ff16151560e0860152600884015461010086015260099093015461012085015284516370a0823160e01b815230938101939093529351929450926370a0823192602480840193829003018186803b158015612a7857600080fd5b505afa158015612a8c573d6000803e3d6000fd5b505050506040513d6020811015612aa257600080fd5b50518451859084908110612ab257fe5b60200260200101511115612af75760405162461bcd60e51b8152600401808060200182810382526025815260200180613dbf6025913960400191505060405180910390fd5b612b23848381518110612b0657fe5b602002602001015160098460028110612b1b57fe5b01549061332a565b60098360028110612b3057fe5b0155602081015160098360028110612b4457fe5b01541115612b835760405162461bcd60e51b8152600401808060200182810382526025815260200180613d9a6025913960400191505060405180910390fd5b60008160a00151600014612be657612bc7612710612bc18460a00151888781518110612bab57fe5b602002602001015161366990919063ffffffff16565b90613722565b600b548351919250612be6916001600160a01b039081169116836132d3565b600c548551612c33916001600160a01b031690612c21908490899088908110612c0b57fe5b602002602001015161360c90919063ffffffff16565b84516001600160a01b031691906132d3565b50505b60010161297b565b508015612d1157600254604080516370a0823160e01b815230600482015290516001600160a01b03909216916370a0823191602480820192602092909190829003018186803b158015612c9057600080fd5b505afa158015612ca4573d6000803e3d6000fd5b505050506040513d6020811015612cba57600080fd5b5051811115612cfa5760405162461bcd60e51b8152600401808060200182810382526026815260200180613c5d6026913960400191505060405180910390fd5b600254612d11906001600160a01b031633836132d3565b7f6aa7968f7ab3a0d13e8728822c74fcd4dc2e31b3ad0b4011e6af4416fd9bafb682826040518080602001838152602001828103825284818151815260200191508051906020019060200280838360005b83811015612d7a578181015183820152602001612d62565b50505050905001935050505060405180910390a15050565b6001546001600160a01b031690565b60075481565b600454600160a01b900460ff1615612e06576040805162461bcd60e51b815260206004820152601f60248201527f4f7065726174696f6e733a20416c726561647920696e697469616c697a656400604482015290519081900360640190fd5b336001600160a01b037f00000000000000000000000000000000000000000000000000000000000000001614612e83576040805162461bcd60e51b815260206004820152601760248201527f4f7065726174696f6e733a204e6f7420666163746f7279000000000000000000604482015290519081900360640190fd5b6001600160a01b038116612ede576040805162461bcd60e51b815260206004820152601860248201527f4f7065726174696f6e733a205a65726f20616464726573730000000000000000604482015290519081900360640190fd5b60048054600280546001600160a01b03199081166001600160a01b038d811691909117909255600160a01b60ff60a01b1990931692909217600161ff0160a01b03191686821617909255600589905560068890556003879055600b80548216858416179055600c8054909116918316919091179055612f5c8461312d565b5050505050505050565b6002546001600160a01b031681565b600f546001600160a01b031681565b6060808267ffffffffffffffff81118015612f9e57600080fd5b50604051908082528060200260200182016040528015612fd857816020015b612fc5613b7b565b815260200190600190039081612fbd5790505b50905060005b60ff811684111561308f57600080600080601089898760ff1681811061300057fe5b9050602002013560ff1660ff166002811061301757fe5b600a020160010154111561304f576130478989898760ff1681811061303857fe5b9050602002013560ff1661338d565b919450925090505b604051806060016040528084815260200183815260200182815250858560ff168151811061307957fe5b6020908102919091010152505050600101612fde565b5090505b9392505050565b600d8160028110610f7857fe5b6130af6132c9565b6001600160a01b03166130c0612d92565b6001600160a01b031614613109576040805162461bcd60e51b81526020600482018190526024820152600080516020613d7a833981519152604482015290519081900360640190fd5b60048054911515600160a81b0260ff60a81b19909216919091179055565b61271081565b6131356132c9565b6001600160a01b0316613146612d92565b6001600160a01b03161461318f576040805162461bcd60e51b81526020600482018190526024820152600080516020613d7a833981519152604482015290519081900360640190fd5b6001600160a01b0381166131d45760405162461bcd60e51b8152600401808060200182810382526026815260200180613c006026913960400191505060405180910390fd5b6001546040516001600160a01b038084169216907f8be0079c531659141344cd1fd0a4f28419497f9722a3daafe3b4186f6b6457e090600090a3600180546001600160a01b0319166001600160a01b0392909216919091179055565b6060808267ffffffffffffffff8111801561324a57600080fd5b50604051908082528060200260200182016040528015613274578160200160208202803683370190505b50905060005b60ff811684111561308f576132a78686868460ff1681811061329857fe5b9050602002013560ff16613789565b828260ff16815181106132b657fe5b602090810291909101015260010161327a565b3390565b3b151590565b604080516001600160a01b038416602482015260448082018490528251808303909101815260649091019091526020810180516001600160e01b031663a9059cbb60e01b179052613325908490613822565b505050565b600082820183811015613384576040805162461bcd60e51b815260206004820152601b60248201527f536166654d6174683a206164646974696f6e206f766572666c6f770000000000604482015290519081900360640190fd5b90505b92915050565b60008060008060008060108760ff16600281106133a657fe5b600a02016001015460108860ff16600281106133be57fe5b600a02016008015411156134f35760006133d88989613789565b905061340d64e8d4a51000612bc18360108c60ff16600281106133f757fe5b600a02016002015461366990919063ffffffff16565b9350600061344464e8d4a51000612bc18460108d60ff166002811061342e57fe5b600a02016001015461366990919063ffffffff16565b6001600160a01b038b16600090815260246020908152604080832060ff8e168452909152902054909150613478908261360c565b935060108960ff166002811061348a57fe5b600a02016007015460ff16156134ec5760006134c760108b60ff16600281106134af57fe5b600a02016008015460108c60ff1660028110610f4657fe5b90506134dc64e8d4a51000612bc18784613669565b93506134e8858561360c565b9450505b505061355f565b50600090508061355c601060ff89166002811061350c57fe5b600a020160010154612bc160108a60ff166002811061352757fe5b600a0201600201546001600160a01b038c16600090815260246020908152604080832060ff8f16845290915290205490613669565b92505b919450925090509250925092565b60008061357a8484613722565b90506105dc811061359257631dcd6500915050613387565b6103e881106135a857633b9aca00915050613387565b6101f481106135be576377359400915050613387565b60fa81106135d357639502f900915050613387565b606481106135e85763b2d05e00915050613387565b603281106135fe5764012a05f200915050613387565b6402540be400915050613387565b600082821115613663576040805162461bcd60e51b815260206004820152601e60248201527f536166654d6174683a207375627472616374696f6e206f766572666c6f770000604482015290519081900360640190fd5b50900390565b60008261367857506000613387565b8282028284828161368557fe5b04146133845760405162461bcd60e51b8152600401808060200182810382526021815260200180613d596021913960400191505060405180910390fd5b604080516001600160a01b0380861660248301528416604482015260648082018490528251808303909101815260849091019091526020810180516001600160e01b03166323b872dd60e01b17905261371c908590613822565b50505050565b6000808211613778576040805162461bcd60e51b815260206004820152601a60248201527f536166654d6174683a206469766973696f6e206279207a65726f000000000000604482015290519081900360640190fd5b81838161378157fe5b049392505050565b60008060108360ff166002811061379c57fe5b600a020160080154111561381a576138136137da620f424060108560ff16600281106137c457fe5b600a02016008015461366990919063ffffffff16565b6001600160a01b038516600090815260246020908152604080832060ff88168452909152902054612bc190670de0b6b3a7640000613669565b9050613387565b506000613387565b6060613877826040518060400160405280602081526020017f5361666545524332303a206c6f772d6c6576656c2063616c6c206661696c6564815250856001600160a01b03166138d39092919063ffffffff16565b8051909150156133255780806020019051602081101561389657600080fd5b50516133255760405162461bcd60e51b815260040180806020018281038252602a815260200180613e2b602a913960400191505060405180910390fd5b60606138e284846000856138ea565b949350505050565b60608247101561392b5760405162461bcd60e51b8152600401808060200182810382526026815260200180613ccf6026913960400191505060405180910390fd5b613934856132cd565b613985576040805162461bcd60e51b815260206004820152601d60248201527f416464726573733a2063616c6c20746f206e6f6e2d636f6e7472616374000000604482015290519081900360640190fd5b60006060866001600160a01b031685876040518082805190602001908083835b602083106139c45780518252601f1990920191602091820191016139a5565b6001836020036101000a03801982511681845116808217855250505050505090500191505060006040518083038185875af1925050503d8060008114613a26576040519150601f19603f3d011682016040523d82523d6000602084013e613a2b565b606091505b5091509150613a3b828286613a46565b979650505050505050565b60608315613a55575081613093565b825115613a655782518084602001fd5b8160405162461bcd60e51b81526004018080602001828103825283818151815260200191508051906020019080838360005b83811015613aaf578181015183820152602001613a97565b50505050905090810190601f168015613adc5780820380516001836020036101000a031916815260200191505b509250505060405180910390fd5b6040518060a001604052806000815260200160008152602001600081526020016000151581526020016000151581525090565b60405180610140016040528060006001600160a01b0316815260200160008152602001600081526020016000815260200160008152602001600081526020016000815260200160001515815260200160008152602001600081525090565b6040518060600160405280600390602082028036833750919291505056fe4f7065726174696f6e733a496e697469616c2070657263656e746167652073686f756c6420626520657175616c20746f2050455243454e544147455f464143544f524f7065726174696f6e733a2057726f6e6720696e697469616c2070657263656e746167654f776e61626c653a206e6577206f776e657220697320746865207a65726f20616464726573734f7065726174696f6e733a204e657720737461727454696d65206d757374206265206c657373207468616e206e657720656e6454696d654f7065726174696f6e733a204e6f7420656e6f756768206f66666572696e6720746f6b656e73486172766573743a20416c7265616479206861727665737420696e207468652073616d6520626c6f636b4f7065726174696f6e733a2056657374696e6720656e647320746f6f206561726c79416464726573733a20696e73756666696369656e742062616c616e636520666f722063616c6c4f7065726174696f6e733a204e657720737461727454696d65206d7573742062652067726561746572207468616e2063757272656e742074696d657374616d704465706f7369743a204e657720616d6f756e742061626f76652075736572206c696d6974536166654d6174683a206d756c7469706c69636174696f6e206f766572666c6f774f776e61626c653a2063616c6c6572206973206e6f7420746865206f776e65724f7065726174696f6e733a204d6178696d756d20616c6c6f77616e636520657863656564734f7065726174696f6e733a204e6f7420656e6f7567682072616973696e6720746f6b656e734465706f7369743a20546f6b656e73206e6f74206465706f73697465642070726f7065726c795265636f7665723a2043616e6e6f74206265206f66666572696e6720746f6b656e5361666545524332303a204552433230206f7065726174696f6e20646964206e6f7420737563636565644f7065726174696f6e733a20546f6b656e73206d75737420626520626520646966666572656e74a26469706673582212201f6068bf2c2ce1a2fb877ee3016ad7e8079baa507a33519473f338dafbb51dc964736f6c634300060c00334f776e61626c653a206e6577206f776e657220697320746865207a65726f2061646472657373416464726573733a20696e73756666696369656e742062616c616e636520666f722063616c6c4f776e61626c653a2063616c6c6572206973206e6f7420746865206f776e65724f7065726174696f6e733a20537461727454696d65206d75737420626520696e666572696f7220746f20656e6454696d654f7065726174696f6e733a20537461727454696d65206d7573742062652067726561746572207468616e2063757272656e742074696d657374616d705361666545524332303a204552433230206f7065726174696f6e20646964206e6f742073756363656564a26469706673582212205824f1714cad2fb4c907ab86e2f401a320e412f3e1a0d290dff2e6fa655547fc64736f6c634300060c0033",
  "devdoc": {
    "kind": "dev",
    "methods": {
      "deployIFO(address,uint256,uint256,address,address,address,address)": {
        "params": {
          "_adminAddress": ": the admin address for handling tokens",
          "_endTime": ": the end timestamp for the IFO",
          "_offeringToken": ": the token that is offered for the IFO",
          "_startTime": ": the start timestamp for the IFO"
        }
      },
      "owner()": {
        "details": "Returns the address of the current owner."
      },
      "recoverWrongTokens(address)": {
        "details": "This function is only callable by admin.",
        "params": {
          "_tokenAddress": ": the address of the token to withdraw"
        }
      },
      "renounceOwnership()": {
        "details": "Leaves the contract without owner. It will not be possible to call `onlyOwner` functions anymore. Can only be called by the current owner. NOTE: Renouncing ownership will leave the contract without an owner, thereby removing any functionality that is only available to the owner."
      },
      "transferOwnership(address)": {
        "details": "Transfers ownership of the contract to a new account (`newOwner`). Can only be called by the current owner."
      }
    },
    "title": "IFODeployer",
    "version": 1
  },
  "userdoc": {
    "kind": "user",
    "methods": {
      "constructor": "Constructor",
      "deployIFO(address,uint256,uint256,address,address,address,address)": {
        "notice": "It deploy the IFO contract and initializes the contract."
      },
      "recoverWrongTokens(address)": {
        "notice": "It allows the admin to recover wrong tokens sent to the contract"
      }
    },
    "version": 1
  },
  "storageLayout": {
    "storage": [
      {
        "astId": 7,
        "contract": "contracts/ifo/IFODeployer.sol:IFODeployer",
        "label": "_owner",
        "offset": 0,
        "slot": "0",
        "type": "t_address"
      }
    ],
    "types": {
      "t_address": {
        "encoding": "inplace",
        "label": "address",
        "numberOfBytes": "20"
      }
    }
  }
}