{
  "address": "0xc77E21a09eec581045ffC72c6CD73421Abe34dF3",
  "abi": [
    {
      "inputs": [
        {
          "internalType": "address",
          "name": "beneficiary",
          "type": "address"
        },
        {
          "internalType": "uint256",
          "name": "start",
          "type": "uint256"
        },
        {
          "internalType": "uint256",
          "name": "cliffDuration",
          "type": "uint256"
        },
        {
          "internalType": "uint256",
          "name": "duration",
          "type": "uint256"
        }
      ],
      "stateMutability": "nonpayable",
      "type": "constructor"
    },
    {
      "anonymous": false,
      "inputs": [
        {
          "indexed": true,
          "internalType": "address",
          "name": "previousOwner",
          "type": "address"
        },
        {
          "indexed": true,
          "internalType": "address",
          "name": "newOwner",
          "type": "address"
        }
      ],
      "name": "OwnershipTransferred",
      "type": "event"
    },
    {
      "anonymous": false,
      "inputs": [
        {
          "indexed": false,
          "internalType": "address",
          "name": "token",
          "type": "address"
        }
      ],
      "name": "TokenVestingRevoked",
      "type": "event"
    },
    {
      "anonymous": false,
      "inputs": [
        {
          "indexed": false,
          "internalType": "address",
          "name": "token",
          "type": "address"
        },
        {
          "indexed": false,
          "internalType": "uint256",
          "name": "amount",
          "type": "uint256"
        }
      ],
      "name": "TokensReleased",
      "type": "event"
    },
    {
      "inputs": [],
      "name": "beneficiary",
      "outputs": [
        {
          "internalType": "address",
          "name": "",
          "type": "address"
        }
      ],
      "stateMutability": "view",
      "type": "function"
    },
    {
      "inputs": [],
      "name": "cliff",
      "outputs": [
        {
          "internalType": "uint256",
          "name": "",
          "type": "uint256"
        }
      ],
      "stateMutability": "view",
      "type": "function"
    },
    {
      "inputs": [],
      "name": "duration",
      "outputs": [
        {
          "internalType": "uint256",
          "name": "",
          "type": "uint256"
        }
      ],
      "stateMutability": "view",
      "type": "function"
    },
    {
      "inputs": [],
      "name": "owner",
      "outputs": [
        {
          "internalType": "address",
          "name": "",
          "type": "address"
        }
      ],
      "stateMutability": "view",
      "type": "function"
    },
    {
      "inputs": [
        {
          "internalType": "contract IERC20",
          "name": "token",
          "type": "address"
        }
      ],
      "name": "release",
      "outputs": [],
      "stateMutability": "nonpayable",
      "type": "function"
    },
    {
      "inputs": [
        {
          "internalType": "address",
          "name": "token",
          "type": "address"
        }
      ],
      "name": "released",
      "outputs": [
        {
          "internalType": "uint256",
          "name": "",
          "type": "uint256"
        }
      ],
      "stateMutability": "view",
      "type": "function"
    },
    {
      "inputs": [],
      "name": "renounceOwnership",
      "outputs": [],
      "stateMutability": "nonpayable",
      "type": "function"
    },
    {
      "inputs": [],
      "name": "start",
      "outputs": [
        {
          "internalType": "uint256",
          "name": "",
          "type": "uint256"
        }
      ],
      "stateMutability": "view",
      "type": "function"
    },
    {
      "inputs": [
        {
          "internalType": "address",
          "name": "newOwner",
          "type": "address"
        }
      ],
      "name": "transferOwnership",
      "outputs": [],
      "stateMutability": "nonpayable",
      "type": "function"
    }
  ],
  "transactionHash": "0x8bf2d0e855f624f86f9a805e5ddd391d3d5d5f50db9d63d994aa93d616a99e0b",
  "args": [
    "0x7d5d7Df17739d531dBb2d795df6D3408E3bE1278",
    1652313600,
    7776000,
    31536000
  ],
  "solcInputHash": "b0191412d6db60d2913615e97999bbd0",
  "bytecode": "0x608060405234801561001057600080fd5b50604051610e3e380380610e3e8339818101604052608081101561003357600080fd5b5080516020820151604083015160609093015191929091600061005461020e565b600080546001600160a01b0319166001600160a01b0383169081178255604051929350917f8be0079c531659141344cd1fd0a4f28419497f9722a3daafe3b4186f6b6457e0908290a3506001600160a01b0384166100e35760405162461bcd60e51b815260040180806020018281038252602d815260200180610de6602d913960400191505060405180910390fd5b808211156101225760405162461bcd60e51b815260040180806020018281038252602b815260200180610e13602b913960400191505060405180910390fd5b60008111610177576040805162461bcd60e51b815260206004820152601b60248201527f546f6b656e56657374696e673a206475726174696f6e20697320300000000000604482015290519081900360640190fd5b4261018f828561021260201b6104841790919060201c565b116101cb5760405162461bcd60e51b815260040180806020018281038252602f815260200180610db7602f913960400191505060405180910390fd5b600180546001600160a01b0319166001600160a01b03861617905560048190556102008383610212602090811b61048417901c565b600255505060035550610273565b3390565b60008282018381101561026c576040805162461bcd60e51b815260206004820152601b60248201527f536166654d6174683a206164646974696f6e206f766572666c6f770000000000604482015290519081900360640190fd5b9392505050565b610b35806102826000396000f3fe608060405234801561001057600080fd5b50600436106100935760003560e01c8063715018a611610066578063715018a6146101065780638da5cb5b1461010e5780639852595c14610116578063be9a65551461013c578063f2fde38b1461014457610093565b80630fb5a6b41461009857806313d033c0146100b257806319165587146100ba57806338af3eed146100e2575b600080fd5b6100a061016a565b60408051918252519081900360200190f35b6100a0610170565b6100e0600480360360208110156100d057600080fd5b50356001600160a01b0316610176565b005b6100ea61026f565b604080516001600160a01b039092168252519081900360200190f35b6100e061027e565b6100ea61033c565b6100a06004803603602081101561012c57600080fd5b50356001600160a01b031661034b565b6100a061036a565b6100e06004803603602081101561015a57600080fd5b50356001600160a01b0316610370565b60045490565b60025490565b6000610181826104e7565b9050600081116101d8576040805162461bcd60e51b815260206004820152601f60248201527f546f6b656e56657374696e673a206e6f20746f6b656e73206172652064756500604482015290519081900360640190fd5b6001600160a01b0382166000908152600560205260409020546101fb9082610484565b6001600160a01b0380841660008181526005602052604090209290925560015461022792911683610513565b604080516001600160a01b03841681526020810183905281517fc7798891864187665ac6dd119286e44ec13f014527aeeb2b8eb3fd413df93179929181900390910190a15050565b6001546001600160a01b031690565b61028661056a565b6001600160a01b031661029761033c565b6001600160a01b0316146102f2576040805162461bcd60e51b815260206004820181905260248201527f4f776e61626c653a2063616c6c6572206973206e6f7420746865206f776e6572604482015290519081900360640190fd5b600080546040516001600160a01b03909116907f8be0079c531659141344cd1fd0a4f28419497f9722a3daafe3b4186f6b6457e0908390a3600080546001600160a01b0319169055565b6000546001600160a01b031690565b6001600160a01b0381166000908152600560205260409020545b919050565b60035490565b61037861056a565b6001600160a01b031661038961033c565b6001600160a01b0316146103e4576040805162461bcd60e51b815260206004820181905260248201527f4f776e61626c653a2063616c6c6572206973206e6f7420746865206f776e6572604482015290519081900360640190fd5b6001600160a01b0381166104295760405162461bcd60e51b8152600401808060200182810382526026815260200180610a696026913960400191505060405180910390fd5b600080546040516001600160a01b03808516939216917f8be0079c531659141344cd1fd0a4f28419497f9722a3daafe3b4186f6b6457e091a3600080546001600160a01b0319166001600160a01b0392909216919091179055565b6000828201838110156104de576040805162461bcd60e51b815260206004820152601b60248201527f536166654d6174683a206164646974696f6e206f766572666c6f770000000000604482015290519081900360640190fd5b90505b92915050565b6001600160a01b0381166000908152600560205260408120546104e19061050d8461056e565b9061067b565b604080516001600160a01b038416602482015260448082018490528251808303909101815260649091019091526020810180516001600160e01b031663a9059cbb60e01b1790526105659084906106d8565b505050565b3390565b600080826001600160a01b03166370a08231306040518263ffffffff1660e01b815260040180826001600160a01b0316815260200191505060206040518083038186803b1580156105be57600080fd5b505afa1580156105d2573d6000803e3d6000fd5b505050506040513d60208110156105e857600080fd5b50516001600160a01b03841660009081526005602052604081205491925090610612908390610484565b905060025442101561062957600092505050610365565b60045460035461063891610484565b42106106475791506103659050565b61067260045461066c6106656003544261067b90919063ffffffff16565b8490610789565b906107e2565b92505050610365565b6000828211156106d2576040805162461bcd60e51b815260206004820152601e60248201527f536166654d6174683a207375627472616374696f6e206f766572666c6f770000604482015290519081900360640190fd5b50900390565b606061072d826040518060400160405280602081526020017f5361666545524332303a206c6f772d6c6576656c2063616c6c206661696c6564815250856001600160a01b03166108499092919063ffffffff16565b8051909150156105655780806020019051602081101561074c57600080fd5b50516105655760405162461bcd60e51b815260040180806020018281038252602a815260200180610ad6602a913960400191505060405180910390fd5b600082610798575060006104e1565b828202828482816107a557fe5b04146104de5760405162461bcd60e51b8152600401808060200182810382526021815260200180610ab56021913960400191505060405180910390fd5b6000808211610838576040805162461bcd60e51b815260206004820152601a60248201527f536166654d6174683a206469766973696f6e206279207a65726f000000000000604482015290519081900360640190fd5b81838161084157fe5b049392505050565b60606108588484600085610862565b90505b9392505050565b6060824710156108a35760405162461bcd60e51b8152600401808060200182810382526026815260200180610a8f6026913960400191505060405180910390fd5b6108ac856109be565b6108fd576040805162461bcd60e51b815260206004820152601d60248201527f416464726573733a2063616c6c20746f206e6f6e2d636f6e7472616374000000604482015290519081900360640190fd5b60006060866001600160a01b031685876040518082805190602001908083835b6020831061093c5780518252601f19909201916020918201910161091d565b6001836020036101000a03801982511681845116808217855250505050505090500191505060006040518083038185875af1925050503d806000811461099e576040519150601f19603f3d011682016040523d82523d6000602084013e6109a3565b606091505b50915091506109b38282866109c4565b979650505050505050565b3b151590565b606083156109d357508161085b565b8251156109e35782518084602001fd5b8160405162461bcd60e51b81526004018080602001828103825283818151815260200191508051906020019080838360005b83811015610a2d578181015183820152602001610a15565b50505050905090810190601f168015610a5a5780820380516001836020036101000a031916815260200191505b509250505060405180910390fdfe4f776e61626c653a206e6577206f776e657220697320746865207a65726f2061646472657373416464726573733a20696e73756666696369656e742062616c616e636520666f722063616c6c536166654d6174683a206d756c7469706c69636174696f6e206f766572666c6f775361666545524332303a204552433230206f7065726174696f6e20646964206e6f742073756363656564a2646970667358221220d7d8e9d46666810136339e9d11610c38babe0b49fee6cf335d95c27beebba43164736f6c634300060c0033546f6b656e56657374696e673a2066696e616c2074696d65206973206265666f72652063757272656e742074696d65546f6b656e56657374696e673a2062656e656669636961727920697320746865207a65726f2061646472657373546f6b656e56657374696e673a20636c696666206973206c6f6e676572207468616e206475726174696f6e",
  "devdoc": {
    "details": "A token holder contract that can release its token balance gradually like a typical vesting scheme, with a cliff and vesting period. Optionally revocable by the owner.",
    "kind": "dev",
    "methods": {
      "beneficiary()": {
        "returns": {
          "_0": "the beneficiary of the tokens."
        }
      },
      "cliff()": {
        "returns": {
          "_0": "the cliff time of the token vesting."
        }
      },
      "constructor": {
        "details": "Creates a vesting contract that vests its balance of any ERC20 token to the beneficiary, gradually in a linear fashion until start + duration. By then all of the balance will have vested.",
        "params": {
          "beneficiary": "address of the beneficiary to whom vested tokens are transferred",
          "cliffDuration": "duration in seconds of the cliff in which tokens will begin to vest",
          "duration": "duration in seconds of the period in which the tokens will vest",
          "start": "the time (as Unix time) at which point vesting starts"
        }
      },
      "duration()": {
        "returns": {
          "_0": "the duration of the token vesting."
        }
      },
      "owner()": {
        "details": "Returns the address of the current owner."
      },
      "release(address)": {
        "params": {
          "token": "ERC20 token which is being vested"
        }
      },
      "released(address)": {
        "returns": {
          "_0": "the amount of the token released."
        }
      },
      "renounceOwnership()": {
        "details": "Leaves the contract without owner. It will not be possible to call `onlyOwner` functions anymore. Can only be called by the current owner. NOTE: Renouncing ownership will leave the contract without an owner, thereby removing any functionality that is only available to the owner."
      },
      "start()": {
        "returns": {
          "_0": "the start time of the token vesting."
        }
      },
      "transferOwnership(address)": {
        "details": "Transfers ownership of the contract to a new account (`newOwner`). Can only be called by the current owner."
      }
    },
    "title": "TeamTokenVesting",
    "version": 1
  },
  "userdoc": {
    "kind": "user",
    "methods": {
      "release(address)": {
        "notice": "Transfers vested tokens to beneficiary."
      }
    },
    "version": 1
  },
  "storageLayout": {
    "storage": [
      {
        "astId": 10,
        "contract": "contracts/tools/TeamTokenVesting.sol:TeamTokenVesting",
        "label": "_owner",
        "offset": 0,
        "slot": "0",
        "type": "t_address"
      },
      {
        "astId": 35554,
        "contract": "contracts/tools/TeamTokenVesting.sol:TeamTokenVesting",
        "label": "_beneficiary",
        "offset": 0,
        "slot": "1",
        "type": "t_address"
      },
      {
        "astId": 35556,
        "contract": "contracts/tools/TeamTokenVesting.sol:TeamTokenVesting",
        "label": "_cliff",
        "offset": 0,
        "slot": "2",
        "type": "t_uint256"
      },
      {
        "astId": 35558,
        "contract": "contracts/tools/TeamTokenVesting.sol:TeamTokenVesting",
        "label": "_start",
        "offset": 0,
        "slot": "3",
        "type": "t_uint256"
      },
      {
        "astId": 35560,
        "contract": "contracts/tools/TeamTokenVesting.sol:TeamTokenVesting",
        "label": "_duration",
        "offset": 0,
        "slot": "4",
        "type": "t_uint256"
      },
      {
        "astId": 35564,
        "contract": "contracts/tools/TeamTokenVesting.sol:TeamTokenVesting",
        "label": "_released",
        "offset": 0,
        "slot": "5",
        "type": "t_mapping(t_address,t_uint256)"
      }
    ],
    "types": {
      "t_address": {
        "encoding": "inplace",
        "label": "address",
        "numberOfBytes": "20"
      },
      "t_mapping(t_address,t_uint256)": {
        "encoding": "mapping",
        "key": "t_address",
        "label": "mapping(address => uint256)",
        "numberOfBytes": "32",
        "value": "t_uint256"
      },
      "t_uint256": {
        "encoding": "inplace",
        "label": "uint256",
        "numberOfBytes": "32"
      }
    }
  }
}