{
  "address": "0x64108b11bcBC8342517343e992F7b3177d995804",
  "abi": [
    {
      "inputs": [
        {
          "internalType": "address",
          "name": "_treasury",
          "type": "address"
        },
        {
          "internalType": "address",
          "name": "_keeper",
          "type": "address"
        },
        {
          "internalType": "address",
          "name": "_usdc",
          "type": "address"
        },
        {
          "internalType": "address",
          "name": "_token",
          "type": "address"
        },
        {
          "internalType": "uint256",
          "name": "_tokenPrice",
          "type": "uint256"
        },
        {
          "internalType": "uint256",
          "name": "_basePrice",
          "type": "uint256"
        },
        {
          "internalType": "uint256",
          "name": "_minTokensAmount",
          "type": "uint256"
        },
        {
          "internalType": "uint256",
          "name": "_maxTokensAmount",
          "type": "uint256"
        },
        {
          "internalType": "uint256",
          "name": "_privateSaleTokenPool",
          "type": "uint256"
        },
        {
          "internalType": "uint256",
          "name": "_privateSaleStart",
          "type": "uint256"
        },
        {
          "internalType": "uint256",
          "name": "_privateSaleEnd",
          "type": "uint256"
        },
        {
          "internalType": "uint256",
          "name": "_vestingDuration",
          "type": "uint256"
        }
      ],
      "stateMutability": "nonpayable",
      "type": "constructor"
    },
    {
      "anonymous": false,
      "inputs": [
        {
          "indexed": true,
          "internalType": "address",
          "name": "previousOwner",
          "type": "address"
        },
        {
          "indexed": true,
          "internalType": "address",
          "name": "newOwner",
          "type": "address"
        }
      ],
      "name": "OwnershipTransferred",
      "type": "event"
    },
    {
      "anonymous": false,
      "inputs": [
        {
          "indexed": false,
          "internalType": "address",
          "name": "account",
          "type": "address"
        }
      ],
      "name": "Paused",
      "type": "event"
    },
    {
      "anonymous": false,
      "inputs": [
        {
          "indexed": true,
          "internalType": "address",
          "name": "user",
          "type": "address"
        },
        {
          "indexed": false,
          "internalType": "address",
          "name": "coin",
          "type": "address"
        },
        {
          "indexed": false,
          "internalType": "uint256",
          "name": "coinAmount",
          "type": "uint256"
        },
        {
          "indexed": false,
          "internalType": "uint256",
          "name": "tokenAmount",
          "type": "uint256"
        }
      ],
      "name": "TokenPurchased",
      "type": "event"
    },
    {
      "anonymous": false,
      "inputs": [
        {
          "indexed": true,
          "internalType": "address",
          "name": "user",
          "type": "address"
        },
        {
          "indexed": false,
          "internalType": "uint256",
          "name": "tokenAmount",
          "type": "uint256"
        }
      ],
      "name": "TokensClaimed",
      "type": "event"
    },
    {
      "anonymous": false,
      "inputs": [
        {
          "indexed": false,
          "internalType": "address",
          "name": "account",
          "type": "address"
        }
      ],
      "name": "Unpaused",
      "type": "event"
    },
    {
      "inputs": [],
      "name": "PRECISION",
      "outputs": [
        {
          "internalType": "uint256",
          "name": "",
          "type": "uint256"
        }
      ],
      "stateMutability": "view",
      "type": "function"
    },
    {
      "inputs": [],
      "name": "USDC",
      "outputs": [
        {
          "internalType": "address",
          "name": "",
          "type": "address"
        }
      ],
      "stateMutability": "view",
      "type": "function"
    },
    {
      "inputs": [],
      "name": "WITHDRAWAL_PERIOD",
      "outputs": [
        {
          "internalType": "uint256",
          "name": "",
          "type": "uint256"
        }
      ],
      "stateMutability": "view",
      "type": "function"
    },
    {
      "inputs": [
        {
          "internalType": "address",
          "name": "_receiver",
          "type": "address"
        },
        {
          "internalType": "uint256",
          "name": "_amount",
          "type": "uint256"
        }
      ],
      "name": "adminAddPurchase",
      "outputs": [],
      "stateMutability": "nonpayable",
      "type": "function"
    },
    {
      "inputs": [],
      "name": "adminPause",
      "outputs": [],
      "stateMutability": "nonpayable",
      "type": "function"
    },
    {
      "inputs": [
        {
          "internalType": "uint256",
          "name": "_price",
          "type": "uint256"
        }
      ],
      "name": "adminSetBasePrice",
      "outputs": [],
      "stateMutability": "nonpayable",
      "type": "function"
    },
    {
      "inputs": [
        {
          "internalType": "uint256",
          "name": "_maxGasPrice",
          "type": "uint256"
        }
      ],
      "name": "adminSetMaxGasPrice",
      "outputs": [],
      "stateMutability": "nonpayable",
      "type": "function"
    },
    {
      "inputs": [
        {
          "internalType": "uint256",
          "name": "_maxToken",
          "type": "uint256"
        }
      ],
      "name": "adminSetMaxToken",
      "outputs": [],
      "stateMutability": "nonpayable",
      "type": "function"
    },
    {
      "inputs": [
        {
          "internalType": "uint256",
          "name": "_minToken",
          "type": "uint256"
        }
      ],
      "name": "adminSetMinToken",
      "outputs": [],
      "stateMutability": "nonpayable",
      "type": "function"
    },
    {
      "inputs": [
        {
          "internalType": "address",
          "name": "_priceFeed",
          "type": "address"
        }
      ],
      "name": "adminSetPriceFeed",
      "outputs": [],
      "stateMutability": "nonpayable",
      "type": "function"
    },
    {
      "inputs": [
        {
          "internalType": "address",
          "name": "_treasury",
          "type": "address"
        }
      ],
      "name": "adminSetTreasury",
      "outputs": [],
      "stateMutability": "nonpayable",
      "type": "function"
    },
    {
      "inputs": [
        {
          "internalType": "uint256",
          "name": "_vestingStart",
          "type": "uint256"
        }
      ],
      "name": "adminSetVestingStart",
      "outputs": [],
      "stateMutability": "nonpayable",
      "type": "function"
    },
    {
      "inputs": [
        {
          "internalType": "address[]",
          "name": "_users",
          "type": "address[]"
        },
        {
          "internalType": "bool",
          "name": "_flag",
          "type": "bool"
        }
      ],
      "name": "adminSetWhitelisted",
      "outputs": [],
      "stateMutability": "nonpayable",
      "type": "function"
    },
    {
      "inputs": [],
      "name": "adminUnpause",
      "outputs": [],
      "stateMutability": "nonpayable",
      "type": "function"
    },
    {
      "inputs": [
        {
          "internalType": "address",
          "name": "ERC20token",
          "type": "address"
        }
      ],
      "name": "adminWithdrawERC20",
      "outputs": [],
      "stateMutability": "nonpayable",
      "type": "function"
    },
    {
      "inputs": [],
      "name": "adminWithdrawETH",
      "outputs": [],
      "stateMutability": "nonpayable",
      "type": "function"
    },
    {
      "inputs": [],
      "name": "basePrice",
      "outputs": [
        {
          "internalType": "uint256",
          "name": "",
          "type": "uint256"
        }
      ],
      "stateMutability": "view",
      "type": "function"
    },
    {
      "inputs": [
        {
          "internalType": "address",
          "name": "_coin",
          "type": "address"
        },
        {
          "internalType": "uint256",
          "name": "_amount",
          "type": "uint256"
        }
      ],
      "name": "calcCoinPurchasedAmount",
      "outputs": [
        {
          "internalType": "uint256",
          "name": "",
          "type": "uint256"
        }
      ],
      "stateMutability": "view",
      "type": "function"
    },
    {
      "inputs": [
        {
          "internalType": "uint256",
          "name": "_amount",
          "type": "uint256"
        }
      ],
      "name": "calcEthPurchasedAmount",
      "outputs": [
        {
          "internalType": "uint256",
          "name": "",
          "type": "uint256"
        }
      ],
      "stateMutability": "view",
      "type": "function"
    },
    {
      "inputs": [],
      "name": "claim",
      "outputs": [],
      "stateMutability": "nonpayable",
      "type": "function"
    },
    {
      "inputs": [
        {
          "internalType": "address",
          "name": "_user",
          "type": "address"
        }
      ],
      "name": "claimable",
      "outputs": [
        {
          "internalType": "uint256",
          "name": "",
          "type": "uint256"
        }
      ],
      "stateMutability": "view",
      "type": "function"
    },
    {
      "inputs": [
        {
          "internalType": "address",
          "name": "_user",
          "type": "address"
        }
      ],
      "name": "claimed",
      "outputs": [
        {
          "internalType": "uint256",
          "name": "",
          "type": "uint256"
        }
      ],
      "stateMutability": "view",
      "type": "function"
    },
    {
      "inputs": [
        {
          "internalType": "address",
          "name": "_user",
          "type": "address"
        }
      ],
      "name": "locked",
      "outputs": [
        {
          "internalType": "uint256",
          "name": "",
          "type": "uint256"
        }
      ],
      "stateMutability": "view",
      "type": "function"
    },
    {
      "inputs": [],
      "name": "maxGasPrice",
      "outputs": [
        {
          "internalType": "uint256",
          "name": "",
          "type": "uint256"
        }
      ],
      "stateMutability": "view",
      "type": "function"
    },
    {
      "inputs": [],
      "name": "maxTokensAmount",
      "outputs": [
        {
          "internalType": "uint256",
          "name": "",
          "type": "uint256"
        }
      ],
      "stateMutability": "view",
      "type": "function"
    },
    {
      "inputs": [],
      "name": "minTokensAmount",
      "outputs": [
        {
          "internalType": "uint256",
          "name": "",
          "type": "uint256"
        }
      ],
      "stateMutability": "view",
      "type": "function"
    },
    {
      "inputs": [],
      "name": "owner",
      "outputs": [
        {
          "internalType": "address",
          "name": "",
          "type": "address"
        }
      ],
      "stateMutability": "view",
      "type": "function"
    },
    {
      "inputs": [],
      "name": "paused",
      "outputs": [
        {
          "internalType": "bool",
          "name": "",
          "type": "bool"
        }
      ],
      "stateMutability": "view",
      "type": "function"
    },
    {
      "inputs": [],
      "name": "priceFeed",
      "outputs": [
        {
          "internalType": "contract AggregatorV3Interface",
          "name": "",
          "type": "address"
        }
      ],
      "stateMutability": "view",
      "type": "function"
    },
    {
      "inputs": [],
      "name": "privateSaleEnd",
      "outputs": [
        {
          "internalType": "uint256",
          "name": "",
          "type": "uint256"
        }
      ],
      "stateMutability": "view",
      "type": "function"
    },
    {
      "inputs": [],
      "name": "privateSaleStart",
      "outputs": [
        {
          "internalType": "uint256",
          "name": "",
          "type": "uint256"
        }
      ],
      "stateMutability": "view",
      "type": "function"
    },
    {
      "inputs": [],
      "name": "privateSaleTokenPool",
      "outputs": [
        {
          "internalType": "uint256",
          "name": "",
          "type": "uint256"
        }
      ],
      "stateMutability": "view",
      "type": "function"
    },
    {
      "inputs": [
        {
          "internalType": "address",
          "name": "coin",
          "type": "address"
        },
        {
          "internalType": "uint256",
          "name": "amount",
          "type": "uint256"
        }
      ],
      "name": "purchaseTokenWithCoin",
      "outputs": [],
      "stateMutability": "nonpayable",
      "type": "function"
    },
    {
      "inputs": [],
      "name": "purchaseTokenWithETH",
      "outputs": [],
      "stateMutability": "payable",
      "type": "function"
    },
    {
      "inputs": [
        {
          "internalType": "address",
          "name": "",
          "type": "address"
        }
      ],
      "name": "purchased",
      "outputs": [
        {
          "internalType": "uint256",
          "name": "",
          "type": "uint256"
        }
      ],
      "stateMutability": "view",
      "type": "function"
    },
    {
      "inputs": [],
      "name": "purchasedPrivateSale",
      "outputs": [
        {
          "internalType": "uint256",
          "name": "",
          "type": "uint256"
        }
      ],
      "stateMutability": "view",
      "type": "function"
    },
    {
      "inputs": [],
      "name": "renounceOwnership",
      "outputs": [],
      "stateMutability": "nonpayable",
      "type": "function"
    },
    {
      "inputs": [],
      "name": "token",
      "outputs": [
        {
          "internalType": "address",
          "name": "",
          "type": "address"
        }
      ],
      "stateMutability": "view",
      "type": "function"
    },
    {
      "inputs": [],
      "name": "tokenPrice",
      "outputs": [
        {
          "internalType": "uint256",
          "name": "",
          "type": "uint256"
        }
      ],
      "stateMutability": "view",
      "type": "function"
    },
    {
      "inputs": [
        {
          "internalType": "address",
          "name": "newOwner",
          "type": "address"
        }
      ],
      "name": "transferOwnership",
      "outputs": [],
      "stateMutability": "nonpayable",
      "type": "function"
    },
    {
      "inputs": [],
      "name": "vestingDuration",
      "outputs": [
        {
          "internalType": "uint256",
          "name": "",
          "type": "uint256"
        }
      ],
      "stateMutability": "view",
      "type": "function"
    },
    {
      "inputs": [],
      "name": "vestingStart",
      "outputs": [
        {
          "internalType": "uint256",
          "name": "",
          "type": "uint256"
        }
      ],
      "stateMutability": "view",
      "type": "function"
    },
    {
      "inputs": [
        {
          "internalType": "address",
          "name": "",
          "type": "address"
        }
      ],
      "name": "whitelisted",
      "outputs": [
        {
          "internalType": "bool",
          "name": "",
          "type": "bool"
        }
      ],
      "stateMutability": "view",
      "type": "function"
    },
    {
      "stateMutability": "payable",
      "type": "receive"
    }
  ],
  "transactionHash": "0xf59ca9fc72fbde18dab7ee048aecb4b24f269ef3f08381a603f0e2ebde4665ae",
  "args": [
    "0x0aA282136b3924ca6767C4D5B9aad6f83bD40A9c",
    "0x0aA282136b3924ca6767C4D5B9aad6f83bD40A9c",
    "0xae95d4890bf4471501E0066b6c6244E1CAaEe791",
    "0x7cBa32163a8f4c56C846f5C3685E3b7a450c9002",
    "45000",
    "4150000",
    "22000000000000000000",
    "444445000000000000000000",
    "17333335000000000000000000",
    1651845900,
    1651847700,
    31536000
  ],
  "solcInputHash": "1c6ff8b0627a77f44f9d21156d882052",
  "bytecode": "0x60806040523480156200001157600080fd5b5060405162002a0d38038062002a0d8339810160408190526200003491620001d4565b600062000040620001b2565b600080546001600160a01b0319166001600160a01b0383169081178255604051929350917f8be0079c531659141344cd1fd0a4f28419497f9722a3daafe3b4186f6b6457e0908290a3506000805460ff60a01b191690556001600160a01b038c16620000c95760405162461bcd60e51b8152600401620000c090620002ca565b60405180910390fd5b60008311620000ec5760405162461bcd60e51b8152600401620000c090620002aa565b8282116200010e5760405162461bcd60e51b8152600401620000c09062000284565b630208c0808110620001345760405162461bcd60e51b8152600401620000c090620002ed565b601280546001600160a01b039d8e166001600160a01b031991821617909155601380549c8e169c82169c909c17909b55600180549a8d169a8c169a909a17909955600b805498909b169790991696909617909855600c93909355601191909155600255600355600893909355600692909255600755600a5562000331565b3390565b80516001600160a01b0381168114620001ce57600080fd5b92915050565b6000806000806000806000806000806000806101808d8f031215620001f7578788fd5b620002038e8e620001b6565b9b50620002148e60208f01620001b6565b9a50620002258e60408f01620001b6565b9950620002368e60608f01620001b6565b985060808d0151975060a08d0151965060c08d0151955060e08d015194506101008d015193506101208d015192506101408d015191506101608d015190509295989b509295989b509295989b565b6020808252600c908201526b1cdd185c9d080f8f48195b9960a21b604082015260600190565b602080825260069082015265085cdd185c9d60d21b604082015260600190565b60208082526009908201526821747265617375727960b81b604082015260600190565b60208082526024908201527f76657374696e674475726174696f6e203e3d205749544844524157414c5f5045604082015263149253d160e21b606082015260800190565b6126cc80620003416000396000f3fe6080604052600436106102605760003560e01c8063741bef1a11610144578063c20860af116100b6578063d4b194851161007a578063d4b1948514610697578063d936547e146106b7578063dea54651146106d7578063ed84fc91146106f7578063f2fde38b1461070c578063fc0c546a1461072c576102c1565b8063c20860af1461060d578063c7876ea414610622578063c884ef8314610637578063cbf9fe5f14610657578063d26a696214610677576102c1565b80638a3ef9a7116101085780638a3ef9a7146105915780638da5cb5b1461059957806392f9c067146105ae5780639731a486146105c3578063aaf5eb68146105d8578063b0b401c2146105ed576102c1565b8063741bef1a1461050557806377bb5c45146105275780637e0d4b68146105475780637ff9b5961461056757806389a302711461057c576102c1565b806330689fdb116101dd5780634e71d92d116101a15780634e71d92d1461046f578063522fe98e146104845780635c975abb146104a457806360423455146104c6578063712b49ac146104db578063715018a6146104f0576102c1565b806330689fdb146103e557806332330eac146103fa5780633de39c111461041a578063402914f51461042f578063447e0b541461044f576102c1565b80631955462a116102245780631955462a1461035b57806319a33ea21461037b5780631d1d9b471461039b5780631dd8097b146103bb578063254800d4146103d0576102c1565b80630914bc27146102c65780630a384665146102fc5780630bf390b8146103115780631514617e1461032657806316932b061461033b576102c1565b366102c15761026d610741565b6102925760405162461bcd60e51b815260040161028990612133565b60405180910390fd5b61029a61075b565b156102b75760405162461bcd60e51b81526004016102899061231b565b6102bf61076b565b005b600080fd5b3480156102d257600080fd5b506102e66102e1366004611e96565b610944565b6040516102f3919061262c565b60405180910390f35b34801561030857600080fd5b506102e6610ac7565b34801561031d57600080fd5b506102e6610acd565b34801561033257600080fd5b506102e6610ad5565b34801561034757600080fd5b506102bf610356366004611e96565b610adb565b34801561036757600080fd5b506102e6610376366004611d91565b610b6b565b34801561038757600080fd5b506102bf610396366004611d76565b610c1b565b3480156103a757600080fd5b506102bf6103b6366004611d76565b610e26565b3480156103c757600080fd5b506102e6610e87565b3480156103dc57600080fd5b506102e6610e8d565b3480156103f157600080fd5b506102e6610e93565b34801561040657600080fd5b506102bf610415366004611d91565b610e99565b34801561042657600080fd5b506102e66110dc565b34801561043b57600080fd5b506102e661044a366004611d76565b6110e2565b34801561045b57600080fd5b506102bf61046a366004611e96565b611108565b34801561047b57600080fd5b506102bf611171565b34801561049057600080fd5b506102e661049f366004611d76565b611283565b3480156104b057600080fd5b506104b961075b565b6040516102f39190611fc9565b3480156104d257600080fd5b506102e6611295565b3480156104e757600080fd5b506102e661129b565b3480156104fc57600080fd5b506102bf6112a1565b34801561051157600080fd5b5061051a61132a565b6040516102f39190611f57565b34801561053357600080fd5b506102bf610542366004611d76565b611339565b34801561055357600080fd5b506102bf610562366004611e96565b61139a565b34801561057357600080fd5b506102e66113de565b34801561058857600080fd5b5061051a6113e4565b6102bf6113f3565b3480156105a557600080fd5b5061051a611466565b3480156105ba57600080fd5b506102bf611475565b3480156105cf57600080fd5b506102e66114bc565b3480156105e457600080fd5b506102e66114c2565b3480156105f957600080fd5b506102bf610608366004611e96565b6114c9565b34801561061957600080fd5b506102bf61150d565b34801561062e57600080fd5b506102e6611554565b34801561064357600080fd5b506102e6610652366004611d76565b61155a565b34801561066357600080fd5b506102e6610672366004611d76565b611575565b34801561068357600080fd5b506102bf610692366004611dbb565b6115a2565b3480156106a357600080fd5b506102bf6106b2366004611e96565b61163d565b3480156106c357600080fd5b506104b96106d2366004611d76565b611681565b3480156106e357600080fd5b506102bf6106f2366004611d91565b611696565b34801561070357600080fd5b506102bf611718565b34801561071857600080fd5b506102bf610727366004611d76565b611820565b34801561073857600080fd5b5061051a6118e0565b60006006544210158015610756575060075442105b905090565b600054600160a01b900460ff1690565b600454158061077c57506004543a11155b6107985760405162461bcd60e51b81526004016102899061229f565b6107a06118ef565b6001600160a01b0381166000908152600f602052604090205460ff166107d85760405162461bcd60e51b815260040161028990612007565b60006107e334610944565b90506002548110156108075760405162461bcd60e51b8152600401610289906123e0565b60085460105461081790836118f3565b11156108355760405162461bcd60e51b8152600401610289906122d6565b60105461084290826118f3565b60105561087581600d60006108556118ef565b6001600160a01b03168152602081019190915260400160002054906118f3565b600d60006108816118ef565b6001600160a01b03166001600160a01b0316815260200190815260200160002081905550600354600d60006108b46118ef565b6001600160a01b03166001600160a01b031681526020019081526020016000205411156108f35760405162461bcd60e51b8152600401610289906125f5565b6108fb6118ef565b6001600160a01b03167f8daf503382665d950e449b86172be5222275c90f4ddf69c29fdaa8237a562a6d6000348460405161093893929190611f6b565b60405180910390a25050565b6005546000906001600160a01b031615610aa4576005546040805163313ce56760e01b815290516000926001600160a01b03169163313ce567916004808301926020929190829003018186803b15801561099d57600080fd5b505afa1580156109b1573d6000803e3d6000fd5b505050506040513d601f19601f820116820180604052508101906109d59190611f17565b60ff1690506000600560009054906101000a90046001600160a01b03166001600160a01b031663feaf968c6040518163ffffffff1660e01b815260040160a06040518083038186803b158015610a2a57600080fd5b505afa158015610a3e573d6000803e3d6000fd5b505050506040513d601f19601f82011682018060405250810190610a629190611ec6565b505050915050610a9b82600a0a610a95600c54610a95620f4240610a8f878b61191f90919063ffffffff16565b9061191f565b90611959565b92505050610ac2565b610abf600c54610a956011548561191f90919063ffffffff16565b90505b919050565b60035481565b630208c08081565b600a5481565b610ae36118ef565b6001600160a01b0316610af4611466565b6001600160a01b031614610b1a5760405162461bcd60e51b8152600401610289906123ab565b60095415610b3a5760405162461bcd60e51b8152600401610289906125be565b60075481118015610b4a57508042105b610b665760405162461bcd60e51b815260040161028990612473565b600955565b600080610bfa846001600160a01b031663313ce5676040518163ffffffff1660e01b815260040160206040518083038186803b158015610baa57600080fd5b505afa158015610bbe573d6000803e3d6000fd5b505050506040513d601f19601f82011682018060405250810190610be29190611f17565b60ff16600a0a610a9585670de0b6b3a764000061191f565b600c54909150610c1190610a9583620f424061191f565b9150505b92915050565b610c236118ef565b6001600160a01b0316610c34611466565b6001600160a01b031614610c5a5760405162461bcd60e51b8152600401610289906123ab565b610c62610741565b15610c7f5760405162461bcd60e51b8152600401610289906124aa565b600b546000906001600160a01b03838116911614610d1a576040516370a0823160e01b81526001600160a01b038316906370a0823190610cc3903090600401611f57565b60206040518083038186803b158015610cdb57600080fd5b505afa158015610cef573d6000803e3d6000fd5b505050506040513d601f19601f82011682018060405250810190610d139190611eae565b9050610de8565b600954610d2b90630208c0806118f3565b4210610d5d576040516370a0823160e01b81526001600160a01b038316906370a0823190610cc3903090600401611f57565b610de5601054836001600160a01b03166370a08231306040518263ffffffff1660e01b8152600401610d8f9190611f57565b60206040518083038186803b158015610da757600080fd5b505afa158015610dbb573d6000803e3d6000fd5b505050506040513d601f19601f82011682018060405250810190610ddf9190611eae565b9061198b565b90505b60008111610e085760405162461bcd60e51b8152600401610289906124e1565b601254610e22906001600160a01b038481169116836119b3565b5050565b610e2e6118ef565b6001600160a01b0316610e3f611466565b6001600160a01b031614610e655760405162461bcd60e51b8152600401610289906123ab565b601280546001600160a01b0319166001600160a01b0392909216919091179055565b60105481565b60095481565b60075481565b610ea1610741565b610ebd5760405162461bcd60e51b815260040161028990612133565b610ec561075b565b15610ee25760405162461bcd60e51b81526004016102899061231b565b6004541580610ef357506004543a11155b610f0f5760405162461bcd60e51b81526004016102899061229f565b610f176118ef565b6001600160a01b0381166000908152600f602052604090205460ff16610f4f5760405162461bcd60e51b815260040161028990612007565b6001546001600160a01b03848116911614610f7c5760405162461bcd60e51b815260040161028990612443565b6000610f888484610b6b565b9050600254811015610fac5760405162461bcd60e51b8152600401610289906123e0565b601054610fb990826118f3565b60108190556008541015610fdf5760405162461bcd60e51b815260040161028990612546565b610fef81600d60006108556118ef565b600d6000610ffb6118ef565b6001600160a01b03166001600160a01b0316815260200190815260200160002081905550600354600d600061102e6118ef565b6001600160a01b03166001600160a01b0316815260200190815260200160002054111561106d5760405162461bcd60e51b8152600401610289906125f5565b61108a6110786118ef565b6001600160a01b038616903086611a09565b6110926118ef565b6001600160a01b03167f8daf503382665d950e449b86172be5222275c90f4ddf69c29fdaa8237a562a6d8585846040516110ce93929190611f6b565b60405180910390a250505050565b60045481565b6001600160a01b0381166000908152600e6020526040812054610abf90610ddf84611a30565b611110611466565b6001600160a01b03166111216118ef565b6001600160a01b0316148061115057506013546001600160a01b03166111456118ef565b6001600160a01b0316145b61116c5760405162461bcd60e51b81526004016102899061206c565b601155565b611179610741565b156111965760405162461bcd60e51b8152600401610289906124aa565b6009546111b55760405162461bcd60e51b815260040161028990612231565b60006111c261044a6118ef565b9050600081116111e45760405162461bcd60e51b81526004016102899061217d565b6111f481600e60006108556118ef565b600e60006112006118ef565b6001600160a01b031681526020810191909152604001600020556112386112256118ef565b600b546001600160a01b031690836119b3565b6112406118ef565b6001600160a01b03167f896e034966eaaf1adc54acc0f257056febbd300c9e47182cf761982cf1f5e43082604051611278919061262c565b60405180910390a250565b600d6020526000908152604090205481565b60025481565b60085481565b6112a96118ef565b6001600160a01b03166112ba611466565b6001600160a01b0316146112e05760405162461bcd60e51b8152600401610289906123ab565b600080546040516001600160a01b03909116907f8be0079c531659141344cd1fd0a4f28419497f9722a3daafe3b4186f6b6457e0908390a3600080546001600160a01b0319169055565b6005546001600160a01b031681565b6113416118ef565b6001600160a01b0316611352611466565b6001600160a01b0316146113785760405162461bcd60e51b8152600401610289906123ab565b600580546001600160a01b0319166001600160a01b0392909216919091179055565b6113a26118ef565b6001600160a01b03166113b3611466565b6001600160a01b0316146113d95760405162461bcd60e51b8152600401610289906123ab565b600355565b600c5481565b6001546001600160a01b031681565b6113fb610741565b6114175760405162461bcd60e51b815260040161028990612133565b61141f61075b565b1561143c5760405162461bcd60e51b81526004016102899061231b565b6000341161145c5760405162461bcd60e51b815260040161028990612386565b61146461076b565b565b6000546001600160a01b031690565b61147d6118ef565b6001600160a01b031661148e611466565b6001600160a01b0316146114b45760405162461bcd60e51b8152600401610289906123ab565b611464611ac2565b60065481565b620f424081565b6114d16118ef565b6001600160a01b03166114e2611466565b6001600160a01b0316146115085760405162461bcd60e51b8152600401610289906123ab565b600255565b6115156118ef565b6001600160a01b0316611526611466565b6001600160a01b03161461154c5760405162461bcd60e51b8152600401610289906123ab565b611464611b33565b60115481565b6001600160a01b03166000908152600e602052604090205490565b6000610abf61158383611a30565b6001600160a01b0384166000908152600d60205260409020549061198b565b6115aa6118ef565b6001600160a01b03166115bb611466565b6001600160a01b0316146115e15760405162461bcd60e51b8152600401610289906123ab565b60005b82518110156116385781600f60008584815181106115fe57fe5b6020908102919091018101516001600160a01b03168252810191909152604001600020805460ff19169115159190911790556001016115e4565b505050565b6116456118ef565b6001600160a01b0316611656611466565b6001600160a01b03161461167c5760405162461bcd60e51b8152600401610289906123ab565b600455565b600f6020526000908152604090205460ff1681565b61169e6118ef565b6001600160a01b03166116af611466565b6001600160a01b0316146116d55760405162461bcd60e51b8152600401610289906123ab565b6001600160a01b0382166000908152600d60205260409020546116f890826118f3565b6001600160a01b039092166000908152600d602052604090209190915550565b6117206118ef565b6001600160a01b0316611731611466565b6001600160a01b0316146117575760405162461bcd60e51b8152600401610289906123ab565b61175f610741565b1561177c5760405162461bcd60e51b8152600401610289906124aa565b6000471161179c5760405162461bcd60e51b815260040161028990612417565b6012546040516000916001600160a01b03169047906117ba90611f54565b60006040518083038185875af1925050503d80600081146117f7576040519150601f19603f3d011682016040523d82523d6000602084013e6117fc565b606091505b505090508061181d5760405162461bcd60e51b8152600401610289906120d3565b50565b6118286118ef565b6001600160a01b0316611839611466565b6001600160a01b03161461185f5760405162461bcd60e51b8152600401610289906123ab565b6001600160a01b0381166118855760405162461bcd60e51b81526004016102899061208d565b600080546040516001600160a01b03808516939216917f8be0079c531659141344cd1fd0a4f28419497f9722a3daafe3b4186f6b6457e091a3600080546001600160a01b0319166001600160a01b0392909216919091179055565b600b546001600160a01b031681565b3390565b6000828201838110156119185760405162461bcd60e51b8152600401610289906120fc565b9392505050565b60008261192e57506000610c15565b8282028284828161193b57fe5b04146119185760405162461bcd60e51b815260040161028990612345565b600080821161197a5760405162461bcd60e51b815260040161028990612268565b81838161198357fe5b049392505050565b6000828211156119ad5760405162461bcd60e51b8152600401610289906121b4565b50900390565b6116388363a9059cbb60e01b84846040516024016119d2929190611fb0565b60408051601f198184030181529190526020810180516001600160e01b03166001600160e01b031990931692909217909152611b94565b611a2a846323b872dd60e01b8585856040516024016119d293929190611f8c565b50505050565b600060095460001480611a44575060095442105b15611a5157506000610ac2565b600a54600954611a60916118f3565b4210611a8557506001600160a01b0381166000908152600d6020526040902054610ac2565b610abf600a54610a95611aa36009544261198b90919063ffffffff16565b6001600160a01b0386166000908152600d60205260409020549061191f565b611aca61075b565b611ae65760405162461bcd60e51b81526004016102899061203e565b6000805460ff60a01b191690557f5db9ee0a495bf2e6ff9c91a7834c1ba4fdd244a5e8aa4e537bd38aeae4b073aa611b1c6118ef565b604051611b299190611f57565b60405180910390a1565b611b3b61075b565b15611b585760405162461bcd60e51b81526004016102899061231b565b6000805460ff60a01b1916600160a01b1790557f62e78cea01bee320cd4e420270b5ea74000d11b0c9f74754ebdbfc544b05a258611b1c6118ef565b6060611be9826040518060400160405280602081526020017f5361666545524332303a206c6f772d6c6576656c2063616c6c206661696c6564815250856001600160a01b0316611c239092919063ffffffff16565b8051909150156116385780806020019051810190611c079190611e7a565b6116385760405162461bcd60e51b815260040161028990612574565b6060611c328484600085611c3a565b949350505050565b606082471015611c5c5760405162461bcd60e51b8152600401610289906121eb565b611c6585611cfb565b611c815760405162461bcd60e51b81526004016102899061250f565b60006060866001600160a01b03168587604051611c9e9190611f38565b60006040518083038185875af1925050503d8060008114611cdb576040519150601f19603f3d011682016040523d82523d6000602084013e611ce0565b606091505b5091509150611cf0828286611d01565b979650505050505050565b3b151590565b60608315611d10575081611918565b825115611d205782518084602001fd5b8160405162461bcd60e51b81526004016102899190611fd4565b80356001600160a01b0381168114610c1557600080fd5b8035610c1581612688565b805169ffffffffffffffffffff81168114610c1557600080fd5b600060208284031215611d87578081fd5b6119188383611d3a565b60008060408385031215611da3578081fd5b611dad8484611d3a565b946020939093013593505050565b60008060408385031215611dcd578182fd5b823567ffffffffffffffff80821115611de4578384fd5b818501915085601f830112611df7578384fd5b813581811115611e05578485fd5b60209150818102611e17838201612635565b8281528381019085850183870186018b1015611e31578889fd5b8896505b84871015611e5b57611e478b82611d3a565b835260019690960195918501918501611e35565b5080975050505050611e6f86828701611d51565b925050509250929050565b600060208284031215611e8b578081fd5b815161191881612688565b600060208284031215611ea7578081fd5b5035919050565b600060208284031215611ebf578081fd5b5051919050565b600080600080600060a08688031215611edd578081fd5b611ee78787611d5c565b9450602086015193506040860151925060608601519150611f0b8760808801611d5c565b90509295509295909350565b600060208284031215611f28578081fd5b815160ff81168114611918578182fd5b60008251611f4a81846020870161265c565b9190910192915050565b90565b6001600160a01b0391909116815260200190565b6001600160a01b039390931683526020830191909152604082015260600190565b6001600160a01b039384168152919092166020820152604081019190915260600190565b6001600160a01b03929092168252602082015260400190565b901515815260200190565b6000602082528251806020840152611ff381604085016020870161265c565b601f01601f19169190910160400192915050565b6020808252601f908201527f41646472657373206973206e6f74206f6e207468652077686974656c69737400604082015260600190565b60208082526014908201527314185d5cd8589b194e881b9bdd081c185d5cd95960621b604082015260600190565b60208082526007908201526610a5b2b2b832b960c91b604082015260600190565b60208082526026908201527f4f776e61626c653a206e6577206f776e657220697320746865207a65726f206160408201526564647265737360d01b606082015260800190565b6020808252600f908201526e151c985b9cd9995c8819985a5b1959608a1b604082015260600190565b6020808252601b908201527f536166654d6174683a206164646974696f6e206f766572666c6f770000000000604082015260600190565b6020808252602a908201527f5072697661746553616c652073746167657320617265206f766572206f72206e6040820152691bdd081cdd185c9d195960b21b606082015260800190565b6020808252601f908201527f546f6b656e56657374696e673a206e6f20746f6b656e73206172652064756500604082015260600190565b6020808252601e908201527f536166654d6174683a207375627472616374696f6e206f766572666c6f770000604082015260600190565b60208082526026908201527f416464726573733a20696e73756666696369656e742062616c616e636520666f6040820152651c8818d85b1b60d21b606082015260800190565b60208082526018908201527f56657374696e67207374617274206973206e6f74207365740000000000000000604082015260600190565b6020808252601a908201527f536166654d6174683a206469766973696f6e206279207a65726f000000000000604082015260600190565b60208082526017908201527f4761732070726963652065786365656473206c696d6974000000000000000000604082015260600190565b60208082526025908201527f4e6f7420656e6f75676820746f6b656e20696e207072697661746520736c6165604082015264081c1bdbdb60da1b606082015260800190565b60208082526010908201526f14185d5cd8589b194e881c185d5cd95960821b604082015260600190565b60208082526021908201527f536166654d6174683a206d756c7469706c69636174696f6e206f766572666c6f6040820152607760f81b606082015260800190565b6020808252600b908201526a139bc8115512081cd95b9d60aa1b604082015260600190565b6020808252818101527f4f776e61626c653a2063616c6c6572206973206e6f7420746865206f776e6572604082015260600190565b6020808252601a908201527f4d696e696d756d20726571756972656420756e72656163686564000000000000604082015260600190565b6020808252601290820152714e6f2045544820746f20776974686472617760701b604082015260600190565b602080825260169082015275436f696e206973206e6f7420737570706f727465642160501b604082015260600190565b60208082526017908201527f496e636f72726563742074696d652070726f7669646564000000000000000000604082015260600190565b60208082526017908201527f5072697661746553616c65206973206e6f74206f766572000000000000000000604082015260600190565b6020808252601490820152734e6f20455243323020746f20776974686472617760601b604082015260600190565b6020808252601d908201527f416464726573733a2063616c6c20746f206e6f6e2d636f6e7472616374000000604082015260600190565b602080825260149082015273546f6b656e206973206e6f7420656e6f7567682160601b604082015260600190565b6020808252602a908201527f5361666545524332303a204552433230206f7065726174696f6e20646964206e6040820152691bdd081cdd58d8d9595960b21b606082015260800190565b6020808252601c908201527f56657374696e6720737461727420697320616c72656164792073657400000000604082015260600190565b60208082526018908201527f4d6178696d756d20616c6c6f7765642065786365656465640000000000000000604082015260600190565b90815260200190565b60405181810167ffffffffffffffff8111828210171561265457600080fd5b604052919050565b60005b8381101561267757818101518382015260200161265f565b83811115611a2a5750506000910152565b801515811461181d57600080fdfea2646970667358221220c40634a523ca66ec0c9e343c673fb0d9d449076826711a5dd1672d49dd0c2e6e64736f6c634300060c0033",
  "devdoc": {
    "kind": "dev",
    "methods": {
      "adminSetBasePrice(uint256)": {
        "params": {
          "_price": "The price of ETH multiple by precision (e.g. _rate = PRECISION corresponds to $1)"
        }
      },
      "adminSetMaxGasPrice(uint256)": {
        "params": {
          "_maxGasPrice": "New max gas price"
        }
      },
      "adminSetMaxToken(uint256)": {
        "params": {
          "_maxToken": "New max token amount"
        }
      },
      "adminSetMinToken(uint256)": {
        "params": {
          "_minToken": "New min token amount"
        }
      },
      "adminSetPriceFeed(address)": {
        "params": {
          "_priceFeed": "New priceFeed"
        }
      },
      "adminSetTreasury(address)": {
        "params": {
          "_treasury": "New treasury address"
        }
      },
      "adminSetVestingStart(uint256)": {
        "params": {
          "_vestingStart": "New vesting start time"
        }
      },
      "adminWithdrawERC20(address)": {
        "params": {
          "ERC20token": "Address of ERC20 token to withdraw from the contract"
        }
      },
      "calcCoinPurchasedAmount(address,uint256)": {
        "details": "Calculates token amount based on amount of token.",
        "params": {
          "_amount": "Coin amount to convert to token",
          "_coin": "Supported ERC20 token"
        },
        "returns": {
          "_0": "purchasedAmount Token amount to buy"
        }
      },
      "calcEthPurchasedAmount(uint256)": {
        "details": "Calculates Token amount based on rate and ETH amount.",
        "params": {
          "_amount": "ETH amount to convert to token"
        },
        "returns": {
          "_0": "Token amount"
        }
      },
      "claimable(address)": {
        "params": {
          "_user": "Address of the user who purchased tokens"
        },
        "returns": {
          "_0": "The amount of the token vested and unclaimed."
        }
      },
      "claimed(address)": {
        "params": {
          "_user": "Address of the user who purchased tokens"
        },
        "returns": {
          "_0": "The amount of the token claimed."
        }
      },
      "locked(address)": {
        "params": {
          "_user": "Address of the user who purchased tokens"
        },
        "returns": {
          "_0": "The amount of the token vested and unclaimed."
        }
      },
      "owner()": {
        "details": "Returns the address of the current owner."
      },
      "paused()": {
        "details": "Returns true if the contract is paused, and false otherwise."
      },
      "purchaseTokenWithCoin(address,uint256)": {
        "params": {
          "amount": "Amount of the token to be paid in",
          "coin": "Address of the token to be paid in"
        }
      },
      "renounceOwnership()": {
        "details": "Leaves the contract without owner. It will not be possible to call `onlyOwner` functions anymore. Can only be called by the current owner. NOTE: Renouncing ownership will leave the contract without an owner, thereby removing any functionality that is only available to the owner."
      },
      "transferOwnership(address)": {
        "details": "Transfers ownership of the contract to a new account (`newOwner`). Can only be called by the current owner."
      }
    },
    "version": 1
  },
  "userdoc": {
    "events": {
      "TokenPurchased(address,address,uint256,uint256)": {
        "notice": "EVENTS*"
      }
    },
    "kind": "user",
    "methods": {
      "USDC()": {
        "notice": "CONSTANTS*"
      },
      "adminPause()": {
        "notice": "Stops purchase functions. Owner only"
      },
      "adminSetBasePrice(uint256)": {
        "notice": "Sets the rate based on the contracts precision"
      },
      "adminSetMaxGasPrice(uint256)": {
        "notice": "Allows owner to change the max allowed gas price. Prevents gas wars"
      },
      "adminSetMaxToken(uint256)": {
        "notice": "Allows owner to change max allowed token per address."
      },
      "adminSetMinToken(uint256)": {
        "notice": "Allows owner to change min allowed token to buy per tx."
      },
      "adminSetPriceFeed(address)": {
        "notice": "Updates current priceFeed of chainlink."
      },
      "adminSetTreasury(address)": {
        "notice": "Allows owner to change the treasury address. Treasury is the address where all funds from sale go to"
      },
      "adminSetVestingStart(uint256)": {
        "notice": "Updates current vesting start time. Can be used once"
      },
      "adminUnpause()": {
        "notice": "Unpauses purchase functions. Owner only"
      },
      "adminWithdrawERC20(address)": {
        "notice": "Function for the administrator to withdraw tokenWithdrawals allowed only if there is no sale pending stage"
      },
      "adminWithdrawETH()": {
        "notice": "Function for the administrator to withdraw ETH for refundsWithdrawals allowed only if there is no sale pending stage"
      },
      "claim()": {
        "notice": "Transfers available for claim vested tokens to the user."
      },
      "claimable(address)": {
        "notice": "Calculates the amount that has already vested but hasn't been claimed yet."
      },
      "claimed(address)": {
        "notice": "Gets the amount of tokens the user has already claimed"
      },
      "locked(address)": {
        "notice": "Calculates the amount that is still locked."
      },
      "purchaseTokenWithCoin(address,uint256)": {
        "notice": "For purchase with allowed stablecoin (USDC)"
      },
      "purchaseTokenWithETH()": {
        "notice": "For purchase with ETH. ETH is left on the contract until withdrawn to treasury"
      }
    },
    "version": 1
  },
  "storageLayout": {
    "storage": [
      {
        "astId": 7,
        "contract": "contracts/ifo/EMOPrivateSale.sol:EMOPrivateSale",
        "label": "_owner",
        "offset": 0,
        "slot": "0",
        "type": "t_address"
      },
      {
        "astId": 2217,
        "contract": "contracts/ifo/EMOPrivateSale.sol:EMOPrivateSale",
        "label": "_paused",
        "offset": 20,
        "slot": "0",
        "type": "t_bool"
      },
      {
        "astId": 2388,
        "contract": "contracts/ifo/EMOPrivateSale.sol:EMOPrivateSale",
        "label": "USDC",
        "offset": 0,
        "slot": "1",
        "type": "t_address"
      },
      {
        "astId": 2402,
        "contract": "contracts/ifo/EMOPrivateSale.sol:EMOPrivateSale",
        "label": "minTokensAmount",
        "offset": 0,
        "slot": "2",
        "type": "t_uint256"
      },
      {
        "astId": 2404,
        "contract": "contracts/ifo/EMOPrivateSale.sol:EMOPrivateSale",
        "label": "maxTokensAmount",
        "offset": 0,
        "slot": "3",
        "type": "t_uint256"
      },
      {
        "astId": 2406,
        "contract": "contracts/ifo/EMOPrivateSale.sol:EMOPrivateSale",
        "label": "maxGasPrice",
        "offset": 0,
        "slot": "4",
        "type": "t_uint256"
      },
      {
        "astId": 2408,
        "contract": "contracts/ifo/EMOPrivateSale.sol:EMOPrivateSale",
        "label": "priceFeed",
        "offset": 0,
        "slot": "5",
        "type": "t_contract(AggregatorV3Interface)2358"
      },
      {
        "astId": 2410,
        "contract": "contracts/ifo/EMOPrivateSale.sol:EMOPrivateSale",
        "label": "privateSaleStart",
        "offset": 0,
        "slot": "6",
        "type": "t_uint256"
      },
      {
        "astId": 2412,
        "contract": "contracts/ifo/EMOPrivateSale.sol:EMOPrivateSale",
        "label": "privateSaleEnd",
        "offset": 0,
        "slot": "7",
        "type": "t_uint256"
      },
      {
        "astId": 2414,
        "contract": "contracts/ifo/EMOPrivateSale.sol:EMOPrivateSale",
        "label": "privateSaleTokenPool",
        "offset": 0,
        "slot": "8",
        "type": "t_uint256"
      },
      {
        "astId": 2416,
        "contract": "contracts/ifo/EMOPrivateSale.sol:EMOPrivateSale",
        "label": "vestingStart",
        "offset": 0,
        "slot": "9",
        "type": "t_uint256"
      },
      {
        "astId": 2418,
        "contract": "contracts/ifo/EMOPrivateSale.sol:EMOPrivateSale",
        "label": "vestingDuration",
        "offset": 0,
        "slot": "10",
        "type": "t_uint256"
      },
      {
        "astId": 2420,
        "contract": "contracts/ifo/EMOPrivateSale.sol:EMOPrivateSale",
        "label": "token",
        "offset": 0,
        "slot": "11",
        "type": "t_address"
      },
      {
        "astId": 2422,
        "contract": "contracts/ifo/EMOPrivateSale.sol:EMOPrivateSale",
        "label": "tokenPrice",
        "offset": 0,
        "slot": "12",
        "type": "t_uint256"
      },
      {
        "astId": 2426,
        "contract": "contracts/ifo/EMOPrivateSale.sol:EMOPrivateSale",
        "label": "purchased",
        "offset": 0,
        "slot": "13",
        "type": "t_mapping(t_address,t_uint256)"
      },
      {
        "astId": 2430,
        "contract": "contracts/ifo/EMOPrivateSale.sol:EMOPrivateSale",
        "label": "_claimed",
        "offset": 0,
        "slot": "14",
        "type": "t_mapping(t_address,t_uint256)"
      },
      {
        "astId": 2434,
        "contract": "contracts/ifo/EMOPrivateSale.sol:EMOPrivateSale",
        "label": "whitelisted",
        "offset": 0,
        "slot": "15",
        "type": "t_mapping(t_address,t_bool)"
      },
      {
        "astId": 2436,
        "contract": "contracts/ifo/EMOPrivateSale.sol:EMOPrivateSale",
        "label": "purchasedPrivateSale",
        "offset": 0,
        "slot": "16",
        "type": "t_uint256"
      },
      {
        "astId": 2438,
        "contract": "contracts/ifo/EMOPrivateSale.sol:EMOPrivateSale",
        "label": "basePrice",
        "offset": 0,
        "slot": "17",
        "type": "t_uint256"
      },
      {
        "astId": 2440,
        "contract": "contracts/ifo/EMOPrivateSale.sol:EMOPrivateSale",
        "label": "treasury",
        "offset": 0,
        "slot": "18",
        "type": "t_address"
      },
      {
        "astId": 2442,
        "contract": "contracts/ifo/EMOPrivateSale.sol:EMOPrivateSale",
        "label": "keeper",
        "offset": 0,
        "slot": "19",
        "type": "t_address"
      }
    ],
    "types": {
      "t_address": {
        "encoding": "inplace",
        "label": "address",
        "numberOfBytes": "20"
      },
      "t_bool": {
        "encoding": "inplace",
        "label": "bool",
        "numberOfBytes": "1"
      },
      "t_contract(AggregatorV3Interface)2358": {
        "encoding": "inplace",
        "label": "contract AggregatorV3Interface",
        "numberOfBytes": "20"
      },
      "t_mapping(t_address,t_bool)": {
        "encoding": "mapping",
        "key": "t_address",
        "label": "mapping(address => bool)",
        "numberOfBytes": "32",
        "value": "t_bool"
      },
      "t_mapping(t_address,t_uint256)": {
        "encoding": "mapping",
        "key": "t_address",
        "label": "mapping(address => uint256)",
        "numberOfBytes": "32",
        "value": "t_uint256"
      },
      "t_uint256": {
        "encoding": "inplace",
        "label": "uint256",
        "numberOfBytes": "32"
      }
    }
  }
}