{
  "address": "0x4d15569cDB9fD14687d5cf6FcE628f2792CD2Ea7",
  "abi": [
    {
      "inputs": [
        {
          "internalType": "contract IERC20[]",
          "name": "_pooledTokens",
          "type": "address[]"
        },
        {
          "internalType": "uint8[]",
          "name": "decimals",
          "type": "uint8[]"
        },
        {
          "internalType": "string",
          "name": "lpTokenName",
          "type": "string"
        },
        {
          "internalType": "string",
          "name": "lpTokenSymbol",
          "type": "string"
        },
        {
          "internalType": "uint256",
          "name": "_a",
          "type": "uint256"
        },
        {
          "internalType": "uint256",
          "name": "_fee",
          "type": "uint256"
        },
        {
          "internalType": "uint256",
          "name": "_adminFee",
          "type": "uint256"
        },
        {
          "internalType": "uint256",
          "name": "_depositFee",
          "type": "uint256"
        },
        {
          "internalType": "uint256",
          "name": "_withdrawFee",
          "type": "uint256"
        },
        {
          "internalType": "address",
          "name": "_devaddr",
          "type": "address"
        }
      ],
      "stateMutability": "nonpayable",
      "type": "constructor"
    },
    {
      "anonymous": false,
      "inputs": [
        {
          "indexed": true,
          "internalType": "address",
          "name": "provider",
          "type": "address"
        },
        {
          "indexed": false,
          "internalType": "uint256[]",
          "name": "tokenAmounts",
          "type": "uint256[]"
        },
        {
          "indexed": false,
          "internalType": "uint256[]",
          "name": "fees",
          "type": "uint256[]"
        },
        {
          "indexed": false,
          "internalType": "uint256",
          "name": "invariant",
          "type": "uint256"
        },
        {
          "indexed": false,
          "internalType": "uint256",
          "name": "lpTokenSupply",
          "type": "uint256"
        }
      ],
      "name": "AddLiquidity",
      "type": "event"
    },
    {
      "anonymous": false,
      "inputs": [
        {
          "indexed": false,
          "internalType": "uint256",
          "name": "newAdminFee",
          "type": "uint256"
        }
      ],
      "name": "NewAdminFee",
      "type": "event"
    },
    {
      "anonymous": false,
      "inputs": [
        {
          "indexed": false,
          "internalType": "uint256",
          "name": "newDepositFee",
          "type": "uint256"
        }
      ],
      "name": "NewDepositFee",
      "type": "event"
    },
    {
      "anonymous": false,
      "inputs": [
        {
          "indexed": false,
          "internalType": "uint256",
          "name": "newSwapFee",
          "type": "uint256"
        }
      ],
      "name": "NewSwapFee",
      "type": "event"
    },
    {
      "anonymous": false,
      "inputs": [
        {
          "indexed": false,
          "internalType": "uint256",
          "name": "newWithdrawFee",
          "type": "uint256"
        }
      ],
      "name": "NewWithdrawFee",
      "type": "event"
    },
    {
      "anonymous": false,
      "inputs": [
        {
          "indexed": true,
          "internalType": "address",
          "name": "previousOwner",
          "type": "address"
        },
        {
          "indexed": true,
          "internalType": "address",
          "name": "newOwner",
          "type": "address"
        }
      ],
      "name": "OwnershipTransferred",
      "type": "event"
    },
    {
      "anonymous": false,
      "inputs": [
        {
          "indexed": false,
          "internalType": "address",
          "name": "account",
          "type": "address"
        }
      ],
      "name": "Paused",
      "type": "event"
    },
    {
      "anonymous": false,
      "inputs": [
        {
          "indexed": false,
          "internalType": "uint256",
          "name": "oldA",
          "type": "uint256"
        },
        {
          "indexed": false,
          "internalType": "uint256",
          "name": "newA",
          "type": "uint256"
        },
        {
          "indexed": false,
          "internalType": "uint256",
          "name": "initialTime",
          "type": "uint256"
        },
        {
          "indexed": false,
          "internalType": "uint256",
          "name": "futureTime",
          "type": "uint256"
        }
      ],
      "name": "RampA",
      "type": "event"
    },
    {
      "anonymous": false,
      "inputs": [
        {
          "indexed": true,
          "internalType": "address",
          "name": "provider",
          "type": "address"
        },
        {
          "indexed": false,
          "internalType": "uint256[]",
          "name": "tokenAmounts",
          "type": "uint256[]"
        },
        {
          "indexed": false,
          "internalType": "uint256",
          "name": "lpTokenSupply",
          "type": "uint256"
        }
      ],
      "name": "RemoveLiquidity",
      "type": "event"
    },
    {
      "anonymous": false,
      "inputs": [
        {
          "indexed": true,
          "internalType": "address",
          "name": "provider",
          "type": "address"
        },
        {
          "indexed": false,
          "internalType": "uint256[]",
          "name": "tokenAmounts",
          "type": "uint256[]"
        },
        {
          "indexed": false,
          "internalType": "uint256[]",
          "name": "fees",
          "type": "uint256[]"
        },
        {
          "indexed": false,
          "internalType": "uint256",
          "name": "invariant",
          "type": "uint256"
        },
        {
          "indexed": false,
          "internalType": "uint256",
          "name": "lpTokenSupply",
          "type": "uint256"
        }
      ],
      "name": "RemoveLiquidityImbalance",
      "type": "event"
    },
    {
      "anonymous": false,
      "inputs": [
        {
          "indexed": true,
          "internalType": "address",
          "name": "provider",
          "type": "address"
        },
        {
          "indexed": false,
          "internalType": "uint256",
          "name": "lpTokenAmount",
          "type": "uint256"
        },
        {
          "indexed": false,
          "internalType": "uint256",
          "name": "lpTokenSupply",
          "type": "uint256"
        },
        {
          "indexed": false,
          "internalType": "uint256",
          "name": "boughtId",
          "type": "uint256"
        },
        {
          "indexed": false,
          "internalType": "uint256",
          "name": "tokensBought",
          "type": "uint256"
        }
      ],
      "name": "RemoveLiquidityOne",
      "type": "event"
    },
    {
      "anonymous": false,
      "inputs": [
        {
          "indexed": false,
          "internalType": "uint256",
          "name": "currentA",
          "type": "uint256"
        },
        {
          "indexed": false,
          "internalType": "uint256",
          "name": "time",
          "type": "uint256"
        }
      ],
      "name": "StopRampA",
      "type": "event"
    },
    {
      "anonymous": false,
      "inputs": [
        {
          "indexed": true,
          "internalType": "address",
          "name": "buyer",
          "type": "address"
        },
        {
          "indexed": false,
          "internalType": "uint256",
          "name": "tokensSold",
          "type": "uint256"
        },
        {
          "indexed": false,
          "internalType": "uint256",
          "name": "tokensBought",
          "type": "uint256"
        },
        {
          "indexed": false,
          "internalType": "uint128",
          "name": "soldId",
          "type": "uint128"
        },
        {
          "indexed": false,
          "internalType": "uint128",
          "name": "boughtId",
          "type": "uint128"
        }
      ],
      "name": "TokenSwap",
      "type": "event"
    },
    {
      "anonymous": false,
      "inputs": [
        {
          "indexed": false,
          "internalType": "address",
          "name": "account",
          "type": "address"
        }
      ],
      "name": "Unpaused",
      "type": "event"
    },
    {
      "inputs": [
        {
          "internalType": "uint256[]",
          "name": "amounts",
          "type": "uint256[]"
        },
        {
          "internalType": "uint256",
          "name": "minToMint",
          "type": "uint256"
        },
        {
          "internalType": "uint256",
          "name": "deadline",
          "type": "uint256"
        }
      ],
      "name": "addLiquidity",
      "outputs": [
        {
          "internalType": "uint256",
          "name": "",
          "type": "uint256"
        }
      ],
      "stateMutability": "nonpayable",
      "type": "function"
    },
    {
      "inputs": [
        {
          "internalType": "address",
          "name": "user",
          "type": "address"
        }
      ],
      "name": "calculateCurrentWithdrawFee",
      "outputs": [
        {
          "internalType": "uint256",
          "name": "",
          "type": "uint256"
        }
      ],
      "stateMutability": "view",
      "type": "function"
    },
    {
      "inputs": [
        {
          "internalType": "address",
          "name": "account",
          "type": "address"
        },
        {
          "internalType": "uint256",
          "name": "amount",
          "type": "uint256"
        }
      ],
      "name": "calculateRemoveLiquidity",
      "outputs": [
        {
          "internalType": "uint256[]",
          "name": "",
          "type": "uint256[]"
        }
      ],
      "stateMutability": "view",
      "type": "function"
    },
    {
      "inputs": [
        {
          "internalType": "address",
          "name": "account",
          "type": "address"
        },
        {
          "internalType": "uint256",
          "name": "tokenAmount",
          "type": "uint256"
        },
        {
          "internalType": "uint8",
          "name": "tokenIndex",
          "type": "uint8"
        }
      ],
      "name": "calculateRemoveLiquidityOneToken",
      "outputs": [
        {
          "internalType": "uint256",
          "name": "availableTokenAmount",
          "type": "uint256"
        }
      ],
      "stateMutability": "view",
      "type": "function"
    },
    {
      "inputs": [
        {
          "internalType": "uint8",
          "name": "tokenIndexFrom",
          "type": "uint8"
        },
        {
          "internalType": "uint8",
          "name": "tokenIndexTo",
          "type": "uint8"
        },
        {
          "internalType": "uint256",
          "name": "dx",
          "type": "uint256"
        }
      ],
      "name": "calculateSwap",
      "outputs": [
        {
          "internalType": "uint256",
          "name": "",
          "type": "uint256"
        }
      ],
      "stateMutability": "view",
      "type": "function"
    },
    {
      "inputs": [
        {
          "internalType": "address",
          "name": "account",
          "type": "address"
        },
        {
          "internalType": "uint256[]",
          "name": "amounts",
          "type": "uint256[]"
        },
        {
          "internalType": "bool",
          "name": "deposit",
          "type": "bool"
        }
      ],
      "name": "calculateTokenAmount",
      "outputs": [
        {
          "internalType": "uint256",
          "name": "",
          "type": "uint256"
        }
      ],
      "stateMutability": "view",
      "type": "function"
    },
    {
      "inputs": [],
      "name": "getA",
      "outputs": [
        {
          "internalType": "uint256",
          "name": "",
          "type": "uint256"
        }
      ],
      "stateMutability": "view",
      "type": "function"
    },
    {
      "inputs": [],
      "name": "getAPrecise",
      "outputs": [
        {
          "internalType": "uint256",
          "name": "",
          "type": "uint256"
        }
      ],
      "stateMutability": "view",
      "type": "function"
    },
    {
      "inputs": [
        {
          "internalType": "uint256",
          "name": "index",
          "type": "uint256"
        }
      ],
      "name": "getAdminBalance",
      "outputs": [
        {
          "internalType": "uint256",
          "name": "",
          "type": "uint256"
        }
      ],
      "stateMutability": "view",
      "type": "function"
    },
    {
      "inputs": [
        {
          "internalType": "address",
          "name": "user",
          "type": "address"
        }
      ],
      "name": "getDepositTimestamp",
      "outputs": [
        {
          "internalType": "uint256",
          "name": "",
          "type": "uint256"
        }
      ],
      "stateMutability": "view",
      "type": "function"
    },
    {
      "inputs": [
        {
          "internalType": "uint8",
          "name": "index",
          "type": "uint8"
        }
      ],
      "name": "getToken",
      "outputs": [
        {
          "internalType": "contract IERC20",
          "name": "",
          "type": "address"
        }
      ],
      "stateMutability": "view",
      "type": "function"
    },
    {
      "inputs": [
        {
          "internalType": "uint8",
          "name": "index",
          "type": "uint8"
        }
      ],
      "name": "getTokenBalance",
      "outputs": [
        {
          "internalType": "uint256",
          "name": "",
          "type": "uint256"
        }
      ],
      "stateMutability": "view",
      "type": "function"
    },
    {
      "inputs": [
        {
          "internalType": "address",
          "name": "tokenAddress",
          "type": "address"
        }
      ],
      "name": "getTokenIndex",
      "outputs": [
        {
          "internalType": "uint8",
          "name": "",
          "type": "uint8"
        }
      ],
      "stateMutability": "view",
      "type": "function"
    },
    {
      "inputs": [],
      "name": "getVirtualPrice",
      "outputs": [
        {
          "internalType": "uint256",
          "name": "",
          "type": "uint256"
        }
      ],
      "stateMutability": "view",
      "type": "function"
    },
    {
      "inputs": [],
      "name": "owner",
      "outputs": [
        {
          "internalType": "address",
          "name": "",
          "type": "address"
        }
      ],
      "stateMutability": "view",
      "type": "function"
    },
    {
      "inputs": [],
      "name": "pause",
      "outputs": [],
      "stateMutability": "nonpayable",
      "type": "function"
    },
    {
      "inputs": [],
      "name": "paused",
      "outputs": [
        {
          "internalType": "bool",
          "name": "",
          "type": "bool"
        }
      ],
      "stateMutability": "view",
      "type": "function"
    },
    {
      "inputs": [
        {
          "internalType": "uint256",
          "name": "futureA",
          "type": "uint256"
        },
        {
          "internalType": "uint256",
          "name": "futureTime",
          "type": "uint256"
        }
      ],
      "name": "rampA",
      "outputs": [],
      "stateMutability": "nonpayable",
      "type": "function"
    },
    {
      "inputs": [
        {
          "internalType": "uint256",
          "name": "amount",
          "type": "uint256"
        },
        {
          "internalType": "uint256[]",
          "name": "minAmounts",
          "type": "uint256[]"
        },
        {
          "internalType": "uint256",
          "name": "deadline",
          "type": "uint256"
        }
      ],
      "name": "removeLiquidity",
      "outputs": [
        {
          "internalType": "uint256[]",
          "name": "",
          "type": "uint256[]"
        }
      ],
      "stateMutability": "nonpayable",
      "type": "function"
    },
    {
      "inputs": [
        {
          "internalType": "uint256[]",
          "name": "amounts",
          "type": "uint256[]"
        },
        {
          "internalType": "uint256",
          "name": "maxBurnAmount",
          "type": "uint256"
        },
        {
          "internalType": "uint256",
          "name": "deadline",
          "type": "uint256"
        }
      ],
      "name": "removeLiquidityImbalance",
      "outputs": [
        {
          "internalType": "uint256",
          "name": "",
          "type": "uint256"
        }
      ],
      "stateMutability": "nonpayable",
      "type": "function"
    },
    {
      "inputs": [
        {
          "internalType": "uint256",
          "name": "tokenAmount",
          "type": "uint256"
        },
        {
          "internalType": "uint8",
          "name": "tokenIndex",
          "type": "uint8"
        },
        {
          "internalType": "uint256",
          "name": "minAmount",
          "type": "uint256"
        },
        {
          "internalType": "uint256",
          "name": "deadline",
          "type": "uint256"
        }
      ],
      "name": "removeLiquidityOneToken",
      "outputs": [
        {
          "internalType": "uint256",
          "name": "",
          "type": "uint256"
        }
      ],
      "stateMutability": "nonpayable",
      "type": "function"
    },
    {
      "inputs": [],
      "name": "renounceOwnership",
      "outputs": [],
      "stateMutability": "nonpayable",
      "type": "function"
    },
    {
      "inputs": [
        {
          "internalType": "uint256",
          "name": "newAdminFee",
          "type": "uint256"
        }
      ],
      "name": "setAdminFee",
      "outputs": [],
      "stateMutability": "nonpayable",
      "type": "function"
    },
    {
      "inputs": [
        {
          "internalType": "uint256",
          "name": "newDepositFee",
          "type": "uint256"
        }
      ],
      "name": "setDefaultDepositFee",
      "outputs": [],
      "stateMutability": "nonpayable",
      "type": "function"
    },
    {
      "inputs": [
        {
          "internalType": "uint256",
          "name": "newWithdrawFee",
          "type": "uint256"
        }
      ],
      "name": "setDefaultWithdrawFee",
      "outputs": [],
      "stateMutability": "nonpayable",
      "type": "function"
    },
    {
      "inputs": [
        {
          "internalType": "address",
          "name": "_devaddr",
          "type": "address"
        }
      ],
      "name": "setDevAddress",
      "outputs": [],
      "stateMutability": "nonpayable",
      "type": "function"
    },
    {
      "inputs": [
        {
          "internalType": "uint256",
          "name": "newSwapFee",
          "type": "uint256"
        }
      ],
      "name": "setSwapFee",
      "outputs": [],
      "stateMutability": "nonpayable",
      "type": "function"
    },
    {
      "inputs": [],
      "name": "stopRampA",
      "outputs": [],
      "stateMutability": "nonpayable",
      "type": "function"
    },
    {
      "inputs": [
        {
          "internalType": "uint8",
          "name": "tokenIndexFrom",
          "type": "uint8"
        },
        {
          "internalType": "uint8",
          "name": "tokenIndexTo",
          "type": "uint8"
        },
        {
          "internalType": "uint256",
          "name": "dx",
          "type": "uint256"
        },
        {
          "internalType": "uint256",
          "name": "minDy",
          "type": "uint256"
        },
        {
          "internalType": "uint256",
          "name": "deadline",
          "type": "uint256"
        }
      ],
      "name": "swap",
      "outputs": [
        {
          "internalType": "uint256",
          "name": "",
          "type": "uint256"
        }
      ],
      "stateMutability": "nonpayable",
      "type": "function"
    },
    {
      "inputs": [],
      "name": "swapStorage",
      "outputs": [
        {
          "internalType": "uint256",
          "name": "initialA",
          "type": "uint256"
        },
        {
          "internalType": "uint256",
          "name": "futureA",
          "type": "uint256"
        },
        {
          "internalType": "uint256",
          "name": "initialATime",
          "type": "uint256"
        },
        {
          "internalType": "uint256",
          "name": "futureATime",
          "type": "uint256"
        },
        {
          "internalType": "uint256",
          "name": "swapFee",
          "type": "uint256"
        },
        {
          "internalType": "uint256",
          "name": "adminFee",
          "type": "uint256"
        },
        {
          "internalType": "uint256",
          "name": "defaultDepositFee",
          "type": "uint256"
        },
        {
          "internalType": "uint256",
          "name": "defaultWithdrawFee",
          "type": "uint256"
        },
        {
          "internalType": "address",
          "name": "devaddr",
          "type": "address"
        },
        {
          "internalType": "contract LPToken",
          "name": "lpToken",
          "type": "address"
        }
      ],
      "stateMutability": "view",
      "type": "function"
    },
    {
      "inputs": [
        {
          "internalType": "address",
          "name": "newOwner",
          "type": "address"
        }
      ],
      "name": "transferOwnership",
      "outputs": [],
      "stateMutability": "nonpayable",
      "type": "function"
    },
    {
      "inputs": [],
      "name": "unpause",
      "outputs": [],
      "stateMutability": "nonpayable",
      "type": "function"
    },
    {
      "inputs": [
        {
          "internalType": "address",
          "name": "recipient",
          "type": "address"
        },
        {
          "internalType": "uint256",
          "name": "transferAmount",
          "type": "uint256"
        }
      ],
      "name": "updateUserWithdrawFee",
      "outputs": [],
      "stateMutability": "nonpayable",
      "type": "function"
    },
    {
      "inputs": [],
      "name": "withdrawAdminFees",
      "outputs": [],
      "stateMutability": "nonpayable",
      "type": "function"
    }
  ],
  "transactionHash": "0xa188101afc2509d84d566bbe621a449229a164f0e20088229821f9f3f6f2b150",
  "args": [
    [
      "0x7c4a1D38A755a7Ce5521260e874C009ad9e4Bf9c",
      "0xae95d4890bf4471501E0066b6c6244E1CAaEe791",
      "0x397F8aBd481B7c00883fb70da2ea5Ae70999c37c"
    ],
    [
      18,
      6,
      6
    ],
    "3EMO",
    "3EMO-LP",
    800,
    1000000,
    5000000000,
    0,
    0,
    "0x0aA282136b3924ca6767C4D5B9aad6f83bD40A9c"
  ],
  "solcInputHash": "a446a3ecf802cd554ad6cd17661d3447",
  "bytecode": "0x60806040523480156200001157600080fd5b50604051620046173803806200461783398181016040526101408110156200003857600080fd5b81019080805160405193929190846401000000008211156200005957600080fd5b9083019060208201858111156200006f57600080fd5b82518660208202830111640100000000821117156200008d57600080fd5b82525081516020918201928201910280838360005b83811015620000bc578181015183820152602001620000a2565b5050505090500160405260200180516040519392919084640100000000821115620000e657600080fd5b908301906020820185811115620000fc57600080fd5b82518660208202830111640100000000821117156200011a57600080fd5b82525081516020918201928201910280838360005b83811015620001495781810151838201526020016200012f565b50505050905001604052602001805160405193929190846401000000008211156200017357600080fd5b9083019060208201858111156200018957600080fd5b8251640100000000811182820188101715620001a457600080fd5b82525081516020918201929091019080838360005b83811015620001d3578181015183820152602001620001b9565b50505050905090810190601f168015620002015780820380516001836020036101000a031916815260200191505b50604052602001805160405193929190846401000000008211156200022557600080fd5b9083019060208201858111156200023b57600080fd5b82516401000000008111828201881017156200025657600080fd5b82525081516020918201929091019080838360005b83811015620002855781810151838201526020016200026b565b50505050905090810190601f168015620002b35780820380516001836020036101000a031916815260200191505b5060409081526020820151908201516060830151608084015160a085015160c0909501519396509194509290916000620002ec62000b03565b600080546001600160a01b0319166001600160a01b0383169081178255604051929350917f8be0079c531659141344cd1fd0a4f28419497f9722a3daafe3b4186f6b6457e0908290a3506000805460ff60a01b1916905560018080558a51116200039d576040805162461bcd60e51b815260206004820152601960248201527f5f706f6f6c6564546f6b656e732e6c656e677468203c3d203100000000000000604482015290519081900360640190fd5b60208a511115620003f5576040805162461bcd60e51b815260206004820152601960248201527f5f706f6f6c6564546f6b656e732e6c656e677468203e20333200000000000000604482015290519081900360640190fd5b88518a51146200044c576040805162461bcd60e51b815260206004820152601f60248201527f5f706f6f6c6564546f6b656e7320646563696d616c73206d69736d6174636800604482015290519081900360640190fd5b606089516001600160401b03811180156200046657600080fd5b5060405190808252806020026020018201604052801562000491578160200160208202803683370190505b50905060005b8b518160ff161015620007185760ff8116156200057a57601160008d8360ff1681518110620004c257fe5b6020908102919091018101516001600160a01b031682528101919091526040016000205460ff161580156200053557508b8160ff16815181106200050257fe5b60200260200101516001600160a01b03168c6000815181106200052157fe5b60200260200101516001600160a01b031614155b6200057a576040805162461bcd60e51b815260206004820152601060248201526f4475706c696361746520746f6b656e7360801b604482015290519081900360640190fd5b60006001600160a01b03168c8260ff16815181106200059557fe5b60200260200101516001600160a01b03161415620005fa576040805162461bcd60e51b815260206004820152601d60248201527f546865203020616464726573732069736e277420616e204552432d3230000000604482015290519081900360640190fd5b601260ff168b8260ff16815181106200060f57fe5b602002602001015160ff1611156200066e576040805162461bcd60e51b815260206004820152601a60248201527f546f6b656e20646563696d616c732065786365656473206d6178000000000000604482015290519081900360640190fd5b620006a68b8260ff16815181106200068257fe5b602002602001015160ff16601260ff1662000b0760201b620021381790919060201c565b600a0a828260ff1681518110620006b957fe5b60200260200101818152505080601160008e8460ff1681518110620006da57fe5b6020908102919091018101516001600160a01b03168252810191909152604001600020805460ff191660ff9290921691909117905560010162000497565b50620f4240871062000766576040805162461bcd60e51b81526020600482015260126024820152715f612065786365656473206d6178696d756d60701b604482015290519081900360640190fd5b6305f5e1008610620007bf576040805162461bcd60e51b815260206004820152601460248201527f5f6665652065786365656473206d6178696d756d000000000000000000000000604482015290519081900360640190fd5b6402540be400851062000819576040805162461bcd60e51b815260206004820152601960248201527f5f61646d696e4665652065786365656473206d6178696d756d00000000000000604482015290519081900360640190fd5b6305f5e100831062000872576040805162461bcd60e51b815260206004820152601c60248201527f5f77697468647261774665652065786365656473206d6178696d756d00000000604482015290519081900360640190fd5b6305f5e1008410620008cb576040805162461bcd60e51b815260206004820152601b60248201527f5f6465706f7369744665652065786365656473206d6178696d756d0000000000604482015290519081900360640190fd5b88886012604051620008dd9062000bcf565b60ff82166040820152606080825284519082015283518190602080830191608084019188019080838360005b838110156200092357818101518382015260200162000909565b50505050905090810190601f168015620009515780820380516001836020036101000a031916815260200191505b50838103825285518152855160209182019187019080838360005b83811015620009865781810151838201526020016200096c565b50505050905090810190601f168015620009b45780820380516001836020036101000a031916815260200191505b5095505050505050604051809103906000f080158015620009d9573d6000803e3d6000fd5b50600b80546001600160a01b0319166001600160a01b03929092169190911790558a5162000a0f90600c9060208e019062000bdd565b50805162000a2590600d90602084019062000c47565b508a516001600160401b038111801562000a3e57600080fd5b5060405190808252806020026020018201604052801562000a69578160200160208202803683370190505b50805162000a8091600e9160209091019062000c47565b5062000a9c60648862000b6a60201b620021951790919060201c565b60025562000ab887606462000b6a602090811b6200219517901c565b6003555060006004819055600555600694909455600792909255600855600955600a80546001600160a01b0319166001600160a01b039092169190911790555062000ccb9350505050565b3390565b60008282111562000b5f576040805162461bcd60e51b815260206004820152601e60248201527f536166654d6174683a207375627472616374696f6e206f766572666c6f770000604482015290519081900360640190fd5b508082035b92915050565b60008262000b7b5750600062000b64565b8282028284828162000b8957fe5b041462000bc85760405162461bcd60e51b8152600401808060200182810382526021815260200180620045f66021913960400191505060405180910390fd5b9392505050565b61153980620030bd83390190565b82805482825590600052602060002090810192821562000c35579160200282015b8281111562000c3557825182546001600160a01b0319166001600160a01b0390911617825560209092019160019091019062000bfe565b5062000c4392915062000c93565b5090565b82805482825590600052602060002090810192821562000c85579160200282015b8281111562000c8557825182559160200191906001019062000c68565b5062000c4392915062000cb4565b5b8082111562000c435780546001600160a01b031916815560010162000c94565b5b8082111562000c43576000815560010162000cb5565b6123e28062000cdb6000396000f3fe608060405234801561001057600080fd5b50600436106102065760003560e01c806384cdd9bc1161011a578063c00c125c116100ad578063da7a77be1161007c578063da7a77be14610732578063e25aa5fa14610758578063ef0a712f14610760578063f2fde38b1461077d578063f9273ffb146107a357610206565b8063c00c125c146106d0578063c4db7fa0146106fc578063d0d41fe114610704578063d46300fd1461072a57610206565b806391ceb3eb116100e957806391ceb3eb1461062e57806398899f401461064e578063a95b089f14610683578063ac5bf263146106b357610206565b806384cdd9bc146105595780638beb60b6146105cd5780638da5cb5b146105ea57806391695586146105f257610206565b806352ff62ec1161019d57806366c0bd241161016c57806366c0bd24146104a5578063715018a6146104e15780637c61e561146104e957806382b86600146105155780638456cb591461055157610206565b806352ff62ec146103e5578063593d132c146104025780635c975abb146104255780635fd65f0f1461044157610206565b80633e3a1560116101d95780633e3a1560146103115780633f4ba83a146103435780634a1b0d571461034b5780634d49e87d1461037157610206565b80630419b45a1461020b5780630ba819591461021557806331cd52b01461022f57806334e19907146102f4575b600080fd5b610213610823565b005b61021d610907565b60408051918252519081900360200190f35b6102a46004803603606081101561024557600080fd5b81359190810190604081016020820135600160201b81111561026657600080fd5b82018360208201111561027857600080fd5b803590602001918460208302840111600160201b8311171561029957600080fd5b91935091503561098c565b60408051602080825283518183015283519192839290830191858101910280838360005b838110156102e05781810151838201526020016102c8565b505050509050019250505060405180910390f35b6102136004803603602081101561030a57600080fd5b5035610b89565b61021d6004803603608081101561032757600080fd5b5080359060ff6020820135169060408101359060600135610c5f565b610213610de5565b61021d6004803603602081101561036157600080fd5b50356001600160a01b0316610e51565b61021d6004803603606081101561038757600080fd5b810190602081018135600160201b8111156103a157600080fd5b8201836020820111156103b357600080fd5b803590602001918460208302840111600160201b831117156103d457600080fd5b919350915080359060200135610ee8565b610213600480360360208110156103fb57600080fd5b503561105c565b6102136004803603604081101561041857600080fd5b5080359060200135611117565b61042d6111f5565b604080519115158252519081900360200190f35b610449611205565b604080519a8b5260208b0199909952898901979097526060890195909552608088019390935260a087019190915260c086015260e08501526001600160a01b039081166101008501521661012083015251908190036101400190f35b6104cb600480360360208110156104bb57600080fd5b50356001600160a01b0316611233565b6040805160ff9092168252519081900360200190f35b6102136112b5565b6102a4600480360360408110156104ff57600080fd5b506001600160a01b038135169060200135611361565b6105356004803603602081101561052b57600080fd5b503560ff1661149c565b604080516001600160a01b039092168252519081900360200190f35b610213611513565b61021d6004803603606081101561056f57600080fd5b810190602081018135600160201b81111561058957600080fd5b82018360208201111561059b57600080fd5b803590602001918460208302840111600160201b831117156105bc57600080fd5b91935091508035906020013561157d565b610213600480360360208110156105e357600080fd5b50356116f1565b6105356117ac565b61021d600480360360a081101561060857600080fd5b5060ff8135811691602081013590911690604081013590606081013590608001356117bb565b61021d6004803603602081101561064457600080fd5b503560ff1661194a565b61021d6004803603606081101561066457600080fd5b5080356001600160a01b0316906020810135906040013560ff166119be565b61021d6004803603606081101561069957600080fd5b5060ff813581169160208101359091169060400135611a62565b610213600480360360208110156106c957600080fd5b5035611af9565b610213600480360360408110156106e657600080fd5b506001600160a01b038135169060200135611bb4565b610213611c7b565b6102136004803603602081101561071a57600080fd5b50356001600160a01b0316611d2f565b61021d611df2565b61021d6004803603602081101561074857600080fd5b50356001600160a01b0316611e46565b61021d611eab565b61021d6004803603602081101561077657600080fd5b5035611eff565b6102136004803603602081101561079357600080fd5b50356001600160a01b0316611f5b565b61021d600480360360608110156107b957600080fd5b6001600160a01b038235169190810190604081016020820135600160201b8111156107e357600080fd5b8201836020820111156107f557600080fd5b803590602001918460208302840111600160201b8311171561081657600080fd5b919350915035151561205d565b61082b6121f5565b6001600160a01b031661083c6117ac565b6001600160a01b031614610885576040805162461bcd60e51b8152602060048201819052602482015260008051602061238d833981519152604482015290519081900360640190fd5b73CC9e46a8d13350023D2E50Ab61875d60A9F14BCb63d0128ce660026108a96117ac565b6040518363ffffffff1660e01b815260040180838152602001826001600160a01b031681526020019250505060006040518083038186803b1580156108ed57600080fd5b505af4158015610901573d6000803e3d6000fd5b50505050565b6000600273CC9e46a8d13350023D2E50Ab61875d60A9F14BCb63a7df2f8990916040518263ffffffff1660e01b81526004018082815260200191505060206040518083038186803b15801561095b57600080fd5b505af415801561096f573d6000803e3d6000fd5b505050506040513d602081101561098557600080fd5b5051905090565b6060600260015414156109d4576040805162461bcd60e51b815260206004820152601f6024820152600080516020612326833981519152604482015290519081900360640190fd5b60026001558142811015610a22576040805162461bcd60e51b815260206004820152601060248201526f111958591b1a5b99481b9bdd081b595d60821b604482015290519081900360640190fd5b600273CC9e46a8d13350023D2E50Ab61875d60A9F14BCb6371a621cc90918888886040518563ffffffff1660e01b815260040180858152602001848152602001806020018281038252848482818152602001925060200280828437600081840152601f19601f8201169050808301925050509550505050505060006040518083038186803b158015610ab357600080fd5b505af4158015610ac7573d6000803e3d6000fd5b505050506040513d6000823e601f3d908101601f191682016040526020811015610af057600080fd5b8101908080516040519392919084600160201b821115610b0f57600080fd5b908301906020820185811115610b2457600080fd5b82518660208202830111600160201b82111715610b4057600080fd5b82525081516020918201928201910280838360005b83811015610b6d578181015183820152602001610b55565b5050505090500160405250505091505060018055949350505050565b610b916121f5565b6001600160a01b0316610ba26117ac565b6001600160a01b031614610beb576040805162461bcd60e51b8152602060048201819052602482015260008051602061238d833981519152604482015290519081900360640190fd5b6040805163d431ccdf60e01b81526002600482015260248101839052905173CC9e46a8d13350023D2E50Ab61875d60A9F14BCb9163d431ccdf916044808301926000929190829003018186803b158015610c4457600080fd5b505af4158015610c58573d6000803e3d6000fd5b5050505050565b600060026001541415610ca7576040805162461bcd60e51b815260206004820152601f6024820152600080516020612326833981519152604482015290519081900360640190fd5b6002600155610cb46111f5565b15610cf9576040805162461bcd60e51b815260206004820152601060248201526f14185d5cd8589b194e881c185d5cd95960821b604482015290519081900360640190fd5b8180421115610d42576040805162461bcd60e51b815260206004820152601060248201526f111958591b1a5b99481b9bdd081b595d60821b604482015290519081900360640190fd5b6040805163012b7da360e21b8152600260048201526024810188905260ff8716604482015260648101869052905173CC9e46a8d13350023D2E50Ab61875d60A9F14BCb916304adf68c916084808301926020929190829003018186803b158015610dab57600080fd5b505af4158015610dbf573d6000803e3d6000fd5b505050506040513d6020811015610dd557600080fd5b5051600180559695505050505050565b610ded6121f5565b6001600160a01b0316610dfe6117ac565b6001600160a01b031614610e47576040805162461bcd60e51b8152602060048201819052602482015260008051602061238d833981519152604482015290519081900360640190fd5b610e4f6121f9565b565b60408051632ef2849760e21b8152600260048201526001600160a01b0383166024820152905160009173CC9e46a8d13350023D2E50Ab61875d60A9F14BCb9163bbca125c91604480820192602092909190829003018186803b158015610eb657600080fd5b505af4158015610eca573d6000803e3d6000fd5b505050506040513d6020811015610ee057600080fd5b505192915050565b600060026001541415610f30576040805162461bcd60e51b815260206004820152601f6024820152600080516020612326833981519152604482015290519081900360640190fd5b6002600155610f3d6111f5565b15610f82576040805162461bcd60e51b815260206004820152601060248201526f14185d5cd8589b194e881c185d5cd95960821b604482015290519081900360640190fd5b8180421115610fcb576040805162461bcd60e51b815260206004820152601060248201526f111958591b1a5b99481b9bdd081b595d60821b604482015290519081900360640190fd5b600273CC9e46a8d13350023D2E50Ab61875d60A9F14BCb63125690b390918888886040518563ffffffff1660e01b815260040180858152602001806020018381526020018281038252858582818152602001925060200280828437600081840152601f19601f8201169050808301925050509550505050505060206040518083038186803b158015610dab57600080fd5b6110646121f5565b6001600160a01b03166110756117ac565b6001600160a01b0316146110be576040805162461bcd60e51b8152602060048201819052602482015260008051602061238d833981519152604482015290519081900360640190fd5b6040805163365f302560e11b81526002600482015260248101839052905173CC9e46a8d13350023D2E50Ab61875d60A9F14BCb91636cbe604a916044808301926000929190829003018186803b158015610c4457600080fd5b61111f6121f5565b6001600160a01b03166111306117ac565b6001600160a01b031614611179576040805162461bcd60e51b8152602060048201819052602482015260008051602061238d833981519152604482015290519081900360640190fd5b604080516301a9162560e51b8152600260048201526024810184905260448101839052905173CC9e46a8d13350023D2E50Ab61875d60A9F14BCb91633522c4a0916064808301926000929190829003018186803b1580156111d957600080fd5b505af41580156111ed573d6000803e3d6000fd5b505050505050565b600054600160a01b900460ff1690565b600254600354600454600554600654600754600854600954600a54600b546001600160a01b0391821691168a565b6001600160a01b038116600081815260116020526040812054909160ff9091169061125d8261149c565b6001600160a01b0316146112af576040805162461bcd60e51b8152602060048201526014602482015273151bdad95b88191bd95cc81b9bdd08195e1a5cdd60621b604482015290519081900360640190fd5b92915050565b6112bd6121f5565b6001600160a01b03166112ce6117ac565b6001600160a01b031614611317576040805162461bcd60e51b8152602060048201819052602482015260008051602061238d833981519152604482015290519081900360640190fd5b600080546040516001600160a01b03909116907f8be0079c531659141344cd1fd0a4f28419497f9722a3daafe3b4186f6b6457e0908390a3600080546001600160a01b0319169055565b604080516305bc618160e31b8152600260048201526001600160a01b038416602482015260448101839052905160609173CC9e46a8d13350023D2E50Ab61875d60A9F14BCb91632de30c0891606480820192600092909190829003018186803b1580156113cd57600080fd5b505af41580156113e1573d6000803e3d6000fd5b505050506040513d6000823e601f3d908101601f19168201604052602081101561140a57600080fd5b8101908080516040519392919084600160201b82111561142957600080fd5b90830190602082018581111561143e57600080fd5b82518660208202830111600160201b8211171561145a57600080fd5b82525081516020918201928201910280838360005b8381101561148757818101518382015260200161146f565b50505050905001604052505050905092915050565b600c5460009060ff8316106114e7576040805162461bcd60e51b815260206004820152600c60248201526b4f7574206f662072616e676560a01b604482015290519081900360640190fd5b600c805460ff84169081106114f857fe5b6000918252602090912001546001600160a01b031692915050565b61151b6121f5565b6001600160a01b031661152c6117ac565b6001600160a01b031614611575576040805162461bcd60e51b8152602060048201819052602482015260008051602061238d833981519152604482015290519081900360640190fd5b610e4f61229c565b6000600260015414156115c5576040805162461bcd60e51b815260206004820152601f6024820152600080516020612326833981519152604482015290519081900360640190fd5b60026001556115d26111f5565b15611617576040805162461bcd60e51b815260206004820152601060248201526f14185d5cd8589b194e881c185d5cd95960821b604482015290519081900360640190fd5b8180421115611660576040805162461bcd60e51b815260206004820152601060248201526f111958591b1a5b99481b9bdd081b595d60821b604482015290519081900360640190fd5b600273CC9e46a8d13350023D2E50Ab61875d60A9F14BCb638266389690918888886040518563ffffffff1660e01b815260040180858152602001806020018381526020018281038252858582818152602001925060200280828437600081840152601f19601f8201169050808301925050509550505050505060206040518083038186803b158015610dab57600080fd5b6116f96121f5565b6001600160a01b031661170a6117ac565b6001600160a01b031614611753576040805162461bcd60e51b8152602060048201819052602482015260008051602061238d833981519152604482015290519081900360640190fd5b60408051636b10c3f760e01b81526002600482015260248101839052905173CC9e46a8d13350023D2E50Ab61875d60A9F14BCb91636b10c3f7916044808301926000929190829003018186803b158015610c4457600080fd5b6000546001600160a01b031690565b600060026001541415611803576040805162461bcd60e51b815260206004820152601f6024820152600080516020612326833981519152604482015290519081900360640190fd5b60026001556118106111f5565b15611855576040805162461bcd60e51b815260206004820152601060248201526f14185d5cd8589b194e881c185d5cd95960821b604482015290519081900360640190fd5b818042111561189e576040805162461bcd60e51b815260206004820152601060248201526f111958591b1a5b99481b9bdd081b595d60821b604482015290519081900360640190fd5b604080516375b5a25560e11b81526002600482015260ff808a166024830152881660448201526064810187905260848101869052905173CC9e46a8d13350023D2E50Ab61875d60A9F14BCb9163eb6b44aa9160a4808301926020929190829003018186803b15801561190f57600080fd5b505af4158015611923573d6000803e3d6000fd5b505050506040513d602081101561193957600080fd5b505160018055979650505050505050565b600c5460009060ff83161061199b576040805162461bcd60e51b8152602060048201526012602482015271496e646578206f7574206f662072616e676560701b604482015290519081900360640190fd5b600e805460ff84169081106119ac57fe5b90600052602060002001549050919050565b60408051630e0d4dcf60e11b8152600260048201526001600160a01b03851660248201526044810184905260ff83166064820152815160009273CC9e46a8d13350023D2E50Ab61875d60A9F14BCb92631c1a9b9e9260848083019392829003018186803b158015611a2e57600080fd5b505af4158015611a42573d6000803e3d6000fd5b505050506040513d6040811015611a5857600080fd5b5051949350505050565b604080516271c32360e31b81526002600482015260ff80861660248301528416604482015260648101839052905160009173CC9e46a8d13350023D2E50Ab61875d60A9F14BCb9163038e191891608480820192602092909190829003018186803b158015611acf57600080fd5b505af4158015611ae3573d6000803e3d6000fd5b505050506040513d6020811015611a5857600080fd5b611b016121f5565b6001600160a01b0316611b126117ac565b6001600160a01b031614611b5b576040805162461bcd60e51b8152602060048201819052602482015260008051602061238d833981519152604482015290519081900360640190fd5b6040805163226ebc2160e01b81526002600482015260248101839052905173CC9e46a8d13350023D2E50Ab61875d60A9F14BCb9163226ebc21916044808301926000929190829003018186803b158015610c4457600080fd5b600b546001600160a01b03163314611c13576040805162461bcd60e51b815260206004820152601b60248201527f4f6e6c792063616c6c61626c6520627920706f6f6c20746f6b656e0000000000604482015290519081900360640190fd5b604080516325c8e7c160e11b8152600260048201526001600160a01b038416602482015260448101839052905173CC9e46a8d13350023D2E50Ab61875d60A9F14BCb91634b91cf82916064808301926000929190829003018186803b1580156111d957600080fd5b611c836121f5565b6001600160a01b0316611c946117ac565b6001600160a01b031614611cdd576040805162461bcd60e51b8152602060048201819052602482015260008051602061238d833981519152604482015290519081900360640190fd5b60408051630281ea8360e31b815260026004820152905173CC9e46a8d13350023D2E50Ab61875d60A9F14BCb9163140f5418916024808301926000929190829003018186803b1580156108ed57600080fd5b611d376121f5565b6001600160a01b0316611d486117ac565b6001600160a01b031614611d91576040805162461bcd60e51b8152602060048201819052602482015260008051602061238d833981519152604482015290519081900360640190fd5b6040805163308ea6fd60e11b8152600260048201526001600160a01b0383166024820152905173CC9e46a8d13350023D2E50Ab61875d60A9F14BCb9163611d4dfa916044808301926000929190829003018186803b158015610c4457600080fd5b6000600273CC9e46a8d13350023D2E50Ab61875d60A9F14BCb636bcf322590916040518263ffffffff1660e01b81526004018082815260200191505060206040518083038186803b15801561095b57600080fd5b60408051636a7d45ab60e11b8152600260048201526001600160a01b0383166024820152905160009173CC9e46a8d13350023D2E50Ab61875d60A9F14BCb9163d4fa8b5691604480820192602092909190829003018186803b158015610eb657600080fd5b6000600273CC9e46a8d13350023D2E50Ab61875d60A9F14BCb6360d136c290916040518263ffffffff1660e01b81526004018082815260200191505060206040518083038186803b15801561095b57600080fd5b6000600273CC9e46a8d13350023D2E50Ab61875d60A9F14BCb63cbf1d3f49091846040518363ffffffff1660e01b8152600401808381526020018281526020019250505060206040518083038186803b158015610eb657600080fd5b611f636121f5565b6001600160a01b0316611f746117ac565b6001600160a01b031614611fbd576040805162461bcd60e51b8152602060048201819052602482015260008051602061238d833981519152604482015290519081900360640190fd5b6001600160a01b0381166120025760405162461bcd60e51b81526004018080602001828103825260268152602001806123466026913960400191505060405180910390fd5b600080546040516001600160a01b03808516939216917f8be0079c531659141344cd1fd0a4f28419497f9722a3daafe3b4186f6b6457e091a3600080546001600160a01b0319166001600160a01b0392909216919091179055565b6000600273CC9e46a8d13350023D2E50Ab61875d60A9F14BCb63e93f32e59091878787876040518663ffffffff1660e01b815260040180868152602001856001600160a01b031681526020018060200183151581526020018281038252858582818152602001925060200280828437600081840152601f19601f820116905080830192505050965050505050505060206040518083038186803b15801561210357600080fd5b505af4158015612117573d6000803e3d6000fd5b505050506040513d602081101561212d57600080fd5b505195945050505050565b60008282111561218f576040805162461bcd60e51b815260206004820152601e60248201527f536166654d6174683a207375627472616374696f6e206f766572666c6f770000604482015290519081900360640190fd5b50900390565b6000826121a4575060006112af565b828202828482816121b157fe5b04146121ee5760405162461bcd60e51b815260040180806020018281038252602181526020018061236c6021913960400191505060405180910390fd5b9392505050565b3390565b6122016111f5565b612249576040805162461bcd60e51b815260206004820152601460248201527314185d5cd8589b194e881b9bdd081c185d5cd95960621b604482015290519081900360640190fd5b6000805460ff60a01b191690557f5db9ee0a495bf2e6ff9c91a7834c1ba4fdd244a5e8aa4e537bd38aeae4b073aa61227f6121f5565b604080516001600160a01b039092168252519081900360200190a1565b6122a46111f5565b156122e9576040805162461bcd60e51b815260206004820152601060248201526f14185d5cd8589b194e881c185d5cd95960821b604482015290519081900360640190fd5b6000805460ff60a01b1916600160a01b1790557f62e78cea01bee320cd4e420270b5ea74000d11b0c9f74754ebdbfc544b05a25861227f6121f556fe5265656e7472616e637947756172643a207265656e7472616e742063616c6c004f776e61626c653a206e6577206f776e657220697320746865207a65726f2061646472657373536166654d6174683a206d756c7469706c69636174696f6e206f766572666c6f774f776e61626c653a2063616c6c6572206973206e6f7420746865206f776e6572a26469706673582212204345f3817e259becf4e9267b673304cb994bf0c36e048aca18bf664c16fe99e364736f6c634300060c003360a06040523480156200001157600080fd5b506040516200153938038062001539833981810160405260608110156200003757600080fd5b81019080805160405193929190846401000000008211156200005857600080fd5b9083019060208201858111156200006e57600080fd5b82516401000000008111828201881017156200008957600080fd5b82525081516020918201929091019080838360005b83811015620000b85781810151838201526020016200009e565b50505050905090810190601f168015620000e65780820380516001836020036101000a031916815260200191505b50604052602001805160405193929190846401000000008211156200010a57600080fd5b9083019060208201858111156200012057600080fd5b82516401000000008111828201881017156200013b57600080fd5b82525081516020918201929091019080838360005b838110156200016a57818101518382015260200162000150565b50505050905090810190601f168015620001985780820380516001836020036101000a031916815260200191505b5060405260209081015185519093508592508491620001bd916003918501906200028e565b508051620001d39060049060208401906200028e565b50506005805460ff19166012179055506000620001ef62000274565b60058054610100600160a81b0319166101006001600160a01b03841690810291909117909155604051919250906000907f8be0079c531659141344cd1fd0a4f28419497f9722a3daafe3b4186f6b6457e0908290a350620002508162000278565b6200025a62000274565b60601b6001600160601b031916608052506200032a915050565b3390565b6005805460ff191660ff92909216919091179055565b828054600181600116156101000203166002900490600052602060002090601f016020900481019282601f10620002d157805160ff191683800117855562000301565b8280016001018555821562000301579182015b8281111562000301578251825591602001919060010190620002e4565b506200030f92915062000313565b5090565b5b808211156200030f576000815560010162000314565b60805160601c6111ec6200034d6000398061079f5280610f3952506111ec6000f3fe608060405234801561001057600080fd5b50600436106101165760003560e01c8063715018a6116100a257806395d89b411161007157806395d89b4114610343578063a457c2d71461034b578063a9059cbb14610377578063dd62ed3e146103a3578063f2fde38b146103d157610116565b8063715018a6146102e357806379cc6790146102eb5780638119c065146103175780638da5cb5b1461033b57610116565b8063313ce567116100e9578063313ce56714610228578063395093511461024657806340c10f191461027257806342966c68146102a057806370a08231146102bd57610116565b806306fdde031461011b578063095ea7b31461019857806318160ddd146101d857806323b872dd146101f2575b600080fd5b6101236103f7565b6040805160208082528351818301528351919283929083019185019080838360005b8381101561015d578181015183820152602001610145565b50505050905090810190601f16801561018a5780820380516001836020036101000a031916815260200191505b509250505060405180910390f35b6101c4600480360360408110156101ae57600080fd5b506001600160a01b03813516906020013561048d565b604080519115158252519081900360200190f35b6101e06104aa565b60408051918252519081900360200190f35b6101c46004803603606081101561020857600080fd5b506001600160a01b038135811691602081013590911690604001356104b0565b610230610537565b6040805160ff9092168252519081900360200190f35b6101c46004803603604081101561025c57600080fd5b506001600160a01b038135169060200135610540565b61029e6004803603604081101561028857600080fd5b506001600160a01b03813516906020013561058e565b005b61029e600480360360208110156102b657600080fd5b5035610650565b6101e0600480360360208110156102d357600080fd5b50356001600160a01b0316610664565b61029e61067f565b61029e6004803603604081101561030157600080fd5b506001600160a01b038135169060200135610743565b61031f61079d565b604080516001600160a01b039092168252519081900360200190f35b61031f6107c1565b6101236107d5565b6101c46004803603604081101561036157600080fd5b506001600160a01b038135169060200135610836565b6101c46004803603604081101561038d57600080fd5b506001600160a01b03813516906020013561089e565b6101e0600480360360408110156103b957600080fd5b506001600160a01b03813581169160200135166108b2565b61029e600480360360208110156103e757600080fd5b50356001600160a01b03166108dd565b60038054604080516020601f60026000196101006001881615020190951694909404938401819004810282018101909252828152606093909290918301828280156104835780601f1061045857610100808354040283529160200191610483565b820191906000526020600020905b81548152906001019060200180831161046657829003601f168201915b5050505050905090565b60006104a161049a6109fd565b8484610a01565b50600192915050565b60025490565b60006104bd848484610aed565b61052d846104c96109fd565b610528856040518060600160405280602881526020016110dc602891396001600160a01b038a166000908152600160205260408120906105076109fd565b6001600160a01b031681526020810191909152604001600020549190610c48565b610a01565b5060019392505050565b60055460ff1690565b60006104a161054d6109fd565b84610528856001600061055e6109fd565b6001600160a01b03908116825260208083019390935260409182016000908120918c168152925290205490610cdf565b6105966109fd565b6001600160a01b03166105a76107c1565b6001600160a01b031614610602576040805162461bcd60e51b815260206004820181905260248201527f4f776e61626c653a2063616c6c6572206973206e6f7420746865206f776e6572604482015290519081900360640190fd5b80610642576040805162461bcd60e51b815260206004820152600b60248201526a0616d6f756e74203d3d20360ac1b604482015290519081900360640190fd5b61064c8282610d40565b5050565b61066161065b6109fd565b82610e30565b50565b6001600160a01b031660009081526020819052604090205490565b6106876109fd565b6001600160a01b03166106986107c1565b6001600160a01b0316146106f3576040805162461bcd60e51b815260206004820181905260248201527f4f776e61626c653a2063616c6c6572206973206e6f7420746865206f776e6572604482015290519081900360640190fd5b60055460405160009161010090046001600160a01b0316907f8be0079c531659141344cd1fd0a4f28419497f9722a3daafe3b4186f6b6457e0908390a360058054610100600160a81b0319169055565b600061077a82604051806060016040528060248152602001611104602491396107738661076e6109fd565b6108b2565b9190610c48565b905061078e836107886109fd565b83610a01565b6107988383610e30565b505050565b7f000000000000000000000000000000000000000000000000000000000000000081565b60055461010090046001600160a01b031690565b60048054604080516020601f60026000196101006001881615020190951694909404938401819004810282018101909252828152606093909290918301828280156104835780601f1061045857610100808354040283529160200191610483565b60006104a16108436109fd565b8461052885604051806060016040528060258152602001611192602591396001600061086d6109fd565b6001600160a01b03908116825260208083019390935260409182016000908120918d16815292529020549190610c48565b60006104a16108ab6109fd565b8484610aed565b6001600160a01b03918216600090815260016020908152604080832093909416825291909152205490565b6108e56109fd565b6001600160a01b03166108f66107c1565b6001600160a01b031614610951576040805162461bcd60e51b815260206004820181905260248201527f4f776e61626c653a2063616c6c6572206973206e6f7420746865206f776e6572604482015290519081900360640190fd5b6001600160a01b0381166109965760405162461bcd60e51b815260040180806020018281038252602681526020018061106e6026913960400191505060405180910390fd5b6005546040516001600160a01b0380841692610100900416907f8be0079c531659141344cd1fd0a4f28419497f9722a3daafe3b4186f6b6457e090600090a3600580546001600160a01b0390921661010002610100600160a81b0319909216919091179055565b3390565b6001600160a01b038316610a465760405162461bcd60e51b815260040180806020018281038252602481526020018061116e6024913960400191505060405180910390fd5b6001600160a01b038216610a8b5760405162461bcd60e51b81526004018080602001828103825260228152602001806110946022913960400191505060405180910390fd5b6001600160a01b03808416600081815260016020908152604080832094871680845294825291829020859055815185815291517f8c5be1e5ebec7d5bd14f71427d1e84f3dd0314c0f7b2291e5b200ac8c7c3b9259281900390910190a3505050565b6001600160a01b038316610b325760405162461bcd60e51b81526004018080602001828103825260258152602001806111496025913960400191505060405180910390fd5b6001600160a01b038216610b775760405162461bcd60e51b81526004018080602001828103825260238152602001806110296023913960400191505060405180910390fd5b610b82838383610f2c565b610bbf816040518060600160405280602681526020016110b6602691396001600160a01b0386166000908152602081905260409020549190610c48565b6001600160a01b038085166000908152602081905260408082209390935590841681522054610bee9082610cdf565b6001600160a01b038084166000818152602081815260409182902094909455805185815290519193928716927fddf252ad1be2c89b69c2b068fc378daa952ba7f163c4a11628f55a4df523b3ef92918290030190a3505050565b60008184841115610cd75760405162461bcd60e51b81526004018080602001828103825283818151815260200191508051906020019080838360005b83811015610c9c578181015183820152602001610c84565b50505050905090810190601f168015610cc95780820380516001836020036101000a031916815260200191505b509250505060405180910390fd5b505050900390565b600082820183811015610d39576040805162461bcd60e51b815260206004820152601b60248201527f536166654d6174683a206164646974696f6e206f766572666c6f770000000000604482015290519081900360640190fd5b9392505050565b6001600160a01b038216610d9b576040805162461bcd60e51b815260206004820152601f60248201527f45524332303a206d696e7420746f20746865207a65726f206164647265737300604482015290519081900360640190fd5b610da760008383610f2c565b600254610db49082610cdf565b6002556001600160a01b038216600090815260208190526040902054610dda9082610cdf565b6001600160a01b0383166000818152602081815260408083209490945583518581529351929391927fddf252ad1be2c89b69c2b068fc378daa952ba7f163c4a11628f55a4df523b3ef9281900390910190a35050565b6001600160a01b038216610e755760405162461bcd60e51b81526004018080602001828103825260218152602001806111286021913960400191505060405180910390fd5b610e8182600083610f2c565b610ebe8160405180606001604052806022815260200161104c602291396001600160a01b0385166000908152602081905260409020549190610c48565b6001600160a01b038316600090815260208190526040902055600254610ee49082610fcb565b6002556040805182815290516000916001600160a01b038516917fddf252ad1be2c89b69c2b068fc378daa952ba7f163c4a11628f55a4df523b3ef9181900360200190a35050565b610f37838383610798565b7f00000000000000000000000000000000000000000000000000000000000000006001600160a01b031663c00c125c83836040518363ffffffff1660e01b815260040180836001600160a01b0316815260200182815260200192505050600060405180830381600087803b158015610fae57600080fd5b505af1158015610fc2573d6000803e3d6000fd5b50505050505050565b600082821115611022576040805162461bcd60e51b815260206004820152601e60248201527f536166654d6174683a207375627472616374696f6e206f766572666c6f770000604482015290519081900360640190fd5b5090039056fe45524332303a207472616e7366657220746f20746865207a65726f206164647265737345524332303a206275726e20616d6f756e7420657863656564732062616c616e63654f776e61626c653a206e6577206f776e657220697320746865207a65726f206164647265737345524332303a20617070726f766520746f20746865207a65726f206164647265737345524332303a207472616e7366657220616d6f756e7420657863656564732062616c616e636545524332303a207472616e7366657220616d6f756e74206578636565647320616c6c6f77616e636545524332303a206275726e20616d6f756e74206578636565647320616c6c6f77616e636545524332303a206275726e2066726f6d20746865207a65726f206164647265737345524332303a207472616e736665722066726f6d20746865207a65726f206164647265737345524332303a20617070726f76652066726f6d20746865207a65726f206164647265737345524332303a2064656372656173656420616c6c6f77616e63652062656c6f77207a65726fa2646970667358221220678198bfabd6626d197daaf9d120f3681205b4df79fdbff052dd12daf82444eb64736f6c634300060c0033536166654d6174683a206d756c7469706c69636174696f6e206f766572666c6f77",
  "deployedBytecode": "0x608060405234801561001057600080fd5b50600436106102065760003560e01c806384cdd9bc1161011a578063c00c125c116100ad578063da7a77be1161007c578063da7a77be14610732578063e25aa5fa14610758578063ef0a712f14610760578063f2fde38b1461077d578063f9273ffb146107a357610206565b8063c00c125c146106d0578063c4db7fa0146106fc578063d0d41fe114610704578063d46300fd1461072a57610206565b806391ceb3eb116100e957806391ceb3eb1461062e57806398899f401461064e578063a95b089f14610683578063ac5bf263146106b357610206565b806384cdd9bc146105595780638beb60b6146105cd5780638da5cb5b146105ea57806391695586146105f257610206565b806352ff62ec1161019d57806366c0bd241161016c57806366c0bd24146104a5578063715018a6146104e15780637c61e561146104e957806382b86600146105155780638456cb591461055157610206565b806352ff62ec146103e5578063593d132c146104025780635c975abb146104255780635fd65f0f1461044157610206565b80633e3a1560116101d95780633e3a1560146103115780633f4ba83a146103435780634a1b0d571461034b5780634d49e87d1461037157610206565b80630419b45a1461020b5780630ba819591461021557806331cd52b01461022f57806334e19907146102f4575b600080fd5b610213610823565b005b61021d610907565b60408051918252519081900360200190f35b6102a46004803603606081101561024557600080fd5b81359190810190604081016020820135600160201b81111561026657600080fd5b82018360208201111561027857600080fd5b803590602001918460208302840111600160201b8311171561029957600080fd5b91935091503561098c565b60408051602080825283518183015283519192839290830191858101910280838360005b838110156102e05781810151838201526020016102c8565b505050509050019250505060405180910390f35b6102136004803603602081101561030a57600080fd5b5035610b89565b61021d6004803603608081101561032757600080fd5b5080359060ff6020820135169060408101359060600135610c5f565b610213610de5565b61021d6004803603602081101561036157600080fd5b50356001600160a01b0316610e51565b61021d6004803603606081101561038757600080fd5b810190602081018135600160201b8111156103a157600080fd5b8201836020820111156103b357600080fd5b803590602001918460208302840111600160201b831117156103d457600080fd5b919350915080359060200135610ee8565b610213600480360360208110156103fb57600080fd5b503561105c565b6102136004803603604081101561041857600080fd5b5080359060200135611117565b61042d6111f5565b604080519115158252519081900360200190f35b610449611205565b604080519a8b5260208b0199909952898901979097526060890195909552608088019390935260a087019190915260c086015260e08501526001600160a01b039081166101008501521661012083015251908190036101400190f35b6104cb600480360360208110156104bb57600080fd5b50356001600160a01b0316611233565b6040805160ff9092168252519081900360200190f35b6102136112b5565b6102a4600480360360408110156104ff57600080fd5b506001600160a01b038135169060200135611361565b6105356004803603602081101561052b57600080fd5b503560ff1661149c565b604080516001600160a01b039092168252519081900360200190f35b610213611513565b61021d6004803603606081101561056f57600080fd5b810190602081018135600160201b81111561058957600080fd5b82018360208201111561059b57600080fd5b803590602001918460208302840111600160201b831117156105bc57600080fd5b91935091508035906020013561157d565b610213600480360360208110156105e357600080fd5b50356116f1565b6105356117ac565b61021d600480360360a081101561060857600080fd5b5060ff8135811691602081013590911690604081013590606081013590608001356117bb565b61021d6004803603602081101561064457600080fd5b503560ff1661194a565b61021d6004803603606081101561066457600080fd5b5080356001600160a01b0316906020810135906040013560ff166119be565b61021d6004803603606081101561069957600080fd5b5060ff813581169160208101359091169060400135611a62565b610213600480360360208110156106c957600080fd5b5035611af9565b610213600480360360408110156106e657600080fd5b506001600160a01b038135169060200135611bb4565b610213611c7b565b6102136004803603602081101561071a57600080fd5b50356001600160a01b0316611d2f565b61021d611df2565b61021d6004803603602081101561074857600080fd5b50356001600160a01b0316611e46565b61021d611eab565b61021d6004803603602081101561077657600080fd5b5035611eff565b6102136004803603602081101561079357600080fd5b50356001600160a01b0316611f5b565b61021d600480360360608110156107b957600080fd5b6001600160a01b038235169190810190604081016020820135600160201b8111156107e357600080fd5b8201836020820111156107f557600080fd5b803590602001918460208302840111600160201b8311171561081657600080fd5b919350915035151561205d565b61082b6121f5565b6001600160a01b031661083c6117ac565b6001600160a01b031614610885576040805162461bcd60e51b8152602060048201819052602482015260008051602061238d833981519152604482015290519081900360640190fd5b73__$dc3328b2f02d720c5579385d9a55788541$__63d0128ce660026108a96117ac565b6040518363ffffffff1660e01b815260040180838152602001826001600160a01b031681526020019250505060006040518083038186803b1580156108ed57600080fd5b505af4158015610901573d6000803e3d6000fd5b50505050565b6000600273__$dc3328b2f02d720c5579385d9a55788541$__63a7df2f8990916040518263ffffffff1660e01b81526004018082815260200191505060206040518083038186803b15801561095b57600080fd5b505af415801561096f573d6000803e3d6000fd5b505050506040513d602081101561098557600080fd5b5051905090565b6060600260015414156109d4576040805162461bcd60e51b815260206004820152601f6024820152600080516020612326833981519152604482015290519081900360640190fd5b60026001558142811015610a22576040805162461bcd60e51b815260206004820152601060248201526f111958591b1a5b99481b9bdd081b595d60821b604482015290519081900360640190fd5b600273__$dc3328b2f02d720c5579385d9a55788541$__6371a621cc90918888886040518563ffffffff1660e01b815260040180858152602001848152602001806020018281038252848482818152602001925060200280828437600081840152601f19601f8201169050808301925050509550505050505060006040518083038186803b158015610ab357600080fd5b505af4158015610ac7573d6000803e3d6000fd5b505050506040513d6000823e601f3d908101601f191682016040526020811015610af057600080fd5b8101908080516040519392919084600160201b821115610b0f57600080fd5b908301906020820185811115610b2457600080fd5b82518660208202830111600160201b82111715610b4057600080fd5b82525081516020918201928201910280838360005b83811015610b6d578181015183820152602001610b55565b5050505090500160405250505091505060018055949350505050565b610b916121f5565b6001600160a01b0316610ba26117ac565b6001600160a01b031614610beb576040805162461bcd60e51b8152602060048201819052602482015260008051602061238d833981519152604482015290519081900360640190fd5b6040805163d431ccdf60e01b81526002600482015260248101839052905173__$dc3328b2f02d720c5579385d9a55788541$__9163d431ccdf916044808301926000929190829003018186803b158015610c4457600080fd5b505af4158015610c58573d6000803e3d6000fd5b5050505050565b600060026001541415610ca7576040805162461bcd60e51b815260206004820152601f6024820152600080516020612326833981519152604482015290519081900360640190fd5b6002600155610cb46111f5565b15610cf9576040805162461bcd60e51b815260206004820152601060248201526f14185d5cd8589b194e881c185d5cd95960821b604482015290519081900360640190fd5b8180421115610d42576040805162461bcd60e51b815260206004820152601060248201526f111958591b1a5b99481b9bdd081b595d60821b604482015290519081900360640190fd5b6040805163012b7da360e21b8152600260048201526024810188905260ff8716604482015260648101869052905173__$dc3328b2f02d720c5579385d9a55788541$__916304adf68c916084808301926020929190829003018186803b158015610dab57600080fd5b505af4158015610dbf573d6000803e3d6000fd5b505050506040513d6020811015610dd557600080fd5b5051600180559695505050505050565b610ded6121f5565b6001600160a01b0316610dfe6117ac565b6001600160a01b031614610e47576040805162461bcd60e51b8152602060048201819052602482015260008051602061238d833981519152604482015290519081900360640190fd5b610e4f6121f9565b565b60408051632ef2849760e21b8152600260048201526001600160a01b0383166024820152905160009173__$dc3328b2f02d720c5579385d9a55788541$__9163bbca125c91604480820192602092909190829003018186803b158015610eb657600080fd5b505af4158015610eca573d6000803e3d6000fd5b505050506040513d6020811015610ee057600080fd5b505192915050565b600060026001541415610f30576040805162461bcd60e51b815260206004820152601f6024820152600080516020612326833981519152604482015290519081900360640190fd5b6002600155610f3d6111f5565b15610f82576040805162461bcd60e51b815260206004820152601060248201526f14185d5cd8589b194e881c185d5cd95960821b604482015290519081900360640190fd5b8180421115610fcb576040805162461bcd60e51b815260206004820152601060248201526f111958591b1a5b99481b9bdd081b595d60821b604482015290519081900360640190fd5b600273__$dc3328b2f02d720c5579385d9a55788541$__63125690b390918888886040518563ffffffff1660e01b815260040180858152602001806020018381526020018281038252858582818152602001925060200280828437600081840152601f19601f8201169050808301925050509550505050505060206040518083038186803b158015610dab57600080fd5b6110646121f5565b6001600160a01b03166110756117ac565b6001600160a01b0316146110be576040805162461bcd60e51b8152602060048201819052602482015260008051602061238d833981519152604482015290519081900360640190fd5b6040805163365f302560e11b81526002600482015260248101839052905173__$dc3328b2f02d720c5579385d9a55788541$__91636cbe604a916044808301926000929190829003018186803b158015610c4457600080fd5b61111f6121f5565b6001600160a01b03166111306117ac565b6001600160a01b031614611179576040805162461bcd60e51b8152602060048201819052602482015260008051602061238d833981519152604482015290519081900360640190fd5b604080516301a9162560e51b8152600260048201526024810184905260448101839052905173__$dc3328b2f02d720c5579385d9a55788541$__91633522c4a0916064808301926000929190829003018186803b1580156111d957600080fd5b505af41580156111ed573d6000803e3d6000fd5b505050505050565b600054600160a01b900460ff1690565b600254600354600454600554600654600754600854600954600a54600b546001600160a01b0391821691168a565b6001600160a01b038116600081815260116020526040812054909160ff9091169061125d8261149c565b6001600160a01b0316146112af576040805162461bcd60e51b8152602060048201526014602482015273151bdad95b88191bd95cc81b9bdd08195e1a5cdd60621b604482015290519081900360640190fd5b92915050565b6112bd6121f5565b6001600160a01b03166112ce6117ac565b6001600160a01b031614611317576040805162461bcd60e51b8152602060048201819052602482015260008051602061238d833981519152604482015290519081900360640190fd5b600080546040516001600160a01b03909116907f8be0079c531659141344cd1fd0a4f28419497f9722a3daafe3b4186f6b6457e0908390a3600080546001600160a01b0319169055565b604080516305bc618160e31b8152600260048201526001600160a01b038416602482015260448101839052905160609173__$dc3328b2f02d720c5579385d9a55788541$__91632de30c0891606480820192600092909190829003018186803b1580156113cd57600080fd5b505af41580156113e1573d6000803e3d6000fd5b505050506040513d6000823e601f3d908101601f19168201604052602081101561140a57600080fd5b8101908080516040519392919084600160201b82111561142957600080fd5b90830190602082018581111561143e57600080fd5b82518660208202830111600160201b8211171561145a57600080fd5b82525081516020918201928201910280838360005b8381101561148757818101518382015260200161146f565b50505050905001604052505050905092915050565b600c5460009060ff8316106114e7576040805162461bcd60e51b815260206004820152600c60248201526b4f7574206f662072616e676560a01b604482015290519081900360640190fd5b600c805460ff84169081106114f857fe5b6000918252602090912001546001600160a01b031692915050565b61151b6121f5565b6001600160a01b031661152c6117ac565b6001600160a01b031614611575576040805162461bcd60e51b8152602060048201819052602482015260008051602061238d833981519152604482015290519081900360640190fd5b610e4f61229c565b6000600260015414156115c5576040805162461bcd60e51b815260206004820152601f6024820152600080516020612326833981519152604482015290519081900360640190fd5b60026001556115d26111f5565b15611617576040805162461bcd60e51b815260206004820152601060248201526f14185d5cd8589b194e881c185d5cd95960821b604482015290519081900360640190fd5b8180421115611660576040805162461bcd60e51b815260206004820152601060248201526f111958591b1a5b99481b9bdd081b595d60821b604482015290519081900360640190fd5b600273__$dc3328b2f02d720c5579385d9a55788541$__638266389690918888886040518563ffffffff1660e01b815260040180858152602001806020018381526020018281038252858582818152602001925060200280828437600081840152601f19601f8201169050808301925050509550505050505060206040518083038186803b158015610dab57600080fd5b6116f96121f5565b6001600160a01b031661170a6117ac565b6001600160a01b031614611753576040805162461bcd60e51b8152602060048201819052602482015260008051602061238d833981519152604482015290519081900360640190fd5b60408051636b10c3f760e01b81526002600482015260248101839052905173__$dc3328b2f02d720c5579385d9a55788541$__91636b10c3f7916044808301926000929190829003018186803b158015610c4457600080fd5b6000546001600160a01b031690565b600060026001541415611803576040805162461bcd60e51b815260206004820152601f6024820152600080516020612326833981519152604482015290519081900360640190fd5b60026001556118106111f5565b15611855576040805162461bcd60e51b815260206004820152601060248201526f14185d5cd8589b194e881c185d5cd95960821b604482015290519081900360640190fd5b818042111561189e576040805162461bcd60e51b815260206004820152601060248201526f111958591b1a5b99481b9bdd081b595d60821b604482015290519081900360640190fd5b604080516375b5a25560e11b81526002600482015260ff808a166024830152881660448201526064810187905260848101869052905173__$dc3328b2f02d720c5579385d9a55788541$__9163eb6b44aa9160a4808301926020929190829003018186803b15801561190f57600080fd5b505af4158015611923573d6000803e3d6000fd5b505050506040513d602081101561193957600080fd5b505160018055979650505050505050565b600c5460009060ff83161061199b576040805162461bcd60e51b8152602060048201526012602482015271496e646578206f7574206f662072616e676560701b604482015290519081900360640190fd5b600e805460ff84169081106119ac57fe5b90600052602060002001549050919050565b60408051630e0d4dcf60e11b8152600260048201526001600160a01b03851660248201526044810184905260ff83166064820152815160009273__$dc3328b2f02d720c5579385d9a55788541$__92631c1a9b9e9260848083019392829003018186803b158015611a2e57600080fd5b505af4158015611a42573d6000803e3d6000fd5b505050506040513d6040811015611a5857600080fd5b5051949350505050565b604080516271c32360e31b81526002600482015260ff80861660248301528416604482015260648101839052905160009173__$dc3328b2f02d720c5579385d9a55788541$__9163038e191891608480820192602092909190829003018186803b158015611acf57600080fd5b505af4158015611ae3573d6000803e3d6000fd5b505050506040513d6020811015611a5857600080fd5b611b016121f5565b6001600160a01b0316611b126117ac565b6001600160a01b031614611b5b576040805162461bcd60e51b8152602060048201819052602482015260008051602061238d833981519152604482015290519081900360640190fd5b6040805163226ebc2160e01b81526002600482015260248101839052905173__$dc3328b2f02d720c5579385d9a55788541$__9163226ebc21916044808301926000929190829003018186803b158015610c4457600080fd5b600b546001600160a01b03163314611c13576040805162461bcd60e51b815260206004820152601b60248201527f4f6e6c792063616c6c61626c6520627920706f6f6c20746f6b656e0000000000604482015290519081900360640190fd5b604080516325c8e7c160e11b8152600260048201526001600160a01b038416602482015260448101839052905173__$dc3328b2f02d720c5579385d9a55788541$__91634b91cf82916064808301926000929190829003018186803b1580156111d957600080fd5b611c836121f5565b6001600160a01b0316611c946117ac565b6001600160a01b031614611cdd576040805162461bcd60e51b8152602060048201819052602482015260008051602061238d833981519152604482015290519081900360640190fd5b60408051630281ea8360e31b815260026004820152905173__$dc3328b2f02d720c5579385d9a55788541$__9163140f5418916024808301926000929190829003018186803b1580156108ed57600080fd5b611d376121f5565b6001600160a01b0316611d486117ac565b6001600160a01b031614611d91576040805162461bcd60e51b8152602060048201819052602482015260008051602061238d833981519152604482015290519081900360640190fd5b6040805163308ea6fd60e11b8152600260048201526001600160a01b0383166024820152905173__$dc3328b2f02d720c5579385d9a55788541$__9163611d4dfa916044808301926000929190829003018186803b158015610c4457600080fd5b6000600273__$dc3328b2f02d720c5579385d9a55788541$__636bcf322590916040518263ffffffff1660e01b81526004018082815260200191505060206040518083038186803b15801561095b57600080fd5b60408051636a7d45ab60e11b8152600260048201526001600160a01b0383166024820152905160009173__$dc3328b2f02d720c5579385d9a55788541$__9163d4fa8b5691604480820192602092909190829003018186803b158015610eb657600080fd5b6000600273__$dc3328b2f02d720c5579385d9a55788541$__6360d136c290916040518263ffffffff1660e01b81526004018082815260200191505060206040518083038186803b15801561095b57600080fd5b6000600273__$dc3328b2f02d720c5579385d9a55788541$__63cbf1d3f49091846040518363ffffffff1660e01b8152600401808381526020018281526020019250505060206040518083038186803b158015610eb657600080fd5b611f636121f5565b6001600160a01b0316611f746117ac565b6001600160a01b031614611fbd576040805162461bcd60e51b8152602060048201819052602482015260008051602061238d833981519152604482015290519081900360640190fd5b6001600160a01b0381166120025760405162461bcd60e51b81526004018080602001828103825260268152602001806123466026913960400191505060405180910390fd5b600080546040516001600160a01b03808516939216917f8be0079c531659141344cd1fd0a4f28419497f9722a3daafe3b4186f6b6457e091a3600080546001600160a01b0319166001600160a01b0392909216919091179055565b6000600273__$dc3328b2f02d720c5579385d9a55788541$__63e93f32e59091878787876040518663ffffffff1660e01b815260040180868152602001856001600160a01b031681526020018060200183151581526020018281038252858582818152602001925060200280828437600081840152601f19601f820116905080830192505050965050505050505060206040518083038186803b15801561210357600080fd5b505af4158015612117573d6000803e3d6000fd5b505050506040513d602081101561212d57600080fd5b505195945050505050565b60008282111561218f576040805162461bcd60e51b815260206004820152601e60248201527f536166654d6174683a207375627472616374696f6e206f766572666c6f770000604482015290519081900360640190fd5b50900390565b6000826121a4575060006112af565b828202828482816121b157fe5b04146121ee5760405162461bcd60e51b815260040180806020018281038252602181526020018061236c6021913960400191505060405180910390fd5b9392505050565b3390565b6122016111f5565b612249576040805162461bcd60e51b815260206004820152601460248201527314185d5cd8589b194e881b9bdd081c185d5cd95960621b604482015290519081900360640190fd5b6000805460ff60a01b191690557f5db9ee0a495bf2e6ff9c91a7834c1ba4fdd244a5e8aa4e537bd38aeae4b073aa61227f6121f5565b604080516001600160a01b039092168252519081900360200190a1565b6122a46111f5565b156122e9576040805162461bcd60e51b815260206004820152601060248201526f14185d5cd8589b194e881c185d5cd95960821b604482015290519081900360640190fd5b6000805460ff60a01b1916600160a01b1790557f62e78cea01bee320cd4e420270b5ea74000d11b0c9f74754ebdbfc544b05a25861227f6121f556fe5265656e7472616e637947756172643a207265656e7472616e742063616c6c004f776e61626c653a206e6577206f776e657220697320746865207a65726f2061646472657373536166654d6174683a206d756c7469706c69636174696f6e206f766572666c6f774f776e61626c653a2063616c6c6572206973206e6f7420746865206f776e6572a26469706673582212204345f3817e259becf4e9267b673304cb994bf0c36e048aca18bf664c16fe99e364736f6c634300060c0033",
  "libraries": {
    "EvmoSwapUtils": "0xCC9e46a8d13350023D2E50Ab61875d60A9F14BCb"
  },
  "devdoc": {
    "details": "Most of the logic is stored as a library `SwapUtils` for the sake of reducing contract's deployment size.",
    "kind": "dev",
    "methods": {
      "addLiquidity(uint256[],uint256,uint256)": {
        "params": {
          "amounts": "the amounts of each token to add, in their native precision",
          "deadline": "latest timestamp to accept this transaction",
          "minToMint": "the minimum LP tokens adding this amount of liquidity should mint, otherwise revert. Handy for front-running mitigation"
        },
        "returns": {
          "_0": "amount of LP token user minted and received"
        }
      },
      "calculateCurrentWithdrawFee(address)": {
        "details": "returned value should be divided by FEE_DENOMINATOR to convert to correct decimals",
        "params": {
          "user": "address you want to calculate withdraw fee of"
        },
        "returns": {
          "_0": "current withdraw fee of the user"
        }
      },
      "calculateRemoveLiquidity(address,uint256)": {
        "params": {
          "account": "the address that is withdrawing tokens",
          "amount": "the amount of LP tokens that would be burned on withdrawal"
        },
        "returns": {
          "_0": "array of token balances that the user will receive"
        }
      },
      "calculateRemoveLiquidityOneToken(address,uint256,uint8)": {
        "params": {
          "account": "the address that is withdrawing tokens",
          "tokenAmount": "the amount of LP token to burn",
          "tokenIndex": "index of which token will be withdrawn"
        },
        "returns": {
          "availableTokenAmount": "calculated amount of underlying token available to withdraw"
        }
      },
      "calculateSwap(uint8,uint8,uint256)": {
        "params": {
          "dx": "the amount of tokens the user wants to sell. If the token charges a fee on transfers, use the amount that gets transferred after the fee.",
          "tokenIndexFrom": "the token the user wants to sell",
          "tokenIndexTo": "the token the user wants to buy"
        },
        "returns": {
          "_0": "amount of tokens the user will receive"
        }
      },
      "calculateTokenAmount(address,uint256[],bool)": {
        "details": "This shouldn't be used outside frontends for user estimates.",
        "params": {
          "account": "address that is depositing or withdrawing tokens",
          "amounts": "an array of token amounts to deposit or withdrawal, corresponding to pooledTokens. The amount should be in each pooled token's native precision. If a token charges a fee on transfers, use the amount that gets transferred after the fee.",
          "deposit": "whether this is a deposit or a withdrawal"
        },
        "returns": {
          "_0": "token amount the user will receive"
        }
      },
      "constructor": {
        "params": {
          "_a": "the amplification coefficient * n * (n - 1). See the StableSwap paper for details",
          "_adminFee": "default adminFee to be initialized with",
          "_depositFee": "default depositFee to be initialized with",
          "_devaddr": "default _devaddr to be initialized with",
          "_fee": "default swap fee to be initialized with",
          "_pooledTokens": "an array of ERC20s this pool will accept",
          "_withdrawFee": "default withdrawFee to be initialized with",
          "decimals": "the decimals to use for each pooled token, eg 8 for WBTC. Cannot be larger than POOL_PRECISION_DECIMALS",
          "lpTokenName": "the long-form name of the token to be deployed",
          "lpTokenSymbol": "the short symbol for the token to be deployed"
        }
      },
      "getA()": {
        "details": "See the StableSwap paper for details",
        "returns": {
          "_0": "A parameter"
        }
      },
      "getAPrecise()": {
        "details": "See the StableSwap paper for details",
        "returns": {
          "_0": "A parameter in its raw precision form"
        }
      },
      "getAdminBalance(uint256)": {
        "params": {
          "index": "Index of the pooled token"
        },
        "returns": {
          "_0": "admin's token balance in the token's precision"
        }
      },
      "getDepositTimestamp(address)": {
        "returns": {
          "_0": "timestamp of the last deposit made by the given address"
        }
      },
      "getToken(uint8)": {
        "params": {
          "index": "the index of the token"
        },
        "returns": {
          "_0": "address of the token at given index"
        }
      },
      "getTokenBalance(uint8)": {
        "params": {
          "index": "the index of the token"
        },
        "returns": {
          "_0": "current balance of the pooled token at given index with token's native precision"
        }
      },
      "getTokenIndex(address)": {
        "params": {
          "tokenAddress": "address of the token"
        },
        "returns": {
          "_0": "the index of the given token address"
        }
      },
      "getVirtualPrice()": {
        "returns": {
          "_0": "the virtual price, scaled to the POOL_PRECISION_DECIMALS"
        }
      },
      "owner()": {
        "details": "Returns the address of the current owner."
      },
      "paused()": {
        "details": "Returns true if the contract is paused, and false otherwise."
      },
      "rampA(uint256,uint256)": {
        "params": {
          "futureA": "the new A to ramp towards",
          "futureTime": "timestamp when the new A should be reached"
        }
      },
      "removeLiquidity(uint256,uint256[],uint256)": {
        "details": "Liquidity can always be removed, even when the pool is paused.",
        "params": {
          "amount": "the amount of LP tokens to burn",
          "deadline": "latest timestamp to accept this transaction",
          "minAmounts": "the minimum amounts of each token in the pool        acceptable for this burn. Useful as a front-running mitigation"
        },
        "returns": {
          "_0": "amounts of tokens user received"
        }
      },
      "removeLiquidityImbalance(uint256[],uint256,uint256)": {
        "params": {
          "amounts": "how much of each token to withdraw",
          "deadline": "latest timestamp to accept this transaction",
          "maxBurnAmount": "the max LP token provider is willing to pay to remove liquidity. Useful as a front-running mitigation."
        },
        "returns": {
          "_0": "amount of LP tokens burned"
        }
      },
      "removeLiquidityOneToken(uint256,uint8,uint256,uint256)": {
        "params": {
          "deadline": "latest timestamp to accept this transaction",
          "minAmount": "the minimum amount to withdraw, otherwise revert",
          "tokenAmount": "the amount of the token you want to receive",
          "tokenIndex": "the index of the token you want to receive"
        },
        "returns": {
          "_0": "amount of chosen token user received"
        }
      },
      "renounceOwnership()": {
        "details": "Leaves the contract without owner. It will not be possible to call `onlyOwner` functions anymore. Can only be called by the current owner. NOTE: Renouncing ownership will leave the contract without an owner, thereby removing any functionality that is only available to the owner."
      },
      "setAdminFee(uint256)": {
        "params": {
          "newAdminFee": "new admin fee to be applied on future transactions"
        }
      },
      "setDefaultDepositFee(uint256)": {
        "params": {
          "newDepositFee": "new deposit fee to be applied on future deposits"
        }
      },
      "setDefaultWithdrawFee(uint256)": {
        "params": {
          "newWithdrawFee": "new withdraw fee to be applied on future deposits"
        }
      },
      "setSwapFee(uint256)": {
        "params": {
          "newSwapFee": "new swap fee to be applied on future transactions"
        }
      },
      "swap(uint8,uint8,uint256,uint256,uint256)": {
        "params": {
          "deadline": "latest timestamp to accept this transaction",
          "dx": "the amount of tokens the user wants to swap from",
          "minDy": "the min amount the user would like to receive, or revert.",
          "tokenIndexFrom": "the token the user wants to swap from",
          "tokenIndexTo": "the token the user wants to swap to"
        }
      },
      "transferOwnership(address)": {
        "details": "Transfers ownership of the contract to a new account (`newOwner`). Can only be called by the current owner."
      },
      "updateUserWithdrawFee(address,uint256)": {
        "params": {
          "recipient": "address of the recipient of pool token",
          "transferAmount": "amount of pool token to transfer"
        }
      }
    },
    "title": "Swap - A StableSwap implementation in solidity.",
    "version": 1
  },
  "userdoc": {
    "kind": "user",
    "methods": {
      "addLiquidity(uint256[],uint256,uint256)": {
        "notice": "Add liquidity to the pool with given amounts"
      },
      "calculateCurrentWithdrawFee(address)": {
        "notice": "Calculate the fee that is applied when the given user withdraws. The withdraw fee decays linearly over period of 4 weeks. For example, depositing and withdrawing right away will charge you the full amount of withdraw fee. But withdrawing after 4 weeks will charge you no additional fees."
      },
      "calculateRemoveLiquidity(address,uint256)": {
        "notice": "A simple method to calculate amount of each underlying tokens that is returned upon burning given amount of LP tokens"
      },
      "calculateRemoveLiquidityOneToken(address,uint256,uint8)": {
        "notice": "Calculate the amount of underlying token available to withdraw when withdrawing via only single token"
      },
      "calculateSwap(uint8,uint8,uint256)": {
        "notice": "Calculate amount of tokens you receive on swap"
      },
      "calculateTokenAmount(address,uint256[],bool)": {
        "notice": "A simple method to calculate prices from deposits or withdrawals, excluding fees but including slippage. This is helpful as an input into the various \"min\" parameters on calls to fight front-running"
      },
      "constructor": "Deploys this Swap contract with given parameters as default values. This will also deploy a LPToken that represents users LP position. The owner of LPToken will be this contract - which means only this contract is allowed to mint new tokens.",
      "getA()": {
        "notice": "Return A, the amplification coefficient * n * (n - 1)"
      },
      "getAPrecise()": {
        "notice": "Return A in its raw precision form"
      },
      "getAdminBalance(uint256)": {
        "notice": "This function reads the accumulated amount of admin fees of the token with given index"
      },
      "getDepositTimestamp(address)": {
        "notice": "Return timestamp of last deposit of given address"
      },
      "getToken(uint8)": {
        "notice": "Return address of the pooled token at given index. Reverts if tokenIndex is out of range."
      },
      "getTokenBalance(uint8)": {
        "notice": "Return current balance of the pooled token at given index"
      },
      "getTokenIndex(address)": {
        "notice": "Return the index of the given token address. Reverts if no matching token is found."
      },
      "getVirtualPrice()": {
        "notice": "Get the virtual price, to help calculate profit"
      },
      "pause()": {
        "notice": "Pause the contract. Revert if already paused."
      },
      "rampA(uint256,uint256)": {
        "notice": "Start ramping up or down A parameter towards given futureA and futureTime Checks if the change is too rapid, and commits the new A value only when it falls under the limit range."
      },
      "removeLiquidity(uint256,uint256[],uint256)": {
        "notice": "Burn LP tokens to remove liquidity from the pool. Withdraw fee that decays linearly over period of 4 weeks since last deposit will apply."
      },
      "removeLiquidityImbalance(uint256[],uint256,uint256)": {
        "notice": "Remove liquidity from the pool, weighted differently than the pool's current balances. Withdraw fee that decays linearly over period of 4 weeks since last deposit will apply."
      },
      "removeLiquidityOneToken(uint256,uint8,uint256,uint256)": {
        "notice": "Remove liquidity from the pool all in one token. Withdraw fee that decays linearly over period of 4 weeks since last deposit will apply."
      },
      "setAdminFee(uint256)": {
        "notice": "Update the admin fee. Admin fee takes portion of the swap fee."
      },
      "setDefaultDepositFee(uint256)": {
        "notice": "Update the deposit fee. "
      },
      "setDefaultWithdrawFee(uint256)": {
        "notice": "Update the withdraw fee. This fee decays linearly over 4 weeks since user's last deposit."
      },
      "setSwapFee(uint256)": {
        "notice": "Update the swap fee to be applied on swaps"
      },
      "stopRampA()": {
        "notice": "Stop ramping A immediately. Reverts if ramp A is already stopped."
      },
      "swap(uint8,uint8,uint256,uint256,uint256)": {
        "notice": "Swap two tokens using this pool"
      },
      "unpause()": {
        "notice": "Unpause the contract. Revert if already unpaused."
      },
      "updateUserWithdrawFee(address,uint256)": {
        "notice": "Updates the user withdraw fee. This function can only be called by the pool token. Should be used to update the withdraw fee on transfer of pool tokens. Transferring your pool token will reset the 4 weeks period. If the recipient is already holding some pool tokens, the withdraw fee will be discounted in respective amounts."
      },
      "withdrawAdminFees()": {
        "notice": "Withdraw all admin fees to the contract owner"
      }
    },
    "notice": "This contract is responsible for custody of closely pegged assets (eg. group of stablecoins) and automatic market making system. Users become an LP (Liquidity Provider) by depositing their tokens in desired ratios for an exchange of the pool token that represents their share of the pool. Users can burn pool tokens and withdraw their share of token(s). Each time a swap between the pooled tokens happens, a set fee incurs which effectively gets distributed to the LPs. In case of emergencies, admin can pause additional deposits, swaps, or single-asset withdraws - which stops the ratio of the tokens in the pool from changing. Users can always withdraw their tokens via multi-asset withdraws.",
    "version": 1
  },
  "storageLayout": {
    "storage": [
      {
        "astId": 10,
        "contract": "contracts/stable/EvmoSwap.sol:EvmoSwap",
        "label": "_owner",
        "offset": 0,
        "slot": "0",
        "type": "t_address"
      },
      {
        "astId": 2220,
        "contract": "contracts/stable/EvmoSwap.sol:EvmoSwap",
        "label": "_paused",
        "offset": 20,
        "slot": "0",
        "type": "t_bool"
      },
      {
        "astId": 2305,
        "contract": "contracts/stable/EvmoSwap.sol:EvmoSwap",
        "label": "_status",
        "offset": 0,
        "slot": "1",
        "type": "t_uint256"
      },
      {
        "astId": 10716,
        "contract": "contracts/stable/EvmoSwap.sol:EvmoSwap",
        "label": "swapStorage",
        "offset": 0,
        "slot": "2",
        "type": "t_struct(Swap)11796_storage"
      },
      {
        "astId": 10720,
        "contract": "contracts/stable/EvmoSwap.sol:EvmoSwap",
        "label": "tokenIndexes",
        "offset": 0,
        "slot": "17",
        "type": "t_mapping(t_address,t_uint8)"
      }
    ],
    "types": {
      "t_address": {
        "encoding": "inplace",
        "label": "address",
        "numberOfBytes": "20"
      },
      "t_array(t_contract(IERC20)1178)dyn_storage": {
        "base": "t_contract(IERC20)1178",
        "encoding": "dynamic_array",
        "label": "contract IERC20[]",
        "numberOfBytes": "32"
      },
      "t_array(t_uint256)dyn_storage": {
        "base": "t_uint256",
        "encoding": "dynamic_array",
        "label": "uint256[]",
        "numberOfBytes": "32"
      },
      "t_bool": {
        "encoding": "inplace",
        "label": "bool",
        "numberOfBytes": "1"
      },
      "t_contract(IERC20)1178": {
        "encoding": "inplace",
        "label": "contract IERC20",
        "numberOfBytes": "20"
      },
      "t_contract(LPToken)15644": {
        "encoding": "inplace",
        "label": "contract LPToken",
        "numberOfBytes": "20"
      },
      "t_mapping(t_address,t_uint256)": {
        "encoding": "mapping",
        "key": "t_address",
        "label": "mapping(address => uint256)",
        "numberOfBytes": "32",
        "value": "t_uint256"
      },
      "t_mapping(t_address,t_uint8)": {
        "encoding": "mapping",
        "key": "t_address",
        "label": "mapping(address => uint8)",
        "numberOfBytes": "32",
        "value": "t_uint8"
      },
      "t_struct(Swap)11796_storage": {
        "encoding": "inplace",
        "label": "struct EvmoSwapUtils.Swap",
        "members": [
          {
            "astId": 11760,
            "contract": "contracts/stable/EvmoSwap.sol:EvmoSwap",
            "label": "initialA",
            "offset": 0,
            "slot": "0",
            "type": "t_uint256"
          },
          {
            "astId": 11762,
            "contract": "contracts/stable/EvmoSwap.sol:EvmoSwap",
            "label": "futureA",
            "offset": 0,
            "slot": "1",
            "type": "t_uint256"
          },
          {
            "astId": 11764,
            "contract": "contracts/stable/EvmoSwap.sol:EvmoSwap",
            "label": "initialATime",
            "offset": 0,
            "slot": "2",
            "type": "t_uint256"
          },
          {
            "astId": 11766,
            "contract": "contracts/stable/EvmoSwap.sol:EvmoSwap",
            "label": "futureATime",
            "offset": 0,
            "slot": "3",
            "type": "t_uint256"
          },
          {
            "astId": 11768,
            "contract": "contracts/stable/EvmoSwap.sol:EvmoSwap",
            "label": "swapFee",
            "offset": 0,
            "slot": "4",
            "type": "t_uint256"
          },
          {
            "astId": 11770,
            "contract": "contracts/stable/EvmoSwap.sol:EvmoSwap",
            "label": "adminFee",
            "offset": 0,
            "slot": "5",
            "type": "t_uint256"
          },
          {
            "astId": 11772,
            "contract": "contracts/stable/EvmoSwap.sol:EvmoSwap",
            "label": "defaultDepositFee",
            "offset": 0,
            "slot": "6",
            "type": "t_uint256"
          },
          {
            "astId": 11774,
            "contract": "contracts/stable/EvmoSwap.sol:EvmoSwap",
            "label": "defaultWithdrawFee",
            "offset": 0,
            "slot": "7",
            "type": "t_uint256"
          },
          {
            "astId": 11776,
            "contract": "contracts/stable/EvmoSwap.sol:EvmoSwap",
            "label": "devaddr",
            "offset": 0,
            "slot": "8",
            "type": "t_address"
          },
          {
            "astId": 11778,
            "contract": "contracts/stable/EvmoSwap.sol:EvmoSwap",
            "label": "lpToken",
            "offset": 0,
            "slot": "9",
            "type": "t_contract(LPToken)15644"
          },
          {
            "astId": 11781,
            "contract": "contracts/stable/EvmoSwap.sol:EvmoSwap",
            "label": "pooledTokens",
            "offset": 0,
            "slot": "10",
            "type": "t_array(t_contract(IERC20)1178)dyn_storage"
          },
          {
            "astId": 11784,
            "contract": "contracts/stable/EvmoSwap.sol:EvmoSwap",
            "label": "tokenPrecisionMultipliers",
            "offset": 0,
            "slot": "11",
            "type": "t_array(t_uint256)dyn_storage"
          },
          {
            "astId": 11787,
            "contract": "contracts/stable/EvmoSwap.sol:EvmoSwap",
            "label": "balances",
            "offset": 0,
            "slot": "12",
            "type": "t_array(t_uint256)dyn_storage"
          },
          {
            "astId": 11791,
            "contract": "contracts/stable/EvmoSwap.sol:EvmoSwap",
            "label": "depositTimestamp",
            "offset": 0,
            "slot": "13",
            "type": "t_mapping(t_address,t_uint256)"
          },
          {
            "astId": 11795,
            "contract": "contracts/stable/EvmoSwap.sol:EvmoSwap",
            "label": "withdrawFeeMultiplier",
            "offset": 0,
            "slot": "14",
            "type": "t_mapping(t_address,t_uint256)"
          }
        ],
        "numberOfBytes": "480"
      },
      "t_uint256": {
        "encoding": "inplace",
        "label": "uint256",
        "numberOfBytes": "32"
      },
      "t_uint8": {
        "encoding": "inplace",
        "label": "uint8",
        "numberOfBytes": "1"
      }
    }
  }
}