{
  "address": "0x32233333229aAd6f58807eAeb34616F0D2C5808F",
  "abi": [
    {
      "inputs": [
        {
          "internalType": "contract EMOToken",
          "name": "_emo",
          "type": "address"
        },
        {
          "internalType": "uint256",
          "name": "_stakingPercent",
          "type": "uint256"
        },
        {
          "internalType": "uint256",
          "name": "_daoPercent",
          "type": "uint256"
        },
        {
          "internalType": "uint256",
          "name": "_safuPercent",
          "type": "uint256"
        },
        {
          "internalType": "uint256",
          "name": "_refPercent",
          "type": "uint256"
        },
        {
          "internalType": "address",
          "name": "_daoAddr",
          "type": "address"
        },
        {
          "internalType": "address",
          "name": "_safuAddr",
          "type": "address"
        },
        {
          "internalType": "address",
          "name": "_refAddr",
          "type": "address"
        },
        {
          "internalType": "address",
          "name": "_feeAddr",
          "type": "address"
        },
        {
          "internalType": "contract IMultiFeeDistribution",
          "name": "_rewardMinter",
          "type": "address"
        },
        {
          "internalType": "uint256",
          "name": "_emoPerSecond",
          "type": "uint256"
        },
        {
          "internalType": "address",
          "name": "_votingEscrow",
          "type": "address"
        }
      ],
      "stateMutability": "nonpayable",
      "type": "constructor"
    },
    {
      "anonymous": false,
      "inputs": [
        {
          "indexed": true,
          "internalType": "uint256",
          "name": "pid",
          "type": "uint256"
        },
        {
          "indexed": false,
          "internalType": "uint256",
          "name": "allocPoint",
          "type": "uint256"
        },
        {
          "indexed": true,
          "internalType": "contract IERC20",
          "name": "lpToken",
          "type": "address"
        },
        {
          "indexed": true,
          "internalType": "contract IOnwardIncentivesController",
          "name": "incentivesController",
          "type": "address"
        },
        {
          "indexed": false,
          "internalType": "bool",
          "name": "boost",
          "type": "bool"
        }
      ],
      "name": "Add",
      "type": "event"
    },
    {
      "anonymous": false,
      "inputs": [
        {
          "indexed": true,
          "internalType": "address",
          "name": "from",
          "type": "address"
        },
        {
          "indexed": true,
          "internalType": "address",
          "name": "to",
          "type": "address"
        },
        {
          "indexed": true,
          "internalType": "uint256",
          "name": "pid",
          "type": "uint256"
        },
        {
          "indexed": false,
          "internalType": "uint256",
          "name": "amount",
          "type": "uint256"
        }
      ],
      "name": "Deposit",
      "type": "event"
    },
    {
      "anonymous": false,
      "inputs": [
        {
          "indexed": true,
          "internalType": "address",
          "name": "user",
          "type": "address"
        },
        {
          "indexed": true,
          "internalType": "uint256",
          "name": "pid",
          "type": "uint256"
        },
        {
          "indexed": false,
          "internalType": "uint256",
          "name": "amount",
          "type": "uint256"
        }
      ],
      "name": "EmergencyWithdraw",
      "type": "event"
    },
    {
      "anonymous": false,
      "inputs": [
        {
          "indexed": true,
          "internalType": "address",
          "name": "previousOwner",
          "type": "address"
        },
        {
          "indexed": true,
          "internalType": "address",
          "name": "newOwner",
          "type": "address"
        }
      ],
      "name": "OwnershipTransferred",
      "type": "event"
    },
    {
      "anonymous": false,
      "inputs": [
        {
          "indexed": true,
          "internalType": "uint256",
          "name": "pid",
          "type": "uint256"
        },
        {
          "indexed": false,
          "internalType": "uint256",
          "name": "allocPoint",
          "type": "uint256"
        },
        {
          "indexed": true,
          "internalType": "contract IOnwardIncentivesController",
          "name": "incentivesController",
          "type": "address"
        }
      ],
      "name": "Set",
      "type": "event"
    },
    {
      "anonymous": false,
      "inputs": [
        {
          "indexed": true,
          "internalType": "address",
          "name": "user",
          "type": "address"
        },
        {
          "indexed": true,
          "internalType": "uint256",
          "name": "pid",
          "type": "uint256"
        },
        {
          "indexed": false,
          "internalType": "uint256",
          "name": "amount",
          "type": "uint256"
        }
      ],
      "name": "Withdraw",
      "type": "event"
    },
    {
      "inputs": [],
      "name": "BONUS_MULTIPLIER",
      "outputs": [
        {
          "internalType": "uint256",
          "name": "",
          "type": "uint256"
        }
      ],
      "stateMutability": "view",
      "type": "function"
    },
    {
      "inputs": [],
      "name": "TOKENLESS_PRODUCTION",
      "outputs": [
        {
          "internalType": "uint256",
          "name": "",
          "type": "uint256"
        }
      ],
      "stateMutability": "view",
      "type": "function"
    },
    {
      "inputs": [
        {
          "internalType": "uint256",
          "name": "_allocPoint",
          "type": "uint256"
        },
        {
          "internalType": "uint256",
          "name": "_depositFeePercent",
          "type": "uint256"
        },
        {
          "internalType": "contract IERC20",
          "name": "_lpToken",
          "type": "address"
        },
        {
          "internalType": "contract IOnwardIncentivesController",
          "name": "_incentivesController",
          "type": "address"
        },
        {
          "internalType": "bool",
          "name": "_boost",
          "type": "bool"
        },
        {
          "internalType": "bool",
          "name": "_withUpdate",
          "type": "bool"
        }
      ],
      "name": "add",
      "outputs": [],
      "stateMutability": "nonpayable",
      "type": "function"
    },
    {
      "inputs": [],
      "name": "daoAddr",
      "outputs": [
        {
          "internalType": "address",
          "name": "",
          "type": "address"
        }
      ],
      "stateMutability": "view",
      "type": "function"
    },
    {
      "inputs": [],
      "name": "daoPercent",
      "outputs": [
        {
          "internalType": "uint256",
          "name": "",
          "type": "uint256"
        }
      ],
      "stateMutability": "view",
      "type": "function"
    },
    {
      "inputs": [
        {
          "internalType": "uint256",
          "name": "_pid",
          "type": "uint256"
        },
        {
          "internalType": "uint256",
          "name": "_amount",
          "type": "uint256"
        }
      ],
      "name": "deposit",
      "outputs": [],
      "stateMutability": "nonpayable",
      "type": "function"
    },
    {
      "inputs": [
        {
          "internalType": "address",
          "name": "_user",
          "type": "address"
        },
        {
          "internalType": "uint256",
          "name": "_pid",
          "type": "uint256"
        },
        {
          "internalType": "uint256",
          "name": "_amount",
          "type": "uint256"
        }
      ],
      "name": "depositFor",
      "outputs": [],
      "stateMutability": "nonpayable",
      "type": "function"
    },
    {
      "inputs": [
        {
          "internalType": "uint256",
          "name": "_pid",
          "type": "uint256"
        }
      ],
      "name": "emergencyWithdraw",
      "outputs": [],
      "stateMutability": "nonpayable",
      "type": "function"
    },
    {
      "inputs": [],
      "name": "emo",
      "outputs": [
        {
          "internalType": "contract EMOToken",
          "name": "",
          "type": "address"
        }
      ],
      "stateMutability": "view",
      "type": "function"
    },
    {
      "inputs": [],
      "name": "emoPerSecond",
      "outputs": [
        {
          "internalType": "uint256",
          "name": "",
          "type": "uint256"
        }
      ],
      "stateMutability": "view",
      "type": "function"
    },
    {
      "inputs": [
        {
          "internalType": "uint256",
          "name": "_amount",
          "type": "uint256"
        }
      ],
      "name": "enterStaking",
      "outputs": [],
      "stateMutability": "nonpayable",
      "type": "function"
    },
    {
      "inputs": [],
      "name": "feeAddr",
      "outputs": [
        {
          "internalType": "address",
          "name": "",
          "type": "address"
        }
      ],
      "stateMutability": "view",
      "type": "function"
    },
    {
      "inputs": [
        {
          "internalType": "uint256",
          "name": "_from",
          "type": "uint256"
        },
        {
          "internalType": "uint256",
          "name": "_to",
          "type": "uint256"
        }
      ],
      "name": "getMultiplier",
      "outputs": [
        {
          "internalType": "uint256",
          "name": "",
          "type": "uint256"
        }
      ],
      "stateMutability": "view",
      "type": "function"
    },
    {
      "inputs": [
        {
          "internalType": "address",
          "name": "_user",
          "type": "address"
        }
      ],
      "name": "harvestAllRewards",
      "outputs": [],
      "stateMutability": "nonpayable",
      "type": "function"
    },
    {
      "inputs": [],
      "name": "lastTimeDaoWithdraw",
      "outputs": [
        {
          "internalType": "uint256",
          "name": "",
          "type": "uint256"
        }
      ],
      "stateMutability": "view",
      "type": "function"
    },
    {
      "inputs": [
        {
          "internalType": "uint256",
          "name": "_amount",
          "type": "uint256"
        }
      ],
      "name": "leaveStaking",
      "outputs": [],
      "stateMutability": "nonpayable",
      "type": "function"
    },
    {
      "inputs": [],
      "name": "massUpdatePools",
      "outputs": [],
      "stateMutability": "nonpayable",
      "type": "function"
    },
    {
      "inputs": [],
      "name": "owner",
      "outputs": [
        {
          "internalType": "address",
          "name": "",
          "type": "address"
        }
      ],
      "stateMutability": "view",
      "type": "function"
    },
    {
      "inputs": [
        {
          "internalType": "uint256",
          "name": "_pid",
          "type": "uint256"
        },
        {
          "internalType": "address",
          "name": "_user",
          "type": "address"
        }
      ],
      "name": "pendingTokens",
      "outputs": [
        {
          "internalType": "address[]",
          "name": "tokens",
          "type": "address[]"
        },
        {
          "internalType": "uint256[]",
          "name": "amounts",
          "type": "uint256[]"
        }
      ],
      "stateMutability": "view",
      "type": "function"
    },
    {
      "inputs": [],
      "name": "percentDec",
      "outputs": [
        {
          "internalType": "uint256",
          "name": "",
          "type": "uint256"
        }
      ],
      "stateMutability": "view",
      "type": "function"
    },
    {
      "inputs": [
        {
          "internalType": "contract IERC20",
          "name": "",
          "type": "address"
        }
      ],
      "name": "poolExistence",
      "outputs": [
        {
          "internalType": "bool",
          "name": "",
          "type": "bool"
        }
      ],
      "stateMutability": "view",
      "type": "function"
    },
    {
      "inputs": [
        {
          "internalType": "uint256",
          "name": "",
          "type": "uint256"
        }
      ],
      "name": "poolInfo",
      "outputs": [
        {
          "internalType": "contract IERC20",
          "name": "lpToken",
          "type": "address"
        },
        {
          "internalType": "uint256",
          "name": "workingSupply",
          "type": "uint256"
        },
        {
          "internalType": "bool",
          "name": "boost",
          "type": "bool"
        },
        {
          "internalType": "uint256",
          "name": "allocPoint",
          "type": "uint256"
        },
        {
          "internalType": "uint256",
          "name": "lastRewardTime",
          "type": "uint256"
        },
        {
          "internalType": "uint256",
          "name": "accEmoPerShare",
          "type": "uint256"
        },
        {
          "internalType": "uint256",
          "name": "depositFeePercent",
          "type": "uint256"
        },
        {
          "internalType": "contract IOnwardIncentivesController",
          "name": "incentivesController",
          "type": "address"
        }
      ],
      "stateMutability": "view",
      "type": "function"
    },
    {
      "inputs": [],
      "name": "poolLength",
      "outputs": [
        {
          "internalType": "uint256",
          "name": "",
          "type": "uint256"
        }
      ],
      "stateMutability": "view",
      "type": "function"
    },
    {
      "inputs": [],
      "name": "refAddr",
      "outputs": [
        {
          "internalType": "address",
          "name": "",
          "type": "address"
        }
      ],
      "stateMutability": "view",
      "type": "function"
    },
    {
      "inputs": [],
      "name": "refPercent",
      "outputs": [
        {
          "internalType": "uint256",
          "name": "",
          "type": "uint256"
        }
      ],
      "stateMutability": "view",
      "type": "function"
    },
    {
      "inputs": [],
      "name": "renounceOwnership",
      "outputs": [],
      "stateMutability": "nonpayable",
      "type": "function"
    },
    {
      "inputs": [],
      "name": "rewardMinter",
      "outputs": [
        {
          "internalType": "contract IMultiFeeDistribution",
          "name": "",
          "type": "address"
        }
      ],
      "stateMutability": "view",
      "type": "function"
    },
    {
      "inputs": [],
      "name": "safuAddr",
      "outputs": [
        {
          "internalType": "address",
          "name": "",
          "type": "address"
        }
      ],
      "stateMutability": "view",
      "type": "function"
    },
    {
      "inputs": [],
      "name": "safuPercent",
      "outputs": [
        {
          "internalType": "uint256",
          "name": "",
          "type": "uint256"
        }
      ],
      "stateMutability": "view",
      "type": "function"
    },
    {
      "inputs": [
        {
          "internalType": "uint256",
          "name": "_pid",
          "type": "uint256"
        },
        {
          "internalType": "uint256",
          "name": "_allocPoint",
          "type": "uint256"
        },
        {
          "internalType": "uint256",
          "name": "_depositFeePercent",
          "type": "uint256"
        },
        {
          "internalType": "contract IOnwardIncentivesController",
          "name": "_incentivesController",
          "type": "address"
        },
        {
          "internalType": "bool",
          "name": "_withUpdate",
          "type": "bool"
        }
      ],
      "name": "set",
      "outputs": [],
      "stateMutability": "nonpayable",
      "type": "function"
    },
    {
      "inputs": [
        {
          "internalType": "address",
          "name": "_daoAddr",
          "type": "address"
        }
      ],
      "name": "setDaoAddress",
      "outputs": [],
      "stateMutability": "nonpayable",
      "type": "function"
    },
    {
      "inputs": [
        {
          "internalType": "uint256",
          "name": "_emoPerSecond",
          "type": "uint256"
        }
      ],
      "name": "setEmoPerSecond",
      "outputs": [],
      "stateMutability": "nonpayable",
      "type": "function"
    },
    {
      "inputs": [
        {
          "internalType": "address",
          "name": "_feeAddr",
          "type": "address"
        }
      ],
      "name": "setFeeAddress",
      "outputs": [],
      "stateMutability": "nonpayable",
      "type": "function"
    },
    {
      "inputs": [
        {
          "internalType": "address[]",
          "name": "_users",
          "type": "address[]"
        },
        {
          "internalType": "bool",
          "name": "_flag",
          "type": "bool"
        }
      ],
      "name": "setPool0Staker",
      "outputs": [],
      "stateMutability": "nonpayable",
      "type": "function"
    },
    {
      "inputs": [
        {
          "internalType": "address",
          "name": "_refAddr",
          "type": "address"
        }
      ],
      "name": "setRefAddress",
      "outputs": [],
      "stateMutability": "nonpayable",
      "type": "function"
    },
    {
      "inputs": [
        {
          "internalType": "address",
          "name": "_safuAddr",
          "type": "address"
        }
      ],
      "name": "setSafuAddress",
      "outputs": [],
      "stateMutability": "nonpayable",
      "type": "function"
    },
    {
      "inputs": [
        {
          "internalType": "uint256",
          "name": "_startTime",
          "type": "uint256"
        }
      ],
      "name": "setStartTime",
      "outputs": [],
      "stateMutability": "nonpayable",
      "type": "function"
    },
    {
      "inputs": [
        {
          "internalType": "address[]",
          "name": "_users",
          "type": "address[]"
        },
        {
          "internalType": "bool",
          "name": "_flag",
          "type": "bool"
        }
      ],
      "name": "setWhitelist",
      "outputs": [],
      "stateMutability": "nonpayable",
      "type": "function"
    },
    {
      "inputs": [],
      "name": "stakingPercent",
      "outputs": [
        {
          "internalType": "uint256",
          "name": "",
          "type": "uint256"
        }
      ],
      "stateMutability": "view",
      "type": "function"
    },
    {
      "inputs": [],
      "name": "startTime",
      "outputs": [
        {
          "internalType": "uint256",
          "name": "",
          "type": "uint256"
        }
      ],
      "stateMutability": "view",
      "type": "function"
    },
    {
      "inputs": [],
      "name": "toggleWhitelistable",
      "outputs": [],
      "stateMutability": "nonpayable",
      "type": "function"
    },
    {
      "inputs": [],
      "name": "totalAllocPoint",
      "outputs": [
        {
          "internalType": "uint256",
          "name": "",
          "type": "uint256"
        }
      ],
      "stateMutability": "view",
      "type": "function"
    },
    {
      "inputs": [
        {
          "internalType": "address",
          "name": "newOwner",
          "type": "address"
        }
      ],
      "name": "transferOwnership",
      "outputs": [],
      "stateMutability": "nonpayable",
      "type": "function"
    },
    {
      "inputs": [
        {
          "internalType": "uint256",
          "name": "multiplierNumber",
          "type": "uint256"
        }
      ],
      "name": "updateMultiplier",
      "outputs": [],
      "stateMutability": "nonpayable",
      "type": "function"
    },
    {
      "inputs": [
        {
          "internalType": "uint256",
          "name": "_pid",
          "type": "uint256"
        }
      ],
      "name": "updatePool",
      "outputs": [],
      "stateMutability": "nonpayable",
      "type": "function"
    },
    {
      "inputs": [
        {
          "internalType": "uint256",
          "name": "",
          "type": "uint256"
        },
        {
          "internalType": "address",
          "name": "",
          "type": "address"
        }
      ],
      "name": "userInfo",
      "outputs": [
        {
          "internalType": "uint256",
          "name": "amount",
          "type": "uint256"
        },
        {
          "internalType": "uint256",
          "name": "workingAmount",
          "type": "uint256"
        },
        {
          "internalType": "uint256",
          "name": "rewardDebt",
          "type": "uint256"
        }
      ],
      "stateMutability": "view",
      "type": "function"
    },
    {
      "inputs": [],
      "name": "votingEscrow",
      "outputs": [
        {
          "internalType": "address",
          "name": "",
          "type": "address"
        }
      ],
      "stateMutability": "view",
      "type": "function"
    },
    {
      "inputs": [
        {
          "internalType": "address",
          "name": "",
          "type": "address"
        }
      ],
      "name": "whitelist",
      "outputs": [
        {
          "internalType": "bool",
          "name": "",
          "type": "bool"
        }
      ],
      "stateMutability": "view",
      "type": "function"
    },
    {
      "inputs": [],
      "name": "whitelistable",
      "outputs": [
        {
          "internalType": "bool",
          "name": "",
          "type": "bool"
        }
      ],
      "stateMutability": "view",
      "type": "function"
    },
    {
      "inputs": [
        {
          "internalType": "uint256",
          "name": "_pid",
          "type": "uint256"
        },
        {
          "internalType": "uint256",
          "name": "_amount",
          "type": "uint256"
        }
      ],
      "name": "withdraw",
      "outputs": [],
      "stateMutability": "nonpayable",
      "type": "function"
    },
    {
      "inputs": [],
      "name": "withdrawDevAndRefFee",
      "outputs": [],
      "stateMutability": "nonpayable",
      "type": "function"
    }
  ],
  "transactionHash": "0x8646dd5fe3b29fdcb58ec560ede935ce3c3add4259b1290134227343b38cb029",
  "args": [
    "0x7cBa32163a8f4c56C846f5C3685E3b7a450c9002",
    "877000",
    "70000",
    "10000",
    "43000",
    "0x0aA282136b3924ca6767C4D5B9aad6f83bD40A9c",
    "0x0aA282136b3924ca6767C4D5B9aad6f83bD40A9c",
    "0x0aA282136b3924ca6767C4D5B9aad6f83bD40A9c",
    "0x0aA282136b3924ca6767C4D5B9aad6f83bD40A9c",
    "0x184d100d1CbcC3A85A98BA9d17946E38953990B5",
    "3250000000000000000",
    "0xFF8ebFbA27E35c34923784DF0669aB727394A2b7"
  ],
  "solcInputHash": "a446a3ecf802cd554ad6cd17661d3447",
  "bytecode": "0x6080604052620f4240600355600160105560006014553480156200002257600080fd5b5060405162003c3e38038062003c3e83398181016040526101808110156200004957600080fd5b508051602082015160408301516060840151608085015160a086015160c087015160e08801516101008901516101208a01516101408b0151610160909b0151999a9899979896979596949593949293919290916000620000a8620001a7565b600080546001600160a01b0319166001600160a01b0383169081178255604051929350917f8be0079c531659141344cd1fd0a4f28419497f9722a3daafe3b4186f6b6457e0908290a3506001808055600280546001600160a01b039e8f166001600160a01b03199182161790915560049c909c5560059a909a5560069890985560079690965560088054958b16958a169590951790945560098054938a1693891693909317909255600a8054918916918816919091179055600b8054918816918716919091179055600d8054918716918616919091179055600f55600e8054919094169216919091179091556016805460ff19169091179055620001ab565b3390565b613a8380620001bb6000396000f3fe608060405234801561001057600080fd5b50600436106102f05760003560e01c806369d0c5b81161019d5780639a3cac6a116100e9578063be1193ea116100a2578063e2bbb1581161007c578063e2bbb158146108b4578063f2fde38b146108d7578063fbe6cf6a146108fd578063ffcd426314610923576102f0565b8063be1193ea1461087e578063cbd258b514610886578063ddc6b812146108ac576102f0565b80639a3cac6a146107fd5780639b19251a146108235780639b8e556314610849578063a8d2e46a14610851578063aef89ed414610859578063bd4aa74714610876576102f0565b80637f43d74f116101565780638da5cb5b116101305780638da5cb5b1461076c5780638dbb1e3a1461077457806391dc03821461079757806393f1a40b146107b3576102f0565b80637f43d74f146106fe5780638705fcd41461073e5780638aa2855014610764576102f0565b806369d0c5b8146106b05780636d34abbc146106b85780636f1f0803146106c0578063715018a6146106c857806378e97925146106d05780637c7be2fa146106d8576102f0565b80633c271a051161025c5780634df7972b116102155780635312ea8e116101ef5780635312ea8e1461066657806359d5335b146106835780635ffe61461461068b578063630b5ba1146106a8576102f0565b80634df7972b146106395780634f2bfe5b1461064157806351eb05a614610649576102f0565b80633c271a05146104fd5780633e0a322d146105a257806341441d3b146105bf578063441a3e70146105dc5780634cf5fbf5146105ff5780634de5ad7a14610631576102f0565b80631526fe27116102ae5780631526fe271461040957806315a514991461047557806317caf6f11461049957806321b1aecb146104a157806338133c02146104a957806339e7fddc146104f5576102f0565b8062a2e3be146102f5578063061e26af1461030f578063081e3eda146103375780630f5bb81f1461033f5780631058d281146103e457806312270c4014610401575b600080fd5b6102fd6109e8565b60408051918252519081900360200190f35b6103356004803603602081101561032557600080fd5b50356001600160a01b03166109ee565b005b6102fd610a72565b6103356004803603604081101561035557600080fd5b81019060208101813564010000000081111561037057600080fd5b82018360208201111561038257600080fd5b803590602001918460208302840111640100000000831117156103a457600080fd5b9190808060200260200160405190810160405280939291908181526020018383602002808284376000920191909152509295505050503515159050610a78565b610335600480360360208110156103fa57600080fd5b5035610b36565b610335610d88565b6104266004803603602081101561041f57600080fd5b5035610fb5565b604080516001600160a01b03998a1681526020810198909852951515878701526060870194909452608086019290925260a085015260c084015290921660e08201529051908190036101000190f35b61047d611019565b604080516001600160a01b039092168252519081900360200190f35b6102fd611028565b6102fd61102e565b610335600480360360c08110156104bf57600080fd5b508035906020810135906001600160a01b036040820135811691606081013590911690608081013515159060a001351515611034565b61047d61139b565b6103356004803603604081101561051357600080fd5b81019060208101813564010000000081111561052e57600080fd5b82018360208201111561054057600080fd5b8035906020019184602083028401116401000000008311171561056257600080fd5b91908080602002602001604051908101604052809392919081815260200183836020028082843760009201919091525092955050505035151590506113aa565b610335600480360360208110156105b857600080fd5b5035611463565b610335600480360360208110156105d557600080fd5b50356116bc565b610335600480360360408110156105f257600080fd5b508035906020013561191a565b6103356004803603606081101561061557600080fd5b506001600160a01b038135169060208101359060400135611929565b610335611fbb565b6102fd612031565b61047d612037565b6103356004803603602081101561065f57600080fd5b5035612046565b6103356004803603602081101561067c57600080fd5b503561210f565b6102fd6122ac565b610335600480360360208110156106a157600080fd5b50356122b2565b610335612319565b61047d612338565b61047d612347565b6102fd612356565b61033561235c565b6102fd612408565b610335600480360360208110156106ee57600080fd5b50356001600160a01b031661240e565b610335600480360360a081101561071457600080fd5b508035906020810135906040810135906001600160a01b0360608201351690608001351515612492565b6103356004803603602081101561075457600080fd5b50356001600160a01b03166126f5565b6102fd6127ca565b61047d6127d0565b6102fd6004803603604081101561078a57600080fd5b50803590602001356127df565b61079f6127fc565b604080519115158252519081900360200190f35b6107df600480360360408110156107c957600080fd5b50803590602001356001600160a01b0316612805565b60408051938452602084019290925282820152519081900360600190f35b6103356004803603602081101561081357600080fd5b50356001600160a01b0316612831565b61079f6004803603602081101561083957600080fd5b50356001600160a01b03166128b5565b61047d6128ca565b61047d6128d9565b6103356004803603602081101561086f57600080fd5b50356128e8565b6102fd6129ac565b6102fd6129b1565b61079f6004803603602081101561089c57600080fd5b50356001600160a01b03166129b7565b6102fd6129cc565b610335600480360360408110156108ca57600080fd5b50803590602001356129d2565b610335600480360360208110156108ed57600080fd5b50356001600160a01b03166129dd565b6103356004803603602081101561091357600080fd5b50356001600160a01b0316612adf565b61094f6004803603604081101561093957600080fd5b50803590602001356001600160a01b0316612b29565b604051808060200180602001838103835285818151815260200191508051906020019060200280838360005b8381101561099357818101518382015260200161097b565b50505050905001838103825284818151815260200191508051906020019060200280838360005b838110156109d25781810151838201526020016109ba565b5050505090500194505050505060405180910390f35b60065481565b6109f6612f56565b6001600160a01b0316610a076127d0565b6001600160a01b031614610a50576040805162461bcd60e51b81526020600482018190526024820152600080516020613a04833981519152604482015290519081900360640190fd5b600a80546001600160a01b0319166001600160a01b0392909216919091179055565b60115490565b610a80612f56565b6001600160a01b0316610a916127d0565b6001600160a01b031614610ada576040805162461bcd60e51b81526020600482018190526024820152600080516020613a04833981519152604482015290519081900360640190fd5b60005b8251811015610b31578160186000858481518110610af757fe5b6020908102919091018101516001600160a01b03168252810191909152604001600020805460ff1916911515919091179055600101610add565b505050565b60026001541415610b7c576040805162461bcd60e51b815260206004820152601f6024820152600080516020613952833981519152604482015290519081900360640190fd5b600260018190555060006011600081548110610b9457fe5b600091825260208083203384527f7e7fa33969761a458e04f477e039a608702b4f924981d6653935a8319a08ad7b9091526040909220805460089092029092019250831115610c1f576040805162461bcd60e51b81526020600482015260126024820152711dda5d1a191c985dce881b9bdd0819dbdbd960721b604482015290519081900360640190fd5b610c296000612046565b600181015415610ce3576000610c6d8260020154610c6764e8d4a51000610c6187600501548760010154612f5a90919063ffffffff16565b90612fb3565b9061301a565b90508015610ce157600254604080516340c10f1960e01b81523360048201526024810184905290516001600160a01b03909216916340c10f199160448082019260009290919082900301818387803b158015610cc857600080fd5b505af1158015610cdc573d6000803e3d6000fd5b505050505b505b8215610d0d578054610cf5908461301a565b81558154610d0d906001600160a01b03163385613077565b6001808201805483549285018054909301039091558154908190556005830154610d429164e8d4a5100091610c619190612f5a565b600282015560408051848152905160009133917ff279e6a1f5e320cca91135676d9cb6e44ca8a08c0b88342bcdb1144f6511b5689181900360200190a350506001805550565b42600c5410610dd3576040805162461bcd60e51b81526020600482015260126024820152717761697420666f72206e657720626c6f636b60701b604482015290519081900360640190fd5b6000610de1600c54426127df565b90506000610dfa600f5483612f5a90919063ffffffff16565b6002546008546003546005549394506001600160a01b03928316936340c10f199390921691610e2f9190610c61908790612f5a565b6040518363ffffffff1660e01b815260040180836001600160a01b0316815260200182815260200192505050600060405180830381600087803b158015610e7557600080fd5b505af1158015610e89573d6000803e3d6000fd5b50506002546009546003546006546001600160a01b0393841695506340c10f1994509190921691610ebf91610c61908790612f5a565b6040518363ffffffff1660e01b815260040180836001600160a01b0316815260200182815260200192505050600060405180830381600087803b158015610f0557600080fd5b505af1158015610f19573d6000803e3d6000fd5b5050600254600a546003546007546001600160a01b0393841695506340c10f1994509190921691610f4f91610c61908790612f5a565b6040518363ffffffff1660e01b815260040180836001600160a01b0316815260200182815260200192505050600060405180830381600087803b158015610f9557600080fd5b505af1158015610fa9573d6000803e3d6000fd5b505042600c5550505050565b60118181548110610fc257fe5b6000918252602090912060089091020180546001820154600283015460038401546004850154600586015460068701546007909701546001600160a01b039687169850949660ff9094169592949193909290911688565b6009546001600160a01b031681565b60145481565b60035481565b61103c612f56565b6001600160a01b031661104d6127d0565b6001600160a01b031614611096576040805162461bcd60e51b81526020600482018190526024820152600080516020613a04833981519152604482015290519081900360640190fd5b6001600160a01b038416600090815260136020526040902054849060ff1615611106576040805162461bcd60e51b815260206004820152601960248201527f6e6f6e4475706c6963617465643a206475706c69636174656400000000000000604482015290519081900360640190fd5b6003548611156111475760405162461bcd60e51b81526004018080602001828103825260258152602001806139df6025913960400191505060405180910390fd5b601554611188576040805162461bcd60e51b815260206004820152600a60248201526921737461727454696d6560b01b604482015290519081900360640190fd5b811561119657611196612319565b600060155442116111a9576015546111ab565b425b6014549091506111bb90896130c9565b601481905550600160136000886001600160a01b03166001600160a01b0316815260200190815260200160002060006101000a81548160ff0219169083151502179055506011604051806101000160405280886001600160a01b031681526020016000815260200186151581526020018a815260200183815260200160008152602001898152602001876001600160a01b0316815250908060018154018082558091505060019003906000526020600020906008020160009091909190915060008201518160000160006101000a8154816001600160a01b0302191690836001600160a01b031602179055506020820151816001015560408201518160020160006101000a81548160ff021916908315150217905550606082015181600301556080820151816004015560a0820151816005015560c0820151816006015560e08201518160070160006101000a8154816001600160a01b0302191690836001600160a01b031602179055505050846001600160a01b0316866001600160a01b0316611355600160118054905061301a90919063ffffffff16565b604080518c8152881515602082015281517fd2cd8625787004ecb44d1f97c0cb1eea31af120c1f74b3c214353efebab6cdb7929181900390910190a45050505050505050565b600b546001600160a01b031681565b6113b2612f56565b6001600160a01b03166113c36127d0565b6001600160a01b03161461140c576040805162461bcd60e51b81526020600482018190526024820152600080516020613a04833981519152604482015290519081900360640190fd5b60005b8251811015610b3157816017600085848151811061142957fe5b6020908102919091018101516001600160a01b03168252810191909152604001600020805460ff191691151591909117905560010161140f565b61146b612f56565b6001600160a01b031661147c6127d0565b6001600160a01b0316146114c5576040805162461bcd60e51b81526020600482018190526024820152600080516020613a04833981519152604482015290519081900360640190fd5b60155415611513576040805162461bcd60e51b81526020600482015260166024820152751cdd185c9d151a5b59481a185cc81899595b881cd95d60521b604482015290519081900360640190fd5b806015819055506011604051806101000160405280600260009054906101000a90046001600160a01b03166001600160a01b0316815260200160008152602001600015158152602001606481526020016015548152602001600081526020016000815260200160006001600160a01b0316815250908060018154018082558091505060019003906000526020600020906008020160009091909190915060008201518160000160006101000a8154816001600160a01b0302191690836001600160a01b031602179055506020820151816001015560408201518160020160006101000a81548160ff021916908315150217905550606082015181600301556080820151816004015560a0820151816005015560c0820151816006015560e08201518160070160006101000a8154816001600160a01b0302191690836001600160a01b031602179055505050600160136000600260009054906101000a90046001600160a01b03166001600160a01b03166001600160a01b0316815260200190815260200160002060006101000a81548160ff021916908315150217905550606460148190555050565b60026001541415611702576040805162461bcd60e51b815260206004820152601f6024820152600080516020613952833981519152604482015290519081900360640190fd5b60026001553360009081526018602052604090205460ff1661176b576040805162461bcd60e51b815260206004820152601960248201527f4e6f7420616c6c6f7720746f20656e7465725374616b696e6700000000000000604482015290519081900360640190fd5b6000601160008154811061177b57fe5b600091825260208083203384527f7e7fa33969761a458e04f477e039a608702b4f924981d6653935a8319a08ad7b909152604083206008909202019250906117c290612046565b6001810154156118705760006117fa8260020154610c6764e8d4a51000610c6187600501548760010154612f5a90919063ffffffff16565b9050801561186e57600254604080516340c10f1960e01b81523360048201526024810184905290516001600160a01b03909216916340c10f199160448082019260009290919082900301818387803b15801561185557600080fd5b505af1158015611869573d6000803e3d6000fd5b505050505b505b821561189c57815461188d906001600160a01b0316333086613123565b805461189990846130c9565b81555b60018082018054835492850180549093010390915581549081905560058301546118d19164e8d4a5100091610c619190612f5a565b6002820155604080518481529051600091339182917fdcbc1c05240f31ff3ad067ef1ee35ce4997762752e3a095284754544f4c709d7919081900360200190a450506001805550565b611925823383613183565b5050565b6002600154141561196f576040805162461bcd60e51b815260206004820152601f6024820152600080516020613952833981519152604482015290519081900360640190fd5b600260015560165460ff16158061198c575061198a83613681565b155b806119af57506001600160a01b03831660009081526017602052604090205460ff165b611a00576040805162461bcd60e51b815260206004820181905260248201527f436f6e7472616374206973206e6f7420696e207468652077686974656c697374604482015290519081900360640190fd5b81611a4b576040805162461bcd60e51b81526020600482015260166024820152756465706f73697420454d4f206279207374616b696e6760501b604482015290519081900360640190fd5b600060118381548110611a5a57fe5b600091825260208083208684526012825260408085206001600160a01b038a168652909252922060089091029091019150611a9484612046565b600181015415611b4b576000611acc8260020154610c6764e8d4a51000610c6187600501548760010154612f5a90919063ffffffff16565b90508015611b4957600d54604080516334686fad60e21b81526001600160a01b03898116600483015260248201859052600160448301529151919092169163d1a1beb491606480830192600092919082900301818387803b158015611b3057600080fd5b505af1158015611b44573d6000803e3d6000fd5b505050505b505b8215611ccc578154604080516370a0823160e01b815230600482015290516000926001600160a01b0316916370a08231916024808301926020929190829003018186803b158015611b9b57600080fd5b505afa158015611baf573d6000803e3d6000fd5b505050506040513d6020811015611bc557600080fd5b50518354909150611be1906001600160a01b0316333087613123565b8254604080516370a0823160e01b81523060048201529051611c639284926001600160a01b03909116916370a0823191602480820192602092909190829003018186803b158015611c3157600080fd5b505afa158015611c45573d6000803e3d6000fd5b505050506040513d6020811015611c5b57600080fd5b50519061301a565b600684015490945015611cbc576000611c8f600354610c61866006015488612f5a90919063ffffffff16565b600b548554919250611cae916001600160a01b03908116911683613077565b611cb8858261301a565b9450505b8154611cc890856130c9565b8255505b600282015460ff1615611ea157600e54604080516370a0823160e01b81526001600160a01b038881166004830152915160009392909216916370a0823191602480820192602092909190829003018186803b158015611d2a57600080fd5b505afa158015611d3e573d6000803e3d6000fd5b505050506040513d6020811015611d5457600080fd5b5051600e54604080516318160ddd60e01b815290519293506000926001600160a01b03909216916318160ddd91600480820192602092909190829003018186803b158015611da157600080fd5b505afa158015611db5573d6000803e3d6000fd5b505050506040513d6020811015611dcb57600080fd5b5051835490915060646028909102048115611e71578454604080516370a0823160e01b81523060048201529051606492603c92869288926001600160a01b0316916370a08231916024808301926020929190829003018186803b158015611e3157600080fd5b505afa158015611e45573d6000803e3d6000fd5b505050506040513d6020811015611e5b57600080fd5b50510281611e6557fe5b040281611e6e57fe5b04015b83548111611e7f5780611e82565b83545b6001808601805491880180548401929092039091555550611ebb915050565b600180820180548354928501805490930103909155815490555b611edf64e8d4a51000610c6184600501548460010154612f5a90919063ffffffff16565b600282015560078201546001600160a01b03168015611f6c57806001600160a01b031663c37232888784600001546040518363ffffffff1660e01b815260040180836001600160a01b0316815260200182815260200192505050600060405180830381600087803b158015611f5357600080fd5b505af1158015611f67573d6000803e3d6000fd5b505050505b60408051858152905186916001600160a01b0389169133917fdcbc1c05240f31ff3ad067ef1ee35ce4997762752e3a095284754544f4c709d7919081900360200190a450506001805550505050565b611fc3612f56565b6001600160a01b0316611fd46127d0565b6001600160a01b03161461201d576040805162461bcd60e51b81526020600482018190526024820152600080516020613a04833981519152604482015290519081900360640190fd5b6016805460ff19811660ff90911615179055565b600c5481565b600e546001600160a01b031681565b60006011828154811061205557fe5b9060005260206000209060080201905080600401544211612076575061210c565b60018101548061208d57504260049091015561210c565b600061209d8360040154426127df565b905060006120d6600354610c616004546120d0601454610c618a600301546120d0600f548b612f5a90919063ffffffff16565b90612f5a565b90506120f96120ee84610c618464e8d4a51000612f5a565b6005860154906130c9565b6005850155505042600490920191909155505b50565b60026001541415612155576040805162461bcd60e51b815260206004820152601f6024820152600080516020613952833981519152604482015290519081900360640190fd5b600260018190555060006011828154811061216c57fe5b600091825260208083208584526012825260408085203380875293529093208054600890930290930180549094506121b1926001600160a01b03919091169190613077565b80546040805191825251849133917fbb757047c2b5f3974fe26b7c10f732e7bce710b0952a71082702781e62ae05959181900360200190a360008082556002820155600180820154908301541061221a5780600101548260010154038260010181905550612222565b600060018301555b6000600182015560078201546001600160a01b031680156122a2576040805163186e465160e31b815233600482015260006024820181905291516001600160a01b0384169263c3723288926044808201939182900301818387803b15801561228957600080fd5b505af115801561229d573d6000803e3d6000fd5b505050505b5050600180555050565b60075481565b6122ba612f56565b6001600160a01b03166122cb6127d0565b6001600160a01b031614612314576040805162461bcd60e51b81526020600482018190526024820152600080516020613a04833981519152604482015290519081900360640190fd5b601055565b60115460005b818110156119255761233081612046565b60010161231f565b600a546001600160a01b031681565b6002546001600160a01b031681565b60055481565b612364612f56565b6001600160a01b03166123756127d0565b6001600160a01b0316146123be576040805162461bcd60e51b81526020600482018190526024820152600080516020613a04833981519152604482015290519081900360640190fd5b600080546040516001600160a01b03909116907f8be0079c531659141344cd1fd0a4f28419497f9722a3daafe3b4186f6b6457e0908390a3600080546001600160a01b0319169055565b60155481565b612416612f56565b6001600160a01b03166124276127d0565b6001600160a01b031614612470576040805162461bcd60e51b81526020600482018190526024820152600080516020613a04833981519152604482015290519081900360640190fd5b600980546001600160a01b0319166001600160a01b0392909216919091179055565b61249a612f56565b6001600160a01b03166124ab6127d0565b6001600160a01b0316146124f4576040805162461bcd60e51b81526020600482018190526024820152600080516020613a04833981519152604482015290519081900360640190fd5b6003548311156125355760405162461bcd60e51b81526004018080602001828103825260258152602001806139df6025913960400191505060405180910390fd5b601554612576576040805162461bcd60e51b815260206004820152600a60248201526921737461727454696d6560b01b604482015290519081900360640190fd5b8415158061258b57506001600160a01b038216155b6125c9576040805162461bcd60e51b815260206004820152600a60248201526921696e63656e7469766560b01b604482015290519081900360640190fd5b80156125d7576125d7612319565b6000601186815481106125e657fe5b9060005260206000209060080201600301549050846011878154811061260857fe5b906000526020600020906008020160030181905550836011878154811061262b57fe5b906000526020600020906008020160060181905550826011878154811061264e57fe5b906000526020600020906008020160070160006101000a8154816001600160a01b0302191690836001600160a01b031602179055508481146126ad576126a9856126a38360145461301a90919063ffffffff16565b906130c9565b6014555b6040805186815290516001600160a01b0385169188917fa0eb810e1b5700505d2ce572a45927b0af4c7ee31768b475069875ce64fb58419181900360200190a3505050505050565b6126fd612f56565b6001600160a01b031661270e6127d0565b6001600160a01b031614612757576040805162461bcd60e51b81526020600482018190526024820152600080516020613a04833981519152604482015290519081900360640190fd5b6001600160a01b0381166127a8576040805162461bcd60e51b8152602060048201526013602482015272736574466565416464726573733a205a45524f60681b604482015290519081900360640190fd5b600b80546001600160a01b0319166001600160a01b0392909216919091179055565b60105481565b6000546001600160a01b031690565b6010546000906127f3906120d0848661301a565b90505b92915050565b60165460ff1681565b601260209081526000928352604080842090915290825290208054600182015460029092015490919083565b612839612f56565b6001600160a01b031661284a6127d0565b6001600160a01b031614612893576040805162461bcd60e51b81526020600482018190526024820152600080516020613a04833981519152604482015290519081900360640190fd5b600880546001600160a01b0319166001600160a01b0392909216919091179055565b60176020526000908152604090205460ff1681565b600d546001600160a01b031681565b6008546001600160a01b031681565b6128f0612f56565b6001600160a01b03166129016127d0565b6001600160a01b03161461294a576040805162461bcd60e51b81526020600482018190526024820152600080516020613a04833981519152604482015290519081900360640190fd5b67a688906bd8b0000081111561299f576040805162461bcd60e51b81526020600482015260156024820152744d617820706572207365636f6e6420313220454d4f60581b604482015290519081900360640190fd5b6129a7612319565b600f55565b602881565b60045481565b60136020526000908152604090205460ff1681565b600f5481565b611925338383611929565b6129e5612f56565b6001600160a01b03166129f66127d0565b6001600160a01b031614612a3f576040805162461bcd60e51b81526020600482018190526024820152600080516020613a04833981519152604482015290519081900360640190fd5b6001600160a01b038116612a845760405162461bcd60e51b81526004018080602001828103825260268152602001806139726026913960400191505060405180910390fd5b600080546040516001600160a01b03808516939216917f8be0079c531659141344cd1fd0a4f28419497f9722a3daafe3b4186f6b6457e091a3600080546001600160a01b0319166001600160a01b0392909216919091179055565b60115460005b81811015610b315760008181526012602090815260408083206001600160a01b038716845290915290205415612b2157612b2181846000613183565b600101612ae5565b606080600060118581548110612b3b57fe5b600091825260208083208884526012825260408085206001600160a01b038a8116875293528420600893909302016007810154909450919291165b6001600160a01b03811615612bf9578180600101925050806001600160a01b0316633fdb343e6040518163ffffffff1660e01b815260040160206040518083038186803b158015612bc657600080fd5b505afa158015612bda573d6000803e3d6000fd5b505050506040513d6020811015612bf057600080fd5b50519050612b76565b8160010167ffffffffffffffff81118015612c1357600080fd5b50604051908082528060200260200182016040528015612c3d578160200160208202803683370190505b5095508160010167ffffffffffffffff81118015612c5a57600080fd5b50604051908082528060200260200182016040528015612c84578160200160208202803683370190505b50600585015460018601546004870154929750909142118015612ca657508015155b15612d12576000612cbb8760040154426127df565b90506000612cee600354610c616004546120d0601454610c618e600301546120d0600f548b612f5a90919063ffffffff16565b9050612d0d612d0684610c618464e8d4a51000612f5a565b85906130c9565b935050505b60025488516001600160a01b03909116908990600090612d2e57fe5b60200260200101906001600160a01b031690816001600160a01b031681525050612d768560020154610c6764e8d4a51000610c61868a60010154612f5a90919063ffffffff16565b87600081518110612d8357fe5b602090810291909101015260078601546001906001600160a01b03165b6001600160a01b03811615612f4757806001600160a01b031663f7c618c16040518163ffffffff1660e01b815260040160206040518083038186803b158015612de857600080fd5b505afa158015612dfc573d6000803e3d6000fd5b505050506040513d6020811015612e1257600080fd5b50518a518b9084908110612e2257fe5b60200260200101906001600160a01b031690816001600160a01b031681525050806001600160a01b031663c031a66f8c6040518263ffffffff1660e01b815260040180826001600160a01b0316815260200191505060206040518083038186803b158015612e8f57600080fd5b505afa158015612ea3573d6000803e3d6000fd5b505050506040513d6020811015612eb957600080fd5b505189518a9084908110612ec957fe5b602002602001018181525050806001600160a01b0316633fdb343e6040518163ffffffff1660e01b815260040160206040518083038186803b158015612f0e57600080fd5b505afa158015612f22573d6000803e3d6000fd5b505050506040513d6020811015612f3857600080fd5b50516001909201919050612da0565b50505050505050509250929050565b3390565b600082612f69575060006127f6565b82820282848281612f7657fe5b04146127f35760405162461bcd60e51b81526004018080602001828103825260218152602001806139be6021913960400191505060405180910390fd5b6000808211613009576040805162461bcd60e51b815260206004820152601a60248201527f536166654d6174683a206469766973696f6e206279207a65726f000000000000604482015290519081900360640190fd5b81838161301257fe5b049392505050565b600082821115613071576040805162461bcd60e51b815260206004820152601e60248201527f536166654d6174683a207375627472616374696f6e206f766572666c6f770000604482015290519081900360640190fd5b50900390565b604080516001600160a01b038416602482015260448082018490528251808303909101815260649091019091526020810180516001600160e01b031663a9059cbb60e01b179052610b31908490613687565b6000828201838110156127f3576040805162461bcd60e51b815260206004820152601b60248201527f536166654d6174683a206164646974696f6e206f766572666c6f770000000000604482015290519081900360640190fd5b604080516001600160a01b0380861660248301528416604482015260648082018490528251808303909101815260849091019091526020810180516001600160e01b03166323b872dd60e01b17905261317d908590613687565b50505050565b600260015414156131c9576040805162461bcd60e51b815260206004820152601f6024820152600080516020613952833981519152604482015290519081900360640190fd5b600260015582613220576040805162461bcd60e51b815260206004820152601960248201527f776974686472617720454d4f20627920756e7374616b696e6700000000000000604482015290519081900360640190fd5b60006011848154811061322f57fe5b600091825260208083208784526012825260408085206001600160a01b038916865290925292208054600890920290920192508311156132ab576040805162461bcd60e51b81526020600482015260126024820152711dda5d1a191c985dce881b9bdd0819dbdbd960721b604482015290519081900360640190fd5b6132b485612046565b60018101541561336b5760006132ec8260020154610c6764e8d4a51000610c6187600501548760010154612f5a90919063ffffffff16565b9050801561336957600d54604080516334686fad60e21b81526001600160a01b03888116600483015260248201859052600160448301529151919092169163d1a1beb491606480830192600092919082900301818387803b15801561335057600080fd5b505af1158015613364573d6000803e3d6000fd5b505050505b505b821561339557805461337d908461301a565b81558154613395906001600160a01b03168585613077565b600282015460ff161561356a57600e54604080516370a0823160e01b81526001600160a01b038781166004830152915160009392909216916370a0823191602480820192602092909190829003018186803b1580156133f357600080fd5b505afa158015613407573d6000803e3d6000fd5b505050506040513d602081101561341d57600080fd5b5051600e54604080516318160ddd60e01b815290519293506000926001600160a01b03909216916318160ddd91600480820192602092909190829003018186803b15801561346a57600080fd5b505afa15801561347e573d6000803e3d6000fd5b505050506040513d602081101561349457600080fd5b505183549091506064602890910204811561353a578454604080516370a0823160e01b81523060048201529051606492603c92869288926001600160a01b0316916370a08231916024808301926020929190829003018186803b1580156134fa57600080fd5b505afa15801561350e573d6000803e3d6000fd5b505050506040513d602081101561352457600080fd5b5051028161352e57fe5b04028161353757fe5b04015b83548111613548578061354b565b83545b6001808601805491880180548401929092039091555550613584915050565b600180820180548354928501805490930103909155815490555b6135a864e8d4a51000610c6184600501548460010154612f5a90919063ffffffff16565b600282015560078201546001600160a01b0316801561363557806001600160a01b031663c37232888684600001546040518363ffffffff1660e01b815260040180836001600160a01b0316815260200182815260200192505050600060405180830381600087803b15801561361c57600080fd5b505af1158015613630573d6000803e3d6000fd5b505050505b60408051858152905187916001600160a01b038816917ff279e6a1f5e320cca91135676d9cb6e44ca8a08c0b88342bcdb1144f6511b5689181900360200190a350506001805550505050565b3b151590565b60606136dc826040518060400160405280602081526020017f5361666545524332303a206c6f772d6c6576656c2063616c6c206661696c6564815250856001600160a01b03166137389092919063ffffffff16565b805190915015610b31578080602001905160208110156136fb57600080fd5b5051610b315760405162461bcd60e51b815260040180806020018281038252602a815260200180613a24602a913960400191505060405180910390fd5b60606137478484600085613751565b90505b9392505050565b6060824710156137925760405162461bcd60e51b81526004018080602001828103825260268152602001806139986026913960400191505060405180910390fd5b61379b85613681565b6137ec576040805162461bcd60e51b815260206004820152601d60248201527f416464726573733a2063616c6c20746f206e6f6e2d636f6e7472616374000000604482015290519081900360640190fd5b60006060866001600160a01b031685876040518082805190602001908083835b6020831061382b5780518252601f19909201916020918201910161380c565b6001836020036101000a03801982511681845116808217855250505050505090500191505060006040518083038185875af1925050503d806000811461388d576040519150601f19603f3d011682016040523d82523d6000602084013e613892565b606091505b50915091506138a28282866138ad565b979650505050505050565b606083156138bc57508161374a565b8251156138cc5782518084602001fd5b8160405162461bcd60e51b81526004018080602001828103825283818151815260200191508051906020019080838360005b838110156139165781810151838201526020016138fe565b50505050905090810190601f1680156139435780820380516001836020036101000a031916815260200191505b509250505060405180910390fdfe5265656e7472616e637947756172643a207265656e7472616e742063616c6c004f776e61626c653a206e6577206f776e657220697320746865207a65726f2061646472657373416464726573733a20696e73756666696369656e742062616c616e636520666f722063616c6c536166654d6174683a206d756c7469706c69636174696f6e206f766572666c6f777365743a20696e76616c6964206465706f7369742066656520626173697320706f696e74734f776e61626c653a2063616c6c6572206973206e6f7420746865206f776e65725361666545524332303a204552433230206f7065726174696f6e20646964206e6f742073756363656564a264697066735822122036b6738e66c596aa29b8e4aeef1449ce7d00974001fd6653f4ea8389de4c80f564736f6c634300060c0033",
  "devdoc": {
    "kind": "dev",
    "methods": {
      "owner()": {
        "details": "Returns the address of the current owner."
      },
      "renounceOwnership()": {
        "details": "Leaves the contract without owner. It will not be possible to call `onlyOwner` functions anymore. Can only be called by the current owner. NOTE: Renouncing ownership will leave the contract without an owner, thereby removing any functionality that is only available to the owner."
      },
      "transferOwnership(address)": {
        "details": "Transfers ownership of the contract to a new account (`newOwner`). Can only be called by the current owner."
      }
    },
    "version": 1
  },
  "userdoc": {
    "kind": "user",
    "methods": {},
    "version": 1
  },
  "storageLayout": {
    "storage": [
      {
        "astId": 10,
        "contract": "contracts/staking/MasterChef.sol:MasterChef",
        "label": "_owner",
        "offset": 0,
        "slot": "0",
        "type": "t_address"
      },
      {
        "astId": 2305,
        "contract": "contracts/staking/MasterChef.sol:MasterChef",
        "label": "_status",
        "offset": 0,
        "slot": "1",
        "type": "t_uint256"
      },
      {
        "astId": 24564,
        "contract": "contracts/staking/MasterChef.sol:MasterChef",
        "label": "emo",
        "offset": 0,
        "slot": "2",
        "type": "t_contract(EMOToken)22367"
      },
      {
        "astId": 24567,
        "contract": "contracts/staking/MasterChef.sol:MasterChef",
        "label": "percentDec",
        "offset": 0,
        "slot": "3",
        "type": "t_uint256"
      },
      {
        "astId": 24569,
        "contract": "contracts/staking/MasterChef.sol:MasterChef",
        "label": "stakingPercent",
        "offset": 0,
        "slot": "4",
        "type": "t_uint256"
      },
      {
        "astId": 24571,
        "contract": "contracts/staking/MasterChef.sol:MasterChef",
        "label": "daoPercent",
        "offset": 0,
        "slot": "5",
        "type": "t_uint256"
      },
      {
        "astId": 24573,
        "contract": "contracts/staking/MasterChef.sol:MasterChef",
        "label": "safuPercent",
        "offset": 0,
        "slot": "6",
        "type": "t_uint256"
      },
      {
        "astId": 24575,
        "contract": "contracts/staking/MasterChef.sol:MasterChef",
        "label": "refPercent",
        "offset": 0,
        "slot": "7",
        "type": "t_uint256"
      },
      {
        "astId": 24577,
        "contract": "contracts/staking/MasterChef.sol:MasterChef",
        "label": "daoAddr",
        "offset": 0,
        "slot": "8",
        "type": "t_address"
      },
      {
        "astId": 24579,
        "contract": "contracts/staking/MasterChef.sol:MasterChef",
        "label": "safuAddr",
        "offset": 0,
        "slot": "9",
        "type": "t_address"
      },
      {
        "astId": 24581,
        "contract": "contracts/staking/MasterChef.sol:MasterChef",
        "label": "refAddr",
        "offset": 0,
        "slot": "10",
        "type": "t_address"
      },
      {
        "astId": 24583,
        "contract": "contracts/staking/MasterChef.sol:MasterChef",
        "label": "feeAddr",
        "offset": 0,
        "slot": "11",
        "type": "t_address"
      },
      {
        "astId": 24585,
        "contract": "contracts/staking/MasterChef.sol:MasterChef",
        "label": "lastTimeDaoWithdraw",
        "offset": 0,
        "slot": "12",
        "type": "t_uint256"
      },
      {
        "astId": 24587,
        "contract": "contracts/staking/MasterChef.sol:MasterChef",
        "label": "rewardMinter",
        "offset": 0,
        "slot": "13",
        "type": "t_contract(IMultiFeeDistribution)9315"
      },
      {
        "astId": 24589,
        "contract": "contracts/staking/MasterChef.sol:MasterChef",
        "label": "votingEscrow",
        "offset": 0,
        "slot": "14",
        "type": "t_address"
      },
      {
        "astId": 24591,
        "contract": "contracts/staking/MasterChef.sol:MasterChef",
        "label": "emoPerSecond",
        "offset": 0,
        "slot": "15",
        "type": "t_uint256"
      },
      {
        "astId": 24594,
        "contract": "contracts/staking/MasterChef.sol:MasterChef",
        "label": "BONUS_MULTIPLIER",
        "offset": 0,
        "slot": "16",
        "type": "t_uint256"
      },
      {
        "astId": 24597,
        "contract": "contracts/staking/MasterChef.sol:MasterChef",
        "label": "poolInfo",
        "offset": 0,
        "slot": "17",
        "type": "t_array(t_struct(PoolInfo)24559_storage)dyn_storage"
      },
      {
        "astId": 24603,
        "contract": "contracts/staking/MasterChef.sol:MasterChef",
        "label": "userInfo",
        "offset": 0,
        "slot": "18",
        "type": "t_mapping(t_uint256,t_mapping(t_address,t_struct(UserInfo)24542_storage))"
      },
      {
        "astId": 24607,
        "contract": "contracts/staking/MasterChef.sol:MasterChef",
        "label": "poolExistence",
        "offset": 0,
        "slot": "19",
        "type": "t_mapping(t_contract(IERC20)1178,t_bool)"
      },
      {
        "astId": 24610,
        "contract": "contracts/staking/MasterChef.sol:MasterChef",
        "label": "totalAllocPoint",
        "offset": 0,
        "slot": "20",
        "type": "t_uint256"
      },
      {
        "astId": 24612,
        "contract": "contracts/staking/MasterChef.sol:MasterChef",
        "label": "startTime",
        "offset": 0,
        "slot": "21",
        "type": "t_uint256"
      },
      {
        "astId": 24614,
        "contract": "contracts/staking/MasterChef.sol:MasterChef",
        "label": "whitelistable",
        "offset": 0,
        "slot": "22",
        "type": "t_bool"
      },
      {
        "astId": 24618,
        "contract": "contracts/staking/MasterChef.sol:MasterChef",
        "label": "whitelist",
        "offset": 0,
        "slot": "23",
        "type": "t_mapping(t_address,t_bool)"
      },
      {
        "astId": 24622,
        "contract": "contracts/staking/MasterChef.sol:MasterChef",
        "label": "pool0Staker",
        "offset": 0,
        "slot": "24",
        "type": "t_mapping(t_address,t_bool)"
      }
    ],
    "types": {
      "t_address": {
        "encoding": "inplace",
        "label": "address",
        "numberOfBytes": "20"
      },
      "t_array(t_struct(PoolInfo)24559_storage)dyn_storage": {
        "base": "t_struct(PoolInfo)24559_storage",
        "encoding": "dynamic_array",
        "label": "struct MasterChef.PoolInfo[]",
        "numberOfBytes": "32"
      },
      "t_bool": {
        "encoding": "inplace",
        "label": "bool",
        "numberOfBytes": "1"
      },
      "t_contract(EMOToken)22367": {
        "encoding": "inplace",
        "label": "contract EMOToken",
        "numberOfBytes": "20"
      },
      "t_contract(IERC20)1178": {
        "encoding": "inplace",
        "label": "contract IERC20",
        "numberOfBytes": "20"
      },
      "t_contract(IMultiFeeDistribution)9315": {
        "encoding": "inplace",
        "label": "contract IMultiFeeDistribution",
        "numberOfBytes": "20"
      },
      "t_contract(IOnwardIncentivesController)9343": {
        "encoding": "inplace",
        "label": "contract IOnwardIncentivesController",
        "numberOfBytes": "20"
      },
      "t_mapping(t_address,t_bool)": {
        "encoding": "mapping",
        "key": "t_address",
        "label": "mapping(address => bool)",
        "numberOfBytes": "32",
        "value": "t_bool"
      },
      "t_mapping(t_address,t_struct(UserInfo)24542_storage)": {
        "encoding": "mapping",
        "key": "t_address",
        "label": "mapping(address => struct MasterChef.UserInfo)",
        "numberOfBytes": "32",
        "value": "t_struct(UserInfo)24542_storage"
      },
      "t_mapping(t_contract(IERC20)1178,t_bool)": {
        "encoding": "mapping",
        "key": "t_contract(IERC20)1178",
        "label": "mapping(contract IERC20 => bool)",
        "numberOfBytes": "32",
        "value": "t_bool"
      },
      "t_mapping(t_uint256,t_mapping(t_address,t_struct(UserInfo)24542_storage))": {
        "encoding": "mapping",
        "key": "t_uint256",
        "label": "mapping(uint256 => mapping(address => struct MasterChef.UserInfo))",
        "numberOfBytes": "32",
        "value": "t_mapping(t_address,t_struct(UserInfo)24542_storage)"
      },
      "t_struct(PoolInfo)24559_storage": {
        "encoding": "inplace",
        "label": "struct MasterChef.PoolInfo",
        "members": [
          {
            "astId": 24544,
            "contract": "contracts/staking/MasterChef.sol:MasterChef",
            "label": "lpToken",
            "offset": 0,
            "slot": "0",
            "type": "t_contract(IERC20)1178"
          },
          {
            "astId": 24546,
            "contract": "contracts/staking/MasterChef.sol:MasterChef",
            "label": "workingSupply",
            "offset": 0,
            "slot": "1",
            "type": "t_uint256"
          },
          {
            "astId": 24548,
            "contract": "contracts/staking/MasterChef.sol:MasterChef",
            "label": "boost",
            "offset": 0,
            "slot": "2",
            "type": "t_bool"
          },
          {
            "astId": 24550,
            "contract": "contracts/staking/MasterChef.sol:MasterChef",
            "label": "allocPoint",
            "offset": 0,
            "slot": "3",
            "type": "t_uint256"
          },
          {
            "astId": 24552,
            "contract": "contracts/staking/MasterChef.sol:MasterChef",
            "label": "lastRewardTime",
            "offset": 0,
            "slot": "4",
            "type": "t_uint256"
          },
          {
            "astId": 24554,
            "contract": "contracts/staking/MasterChef.sol:MasterChef",
            "label": "accEmoPerShare",
            "offset": 0,
            "slot": "5",
            "type": "t_uint256"
          },
          {
            "astId": 24556,
            "contract": "contracts/staking/MasterChef.sol:MasterChef",
            "label": "depositFeePercent",
            "offset": 0,
            "slot": "6",
            "type": "t_uint256"
          },
          {
            "astId": 24558,
            "contract": "contracts/staking/MasterChef.sol:MasterChef",
            "label": "incentivesController",
            "offset": 0,
            "slot": "7",
            "type": "t_contract(IOnwardIncentivesController)9343"
          }
        ],
        "numberOfBytes": "256"
      },
      "t_struct(UserInfo)24542_storage": {
        "encoding": "inplace",
        "label": "struct MasterChef.UserInfo",
        "members": [
          {
            "astId": 24537,
            "contract": "contracts/staking/MasterChef.sol:MasterChef",
            "label": "amount",
            "offset": 0,
            "slot": "0",
            "type": "t_uint256"
          },
          {
            "astId": 24539,
            "contract": "contracts/staking/MasterChef.sol:MasterChef",
            "label": "workingAmount",
            "offset": 0,
            "slot": "1",
            "type": "t_uint256"
          },
          {
            "astId": 24541,
            "contract": "contracts/staking/MasterChef.sol:MasterChef",
            "label": "rewardDebt",
            "offset": 0,
            "slot": "2",
            "type": "t_uint256"
          }
        ],
        "numberOfBytes": "96"
      },
      "t_uint256": {
        "encoding": "inplace",
        "label": "uint256",
        "numberOfBytes": "32"
      }
    }
  }
}