{
  "address": "0x7F6A2ece9346DabD227A76Eb23376b07Dc982A64",
  "abi": [
    {
      "inputs": [
        {
          "internalType": "address",
          "name": "_stakingToken",
          "type": "address"
        },
        {
          "internalType": "address",
          "name": "_penaltyReceiver",
          "type": "address"
        }
      ],
      "stateMutability": "nonpayable",
      "type": "constructor"
    },
    {
      "anonymous": false,
      "inputs": [
        {
          "indexed": true,
          "internalType": "address",
          "name": "user",
          "type": "address"
        },
        {
          "indexed": false,
          "internalType": "uint256",
          "name": "amount",
          "type": "uint256"
        },
        {
          "indexed": false,
          "internalType": "bool",
          "name": "withPenalty",
          "type": "bool"
        }
      ],
      "name": "Mint",
      "type": "event"
    },
    {
      "anonymous": false,
      "inputs": [
        {
          "indexed": true,
          "internalType": "address",
          "name": "previousOwner",
          "type": "address"
        },
        {
          "indexed": true,
          "internalType": "address",
          "name": "newOwner",
          "type": "address"
        }
      ],
      "name": "OwnershipTransferred",
      "type": "event"
    },
    {
      "anonymous": false,
      "inputs": [
        {
          "indexed": false,
          "internalType": "address",
          "name": "token",
          "type": "address"
        },
        {
          "indexed": false,
          "internalType": "uint256",
          "name": "amount",
          "type": "uint256"
        }
      ],
      "name": "Recovered",
      "type": "event"
    },
    {
      "anonymous": false,
      "inputs": [
        {
          "indexed": true,
          "internalType": "address",
          "name": "user",
          "type": "address"
        },
        {
          "indexed": false,
          "internalType": "uint256",
          "name": "receivedAmount",
          "type": "uint256"
        },
        {
          "indexed": false,
          "internalType": "uint256",
          "name": "penaltyPaid",
          "type": "uint256"
        }
      ],
      "name": "Withdrawn",
      "type": "event"
    },
    {
      "inputs": [],
      "name": "WEEK",
      "outputs": [
        {
          "internalType": "uint256",
          "name": "",
          "type": "uint256"
        }
      ],
      "stateMutability": "view",
      "type": "function"
    },
    {
      "inputs": [
        {
          "internalType": "address",
          "name": "user",
          "type": "address"
        }
      ],
      "name": "earnedBalances",
      "outputs": [
        {
          "internalType": "uint256",
          "name": "total",
          "type": "uint256"
        },
        {
          "components": [
            {
              "internalType": "uint256",
              "name": "amount",
              "type": "uint256"
            },
            {
              "internalType": "uint256",
              "name": "unlockTime",
              "type": "uint256"
            }
          ],
          "internalType": "struct MultiFeeDistribution.LockedBalance[]",
          "name": "earningsData",
          "type": "tuple[]"
        }
      ],
      "stateMutability": "view",
      "type": "function"
    },
    {
      "inputs": [],
      "name": "lockDuration",
      "outputs": [
        {
          "internalType": "uint256",
          "name": "",
          "type": "uint256"
        }
      ],
      "stateMutability": "view",
      "type": "function"
    },
    {
      "inputs": [
        {
          "internalType": "address",
          "name": "user",
          "type": "address"
        },
        {
          "internalType": "uint256",
          "name": "amount",
          "type": "uint256"
        },
        {
          "internalType": "bool",
          "name": "withPenalty",
          "type": "bool"
        }
      ],
      "name": "mint",
      "outputs": [],
      "stateMutability": "nonpayable",
      "type": "function"
    },
    {
      "inputs": [
        {
          "internalType": "address",
          "name": "",
          "type": "address"
        }
      ],
      "name": "minters",
      "outputs": [
        {
          "internalType": "bool",
          "name": "",
          "type": "bool"
        }
      ],
      "stateMutability": "view",
      "type": "function"
    },
    {
      "inputs": [],
      "name": "mintersAreSet",
      "outputs": [
        {
          "internalType": "bool",
          "name": "",
          "type": "bool"
        }
      ],
      "stateMutability": "view",
      "type": "function"
    },
    {
      "inputs": [],
      "name": "owner",
      "outputs": [
        {
          "internalType": "address",
          "name": "",
          "type": "address"
        }
      ],
      "stateMutability": "view",
      "type": "function"
    },
    {
      "inputs": [],
      "name": "penaltyReceiver",
      "outputs": [
        {
          "internalType": "address",
          "name": "",
          "type": "address"
        }
      ],
      "stateMutability": "view",
      "type": "function"
    },
    {
      "inputs": [
        {
          "internalType": "address",
          "name": "tokenAddress",
          "type": "address"
        },
        {
          "internalType": "uint256",
          "name": "tokenAmount",
          "type": "uint256"
        }
      ],
      "name": "recoverERC20",
      "outputs": [],
      "stateMutability": "nonpayable",
      "type": "function"
    },
    {
      "inputs": [],
      "name": "renounceOwnership",
      "outputs": [],
      "stateMutability": "nonpayable",
      "type": "function"
    },
    {
      "inputs": [
        {
          "internalType": "address[]",
          "name": "_minters",
          "type": "address[]"
        }
      ],
      "name": "setMinters",
      "outputs": [],
      "stateMutability": "nonpayable",
      "type": "function"
    },
    {
      "inputs": [],
      "name": "stakingToken",
      "outputs": [
        {
          "internalType": "contract IMintableToken",
          "name": "",
          "type": "address"
        }
      ],
      "stateMutability": "view",
      "type": "function"
    },
    {
      "inputs": [
        {
          "internalType": "address",
          "name": "user",
          "type": "address"
        }
      ],
      "name": "totalBalance",
      "outputs": [
        {
          "internalType": "uint256",
          "name": "amount",
          "type": "uint256"
        }
      ],
      "stateMutability": "view",
      "type": "function"
    },
    {
      "inputs": [],
      "name": "totalSupply",
      "outputs": [
        {
          "internalType": "uint256",
          "name": "",
          "type": "uint256"
        }
      ],
      "stateMutability": "view",
      "type": "function"
    },
    {
      "inputs": [
        {
          "internalType": "address",
          "name": "newOwner",
          "type": "address"
        }
      ],
      "name": "transferOwnership",
      "outputs": [],
      "stateMutability": "nonpayable",
      "type": "function"
    },
    {
      "inputs": [
        {
          "internalType": "uint256",
          "name": "amount",
          "type": "uint256"
        }
      ],
      "name": "withdraw",
      "outputs": [],
      "stateMutability": "nonpayable",
      "type": "function"
    },
    {
      "inputs": [
        {
          "internalType": "address",
          "name": "user",
          "type": "address"
        }
      ],
      "name": "withdrawableBalance",
      "outputs": [
        {
          "internalType": "uint256",
          "name": "amount",
          "type": "uint256"
        },
        {
          "internalType": "uint256",
          "name": "amountWithoutPenalty",
          "type": "uint256"
        },
        {
          "internalType": "uint256",
          "name": "penaltyAmount",
          "type": "uint256"
        }
      ],
      "stateMutability": "view",
      "type": "function"
    }
  ],
  "transactionHash": "0xccabb3fd581f6b61e75364a018ff184526bca4f24de4c501b061cf53b5760562",
  "args": [
    "0x7cBa32163a8f4c56C846f5C3685E3b7a450c9002",
    "0x71a6A15b9e8420196075A8a3f308Bc674Bc911FA"
  ],
  "solcInputHash": "501b37a461f7263b0dd12adb5a9f62cc",
  "bytecode": "0x60a06040523480156200001157600080fd5b50604051620018de380380620018de8339810160408190526200003491620000c6565b600062000040620000c2565b600080546001600160a01b0319166001600160a01b0383169081178255604051929350917f8be0079c531659141344cd1fd0a4f28419497f9722a3daafe3b4186f6b6457e0908290a35060609190911b6001600160601b031916608052600180546001600160a01b0319166001600160a01b039092169190911790556200011d565b3390565b60008060408385031215620000d9578182fd5b8251620000e68162000104565b6020840151909250620000f98162000104565b809150509250929050565b6001600160a01b03811681146200011a57600080fd5b50565b60805160601c61178f6200014f600039806105f752806106355280610805528061086852806109a2525061178f6000f3fe608060405234801561001057600080fd5b506004361061010b5760003560e01c80638980f11f116100a2578063df37987611610071578063df379876146101f3578063e1b7fd4214610214578063f2fde38b1461021c578063f4359ce51461022f578063f46eccc4146102375761010b565b80638980f11f146101b05780638da5cb5b146101c35780638fd9f2ca146101cb578063d1a1beb4146101e05761010b565b8063547d0096116100de578063547d00961461016d5780636eacd39814610180578063715018a61461019357806372f702f31461019b5761010b565b806302b6293814610110578063045544431461013b57806318160ddd146101505780632e1a7d4d14610158575b600080fd5b61012361011e366004611115565b61024a565b604051610132939291906116be565b60405180910390f35b61014361037c565b6040516101329190611640565b610143610383565b61016b61016636600461125f565b610389565b005b61016b61017b3660046111a6565b6106a7565b61014361018e366004611115565b61075f565b61016b61077a565b6101a3610803565b6040516101329190611293565b61016b6101be366004611130565b610827565b6101a3610911565b6101d3610920565b60405161013291906112c0565b61016b6101ee36600461115a565b610929565b610206610201366004611115565b610bb6565b604051610132929190611649565b6101a3610cf2565b61016b61022a366004611115565b610d01565b610143610dc1565b6101d3610245366004611115565b610dc8565b6001600160a01b03811660009081526005602052604081206002810154829182918015610350576001600160a01b038616600090815260066020526040812054905b81811015610336576001600160a01b03881660009081526006602052604081208054839081106102b857fe5b906000526020600020906002020160000154905080600014156102db575061032e565b6001600160a01b038916600090815260066020526040902080544291908490811061030257fe5b90600052602060002090600202016001015411156103205750610336565b61032a8782610ddd565b9650505b60010161028c565b5061034c60026103468488610e0b565b90610e33565b9350505b6103718361036b838560010154610ddd90919063ffffffff16565b90610e0b565b945050509193909250565b6277f88081565b60045481565b600081116103b25760405162461bcd60e51b81526004016103a990611492565b60405180910390fd5b336000908152600560205260408120600181015490919083116103e85760018201546103de9084610e0b565b60018301556105bd565b6000610401836001015485610e0b90919063ffffffff16565b905080836002015410156104275760405162461bcd60e51b81526004016103a990611588565b60006001840155600283015461043d9082610e0b565b600284015560005b33600090815260066020526040812080548390811061046057fe5b9060005260206000209060020201600001549050806000141561048357506105b2565b831580156104be57503360009081526006602052604090208054429190849081106104aa57fe5b906000526020600020906002020160010154115b156105305782935082856002015410156104ea5760405162461bcd60e51b81526004016103a99061139c565b60028501546104f99084610e0b565b600286018190556105225733600090815260066020526040812061051c916110a1565b506105ba565b61052d836002610e65565b92505b808311610573576105418184610e0b565b33600090815260066020526040902080548490811061055c57fe5b6000918252602090912060029091020155506105ba565b33600090815260066020526040902080548390811061058e57fe5b600091825260208220600290910201818155600101556105ae8382610e0b565b9250505b600101610445565b50505b60006105c98483610ddd565b83549091506105d89082610e0b565b83556004546105e79082610e0b565b60045561061e6001600160a01b037f0000000000000000000000000000000000000000000000000000000000000000163386610e9f565b811561065e5760015461065e906001600160a01b037f00000000000000000000000000000000000000000000000000000000000000008116911684610e9f565b336001600160a01b03167f92ccf450a286a957af52509bc1c9939d1a6a481783e142e41e2499f0bb66ebc685846040516106999291906116b0565b60405180910390a250505050565b6106af610ef5565b6001600160a01b03166106c0610911565b6001600160a01b0316146106e65760405162461bcd60e51b81526004016103a9906114fe565b60035460ff16156106f657600080fd5b60005b815181101561074e5760016002600084848151811061071457fe5b6020908102919091018101516001600160a01b03168252810191909152604001600020805460ff19169115159190911790556001016106f9565b50506003805460ff19166001179055565b6001600160a01b031660009081526005602052604090205490565b610782610ef5565b6001600160a01b0316610793610911565b6001600160a01b0316146107b95760405162461bcd60e51b81526004016103a9906114fe565b600080546040516001600160a01b03909116907f8be0079c531659141344cd1fd0a4f28419497f9722a3daafe3b4186f6b6457e0908390a3600080546001600160a01b0319169055565b7f000000000000000000000000000000000000000000000000000000000000000081565b61082f610ef5565b6001600160a01b0316610840610911565b6001600160a01b0316146108665760405162461bcd60e51b81526004016103a9906114fe565b7f00000000000000000000000000000000000000000000000000000000000000006001600160a01b0316826001600160a01b031614156108b85760405162461bcd60e51b81526004016103a990611551565b6108d46108c3610911565b6001600160a01b0384169083610e9f565b7f8c1256b8896378cd5044f80c202f9772b9d77dc85c8a6eb51967210b09bfaa2882826040516109059291906112a7565b60405180910390a15050565b6000546001600160a01b031690565b60035460ff1681565b3360009081526002602052604090205460ff166109585760405162461bcd60e51b81526004016103a9906112fe565b6001600160a01b0383163014156109815760405162461bcd60e51b81526004016103a990611533565b8161098b57610bb1565b6040516340c10f1960e01b81526001600160a01b037f000000000000000000000000000000000000000000000000000000000000000016906340c10f19906109d990309086906004016112a7565b600060405180830381600087803b1580156109f357600080fd5b505af1158015610a07573d6000803e3d6000fd5b5050600454610a199250905083610ddd565b6004556001600160a01b03831660009081526005602052604090208054610a409084610ddd565b81558115610b61576002810154610a579084610ddd565b60028201556000610a826277f880610a7c62093a80610a764282610e33565b90610e65565b90610ddd565b6001600160a01b0386166000908152600660205260409020805491925090801580610acc575082826001830381548110610ab857fe5b906000526020600020906002020160010154105b15610b0e576040805180820190915286815260208082018581528454600181810187556000878152939093209351600290910290930192835551910155610b59565b610b3886836001840381548110610b2157fe5b600091825260209091206002909102015490610ddd565b826001830381548110610b4757fe5b60009182526020909120600290910201555b505050610b76565b6001810154610b709084610ddd565b60018201555b836001600160a01b03167ff9288aa3c16d157f87dbf24b824f702d4c76887d38e8fd6ef8212ad19a712aee84846040516106999291906116a0565b505050565b6001600160a01b038116600090815260066020526040812060609082805b8254811015610cea5742838281548110610bea57fe5b9060005260206000209060020201600101541115610ce25781610c6057825481900367ffffffffffffffff81118015610c2257600080fd5b50604051908082528060200260200182016040528015610c5c57816020015b610c496110c5565b815260200190600190039081610c415790505b5093505b828181548110610c6c57fe5b906000526020600020906002020160405180604001604052908160008201548152602001600182015481525050848381518110610ca557fe5b60200260200101819052508180600101925050610cdf838281548110610cc757fe5b60009182526020909120600290910201548690610ddd565b94505b600101610bd4565b505050915091565b6001546001600160a01b031681565b610d09610ef5565b6001600160a01b0316610d1a610911565b6001600160a01b031614610d405760405162461bcd60e51b81526004016103a9906114fe565b6001600160a01b038116610d665760405162461bcd60e51b81526004016103a99061131f565b600080546040516001600160a01b03808516939216917f8be0079c531659141344cd1fd0a4f28419497f9722a3daafe3b4186f6b6457e091a3600080546001600160a01b0319166001600160a01b0392909216919091179055565b62093a8081565b60026020526000908152604090205460ff1681565b600082820183811015610e025760405162461bcd60e51b81526004016103a990611365565b90505b92915050565b600082821115610e2d5760405162461bcd60e51b81526004016103a9906113de565b50900390565b6000808211610e545760405162461bcd60e51b81526004016103a99061145b565b818381610e5d57fe5b049392505050565b600082610e7457506000610e05565b82820282848281610e8157fe5b0414610e025760405162461bcd60e51b81526004016103a9906114bd565b610bb18363a9059cbb60e01b8484604051602401610ebe9291906112a7565b60408051601f198184030181529190526020810180516001600160e01b03166001600160e01b031990931692909217909152610ef9565b3390565b6060610f4e826040518060400160405280602081526020017f5361666545524332303a206c6f772d6c6576656c2063616c6c206661696c6564815250856001600160a01b0316610f889092919063ffffffff16565b805190915015610bb15780806020019051810190610f6c9190611243565b610bb15760405162461bcd60e51b81526004016103a9906115f6565b6060610f978484600085610fa1565b90505b9392505050565b606082471015610fc35760405162461bcd60e51b81526004016103a990611415565b610fcc85611062565b610fe85760405162461bcd60e51b81526004016103a9906115bf565b60006060866001600160a01b031685876040516110059190611277565b60006040518083038185875af1925050503d8060008114611042576040519150601f19603f3d011682016040523d82523d6000602084013e611047565b606091505b5091509150611057828286611068565b979650505050505050565b3b151590565b60608315611077575081610f9a565b8251156110875782518084602001fd5b8160405162461bcd60e51b81526004016103a991906112cb565b50805460008255600202906000526020600020908101906110c291906110df565b50565b604051806040016040528060008152602001600081525090565b5b808211156110fa57600080825560018201556002016110e0565b5090565b80356001600160a01b0381168114610e0557600080fd5b600060208284031215611126578081fd5b610f9a83836110fe565b60008060408385031215611142578081fd5b61114c84846110fe565b946020939093013593505050565b60008060006060848603121561116e578081fd5b83356001600160a01b0381168114611184578182fd5b925060208401359150604084013561119b8161174b565b809150509250925092565b600060208083850312156111b8578182fd5b823567ffffffffffffffff8111156111ce578283fd5b8301601f810185136111de578283fd5b80356111f16111ec826116fb565b6116d4565b818152838101908385018584028501860189101561120d578687fd5b8694505b838510156112375761122389826110fe565b835260019490940193918501918501611211565b50979650505050505050565b600060208284031215611254578081fd5b8151610e028161174b565b600060208284031215611270578081fd5b5035919050565b6000825161128981846020870161171b565b9190910192915050565b6001600160a01b0391909116815260200190565b6001600160a01b03929092168252602082015260400190565b901515815260200190565b60006020825282518060208401526112ea81604085016020870161171b565b601f01601f19169190910160400192915050565b60208082526007908201526610b6b4b73a32b960c91b604082015260600190565b60208082526026908201527f4f776e61626c653a206e6577206f776e657220697320746865207a65726f206160408201526564647265737360d01b606082015260800190565b6020808252601b908201527f536166654d6174683a206164646974696f6e206f766572666c6f770000000000604082015260600190565b60208082526022908201527f496e73756666696369656e742062616c616e63652061667465722070656e616c604082015261747960f01b606082015260800190565b6020808252601e908201527f536166654d6174683a207375627472616374696f6e206f766572666c6f770000604082015260600190565b60208082526026908201527f416464726573733a20696e73756666696369656e742062616c616e636520666f6040820152651c8818d85b1b60d21b606082015260800190565b6020808252601a908201527f536166654d6174683a206469766973696f6e206279207a65726f000000000000604082015260600190565b602080825260119082015270043616e6e6f74207769746864726177203607c1b604082015260600190565b60208082526021908201527f536166654d6174683a206d756c7469706c69636174696f6e206f766572666c6f6040820152607760f81b606082015260800190565b6020808252818101527f4f776e61626c653a2063616c6c6572206973206e6f7420746865206f776e6572604082015260600190565b60208082526004908201526339b2b63360e11b604082015260600190565b6020808252601d908201527f43616e6e6f74207769746864726177207374616b696e6720746f6b656e000000604082015260600190565b6020808252601d908201527f496e73756666696369656e7420756e6c6f636b65642062616c616e6365000000604082015260600190565b6020808252601d908201527f416464726573733a2063616c6c20746f206e6f6e2d636f6e7472616374000000604082015260600190565b6020808252602a908201527f5361666545524332303a204552433230206f7065726174696f6e20646964206e6040820152691bdd081cdd58d8d9595960b21b606082015260800190565b90815260200190565b60006040808301858452602082818601528186518084526060870191508288019350855b818110156116925784518051845284015184840152938301939185019160010161166d565b509098975050505050505050565b9182521515602082015260400190565b918252602082015260400190565b9283526020830191909152604082015260600190565b60405181810167ffffffffffffffff811182821017156116f357600080fd5b604052919050565b600067ffffffffffffffff821115611711578081fd5b5060209081020190565b60005b8381101561173657818101518382015260200161171e565b83811115611745576000848401525b50505050565b80151581146110c257600080fdfea26469706673582212202277498807c51b85587159cf5252e35a88ad627af58e4933672a4298ca8d1b3c64736f6c634300060c0033",
  "devdoc": {
    "kind": "dev",
    "methods": {
      "owner()": {
        "details": "Returns the address of the current owner."
      },
      "renounceOwnership()": {
        "details": "Leaves the contract without owner. It will not be possible to call `onlyOwner` functions anymore. Can only be called by the current owner. NOTE: Renouncing ownership will leave the contract without an owner, thereby removing any functionality that is only available to the owner."
      },
      "transferOwnership(address)": {
        "details": "Transfers ownership of the contract to a new account (`newOwner`). Can only be called by the current owner."
      }
    },
    "version": 1
  },
  "userdoc": {
    "kind": "user",
    "methods": {},
    "version": 1
  },
  "storageLayout": {
    "storage": [
      {
        "astId": 7,
        "contract": "contracts/staking/MultiFeeDistribution.sol:MultiFeeDistribution",
        "label": "_owner",
        "offset": 0,
        "slot": "0",
        "type": "t_address"
      },
      {
        "astId": 13908,
        "contract": "contracts/staking/MultiFeeDistribution.sol:MultiFeeDistribution",
        "label": "penaltyReceiver",
        "offset": 0,
        "slot": "1",
        "type": "t_address"
      },
      {
        "astId": 13922,
        "contract": "contracts/staking/MultiFeeDistribution.sol:MultiFeeDistribution",
        "label": "minters",
        "offset": 0,
        "slot": "2",
        "type": "t_mapping(t_address,t_bool)"
      },
      {
        "astId": 13924,
        "contract": "contracts/staking/MultiFeeDistribution.sol:MultiFeeDistribution",
        "label": "mintersAreSet",
        "offset": 0,
        "slot": "3",
        "type": "t_bool"
      },
      {
        "astId": 13926,
        "contract": "contracts/staking/MultiFeeDistribution.sol:MultiFeeDistribution",
        "label": "totalSupply",
        "offset": 0,
        "slot": "4",
        "type": "t_uint256"
      },
      {
        "astId": 13930,
        "contract": "contracts/staking/MultiFeeDistribution.sol:MultiFeeDistribution",
        "label": "balances",
        "offset": 0,
        "slot": "5",
        "type": "t_mapping(t_address,t_struct(Balances)13899_storage)"
      },
      {
        "astId": 13935,
        "contract": "contracts/staking/MultiFeeDistribution.sol:MultiFeeDistribution",
        "label": "userEarnings",
        "offset": 0,
        "slot": "6",
        "type": "t_mapping(t_address,t_array(t_struct(LockedBalance)13904_storage)dyn_storage)"
      }
    ],
    "types": {
      "t_address": {
        "encoding": "inplace",
        "label": "address",
        "numberOfBytes": "20"
      },
      "t_array(t_struct(LockedBalance)13904_storage)dyn_storage": {
        "base": "t_struct(LockedBalance)13904_storage",
        "encoding": "dynamic_array",
        "label": "struct MultiFeeDistribution.LockedBalance[]",
        "numberOfBytes": "32"
      },
      "t_bool": {
        "encoding": "inplace",
        "label": "bool",
        "numberOfBytes": "1"
      },
      "t_mapping(t_address,t_array(t_struct(LockedBalance)13904_storage)dyn_storage)": {
        "encoding": "mapping",
        "key": "t_address",
        "label": "mapping(address => struct MultiFeeDistribution.LockedBalance[])",
        "numberOfBytes": "32",
        "value": "t_array(t_struct(LockedBalance)13904_storage)dyn_storage"
      },
      "t_mapping(t_address,t_bool)": {
        "encoding": "mapping",
        "key": "t_address",
        "label": "mapping(address => bool)",
        "numberOfBytes": "32",
        "value": "t_bool"
      },
      "t_mapping(t_address,t_struct(Balances)13899_storage)": {
        "encoding": "mapping",
        "key": "t_address",
        "label": "mapping(address => struct MultiFeeDistribution.Balances)",
        "numberOfBytes": "32",
        "value": "t_struct(Balances)13899_storage"
      },
      "t_struct(Balances)13899_storage": {
        "encoding": "inplace",
        "label": "struct MultiFeeDistribution.Balances",
        "members": [
          {
            "astId": 13894,
            "contract": "contracts/staking/MultiFeeDistribution.sol:MultiFeeDistribution",
            "label": "total",
            "offset": 0,
            "slot": "0",
            "type": "t_uint256"
          },
          {
            "astId": 13896,
            "contract": "contracts/staking/MultiFeeDistribution.sol:MultiFeeDistribution",
            "label": "unlocked",
            "offset": 0,
            "slot": "1",
            "type": "t_uint256"
          },
          {
            "astId": 13898,
            "contract": "contracts/staking/MultiFeeDistribution.sol:MultiFeeDistribution",
            "label": "earned",
            "offset": 0,
            "slot": "2",
            "type": "t_uint256"
          }
        ],
        "numberOfBytes": "96"
      },
      "t_struct(LockedBalance)13904_storage": {
        "encoding": "inplace",
        "label": "struct MultiFeeDistribution.LockedBalance",
        "members": [
          {
            "astId": 13901,
            "contract": "contracts/staking/MultiFeeDistribution.sol:MultiFeeDistribution",
            "label": "amount",
            "offset": 0,
            "slot": "0",
            "type": "t_uint256"
          },
          {
            "astId": 13903,
            "contract": "contracts/staking/MultiFeeDistribution.sol:MultiFeeDistribution",
            "label": "unlockTime",
            "offset": 0,
            "slot": "1",
            "type": "t_uint256"
          }
        ],
        "numberOfBytes": "64"
      },
      "t_uint256": {
        "encoding": "inplace",
        "label": "uint256",
        "numberOfBytes": "32"
      }
    }
  }
}