{
  "address": "0x6456d6f7B224283f8B22F03347B58D8B6d975677",
  "abi": [
    {
      "inputs": [
        {
          "internalType": "address",
          "name": "_stakingToken",
          "type": "address"
        },
        {
          "internalType": "address",
          "name": "_penaltyReceiver",
          "type": "address"
        }
      ],
      "stateMutability": "nonpayable",
      "type": "constructor"
    },
    {
      "anonymous": false,
      "inputs": [
        {
          "indexed": true,
          "internalType": "address",
          "name": "user",
          "type": "address"
        },
        {
          "indexed": false,
          "internalType": "uint256",
          "name": "amount",
          "type": "uint256"
        },
        {
          "indexed": false,
          "internalType": "bool",
          "name": "withPenalty",
          "type": "bool"
        }
      ],
      "name": "Mint",
      "type": "event"
    },
    {
      "anonymous": false,
      "inputs": [
        {
          "indexed": true,
          "internalType": "address",
          "name": "previousOwner",
          "type": "address"
        },
        {
          "indexed": true,
          "internalType": "address",
          "name": "newOwner",
          "type": "address"
        }
      ],
      "name": "OwnershipTransferred",
      "type": "event"
    },
    {
      "anonymous": false,
      "inputs": [
        {
          "indexed": false,
          "internalType": "address",
          "name": "token",
          "type": "address"
        },
        {
          "indexed": false,
          "internalType": "uint256",
          "name": "amount",
          "type": "uint256"
        }
      ],
      "name": "Recovered",
      "type": "event"
    },
    {
      "anonymous": false,
      "inputs": [
        {
          "indexed": true,
          "internalType": "address",
          "name": "user",
          "type": "address"
        },
        {
          "indexed": false,
          "internalType": "uint256",
          "name": "receivedAmount",
          "type": "uint256"
        },
        {
          "indexed": false,
          "internalType": "uint256",
          "name": "penaltyPaid",
          "type": "uint256"
        }
      ],
      "name": "Withdrawn",
      "type": "event"
    },
    {
      "inputs": [],
      "name": "WEEK",
      "outputs": [
        {
          "internalType": "uint256",
          "name": "",
          "type": "uint256"
        }
      ],
      "stateMutability": "view",
      "type": "function"
    },
    {
      "inputs": [
        {
          "internalType": "address",
          "name": "user",
          "type": "address"
        }
      ],
      "name": "earnedBalances",
      "outputs": [
        {
          "internalType": "uint256",
          "name": "total",
          "type": "uint256"
        },
        {
          "components": [
            {
              "internalType": "uint256",
              "name": "amount",
              "type": "uint256"
            },
            {
              "internalType": "uint256",
              "name": "unlockTime",
              "type": "uint256"
            }
          ],
          "internalType": "struct MultiFeeDistribution.LockedBalance[]",
          "name": "earningsData",
          "type": "tuple[]"
        },
        {
          "internalType": "uint256[]",
          "name": "index",
          "type": "uint256[]"
        }
      ],
      "stateMutability": "view",
      "type": "function"
    },
    {
      "inputs": [],
      "name": "lockDuration",
      "outputs": [
        {
          "internalType": "uint256",
          "name": "",
          "type": "uint256"
        }
      ],
      "stateMutability": "view",
      "type": "function"
    },
    {
      "inputs": [
        {
          "internalType": "address",
          "name": "user",
          "type": "address"
        },
        {
          "internalType": "uint256",
          "name": "amount",
          "type": "uint256"
        },
        {
          "internalType": "bool",
          "name": "withPenalty",
          "type": "bool"
        }
      ],
      "name": "mint",
      "outputs": [],
      "stateMutability": "nonpayable",
      "type": "function"
    },
    {
      "inputs": [
        {
          "internalType": "address",
          "name": "",
          "type": "address"
        }
      ],
      "name": "minters",
      "outputs": [
        {
          "internalType": "bool",
          "name": "",
          "type": "bool"
        }
      ],
      "stateMutability": "view",
      "type": "function"
    },
    {
      "inputs": [],
      "name": "mintersAreSet",
      "outputs": [
        {
          "internalType": "bool",
          "name": "",
          "type": "bool"
        }
      ],
      "stateMutability": "view",
      "type": "function"
    },
    {
      "inputs": [],
      "name": "owner",
      "outputs": [
        {
          "internalType": "address",
          "name": "",
          "type": "address"
        }
      ],
      "stateMutability": "view",
      "type": "function"
    },
    {
      "inputs": [],
      "name": "penaltyReceiver",
      "outputs": [
        {
          "internalType": "address",
          "name": "",
          "type": "address"
        }
      ],
      "stateMutability": "view",
      "type": "function"
    },
    {
      "inputs": [
        {
          "internalType": "address",
          "name": "tokenAddress",
          "type": "address"
        },
        {
          "internalType": "uint256",
          "name": "tokenAmount",
          "type": "uint256"
        }
      ],
      "name": "recoverERC20",
      "outputs": [],
      "stateMutability": "nonpayable",
      "type": "function"
    },
    {
      "inputs": [],
      "name": "renounceOwnership",
      "outputs": [],
      "stateMutability": "nonpayable",
      "type": "function"
    },
    {
      "inputs": [
        {
          "internalType": "address[]",
          "name": "_minters",
          "type": "address[]"
        }
      ],
      "name": "setMinters",
      "outputs": [],
      "stateMutability": "nonpayable",
      "type": "function"
    },
    {
      "inputs": [],
      "name": "stakingToken",
      "outputs": [
        {
          "internalType": "contract IMintableToken",
          "name": "",
          "type": "address"
        }
      ],
      "stateMutability": "view",
      "type": "function"
    },
    {
      "inputs": [
        {
          "internalType": "address",
          "name": "user",
          "type": "address"
        }
      ],
      "name": "totalBalance",
      "outputs": [
        {
          "internalType": "uint256",
          "name": "amount",
          "type": "uint256"
        }
      ],
      "stateMutability": "view",
      "type": "function"
    },
    {
      "inputs": [],
      "name": "totalSupply",
      "outputs": [
        {
          "internalType": "uint256",
          "name": "",
          "type": "uint256"
        }
      ],
      "stateMutability": "view",
      "type": "function"
    },
    {
      "inputs": [
        {
          "internalType": "address",
          "name": "newOwner",
          "type": "address"
        }
      ],
      "name": "transferOwnership",
      "outputs": [],
      "stateMutability": "nonpayable",
      "type": "function"
    },
    {
      "inputs": [
        {
          "internalType": "uint256",
          "name": "amount",
          "type": "uint256"
        }
      ],
      "name": "withdraw",
      "outputs": [],
      "stateMutability": "nonpayable",
      "type": "function"
    },
    {
      "inputs": [
        {
          "internalType": "uint256",
          "name": "index",
          "type": "uint256"
        }
      ],
      "name": "withdrawByIndex",
      "outputs": [],
      "stateMutability": "nonpayable",
      "type": "function"
    },
    {
      "inputs": [
        {
          "internalType": "address",
          "name": "user",
          "type": "address"
        }
      ],
      "name": "withdrawableBalance",
      "outputs": [
        {
          "internalType": "uint256",
          "name": "amount",
          "type": "uint256"
        },
        {
          "internalType": "uint256",
          "name": "amountWithoutPenalty",
          "type": "uint256"
        },
        {
          "internalType": "uint256",
          "name": "penaltyAmount",
          "type": "uint256"
        }
      ],
      "stateMutability": "view",
      "type": "function"
    }
  ],
  "transactionHash": "0x10a31fa41d830bd740129ba563b6b9e7353ea9aee0a3e5b2dc42a0f0db50bbf8",
  "args": [
    "0x7cBa32163a8f4c56C846f5C3685E3b7a450c9002",
    "0xd41223b4Ed7e68275D3C567c237217Fbb2575568"
  ],
  "solcInputHash": "0deb08c2b741eef27e42617bbe422fe5",
  "bytecode": "0x60a06040523480156200001157600080fd5b5060405162001c6538038062001c658339810160408190526200003491620000c6565b600062000040620000c2565b600080546001600160a01b0319166001600160a01b0383169081178255604051929350917f8be0079c531659141344cd1fd0a4f28419497f9722a3daafe3b4186f6b6457e0908290a35060609190911b6001600160601b031916608052600180546001600160a01b0319166001600160a01b039092169190911790556200011d565b3390565b60008060408385031215620000d9578182fd5b8251620000e68162000104565b6020840151909250620000f98162000104565b809150509250929050565b6001600160a01b03811681146200011a57600080fd5b50565b60805160601c611b0c620001596000398061061652806106545280610824528061088752806109c15280610f385280610f765250611b0c6000f3fe608060405234801561001057600080fd5b50600436106101165760003560e01c80638da5cb5b116100a2578063e1b7fd4211610071578063e1b7fd4214610220578063e206e94214610228578063f2fde38b1461023b578063f4359ce51461024e578063f46eccc41461025657610116565b80638da5cb5b146101ce5780638fd9f2ca146101d6578063d1a1beb4146101eb578063df379876146101fe57610116565b8063547d0096116100e9578063547d0096146101785780636eacd3981461018b578063715018a61461019e57806372f702f3146101a65780638980f11f146101bb57610116565b806302b629381461011b578063045544431461014657806318160ddd1461015b5780632e1a7d4d14610163575b600080fd5b61012e6101293660046113fd565b610269565b60405161013d93929190611a3b565b60405180910390f35b61014e61039b565b60405161013d919061197b565b61014e6103a2565b610176610171366004611547565b6103a8565b005b61017661018636600461148e565b6106c6565b61014e6101993660046113fd565b61077e565b610176610799565b6101ae610822565b60405161013d9190611597565b6101766101c9366004611418565b610846565b6101ae610930565b6101de61093f565b60405161013d91906115c4565b6101766101f9366004611442565b610948565b61021161020c3660046113fd565b610c29565b60405161013d93929190611984565b6101ae610dff565b610176610236366004611547565b610e0e565b6101766102493660046113fd565b610fe9565b61014e6110a9565b6101de6102643660046113fd565b6110b0565b6001600160a01b0381166000908152600560205260408120600281015482918291801561036f576001600160a01b038616600090815260066020526040812054905b81811015610355576001600160a01b03881660009081526006602052604081208054839081106102d757fe5b906000526020600020906002020160000154905080600014156102fa575061034d565b6001600160a01b038916600090815260066020526040902080544291908490811061032157fe5b906000526020600020906002020160010154111561033f5750610355565b61034987826110c5565b9650505b6001016102ab565b5061036b600261036584886110f3565b9061111b565b9350505b6103908361038a8385600101546110c590919063ffffffff16565b906110f3565b945050509193909250565b6224ea0081565b60045481565b600081116103d15760405162461bcd60e51b81526004016103c8906117cd565b60405180910390fd5b336000908152600560205260408120600181015490919083116104075760018201546103fd90846110f3565b60018301556105dc565b60006104208360010154856110f390919063ffffffff16565b905080836002015410156104465760405162461bcd60e51b81526004016103c8906118c3565b60006001840155600283015461045c90826110f3565b600284015560005b33600090815260066020526040812080548390811061047f57fe5b906000526020600020906002020160000154905080600014156104a257506105d1565b831580156104dd57503360009081526006602052604090208054429190849081106104c957fe5b906000526020600020906002020160010154115b1561054f5782935082856002015410156105095760405162461bcd60e51b81526004016103c8906116d7565b600285015461051890846110f3565b600286018190556105415733600090815260066020526040812061053b91611389565b506105d9565b61054c83600261114d565b92505b8083116105925761056081846110f3565b33600090815260066020526040902080548490811061057b57fe5b6000918252602090912060029091020155506105d9565b3360009081526006602052604090208054839081106105ad57fe5b600091825260208220600290910201818155600101556105cd83826110f3565b9250505b600101610464565b50505b60006105e884836110c5565b83549091506105f790826110f3565b835560045461060690826110f3565b60045561063d6001600160a01b037f0000000000000000000000000000000000000000000000000000000000000000163386611187565b811561067d5760015461067d906001600160a01b037f00000000000000000000000000000000000000000000000000000000000000008116911684611187565b336001600160a01b03167f92ccf450a286a957af52509bc1c9939d1a6a481783e142e41e2499f0bb66ebc685846040516106b8929190611a2d565b60405180910390a250505050565b6106ce6111dd565b6001600160a01b03166106df610930565b6001600160a01b0316146107055760405162461bcd60e51b81526004016103c890611839565b60035460ff161561071557600080fd5b60005b815181101561076d5760016002600084848151811061073357fe5b6020908102919091018101516001600160a01b03168252810191909152604001600020805460ff1916911515919091179055600101610718565b50506003805460ff19166001179055565b6001600160a01b031660009081526005602052604090205490565b6107a16111dd565b6001600160a01b03166107b2610930565b6001600160a01b0316146107d85760405162461bcd60e51b81526004016103c890611839565b600080546040516001600160a01b03909116907f8be0079c531659141344cd1fd0a4f28419497f9722a3daafe3b4186f6b6457e0908390a3600080546001600160a01b0319169055565b7f000000000000000000000000000000000000000000000000000000000000000081565b61084e6111dd565b6001600160a01b031661085f610930565b6001600160a01b0316146108855760405162461bcd60e51b81526004016103c890611839565b7f00000000000000000000000000000000000000000000000000000000000000006001600160a01b0316826001600160a01b031614156108d75760405162461bcd60e51b81526004016103c89061188c565b6108f36108e2610930565b6001600160a01b0384169083611187565b7f8c1256b8896378cd5044f80c202f9772b9d77dc85c8a6eb51967210b09bfaa2882826040516109249291906115ab565b60405180910390a15050565b6000546001600160a01b031690565b60035460ff1681565b3360009081526002602052604090205460ff166109775760405162461bcd60e51b81526004016103c890611602565b6001600160a01b0383163014156109a05760405162461bcd60e51b81526004016103c89061186e565b816109aa57610c24565b6040516340c10f1960e01b81526001600160a01b037f000000000000000000000000000000000000000000000000000000000000000016906340c10f19906109f890309086906004016115ab565b600060405180830381600087803b158015610a1257600080fd5b505af1158015610a26573d6000803e3d6000fd5b5050600454610a3892509050836110c5565b6004556001600160a01b03831660009081526005602052604090208054610a5f90846110c5565b81558115610bd4576002810154610a7690846110c5565b60028201556000610aa16224ea00610a9b62093a80610a95428261111b565b9061114d565b906110c5565b6001600160a01b0386166000908152600660205260409020805491925090801580610b1657506000826001830381548110610ad857fe5b906000526020600020906002020160010154118015610b16575082826001830381548110610b0257fe5b906000526020600020906002020160010154105b15610b58576040805180820190915286815260208082018581528454600181810187556000878152939093209351600290910290930192835551910155610bcc565b610b8286836001840381548110610b6b57fe5b6000918252602090912060029091020154906110c5565b826001830381548110610b9157fe5b90600052602060002090600202016000018190555082826001830381548110610bb657fe5b9060005260206000209060020201600101819055505b505050610be9565b6001810154610be390846110c5565b60018201555b836001600160a01b03167ff9288aa3c16d157f87dbf24b824f702d4c76887d38e8fd6ef8212ad19a712aee84846040516106b8929190611a1d565b505050565b6001600160a01b0381166000908152600660205260408120606090819083805b8254811015610c865742838281548110610c5f57fe5b9060005260206000209060020201600101541115610c7e576001909101905b600101610c49565b508067ffffffffffffffff81118015610c9e57600080fd5b50604051908082528060200260200182016040528015610cd857816020015b610cc56113ad565b815260200190600190039081610cbd5790505b5093508067ffffffffffffffff81118015610cf257600080fd5b50604051908082528060200260200182016040528015610d1c578160200160208202803683370190505b5092506000805b8354811015610df45742848281548110610d3957fe5b9060005260206000209060020201600101541115610dec57838181548110610d5d57fe5b906000526020600020906002020160405180604001604052908160008201548152602001600182015481525050868381518110610d9657fe5b602002602001018190525080858381518110610dae57fe5b6020026020010181815250508180600101925050610de9848281548110610dd157fe5b600091825260209091206002909102015488906110c5565b96505b600101610d23565b505050509193909250565b6001546001600160a01b031681565b610e166113ad565b336000908152600660205260409020805483908110610e3157fe5b90600052602060002090600202016040518060400160405290816000820154815260200160018201548152505090506000816000015111610e845760405162461bcd60e51b81526004016103c8906117cd565b42816020015111610ea75760405162461bcd60e51b81526004016103c8906116a0565b8051336000908152600660205260409020805460028304919085908110610eca57fe5b6000918252602080832060029283020183815560010183905533835260059052604090912090810154610efd90846110f3565b60028201558054610f0e90846110f3565b8155600454610f1d90846110f3565b600455610f5f33610f2e85856110f3565b6001600160a01b037f0000000000000000000000000000000000000000000000000000000000000000169190611187565b8115610f9f57600154610f9f906001600160a01b037f00000000000000000000000000000000000000000000000000000000000000008116911684611187565b337f92ccf450a286a957af52509bc1c9939d1a6a481783e142e41e2499f0bb66ebc6610fcb85856110f3565b84604051610fda929190611a2d565b60405180910390a25050505050565b610ff16111dd565b6001600160a01b0316611002610930565b6001600160a01b0316146110285760405162461bcd60e51b81526004016103c890611839565b6001600160a01b03811661104e5760405162461bcd60e51b81526004016103c890611623565b600080546040516001600160a01b03808516939216917f8be0079c531659141344cd1fd0a4f28419497f9722a3daafe3b4186f6b6457e091a3600080546001600160a01b0319166001600160a01b0392909216919091179055565b62093a8081565b60026020526000908152604090205460ff1681565b6000828201838110156110ea5760405162461bcd60e51b81526004016103c890611669565b90505b92915050565b6000828211156111155760405162461bcd60e51b81526004016103c890611719565b50900390565b600080821161113c5760405162461bcd60e51b81526004016103c890611796565b81838161114557fe5b049392505050565b60008261115c575060006110ed565b8282028284828161116957fe5b04146110ea5760405162461bcd60e51b81526004016103c8906117f8565b610c248363a9059cbb60e01b84846040516024016111a69291906115ab565b60408051601f198184030181529190526020810180516001600160e01b03166001600160e01b0319909316929092179091526111e1565b3390565b6060611236826040518060400160405280602081526020017f5361666545524332303a206c6f772d6c6576656c2063616c6c206661696c6564815250856001600160a01b03166112709092919063ffffffff16565b805190915015610c245780806020019051810190611254919061152b565b610c245760405162461bcd60e51b81526004016103c890611931565b606061127f8484600085611289565b90505b9392505050565b6060824710156112ab5760405162461bcd60e51b81526004016103c890611750565b6112b48561134a565b6112d05760405162461bcd60e51b81526004016103c8906118fa565b60006060866001600160a01b031685876040516112ed919061157b565b60006040518083038185875af1925050503d806000811461132a576040519150601f19603f3d011682016040523d82523d6000602084013e61132f565b606091505b509150915061133f828286611350565b979650505050505050565b3b151590565b6060831561135f575081611282565b82511561136f5782518084602001fd5b8160405162461bcd60e51b81526004016103c891906115cf565b50805460008255600202906000526020600020908101906113aa91906113c7565b50565b604051806040016040528060008152602001600081525090565b5b808211156113e257600080825560018201556002016113c8565b5090565b80356001600160a01b03811681146110ed57600080fd5b60006020828403121561140e578081fd5b61128283836113e6565b6000806040838503121561142a578081fd5b61143484846113e6565b946020939093013593505050565b600080600060608486031215611456578081fd5b83356001600160a01b038116811461146c578182fd5b925060208401359150604084013561148381611ac8565b809150509250925092565b600060208083850312156114a0578182fd5b823567ffffffffffffffff8111156114b6578283fd5b8301601f810185136114c6578283fd5b80356114d96114d482611a78565b611a51565b81815283810190838501858402850186018910156114f5578687fd5b8694505b8385101561151f5761150b89826113e6565b8352600194909401939185019185016114f9565b50979650505050505050565b60006020828403121561153c578081fd5b81516110ea81611ac8565b600060208284031215611558578081fd5b5035919050565b805182526020908101519082015260400190565b815260200190565b6000825161158d818460208701611a98565b9190910192915050565b6001600160a01b0391909116815260200190565b6001600160a01b03929092168252602082015260400190565b901515815260200190565b60006020825282518060208401526115ee816040850160208701611a98565b601f01601f19169190910160400192915050565b60208082526007908201526610b6b4b73a32b960c91b604082015260600190565b60208082526026908201527f4f776e61626c653a206e6577206f776e657220697320746865207a65726f206160408201526564647265737360d01b606082015260800190565b6020808252601b908201527f536166654d6174683a206164646974696f6e206f766572666c6f770000000000604082015260600190565b60208082526019908201527f546f6b656e2073686f756c6420626520756e6578706972656400000000000000604082015260600190565b60208082526022908201527f496e73756666696369656e742062616c616e63652061667465722070656e616c604082015261747960f01b606082015260800190565b6020808252601e908201527f536166654d6174683a207375627472616374696f6e206f766572666c6f770000604082015260600190565b60208082526026908201527f416464726573733a20696e73756666696369656e742062616c616e636520666f6040820152651c8818d85b1b60d21b606082015260800190565b6020808252601a908201527f536166654d6174683a206469766973696f6e206279207a65726f000000000000604082015260600190565b602080825260119082015270043616e6e6f74207769746864726177203607c1b604082015260600190565b60208082526021908201527f536166654d6174683a206d756c7469706c69636174696f6e206f766572666c6f6040820152607760f81b606082015260800190565b6020808252818101527f4f776e61626c653a2063616c6c6572206973206e6f7420746865206f776e6572604082015260600190565b60208082526004908201526339b2b63360e11b604082015260600190565b6020808252601d908201527f43616e6e6f74207769746864726177207374616b696e6720746f6b656e000000604082015260600190565b6020808252601d908201527f496e73756666696369656e7420756e6c6f636b65642062616c616e6365000000604082015260600190565b6020808252601d908201527f416464726573733a2063616c6c20746f206e6f6e2d636f6e7472616374000000604082015260600190565b6020808252602a908201527f5361666545524332303a204552433230206f7065726174696f6e20646964206e6040820152691bdd081cdd58d8d9595960b21b606082015260800190565b90815260200190565b60006060820185835260206060818501528186516119a2818561197b565b91508288019350845b818110156119cc576119be83865161155f565b9484019492506001016119ab565b5050848103604086015280925085516119e5818361197b565b93508287019150845b81811015611a0f57611a01858451611573565b9450918301916001016119ee565b509298975050505050505050565b9182521515602082015260400190565b918252602082015260400190565b9283526020830191909152604082015260600190565b60405181810167ffffffffffffffff81118282101715611a7057600080fd5b604052919050565b600067ffffffffffffffff821115611a8e578081fd5b5060209081020190565b60005b83811015611ab3578181015183820152602001611a9b565b83811115611ac2576000848401525b50505050565b80151581146113aa57600080fdfea264697066735822122079083e776953c38312e3a7e004b0b8618aea8daeb4d2e4110c30e8cc5b47b82864736f6c634300060c0033",
  "devdoc": {
    "kind": "dev",
    "methods": {
      "owner()": {
        "details": "Returns the address of the current owner."
      },
      "renounceOwnership()": {
        "details": "Leaves the contract without owner. It will not be possible to call `onlyOwner` functions anymore. Can only be called by the current owner. NOTE: Renouncing ownership will leave the contract without an owner, thereby removing any functionality that is only available to the owner."
      },
      "transferOwnership(address)": {
        "details": "Transfers ownership of the contract to a new account (`newOwner`). Can only be called by the current owner."
      }
    },
    "version": 1
  },
  "userdoc": {
    "kind": "user",
    "methods": {},
    "version": 1
  },
  "storageLayout": {
    "storage": [
      {
        "astId": 7,
        "contract": "contracts/staking/MultiFeeDistribution.sol:MultiFeeDistribution",
        "label": "_owner",
        "offset": 0,
        "slot": "0",
        "type": "t_address"
      },
      {
        "astId": 25191,
        "contract": "contracts/staking/MultiFeeDistribution.sol:MultiFeeDistribution",
        "label": "penaltyReceiver",
        "offset": 0,
        "slot": "1",
        "type": "t_address"
      },
      {
        "astId": 25205,
        "contract": "contracts/staking/MultiFeeDistribution.sol:MultiFeeDistribution",
        "label": "minters",
        "offset": 0,
        "slot": "2",
        "type": "t_mapping(t_address,t_bool)"
      },
      {
        "astId": 25207,
        "contract": "contracts/staking/MultiFeeDistribution.sol:MultiFeeDistribution",
        "label": "mintersAreSet",
        "offset": 0,
        "slot": "3",
        "type": "t_bool"
      },
      {
        "astId": 25209,
        "contract": "contracts/staking/MultiFeeDistribution.sol:MultiFeeDistribution",
        "label": "totalSupply",
        "offset": 0,
        "slot": "4",
        "type": "t_uint256"
      },
      {
        "astId": 25213,
        "contract": "contracts/staking/MultiFeeDistribution.sol:MultiFeeDistribution",
        "label": "balances",
        "offset": 0,
        "slot": "5",
        "type": "t_mapping(t_address,t_struct(Balances)25182_storage)"
      },
      {
        "astId": 25218,
        "contract": "contracts/staking/MultiFeeDistribution.sol:MultiFeeDistribution",
        "label": "userEarnings",
        "offset": 0,
        "slot": "6",
        "type": "t_mapping(t_address,t_array(t_struct(LockedBalance)25187_storage)dyn_storage)"
      }
    ],
    "types": {
      "t_address": {
        "encoding": "inplace",
        "label": "address",
        "numberOfBytes": "20"
      },
      "t_array(t_struct(LockedBalance)25187_storage)dyn_storage": {
        "base": "t_struct(LockedBalance)25187_storage",
        "encoding": "dynamic_array",
        "label": "struct MultiFeeDistribution.LockedBalance[]",
        "numberOfBytes": "32"
      },
      "t_bool": {
        "encoding": "inplace",
        "label": "bool",
        "numberOfBytes": "1"
      },
      "t_mapping(t_address,t_array(t_struct(LockedBalance)25187_storage)dyn_storage)": {
        "encoding": "mapping",
        "key": "t_address",
        "label": "mapping(address => struct MultiFeeDistribution.LockedBalance[])",
        "numberOfBytes": "32",
        "value": "t_array(t_struct(LockedBalance)25187_storage)dyn_storage"
      },
      "t_mapping(t_address,t_bool)": {
        "encoding": "mapping",
        "key": "t_address",
        "label": "mapping(address => bool)",
        "numberOfBytes": "32",
        "value": "t_bool"
      },
      "t_mapping(t_address,t_struct(Balances)25182_storage)": {
        "encoding": "mapping",
        "key": "t_address",
        "label": "mapping(address => struct MultiFeeDistribution.Balances)",
        "numberOfBytes": "32",
        "value": "t_struct(Balances)25182_storage"
      },
      "t_struct(Balances)25182_storage": {
        "encoding": "inplace",
        "label": "struct MultiFeeDistribution.Balances",
        "members": [
          {
            "astId": 25177,
            "contract": "contracts/staking/MultiFeeDistribution.sol:MultiFeeDistribution",
            "label": "total",
            "offset": 0,
            "slot": "0",
            "type": "t_uint256"
          },
          {
            "astId": 25179,
            "contract": "contracts/staking/MultiFeeDistribution.sol:MultiFeeDistribution",
            "label": "unlocked",
            "offset": 0,
            "slot": "1",
            "type": "t_uint256"
          },
          {
            "astId": 25181,
            "contract": "contracts/staking/MultiFeeDistribution.sol:MultiFeeDistribution",
            "label": "earned",
            "offset": 0,
            "slot": "2",
            "type": "t_uint256"
          }
        ],
        "numberOfBytes": "96"
      },
      "t_struct(LockedBalance)25187_storage": {
        "encoding": "inplace",
        "label": "struct MultiFeeDistribution.LockedBalance",
        "members": [
          {
            "astId": 25184,
            "contract": "contracts/staking/MultiFeeDistribution.sol:MultiFeeDistribution",
            "label": "amount",
            "offset": 0,
            "slot": "0",
            "type": "t_uint256"
          },
          {
            "astId": 25186,
            "contract": "contracts/staking/MultiFeeDistribution.sol:MultiFeeDistribution",
            "label": "unlockTime",
            "offset": 0,
            "slot": "1",
            "type": "t_uint256"
          }
        ],
        "numberOfBytes": "64"
      },
      "t_uint256": {
        "encoding": "inplace",
        "label": "uint256",
        "numberOfBytes": "32"
      }
    }
  }
}