{
  "address": "0xAcd14EACA93311cDc7F40e3de8E9DcC9b2F93c6F",
  "abi": [
    {
      "inputs": [
        {
          "internalType": "address",
          "name": "_token",
          "type": "address"
        },
        {
          "internalType": "string",
          "name": "_name",
          "type": "string"
        },
        {
          "internalType": "string",
          "name": "_symbol",
          "type": "string"
        },
        {
          "internalType": "string",
          "name": "_version",
          "type": "string"
        }
      ],
      "stateMutability": "nonpayable",
      "type": "constructor"
    },
    {
      "anonymous": false,
      "inputs": [
        {
          "indexed": true,
          "internalType": "address",
          "name": "provider",
          "type": "address"
        },
        {
          "indexed": true,
          "internalType": "uint256",
          "name": "locktime",
          "type": "uint256"
        },
        {
          "indexed": false,
          "internalType": "uint256",
          "name": "value",
          "type": "uint256"
        },
        {
          "indexed": false,
          "internalType": "uint256",
          "name": "actionType",
          "type": "uint256"
        },
        {
          "indexed": false,
          "internalType": "uint256",
          "name": "ts",
          "type": "uint256"
        }
      ],
      "name": "Deposit",
      "type": "event"
    },
    {
      "anonymous": false,
      "inputs": [
        {
          "indexed": false,
          "internalType": "bytes",
          "name": "error",
          "type": "bytes"
        }
      ],
      "name": "Error",
      "type": "event"
    },
    {
      "anonymous": false,
      "inputs": [
        {
          "indexed": true,
          "internalType": "address",
          "name": "previousOwner",
          "type": "address"
        },
        {
          "indexed": true,
          "internalType": "address",
          "name": "newOwner",
          "type": "address"
        }
      ],
      "name": "OwnershipTransferred",
      "type": "event"
    },
    {
      "anonymous": false,
      "inputs": [
        {
          "indexed": false,
          "internalType": "uint256",
          "name": "prevSupply",
          "type": "uint256"
        },
        {
          "indexed": false,
          "internalType": "uint256",
          "name": "supply",
          "type": "uint256"
        }
      ],
      "name": "Supply",
      "type": "event"
    },
    {
      "anonymous": false,
      "inputs": [
        {
          "indexed": true,
          "internalType": "address",
          "name": "provider",
          "type": "address"
        },
        {
          "indexed": false,
          "internalType": "uint256",
          "name": "value",
          "type": "uint256"
        },
        {
          "indexed": false,
          "internalType": "uint256",
          "name": "ts",
          "type": "uint256"
        }
      ],
      "name": "Withdraw",
      "type": "event"
    },
    {
      "inputs": [],
      "name": "MAXTIME",
      "outputs": [
        {
          "internalType": "uint256",
          "name": "",
          "type": "uint256"
        }
      ],
      "stateMutability": "view",
      "type": "function"
    },
    {
      "inputs": [],
      "name": "MULTIPLIER",
      "outputs": [
        {
          "internalType": "uint256",
          "name": "",
          "type": "uint256"
        }
      ],
      "stateMutability": "view",
      "type": "function"
    },
    {
      "inputs": [],
      "name": "WEEK",
      "outputs": [
        {
          "internalType": "uint256",
          "name": "",
          "type": "uint256"
        }
      ],
      "stateMutability": "view",
      "type": "function"
    },
    {
      "inputs": [
        {
          "internalType": "address",
          "name": "addr",
          "type": "address"
        }
      ],
      "name": "balanceOf",
      "outputs": [
        {
          "internalType": "uint256",
          "name": "",
          "type": "uint256"
        }
      ],
      "stateMutability": "view",
      "type": "function"
    },
    {
      "inputs": [
        {
          "internalType": "address",
          "name": "addr",
          "type": "address"
        },
        {
          "internalType": "uint256",
          "name": "_block",
          "type": "uint256"
        }
      ],
      "name": "balanceOfB",
      "outputs": [
        {
          "internalType": "uint256",
          "name": "",
          "type": "uint256"
        }
      ],
      "stateMutability": "view",
      "type": "function"
    },
    {
      "inputs": [
        {
          "internalType": "address",
          "name": "addr",
          "type": "address"
        },
        {
          "internalType": "uint256",
          "name": "_t",
          "type": "uint256"
        }
      ],
      "name": "balanceOfT",
      "outputs": [
        {
          "internalType": "uint256",
          "name": "",
          "type": "uint256"
        }
      ],
      "stateMutability": "view",
      "type": "function"
    },
    {
      "inputs": [],
      "name": "checkpoint",
      "outputs": [],
      "stateMutability": "nonpayable",
      "type": "function"
    },
    {
      "inputs": [
        {
          "internalType": "uint256",
          "name": "_value",
          "type": "uint256"
        },
        {
          "internalType": "uint256",
          "name": "_unlockTime",
          "type": "uint256"
        }
      ],
      "name": "createLock",
      "outputs": [],
      "stateMutability": "nonpayable",
      "type": "function"
    },
    {
      "inputs": [
        {
          "internalType": "uint256",
          "name": "_value",
          "type": "uint256"
        },
        {
          "internalType": "uint256",
          "name": "_unlockTime",
          "type": "uint256"
        }
      ],
      "name": "createLockWithMc",
      "outputs": [],
      "stateMutability": "nonpayable",
      "type": "function"
    },
    {
      "inputs": [],
      "name": "decimals",
      "outputs": [
        {
          "internalType": "uint8",
          "name": "",
          "type": "uint8"
        }
      ],
      "stateMutability": "view",
      "type": "function"
    },
    {
      "inputs": [
        {
          "internalType": "address",
          "name": "_addr",
          "type": "address"
        },
        {
          "internalType": "uint256",
          "name": "_value",
          "type": "uint256"
        }
      ],
      "name": "depositFor",
      "outputs": [],
      "stateMutability": "nonpayable",
      "type": "function"
    },
    {
      "inputs": [
        {
          "internalType": "address",
          "name": "_addr",
          "type": "address"
        },
        {
          "internalType": "uint256",
          "name": "_value",
          "type": "uint256"
        }
      ],
      "name": "depositForWithMc",
      "outputs": [],
      "stateMutability": "nonpayable",
      "type": "function"
    },
    {
      "inputs": [],
      "name": "emergency",
      "outputs": [
        {
          "internalType": "bool",
          "name": "",
          "type": "bool"
        }
      ],
      "stateMutability": "view",
      "type": "function"
    },
    {
      "inputs": [],
      "name": "emergencyWithdraw",
      "outputs": [],
      "stateMutability": "nonpayable",
      "type": "function"
    },
    {
      "inputs": [],
      "name": "epoch",
      "outputs": [
        {
          "internalType": "uint256",
          "name": "",
          "type": "uint256"
        }
      ],
      "stateMutability": "view",
      "type": "function"
    },
    {
      "inputs": [
        {
          "internalType": "address",
          "name": "addr",
          "type": "address"
        }
      ],
      "name": "getLastUserSlope",
      "outputs": [
        {
          "internalType": "int128",
          "name": "",
          "type": "int128"
        }
      ],
      "stateMutability": "view",
      "type": "function"
    },
    {
      "inputs": [
        {
          "internalType": "uint256",
          "name": "_value",
          "type": "uint256"
        }
      ],
      "name": "increaseAmount",
      "outputs": [],
      "stateMutability": "nonpayable",
      "type": "function"
    },
    {
      "inputs": [
        {
          "internalType": "uint256",
          "name": "_value",
          "type": "uint256"
        }
      ],
      "name": "increaseAmountWithMc",
      "outputs": [],
      "stateMutability": "nonpayable",
      "type": "function"
    },
    {
      "inputs": [
        {
          "internalType": "uint256",
          "name": "_unlockTime",
          "type": "uint256"
        }
      ],
      "name": "increaseUnlockTime",
      "outputs": [],
      "stateMutability": "nonpayable",
      "type": "function"
    },
    {
      "inputs": [
        {
          "internalType": "uint256",
          "name": "_unlockTime",
          "type": "uint256"
        }
      ],
      "name": "increaseUnlockTimeWithMc",
      "outputs": [],
      "stateMutability": "nonpayable",
      "type": "function"
    },
    {
      "inputs": [
        {
          "internalType": "address",
          "name": "",
          "type": "address"
        }
      ],
      "name": "locked",
      "outputs": [
        {
          "internalType": "int128",
          "name": "amount",
          "type": "int128"
        },
        {
          "internalType": "uint256",
          "name": "end",
          "type": "uint256"
        }
      ],
      "stateMutability": "view",
      "type": "function"
    },
    {
      "inputs": [
        {
          "internalType": "address",
          "name": "_addr",
          "type": "address"
        }
      ],
      "name": "lockedEnd",
      "outputs": [
        {
          "internalType": "uint256",
          "name": "",
          "type": "uint256"
        }
      ],
      "stateMutability": "view",
      "type": "function"
    },
    {
      "inputs": [],
      "name": "masterchef",
      "outputs": [
        {
          "internalType": "contract IMasterChef",
          "name": "",
          "type": "address"
        }
      ],
      "stateMutability": "view",
      "type": "function"
    },
    {
      "inputs": [],
      "name": "name",
      "outputs": [
        {
          "internalType": "string",
          "name": "",
          "type": "string"
        }
      ],
      "stateMutability": "view",
      "type": "function"
    },
    {
      "inputs": [],
      "name": "owner",
      "outputs": [
        {
          "internalType": "address",
          "name": "",
          "type": "address"
        }
      ],
      "stateMutability": "view",
      "type": "function"
    },
    {
      "inputs": [
        {
          "internalType": "uint256",
          "name": "",
          "type": "uint256"
        }
      ],
      "name": "pointHistory",
      "outputs": [
        {
          "internalType": "int128",
          "name": "bias",
          "type": "int128"
        },
        {
          "internalType": "int128",
          "name": "slope",
          "type": "int128"
        },
        {
          "internalType": "uint256",
          "name": "ts",
          "type": "uint256"
        },
        {
          "internalType": "uint256",
          "name": "blk",
          "type": "uint256"
        }
      ],
      "stateMutability": "view",
      "type": "function"
    },
    {
      "inputs": [],
      "name": "renounceOwnership",
      "outputs": [],
      "stateMutability": "nonpayable",
      "type": "function"
    },
    {
      "inputs": [],
      "name": "rewardPool",
      "outputs": [
        {
          "internalType": "contract IRewardPool",
          "name": "",
          "type": "address"
        }
      ],
      "stateMutability": "view",
      "type": "function"
    },
    {
      "inputs": [],
      "name": "setEmergency",
      "outputs": [],
      "stateMutability": "nonpayable",
      "type": "function"
    },
    {
      "inputs": [
        {
          "internalType": "contract IMasterChef",
          "name": "_masterchef",
          "type": "address"
        }
      ],
      "name": "setMasterchef",
      "outputs": [],
      "stateMutability": "nonpayable",
      "type": "function"
    },
    {
      "inputs": [
        {
          "internalType": "contract IRewardPool",
          "name": "_rewardPool",
          "type": "address"
        }
      ],
      "name": "setRewardPool",
      "outputs": [],
      "stateMutability": "nonpayable",
      "type": "function"
    },
    {
      "inputs": [
        {
          "internalType": "address[]",
          "name": "_users",
          "type": "address[]"
        },
        {
          "internalType": "bool",
          "name": "_flag",
          "type": "bool"
        }
      ],
      "name": "setWhitelist",
      "outputs": [],
      "stateMutability": "nonpayable",
      "type": "function"
    },
    {
      "inputs": [
        {
          "internalType": "uint256",
          "name": "",
          "type": "uint256"
        }
      ],
      "name": "slopeChanges",
      "outputs": [
        {
          "internalType": "int128",
          "name": "",
          "type": "int128"
        }
      ],
      "stateMutability": "view",
      "type": "function"
    },
    {
      "inputs": [],
      "name": "supply",
      "outputs": [
        {
          "internalType": "uint256",
          "name": "",
          "type": "uint256"
        }
      ],
      "stateMutability": "view",
      "type": "function"
    },
    {
      "inputs": [],
      "name": "symbol",
      "outputs": [
        {
          "internalType": "string",
          "name": "",
          "type": "string"
        }
      ],
      "stateMutability": "view",
      "type": "function"
    },
    {
      "inputs": [],
      "name": "token",
      "outputs": [
        {
          "internalType": "address",
          "name": "",
          "type": "address"
        }
      ],
      "stateMutability": "view",
      "type": "function"
    },
    {
      "inputs": [],
      "name": "totalSupply",
      "outputs": [
        {
          "internalType": "uint256",
          "name": "",
          "type": "uint256"
        }
      ],
      "stateMutability": "view",
      "type": "function"
    },
    {
      "inputs": [
        {
          "internalType": "uint256",
          "name": "_block",
          "type": "uint256"
        }
      ],
      "name": "totalSupplyB",
      "outputs": [
        {
          "internalType": "uint256",
          "name": "",
          "type": "uint256"
        }
      ],
      "stateMutability": "view",
      "type": "function"
    },
    {
      "inputs": [
        {
          "internalType": "uint256",
          "name": "t",
          "type": "uint256"
        }
      ],
      "name": "totalSupplyT",
      "outputs": [
        {
          "internalType": "uint256",
          "name": "",
          "type": "uint256"
        }
      ],
      "stateMutability": "view",
      "type": "function"
    },
    {
      "inputs": [
        {
          "internalType": "address",
          "name": "newOwner",
          "type": "address"
        }
      ],
      "name": "transferOwnership",
      "outputs": [],
      "stateMutability": "nonpayable",
      "type": "function"
    },
    {
      "inputs": [
        {
          "internalType": "address",
          "name": "",
          "type": "address"
        }
      ],
      "name": "userPointEpoch",
      "outputs": [
        {
          "internalType": "uint256",
          "name": "",
          "type": "uint256"
        }
      ],
      "stateMutability": "view",
      "type": "function"
    },
    {
      "inputs": [
        {
          "internalType": "address",
          "name": "",
          "type": "address"
        },
        {
          "internalType": "uint256",
          "name": "",
          "type": "uint256"
        }
      ],
      "name": "userPointHistory",
      "outputs": [
        {
          "internalType": "int128",
          "name": "bias",
          "type": "int128"
        },
        {
          "internalType": "int128",
          "name": "slope",
          "type": "int128"
        },
        {
          "internalType": "uint256",
          "name": "ts",
          "type": "uint256"
        },
        {
          "internalType": "uint256",
          "name": "blk",
          "type": "uint256"
        }
      ],
      "stateMutability": "view",
      "type": "function"
    },
    {
      "inputs": [
        {
          "internalType": "address",
          "name": "_addr",
          "type": "address"
        },
        {
          "internalType": "uint256",
          "name": "_idx",
          "type": "uint256"
        }
      ],
      "name": "userPointHistoryTs",
      "outputs": [
        {
          "internalType": "uint256",
          "name": "",
          "type": "uint256"
        }
      ],
      "stateMutability": "view",
      "type": "function"
    },
    {
      "inputs": [],
      "name": "version",
      "outputs": [
        {
          "internalType": "string",
          "name": "",
          "type": "string"
        }
      ],
      "stateMutability": "view",
      "type": "function"
    },
    {
      "inputs": [
        {
          "internalType": "address",
          "name": "",
          "type": "address"
        }
      ],
      "name": "whitelist",
      "outputs": [
        {
          "internalType": "bool",
          "name": "",
          "type": "bool"
        }
      ],
      "stateMutability": "view",
      "type": "function"
    },
    {
      "inputs": [],
      "name": "withdraw",
      "outputs": [],
      "stateMutability": "nonpayable",
      "type": "function"
    },
    {
      "inputs": [],
      "name": "withdrawWithMc",
      "outputs": [],
      "stateMutability": "nonpayable",
      "type": "function"
    }
  ],
  "transactionHash": "0x0889a73c4764bfa28e012e1dd0fdfa902b65f42f29c84289e5269f360d623372",
  "args": [
    "0x7cBa32163a8f4c56C846f5C3685E3b7a450c9002",
    "Vote Escrowed EMO",
    "veEMO",
    "veEMO_1.0.0"
  ],
  "solcInputHash": "66f205bfa862774cb4114652e32fcabd",
  "bytecode": "0x60a06040523480156200001157600080fd5b5060405162003729380380620037298339810160408190526200003491620002e1565b6000620000406200019a565b600080546001600160a01b0319166001600160a01b0383169081178255604051929350917f8be0079c531659141344cd1fd0a4f28419497f9722a3daafe3b4186f6b6457e0908290a35060018055600580546001600160a01b0319166001600160a01b03861690811790915543600e5542600d556040805163313ce56760e01b8152905163313ce56791600480820192602092909190829003018186803b158015620000eb57600080fd5b505afa15801562000100573d6000803e3d6000fd5b505050506040513d601f19601f820116820180604052508101906200012691906200038e565b60f81b7fff00000000000000000000000000000000000000000000000000000000000000166080528251620001639060029060208601906200019e565b508151620001799060039060208501906200019e565b5080516200018f9060049060208401906200019e565b5050505050620003b8565b3390565b828054600181600116156101000203166002900490600052602060002090601f016020900481019282601f10620001e157805160ff191683800117855562000211565b8280016001018555821562000211579182015b8281111562000211578251825591602001919060010190620001f4565b506200021f92915062000223565b5090565b5b808211156200021f576000815560010162000224565b600082601f8301126200024b578081fd5b81516001600160401b038082111562000262578283fd5b6040516020601f8401601f191682018101838111838210171562000284578586fd5b80604052508194508382528681858801011115620002a157600080fd5b600092505b83831015620002c55785830181015182840182015291820191620002a6565b83831115620002d75760008185840101525b5050505092915050565b60008060008060808587031215620002f7578384fd5b84516001600160a01b03811681146200030e578485fd5b60208601519094506001600160401b03808211156200032b578485fd5b62000339888389016200023a565b945060408701519150808211156200034f578384fd5b6200035d888389016200023a565b9350606087015191508082111562000373578283fd5b5062000382878288016200023a565b91505092959194509250565b600060208284031215620003a0578081fd5b815160ff81168114620003b1578182fd5b9392505050565b60805160f81c613353620003d66000398061092852506133536000f3fe608060405234801561001057600080fd5b50600436106102955760003560e01c8063900cf0cf11610167578063caa6fea4116100ce578063f2fde38b11610087578063f2fde38b14610549578063f3a6d6081461055c578063f4359ce51461057c578063f52a36f714610584578063fb1db27814610597578063fc0c546a1461059f57610295565b8063caa6fea4146104ea578063cbf9fe5f146104f2578063db2e21bc14610513578063dd8683221461051b578063eac6a6671461052e578063ee00ef3a1461054157610295565b8063b2ae5afd11610120578063b2ae5afd14610483578063b52c05fe14610496578063bdc36ac9146104a9578063bee3bd49146104bc578063c2c4c5c1146104cf578063c8abf395146104d757610295565b8063900cf0cf1461041a578063933baa861461042257806395d89b41146104355780639b19251a1461043d578063a625c6ac1461045d578063a7095e811461047057610295565b80634deafcae1161020b5780637805e700116101c45780637805e700146103be57806378238c37146103c65780637c616fe6146103d957806381fc83bb146103ec5780638ad4c447146103ff5780638da5cb5b1461041257610295565b80634deafcae1461036b57806354fd4d501461037e57806358afefcc1461038657806366666aa91461038e57806370a08231146103a3578063715018a6146103b657610295565b806318160ddd1161025d57806318160ddd146102fd5780632f4f21e214610305578063313ce5671461031857806334d901a41461032d5780633c271a05146103505780633ccfd60b1461036357610295565b8063047fc9aa1461029a578063059f8b16146102b857806306fdde03146102c057806309e1c897146102d557806315456eba146102ea575b600080fd5b6102a26105a7565b6040516102af9190613295565b60405180910390f35b6102a26105ad565b6102c86105b9565b6040516102af9190612cd3565b6102e86102e3366004612aed565b610644565b005b6102e86102f8366004612bf3565b6106b4565b6102a2610811565b6102e8610313366004612aed565b610821565b610320610926565b6040516102af91906132c2565b61034061033b366004612aed565b61094a565b6040516102af9493929190612cf4565b6102e861035e366004612b18565b61099a565b6102e8610a41565b6102a2610379366004612ad1565b610d3e565b6102c8610d5c565b6102e8610db7565b610396610e05565b6040516102af9190612c77565b6102a26103b1366004612ad1565b610e14565b6102e8610e26565b6102e8610eaf565b6102e86103d4366004612ad1565b610f1b565b6102e86103e7366004612bf3565b611024565b6102a26103fa366004612ad1565b6111a9565b61034061040d366004612bf3565b6111c7565b610396611207565b6102a2611216565b6102e8610430366004612ad1565b61121c565b6102c861127d565b61045061044b366004612ad1565b6112d8565b6040516102af9190612cc8565b6102a261046b366004612bf3565b6112f9565b6102e861047e366004612c0b565b611494565b6102a2610491366004612aed565b6114ce565b6102e86104a4366004612c0b565b6117ed565b6102e86104b7366004612bf3565b61196b565b6102a26104ca366004612bf3565b6119d9565b6102e8611a5b565b6102a26104e5366004612aed565b611abe565b610450611ba3565b610505610500366004612ad1565b611bac565b6040516102af929190612d17565b6102e8611bcc565b6102e8610529366004612bf3565b611d85565b6102a261053c366004612aed565b611d8e565b6102a2611dd0565b6102e8610557366004612ad1565b611dd8565b61056f61056a366004612ad1565b611e98565b6040516102af9190612ce6565b6102a2611ef7565b61056f610592366004612bf3565b611efe565b610396611f1f565b610396611f2e565b60075481565b670de0b6b3a764000081565b6002805460408051602060018416156101000260001901909316849004601f8101849004840282018401909252818152929183018282801561063c5780601f106106115761010080835404028352916020019161063c565b820191906000526020600020905b81548152906001019060200180831161061f57829003601f168201915b505050505081565b61064e8282610821565b600854604051637df367b560e11b81526001600160a01b039091169063fbe6cf6a9061067e908590600401612c77565b600060405180830381600087803b15801561069857600080fd5b505af11580156106ac573d6000803e3d6000fd5b505050505050565b600260015414156106e05760405162461bcd60e51b81526004016106d79061322e565b60405180910390fd5b6002600155600a5460ff16156107085760405162461bcd60e51b81526004016106d790612f31565b333281148061073b57506001600160a01b03811660009081526c03c95a2f0b4856475fe000000f602052604090205460ff165b6107575760405162461bcd60e51b81526004016106d790612d2a565b600082116107775760405162461bcd60e51b81526004016106d790613165565b61077f612a76565b5033600090815260096020908152604080832081518083019092528054600f90810b810b810b808452600190920154938301939093529092910b136107d65760405162461bcd60e51b81526004016106d7906131fe565b428160200151116107f95760405162461bcd60e51b81526004016106d790612da5565b61080833846000846002611f3d565b50506001805550565b600061081c426119d9565b905090565b600260015414156108445760405162461bcd60e51b81526004016106d79061322e565b6002600155600a5460ff161561086c5760405162461bcd60e51b81526004016106d790612f31565b6000811161088c5760405162461bcd60e51b81526004016106d790613165565b610894612a76565b506001600160a01b038216600090815260096020908152604080832081518083019092528054600f90810b810b810b808452600190920154938301939093529092910b136108f45760405162461bcd60e51b81526004016106d7906131fe565b428160200151116109175760405162461bcd60e51b81526004016106d790612da5565b61080883836000846000611f3d565b7f000000000000000000000000000000000000000000000000000000000000000081565b6c03c95a2f0b4856475fe000000c60205281600052604060002081633b9aca00811061097257fe5b6003020180546001820154600290920154600f82810b9550600160801b90920490910b925084565b6109a26121ca565b6001600160a01b03166109b3611207565b6001600160a01b0316146109d95760405162461bcd60e51b81526004016106d7906130b8565b60005b8251811015610a3c57816c03c95a2f0b4856475fe000000f6000858481518110610a0257fe5b6020908102919091018101516001600160a01b03168252810191909152604001600020805460ff19169115159190911790556001016109dc565b505050565b60026001541415610a645760405162461bcd60e51b81526004016106d79061322e565b6002600155600a5460ff1615610a8c5760405162461bcd60e51b81526004016106d790612f31565b610a94612a76565b503360009081526009602090815260409182902082518084019093528054600f90810b810b900b835260010154908201819052421015610ae65760405162461bcd60e51b81526004016106d790613265565b8051600f0b610af3612a76565b5033600081815260096020818152604080842081518083019092528054600f81810b810b810b8452600183018054858701528a8601888152888c529890975294909352875190930b6001600160801b03166001600160801b03199092169190911790915591519055600754610b6881846121ce565b600755610b763383866121f6565b600654604051636da8c6d960e11b81526001600160a01b039091169063db518db290610ba89033908790600401612c8b565b602060405180830381600087803b158015610bc257600080fd5b505af1158015610bd6573d6000803e3d6000fd5b505050506040513d601f19601f82011682018060405250810190610bfa9190612bd7565b610c165760405162461bcd60e51b81526004016106d7906130ed565b60055460405163a9059cbb60e01b81526001600160a01b039091169063a9059cbb90610c489033908790600401612c8b565b602060405180830381600087803b158015610c6257600080fd5b505af1158015610c76573d6000803e3d6000fd5b505050506040513d601f19601f82011682018060405250810190610c9a9190612bd7565b610cb65760405162461bcd60e51b81526004016106d790613016565b336001600160a01b03167ff279e6a1f5e320cca91135676d9cb6e44ca8a08c0b88342bcdb1144f6511b5688442604051610cf192919061329e565b60405180910390a27f5e2aa66efd74cce82b21852e317e5490d9ecc9e6bb953ae24d90851258cc2f5c81848303604051610d2c92919061329e565b60405180910390a15050600180555050565b6001600160a01b031660009081526009602052604090206001015490565b6004805460408051602060026001851615610100026000190190941693909304601f8101849004840282018401909252818152929183018282801561063c5780601f106106115761010080835404028352916020019161063c565b610dbf6121ca565b6001600160a01b0316610dd0611207565b6001600160a01b031614610df65760405162461bcd60e51b81526004016106d7906130b8565b600a805460ff19166001179055565b6006546001600160a01b031681565b6000610e208242611abe565b92915050565b610e2e6121ca565b6001600160a01b0316610e3f611207565b6001600160a01b031614610e655760405162461bcd60e51b81526004016106d7906130b8565b600080546040516001600160a01b03909116907f8be0079c531659141344cd1fd0a4f28419497f9722a3daafe3b4186f6b6457e0908390a3600080546001600160a01b0319169055565b610eb7610a41565b600854604051637df367b560e11b81526001600160a01b039091169063fbe6cf6a90610ee7903390600401612c77565b600060405180830381600087803b158015610f0157600080fd5b505af1158015610f15573d6000803e3d6000fd5b50505050565b610f236121ca565b6001600160a01b0316610f34611207565b6001600160a01b031614610f5a5760405162461bcd60e51b81526004016106d7906130b8565b6006546001600160a01b031615610f835760405162461bcd60e51b81526004016106d790612de9565b600680546001600160a01b0319166001600160a01b038381169190911790915560055460405163095ea7b360e01b815291169063095ea7b390610fce90849060001990600401612c8b565b602060405180830381600087803b158015610fe857600080fd5b505af1158015610ffc573d6000803e3d6000fd5b505050506040513d601f19601f820116820180604052508101906110209190612bd7565b5050565b600260015414156110475760405162461bcd60e51b81526004016106d79061322e565b6002600155600a5460ff161561106f5760405162461bcd60e51b81526004016106d790612f31565b33328114806110a257506001600160a01b03811660009081526c03c95a2f0b4856475fe000000f602052604090205460ff165b6110be5760405162461bcd60e51b81526004016106d790612d2a565b6110c6612a76565b503360009081526009602090815260409182902082518084019093528054600f90810b810b900b83526001015490820181905262093a80808504029042106111205760405162461bcd60e51b81526004016106d7906131d8565b60008260000151600f0b136111475760405162461bcd60e51b81526004016106d790612feb565b8160200151811161116a5760405162461bcd60e51b81526004016106d790612e57565b630784ce0042018111156111905760405162461bcd60e51b81526004016106d790613081565b61119f33600083856003611f3d565b5050600180555050565b6c03c95a2f0b4856475fe000000d6020526000908152604090205481565b600c81680a18f07d736b90be55601d1b81106111df57fe5b6003020180546001820154600290920154600f82810b9450600160801b90920490910b919084565b6000546001600160a01b031690565b600b5481565b6112246121ca565b6001600160a01b0316611235611207565b6001600160a01b03161461125b5760405162461bcd60e51b81526004016106d7906130b8565b600880546001600160a01b0319166001600160a01b0392909216919091179055565b6003805460408051602060026001851615610100026000190190941693909304601f8101849004840282018401909252818152929183018282801561063c5780601f106106115761010080835404028352916020019161063c565b6c03c95a2f0b4856475fe000000f6020526000908152604090205460ff1681565b60004382111561131b5760405162461bcd60e51b81526004016106d790612f9c565b600b54600061132a84836128a3565b9050611334612a8d565b600c82680a18f07d736b90be55601d1b811061134c57fe5b60408051608081018252600392909202929092018054600f81810b810b810b8452600160801b909104810b810b900b60208301526001810154928201929092526002909101546060820152905060008383101561144e576113ab612a8d565b600c84600101680a18f07d736b90be55601d1b81106113c657fe5b60408051608081018252600392909202929092018054600f81810b810b810b8452600160801b909104810b810b900b6020830152600181015492820192909252600290910154606080830182905285015191925014611448578260600151816060015103836040015182604001510384606001518903028161144457fe5b0491505b5061147a565b4382606001511461147a57816060015143038260400151420383606001518803028161147657fe5b0490505b61148a828284604001510161290f565b9695505050505050565b61149e82826117ed565b600854604051637df367b560e11b81526001600160a01b039091169063fbe6cf6a9061067e903390600401612c77565b6000438211156114f05760405162461bcd60e51b81526004016106d790612f9c565b6001600160a01b03831660009081526c03c95a2f0b4856475fe000000d6020526040812054815b608081101561158f5781831061152c5761158f565b6001600160a01b03861660009081526c03c95a2f0b4856475fe000000c6020526040902060028385016001010490869082633b9aca00811061156a57fe5b60030201600201541161157f57809350611586565b6001810392505b50600101611517565b50611598612a8d565b6001600160a01b03861660009081526c03c95a2f0b4856475fe000000c6020526040902083633b9aca0081106115ca57fe5b60408051608081018252600392909202929092018054600f81810b810b810b8452600160801b909104810b810b900b60208301526001810154928201929092526002909101546060820152600b54909150600061162787836128a3565b9050611631612a8d565b600c82680a18f07d736b90be55601d1b811061164957fe5b60408051608081018252600392909202929092018054600f81810b810b810b8452600160801b909104810b810b900b60208301526001810154928201929092526002909101546060820152905060008084841015611746576116a9612a8d565b600c85600101680a18f07d736b90be55601d1b81106116c457fe5b60408051608081018252600392909202929092018054600f81810b810b810b8452600160801b909104810b810b900b60208301526001810154928201929092526002909101546060808301829052860151919250611721916121ce565b925061173e846040015182604001516121ce90919063ffffffff16565b915050611772565b60608301516117569043906121ce565b915061176f8360400151426121ce90919063ffffffff16565b90505b604083015182156117a1578261179585606001518d6121ce90919063ffffffff16565b83028161179e57fe5b04015b604087015160208801518851918303029003600f90810b810b8089526000910b126117db5750509351600f0b9650610e2095505050505050565b5060009b9a5050505050505050505050565b600260015414156118105760405162461bcd60e51b81526004016106d79061322e565b6002600155600a5460ff16156118385760405162461bcd60e51b81526004016106d790612f31565b333281148061186b57506001600160a01b03811660009081526c03c95a2f0b4856475fe000000f602052604090205460ff165b6118875760405162461bcd60e51b81526004016106d790612d2a565b600083116118a75760405162461bcd60e51b81526004016106d790613165565b62093a80808304026118b7612a76565b503360009081526009602090815260409182902082518084019093528054600f90810b810b810b80855260019092015492840192909252900b1561190d5760405162461bcd60e51b81526004016106d79061312e565b42821161192c5760405162461bcd60e51b81526004016106d790613192565b630784ce0042018211156119525760405162461bcd60e51b81526004016106d790613081565b611960338684846001611f3d565b505060018055505050565b611974816106b4565b600854604051637df367b560e11b81526001600160a01b039091169063fbe6cf6a906119a4903390600401612c77565b600060405180830381600087803b1580156119be57600080fd5b505af11580156119d2573d6000803e3d6000fd5b5050505050565b60006119e3612a8d565b600c600b54680a18f07d736b90be55601d1b81106119fd57fe5b60408051608081018252600392909202929092018054600f81810b810b810b8452600160801b909104810b810b900b602083015260018101549282019290925260029091015460608201529050611a54818461290f565b9392505050565b600a5460ff1615611a7e5760405162461bcd60e51b81526004016106d790612f31565b611abc600060405180604001604052806000600f0b8152602001600081525060405180604001604052806000600f0b815260200160008152506121f6565b565b6001600160a01b03821660009081526c03c95a2f0b4856475fe000000d602052604081205480611af2576000915050610e20565b611afa612a8d565b6001600160a01b03851660009081526c03c95a2f0b4856475fe000000c6020526040902082633b9aca008110611b2c57fe5b60408051608081018252600392909202929092018054600160801b8104600f90810b810b810b602085018190526001840154958501869052600290930154606085015293880390910290830b830b830b03820b820b8082529092506000910b1215611b9657600081525b51600f0b9150610e209050565b600a5460ff1681565b60096020526000908152604090208054600190910154600f9190910b9082565b600a5460ff16611bee5760405162461bcd60e51b81526004016106d790612f5a565b336000818152600960205260409081902080546006549251631bfc726f60e21b81529193600f91820b90910b926001600160a01b031691636ff1c9bc91611c3791600401612c77565b600060405180830381600087803b158015611c5157600080fd5b505af1925050508015611c62575060015b611ccf573d808015611c90576040519150601f19603f3d011682016040523d82523d6000602084013e611c95565b606091505b507fc75fb740d515c4fc862cc5c8f95343266e804872e7206e24f75751db41c4bcdc81604051611cc59190612cd3565b60405180910390a1505b6000600183015581546001600160801b03191682556007548111611cfb57600780548290039055611d01565b60006007555b60055460405163a9059cbb60e01b81526001600160a01b039091169063a9059cbb90611d339033908590600401612c8b565b602060405180830381600087803b158015611d4d57600080fd5b505af1158015611d61573d6000803e3d6000fd5b505050506040513d601f19601f82011682018060405250810190610a3c9190612bd7565b61197481611024565b6001600160a01b03821660009081526c03c95a2f0b4856475fe000000c6020526040812082633b9aca008110611dc057fe5b6003020160010154905092915050565b630784ce0081565b611de06121ca565b6001600160a01b0316611df1611207565b6001600160a01b031614611e175760405162461bcd60e51b81526004016106d7906130b8565b6001600160a01b038116611e3d5760405162461bcd60e51b81526004016106d790612d5f565b600080546040516001600160a01b03808516939216917f8be0079c531659141344cd1fd0a4f28419497f9722a3daafe3b4186f6b6457e091a3600080546001600160a01b0319166001600160a01b0392909216919091179055565b6001600160a01b03811660009081526c03c95a2f0b4856475fe000000d60209081526040808320546c03c95a2f0b4856475fe000000c909252822081633b9aca008110611ee157fe5b6003020154600160801b9004600f0b9392505050565b62093a8081565b6c03c95a2f0b4856475fe000000e60205260009081526040902054600f0b81565b6008546001600160a01b031681565b6005546001600160a01b031681565b611f45612a76565b506007548290611f5581876129e5565b600755611f60612a76565b50604080518082019091528251600f90810b82526020808501519083015283518801810b900b83528515611f9657602083018690525b6001600160a01b038816600090815260096020908152604090912084518154600f9190910b6001600160801b03166001600160801b031990911617815590840151600190910155611fe88882856121f6565b8615612130576005546040516323b872dd60e01b81526001600160a01b03909116906323b872dd90612022908b9030908c90600401612ca4565b602060405180830381600087803b15801561203c57600080fd5b505af1158015612050573d6000803e3d6000fd5b505050506040513d601f19601f820116820180604052508101906120749190612bd7565b6120905760405162461bcd60e51b81526004016106d790613016565b6006546040516317a790f160e11b81526001600160a01b0390911690632f4f21e2906120c2908b908b90600401612c8b565b602060405180830381600087803b1580156120dc57600080fd5b505af11580156120f0573d6000803e3d6000fd5b505050506040513d601f19601f820116820180604052508101906121149190612bd7565b6121305760405162461bcd60e51b81526004016106d790612efc565b8260200151886001600160a01b03167f7162984403f6c73c8639375d45a9187dfd04602231bd8e587c415718b5f7e5f98987600381111561216d57fe5b4260405161217d939291906132ac565b60405180910390a37f5e2aa66efd74cce82b21852e317e5490d9ecc9e6bb953ae24d90851258cc2f5c828884016040516121b892919061329e565b60405180910390a15050505050505050565b3390565b6000828211156121f05760405162461bcd60e51b81526004016106d790612e8e565b50900390565b6121fe612a8d565b612206612a8d565b600b5460009081906001600160a01b0388161561231957428760200151118015612237575060008760000151600f0b135b15612263578651630784ce00600f91820b05810b810b602087810182905289015142900302810b900b85525b42866020015111801561227d575060008660000151600f0b135b156122a9578551630784ce00600f91820b05810b810b602086810182905288015142900302810b900b84525b60208088015160009081526c03c95a2f0b4856475fe000000e8252604090205490870151600f9190910b935015612319578660200151866020015114156122f257829150612319565b60208087015160009081526c03c95a2f0b4856475fe000000e9091526040902054600f0b91505b612321612a8d565b506040805160808101825260008082526020820152429181019190915243606082015281156123b057600c82680a18f07d736b90be55601d1b811061236257fe5b60408051608081018252600392909202929092018054600f81810b810b810b8452600160801b909104810b810b900b6020830152600181015492820192909252600290910154606082015290505b60408101516123bd612a8d565b60405180608001604052808460000151600f0b81526020018460200151600f0b8152602001846040015181526020018460600151815250905060008360400151421115612427578360400151420384606001514303670de0b6b3a7640000028161242357fe5b0490505b62093a808084040260005b60ff8110156125ab5762093a808201915060004283111561245557429250612475565b5060008281526c03c95a2f0b4856475fe000000e6020526040902054600f0b5b602087018051885188860382029003600f90810b810b808b52918401810b810b9092526000910b12156124a757600087525b60008760200151600f0b12156124bf57600060208801525b8295508287604001818152505061250d612502670de0b6b3a76400006124fc6124f58960400151886121ce90919063ffffffff16565b8890612a0a565b90612a44565b6060870151906129e5565b6060880152600197909701964283141561252d57504360608701526125ab565b86600c89680a18f07d736b90be55601d1b811061254657fe5b82516003919091029190910180546020840151600f90810b6001600160801b03908116600160801b029490910b81166001600160801b031990921691909117169190911781556040820151600182015560609091015160029091015550600101612432565b50600b8690556001600160a01b038d1615612617576020808b01518a82015191870180519190920301600f90810b810b918290528b518b51885191900301810b810b8752600091900b121561260257600060208601525b60008560000151600f0b121561261757600085525b84600c87680a18f07d736b90be55601d1b811061263057fe5b82516003919091029190910180546020840151600f90810b6001600160801b03908116600160801b029490910b81166001600160801b03199092169190911716919091178155604082015160018201556060909101516002909101558c6001600160a01b0381161561289357428d602001511115612709578a60200151890198508c602001518c6020015114156126cb578960200151890398505b60208d81015160009081526c03c95a2f0b4856475fe000000e9091526040902080546001600160801b0319166001600160801b03600f8c900b161790555b428c602001511115612772578c602001518c602001511115612772576020808b01518d82015160009081526c03c95a2f0b4856475fe000000e9092526040909120805491909903600f81900b6001600160801b03166001600160801b0319909216919091179098555b60006c03c95a2f0b4856475fe000000d6000836001600160a01b03166001600160a01b03168152602001908152602001600020546001019050806c03c95a2f0b4856475fe000000d6000846001600160a01b03166001600160a01b0316815260200190815260200160002081905550428b6040018181525050438b60600181815250508a6c03c95a2f0b4856475fe000000c6000846001600160a01b03166001600160a01b0316815260200190815260200160002082633b9aca00811061283557fe5b82516003919091029190910180546020840151600f90810b6001600160801b03908116600160801b029490910b81166001600160801b0319909216919091171691909117815560408201516001820155606090910151600290910155505b5050505050505050505050505050565b60008082815b6080811015612905578183106128be57612905565b60028284016001010486600c82680a18f07d736b90be55601d1b81106128e057fe5b6003020160020154116128f5578093506128fc565b6001810392505b506001016128a9565b5090949350505050565b6000612919612a8d565b839050600062093a808083604001518161292f57fe5b0402905060005b60ff8110156129c35762093a808201915060008583111561295957859250612979565b5060008281526c03c95a2f0b4856475fe000000e6020526040902054600f0b5b604084015160208501518551918503029003600f90810b900b8452858314156129a257506129c3565b602084018051909101600f90810b900b905260408301829052600101612936565b5060008260000151600f0b12156129d957600082525b5051600f0b9392505050565b600082820183811015611a545760405162461bcd60e51b81526004016106d790612e20565b600082612a1957506000610e20565b82820282848281612a2657fe5b0414611a545760405162461bcd60e51b81526004016106d790613040565b6000808211612a655760405162461bcd60e51b81526004016106d790612ec5565b818381612a6e57fe5b049392505050565b604080518082019091526000808252602082015290565b60405180608001604052806000600f0b81526020016000600f0b815260200160008152602001600081525090565b8035610e20816132f7565b8035610e208161330f565b600060208284031215612ae2578081fd5b8135611a54816132f7565b60008060408385031215612aff578081fd5b8235612b0a816132f7565b946020939093013593505050565b60008060408385031215612b2a578182fd5b823567ffffffffffffffff80821115612b41578384fd5b818501915085601f830112612b54578384fd5b813581811115612b62578485fd5b60209150818102612b748382016132d0565b8281528381019085850183870186018b1015612b8e578889fd5b8896505b84871015612bb857612ba48b82612abb565b835260019690960195918501918501612b92565b5080975050505050612bcc86828701612ac6565b925050509250929050565b600060208284031215612be8578081fd5b8151611a548161330f565b600060208284031215612c04578081fd5b5035919050565b60008060408385031215612c1d578182fd5b50508035926020909101359150565b60008151808452815b81811015612c5157602081850181015186830182015201612c35565b81811115612c625782602083870101525b50601f01601f19169290920160200192915050565b6001600160a01b0391909116815260200190565b6001600160a01b03929092168252602082015260400190565b6001600160a01b039384168152919092166020820152604081019190915260600190565b901515815260200190565b600060208252611a546020830184612c2c565b600f9190910b815260200190565b600f94850b81529290930b60208301526040820152606081019190915260800190565b600f9290920b8252602082015260400190565b6020808252818101527f436f6e7472616374206973206e6f7420696e207468652077686974656c697374604082015260600190565b60208082526026908201527f4f776e61626c653a206e6577206f776e657220697320746865207a65726f206160408201526564647265737360d01b606082015260800190565b60208082526024908201527f43616e6e6f742061646420746f2065787069726564206c6f636b2e20576974686040820152636472617760e01b606082015260800190565b60208082526017908201527f526577617264506f6f6c20686173206265656e20736574000000000000000000604082015260600190565b6020808252601b908201527f536166654d6174683a206164646974696f6e206f766572666c6f770000000000604082015260600190565b6020808252601f908201527f43616e206f6e6c7920696e637265617365206c6f636b206475726174696f6e00604082015260600190565b6020808252601e908201527f536166654d6174683a207375627472616374696f6e206f766572666c6f770000604082015260600190565b6020808252601a908201527f536166654d6174683a206469766973696f6e206279207a65726f000000000000604082015260600190565b6020808252818101527f4465706f73697420696e746f2072657761726420706f6f6c206661696c65642e604082015260600190565b6020808252600f908201526e496e20616e20656d657267656e637960881b604082015260600190565b60208082526022908201527f4f6e6c792063616e2062652063616c6c656420696e20616e20656d657267656e604082015261637960f01b606082015260800190565b6020808252602f908201527f426c6f636b2073686f756c64206e6f742062652067726561746572207468616e60408201526e2063757272656e7420626c6f636b2160881b606082015260800190565b602080825260119082015270139bdd1a1a5b99c81a5cc81b1bd8dad959607a1b604082015260600190565b60208082526010908201526f5472616e73666572206661696c65642160801b604082015260600190565b60208082526021908201527f536166654d6174683a206d756c7469706c69636174696f6e206f766572666c6f6040820152607760f81b606082015260800190565b6020808252601e908201527f566f74696e67206c6f636b2063616e2062652034207965617273206d61780000604082015260600190565b6020808252818101527f4f776e61626c653a2063616c6c6572206973206e6f7420746865206f776e6572604082015260600190565b60208082526021908201527f57697468647261772066726f6d2072657761726420706f6f6c206661696c65646040820152601760f91b606082015260800190565b60208082526019908201527f5769746864726177206f6c6420746f6b656e7320666972737400000000000000604082015260600190565b6020808252601390820152724e656564206e6f6e2d7a65726f2076616c756560681b604082015260600190565b60208082526026908201527f43616e206f6e6c79206c6f636b20756e74696c2074696d6520696e207468652060408201526566757475726560d01b606082015260800190565b6020808252600c908201526b131bd8dac8195e1c1a5c995960a21b604082015260600190565b602080825260169082015275139bc8195e1a5cdd1a5b99c81b1bd8dac8199bdd5b9960521b604082015260600190565b6020808252601f908201527f5265656e7472616e637947756172643a207265656e7472616e742063616c6c00604082015260600190565b602080825260169082015275546865206c6f636b206469646e27742065787069726560501b604082015260600190565b90815260200190565b918252602082015260400190565b9283526020830191909152604082015260600190565b60ff91909116815260200190565b60405181810167ffffffffffffffff811182821017156132ef57600080fd5b604052919050565b6001600160a01b038116811461330c57600080fd5b50565b801515811461330c57600080fdfea2646970667358221220a850f492ed2bc16631c8423ac24258de3dd569dab3b83a005cb59f41b6d23e4364736f6c634300060c0033",
  "devdoc": {
    "kind": "dev",
    "methods": {
      "balanceOf(address)": {
        "params": {
          "addr": "User wallet address"
        },
        "returns": {
          "_0": "User voting power*"
        }
      },
      "balanceOfB(address,uint256)": {
        "params": {
          "_block": "Block to calculate the voting power at",
          "addr": "User's wallet address"
        },
        "returns": {
          "_0": "Voting power*"
        }
      },
      "balanceOfT(address,uint256)": {
        "params": {
          "_t": "Epoch time to return voting power at",
          "addr": "User wallet address"
        },
        "returns": {
          "_0": "User voting power*"
        }
      },
      "createLock(uint256,uint256)": {
        "params": {
          "_unlockTime": "Epoch time when tokens unlock, rounded down to whole weeks*",
          "_value": "Amount to deposit"
        }
      },
      "depositFor(address,uint256)": {
        "details": "Anyone (even a smart contract) can deposit for someone else, but cannot extend their locktime and deposit for a brand new user",
        "params": {
          "_addr": "User's wallet address",
          "_value": "Amount to add to user's lock*"
        }
      },
      "getLastUserSlope(address)": {
        "params": {
          "addr": "Address of the user wallet"
        },
        "returns": {
          "_0": "Value of the slope*"
        }
      },
      "increaseAmount(uint256)": {
        "params": {
          "_value": "Amount of tokens to deposit and add to the lock*"
        }
      },
      "increaseUnlockTime(uint256)": {
        "params": {
          "_unlockTime": "New epoch time for unlocking*"
        }
      },
      "lockedEnd(address)": {
        "params": {
          "_addr": "User wallet"
        },
        "returns": {
          "_0": "Epoch time of the lock end*"
        }
      },
      "owner()": {
        "details": "Returns the address of the current owner."
      },
      "renounceOwnership()": {
        "details": "Leaves the contract without owner. It will not be possible to call `onlyOwner` functions anymore. Can only be called by the current owner. NOTE: Renouncing ownership will leave the contract without an owner, thereby removing any functionality that is only available to the owner."
      },
      "setMasterchef(address)": {
        "params": {
          "_masterchef": "Address of masterchef"
        }
      },
      "setRewardPool(address)": {
        "params": {
          "_rewardPool": "Address of reward pool"
        }
      },
      "setWhitelist(address[],bool)": {
        "params": {
          "_flag": "True to allow or false to disallow",
          "_users": "A list of address"
        }
      },
      "totalSupply()": {
        "returns": {
          "_0": "Total voting power*"
        }
      },
      "totalSupplyB(uint256)": {
        "params": {
          "_block": "Block to calculate the total voting power at"
        },
        "returns": {
          "_0": "Total voting power at `_block`*"
        }
      },
      "totalSupplyT(uint256)": {
        "params": {
          "t": "Time to calculate the total voting power at"
        },
        "returns": {
          "_0": "Total voting power*"
        }
      },
      "transferOwnership(address)": {
        "details": "Transfers ownership of the contract to a new account (`newOwner`). Can only be called by the current owner."
      },
      "userPointHistoryTs(address,uint256)": {
        "params": {
          "_addr": "User wallet address",
          "_idx": "User epoch number"
        },
        "returns": {
          "_0": "Epoch time of the checkpoint*"
        }
      },
      "withdraw()": {
        "details": "Only possible if the lock has expired*"
      }
    },
    "version": 1
  },
  "userdoc": {
    "kind": "user",
    "methods": {
      "balanceOf(address)": {
        "notice": "Get the current voting power for `msg.sender`"
      },
      "balanceOfB(address,uint256)": {
        "notice": "Measure voting power of `addr` at block height `_block`"
      },
      "balanceOfT(address,uint256)": {
        "notice": "Get the voting power for `msg.sender`"
      },
      "checkpoint()": {
        "notice": "Record global data to checkpoint*"
      },
      "createLock(uint256,uint256)": {
        "notice": "Deposit `_value` tokens for `msg.sender` and lock until `_unlock_time`"
      },
      "depositFor(address,uint256)": {
        "notice": "Deposit `_value` tokens for `_addr` and add to the lock"
      },
      "emergencyWithdraw()": {
        "notice": "Withdraw during emergency*"
      },
      "getLastUserSlope(address)": {
        "notice": "Get the most recently recorded rate of voting power decrease for `addr`"
      },
      "increaseAmount(uint256)": {
        "notice": "Deposit `_value` additional tokens for `msg.sender` without modifying the unlock time"
      },
      "increaseUnlockTime(uint256)": {
        "notice": "Extend the unlock time for `msg.sender` to `_unlock_time`"
      },
      "lockedEnd(address)": {
        "notice": "Get timestamp when `_addr`'s lock finishes"
      },
      "setEmergency()": {
        "notice": "Only set once"
      },
      "setMasterchef(address)": {
        "notice": "Only set once"
      },
      "setRewardPool(address)": {
        "notice": "Only set once"
      },
      "setWhitelist(address[],bool)": {
        "notice": "Sets a list of users who are allowed/denied to deposit"
      },
      "totalSupply()": {
        "notice": "Calculate current total voting power"
      },
      "totalSupplyB(uint256)": {
        "notice": "Calculate total voting power at some point in the past"
      },
      "totalSupplyT(uint256)": {
        "notice": "Calculate total voting power"
      },
      "userPointHistoryTs(address,uint256)": {
        "notice": "Get the timestamp for checkpoint `_idx` for `_addr`"
      },
      "withdraw()": {
        "notice": "Withdraw all tokens for `msg.sender`"
      }
    },
    "version": 1
  },
  "storageLayout": {
    "storage": [
      {
        "astId": 7,
        "contract": "contracts/staking/VotingEscrow.sol:VotingEscrow",
        "label": "_owner",
        "offset": 0,
        "slot": "0",
        "type": "t_address"
      },
      {
        "astId": 2302,
        "contract": "contracts/staking/VotingEscrow.sol:VotingEscrow",
        "label": "_status",
        "offset": 0,
        "slot": "1",
        "type": "t_uint256"
      },
      {
        "astId": 27928,
        "contract": "contracts/staking/VotingEscrow.sol:VotingEscrow",
        "label": "name",
        "offset": 0,
        "slot": "2",
        "type": "t_string_storage"
      },
      {
        "astId": 27930,
        "contract": "contracts/staking/VotingEscrow.sol:VotingEscrow",
        "label": "symbol",
        "offset": 0,
        "slot": "3",
        "type": "t_string_storage"
      },
      {
        "astId": 27932,
        "contract": "contracts/staking/VotingEscrow.sol:VotingEscrow",
        "label": "version",
        "offset": 0,
        "slot": "4",
        "type": "t_string_storage"
      },
      {
        "astId": 27936,
        "contract": "contracts/staking/VotingEscrow.sol:VotingEscrow",
        "label": "token",
        "offset": 0,
        "slot": "5",
        "type": "t_address"
      },
      {
        "astId": 27938,
        "contract": "contracts/staking/VotingEscrow.sol:VotingEscrow",
        "label": "rewardPool",
        "offset": 0,
        "slot": "6",
        "type": "t_contract(IRewardPool)7874"
      },
      {
        "astId": 27940,
        "contract": "contracts/staking/VotingEscrow.sol:VotingEscrow",
        "label": "supply",
        "offset": 0,
        "slot": "7",
        "type": "t_uint256"
      },
      {
        "astId": 27942,
        "contract": "contracts/staking/VotingEscrow.sol:VotingEscrow",
        "label": "masterchef",
        "offset": 0,
        "slot": "8",
        "type": "t_contract(IMasterChef)7808"
      },
      {
        "astId": 27946,
        "contract": "contracts/staking/VotingEscrow.sol:VotingEscrow",
        "label": "locked",
        "offset": 0,
        "slot": "9",
        "type": "t_mapping(t_address,t_struct(LockedBalance)27926_storage)"
      },
      {
        "astId": 27948,
        "contract": "contracts/staking/VotingEscrow.sol:VotingEscrow",
        "label": "emergency",
        "offset": 0,
        "slot": "10",
        "type": "t_bool"
      },
      {
        "astId": 27950,
        "contract": "contracts/staking/VotingEscrow.sol:VotingEscrow",
        "label": "epoch",
        "offset": 0,
        "slot": "11",
        "type": "t_uint256"
      },
      {
        "astId": 27954,
        "contract": "contracts/staking/VotingEscrow.sol:VotingEscrow",
        "label": "pointHistory",
        "offset": 0,
        "slot": "12",
        "type": "t_array(t_struct(Point)27921_storage)100000000000000000000000000000_storage"
      },
      {
        "astId": 27960,
        "contract": "contracts/staking/VotingEscrow.sol:VotingEscrow",
        "label": "userPointHistory",
        "offset": 0,
        "slot": "300000000000000000000000000012",
        "type": "t_mapping(t_address,t_array(t_struct(Point)27921_storage)1000000000_storage)"
      },
      {
        "astId": 27964,
        "contract": "contracts/staking/VotingEscrow.sol:VotingEscrow",
        "label": "userPointEpoch",
        "offset": 0,
        "slot": "300000000000000000000000000013",
        "type": "t_mapping(t_address,t_uint256)"
      },
      {
        "astId": 27968,
        "contract": "contracts/staking/VotingEscrow.sol:VotingEscrow",
        "label": "slopeChanges",
        "offset": 0,
        "slot": "300000000000000000000000000014",
        "type": "t_mapping(t_uint256,t_int128)"
      },
      {
        "astId": 27972,
        "contract": "contracts/staking/VotingEscrow.sol:VotingEscrow",
        "label": "whitelist",
        "offset": 0,
        "slot": "300000000000000000000000000015",
        "type": "t_mapping(t_address,t_bool)"
      }
    ],
    "types": {
      "t_address": {
        "encoding": "inplace",
        "label": "address",
        "numberOfBytes": "20"
      },
      "t_array(t_struct(Point)27921_storage)100000000000000000000000000000_storage": {
        "base": "t_struct(Point)27921_storage",
        "encoding": "inplace",
        "label": "struct VotingEscrow.Point[100000000000000000000000000000]",
        "numberOfBytes": "9600000000000000000000000000000"
      },
      "t_array(t_struct(Point)27921_storage)1000000000_storage": {
        "base": "t_struct(Point)27921_storage",
        "encoding": "inplace",
        "label": "struct VotingEscrow.Point[1000000000]",
        "numberOfBytes": "96000000000"
      },
      "t_bool": {
        "encoding": "inplace",
        "label": "bool",
        "numberOfBytes": "1"
      },
      "t_contract(IMasterChef)7808": {
        "encoding": "inplace",
        "label": "contract IMasterChef",
        "numberOfBytes": "20"
      },
      "t_contract(IRewardPool)7874": {
        "encoding": "inplace",
        "label": "contract IRewardPool",
        "numberOfBytes": "20"
      },
      "t_int128": {
        "encoding": "inplace",
        "label": "int128",
        "numberOfBytes": "16"
      },
      "t_mapping(t_address,t_array(t_struct(Point)27921_storage)1000000000_storage)": {
        "encoding": "mapping",
        "key": "t_address",
        "label": "mapping(address => struct VotingEscrow.Point[1000000000])",
        "numberOfBytes": "32",
        "value": "t_array(t_struct(Point)27921_storage)1000000000_storage"
      },
      "t_mapping(t_address,t_bool)": {
        "encoding": "mapping",
        "key": "t_address",
        "label": "mapping(address => bool)",
        "numberOfBytes": "32",
        "value": "t_bool"
      },
      "t_mapping(t_address,t_struct(LockedBalance)27926_storage)": {
        "encoding": "mapping",
        "key": "t_address",
        "label": "mapping(address => struct VotingEscrow.LockedBalance)",
        "numberOfBytes": "32",
        "value": "t_struct(LockedBalance)27926_storage"
      },
      "t_mapping(t_address,t_uint256)": {
        "encoding": "mapping",
        "key": "t_address",
        "label": "mapping(address => uint256)",
        "numberOfBytes": "32",
        "value": "t_uint256"
      },
      "t_mapping(t_uint256,t_int128)": {
        "encoding": "mapping",
        "key": "t_uint256",
        "label": "mapping(uint256 => int128)",
        "numberOfBytes": "32",
        "value": "t_int128"
      },
      "t_string_storage": {
        "encoding": "bytes",
        "label": "string",
        "numberOfBytes": "32"
      },
      "t_struct(LockedBalance)27926_storage": {
        "encoding": "inplace",
        "label": "struct VotingEscrow.LockedBalance",
        "members": [
          {
            "astId": 27923,
            "contract": "contracts/staking/VotingEscrow.sol:VotingEscrow",
            "label": "amount",
            "offset": 0,
            "slot": "0",
            "type": "t_int128"
          },
          {
            "astId": 27925,
            "contract": "contracts/staking/VotingEscrow.sol:VotingEscrow",
            "label": "end",
            "offset": 0,
            "slot": "1",
            "type": "t_uint256"
          }
        ],
        "numberOfBytes": "64"
      },
      "t_struct(Point)27921_storage": {
        "encoding": "inplace",
        "label": "struct VotingEscrow.Point",
        "members": [
          {
            "astId": 27914,
            "contract": "contracts/staking/VotingEscrow.sol:VotingEscrow",
            "label": "bias",
            "offset": 0,
            "slot": "0",
            "type": "t_int128"
          },
          {
            "astId": 27916,
            "contract": "contracts/staking/VotingEscrow.sol:VotingEscrow",
            "label": "slope",
            "offset": 16,
            "slot": "0",
            "type": "t_int128"
          },
          {
            "astId": 27918,
            "contract": "contracts/staking/VotingEscrow.sol:VotingEscrow",
            "label": "ts",
            "offset": 0,
            "slot": "1",
            "type": "t_uint256"
          },
          {
            "astId": 27920,
            "contract": "contracts/staking/VotingEscrow.sol:VotingEscrow",
            "label": "blk",
            "offset": 0,
            "slot": "2",
            "type": "t_uint256"
          }
        ],
        "numberOfBytes": "96"
      },
      "t_uint256": {
        "encoding": "inplace",
        "label": "uint256",
        "numberOfBytes": "32"
      }
    }
  }
}